{
  "_format": "hh-sol-artifact-1",
  "contractName": "ERC20TransferProxy",
  "sourceName": "contracts/ERC20TransferProxy.sol",
  "abi": [
    {
      "anonymous": false,
      "inputs": [
        {
          "indexed": true,
          "internalType": "address",
          "name": "previousOwner",
          "type": "address"
        },
        {
          "indexed": true,
          "internalType": "address",
          "name": "newOwner",
          "type": "address"
        }
      ],
      "name": "OwnershipTransferred",
      "type": "event"
    },
    {
      "inputs": [],
      "name": "__ERC20TransferProxy_init",
      "outputs": [],
      "stateMutability": "nonpayable",
      "type": "function"
    },
    {
      "inputs": [],
      "name": "__OperatorRole_init",
      "outputs": [],
      "stateMutability": "nonpayable",
      "type": "function"
    },
    {
      "inputs": [
        {
          "internalType": "address",
          "name": "operator",
          "type": "address"
        }
      ],
      "name": "addOperator",
      "outputs": [],
      "stateMutability": "nonpayable",
      "type": "function"
    },
    {
      "inputs": [
        {
          "internalType": "contract IERC20Upgradeable",
          "name": "token",
          "type": "address"
        },
        {
          "internalType": "address",
          "name": "from",
          "type": "address"
        },
        {
          "internalType": "address",
          "name": "to",
          "type": "address"
        },
        {
          "internalType": "uint256",
          "name": "value",
          "type": "uint256"
        }
      ],
      "name": "erc20safeTransferFrom",
      "outputs": [],
      "stateMutability": "nonpayable",
      "type": "function"
    },
    {
      "inputs": [],
      "name": "owner",
      "outputs": [
        {
          "internalType": "address",
          "name": "",
          "type": "address"
        }
      ],
      "stateMutability": "view",
      "type": "function"
    },
    {
      "inputs": [
        {
          "internalType": "address",
          "name": "operator",
          "type": "address"
        }
      ],
      "name": "removeOperator",
      "outputs": [],
      "stateMutability": "nonpayable",
      "type": "function"
    },
    {
      "inputs": [],
      "name": "renounceOwnership",
      "outputs": [],
      "stateMutability": "nonpayable",
      "type": "function"
    },
    {
      "inputs": [
        {
          "internalType": "address",
          "name": "newOwner",
          "type": "address"
        }
      ],
      "name": "transferOwnership",
      "outputs": [],
      "stateMutability": "nonpayable",
      "type": "function"
    }
  ],
  "bytecode": "0x608060405234801561001057600080fd5b50610908806100206000396000f3fe608060405234801561001057600080fd5b50600436106100885760003560e01c80638da5cb5b1161005b5780638da5cb5b146100ba5780639870d7fe146100d9578063ac8a584a146100ec578063f2fde38b146100ff57600080fd5b80632ff26a0a1461008d578063715018a614610097578063759781271461009f578063776062c3146100a7575b600080fd5b610095610112565b005b6100956101da565b61009561027e565b6100956100b536600461086d565b610324565b603354604080516001600160a01b039092168252519081900360200190f35b6100956100e736600461082a565b610470565b6100956100fa36600461082a565b6104ee565b61009561010d36600461082a565b610569565b600054610100900460ff168061012b575060005460ff16155b6101935760405162461bcd60e51b815260206004820152602e60248201527f496e697469616c697a61626c653a20636f6e747261637420697320616c72656160448201526d191e481a5b9a5d1a585b1a5e995960921b60648201526084015b60405180910390fd5b600054610100900460ff161580156101b5576000805461ffff19166101011790555b6101bd610684565b6101c5610735565b80156101d7576000805461ff00191690555b50565b6033546001600160a01b031633146102345760405162461bcd60e51b815260206004820181905260248201527f4f776e61626c653a2063616c6c6572206973206e6f7420746865206f776e6572604482015260640161018a565b6033546040516000916001600160a01b0316907f8be0079c531659141344cd1fd0a4f28419497f9722a3daafe3b4186f6b6457e0908390a3603380546001600160a01b0319169055565b600054610100900460ff1680610297575060005460ff16155b6102fa5760405162461bcd60e51b815260206004820152602e60248201527f496e697469616c697a61626c653a20636f6e747261637420697320616c72656160448201526d191e481a5b9a5d1a585b1a5e995960921b606482015260840161018a565b600054610100900460ff1615801561031c576000805461ffff19166101011790555b6101c5610112565b3360009081526065602052604090205460ff166103945760405162461bcd60e51b815260206004820152602860248201527f4f70657261746f72526f6c653a2063616c6c6572206973206e6f74207468652060448201526737b832b930ba37b960c11b606482015260840161018a565b6040516323b872dd60e01b81526001600160a01b0384811660048301528381166024830152604482018390528516906323b872dd90606401602060405180830381600087803b1580156103e657600080fd5b505af11580156103fa573d6000803e3d6000fd5b505050506040513d601f19601f8201168201806040525081019061041e919061084d565b61046a5760405162461bcd60e51b815260206004820152601a60248201527f6661696c757265207768696c65207472616e7366657272696e67000000000000604482015260640161018a565b50505050565b6033546001600160a01b031633146104ca5760405162461bcd60e51b815260206004820181905260248201527f4f776e61626c653a2063616c6c6572206973206e6f7420746865206f776e6572604482015260640161018a565b6001600160a01b03166000908152606560205260409020805460ff19166001179055565b6033546001600160a01b031633146105485760405162461bcd60e51b815260206004820181905260248201527f4f776e61626c653a2063616c6c6572206973206e6f7420746865206f776e6572604482015260640161018a565b6001600160a01b03166000908152606560205260409020805460ff19169055565b6033546001600160a01b031633146105c35760405162461bcd60e51b815260206004820181905260248201527f4f776e61626c653a2063616c6c6572206973206e6f7420746865206f776e6572604482015260640161018a565b6001600160a01b0381166106285760405162461bcd60e51b815260206004820152602660248201527f4f776e61626c653a206e6577206f776e657220697320746865207a65726f206160448201526564647265737360d01b606482015260840161018a565b6033546040516001600160a01b038084169216907f8be0079c531659141344cd1fd0a4f28419497f9722a3daafe3b4186f6b6457e090600090a3603380546001600160a01b0319166001600160a01b0392909216919091179055565b600054610100900460ff168061069d575060005460ff16155b6107005760405162461bcd60e51b815260206004820152602e60248201527f496e697469616c697a61626c653a20636f6e747261637420697320616c72656160448201526d191e481a5b9a5d1a585b1a5e995960921b606482015260840161018a565b600054610100900460ff161580156101c5576000805461ffff191661010117905580156101d7576000805461ff001916905550565b600054610100900460ff168061074e575060005460ff16155b6107b15760405162461bcd60e51b815260206004820152602e60248201527f496e697469616c697a61626c653a20636f6e747261637420697320616c72656160448201526d191e481a5b9a5d1a585b1a5e995960921b606482015260840161018a565b600054610100900460ff161580156107d3576000805461ffff19166101011790555b603380546001600160a01b0319163390811790915560405181906000907f8be0079c531659141344cd1fd0a4f28419497f9722a3daafe3b4186f6b6457e0908290a35080156101d7576000805461ff001916905550565b60006020828403121561083b578081fd5b8135610846816108bd565b9392505050565b60006020828403121561085e578081fd5b81518015158114610846578182fd5b60008060008060808587031215610882578283fd5b843561088d816108bd565b9350602085013561089d816108bd565b925060408501356108ad816108bd565b9396929550929360600135925050565b6001600160a01b03811681146101d757600080fdfea2646970667358221220db4f22348ad509852c1cea435a4d9398699c3c27fe2cc59a86759d4ae90670df64736f6c63430008040033",
  "linkReferences": {},
  "deployedLinkReferences": {}
}