{
  "address": "0xcCc6964582310f915Ac1AF470Aa7f389387837be",
  "abi": [
    {
      "anonymous": false,
      "inputs": [
        {
          "indexed": false,
          "internalType": "uint8",
          "name": "version",
          "type": "uint8"
        }
      ],
      "name": "Initialized",
      "type": "event"
    },
    {
      "anonymous": false,
      "inputs": [
        {
          "indexed": true,
          "internalType": "address",
          "name": "previousOwner",
          "type": "address"
        },
        {
          "indexed": true,
          "internalType": "address",
          "name": "newOwner",
          "type": "address"
        }
      ],
      "name": "OwnershipTransferred",
      "type": "event"
    },
    {
      "inputs": [],
      "name": "__ERC20TransferProxy_init",
      "outputs": [],
      "stateMutability": "nonpayable",
      "type": "function"
    },
    {
      "inputs": [],
      "name": "__OperatorRole_init",
      "outputs": [],
      "stateMutability": "nonpayable",
      "type": "function"
    },
    {
      "inputs": [
        {
          "internalType": "address",
          "name": "operator",
          "type": "address"
        }
      ],
      "name": "addOperator",
      "outputs": [],
      "stateMutability": "nonpayable",
      "type": "function"
    },
    {
      "inputs": [
        {
          "internalType": "contract IERC20Upgradeable",
          "name": "token",
          "type": "address"
        },
        {
          "internalType": "address",
          "name": "from",
          "type": "address"
        },
        {
          "internalType": "address",
          "name": "to",
          "type": "address"
        },
        {
          "internalType": "uint256",
          "name": "value",
          "type": "uint256"
        }
      ],
      "name": "erc20safeTransferFrom",
      "outputs": [],
      "stateMutability": "nonpayable",
      "type": "function"
    },
    {
      "inputs": [
        {
          "internalType": "address",
          "name": "",
          "type": "address"
        }
      ],
      "name": "operators",
      "outputs": [
        {
          "internalType": "bool",
          "name": "",
          "type": "bool"
        }
      ],
      "stateMutability": "view",
      "type": "function"
    },
    {
      "inputs": [],
      "name": "owner",
      "outputs": [
        {
          "internalType": "address",
          "name": "",
          "type": "address"
        }
      ],
      "stateMutability": "view",
      "type": "function"
    },
    {
      "inputs": [
        {
          "internalType": "address",
          "name": "operator",
          "type": "address"
        }
      ],
      "name": "removeOperator",
      "outputs": [],
      "stateMutability": "nonpayable",
      "type": "function"
    },
    {
      "inputs": [],
      "name": "renounceOwnership",
      "outputs": [],
      "stateMutability": "nonpayable",
      "type": "function"
    },
    {
      "inputs": [
        {
          "internalType": "address",
          "name": "newOwner",
          "type": "address"
        }
      ],
      "name": "transferOwnership",
      "outputs": [],
      "stateMutability": "nonpayable",
      "type": "function"
    }
  ],
  "transactionHash": "0x25028bce31677d9d3c5541a329a80f4deafcb907183fd1da6b641c73261e6f93",
  "args": [],
  "numDeployments": 1,
  "solcInputHash": "b409e2163f540739a526753a3a6c5675",
  "bytecode": "0x608060405234801561001057600080fd5b50610775806100206000396000f3fe608060405234801561001057600080fd5b50600436106100835760003560e01c806313e7c9d8146100885780632ff26a0a146100c0578063715018a6146100ca57806375978127146100d2578063776062c3146100da5780638da5cb5b146100ed5780639870d7fe14610108578063ac8a584a1461011b578063f2fde38b1461012e575b600080fd5b6100ab61009636600461060f565b60656020526000908152604090205460ff1681565b60405190151581526020015b60405180910390f35b6100c8610141565b005b6100c861021c565b6100c8610230565b6100c86100e8366004610633565b6102b1565b6033546040516001600160a01b0390911681526020016100b7565b6100c861011636600461060f565b6103fd565b6100c861012936600461060f565b610429565b6100c861013c36600461060f565b610452565b600054610100900460ff16158080156101615750600054600160ff909116105b8061017b5750303b15801561017b575060005460ff166001145b6101a05760405162461bcd60e51b815260040161019790610684565b60405180910390fd5b6000805460ff1916600117905580156101c3576000805461ff0019166101001790555b6101cb6104c8565b6101d36104ef565b8015610219576000805461ff0019169055604051600181527f7f26b83ff96e1f2b6a682f133852f6798a09c465da95921460cefb38474024989060200160405180910390a15b50565b61022461051f565b61022e6000610579565b565b600054610100900460ff16158080156102505750600054600160ff909116105b8061026a5750303b15801561026a575060005460ff166001145b6102865760405162461bcd60e51b815260040161019790610684565b6000805460ff1916600117905580156102a9576000805461ff0019166101001790555b6101d36105cb565b3360009081526065602052604090205460ff166103215760405162461bcd60e51b815260206004820152602860248201527f4f70657261746f72526f6c653a2063616c6c6572206973206e6f74207468652060448201526737b832b930ba37b960c11b6064820152608401610197565b6040516323b872dd60e01b81526001600160a01b0384811660048301528381166024830152604482018390528516906323b872dd90606401602060405180830381600087803b15801561037357600080fd5b505af1158015610387573d6000803e3d6000fd5b505050506040513d601f19601f820116820180604052508101906103ab91906106d2565b6103f75760405162461bcd60e51b815260206004820152601a60248201527f6661696c757265207768696c65207472616e7366657272696e670000000000006044820152606401610197565b50505050565b61040561051f565b6001600160a01b03166000908152606560205260409020805460ff19166001179055565b61043161051f565b6001600160a01b03166000908152606560205260409020805460ff19169055565b61045a61051f565b6001600160a01b0381166104bf5760405162461bcd60e51b815260206004820152602660248201527f4f776e61626c653a206e6577206f776e657220697320746865207a65726f206160448201526564647265737360d01b6064820152608401610197565b61021981610579565b600054610100900460ff1661022e5760405162461bcd60e51b8152600401610197906106f4565b600054610100900460ff166105165760405162461bcd60e51b8152600401610197906106f4565b61022e33610579565b6033546001600160a01b0316331461022e5760405162461bcd60e51b815260206004820181905260248201527f4f776e61626c653a2063616c6c6572206973206e6f7420746865206f776e65726044820152606401610197565b603380546001600160a01b038381166001600160a01b0319831681179093556040519116919082907f8be0079c531659141344cd1fd0a4f28419497f9722a3daafe3b4186f6b6457e090600090a35050565b600054610100900460ff166105f25760405162461bcd60e51b8152600401610197906106f4565b61022e6104ef565b6001600160a01b038116811461021957600080fd5b60006020828403121561062157600080fd5b813561062c816105fa565b9392505050565b6000806000806080858703121561064957600080fd5b8435610654816105fa565b93506020850135610664816105fa565b92506040850135610674816105fa565b9396929550929360600135925050565b6020808252602e908201527f496e697469616c697a61626c653a20636f6e747261637420697320616c72656160408201526d191e481a5b9a5d1a585b1a5e995960921b606082015260800190565b6000602082840312156106e457600080fd5b8151801515811461062c57600080fd5b6020808252602b908201527f496e697469616c697a61626c653a20636f6e7472616374206973206e6f74206960408201526a6e697469616c697a696e6760a81b60608201526080019056fea26469706673582212201b48e89ea4b70e4766daa695d7b0cc8dbfbd6203ef6a3df89e42500640d574ed64736f6c63430008090033",
  "devdoc": {
    "kind": "dev",
    "methods": {
      "owner()": {
        "details": "Returns the address of the current owner."
      },
      "renounceOwnership()": {
        "details": "Leaves the contract without owner. It will not be possible to call `onlyOwner` functions anymore. Can only be called by the current owner. NOTE: Renouncing ownership will leave the contract without an owner, thereby removing any functionality that is only available to the owner."
      },
      "transferOwnership(address)": {
        "details": "Transfers ownership of the contract to a new account (`newOwner`). Can only be called by the current owner."
      }
    },
    "version": 1
  },
  "userdoc": {
    "kind": "user",
    "methods": {},
    "version": 1
  },
  "storageLayout": {
    "storage": [
      {
        "astId": 721,
        "contract": "src/transfer-proxy/ERC20TransferProxy.sol:ERC20TransferProxy",
        "label": "_initialized",
        "offset": 0,
        "slot": "0",
        "type": "t_uint8"
      },
      {
        "astId": 724,
        "contract": "src/transfer-proxy/ERC20TransferProxy.sol:ERC20TransferProxy",
        "label": "_initializing",
        "offset": 1,
        "slot": "0",
        "type": "t_bool"
      },
      {
        "astId": 4842,
        "contract": "src/transfer-proxy/ERC20TransferProxy.sol:ERC20TransferProxy",
        "label": "__gap",
        "offset": 0,
        "slot": "1",
        "type": "t_array(t_uint256)50_storage"
      },
      {
        "astId": 593,
        "contract": "src/transfer-proxy/ERC20TransferProxy.sol:ERC20TransferProxy",
        "label": "_owner",
        "offset": 0,
        "slot": "51",
        "type": "t_address"
      },
      {
        "astId": 713,
        "contract": "src/transfer-proxy/ERC20TransferProxy.sol:ERC20TransferProxy",
        "label": "__gap",
        "offset": 0,
        "slot": "52",
        "type": "t_array(t_uint256)49_storage"
      },
      {
        "astId": 29429,
        "contract": "src/transfer-proxy/ERC20TransferProxy.sol:ERC20TransferProxy",
        "label": "operators",
        "offset": 0,
        "slot": "101",
        "type": "t_mapping(t_address,t_bool)"
      }
    ],
    "types": {
      "t_address": {
        "encoding": "inplace",
        "label": "address",
        "numberOfBytes": "20"
      },
      "t_array(t_uint256)49_storage": {
        "base": "t_uint256",
        "encoding": "inplace",
        "label": "uint256[49]",
        "numberOfBytes": "1568"
      },
      "t_array(t_uint256)50_storage": {
        "base": "t_uint256",
        "encoding": "inplace",
        "label": "uint256[50]",
        "numberOfBytes": "1600"
      },
      "t_bool": {
        "encoding": "inplace",
        "label": "bool",
        "numberOfBytes": "1"
      },
      "t_mapping(t_address,t_bool)": {
        "encoding": "mapping",
        "key": "t_address",
        "label": "mapping(address => bool)",
        "numberOfBytes": "32",
        "value": "t_bool"
      },
      "t_uint256": {
        "encoding": "inplace",
        "label": "uint256",
        "numberOfBytes": "32"
      },
      "t_uint8": {
        "encoding": "inplace",
        "label": "uint8",
        "numberOfBytes": "1"
      }
    }
  }
}