{
  "address": "0x8126061C433C22e1bA072B8eAb35D456BDbb9ba6",
  "abi": [
    {
      "anonymous": false,
      "inputs": [
        {
          "indexed": false,
          "internalType": "bool",
          "name": "result",
          "type": "bool"
        },
        {
          "indexed": true,
          "internalType": "address",
          "name": "sender",
          "type": "address"
        }
      ],
      "name": "Execution",
      "type": "event"
    },
    {
      "anonymous": false,
      "inputs": [
        {
          "indexed": false,
          "internalType": "uint8",
          "name": "version",
          "type": "uint8"
        }
      ],
      "name": "Initialized",
      "type": "event"
    },
    {
      "anonymous": false,
      "inputs": [
        {
          "indexed": true,
          "internalType": "address",
          "name": "previousOwner",
          "type": "address"
        },
        {
          "indexed": true,
          "internalType": "address",
          "name": "newOwner",
          "type": "address"
        }
      ],
      "name": "OwnershipTransferred",
      "type": "event"
    },
    {
      "anonymous": false,
      "inputs": [
        {
          "indexed": false,
          "internalType": "address",
          "name": "account",
          "type": "address"
        }
      ],
      "name": "Paused",
      "type": "event"
    },
    {
      "anonymous": false,
      "inputs": [
        {
          "indexed": false,
          "internalType": "address",
          "name": "account",
          "type": "address"
        }
      ],
      "name": "Unpaused",
      "type": "event"
    },
    {
      "inputs": [
        {
          "internalType": "address",
          "name": "_exchangeV2",
          "type": "address"
        },
        {
          "internalType": "address",
          "name": "_rarible",
          "type": "address"
        },
        {
          "internalType": "address",
          "name": "_wyvern",
          "type": "address"
        },
        {
          "internalType": "address",
          "name": "_seaport",
          "type": "address"
        },
        {
          "internalType": "address",
          "name": "_x2y2",
          "type": "address"
        },
        {
          "internalType": "address",
          "name": "_looksrare",
          "type": "address"
        },
        {
          "internalType": "address",
          "name": "_sudoswap",
          "type": "address"
        },
        {
          "internalType": "address",
          "name": "_blur",
          "type": "address"
        }
      ],
      "name": "__ExchangeWrapper_init",
      "outputs": [],
      "stateMutability": "nonpayable",
      "type": "function"
    },
    {
      "inputs": [],
      "name": "blur",
      "outputs": [
        {
          "internalType": "address",
          "name": "",
          "type": "address"
        }
      ],
      "stateMutability": "view",
      "type": "function"
    },
    {
      "inputs": [
        {
          "components": [
            {
              "internalType": "enum ExchangeWrapperCore.Markets",
              "name": "marketId",
              "type": "uint8"
            },
            {
              "internalType": "uint256",
              "name": "amount",
              "type": "uint256"
            },
            {
              "internalType": "uint256",
              "name": "fees",
              "type": "uint256"
            },
            {
              "internalType": "bytes",
              "name": "data",
              "type": "bytes"
            }
          ],
          "internalType": "struct ExchangeWrapperCore.PurchaseDetails[]",
          "name": "purchaseDetails",
          "type": "tuple[]"
        },
        {
          "internalType": "address",
          "name": "feeRecipientFirst",
          "type": "address"
        },
        {
          "internalType": "address",
          "name": "feeRecipientSecond",
          "type": "address"
        },
        {
          "internalType": "bool",
          "name": "allowFail",
          "type": "bool"
        }
      ],
      "name": "bulkPurchase",
      "outputs": [],
      "stateMutability": "payable",
      "type": "function"
    },
    {
      "inputs": [
        {
          "components": [
            {
              "internalType": "enum ExchangeWrapperCore.Markets",
              "name": "marketId",
              "type": "uint8"
            },
            {
              "internalType": "uint256",
              "name": "amount",
              "type": "uint256"
            },
            {
              "internalType": "uint256",
              "name": "fees",
              "type": "uint256"
            },
            {
              "internalType": "bytes",
              "name": "data",
              "type": "bytes"
            }
          ],
          "internalType": "struct ExchangeWrapperCore.PurchaseDetails[]",
          "name": "purchaseDetails",
          "type": "tuple[]"
        },
        {
          "internalType": "address",
          "name": "feeRecipientFirst",
          "type": "address"
        },
        {
          "internalType": "address",
          "name": "feeRecipientSecond",
          "type": "address"
        },
        {
          "internalType": "bool",
          "name": "allowFail",
          "type": "bool"
        },
        {
          "components": [
            {
              "internalType": "bytes",
              "name": "path",
              "type": "bytes"
            },
            {
              "internalType": "uint256",
              "name": "amountOut",
              "type": "uint256"
            },
            {
              "internalType": "uint256",
              "name": "amountInMaximum",
              "type": "uint256"
            },
            {
              "internalType": "bool",
              "name": "unwrap",
              "type": "bool"
            }
          ],
          "internalType": "struct ExchangeWrapperCore.SwapDetailsIn",
          "name": "swapDetails",
          "type": "tuple"
        }
      ],
      "name": "bulkPurchaseWithSwap",
      "outputs": [],
      "stateMutability": "payable",
      "type": "function"
    },
    {
      "inputs": [
        {
          "components": [
            {
              "internalType": "enum ExchangeWrapperCore.Markets",
              "name": "marketId",
              "type": "uint8"
            },
            {
              "internalType": "uint256",
              "name": "amount",
              "type": "uint256"
            },
            {
              "internalType": "uint256",
              "name": "fees",
              "type": "uint256"
            },
            {
              "internalType": "bytes",
              "name": "data",
              "type": "bytes"
            }
          ],
          "internalType": "struct ExchangeWrapperCore.PurchaseDetails[]",
          "name": "purchaseDetails",
          "type": "tuple[]"
        },
        {
          "internalType": "address",
          "name": "feeRecipientFirst",
          "type": "address"
        },
        {
          "internalType": "address",
          "name": "feeRecipientSecond",
          "type": "address"
        },
        {
          "internalType": "bool",
          "name": "allowFail",
          "type": "bool"
        },
        {
          "components": [
            {
              "internalType": "address[]",
              "name": "path",
              "type": "address[]"
            },
            {
              "internalType": "uint256",
              "name": "amountOut",
              "type": "uint256"
            },
            {
              "internalType": "uint256",
              "name": "amountInMaximum",
              "type": "uint256"
            },
            {
              "internalType": "uint256[]",
              "name": "binSteps",
              "type": "uint256[]"
            },
            {
              "internalType": "bool",
              "name": "unwrap",
              "type": "bool"
            }
          ],
          "internalType": "struct ExchangeWrapperCore.SwapV2DetailsIn",
          "name": "swapDetails",
          "type": "tuple"
        }
      ],
      "name": "bulkPurchaseWithV2Swap",
      "outputs": [],
      "stateMutability": "payable",
      "type": "function"
    },
    {
      "inputs": [],
      "name": "erc20TransferProxy",
      "outputs": [
        {
          "internalType": "address",
          "name": "",
          "type": "address"
        }
      ],
      "stateMutability": "view",
      "type": "function"
    },
    {
      "inputs": [],
      "name": "exchangeV2",
      "outputs": [
        {
          "internalType": "address",
          "name": "",
          "type": "address"
        }
      ],
      "stateMutability": "view",
      "type": "function"
    },
    {
      "inputs": [],
      "name": "looksrare",
      "outputs": [
        {
          "internalType": "address",
          "name": "",
          "type": "address"
        }
      ],
      "stateMutability": "view",
      "type": "function"
    },
    {
      "inputs": [
        {
          "internalType": "address",
          "name": "",
          "type": "address"
        },
        {
          "internalType": "address",
          "name": "",
          "type": "address"
        },
        {
          "internalType": "uint256[]",
          "name": "",
          "type": "uint256[]"
        },
        {
          "internalType": "uint256[]",
          "name": "",
          "type": "uint256[]"
        },
        {
          "internalType": "bytes",
          "name": "",
          "type": "bytes"
        }
      ],
      "name": "onERC1155BatchReceived",
      "outputs": [
        {
          "internalType": "bytes4",
          "name": "",
          "type": "bytes4"
        }
      ],
      "stateMutability": "nonpayable",
      "type": "function"
    },
    {
      "inputs": [
        {
          "internalType": "address",
          "name": "",
          "type": "address"
        },
        {
          "internalType": "address",
          "name": "",
          "type": "address"
        },
        {
          "internalType": "uint256",
          "name": "",
          "type": "uint256"
        },
        {
          "internalType": "uint256",
          "name": "",
          "type": "uint256"
        },
        {
          "internalType": "bytes",
          "name": "",
          "type": "bytes"
        }
      ],
      "name": "onERC1155Received",
      "outputs": [
        {
          "internalType": "bytes4",
          "name": "",
          "type": "bytes4"
        }
      ],
      "stateMutability": "nonpayable",
      "type": "function"
    },
    {
      "inputs": [
        {
          "internalType": "address",
          "name": "",
          "type": "address"
        },
        {
          "internalType": "address",
          "name": "",
          "type": "address"
        },
        {
          "internalType": "uint256",
          "name": "",
          "type": "uint256"
        },
        {
          "internalType": "bytes",
          "name": "",
          "type": "bytes"
        }
      ],
      "name": "onERC721Received",
      "outputs": [
        {
          "internalType": "bytes4",
          "name": "",
          "type": "bytes4"
        }
      ],
      "stateMutability": "nonpayable",
      "type": "function"
    },
    {
      "inputs": [],
      "name": "owner",
      "outputs": [
        {
          "internalType": "address",
          "name": "",
          "type": "address"
        }
      ],
      "stateMutability": "view",
      "type": "function"
    },
    {
      "inputs": [],
      "name": "pause",
      "outputs": [],
      "stateMutability": "nonpayable",
      "type": "function"
    },
    {
      "inputs": [],
      "name": "paused",
      "outputs": [
        {
          "internalType": "bool",
          "name": "",
          "type": "bool"
        }
      ],
      "stateMutability": "view",
      "type": "function"
    },
    {
      "inputs": [],
      "name": "rarible",
      "outputs": [
        {
          "internalType": "address",
          "name": "",
          "type": "address"
        }
      ],
      "stateMutability": "view",
      "type": "function"
    },
    {
      "inputs": [],
      "name": "renounceOwnership",
      "outputs": [],
      "stateMutability": "nonpayable",
      "type": "function"
    },
    {
      "inputs": [],
      "name": "seaport",
      "outputs": [
        {
          "internalType": "address",
          "name": "",
          "type": "address"
        }
      ],
      "stateMutability": "view",
      "type": "function"
    },
    {
      "inputs": [
        {
          "internalType": "address",
          "name": "_erc20TransferProxy",
          "type": "address"
        }
      ],
      "name": "setTransferProxy",
      "outputs": [],
      "stateMutability": "nonpayable",
      "type": "function"
    },
    {
      "inputs": [
        {
          "internalType": "contract ISwapRouterV2",
          "name": "_uniswapRouterV2",
          "type": "address"
        }
      ],
      "name": "setUniswapV2",
      "outputs": [],
      "stateMutability": "nonpayable",
      "type": "function"
    },
    {
      "inputs": [
        {
          "internalType": "contract ISwapRouterV3",
          "name": "_uniswapRouterV3",
          "type": "address"
        }
      ],
      "name": "setUniswapV3",
      "outputs": [],
      "stateMutability": "nonpayable",
      "type": "function"
    },
    {
      "inputs": [
        {
          "internalType": "address",
          "name": "_wrappedToken",
          "type": "address"
        }
      ],
      "name": "setWrapped",
      "outputs": [],
      "stateMutability": "nonpayable",
      "type": "function"
    },
    {
      "inputs": [
        {
          "components": [
            {
              "internalType": "enum ExchangeWrapperCore.Markets",
              "name": "marketId",
              "type": "uint8"
            },
            {
              "internalType": "uint256",
              "name": "amount",
              "type": "uint256"
            },
            {
              "internalType": "uint256",
              "name": "fees",
              "type": "uint256"
            },
            {
              "internalType": "bytes",
              "name": "data",
              "type": "bytes"
            }
          ],
          "internalType": "struct ExchangeWrapperCore.PurchaseDetails",
          "name": "purchaseDetails",
          "type": "tuple"
        },
        {
          "internalType": "address",
          "name": "feeRecipientFirst",
          "type": "address"
        },
        {
          "internalType": "address",
          "name": "feeRecipientSecond",
          "type": "address"
        }
      ],
      "name": "singlePurchase",
      "outputs": [],
      "stateMutability": "payable",
      "type": "function"
    },
    {
      "inputs": [],
      "name": "sudoswap",
      "outputs": [
        {
          "internalType": "address",
          "name": "",
          "type": "address"
        }
      ],
      "stateMutability": "view",
      "type": "function"
    },
    {
      "inputs": [
        {
          "internalType": "bytes4",
          "name": "interfaceId",
          "type": "bytes4"
        }
      ],
      "name": "supportsInterface",
      "outputs": [
        {
          "internalType": "bool",
          "name": "",
          "type": "bool"
        }
      ],
      "stateMutability": "view",
      "type": "function"
    },
    {
      "inputs": [
        {
          "internalType": "address",
          "name": "newOwner",
          "type": "address"
        }
      ],
      "name": "transferOwnership",
      "outputs": [],
      "stateMutability": "nonpayable",
      "type": "function"
    },
    {
      "inputs": [],
      "name": "uniswapRouterV2",
      "outputs": [
        {
          "internalType": "contract ISwapRouterV2",
          "name": "",
          "type": "address"
        }
      ],
      "stateMutability": "view",
      "type": "function"
    },
    {
      "inputs": [],
      "name": "uniswapRouterV3",
      "outputs": [
        {
          "internalType": "contract ISwapRouterV3",
          "name": "",
          "type": "address"
        }
      ],
      "stateMutability": "view",
      "type": "function"
    },
    {
      "inputs": [],
      "name": "unpause",
      "outputs": [],
      "stateMutability": "nonpayable",
      "type": "function"
    },
    {
      "inputs": [],
      "name": "wrappedToken",
      "outputs": [
        {
          "internalType": "address",
          "name": "",
          "type": "address"
        }
      ],
      "stateMutability": "view",
      "type": "function"
    },
    {
      "inputs": [],
      "name": "wyvern",
      "outputs": [
        {
          "internalType": "address",
          "name": "",
          "type": "address"
        }
      ],
      "stateMutability": "view",
      "type": "function"
    },
    {
      "inputs": [],
      "name": "x2y2",
      "outputs": [
        {
          "internalType": "address",
          "name": "",
          "type": "address"
        }
      ],
      "stateMutability": "view",
      "type": "function"
    },
    {
      "stateMutability": "payable",
      "type": "receive"
    }
  ],
  "transactionHash": "0x7e1e7587286219ee42e26d775e20a98cf2ddcdf0d69e468f3aa7f65c64ba7690",
  "args": [],
  "numDeployments": 1,
  "solcInputHash": "ebe5d21ef31bdb877a16b81464d4631c",
  "bytecode": "0x608060405234801561001057600080fd5b50614e66806100206000396000f3fe60806040526004361061019c5760003560e01c80638ae42905116100e2578063c1aa293811610085578063c1aa293814610488578063c6d0ffd7146104a8578063df6c2558146104c8578063f23a6e61146104e8578063f2fde38b14610514578063f5c7bd7014610534578063fc40c9c714610554578063fee03e9e1461057457600080fd5b80638ae429051461038b5780638da5cb5b146103ab578063996c6cc3146103c9578063a05f32dc146103e9578063a8e90b5714610409578063aa78ae9314610429578063b94ee33214610449578063bc197c811461045c57600080fd5b8063596fa9e31161014a578063596fa9e3146102b657806359e86829146102d65780635c975abb146102f65780635ea1e4c91461030e578063715018a61461032e57806373a963d7146103435780638456cb591461036357806386496e7a1461037857600080fd5b806301ffc9a7146101a857806310f91b0b146101dd578063150b7a02146102155780632bf92a4314610259578063348c4efd1461026e5780633f4ba83a146102815780634edfc9f91461029657600080fd5b366101a357005b600080fd5b3480156101b457600080fd5b506101c86101c336600461310d565b610594565b60405190151581526020015b60405180910390f35b3480156101e957600080fd5b5060a0546101fd906001600160a01b031681565b6040516001600160a01b0390911681526020016101d4565b34801561022157600080fd5b5061024061023036600461331b565b630a85bd0160e11b949350505050565b6040516001600160e01b031990911681526020016101d4565b61026c610267366004613547565b6105cb565b005b61026c61027c3660046136b7565b6106de565b34801561028d57600080fd5b5061026c610724565b3480156102a257600080fd5b506099546101fd906001600160a01b031681565b3480156102c257600080fd5b50609f546101fd906001600160a01b031681565b3480156102e257600080fd5b5061026c6102f13660046137bf565b610736565b34801561030257600080fd5b5060655460ff166101c8565b34801561031a57600080fd5b50609d546101fd906001600160a01b031681565b34801561033a57600080fd5b5061026c610760565b34801561034f57600080fd5b5061026c61035e3660046137bf565b610772565b34801561036f57600080fd5b5061026c61079c565b61026c6103863660046137dc565b6107ac565b34801561039757600080fd5b5061026c6103a63660046137bf565b610831565b3480156103b757600080fd5b506033546001600160a01b03166101fd565b3480156103d557600080fd5b5060a1546101fd906001600160a01b031681565b3480156103f557600080fd5b506097546101fd906001600160a01b031681565b34801561041557600080fd5b50609c546101fd906001600160a01b031681565b34801561043557600080fd5b5061026c61044436600461383f565b61085b565b61026c6104573660046138e8565b6109fe565b34801561046857600080fd5b5061024061047736600461395c565b63bc197c8160e01b95945050505050565b34801561049457600080fd5b5061026c6104a33660046137bf565b610b27565b3480156104b457600080fd5b506098546101fd906001600160a01b031681565b3480156104d457600080fd5b50609e546101fd906001600160a01b031681565b3480156104f457600080fd5b50610240610503366004613a09565b63f23a6e6160e01b95945050505050565b34801561052057600080fd5b5061026c61052f3660046137bf565b610b51565b34801561054057600080fd5b50609a546101fd906001600160a01b031681565b34801561056057600080fd5b50609b546101fd906001600160a01b031681565b34801561058057600080fd5b5060a2546101fd906001600160a01b031681565b60006001600160e01b03198216630271189760e51b14806105c557506301ffc9a760e01b6001600160e01b03198316145b92915050565b6105d3610bca565b600081600001516000815181106105ec576105ec613a71565b6020026020010151905060008260000151600184600001515161060f9190613a9d565b8151811061061f5761061f613a71565b602090810291909101015160a1549091506001600160a01b038083169116141561067c57600061064e84610c10565b9050806106765760405162461bcd60e51b815260040161066d90613ab4565b60405180910390fd5b506106c9565b60a1546001600160a01b038381169116141561069d57600061064e84611118565b60006106a8846114d2565b9050806106c75760405162461bcd60e51b815260040161066d90613ab4565b505b6106d5878787876109fe565b50505050505050565b6106e6610bca565b60006106f1826118c5565b9050806107105760405162461bcd60e51b815260040161066d90613ab4565b61071c868686866109fe565b505050505050565b61072c611e01565b610734611e5b565b565b61073e611e01565b60a080546001600160a01b0319166001600160a01b0392909216919091179055565b610768611e01565b6107346000611ead565b61077a611e01565b609f80546001600160a01b0319166001600160a01b0392909216919091179055565b6107a4611e01565b610734611eff565b6107b4610bca565b60008060006107c4866000611f3c565b9250925092506107d13390565b6001600160a01b03167fc5dd8c21802b423a9c822ee9c934f042186e6bb7097a1dd17717343ee84df7148460405161080d911515815260200190565b60405180910390a261081f8286612c44565b6108298185612c44565b61071c612c6f565b610839611e01565b60a280546001600160a01b0319166001600160a01b0392909216919091179055565b600054610100900460ff161580801561087b5750600054600160ff909116105b806108955750303b158015610895575060005460ff166001145b6108f85760405162461bcd60e51b815260206004820152602e60248201527f496e697469616c697a61626c653a20636f6e747261637420697320616c72656160448201526d191e481a5b9a5d1a585b1a5e995960921b606482015260840161066d565b6000805460ff19166001179055801561091b576000805461ff0019166101001790555b610923612c80565b61092b612ca7565b610933612cd7565b609780546001600160a01b03199081166001600160a01b03808d1691909117909255609880548216838c16179055609980548216838b16179055609a80548216838a16179055609b80548216838916179055609c80548216838816179055609d80548216838716179055609e805490911691841691909117905580156109f3576000805461ff0019169055604051600181527f7f26b83ff96e1f2b6a682f133852f6798a09c465da95921460cefb38474024989060200160405180910390a15b505050505050505050565b610a06610bca565b6000806000808751905060005b81811015610ab8576000806000610a438c8581518110610a3557610a35613a71565b60200260200101518a611f3c565b9250925092508580610a525750825b604051841515815290965033907fc5dd8c21802b423a9c822ee9c934f042186e6bb7097a1dd17717343ee84df7149060200160405180910390a2610a968289613ae1565b9750610aa28188613ae1565b965050505080610ab190613af9565b9050610a13565b5081610b015760405162461bcd60e51b81526020600482015260186024820152776e6f207375636365737366756c20657865637574696f6e7360401b604482015260640161066d565b610b0b8488612c44565b610b158387612c44565b610b1d612c6f565b5050505050505050565b610b2f611e01565b60a180546001600160a01b0319166001600160a01b0392909216919091179055565b610b59611e01565b6001600160a01b038116610bbe5760405162461bcd60e51b815260206004820152602660248201527f4f776e61626c653a206e6577206f776e657220697320746865207a65726f206160448201526564647265737360d01b606482015260840161066d565b610bc781611ead565b50565b60655460ff16156107345760405162461bcd60e51b815260206004820152601060248201526f14185d5cd8589b194e881c185d5cd95960821b604482015260640161066d565b6000808260000151600081518110610c2a57610c2a613a71565b602090810291909101015160a2549091506001600160a01b031663776062c382333087604001516040518563ffffffff1660e01b8152600401610c709493929190613b14565b600060405180830381600087803b158015610c8a57600080fd5b505af1158015610c9e573d6000803e3d6000fd5b505060a1546001600160a01b038481169116149150508015610cc1575082608001515b15610d3e5760a1546040808501519051632e1a7d4d60e01b81526001600160a01b0390921691632e1a7d4d91610cfd9160040190815260200190565b600060405180830381600087803b158015610d1757600080fd5b505af1925050508015610d28575060015b610d355750600092915050565b50600192915050565b609f54604051636eb1769f60e11b81526000916001600160a01b038085169263dd62ed3e92610d739216903090600401613b3e565b60206040518083038186803b158015610d8b57600080fd5b505afa158015610d9f573d6000803e3d6000fd5b505050506040513d601f19601f82011682018060405250810190610dc39190613b58565b90508360400151811015610e5b57609f5460405163095ea7b360e01b81526001600160a01b038481169263095ea7b392610e07929091169060001990600401613b71565b602060405180830381600087803b158015610e2157600080fd5b505af1158015610e35573d6000803e3d6000fd5b505050506040513d601f19601f82011682018060405250810190610e599190613b95565b505b46600061a86a821480610e6f57508161a869145b90506000478215610f3d57609f5460208901516040808b015160608c01518c519251636d3420ed60e01b81526000956001600160a01b031694636d3420ed94610ec2949193919230904290600401613c26565b600060405180830381600087803b158015610edc57600080fd5b505af1158015610ef0573d6000803e3d6000fd5b505050506040513d6000823e601f3d908101601f19168201604052610f189190810190613cd1565b905080600081518110610f2d57610f2d613a71565b6020026020010151925050610ff5565b609f5460208901516040808b01518b519151632512eca560e11b81526000946001600160a01b031693634a25d94a93610f7e93919230904290600401613d0d565b600060405180830381600087803b158015610f9857600080fd5b505af1158015610fac573d6000803e3d6000fd5b505050506040513d6000823e601f3d908101601f19168201604052610fd49190810190613cd1565b905080600081518110610fe957610fe9613a71565b60200260200101519250505b60408801514790831015611094576001600160a01b03871663a9059cbb33858c604001516110239190613a9d565b6040518363ffffffff1660e01b8152600401611040929190613b71565b602060405180830381600087803b15801561105a57600080fd5b505af115801561106e573d6000803e3d6000fd5b505050506040513d601f19601f820116820180604052508101906110929190613b95565b505b8860800151156111095760a1546001600160a01b031663d0e30db06110b98484613a9d565b6040518263ffffffff1660e01b81526004016000604051808303818588803b1580156110e457600080fd5b505af1935050505080156110f6575060015b6111095750600098975050505050505050565b50600198975050505050505050565b600080826000015160008151811061113257611132613a71565b602002602001015190506000836000015160018560000151516111559190613a9d565b8151811061116557611165613a71565b6020026020010151905034600014156112525760a2546001600160a01b031663776062c383333088604001516040518563ffffffff1660e01b81526004016111b09493929190613b14565b600060405180830381600087803b1580156111ca57600080fd5b505af11580156111de573d6000803e3d6000fd5b505060a1546040808801519051632e1a7d4d60e01b81526001600160a01b039092169350632e1a7d4d92506112199160040190815260200190565b600060405180830381600087803b15801561123357600080fd5b505af1925050508015611244575060015b611252575060009392505050565b60003411801561126f575060a1546001600160a01b038281169116145b156113725760a160009054906101000a90046001600160a01b03166001600160a01b031663d0e30db0346040518263ffffffff1660e01b81526004016000604051808303818588803b1580156112c457600080fd5b505af1935050505080156112d6575060015b6112e4575060009392505050565b604080850151905163a9059cbb60e01b81526001600160a01b0383169163a9059cbb91611315913391600401613b71565b602060405180830381600087803b15801561132f57600080fd5b505af1158015611343573d6000803e3d6000fd5b505050506040513d601f19601f820116820180604052508101906113679190613b95565b506001949350505050565b46600061a86a82148061138657508161a869145b9050801561142f57609f54604080880151602089015160608a01518a519351630217ab2560e51b81526001600160a01b03909516946342f564a0946113d393929130904290600401613d49565b6000604051808303818588803b1580156113ec57600080fd5b505af1158015611400573d6000803e3d6000fd5b50505050506040513d6000823e601f3d908101601f191682016040526114299190810190613cd1565b506114c6565b609f5460408088015160208901518951925163fb3bdb4160e01b81526001600160a01b039094169363fb3bdb419361146e929130904290600401613d92565b6000604051808303818588803b15801561148757600080fd5b505af115801561149b573d6000803e3d6000fd5b50505050506040513d6000823e601f3d908101601f191682016040526114c49190810190613cd1565b505b50600195945050505050565b60008082600001516000815181106114ec576114ec613a71565b602090810291909101015160a2549091506001600160a01b031663776062c382333087604001516040518563ffffffff1660e01b81526004016115329493929190613b14565b600060405180830381600087803b15801561154c57600080fd5b505af1158015611560573d6000803e3d6000fd5b5050609f54604051636eb1769f60e11b8152600093506001600160a01b03808616935063dd62ed3e9261159a929116903090600401613b3e565b60206040518083038186803b1580156115b257600080fd5b505afa1580156115c6573d6000803e3d6000fd5b505050506040513d601f19601f820116820180604052508101906115ea9190613b58565b9050836040015181101561168257609f5460405163095ea7b360e01b81526001600160a01b038481169263095ea7b39261162e929091169060001990600401613b71565b602060405180830381600087803b15801561164857600080fd5b505af115801561165c573d6000803e3d6000fd5b505050506040513d601f19601f820116820180604052508101906116809190613b95565b505b46600061a86a82148061169657508161a869145b90506000811561176357609f5460208801516040808a015160608b01518b51925163a7b856d360e01b81526000956001600160a01b03169463a7b856d3946116e8949193919230904290600401613c26565b600060405180830381600087803b15801561170257600080fd5b505af1158015611716573d6000803e3d6000fd5b505050506040513d6000823e601f3d908101601f1916820160405261173e9190810190613cd1565b90508060008151811061175357611753613a71565b602002602001015191505061181b565b609f5460208801516040808a01518a519151634401edf760e11b81526000946001600160a01b031693638803dbee936117a493919230904290600401613d0d565b600060405180830381600087803b1580156117be57600080fd5b505af11580156117d2573d6000803e3d6000fd5b505050506040513d6000823e601f3d908101601f191682016040526117fa9190810190613cd1565b90508060008151811061180f5761180f613a71565b60200260200101519150505b86604001518110156118b8576001600160a01b03851663a9059cbb33838a604001516118479190613a9d565b6040518363ffffffff1660e01b8152600401611864929190613b71565b602060405180830381600087803b15801561187e57600080fd5b505af1158015611892573d6000803e3d6000fd5b505050506040513d601f19601f820116820180604052508101906118b69190613b95565b505b5060019695505050505050565b600080600080846000015190506000601482516118e29190613a9d565b9050600160601b81602084010151049350600160601b600060208401015104925034600014156119775760a2546001600160a01b031663776062c38533308a604001516040518563ffffffff1660e01b81526004016119449493929190613b14565b600060405180830381600087803b15801561195e57600080fd5b505af1158015611972573d6000803e3d6000fd5b505050505b60a1546001600160a01b038581169116148015611995575085606001515b15611a0c5760a1546020870151604051632e1a7d4d60e01b81526001600160a01b0390921691632e1a7d4d916119d19160040190815260200190565b600060405180830381600087803b1580156119eb57600080fd5b505af19250505080156119fc575060015b6114c65750600095945050505050565b600034118015611a29575060a1546001600160a01b038481169116145b15611a925760a160009054906101000a90046001600160a01b03166001600160a01b031663d0e30db0346040518263ffffffff1660e01b81526004016000604051808303818588803b158015611a7e57600080fd5b505af1935050505080156119fc57506114c6565b60a054604051636eb1769f60e11b81526000916001600160a01b038088169263dd62ed3e92611ac79216903090600401613b3e565b60206040518083038186803b158015611adf57600080fd5b505afa158015611af3573d6000803e3d6000fd5b505050506040513d601f19601f82011682018060405250810190611b179190613b58565b90508660400151811015611baf5760a05460405163095ea7b360e01b81526001600160a01b038781169263095ea7b392611b5b929091169060001990600401613b71565b602060405180830381600087803b158015611b7557600080fd5b505af1158015611b89573d6000803e3d6000fd5b505050506040513d601f19601f82011682018060405250810190611bad9190613b95565b505b6040805160a08082018352895182523060208084019190915242838501528a01516060830152898301516080830152549151631e51809360e31b815290916000916001600160a01b039091169063f28c049890611c10908590600401613e1f565b602060405180830381600087803b158015611c2a57600080fd5b505af1925050508015611c5a575060408051601f3d908101601f19168201909252611c5791810190613b58565b60015b611c6d5750600098975050505050505050565b905060a060009054906101000a90046001600160a01b03166001600160a01b03166312210e8a6040518163ffffffff1660e01b8152600401600060405180830381600087803b158015611cbf57600080fd5b505af1158015611cd3573d6000803e3d6000fd5b50505050886060015115611d565760a15460208a0151604051632e1a7d4d60e01b81526001600160a01b0390921691632e1a7d4d91611d189160040190815260200190565b600060405180830381600087803b158015611d3257600080fd5b505af1925050508015611d43575060015b611d565750600098975050505050505050565b8860400151811015611109576001600160a01b03871663a9059cbb33838c60400151611d829190613a9d565b6040518363ffffffff1660e01b8152600401611d9f929190613b71565b602060405180830381600087803b158015611db957600080fd5b505af1158015611dcd573d6000803e3d6000fd5b505050506040513d601f19601f82011682018060405250810190611df19190613b95565b5050600198975050505050505050565b6033546001600160a01b031633146107345760405162461bcd60e51b815260206004820181905260248201527f4f776e61626c653a2063616c6c6572206973206e6f7420746865206f776e6572604482015260640161066d565b611e63612d0a565b6065805460ff191690557f5db9ee0a495bf2e6ff9c91a7834c1ba4fdd244a5e8aa4e537bd38aeae4b073aa335b6040516001600160a01b03909116815260200160405180910390a1565b603380546001600160a01b038381166001600160a01b0319831681179093556040519116919082907f8be0079c531659141344cd1fd0a4f28419497f9722a3daafe3b4186f6b6457e090600090a35050565b611f07610bca565b6065805460ff191660011790557f62e78cea01bee320cd4e420270b5ea74000d11b0c9f74754ebdbfc544b05a258611e903390565b6000806000806000611f5b876060015188604001518960000151612d53565b60208901519193509150600288516007811115611f7a57611f7a613e77565b141561205757609a546040516000916001600160a01b0316908390611fa0908790613e8d565b60006040518083038185875af1925050503d8060008114611fdd576040519150601f19603f3d011682016040523d82523d6000602084013e611fe2565b606091505b50509050871561200a578061200557600080600096509650965050505050612c3d565b612051565b806120515760405162461bcd60e51b8152602060048201526017602482015276141d5c98da185cd94814d9585c1bdc9d0819985a5b1959604a1b604482015260640161066d565b50612c0b565b60018851600781111561206c5761206c613e77565b141561213d576099546040516000916001600160a01b0316908390612092908790613e8d565b60006040518083038185875af1925050503d80600081146120cf576040519150601f19603f3d011682016040523d82523d6000602084013e6120d4565b606091505b5050905087156120f7578061200557600080600096509650965050505050612c3d565b806120515760405162461bcd60e51b8152602060048201526016602482015275141d5c98da185cd94815de5d995c9b8819985a5b195960521b604482015260640161066d565b60068851600781111561215257612152613e77565b141561222a576097546040516000916001600160a01b0316908390612178908790613e8d565b60006040518083038185875af1925050503d80600081146121b5576040519150601f19603f3d011682016040523d82523d6000602084013e6121ba565b606091505b5050905087156121dd578061200557600080600096509650965050505050612c3d565b806120515760405162461bcd60e51b815260206004820152601b60248201527f50757263686173652047686f73744d61726b6574206661696c65640000000000604482015260640161066d565b60008851600781111561223f5761223f613e77565b1415612311576098546040516000916001600160a01b0316908390612265908790613e8d565b60006040518083038185875af1925050503d80600081146122a2576040519150601f19603f3d011682016040523d82523d6000602084013e6122a7565b606091505b5050905087156122ca578061200557600080600096509650965050505050612c3d565b806120515760405162461bcd60e51b8152602060048201526017602482015276141d5c98da185cd94814985c9a589b194819985a5b1959604a1b604482015260640161066d565b60038851600781111561232657612326613e77565b14156127b957600083806020019051810190612342919061439d565b905087156123c457609b5460405163357a150b60e01b81526001600160a01b039091169063357a150b90849061237c908590600401614618565b6000604051808303818588803b15801561239557600080fd5b505af1935050505080156123a7575060015b6123bf57600080600096509650965050505050612c3d565b612429565b609b5460405163357a150b60e01b81526001600160a01b039091169063357a150b9084906123f6908590600401614618565b6000604051808303818588803b15801561240f57600080fd5b505af1158015612423573d6000803e3d6000fd5b50505050505b60208101515160005b818110156127b15760008360200151828151811061245257612452613a71565b602002602001015160200151905060008460200151838151811061247857612478613a71565b602002602001015160400151905060008560000151838151811061249e5761249e613a71565b6020026020010151610100015182815181106124bc576124bc613a71565b60200260200101516020015190506000866000015184815181106124e2576124e2613a71565b602002602001015160e001515111801561251e575060008660200151858151811061250f5761250f613a71565b602002602001015160c0015151115b1561257057612570818760200151868151811061253d5761253d613a71565b602002602001015160c001518860000151868151811061255f5761255f613a71565b602002602001015160e00151612e4e565b855180518490811061258457612584613a71565b60200260200101516080015160011415612665576000818060200190518101906125ae91906147d4565b905060005b815181101561265e5760008282815181106125d0576125d0613a71565b6020026020010151905080600001516001600160a01b03166342842e0e306125f53390565b84602001516040518463ffffffff1660e01b815260040161261893929190614892565b600060405180830381600087803b15801561263257600080fd5b505af1158015612646573d6000803e3d6000fd5b5050505050808061265690613af9565b9150506125b3565b505061279d565b855180518490811061267957612679613a71565b60200260200101516080015160021415612759576000818060200190518101906126a391906148b6565b905060005b815181101561265e5760008282815181106126c5576126c5613a71565b6020026020010151905080600001516001600160a01b031663f242432a306126ea3390565b846020015185604001516040518563ffffffff1660e01b8152600401612713949392919061497c565b600060405180830381600087803b15801561272d57600080fd5b505af1158015612741573d6000803e3d6000fd5b5050505050808061275190613af9565b9150506126a8565b60405162461bcd60e51b81526020600482015260196024820152783ab735b737bbb7103232b632b3b0ba32aa3cb832903c193c9960391b604482015260640161066d565b505050806127aa90613af9565b9050612432565b505050612c0b565b6004885160078111156127ce576127ce613e77565b14156129fa576000806000858060200190518101906127ed9190614ad2565b925092509250891561287757609c54604051635a72594b60e11b81526001600160a01b039091169063b4e4b29690869061282d9087908790600401614bba565b6000604051808303818588803b15801561284657600080fd5b505af193505050508015612858575060015b612872576000806000985098509850505050505050612c3d565b6128de565b609c54604051635a72594b60e11b81526001600160a01b039091169063b4e4b2969086906128ab9087908790600401614bba565b6000604051808303818588803b1580156128c457600080fd5b505af11580156128d8573d6000803e3d6000fd5b50505050505b6001600160e01b031981166339d690a360e11b14156129665760408201516001600160a01b03166342842e0e303385608001516040518463ffffffff1660e01b815260040161292f93929190614892565b600060405180830381600087803b15801561294957600080fd5b505af115801561295d573d6000803e3d6000fd5b505050506127b1565b6001600160e01b0319811663025ceed960e61b14156129bd57604082810151608084015160a08501519251637921219560e11b81526001600160a01b039092169263f242432a9261292f923092339260040161497c565b60405162461bcd60e51b8152602060048201526012602482015271556e6b6e6f776e20746f6b656e207479706560701b604482015260640161066d565b600588516007811115612a0f57612a0f613e77565b1415612ae257609d546040516000916001600160a01b0316908390612a35908790613e8d565b60006040518083038185875af1925050503d8060008114612a72576040519150601f19603f3d011682016040523d82523d6000602084013e612a77565b606091505b505090508715612a9a578061200557600080600096509650965050505050612c3d565b806120515760405162461bcd60e51b8152602060048201526018602482015277141d5c98da185cd94814dd591bd4ddd85c0819985a5b195960421b604482015260640161066d565b600788516007811115612af757612af7613e77565b1415612bc857609e546040516000916001600160a01b0316908390612b1d908790613e8d565b60006040518083038185875af1925050503d8060008114612b5a576040519150601f19603f3d011682016040523d82523d6000602084013e612b5f565b606091505b505090508715612b82578061200557600080600096509650965050505050612c3d565b806120515760405162461bcd60e51b8152602060048201526016602482015275141d5c98da185cd948189b1d5c9a5bc819985a5b195960521b604482015260640161066d565b60405162461bcd60e51b8152602060048201526018602482015277556e6b6e6f776e2070757263686173652064657461696c7360401b604482015260640161066d565b612c19828960200151612efb565b600080612c2e8a604001518b60200151612fa5565b60019950909750955050505050505b9250925092565b600082118015612c5c57506001600160a01b03811615155b15612c6b57612c6b8183612fd6565b5050565b478015610bc757610bc73382612fd6565b600054610100900460ff166107345760405162461bcd60e51b815260040161066d90614d14565b600054610100900460ff16612cce5760405162461bcd60e51b815260040161066d90614d14565b61073433611ead565b600054610100900460ff16612cfe5760405162461bcd60e51b815260040161066d90614d14565b6065805460ff19169055565b60655460ff166107345760405162461bcd60e51b815260206004820152601460248201527314185d5cd8589b194e881b9bdd081c185d5cd95960621b604482015260640161066d565b6060806000602085901c61ffff166001811115612d7257612d72613e77565b905060606000826001811115612d8a57612d8a613e77565b1415612d9c578693509150612e469050565b6001826001811115612db057612db0613e77565b1415612dfe57600087806020019051810190612dcc9190614d5f565b9050612dd78661308f565b15612df2578060000151816020015194509450505050612e46565b5193509150612e469050565b60405162461bcd60e51b815260206004820152601a60248201527f756e6b6e6f776e206164646974696f6e616c4461746154797065000000000000604482015260640161066d565b935093915050565b8151835114612e5c57600080fd5b8051835114612e6a57600080fd5b825160005b81811015612ef457828181518110612e8957612e89613a71565b01602001516001600160f81b03191615612ee457838181518110612eaf57612eaf613a71565b602001015160f81c60f81b858281518110612ecc57612ecc613a71565b60200101906001600160f81b031916908160001a9053505b612eed81613af9565b9050612e6f565b5050505050565b815160005b81811015612f9f576000848281518110612f1c57612f1c613a71565b60200260200101511115612f8f576000848281518110612f3e57612f3e613a71565b60200260200101519050600060a0868481518110612f5e57612f5e613a71565b6020026020010151901c90506000612f7f82876130d790919063ffffffff16565b9050612f8b8184612c44565b5050505b612f9881613af9565b9050612f00565b50505050565b60008061ffff601085901c8116908516612fbf85836130d7565b612fc986836130d7565b9350935050509250929050565b6000826001600160a01b03168260405160006040518083038185875af1925050503d8060008114613023576040519150601f19603f3d011682016040523d82523d6000602084013e613028565b606091505b505090508061308a5760405162461bcd60e51b815260206004820152602860248201527f4c69625472616e73666572204261736543757272656e6379207472616e7366656044820152671c8819985a5b195960c21b606482015260840161066d565b505050565b600060058260078111156130a5576130a5613e77565b14806130c2575060048260078111156130c0576130c0613e77565b145b156130cf57506001919050565b506000919050565b60006127106130e68385614def565b6130f09190614e0e565b9392505050565b6001600160e01b031981168114610bc757600080fd5b60006020828403121561311f57600080fd5b81356130f0816130f7565b6001600160a01b0381168114610bc757600080fd5b634e487b7160e01b600052604160045260246000fd5b60405160a081016001600160401b03811182821017156131775761317761313f565b60405290565b604051608081016001600160401b03811182821017156131775761317761313f565b604080519081016001600160401b03811182821017156131775761317761313f565b6040516101a081016001600160401b03811182821017156131775761317761313f565b60405161016081016001600160401b03811182821017156131775761317761313f565b60405160c081016001600160401b03811182821017156131775761317761313f565b604051606081016001600160401b03811182821017156131775761317761313f565b60405161020081016001600160401b03811182821017156131775761317761313f565b604051601f8201601f191681016001600160401b03811182821017156132965761329661313f565b604052919050565b60006001600160401b038211156132b7576132b761313f565b50601f01601f191660200190565b600082601f8301126132d657600080fd5b81356132e96132e48261329e565b61326e565b8181528460208386010111156132fe57600080fd5b816020850160208301376000918101602001919091529392505050565b6000806000806080858703121561333157600080fd5b843561333c8161312a565b9350602085013561334c8161312a565b92506040850135915060608501356001600160401b0381111561336e57600080fd5b61337a878288016132c5565b91505092959194509250565b60006001600160401b0382111561339f5761339f61313f565b5060051b60200190565b60088110610bc757600080fd5b6000608082840312156133c857600080fd5b604051608081016001600160401b0382821081831117156133eb576133eb61313f565b81604052829350843591506133ff826133a9565b8183526020850135602084015260408501356040840152606085013591508082111561342a57600080fd5b50613437858286016132c5565b6060830152505092915050565b600082601f83011261345557600080fd5b813560206134656132e483613386565b82815260059290921b8401810191818101908684111561348457600080fd5b8286015b848110156134c35780356001600160401b038111156134a75760008081fd5b6134b58986838b01016133b6565b845250918301918301613488565b509695505050505050565b8015158114610bc757600080fd5b80356134e7816134ce565b919050565b600082601f8301126134fd57600080fd5b8135602061350d6132e483613386565b82815260059290921b8401810191818101908684111561352c57600080fd5b8286015b848110156134c35780358352918301918301613530565b600080600080600060a0868803121561355f57600080fd5b85356001600160401b038082111561357657600080fd5b61358289838a01613444565b965060209150818801356135958161312a565b955060408801356135a58161312a565b945060608801356135b5816134ce565b93506080880135818111156135c957600080fd5b880160a0818b0312156135db57600080fd5b6135e3613155565b8135838111156135f257600080fd5b8201601f81018c1361360357600080fd5b80356136116132e482613386565b81815260059190911b8201860190868101908e83111561363057600080fd5b928701925b828410156136575783356136488161312a565b82529287019290870190613635565b80855250505050838201358482015260408201356040820152606082013593508284111561368457600080fd5b6136908b8584016134ec565b60608201526136a1608083016134dc565b6080820152809450505050509295509295909350565b600080600080600060a086880312156136cf57600080fd5b85356001600160401b03808211156136e657600080fd5b6136f289838a01613444565b9650602088013591506137048261312a565b9094506040870135906137168261312a565b909350606087013590613728826134ce565b9092506080870135908082111561373e57600080fd5b908701906080828a03121561375257600080fd5b61375a61317d565b82358281111561376957600080fd5b6137758b8286016132c5565b82525060208301356020820152604083013560408201526060830135925061379c836134ce565b8260608201528093505050509295509295909350565b6001600160a01b03169052565b6000602082840312156137d157600080fd5b81356130f08161312a565b6000806000606084860312156137f157600080fd5b83356001600160401b0381111561380757600080fd5b613813868287016133b6565b93505060208401356138248161312a565b915060408401356138348161312a565b809150509250925092565b600080600080600080600080610100898b03121561385c57600080fd5b88356138678161312a565b975060208901356138778161312a565b965060408901356138878161312a565b955060608901356138978161312a565b945060808901356138a78161312a565b935060a08901356138b78161312a565b925060c08901356138c78161312a565b915060e08901356138d78161312a565b809150509295985092959890939650565b600080600080608085870312156138fe57600080fd5b84356001600160401b0381111561391457600080fd5b61392087828801613444565b94505060208501356139318161312a565b925060408501356139418161312a565b91506060850135613951816134ce565b939692955090935050565b600080600080600060a0868803121561397457600080fd5b853561397f8161312a565b9450602086013561398f8161312a565b935060408601356001600160401b03808211156139ab57600080fd5b6139b789838a016134ec565b945060608801359150808211156139cd57600080fd5b6139d989838a016134ec565b935060808801359150808211156139ef57600080fd5b506139fc888289016132c5565b9150509295509295909350565b600080600080600060a08688031215613a2157600080fd5b8535613a2c8161312a565b94506020860135613a3c8161312a565b9350604086013592506060860135915060808601356001600160401b03811115613a6557600080fd5b6139fc888289016132c5565b634e487b7160e01b600052603260045260246000fd5b634e487b7160e01b600052601160045260246000fd5b600082821015613aaf57613aaf613a87565b500390565b6020808252601390820152721cddd85c081b9bdd081cdd58d8d95cdcd99d5b606a1b604082015260600190565b60008219821115613af457613af4613a87565b500190565b6000600019821415613b0d57613b0d613a87565b5060010190565b6001600160a01b039485168152928416602084015292166040820152606081019190915260800190565b6001600160a01b0392831681529116602082015260400190565b600060208284031215613b6a57600080fd5b5051919050565b6001600160a01b03929092168252602082015260400190565b80516134e7816134ce565b600060208284031215613ba757600080fd5b81516130f0816134ce565b600081518084526020808501945080840160005b83811015613be257815187529582019590820190600101613bc6565b509495945050505050565b600081518084526020808501945080840160005b83811015613be25781516001600160a01b031687529582019590820190600101613c01565b86815285602082015260c060408201526000613c4560c0830187613bb2565b8281036060840152613c578187613bed565b6001600160a01b03959095166080840152505060a00152949350505050565b600082601f830112613c8757600080fd5b81516020613c976132e483613386565b82815260059290921b84018101918181019086841115613cb657600080fd5b8286015b848110156134c35780518352918301918301613cba565b600060208284031215613ce357600080fd5b81516001600160401b03811115613cf957600080fd5b613d0584828501613c76565b949350505050565b85815284602082015260a060408201526000613d2c60a0830186613bed565b6001600160a01b0394909416606083015250608001529392505050565b85815260a060208201526000613d6260a0830187613bb2565b8281036040840152613d748187613bed565b6001600160a01b039590951660608401525050608001529392505050565b848152608060208201526000613dab6080830186613bed565b6001600160a01b03949094166040830152506060015292915050565b60005b83811015613de2578181015183820152602001613dca565b83811115612f9f5750506000910152565b60008151808452613e0b816020860160208601613dc7565b601f01601f19169290920160200192915050565b602081526000825160a06020840152613e3b60c0840182613df3565b905060018060a01b0360208501511660408401526040840151606084015260608401516080840152608084015160a08401528091505092915050565b634e487b7160e01b600052602160045260246000fd5b60008251613e9f818460208701613dc7565b9190910192915050565b80516134e78161312a565b600082601f830112613ec557600080fd5b8151613ed36132e48261329e565b818152846020838601011115613ee857600080fd5b613d05826020830160208701613dc7565b600082601f830112613f0a57600080fd5b81516020613f1a6132e483613386565b82815260059290921b84018101918181019086841115613f3957600080fd5b8286015b848110156134c35780516001600160401b0380821115613f5d5760008081fd5b908801906040828b03601f1901811315613f775760008081fd5b613f7f61319f565b838801518152908301519082821115613f985760008081fd5b613fa68c8984870101613eb4565b818901528652505050918301918301613f3d565b805160ff811681146134e757600080fd5b600082601f830112613fdc57600080fd5b81516020613fec6132e483613386565b82815260059290921b8401810191818101908684111561400b57600080fd5b8286015b848110156134c35780516001600160401b038082111561402f5760008081fd5b908801906101a0828b03601f190181131561404a5760008081fd5b6140526131c1565b8784015181526040614065818601613ea9565b89830152606080860151828401526080915081860151818401525060a0808601518284015260c0915081860151818401525060e06140a4818701613ea9565b82840152610100915081860151858111156140bf5760008081fd5b6140cd8f8c838a0101613eb4565b82850152505061012080860151858111156140e85760008081fd5b6140f68f8c838a0101613ef9565b838501525061014094508486015181840152505061016080850151848301526101809350614125848601613fba565b90820152614134848301613fba565b928101929092525084525091830191830161400f565b80516134e7816133a9565b600082601f83011261416657600080fd5b815160206141766132e483613386565b82815260069290921b8401810191818101908684111561419557600080fd5b8286015b848110156134c357604081890312156141b25760008081fd5b6141ba61319f565b81518152848201516141cb8161312a565b81860152835291830191604001614199565b600082601f8301126141ee57600080fd5b815160206141fe6132e483613386565b82815260059290921b8401810191818101908684111561421d57600080fd5b8286015b848110156134c35780516001600160401b03808211156142415760008081fd5b90880190610160828b03601f190181131561425c5760008081fd5b6142646131e4565b61426f88850161414a565b815260408085015189830152606080860151828401526080915081860151818401525060a0808601518284015260c091506142ab828701613ea9565b9083015260e085810151858111156142c35760008081fd5b6142d18f8c838a0101613eb4565b8385015250610100915081860151818401525061012080860151828401526101409150818601518184015250828501519250838311156143115760008081fd5b61431f8d8a85880101614155565b908201528652505050918301918301614221565b600060c0828403121561434557600080fd5b61434d613207565b905081518152602082015160208201526040820151604082015260608201516060820152608082015161437f8161312a565b608082015260a0820151614392816134ce565b60a082015292915050565b6000602082840312156143af57600080fd5b81516001600160401b03808211156143c657600080fd5b9083019061016082860312156143db57600080fd5b6143e3613207565b8251828111156143f257600080fd5b6143fe87828601613fcb565b82525060208301518281111561441357600080fd5b61441f878286016141dd565b6020830152506144328660408501614333565b60408201526101008301516060820152610120830151608082015261445a6101408401613fba565b60a082015295945050505050565b600081518084526020808501808196508360051b8101915082860160005b858110156144c457828403895281518051855285015160408686018190526144b081870183613df3565b9a87019a9550505090840190600101614486565b5091979650505050505050565b600881106144ef57634e487b7160e01b600052602160045260246000fd5b9052565b600081518084526020808501945080840160005b83811015613be2578151805188528301516001600160a01b03168388015260409096019590820190600101614507565b600081518084526020808501808196508360051b8101915082860160005b858110156144c457828403895281516101606145728683516144d1565b818701518688015260408083015190870152606080830151908701526080808301519087015260a0808301516145aa828901826137b2565b505060c08083015182828901526145c383890182613df3565b60e085810151908a015261010080860151908a015261012080860151908a015261014094850151898203958a019590955292506146049150829050836144f3565b9a87019a9550505090840190600101614555565b60006020808352610180808401855161016080858801528282518085526101a094508489019150848160051b8a0101878501945060005b82811015614733578a820361019f19018452855180518352898101516146778b8501826137b2565b5060408181015190840152606080820151908401526080808201519084015260a0808201519084015260c0808201516146b2828601826137b2565b505060e08082015189828601526146cb8a860182613df3565b91505061010080830151858303828701526146e68382614468565b92505050610120808301518186015250610140808301518186015250868201516147148886018260ff169052565b509089015160ff1692890192909252948801949288019260010161464f565b50968a0151898803601f190160408b01529661474f8189614537565b9750505050604088015193506147a56060880185805182526020808201519083015260408082015190830152606080820151908301526080808201516001600160a01b03169083015260a0908101511515910152565b6060880151610120880152608088015161014088015260a09097015160ff169690950195909552509392505050565b600060208083850312156147e757600080fd5b82516001600160401b038111156147fd57600080fd5b8301601f8101851361480e57600080fd5b805161481c6132e482613386565b81815260069190911b8201830190838101908783111561483b57600080fd5b928401925b8284101561488757604084890312156148595760008081fd5b61486161319f565b845161486c8161312a565b81528486015186820152825260409093019290840190614840565b979650505050505050565b6001600160a01b039384168152919092166020820152604081019190915260600190565b600060208083850312156148c957600080fd5b82516001600160401b038111156148df57600080fd5b8301601f810185136148f057600080fd5b80516148fe6132e482613386565b8181526060918202830184019184820191908884111561491d57600080fd5b938501935b838510156149705780858a03121561493a5760008081fd5b614942613229565b855161494d8161312a565b815285870151878201526040808701519082015283529384019391850191614922565b50979650505050505050565b6001600160a01b0394851681529290931660208301526040820152606081019190915260a06080820181905260009082015260c00190565b600061020082840312156149c757600080fd5b6149cf61324b565b90506149da82613b8a565b81526149e860208301613ea9565b60208201526149f960408301613ea9565b6040820152606082015160608201526080820151608082015260a082015160a0820152614a2860c08301613ea9565b60c0820152614a3960e08301613ea9565b60e08201526101008281015190820152610120808301519082015261014080830151908201526101608083015190820152610180808301516001600160401b03811115614a8557600080fd5b614a9185828601613eb4565b8284015250506101a0614aa5818401613fba565b908201526101c082810151908201526101e09182015191810191909152919050565b80516134e7816130f7565b600080600060608486031215614ae757600080fd5b83516001600160401b0380821115614afe57600080fd5b9085019060c08288031215614b1257600080fd5b614b1a613207565b8251614b25816134ce565b81526020830151614b358161312a565b8060208301525060408301516040820152606083015160608201526080830151608082015260a083015182811115614b6c57600080fd5b614b7889828601613eb4565b60a0830152506020870151909550915080821115614b9557600080fd5b50614ba2868287016149b4565b925050614bb160408501614ac7565b90509250925092565b60408152600061010084511515604084015260018060a01b03602086015116606084015260408501516080840152606085015160a0840152608085015160c084015260a085015160c060e0850152614c1482850182613df3565b848103602086015285511515815290506102006020860151614c3960208401826137b2565b506040860151614c4c60408401826137b2565b50606086015160608301526080860151608083015260a086015160a083015260c0860151614c7d60c08401826137b2565b5060e0860151614c9060e08401826137b2565b50858301519282019290925261012080860151908201526101408086015190820152610160808601519082015261018080860151818301849052909290614cd982840182613df3565b935050506101a080860151614cf28284018260ff169052565b50506101c085810151908201526101e094850151940193909352509092915050565b6020808252602b908201527f496e697469616c697a61626c653a20636f6e7472616374206973206e6f74206960408201526a6e697469616c697a696e6760a81b606082015260800190565b600060208284031215614d7157600080fd5b81516001600160401b0380821115614d8857600080fd5b9083019060408286031215614d9c57600080fd5b614da461319f565b825182811115614db357600080fd5b614dbf87828601613eb4565b825250602083015182811115614dd457600080fd5b614de087828601613c76565b60208301525095945050505050565b6000816000190483118215151615614e0957614e09613a87565b500290565b600082614e2b57634e487b7160e01b600052601260045260246000fd5b50049056fea264697066735822122006a486eef17e14912e9143756614935262a4a339555111b62936df24bd6431ce64736f6c63430008090033",
  "devdoc": {
    "kind": "dev",
    "methods": {
      "bulkPurchase((uint8,uint256,uint256,bytes)[],address,address,bool)": {
        "params": {
          "allowFail": "- true if fails while executing orders are allowed, false if fail of a single order means fail of the whole batch",
          "feeRecipientFirst": "- address of the first fee recipient",
          "feeRecipientSecond": "- address of the second fee recipient",
          "purchaseDetails": "- array of details about the purchases (more info in PurchaseDetails struct)"
        }
      },
      "bulkPurchaseWithSwap((uint8,uint256,uint256,bytes)[],address,address,bool,(bytes,uint256,uint256,bool))": {
        "params": {
          "allowFail": "- true if fails while executing orders are allowed, false if fail of a single order means fail of the whole batch",
          "feeRecipientFirst": "- address of the first fee recipient",
          "feeRecipientSecond": "- address of the second fee recipient",
          "purchaseDetails": "- array of details about the purchases (more info in PurchaseDetails struct)",
          "swapDetails": "- swapDetails v3"
        }
      },
      "bulkPurchaseWithV2Swap((uint8,uint256,uint256,bytes)[],address,address,bool,(address[],uint256,uint256,uint256[],bool))": {
        "params": {
          "allowFail": "- true if fails while executing orders are allowed, false if fail of a single order means fail of the whole batch",
          "feeRecipientFirst": "- address of the first fee recipient",
          "feeRecipientSecond": "- address of the second fee recipient",
          "purchaseDetails": "- array of details about the purchases (more info in PurchaseDetails struct)",
          "swapDetails": "- swapDetails v2"
        }
      },
      "onERC721Received(address,address,uint256,bytes)": {
        "details": "See {IERC721Receiver-onERC721Received}. Always returns `IERC721Receiver.onERC721Received.selector`."
      },
      "owner()": {
        "details": "Returns the address of the current owner."
      },
      "paused()": {
        "details": "Returns true if the contract is paused, and false otherwise."
      },
      "renounceOwnership()": {
        "details": "Leaves the contract without owner. It will not be possible to call `onlyOwner` functions anymore. Can only be called by the current owner. NOTE: Renouncing ownership will leave the contract without an owner, thereby removing any functionality that is only available to the owner."
      },
      "singlePurchase((uint8,uint256,uint256,bytes),address,address)": {
        "params": {
          "feeRecipientFirst": "- address of the first fee recipient",
          "feeRecipientSecond": "- address of the second fee recipient",
          "purchaseDetails": "- details about the purchase (more info in PurchaseDetails struct)"
        }
      },
      "supportsInterface(bytes4)": {
        "details": "See {IERC165-supportsInterface}."
      },
      "transferOwnership(address)": {
        "details": "Transfers ownership of the contract to a new account (`newOwner`). Can only be called by the current owner."
      }
    },
    "version": 1
  },
  "userdoc": {
    "kind": "user",
    "methods": {
      "bulkPurchase((uint8,uint256,uint256,bytes)[],address,address,bool)": {
        "notice": "executes an array of purchases"
      },
      "bulkPurchaseWithSwap((uint8,uint256,uint256,bytes)[],address,address,bool,(bytes,uint256,uint256,bool))": {
        "notice": "executes an array of purchases - with swap v3"
      },
      "bulkPurchaseWithV2Swap((uint8,uint256,uint256,bytes)[],address,address,bool,(address[],uint256,uint256,uint256[],bool))": {
        "notice": "executes an array of purchases - with swap v2 - tokens for tokens or tokens for eth/weth"
      },
      "pause()": {
        "notice": "Pause the contract"
      },
      "setTransferProxy(address)": {
        "notice": "Set erc20 transfer proxy"
      },
      "setUniswapV2(address)": {
        "notice": "Set uniswap v2 router"
      },
      "setUniswapV3(address)": {
        "notice": "Set uniswap v3 router"
      },
      "setWrapped(address)": {
        "notice": "Set wrapped token"
      },
      "singlePurchase((uint8,uint256,uint256,bytes),address,address)": {
        "notice": "executes a single purchase"
      },
      "unpause()": {
        "notice": "Unpause the contract"
      }
    },
    "version": 1
  },
  "storageLayout": {
    "storage": [
      {
        "astId": 721,
        "contract": "src/exchange-wrapper/ExchangeWrapper.sol:ExchangeWrapper",
        "label": "_initialized",
        "offset": 0,
        "slot": "0",
        "type": "t_uint8"
      },
      {
        "astId": 724,
        "contract": "src/exchange-wrapper/ExchangeWrapper.sol:ExchangeWrapper",
        "label": "_initializing",
        "offset": 1,
        "slot": "0",
        "type": "t_bool"
      },
      {
        "astId": 4842,
        "contract": "src/exchange-wrapper/ExchangeWrapper.sol:ExchangeWrapper",
        "label": "__gap",
        "offset": 0,
        "slot": "1",
        "type": "t_array(t_uint256)50_storage"
      },
      {
        "astId": 593,
        "contract": "src/exchange-wrapper/ExchangeWrapper.sol:ExchangeWrapper",
        "label": "_owner",
        "offset": 0,
        "slot": "51",
        "type": "t_address"
      },
      {
        "astId": 713,
        "contract": "src/exchange-wrapper/ExchangeWrapper.sol:ExchangeWrapper",
        "label": "__gap",
        "offset": 0,
        "slot": "52",
        "type": "t_array(t_uint256)49_storage"
      },
      {
        "astId": 886,
        "contract": "src/exchange-wrapper/ExchangeWrapper.sol:ExchangeWrapper",
        "label": "_paused",
        "offset": 0,
        "slot": "101",
        "type": "t_bool"
      },
      {
        "astId": 991,
        "contract": "src/exchange-wrapper/ExchangeWrapper.sol:ExchangeWrapper",
        "label": "__gap",
        "offset": 0,
        "slot": "102",
        "type": "t_array(t_uint256)49_storage"
      },
      {
        "astId": 11539,
        "contract": "src/exchange-wrapper/ExchangeWrapper.sol:ExchangeWrapper",
        "label": "exchangeV2",
        "offset": 0,
        "slot": "151",
        "type": "t_address"
      },
      {
        "astId": 11541,
        "contract": "src/exchange-wrapper/ExchangeWrapper.sol:ExchangeWrapper",
        "label": "rarible",
        "offset": 0,
        "slot": "152",
        "type": "t_address"
      },
      {
        "astId": 11543,
        "contract": "src/exchange-wrapper/ExchangeWrapper.sol:ExchangeWrapper",
        "label": "wyvern",
        "offset": 0,
        "slot": "153",
        "type": "t_address"
      },
      {
        "astId": 11545,
        "contract": "src/exchange-wrapper/ExchangeWrapper.sol:ExchangeWrapper",
        "label": "seaport",
        "offset": 0,
        "slot": "154",
        "type": "t_address"
      },
      {
        "astId": 11547,
        "contract": "src/exchange-wrapper/ExchangeWrapper.sol:ExchangeWrapper",
        "label": "x2y2",
        "offset": 0,
        "slot": "155",
        "type": "t_address"
      },
      {
        "astId": 11549,
        "contract": "src/exchange-wrapper/ExchangeWrapper.sol:ExchangeWrapper",
        "label": "looksrare",
        "offset": 0,
        "slot": "156",
        "type": "t_address"
      },
      {
        "astId": 11551,
        "contract": "src/exchange-wrapper/ExchangeWrapper.sol:ExchangeWrapper",
        "label": "sudoswap",
        "offset": 0,
        "slot": "157",
        "type": "t_address"
      },
      {
        "astId": 11553,
        "contract": "src/exchange-wrapper/ExchangeWrapper.sol:ExchangeWrapper",
        "label": "blur",
        "offset": 0,
        "slot": "158",
        "type": "t_address"
      },
      {
        "astId": 11556,
        "contract": "src/exchange-wrapper/ExchangeWrapper.sol:ExchangeWrapper",
        "label": "uniswapRouterV2",
        "offset": 0,
        "slot": "159",
        "type": "t_contract(ISwapRouterV2)14187"
      },
      {
        "astId": 11559,
        "contract": "src/exchange-wrapper/ExchangeWrapper.sol:ExchangeWrapper",
        "label": "uniswapRouterV3",
        "offset": 0,
        "slot": "160",
        "type": "t_contract(ISwapRouterV3)14237"
      },
      {
        "astId": 11561,
        "contract": "src/exchange-wrapper/ExchangeWrapper.sol:ExchangeWrapper",
        "label": "wrappedToken",
        "offset": 0,
        "slot": "161",
        "type": "t_address"
      },
      {
        "astId": 11563,
        "contract": "src/exchange-wrapper/ExchangeWrapper.sol:ExchangeWrapper",
        "label": "erc20TransferProxy",
        "offset": 0,
        "slot": "162",
        "type": "t_address"
      }
    ],
    "types": {
      "t_address": {
        "encoding": "inplace",
        "label": "address",
        "numberOfBytes": "20"
      },
      "t_array(t_uint256)49_storage": {
        "base": "t_uint256",
        "encoding": "inplace",
        "label": "uint256[49]",
        "numberOfBytes": "1568"
      },
      "t_array(t_uint256)50_storage": {
        "base": "t_uint256",
        "encoding": "inplace",
        "label": "uint256[50]",
        "numberOfBytes": "1600"
      },
      "t_bool": {
        "encoding": "inplace",
        "label": "bool",
        "numberOfBytes": "1"
      },
      "t_contract(ISwapRouterV2)14187": {
        "encoding": "inplace",
        "label": "contract ISwapRouterV2",
        "numberOfBytes": "20"
      },
      "t_contract(ISwapRouterV3)14237": {
        "encoding": "inplace",
        "label": "contract ISwapRouterV3",
        "numberOfBytes": "20"
      },
      "t_uint256": {
        "encoding": "inplace",
        "label": "uint256",
        "numberOfBytes": "32"
      },
      "t_uint8": {
        "encoding": "inplace",
        "label": "uint8",
        "numberOfBytes": "1"
      }
    }
  }
}