{
  "address": "0x2eA6285e38359147d02C82e966B196e97583aa09",
  "abi": [
    {
      "anonymous": false,
      "inputs": [
        {
          "indexed": false,
          "internalType": "bool",
          "name": "result",
          "type": "bool"
        },
        {
          "indexed": true,
          "internalType": "address",
          "name": "sender",
          "type": "address"
        }
      ],
      "name": "Execution",
      "type": "event"
    },
    {
      "anonymous": false,
      "inputs": [
        {
          "indexed": false,
          "internalType": "uint8",
          "name": "version",
          "type": "uint8"
        }
      ],
      "name": "Initialized",
      "type": "event"
    },
    {
      "anonymous": false,
      "inputs": [
        {
          "indexed": true,
          "internalType": "address",
          "name": "previousOwner",
          "type": "address"
        },
        {
          "indexed": true,
          "internalType": "address",
          "name": "newOwner",
          "type": "address"
        }
      ],
      "name": "OwnershipTransferred",
      "type": "event"
    },
    {
      "anonymous": false,
      "inputs": [
        {
          "indexed": false,
          "internalType": "address",
          "name": "account",
          "type": "address"
        }
      ],
      "name": "Paused",
      "type": "event"
    },
    {
      "anonymous": false,
      "inputs": [
        {
          "indexed": false,
          "internalType": "address",
          "name": "account",
          "type": "address"
        }
      ],
      "name": "Unpaused",
      "type": "event"
    },
    {
      "inputs": [
        {
          "internalType": "address",
          "name": "_exchangeV2",
          "type": "address"
        },
        {
          "internalType": "address",
          "name": "_rarible",
          "type": "address"
        },
        {
          "internalType": "address",
          "name": "_seaport_1_4",
          "type": "address"
        },
        {
          "internalType": "address",
          "name": "_seaport_1_1",
          "type": "address"
        },
        {
          "internalType": "address",
          "name": "_x2y2",
          "type": "address"
        },
        {
          "internalType": "address",
          "name": "_looksrare",
          "type": "address"
        },
        {
          "internalType": "address",
          "name": "_sudoswap",
          "type": "address"
        },
        {
          "internalType": "address",
          "name": "_blur",
          "type": "address"
        }
      ],
      "name": "__ExchangeWrapper_init",
      "outputs": [],
      "stateMutability": "nonpayable",
      "type": "function"
    },
    {
      "inputs": [],
      "name": "blur",
      "outputs": [
        {
          "internalType": "address",
          "name": "",
          "type": "address"
        }
      ],
      "stateMutability": "view",
      "type": "function"
    },
    {
      "inputs": [
        {
          "components": [
            {
              "internalType": "enum ExchangeWrapperCore.Markets",
              "name": "marketId",
              "type": "uint8"
            },
            {
              "internalType": "uint256",
              "name": "amount",
              "type": "uint256"
            },
            {
              "internalType": "address",
              "name": "paymentToken",
              "type": "address"
            },
            {
              "internalType": "uint256",
              "name": "fees",
              "type": "uint256"
            },
            {
              "internalType": "bytes",
              "name": "data",
              "type": "bytes"
            }
          ],
          "internalType": "struct ExchangeWrapperCore.PurchaseDetails[]",
          "name": "purchaseDetails",
          "type": "tuple[]"
        },
        {
          "internalType": "address",
          "name": "feeRecipientFirst",
          "type": "address"
        },
        {
          "internalType": "address",
          "name": "feeRecipientSecond",
          "type": "address"
        },
        {
          "internalType": "bool",
          "name": "allowFail",
          "type": "bool"
        }
      ],
      "name": "bulkPurchase",
      "outputs": [],
      "stateMutability": "payable",
      "type": "function"
    },
    {
      "inputs": [
        {
          "components": [
            {
              "internalType": "enum ExchangeWrapperCore.Markets",
              "name": "marketId",
              "type": "uint8"
            },
            {
              "internalType": "uint256",
              "name": "amount",
              "type": "uint256"
            },
            {
              "internalType": "address",
              "name": "paymentToken",
              "type": "address"
            },
            {
              "internalType": "uint256",
              "name": "fees",
              "type": "uint256"
            },
            {
              "internalType": "bytes",
              "name": "data",
              "type": "bytes"
            }
          ],
          "internalType": "struct ExchangeWrapperCore.PurchaseDetails[]",
          "name": "purchaseDetails",
          "type": "tuple[]"
        },
        {
          "internalType": "address",
          "name": "feeRecipientFirst",
          "type": "address"
        },
        {
          "internalType": "address",
          "name": "feeRecipientSecond",
          "type": "address"
        },
        {
          "internalType": "bool",
          "name": "allowFail",
          "type": "bool"
        },
        {
          "components": [
            {
              "internalType": "bytes",
              "name": "path",
              "type": "bytes"
            },
            {
              "internalType": "uint256",
              "name": "amountOut",
              "type": "uint256"
            },
            {
              "internalType": "uint256",
              "name": "amountInMaximum",
              "type": "uint256"
            },
            {
              "internalType": "bool",
              "name": "unwrap",
              "type": "bool"
            }
          ],
          "internalType": "struct ExchangeWrapperCore.SwapDetailsIn",
          "name": "swapDetails",
          "type": "tuple"
        }
      ],
      "name": "bulkPurchaseWithSwap",
      "outputs": [],
      "stateMutability": "payable",
      "type": "function"
    },
    {
      "inputs": [
        {
          "components": [
            {
              "internalType": "enum ExchangeWrapperCore.Markets",
              "name": "marketId",
              "type": "uint8"
            },
            {
              "internalType": "uint256",
              "name": "amount",
              "type": "uint256"
            },
            {
              "internalType": "address",
              "name": "paymentToken",
              "type": "address"
            },
            {
              "internalType": "uint256",
              "name": "fees",
              "type": "uint256"
            },
            {
              "internalType": "bytes",
              "name": "data",
              "type": "bytes"
            }
          ],
          "internalType": "struct ExchangeWrapperCore.PurchaseDetails[]",
          "name": "purchaseDetails",
          "type": "tuple[]"
        },
        {
          "internalType": "address",
          "name": "feeRecipientFirst",
          "type": "address"
        },
        {
          "internalType": "address",
          "name": "feeRecipientSecond",
          "type": "address"
        },
        {
          "internalType": "bool",
          "name": "allowFail",
          "type": "bool"
        },
        {
          "components": [
            {
              "internalType": "address[]",
              "name": "path",
              "type": "address[]"
            },
            {
              "internalType": "uint256",
              "name": "amountOut",
              "type": "uint256"
            },
            {
              "internalType": "uint256",
              "name": "amountInMaximum",
              "type": "uint256"
            },
            {
              "internalType": "uint256[]",
              "name": "binSteps",
              "type": "uint256[]"
            },
            {
              "internalType": "bool",
              "name": "unwrap",
              "type": "bool"
            }
          ],
          "internalType": "struct ExchangeWrapperCore.SwapV2DetailsIn",
          "name": "swapDetails",
          "type": "tuple"
        }
      ],
      "name": "bulkPurchaseWithV2Swap",
      "outputs": [],
      "stateMutability": "payable",
      "type": "function"
    },
    {
      "inputs": [],
      "name": "erc20TransferProxy",
      "outputs": [
        {
          "internalType": "address",
          "name": "",
          "type": "address"
        }
      ],
      "stateMutability": "view",
      "type": "function"
    },
    {
      "inputs": [],
      "name": "exchangeV2",
      "outputs": [
        {
          "internalType": "address",
          "name": "",
          "type": "address"
        }
      ],
      "stateMutability": "view",
      "type": "function"
    },
    {
      "inputs": [],
      "name": "looksrare",
      "outputs": [
        {
          "internalType": "address",
          "name": "",
          "type": "address"
        }
      ],
      "stateMutability": "view",
      "type": "function"
    },
    {
      "inputs": [
        {
          "internalType": "address",
          "name": "",
          "type": "address"
        },
        {
          "internalType": "address",
          "name": "",
          "type": "address"
        },
        {
          "internalType": "uint256[]",
          "name": "",
          "type": "uint256[]"
        },
        {
          "internalType": "uint256[]",
          "name": "",
          "type": "uint256[]"
        },
        {
          "internalType": "bytes",
          "name": "",
          "type": "bytes"
        }
      ],
      "name": "onERC1155BatchReceived",
      "outputs": [
        {
          "internalType": "bytes4",
          "name": "",
          "type": "bytes4"
        }
      ],
      "stateMutability": "nonpayable",
      "type": "function"
    },
    {
      "inputs": [
        {
          "internalType": "address",
          "name": "",
          "type": "address"
        },
        {
          "internalType": "address",
          "name": "",
          "type": "address"
        },
        {
          "internalType": "uint256",
          "name": "",
          "type": "uint256"
        },
        {
          "internalType": "uint256",
          "name": "",
          "type": "uint256"
        },
        {
          "internalType": "bytes",
          "name": "",
          "type": "bytes"
        }
      ],
      "name": "onERC1155Received",
      "outputs": [
        {
          "internalType": "bytes4",
          "name": "",
          "type": "bytes4"
        }
      ],
      "stateMutability": "nonpayable",
      "type": "function"
    },
    {
      "inputs": [
        {
          "internalType": "address",
          "name": "",
          "type": "address"
        },
        {
          "internalType": "address",
          "name": "",
          "type": "address"
        },
        {
          "internalType": "uint256",
          "name": "",
          "type": "uint256"
        },
        {
          "internalType": "bytes",
          "name": "",
          "type": "bytes"
        }
      ],
      "name": "onERC721Received",
      "outputs": [
        {
          "internalType": "bytes4",
          "name": "",
          "type": "bytes4"
        }
      ],
      "stateMutability": "nonpayable",
      "type": "function"
    },
    {
      "inputs": [],
      "name": "owner",
      "outputs": [
        {
          "internalType": "address",
          "name": "",
          "type": "address"
        }
      ],
      "stateMutability": "view",
      "type": "function"
    },
    {
      "inputs": [],
      "name": "pause",
      "outputs": [],
      "stateMutability": "nonpayable",
      "type": "function"
    },
    {
      "inputs": [],
      "name": "paused",
      "outputs": [
        {
          "internalType": "bool",
          "name": "",
          "type": "bool"
        }
      ],
      "stateMutability": "view",
      "type": "function"
    },
    {
      "inputs": [
        {
          "internalType": "enum ExchangeWrapperCore.Markets",
          "name": "",
          "type": "uint8"
        }
      ],
      "name": "proxies",
      "outputs": [
        {
          "internalType": "address",
          "name": "",
          "type": "address"
        }
      ],
      "stateMutability": "view",
      "type": "function"
    },
    {
      "inputs": [],
      "name": "rarible",
      "outputs": [
        {
          "internalType": "address",
          "name": "",
          "type": "address"
        }
      ],
      "stateMutability": "view",
      "type": "function"
    },
    {
      "inputs": [],
      "name": "renounceOwnership",
      "outputs": [],
      "stateMutability": "nonpayable",
      "type": "function"
    },
    {
      "inputs": [],
      "name": "seaport_1_1",
      "outputs": [
        {
          "internalType": "address",
          "name": "",
          "type": "address"
        }
      ],
      "stateMutability": "view",
      "type": "function"
    },
    {
      "inputs": [],
      "name": "seaport_1_4",
      "outputs": [
        {
          "internalType": "address",
          "name": "",
          "type": "address"
        }
      ],
      "stateMutability": "view",
      "type": "function"
    },
    {
      "inputs": [
        {
          "internalType": "enum ExchangeWrapperCore.Markets",
          "name": "marketId",
          "type": "uint8"
        },
        {
          "internalType": "address",
          "name": "proxy",
          "type": "address"
        }
      ],
      "name": "setMarketProxy",
      "outputs": [],
      "stateMutability": "nonpayable",
      "type": "function"
    },
    {
      "inputs": [
        {
          "internalType": "address",
          "name": "_seaport",
          "type": "address"
        }
      ],
      "name": "setSeaport",
      "outputs": [],
      "stateMutability": "nonpayable",
      "type": "function"
    },
    {
      "inputs": [
        {
          "internalType": "address",
          "name": "_erc20TransferProxy",
          "type": "address"
        }
      ],
      "name": "setTransferProxy",
      "outputs": [],
      "stateMutability": "nonpayable",
      "type": "function"
    },
    {
      "inputs": [
        {
          "internalType": "contract ISwapRouterV2",
          "name": "_uniswapRouterV2",
          "type": "address"
        }
      ],
      "name": "setUniswapV2",
      "outputs": [],
      "stateMutability": "nonpayable",
      "type": "function"
    },
    {
      "inputs": [
        {
          "internalType": "contract ISwapRouterV3",
          "name": "_uniswapRouterV3",
          "type": "address"
        }
      ],
      "name": "setUniswapV3",
      "outputs": [],
      "stateMutability": "nonpayable",
      "type": "function"
    },
    {
      "inputs": [
        {
          "internalType": "address",
          "name": "_wrappedToken",
          "type": "address"
        }
      ],
      "name": "setWrapped",
      "outputs": [],
      "stateMutability": "nonpayable",
      "type": "function"
    },
    {
      "inputs": [
        {
          "components": [
            {
              "internalType": "enum ExchangeWrapperCore.Markets",
              "name": "marketId",
              "type": "uint8"
            },
            {
              "internalType": "uint256",
              "name": "amount",
              "type": "uint256"
            },
            {
              "internalType": "address",
              "name": "paymentToken",
              "type": "address"
            },
            {
              "internalType": "uint256",
              "name": "fees",
              "type": "uint256"
            },
            {
              "internalType": "bytes",
              "name": "data",
              "type": "bytes"
            }
          ],
          "internalType": "struct ExchangeWrapperCore.PurchaseDetails",
          "name": "purchaseDetails",
          "type": "tuple"
        },
        {
          "internalType": "address",
          "name": "feeRecipientFirst",
          "type": "address"
        },
        {
          "internalType": "address",
          "name": "feeRecipientSecond",
          "type": "address"
        }
      ],
      "name": "singlePurchase",
      "outputs": [],
      "stateMutability": "payable",
      "type": "function"
    },
    {
      "inputs": [],
      "name": "sudoswap",
      "outputs": [
        {
          "internalType": "address",
          "name": "",
          "type": "address"
        }
      ],
      "stateMutability": "view",
      "type": "function"
    },
    {
      "inputs": [
        {
          "internalType": "bytes4",
          "name": "interfaceId",
          "type": "bytes4"
        }
      ],
      "name": "supportsInterface",
      "outputs": [
        {
          "internalType": "bool",
          "name": "",
          "type": "bool"
        }
      ],
      "stateMutability": "view",
      "type": "function"
    },
    {
      "inputs": [
        {
          "internalType": "address",
          "name": "newOwner",
          "type": "address"
        }
      ],
      "name": "transferOwnership",
      "outputs": [],
      "stateMutability": "nonpayable",
      "type": "function"
    },
    {
      "inputs": [],
      "name": "uniswapRouterV2",
      "outputs": [
        {
          "internalType": "contract ISwapRouterV2",
          "name": "",
          "type": "address"
        }
      ],
      "stateMutability": "view",
      "type": "function"
    },
    {
      "inputs": [],
      "name": "uniswapRouterV3",
      "outputs": [
        {
          "internalType": "contract ISwapRouterV3",
          "name": "",
          "type": "address"
        }
      ],
      "stateMutability": "view",
      "type": "function"
    },
    {
      "inputs": [],
      "name": "unpause",
      "outputs": [],
      "stateMutability": "nonpayable",
      "type": "function"
    },
    {
      "inputs": [],
      "name": "wrappedToken",
      "outputs": [
        {
          "internalType": "address",
          "name": "",
          "type": "address"
        }
      ],
      "stateMutability": "view",
      "type": "function"
    },
    {
      "inputs": [],
      "name": "x2y2",
      "outputs": [
        {
          "internalType": "address",
          "name": "",
          "type": "address"
        }
      ],
      "stateMutability": "view",
      "type": "function"
    },
    {
      "stateMutability": "payable",
      "type": "receive"
    }
  ],
  "transactionHash": "0xf64829eed2b345f9d428497da236d61138882e66b09c5355a2a6acad45344358",
  "args": [],
  "numDeployments": 4,
  "solcInputHash": "2e1631ab269086387667f91d00ac6cf6",
  "bytecode": "0x608060405234801561001057600080fd5b5061568580620000216000396000f3fe6080604052600436106101bd5760003560e01c806386619edf116100ed578063bc197c8111610090578063bc197c81146104f5578063c1aa293814610521578063c6d0ffd714610541578063d6dc927f14610561578063df6c255814610574578063f23a6e6114610594578063f2fde38b146105c0578063fc40c9c7146105e0578063fee03e9e1461060057600080fd5b806386619edf146103ee5780638ae42905146104015780638da5cb5b146104215780639137f9c21461043f578063996c6cc314610475578063a05f32dc14610495578063a8e90b57146104b5578063aa78ae93146104d557600080fd5b8063596fa9e311610160578063596fa9e3146102f957806359e86829146103195780635c975abb146103395780635ea1e4c9146103515780635f2772e314610371578063715018a61461038457806373a963d7146103995780637da50dd6146103b95780638456cb59146103d957600080fd5b806301ffc9a7146101c957806310f91b0b146101fe578063150b7a021461022b578063170f62c81461026f578063368c802c146102915780633f4ba83a146102a45780634f9b3c4f146102b95780634fe35669146102d957600080fd5b366101c457005b600080fd5b3480156101d557600080fd5b506101e96101e43660046138ac565b610620565b60405190151581526020015b60405180910390f35b34801561020a57600080fd5b5060a05461021e906001600160a01b031681565b6040516101f591906138c9565b34801561023757600080fd5b50610256610246366004613ace565b630a85bd0160e11b949350505050565b6040516001600160e01b031990911681526020016101f5565b34801561027b57600080fd5b5061028f61028a366004613b39565b610657565b005b61028f61029f366004613c07565b610681565b3480156102b057600080fd5b5061028f610750565b3480156102c557600080fd5b50609a5461021e906001600160a01b031681565b3480156102e557600080fd5b5060995461021e906001600160a01b031681565b34801561030557600080fd5b50609f5461021e906001600160a01b031681565b34801561032557600080fd5b5061028f610334366004613b39565b610762565b34801561034557600080fd5b5060655460ff166101e9565b34801561035d57600080fd5b50609d5461021e906001600160a01b031681565b61028f61037f366004613d9d565b61078c565b34801561039057600080fd5b5061028f61089f565b3480156103a557600080fd5b5061028f6103b4366004613b39565b6108b1565b3480156103c557600080fd5b5061028f6103d4366004613f0d565b6108db565b3480156103e557600080fd5b5061028f610941565b61028f6103fc366004613f46565b610951565b34801561040d57600080fd5b5061028f61041c366004613b39565b61098f565b34801561042d57600080fd5b506033546001600160a01b031661021e565b34801561044b57600080fd5b5061021e61045a366004614041565b60a3602052600090815260409020546001600160a01b031681565b34801561048157600080fd5b5060a15461021e906001600160a01b031681565b3480156104a157600080fd5b5060975461021e906001600160a01b031681565b3480156104c157600080fd5b50609c5461021e906001600160a01b031681565b3480156104e157600080fd5b5061028f6104f036600461405e565b6109b9565b34801561050157600080fd5b50610256610510366004614107565b63bc197c8160e01b95945050505050565b34801561052d57600080fd5b5061028f61053c366004613b39565b610b5c565b34801561054d57600080fd5b5060985461021e906001600160a01b031681565b61028f61056f3660046141b4565b610b86565b34801561058057600080fd5b50609e5461021e906001600160a01b031681565b3480156105a057600080fd5b506102566105af366004614228565b63f23a6e6160e01b95945050505050565b3480156105cc57600080fd5b5061028f6105db366004613b39565b610d45565b3480156105ec57600080fd5b50609b5461021e906001600160a01b031681565b34801561060c57600080fd5b5060a25461021e906001600160a01b031681565b60006001600160e01b03198216630271189760e51b148061065157506301ffc9a760e01b6001600160e01b03198316145b92915050565b61065f610dbe565b609980546001600160a01b0319166001600160a01b0392909216919091179055565b610689610e18565b6000806000610699866000610e5e565b9250925092506106a63390565b6001600160a01b03167fc5dd8c21802b423a9c822ee9c934f042186e6bb7097a1dd17717343ee84df714846040516106e2911515815260200190565b60405180910390a260408601516001600160a01b0316610715576107068286611def565b6107108185611def565b610740565b61072486604001518387611e1a565b61073386604001518286611e1a565b6107408660400151611ebe565b610748611fc5565b505050505050565b610758610dbe565b610760611fd6565b565b61076a610dbe565b60a080546001600160a01b0319166001600160a01b0392909216919091179055565b610794610e18565b600081600001516000815181106107ad576107ad614290565b602002602001015190506000826000015160018460000151516107d091906142bc565b815181106107e0576107e0614290565b602090810291909101015160a1549091506001600160a01b038083169116141561083d57600061080f84612022565b9050806108375760405162461bcd60e51b815260040161082e906142d3565b60405180910390fd5b5061088a565b60a1546001600160a01b038381169116141561085e57600061080f846125e7565b6000610869846129a1565b9050806108885760405162461bcd60e51b815260040161082e906142d3565b505b61089687878787610b86565b50505050505050565b6108a7610dbe565b6107606000612d94565b6108b9610dbe565b609f80546001600160a01b0319166001600160a01b0392909216919091179055565b6108e3610dbe565b8060a360008460078111156108fa576108fa614300565b600781111561090b5761090b614300565b815260200190815260200160002060006101000a8154816001600160a01b0302191690836001600160a01b031602179055505050565b610949610dbe565b610760612de6565b610959610e18565b600061096482612e23565b9050806109835760405162461bcd60e51b815260040161082e906142d3565b61074886868686610b86565b610997610dbe565b60a280546001600160a01b0319166001600160a01b0392909216919091179055565b600054610100900460ff16158080156109d95750600054600160ff909116105b806109f35750303b1580156109f3575060005460ff166001145b610a565760405162461bcd60e51b815260206004820152602e60248201527f496e697469616c697a61626c653a20636f6e747261637420697320616c72656160448201526d191e481a5b9a5d1a585b1a5e995960921b606482015260840161082e565b6000805460ff191660011790558015610a79576000805461ff0019166101001790555b610a81613367565b610a8961338e565b610a916133be565b609780546001600160a01b03199081166001600160a01b03808d1691909117909255609880548216838c16179055609980548216838b16179055609a80548216838a16179055609b80548216838916179055609c80548216838816179055609d80548216838716179055609e80549091169184169190911790558015610b51576000805461ff0019169055604051600181527f7f26b83ff96e1f2b6a682f133852f6798a09c465da95921460cefb38474024989060200160405180910390a15b505050505050505050565b610b64610dbe565b60a180546001600160a01b0319166001600160a01b0392909216919091179055565b610b8e610e18565b6000806000808751905060005b81811015610ccd576000806000610bcb8c8581518110610bbd57610bbd614290565b60200260200101518a610e5e565b9250925092508580610bda5750825b604051841515815290965033907fc5dd8c21802b423a9c822ee9c934f042186e6bb7097a1dd17717343ee84df7149060200160405180910390a260006001600160a01b03168c8581518110610c3157610c31614290565b6020026020010151604001516001600160a01b03161415610c6957610c568289614316565b9750610c628188614316565b9650610cb9565b610c918c8581518110610c7e57610c7e614290565b602002602001015160400151838d611e1a565b610cb98c8581518110610ca657610ca6614290565b602002602001015160400151828c611e1a565b50505080610cc69061432e565b9050610b9b565b5081610d165760405162461bcd60e51b81526020600482015260186024820152776e6f207375636365737366756c20657865637574696f6e7360401b604482015260640161082e565b610d208488611def565b610d2a8387611def565b610d33886133f1565b610d3b611fc5565b5050505050505050565b610d4d610dbe565b6001600160a01b038116610db25760405162461bcd60e51b815260206004820152602660248201527f4f776e61626c653a206e6577206f776e657220697320746865207a65726f206160448201526564647265737360d01b606482015260840161082e565b610dbb81612d94565b50565b6033546001600160a01b031633146107605760405162461bcd60e51b815260206004820181905260248201527f4f776e61626c653a2063616c6c6572206973206e6f7420746865206f776e6572604482015260640161082e565b60655460ff16156107605760405162461bcd60e51b815260206004820152601060248201526f14185d5cd8589b194e881c185d5cd95960821b604482015260640161082e565b6000806000806000610e7d87608001518860600151896000015161346b565b91509150600087602001519050600080610e9f8a606001518b60200151613566565b60408c015191935091506001600160a01b03161561110a576000925060008a604001516001600160a01b03166370a08231306040518263ffffffff1660e01b8152600401610eed91906138c9565b60206040518083038186803b158015610f0557600080fd5b505afa158015610f19573d6000803e3d6000fd5b505050506040513d601f19601f82011682018060405250810190610f3d9190614349565b9050600082848d60200151610f529190614316565b610f5c9190614316565b905081811115610fde5760a25460408d01516001600160a01b039091169063776062c3903330610f8c87876142bc565b6040518563ffffffff1660e01b8152600401610fab9493929190614362565b600060405180830381600087803b158015610fc557600080fd5b505af1158015610fd9573d6000803e3d6000fd5b505050505b6000610fed8d60000151613597565b905060008d604001516001600160a01b031663dd62ed3e83306040518363ffffffff1660e01b815260040161102392919061438c565b60206040518083038186803b15801561103b57600080fd5b505afa15801561104f573d6000803e3d6000fd5b505050506040513d601f19601f820116820180604052508101906110739190614349565b905082811015611105578d604001516001600160a01b031663095ea7b3836000196040518363ffffffff1660e01b81526004016110b19291906143a6565b602060405180830381600087803b1580156110cb57600080fd5b505af11580156110df573d6000803e3d6000fd5b505050506040513d601f19601f8201168201806040525081019061110391906143ca565b505b505050505b60028a51600781111561111f5761111f614300565b141561120457609a546040516000916001600160a01b0316908590611145908990614413565b60006040518083038185875af1925050503d8060008114611182576040519150601f19603f3d011682016040523d82523d6000602084013e611187565b606091505b5050905089156111b157806111ac576000806000985098509850505050505050611de8565b6111fe565b806111fe5760405162461bcd60e51b815260206004820152601b60248201527f507572636861736520536561506f72745f315f31206661696c65640000000000604482015260640161082e565b50611dcd565b60018a51600781111561121957611219614300565b14156112f3576099546040516000916001600160a01b031690859061123f908990614413565b60006040518083038185875af1925050503d806000811461127c576040519150601f19603f3d011682016040523d82523d6000602084013e611281565b606091505b5050905089156112a657806111ac576000806000985098509850505050505050611de8565b806111fe5760405162461bcd60e51b815260206004820152601b60248201527f507572636861736520536561506f72745f315f34206661696c65640000000000604482015260640161082e565b60068a51600781111561130857611308614300565b14156113e2576097546040516000916001600160a01b031690859061132e908990614413565b60006040518083038185875af1925050503d806000811461136b576040519150601f19603f3d011682016040523d82523d6000602084013e611370565b606091505b50509050891561139557806111ac576000806000985098509850505050505050611de8565b806111fe5760405162461bcd60e51b815260206004820152601b60248201527f50757263686173652047686f73744d61726b6574206661696c65640000000000604482015260640161082e565b60008a5160078111156113f7576113f7614300565b14156114cb576098546040516000916001600160a01b031690859061141d908990614413565b60006040518083038185875af1925050503d806000811461145a576040519150601f19603f3d011682016040523d82523d6000602084013e61145f565b606091505b50509050891561148457806111ac576000806000985098509850505050505050611de8565b806111fe5760405162461bcd60e51b8152602060048201526017602482015276141d5c98da185cd94814985c9a589b194819985a5b1959604a1b604482015260640161082e565b60038a5160078111156114e0576114e0614300565b1415611975576000858060200190518101906114fc919061492b565b9050891561158057609b5460405163357a150b60e01b81526001600160a01b039091169063357a150b908690611536908590600401614bdd565b6000604051808303818588803b15801561154f57600080fd5b505af193505050508015611561575060015b61157b576000806000985098509850505050505050611de8565b6115e5565b609b5460405163357a150b60e01b81526001600160a01b039091169063357a150b9086906115b2908590600401614bdd565b6000604051808303818588803b1580156115cb57600080fd5b505af11580156115df573d6000803e3d6000fd5b50505050505b60208101515160005b8181101561196d5760008360200151828151811061160e5761160e614290565b602002602001015160200151905060008460200151838151811061163457611634614290565b602002602001015160400151905060008560000151838151811061165a5761165a614290565b60200260200101516101000151828151811061167857611678614290565b602002602001015160200151905060008660000151848151811061169e5761169e614290565b602002602001015160e00151511180156116da57506000866020015185815181106116cb576116cb614290565b602002602001015160c0015151115b1561172c5761172c81876020015186815181106116f9576116f9614290565b602002602001015160c001518860000151868151811061171b5761171b614290565b602002602001015160e001516135e0565b855180518490811061174057611740614290565b602002602001015160800151600114156118215760008180602001905181019061176a9190614d99565b905060005b815181101561181a57600082828151811061178c5761178c614290565b6020026020010151905080600001516001600160a01b03166342842e0e306117b13390565b84602001516040518463ffffffff1660e01b81526004016117d493929190614e57565b600060405180830381600087803b1580156117ee57600080fd5b505af1158015611802573d6000803e3d6000fd5b505050505080806118129061432e565b91505061176f565b5050611959565b855180518490811061183557611835614290565b602002602001015160800151600214156119155760008180602001905181019061185f9190614e7b565b905060005b815181101561181a57600082828151811061188157611881614290565b6020026020010151905080600001516001600160a01b031663f242432a306118a63390565b846020015185604001516040518563ffffffff1660e01b81526004016118cf9493929190614f41565b600060405180830381600087803b1580156118e957600080fd5b505af11580156118fd573d6000803e3d6000fd5b5050505050808061190d9061432e565b915050611864565b60405162461bcd60e51b81526020600482015260196024820152783ab735b737bbb7103232b632b3b0ba32aa3cb832903c193c9960391b604482015260640161082e565b505050806119669061432e565b90506115ee565b505050611dcd565b60048a51600781111561198a5761198a614300565b1415611bb8576000806000878060200190518101906119a99190615097565b9250925092508b15611a3557609c54604051635a72594b60e11b81526001600160a01b039091169063b4e4b2969088906119e9908790879060040161517f565b6000604051808303818588803b158015611a0257600080fd5b505af193505050508015611a14575060015b611a305760008060009a509a509a505050505050505050611de8565b611a9c565b609c54604051635a72594b60e11b81526001600160a01b039091169063b4e4b296908890611a69908790879060040161517f565b6000604051808303818588803b158015611a8257600080fd5b505af1158015611a96573d6000803e3d6000fd5b50505050505b6001600160e01b031981166339d690a360e11b1415611b245760408201516001600160a01b03166342842e0e303385608001516040518463ffffffff1660e01b8152600401611aed93929190614e57565b600060405180830381600087803b158015611b0757600080fd5b505af1158015611b1b573d6000803e3d6000fd5b5050505061196d565b6001600160e01b0319811663025ceed960e61b1415611b7b57604082810151608084015160a08501519251637921219560e11b81526001600160a01b039092169263f242432a92611aed9230923392600401614f41565b60405162461bcd60e51b8152602060048201526012602482015271556e6b6e6f776e20746f6b656e207479706560701b604482015260640161082e565b60058a516007811115611bcd57611bcd614300565b1415611ca257609d546040516000916001600160a01b0316908590611bf3908990614413565b60006040518083038185875af1925050503d8060008114611c30576040519150601f19603f3d011682016040523d82523d6000602084013e611c35565b606091505b505090508915611c5a57806111ac576000806000985098509850505050505050611de8565b806111fe5760405162461bcd60e51b8152602060048201526018602482015277141d5c98da185cd94814dd591bd4ddd85c0819985a5b195960421b604482015260640161082e565b60078a516007811115611cb757611cb7614300565b1415611d8a57609e546040516000916001600160a01b0316908590611cdd908990614413565b60006040518083038185875af1925050503d8060008114611d1a576040519150601f19603f3d011682016040523d82523d6000602084013e611d1f565b606091505b505090508915611d4457806111ac576000806000985098509850505050505050611de8565b806111fe5760405162461bcd60e51b8152602060048201526016602482015275141d5c98da185cd948189b1d5c9a5bc819985a5b195960521b604482015260640161082e565b60405162461bcd60e51b8152602060048201526018602482015277556e6b6e6f776e2070757263686173652064657461696c7360401b604482015260640161082e565b611ddb848b6020015161368d565b6001975090955093505050505b9250925092565b600082118015611e0757506001600160a01b03811615155b15611e1657611e168183613731565b5050565b600082118015611e3257506001600160a01b03811615155b15611eb95760405163a9059cbb60e01b81526001600160a01b0384169063a9059cbb90611e6590849086906004016143a6565b602060405180830381600087803b158015611e7f57600080fd5b505af1158015611e93573d6000803e3d6000fd5b505050506040513d601f19601f82011682018060405250810190611eb791906143ca565b505b505050565b6040516370a0823160e01b81526000906001600160a01b038316906370a0823190611eed9030906004016138c9565b60206040518083038186803b158015611f0557600080fd5b505afa158015611f19573d6000803e3d6000fd5b505050506040513d601f19601f82011682018060405250810190611f3d9190614349565b90508015611e165760405163a9059cbb60e01b81526001600160a01b0383169063a9059cbb90611f7390339085906004016143a6565b602060405180830381600087803b158015611f8d57600080fd5b505af1158015611fa1573d6000803e3d6000fd5b505050506040513d601f19601f82011682018060405250810190611eb991906143ca565b478015610dbb57610dbb3382613731565b611fde6137e5565b6065805460ff191690557f5db9ee0a495bf2e6ff9c91a7834c1ba4fdd244a5e8aa4e537bd38aeae4b073aa335b60405161201891906138c9565b60405180910390a1565b600080826000015160008151811061203c5761203c614290565b6020026020010151905060008360000151600185600001515161205f91906142bc565b8151811061206f5761206f614290565b602090810291909101015160a2549091506001600160a01b031663776062c383333088604001516040518563ffffffff1660e01b81526004016120b59493929190614362565b600060405180830381600087803b1580156120cf57600080fd5b505af11580156120e3573d6000803e3d6000fd5b505060a1546001600160a01b038581169116149150508015612106575083608001515b156121855760a1546040808601519051632e1a7d4d60e01b81526001600160a01b0390921691632e1a7d4d916121429160040190815260200190565b600060405180830381600087803b15801561215c57600080fd5b505af192505050801561216d575060015b61217b575060009392505050565b5060019392505050565b6000341180156121a2575060a1546001600160a01b038281169116145b1561220b5760a160009054906101000a90046001600160a01b03166001600160a01b031663d0e30db0346040518263ffffffff1660e01b81526004016000604051808303818588803b1580156121f757600080fd5b505af19350505050801561216d575061217b565b609f54604051636eb1769f60e11b81526000916001600160a01b038086169263dd62ed3e92612240921690309060040161438c565b60206040518083038186803b15801561225857600080fd5b505afa15801561226c573d6000803e3d6000fd5b505050506040513d601f19601f820116820180604052508101906122909190614349565b9050846040015181101561232857609f5460405163095ea7b360e01b81526001600160a01b038581169263095ea7b3926122d49290911690600019906004016143a6565b602060405180830381600087803b1580156122ee57600080fd5b505af1158015612302573d6000803e3d6000fd5b505050506040513d601f19601f8201168201806040525081019061232691906143ca565b505b46600061a86a82148061233c57508161a869145b9050600047821561240a57609f5460208a01516040808c015160608d01518d519251636d3420ed60e01b81526000956001600160a01b031694636d3420ed9461238f949193919230904290600401615342565b600060405180830381600087803b1580156123a957600080fd5b505af11580156123bd573d6000803e3d6000fd5b505050506040513d6000823e601f3d908101601f191682016040526123e591908101906153ed565b9050806000815181106123fa576123fa614290565b60200260200101519250506124c2565b609f5460208a01516040808c01518c519151632512eca560e11b81526000946001600160a01b031693634a25d94a9361244b93919230904290600401615421565b600060405180830381600087803b15801561246557600080fd5b505af1158015612479573d6000803e3d6000fd5b505050506040513d6000823e601f3d908101601f191682016040526124a191908101906153ed565b9050806000815181106124b6576124b6614290565b60200260200101519250505b60408901514790831015612561576001600160a01b03881663a9059cbb33858d604001516124f091906142bc565b6040518363ffffffff1660e01b815260040161250d9291906143a6565b602060405180830381600087803b15801561252757600080fd5b505af115801561253b573d6000803e3d6000fd5b505050506040513d601f19601f8201168201806040525081019061255f91906143ca565b505b8960800151156125d75760a1546001600160a01b031663d0e30db061258684846142bc565b6040518263ffffffff1660e01b81526004016000604051808303818588803b1580156125b157600080fd5b505af1935050505080156125c3575060015b6125d7575060009998505050505050505050565b5060019998505050505050505050565b600080826000015160008151811061260157612601614290565b6020026020010151905060008360000151600185600001515161262491906142bc565b8151811061263457612634614290565b6020026020010151905034600014156127215760a2546001600160a01b031663776062c383333088604001516040518563ffffffff1660e01b815260040161267f9493929190614362565b600060405180830381600087803b15801561269957600080fd5b505af11580156126ad573d6000803e3d6000fd5b505060a1546040808801519051632e1a7d4d60e01b81526001600160a01b039092169350632e1a7d4d92506126e89160040190815260200190565b600060405180830381600087803b15801561270257600080fd5b505af1925050508015612713575060015b612721575060009392505050565b60003411801561273e575060a1546001600160a01b038281169116145b156128415760a160009054906101000a90046001600160a01b03166001600160a01b031663d0e30db0346040518263ffffffff1660e01b81526004016000604051808303818588803b15801561279357600080fd5b505af1935050505080156127a5575060015b6127b3575060009392505050565b604080850151905163a9059cbb60e01b81526001600160a01b0383169163a9059cbb916127e49133916004016143a6565b602060405180830381600087803b1580156127fe57600080fd5b505af1158015612812573d6000803e3d6000fd5b505050506040513d601f19601f8201168201806040525081019061283691906143ca565b506001949350505050565b46600061a86a82148061285557508161a869145b905080156128fe57609f54604080880151602089015160608a01518a519351630217ab2560e51b81526001600160a01b03909516946342f564a0946128a29392913090429060040161545d565b6000604051808303818588803b1580156128bb57600080fd5b505af11580156128cf573d6000803e3d6000fd5b50505050506040513d6000823e601f3d908101601f191682016040526128f891908101906153ed565b50612995565b609f5460408088015160208901518951925163fb3bdb4160e01b81526001600160a01b039094169363fb3bdb419361293d9291309042906004016154a6565b6000604051808303818588803b15801561295657600080fd5b505af115801561296a573d6000803e3d6000fd5b50505050506040513d6000823e601f3d908101601f1916820160405261299391908101906153ed565b505b50600195945050505050565b60008082600001516000815181106129bb576129bb614290565b602090810291909101015160a2549091506001600160a01b031663776062c382333087604001516040518563ffffffff1660e01b8152600401612a019493929190614362565b600060405180830381600087803b158015612a1b57600080fd5b505af1158015612a2f573d6000803e3d6000fd5b5050609f54604051636eb1769f60e11b8152600093506001600160a01b03808616935063dd62ed3e92612a6992911690309060040161438c565b60206040518083038186803b158015612a8157600080fd5b505afa158015612a95573d6000803e3d6000fd5b505050506040513d601f19601f82011682018060405250810190612ab99190614349565b90508360400151811015612b5157609f5460405163095ea7b360e01b81526001600160a01b038481169263095ea7b392612afd9290911690600019906004016143a6565b602060405180830381600087803b158015612b1757600080fd5b505af1158015612b2b573d6000803e3d6000fd5b505050506040513d601f19601f82011682018060405250810190612b4f91906143ca565b505b46600061a86a821480612b6557508161a869145b905060008115612c3257609f5460208801516040808a015160608b01518b51925163a7b856d360e01b81526000956001600160a01b03169463a7b856d394612bb7949193919230904290600401615342565b600060405180830381600087803b158015612bd157600080fd5b505af1158015612be5573d6000803e3d6000fd5b505050506040513d6000823e601f3d908101601f19168201604052612c0d91908101906153ed565b905080600081518110612c2257612c22614290565b6020026020010151915050612cea565b609f5460208801516040808a01518a519151634401edf760e11b81526000946001600160a01b031693638803dbee93612c7393919230904290600401615421565b600060405180830381600087803b158015612c8d57600080fd5b505af1158015612ca1573d6000803e3d6000fd5b505050506040513d6000823e601f3d908101601f19168201604052612cc991908101906153ed565b905080600081518110612cde57612cde614290565b60200260200101519150505b8660400151811015612d87576001600160a01b03851663a9059cbb33838a60400151612d1691906142bc565b6040518363ffffffff1660e01b8152600401612d339291906143a6565b602060405180830381600087803b158015612d4d57600080fd5b505af1158015612d61573d6000803e3d6000fd5b505050506040513d601f19601f82011682018060405250810190612d8591906143ca565b505b5060019695505050505050565b603380546001600160a01b038381166001600160a01b0319831681179093556040519116919082907f8be0079c531659141344cd1fd0a4f28419497f9722a3daafe3b4186f6b6457e090600090a35050565b612dee610e18565b6065805460ff191660011790557f62e78cea01bee320cd4e420270b5ea74000d11b0c9f74754ebdbfc544b05a25861200b3390565b60008060008084600001519050600060148251612e4091906142bc565b9050600160601b81602084010151049350600160601b60006020840101510492503460001415612ed55760a2546001600160a01b031663776062c38533308a604001516040518563ffffffff1660e01b8152600401612ea29493929190614362565b600060405180830381600087803b158015612ebc57600080fd5b505af1158015612ed0573d6000803e3d6000fd5b505050505b60a1546001600160a01b038581169116148015612ef3575085606001515b15612f6a5760a1546020870151604051632e1a7d4d60e01b81526001600160a01b0390921691632e1a7d4d91612f2f9160040190815260200190565b600060405180830381600087803b158015612f4957600080fd5b505af1925050508015612f5a575060015b6129955750600095945050505050565b600034118015612f87575060a1546001600160a01b038481169116145b15612ff05760a160009054906101000a90046001600160a01b03166001600160a01b031663d0e30db0346040518263ffffffff1660e01b81526004016000604051808303818588803b158015612fdc57600080fd5b505af193505050508015612f5a5750612995565b60a054604051636eb1769f60e11b81526000916001600160a01b038088169263dd62ed3e92613025921690309060040161438c565b60206040518083038186803b15801561303d57600080fd5b505afa158015613051573d6000803e3d6000fd5b505050506040513d601f19601f820116820180604052508101906130759190614349565b9050866040015181101561310d5760a05460405163095ea7b360e01b81526001600160a01b038781169263095ea7b3926130b99290911690600019906004016143a6565b602060405180830381600087803b1580156130d357600080fd5b505af11580156130e7573d6000803e3d6000fd5b505050506040513d601f19601f8201168201806040525081019061310b91906143ca565b505b6040805160a08082018352895182523060208084019190915242838501528a01516060830152898301516080830152549151631e51809360e31b815290916000916001600160a01b039091169063f28c04989034906131709086906004016154db565b6020604051808303818588803b15801561318957600080fd5b505af1935050505080156131ba575060408051601f3d908101601f191682019092526131b791810190614349565b60015b6131cd5750600098975050505050505050565b905060a060009054906101000a90046001600160a01b03166001600160a01b03166312210e8a6040518163ffffffff1660e01b8152600401600060405180830381600087803b15801561321f57600080fd5b505af1158015613233573d6000803e3d6000fd5b505050508860600151156132b65760a15460208a0151604051632e1a7d4d60e01b81526001600160a01b0390921691632e1a7d4d916132789160040190815260200190565b600060405180830381600087803b15801561329257600080fd5b505af19250505080156132a3575060015b6132b65750600098975050505050505050565b88604001518110156133585734613358576001600160a01b03871663a9059cbb33838c604001516132e791906142bc565b6040518363ffffffff1660e01b81526004016133049291906143a6565b602060405180830381600087803b15801561331e57600080fd5b505af1158015613332573d6000803e3d6000fd5b505050506040513d601f19601f8201168201806040525081019061335691906143ca565b505b50600198975050505050505050565b600054610100900460ff166107605760405162461bcd60e51b815260040161082e90615533565b600054610100900460ff166133b55760405162461bcd60e51b815260040161082e90615533565b61076033612d94565b600054610100900460ff166133e55760405162461bcd60e51b815260040161082e90615533565b6065805460ff19169055565b805160005b81811015611eb95760006001600160a01b031683828151811061341b5761341b614290565b6020026020010151604001516001600160a01b03161461345b5761345b83828151811061344a5761344a614290565b602002602001015160400151611ebe565b6134648161432e565b90506133f6565b6060806000602085901c61ffff16600181111561348a5761348a614300565b9050606060008260018111156134a2576134a2614300565b14156134b457869350915061355e9050565b60018260018111156134c8576134c8614300565b1415613516576000878060200190518101906134e4919061557e565b90506134ef8661382e565b1561350a57806000015181602001519450945050505061355e565b519350915061355e9050565b60405162461bcd60e51b815260206004820152601a60248201527f756e6b6e6f776e206164646974696f6e616c4461746154797065000000000000604482015260640161082e565b935093915050565b60008061ffff601085901c81169085166135808583613876565b61358a8683613876565b9350935050509250929050565b600060a360008360078111156135af576135af614300565b60078111156135c0576135c0614300565b81526020810191909152604001600020546001600160a01b031692915050565b81518351146135ee57600080fd5b80518351146135fc57600080fd5b825160005b818110156136865782818151811061361b5761361b614290565b01602001516001600160f81b031916156136765783818151811061364157613641614290565b602001015160f81c60f81b85828151811061365e5761365e614290565b60200101906001600160f81b031916908160001a9053505b61367f8161432e565b9050613601565b5050505050565b815160005b81811015611eb75760008482815181106136ae576136ae614290565b602002602001015111156137215760008482815181106136d0576136d0614290565b60200260200101519050600060a08684815181106136f0576136f0614290565b6020026020010151901c90506000613711828761387690919063ffffffff16565b905061371d8184611def565b5050505b61372a8161432e565b9050613692565b6000826001600160a01b03168260405160006040518083038185875af1925050503d806000811461377e576040519150601f19603f3d011682016040523d82523d6000602084013e613783565b606091505b5050905080611eb95760405162461bcd60e51b815260206004820152602860248201527f4c69625472616e73666572204261736543757272656e6379207472616e7366656044820152671c8819985a5b195960c21b606482015260840161082e565b60655460ff166107605760405162461bcd60e51b815260206004820152601460248201527314185d5cd8589b194e881b9bdd081c185d5cd95960621b604482015260640161082e565b6000600582600781111561384457613844614300565b14806138615750600482600781111561385f5761385f614300565b145b1561386e57506001919050565b506000919050565b6000612710613885838561560e565b61388f919061562d565b9392505050565b6001600160e01b031981168114610dbb57600080fd5b6000602082840312156138be57600080fd5b813561388f81613896565b6001600160a01b0391909116815260200190565b6001600160a01b0381168114610dbb57600080fd5b634e487b7160e01b600052604160045260246000fd5b60405160a081016001600160401b038111828210171561392a5761392a6138f2565b60405290565b604051608081016001600160401b038111828210171561392a5761392a6138f2565b604080519081016001600160401b038111828210171561392a5761392a6138f2565b6040516101a081016001600160401b038111828210171561392a5761392a6138f2565b60405161016081016001600160401b038111828210171561392a5761392a6138f2565b60405160c081016001600160401b038111828210171561392a5761392a6138f2565b604051606081016001600160401b038111828210171561392a5761392a6138f2565b60405161020081016001600160401b038111828210171561392a5761392a6138f2565b604051601f8201601f191681016001600160401b0381118282101715613a4957613a496138f2565b604052919050565b60006001600160401b03821115613a6a57613a6a6138f2565b50601f01601f191660200190565b600082601f830112613a8957600080fd5b8135613a9c613a9782613a51565b613a21565b818152846020838601011115613ab157600080fd5b816020850160208301376000918101602001919091529392505050565b60008060008060808587031215613ae457600080fd5b8435613aef816138dd565b93506020850135613aff816138dd565b92506040850135915060608501356001600160401b03811115613b2157600080fd5b613b2d87828801613a78565b91505092959194509250565b600060208284031215613b4b57600080fd5b813561388f816138dd565b60088110610dbb57600080fd5b600060a08284031215613b7557600080fd5b60405160a081016001600160401b038282108183111715613b9857613b986138f2565b8160405282935084359150613bac82613b56565b8183526020850135602084015260408501359150613bc9826138dd565b816040840152606085013560608401526080850135915080821115613bed57600080fd5b50613bfa85828601613a78565b6080830152505092915050565b600080600060608486031215613c1c57600080fd5b83356001600160401b03811115613c3257600080fd5b613c3e86828701613b63565b9350506020840135613c4f816138dd565b91506040840135613c5f816138dd565b809150509250925092565b6001600160a01b03169052565b60006001600160401b03821115613c9057613c906138f2565b5060051b60200190565b600082601f830112613cab57600080fd5b81356020613cbb613a9783613c77565b82815260059290921b84018101918181019086841115613cda57600080fd5b8286015b84811015613d195780356001600160401b03811115613cfd5760008081fd5b613d0b8986838b0101613b63565b845250918301918301613cde565b509695505050505050565b8015158114610dbb57600080fd5b8035613d3d81613d24565b919050565b600082601f830112613d5357600080fd5b81356020613d63613a9783613c77565b82815260059290921b84018101918181019086841115613d8257600080fd5b8286015b84811015613d195780358352918301918301613d86565b600080600080600060a08688031215613db557600080fd5b85356001600160401b0380821115613dcc57600080fd5b613dd889838a01613c9a565b96506020915081880135613deb816138dd565b95506040880135613dfb816138dd565b94506060880135613e0b81613d24565b9350608088013581811115613e1f57600080fd5b880160a0818b031215613e3157600080fd5b613e39613908565b813583811115613e4857600080fd5b8201601f81018c13613e5957600080fd5b8035613e67613a9782613c77565b81815260059190911b8201860190868101908e831115613e8657600080fd5b928701925b82841015613ead578335613e9e816138dd565b82529287019290870190613e8b565b808552505050508382013584820152604082013560408201526060820135935082841115613eda57600080fd5b613ee68b858401613d42565b6060820152613ef760808301613d32565b6080820152809450505050509295509295909350565b60008060408385031215613f2057600080fd5b8235613f2b81613b56565b91506020830135613f3b816138dd565b809150509250929050565b600080600080600060a08688031215613f5e57600080fd5b85356001600160401b0380821115613f7557600080fd5b613f8189838a01613c9a565b965060208801359150613f93826138dd565b909450604087013590613fa5826138dd565b909350606087013590613fb782613d24565b90925060808701359080821115613fcd57600080fd5b908701906080828a031215613fe157600080fd5b613fe9613930565b823582811115613ff857600080fd5b6140048b828601613a78565b82525060208301356020820152604083013560408201526060830135925061402b83613d24565b8260608201528093505050509295509295909350565b60006020828403121561405357600080fd5b813561388f81613b56565b600080600080600080600080610100898b03121561407b57600080fd5b8835614086816138dd565b97506020890135614096816138dd565b965060408901356140a6816138dd565b955060608901356140b6816138dd565b945060808901356140c6816138dd565b935060a08901356140d6816138dd565b925060c08901356140e6816138dd565b915060e08901356140f6816138dd565b809150509295985092959890939650565b600080600080600060a0868803121561411f57600080fd5b853561412a816138dd565b9450602086013561413a816138dd565b935060408601356001600160401b038082111561415657600080fd5b61416289838a01613d42565b9450606088013591508082111561417857600080fd5b61418489838a01613d42565b9350608088013591508082111561419a57600080fd5b506141a788828901613a78565b9150509295509295909350565b600080600080608085870312156141ca57600080fd5b84356001600160401b038111156141e057600080fd5b6141ec87828801613c9a565b94505060208501356141fd816138dd565b9250604085013561420d816138dd565b9150606085013561421d81613d24565b939692955090935050565b600080600080600060a0868803121561424057600080fd5b853561424b816138dd565b9450602086013561425b816138dd565b9350604086013592506060860135915060808601356001600160401b0381111561428457600080fd5b6141a788828901613a78565b634e487b7160e01b600052603260045260246000fd5b634e487b7160e01b600052601160045260246000fd5b6000828210156142ce576142ce6142a6565b500390565b6020808252601390820152721cddd85c081b9bdd081cdd58d8d95cdcd99d5b606a1b604082015260600190565b634e487b7160e01b600052602160045260246000fd5b60008219821115614329576143296142a6565b500190565b6000600019821415614342576143426142a6565b5060010190565b60006020828403121561435b57600080fd5b5051919050565b6001600160a01b039485168152928416602084015292166040820152606081019190915260800190565b6001600160a01b0392831681529116602082015260400190565b6001600160a01b03929092168252602082015260400190565b8051613d3d81613d24565b6000602082840312156143dc57600080fd5b815161388f81613d24565b60005b838110156144025781810151838201526020016143ea565b83811115611eb75750506000910152565b600082516144258184602087016143e7565b9190910192915050565b8051613d3d816138dd565b600082601f83011261444b57600080fd5b8151614459613a9782613a51565b81815284602083860101111561446e57600080fd5b61447f8260208301602087016143e7565b949350505050565b600082601f83011261449857600080fd5b815160206144a8613a9783613c77565b82815260059290921b840181019181810190868411156144c757600080fd5b8286015b84811015613d195780516001600160401b03808211156144eb5760008081fd5b908801906040828b03601f19018113156145055760008081fd5b61450d613952565b8388015181529083015190828211156145265760008081fd5b6145348c898487010161443a565b8189015286525050509183019183016144cb565b805160ff81168114613d3d57600080fd5b600082601f83011261456a57600080fd5b8151602061457a613a9783613c77565b82815260059290921b8401810191818101908684111561459957600080fd5b8286015b84811015613d195780516001600160401b03808211156145bd5760008081fd5b908801906101a0828b03601f19018113156145d85760008081fd5b6145e0613974565b87840151815260406145f381860161442f565b89830152606080860151828401526080915081860151818401525060a0808601518284015260c0915081860151818401525060e061463281870161442f565b828401526101009150818601518581111561464d5760008081fd5b61465b8f8c838a010161443a565b82850152505061012080860151858111156146765760008081fd5b6146848f8c838a0101614487565b8385015250610140945084860151818401525050610160808501518483015261018093506146b3848601614548565b908201526146c2848301614548565b928101929092525084525091830191830161459d565b8051613d3d81613b56565b600082601f8301126146f457600080fd5b81516020614704613a9783613c77565b82815260069290921b8401810191818101908684111561472357600080fd5b8286015b84811015613d1957604081890312156147405760008081fd5b614748613952565b8151815284820151614759816138dd565b81860152835291830191604001614727565b600082601f83011261477c57600080fd5b8151602061478c613a9783613c77565b82815260059290921b840181019181810190868411156147ab57600080fd5b8286015b84811015613d195780516001600160401b03808211156147cf5760008081fd5b90880190610160828b03601f19018113156147ea5760008081fd5b6147f2613997565b6147fd8885016146d8565b815260408085015189830152606080860151828401526080915081860151818401525060a0808601518284015260c0915061483982870161442f565b9083015260e085810151858111156148515760008081fd5b61485f8f8c838a010161443a565b83850152506101009150818601518184015250610120808601518284015261014091508186015181840152508285015192508383111561489f5760008081fd5b6148ad8d8a858801016146e3565b9082015286525050509183019183016147af565b600060c082840312156148d357600080fd5b6148db6139ba565b905081518152602082015160208201526040820151604082015260608201516060820152608082015161490d816138dd565b608082015260a082015161492081613d24565b60a082015292915050565b60006020828403121561493d57600080fd5b81516001600160401b038082111561495457600080fd5b90830190610160828603121561496957600080fd5b6149716139ba565b82518281111561498057600080fd5b61498c87828601614559565b8252506020830151828111156149a157600080fd5b6149ad8782860161476b565b6020830152506149c086604085016148c1565b6040820152610100830151606082015261012083015160808201526149e86101408401614548565b60a082015295945050505050565b60008151808452614a0e8160208601602086016143e7565b601f01601f19169290920160200192915050565b600081518084526020808501808196508360051b8101915082860160005b85811015614a7e5782840389528151805185528501516040868601819052614a6a818701836149f6565b9a87019a9550505090840190600101614a40565b5091979650505050505050565b60088110614aa957634e487b7160e01b600052602160045260246000fd5b9052565b600081518084526020808501945080840160005b83811015614af1578151805188528301516001600160a01b03168388015260409096019590820190600101614ac1565b509495945050505050565b600081518084526020808501808196508360051b8101915082860160005b85811015614a7e5782840389528151610160614b37868351614a8b565b818701518688015260408083015190870152606080830151908701526080808301519087015260a080830151614b6f82890182613c6a565b505060c0808301518282890152614b88838901826149f6565b60e085810151908a015261010080860151908a015261012080860151908a015261014094850151898203958a01959095529250614bc9915082905083614aad565b9a87019a9550505090840190600101614b1a565b60006020808352610180808401855161016080858801528282518085526101a094508489019150848160051b8a0101878501945060005b82811015614cf8578a820361019f1901845285518051835289810151614c3c8b850182613c6a565b5060408181015190840152606080820151908401526080808201519084015260a0808201519084015260c080820151614c7782860182613c6a565b505060e0808201518982860152614c908a8601826149f6565b9150506101008083015185830382870152614cab8382614a22565b9250505061012080830151818601525061014080830151818601525086820151614cd98886018260ff169052565b509089015160ff16928901929092529488019492880192600101614c14565b50968a0151898803601f190160408b015296614d148189614afc565b975050505060408801519350614d6a6060880185805182526020808201519083015260408082015190830152606080820151908301526080808201516001600160a01b03169083015260a0908101511515910152565b6060880151610120880152608088015161014088015260a09097015160ff169690950195909552509392505050565b60006020808385031215614dac57600080fd5b82516001600160401b03811115614dc257600080fd5b8301601f81018513614dd357600080fd5b8051614de1613a9782613c77565b81815260069190911b82018301908381019087831115614e0057600080fd5b928401925b82841015614e4c5760408489031215614e1e5760008081fd5b614e26613952565b8451614e31816138dd565b81528486015186820152825260409093019290840190614e05565b979650505050505050565b6001600160a01b039384168152919092166020820152604081019190915260600190565b60006020808385031215614e8e57600080fd5b82516001600160401b03811115614ea457600080fd5b8301601f81018513614eb557600080fd5b8051614ec3613a9782613c77565b81815260609182028301840191848201919088841115614ee257600080fd5b938501935b83851015614f355780858a031215614eff5760008081fd5b614f076139dc565b8551614f12816138dd565b815285870151878201526040808701519082015283529384019391850191614ee7565b50979650505050505050565b6001600160a01b0394851681529290931660208301526040820152606081019190915260a06080820181905260009082015260c00190565b60006102008284031215614f8c57600080fd5b614f946139fe565b9050614f9f826143bf565b8152614fad6020830161442f565b6020820152614fbe6040830161442f565b6040820152606082015160608201526080820151608082015260a082015160a0820152614fed60c0830161442f565b60c0820152614ffe60e0830161442f565b60e08201526101008281015190820152610120808301519082015261014080830151908201526101608083015190820152610180808301516001600160401b0381111561504a57600080fd5b6150568582860161443a565b8284015250506101a061506a818401614548565b908201526101c082810151908201526101e09182015191810191909152919050565b8051613d3d81613896565b6000806000606084860312156150ac57600080fd5b83516001600160401b03808211156150c357600080fd5b9085019060c082880312156150d757600080fd5b6150df6139ba565b82516150ea81613d24565b815260208301516150fa816138dd565b8060208301525060408301516040820152606083015160608201526080830151608082015260a08301518281111561513157600080fd5b61513d8982860161443a565b60a083015250602087015190955091508082111561515a57600080fd5b5061516786828701614f79565b9250506151766040850161508c565b90509250925092565b60408152600061010084511515604084015260018060a01b03602086015116606084015260408501516080840152606085015160a0840152608085015160c084015260a085015160c060e08501526151d9828501826149f6565b8481036020860152855115158152905061020060208601516151fe6020840182613c6a565b5060408601516152116040840182613c6a565b50606086015160608301526080860151608083015260a086015160a083015260c086015161524260c0840182613c6a565b5060e086015161525560e0840182613c6a565b5085830151928201929092526101208086015190820152610140808601519082015261016080860151908201526101808086015181830184905290929061529e828401826149f6565b935050506101a0808601516152b78284018260ff169052565b50506101c085810151908201526101e094850151940193909352509092915050565b600081518084526020808501945080840160005b83811015614af1578151875295820195908201906001016152ed565b600081518084526020808501945080840160005b83811015614af15781516001600160a01b03168752958201959082019060010161531d565b86815285602082015260c06040820152600061536160c08301876152d9565b82810360608401526153738187615309565b6001600160a01b03959095166080840152505060a00152949350505050565b600082601f8301126153a357600080fd5b815160206153b3613a9783613c77565b82815260059290921b840181019181810190868411156153d257600080fd5b8286015b84811015613d1957805183529183019183016153d6565b6000602082840312156153ff57600080fd5b81516001600160401b0381111561541557600080fd5b61447f84828501615392565b85815284602082015260a06040820152600061544060a0830186615309565b6001600160a01b0394909416606083015250608001529392505050565b85815260a06020820152600061547660a08301876152d9565b82810360408401526154888187615309565b6001600160a01b039590951660608401525050608001529392505050565b8481526080602082015260006154bf6080830186615309565b6001600160a01b03949094166040830152506060015292915050565b602081526000825160a060208401526154f760c08401826149f6565b905060018060a01b0360208501511660408401526040840151606084015260608401516080840152608084015160a08401528091505092915050565b6020808252602b908201527f496e697469616c697a61626c653a20636f6e7472616374206973206e6f74206960408201526a6e697469616c697a696e6760a81b606082015260800190565b60006020828403121561559057600080fd5b81516001600160401b03808211156155a757600080fd5b90830190604082860312156155bb57600080fd5b6155c3613952565b8251828111156155d257600080fd5b6155de8782860161443a565b8252506020830151828111156155f357600080fd5b6155ff87828601615392565b60208301525095945050505050565b6000816000190483118215151615615628576156286142a6565b500290565b60008261564a57634e487b7160e01b600052601260045260246000fd5b50049056fea264697066735822122013952a1e5d2d0e49bd3bccdbb94eb0aad751ab63e543c1c5d237dd0f5acd4fee64736f6c63430008090033",
  "devdoc": {
    "kind": "dev",
    "methods": {
      "bulkPurchase((uint8,uint256,address,uint256,bytes)[],address,address,bool)": {
        "params": {
          "allowFail": "- true if fails while executing orders are allowed, false if fail of a single order means fail of the whole batch",
          "feeRecipientFirst": "- address of the first fee recipient",
          "feeRecipientSecond": "- address of the second fee recipient",
          "purchaseDetails": "- array of details about the purchases (more info in PurchaseDetails struct)"
        }
      },
      "bulkPurchaseWithSwap((uint8,uint256,address,uint256,bytes)[],address,address,bool,(bytes,uint256,uint256,bool))": {
        "params": {
          "allowFail": "- true if fails while executing orders are allowed, false if fail of a single order means fail of the whole batch",
          "feeRecipientFirst": "- address of the first fee recipient",
          "feeRecipientSecond": "- address of the second fee recipient",
          "purchaseDetails": "- array of details about the purchases (more info in PurchaseDetails struct)",
          "swapDetails": "- swapDetails v3"
        }
      },
      "bulkPurchaseWithV2Swap((uint8,uint256,address,uint256,bytes)[],address,address,bool,(address[],uint256,uint256,uint256[],bool))": {
        "params": {
          "allowFail": "- true if fails while executing orders are allowed, false if fail of a single order means fail of the whole batch",
          "feeRecipientFirst": "- address of the first fee recipient",
          "feeRecipientSecond": "- address of the second fee recipient",
          "purchaseDetails": "- array of details about the purchases (more info in PurchaseDetails struct)",
          "swapDetails": "- swapDetails v2"
        }
      },
      "onERC721Received(address,address,uint256,bytes)": {
        "details": "See {IERC721Receiver-onERC721Received}. Always returns `IERC721Receiver.onERC721Received.selector`."
      },
      "owner()": {
        "details": "Returns the address of the current owner."
      },
      "paused()": {
        "details": "Returns true if the contract is paused, and false otherwise."
      },
      "renounceOwnership()": {
        "details": "Leaves the contract without owner. It will not be possible to call `onlyOwner` functions anymore. Can only be called by the current owner. NOTE: Renouncing ownership will leave the contract without an owner, thereby removing any functionality that is only available to the owner."
      },
      "singlePurchase((uint8,uint256,address,uint256,bytes),address,address)": {
        "params": {
          "feeRecipientFirst": "- address of the first fee recipient",
          "feeRecipientSecond": "- address of the second fee recipient",
          "purchaseDetails": "- details about the purchase (more info in PurchaseDetails struct)"
        }
      },
      "supportsInterface(bytes4)": {
        "details": "See {IERC165-supportsInterface}."
      },
      "transferOwnership(address)": {
        "details": "Transfers ownership of the contract to a new account (`newOwner`). Can only be called by the current owner."
      }
    },
    "version": 1
  },
  "userdoc": {
    "kind": "user",
    "methods": {
      "bulkPurchase((uint8,uint256,address,uint256,bytes)[],address,address,bool)": {
        "notice": "executes an array of purchases"
      },
      "bulkPurchaseWithSwap((uint8,uint256,address,uint256,bytes)[],address,address,bool,(bytes,uint256,uint256,bool))": {
        "notice": "executes an array of purchases - with swap v3"
      },
      "bulkPurchaseWithV2Swap((uint8,uint256,address,uint256,bytes)[],address,address,bool,(address[],uint256,uint256,uint256[],bool))": {
        "notice": "executes an array of purchases - with swap v2 - tokens for tokens or tokens for eth/weth"
      },
      "pause()": {
        "notice": "Pause the contract"
      },
      "setMarketProxy(uint8,address)": {
        "notice": "Set erc20 proxy for market"
      },
      "setSeaport(address)": {
        "notice": "set seaport 1.4 - temporary to remove"
      },
      "setTransferProxy(address)": {
        "notice": "Set erc20 transfer proxy"
      },
      "setUniswapV2(address)": {
        "notice": "Set uniswap v2 router"
      },
      "setUniswapV3(address)": {
        "notice": "Set uniswap v3 router"
      },
      "setWrapped(address)": {
        "notice": "Set wrapped token"
      },
      "singlePurchase((uint8,uint256,address,uint256,bytes),address,address)": {
        "notice": "executes a single purchase"
      },
      "unpause()": {
        "notice": "Unpause the contract"
      }
    },
    "version": 1
  },
  "storageLayout": {
    "storage": [
      {
        "astId": 721,
        "contract": "src/exchange-wrapper/ExchangeWrapper.sol:ExchangeWrapper",
        "label": "_initialized",
        "offset": 0,
        "slot": "0",
        "type": "t_uint8"
      },
      {
        "astId": 724,
        "contract": "src/exchange-wrapper/ExchangeWrapper.sol:ExchangeWrapper",
        "label": "_initializing",
        "offset": 1,
        "slot": "0",
        "type": "t_bool"
      },
      {
        "astId": 4842,
        "contract": "src/exchange-wrapper/ExchangeWrapper.sol:ExchangeWrapper",
        "label": "__gap",
        "offset": 0,
        "slot": "1",
        "type": "t_array(t_uint256)50_storage"
      },
      {
        "astId": 593,
        "contract": "src/exchange-wrapper/ExchangeWrapper.sol:ExchangeWrapper",
        "label": "_owner",
        "offset": 0,
        "slot": "51",
        "type": "t_address"
      },
      {
        "astId": 713,
        "contract": "src/exchange-wrapper/ExchangeWrapper.sol:ExchangeWrapper",
        "label": "__gap",
        "offset": 0,
        "slot": "52",
        "type": "t_array(t_uint256)49_storage"
      },
      {
        "astId": 886,
        "contract": "src/exchange-wrapper/ExchangeWrapper.sol:ExchangeWrapper",
        "label": "_paused",
        "offset": 0,
        "slot": "101",
        "type": "t_bool"
      },
      {
        "astId": 991,
        "contract": "src/exchange-wrapper/ExchangeWrapper.sol:ExchangeWrapper",
        "label": "__gap",
        "offset": 0,
        "slot": "102",
        "type": "t_array(t_uint256)49_storage"
      },
      {
        "astId": 11538,
        "contract": "src/exchange-wrapper/ExchangeWrapper.sol:ExchangeWrapper",
        "label": "exchangeV2",
        "offset": 0,
        "slot": "151",
        "type": "t_address"
      },
      {
        "astId": 11540,
        "contract": "src/exchange-wrapper/ExchangeWrapper.sol:ExchangeWrapper",
        "label": "rarible",
        "offset": 0,
        "slot": "152",
        "type": "t_address"
      },
      {
        "astId": 11542,
        "contract": "src/exchange-wrapper/ExchangeWrapper.sol:ExchangeWrapper",
        "label": "seaport_1_4",
        "offset": 0,
        "slot": "153",
        "type": "t_address"
      },
      {
        "astId": 11544,
        "contract": "src/exchange-wrapper/ExchangeWrapper.sol:ExchangeWrapper",
        "label": "seaport_1_1",
        "offset": 0,
        "slot": "154",
        "type": "t_address"
      },
      {
        "astId": 11546,
        "contract": "src/exchange-wrapper/ExchangeWrapper.sol:ExchangeWrapper",
        "label": "x2y2",
        "offset": 0,
        "slot": "155",
        "type": "t_address"
      },
      {
        "astId": 11548,
        "contract": "src/exchange-wrapper/ExchangeWrapper.sol:ExchangeWrapper",
        "label": "looksrare",
        "offset": 0,
        "slot": "156",
        "type": "t_address"
      },
      {
        "astId": 11550,
        "contract": "src/exchange-wrapper/ExchangeWrapper.sol:ExchangeWrapper",
        "label": "sudoswap",
        "offset": 0,
        "slot": "157",
        "type": "t_address"
      },
      {
        "astId": 11552,
        "contract": "src/exchange-wrapper/ExchangeWrapper.sol:ExchangeWrapper",
        "label": "blur",
        "offset": 0,
        "slot": "158",
        "type": "t_address"
      },
      {
        "astId": 11555,
        "contract": "src/exchange-wrapper/ExchangeWrapper.sol:ExchangeWrapper",
        "label": "uniswapRouterV2",
        "offset": 0,
        "slot": "159",
        "type": "t_contract(ISwapRouterV2)14556"
      },
      {
        "astId": 11558,
        "contract": "src/exchange-wrapper/ExchangeWrapper.sol:ExchangeWrapper",
        "label": "uniswapRouterV3",
        "offset": 0,
        "slot": "160",
        "type": "t_contract(ISwapRouterV3)14606"
      },
      {
        "astId": 11560,
        "contract": "src/exchange-wrapper/ExchangeWrapper.sol:ExchangeWrapper",
        "label": "wrappedToken",
        "offset": 0,
        "slot": "161",
        "type": "t_address"
      },
      {
        "astId": 11562,
        "contract": "src/exchange-wrapper/ExchangeWrapper.sol:ExchangeWrapper",
        "label": "erc20TransferProxy",
        "offset": 0,
        "slot": "162",
        "type": "t_address"
      },
      {
        "astId": 11567,
        "contract": "src/exchange-wrapper/ExchangeWrapper.sol:ExchangeWrapper",
        "label": "proxies",
        "offset": 0,
        "slot": "163",
        "type": "t_mapping(t_enum(Markets)11582,t_address)"
      }
    ],
    "types": {
      "t_address": {
        "encoding": "inplace",
        "label": "address",
        "numberOfBytes": "20"
      },
      "t_array(t_uint256)49_storage": {
        "base": "t_uint256",
        "encoding": "inplace",
        "label": "uint256[49]",
        "numberOfBytes": "1568"
      },
      "t_array(t_uint256)50_storage": {
        "base": "t_uint256",
        "encoding": "inplace",
        "label": "uint256[50]",
        "numberOfBytes": "1600"
      },
      "t_bool": {
        "encoding": "inplace",
        "label": "bool",
        "numberOfBytes": "1"
      },
      "t_contract(ISwapRouterV2)14556": {
        "encoding": "inplace",
        "label": "contract ISwapRouterV2",
        "numberOfBytes": "20"
      },
      "t_contract(ISwapRouterV3)14606": {
        "encoding": "inplace",
        "label": "contract ISwapRouterV3",
        "numberOfBytes": "20"
      },
      "t_enum(Markets)11582": {
        "encoding": "inplace",
        "label": "enum ExchangeWrapperCore.Markets",
        "numberOfBytes": "1"
      },
      "t_mapping(t_enum(Markets)11582,t_address)": {
        "encoding": "mapping",
        "key": "t_enum(Markets)11582",
        "label": "mapping(enum ExchangeWrapperCore.Markets => address)",
        "numberOfBytes": "32",
        "value": "t_address"
      },
      "t_uint256": {
        "encoding": "inplace",
        "label": "uint256",
        "numberOfBytes": "32"
      },
      "t_uint8": {
        "encoding": "inplace",
        "label": "uint8",
        "numberOfBytes": "1"
      }
    }
  }
}