{
  "address": "0x99AEECF3717ec6B369d847e3D62d14e14251e4d4",
  "abi": [
    {
      "anonymous": false,
      "inputs": [
        {
          "indexed": true,
          "internalType": "address",
          "name": "previousOwner",
          "type": "address"
        },
        {
          "indexed": true,
          "internalType": "address",
          "name": "newOwner",
          "type": "address"
        }
      ],
      "name": "OwnershipTransferred",
      "type": "event"
    },
    {
      "inputs": [],
      "name": "__OperatorRole_init",
      "outputs": [],
      "stateMutability": "nonpayable",
      "type": "function"
    },
    {
      "inputs": [
        {
          "internalType": "address",
          "name": "operator",
          "type": "address"
        }
      ],
      "name": "addOperator",
      "outputs": [],
      "stateMutability": "nonpayable",
      "type": "function"
    },
    {
      "inputs": [],
      "name": "owner",
      "outputs": [
        {
          "internalType": "address",
          "name": "",
          "type": "address"
        }
      ],
      "stateMutability": "view",
      "type": "function"
    },
    {
      "inputs": [
        {
          "internalType": "address",
          "name": "operator",
          "type": "address"
        }
      ],
      "name": "removeOperator",
      "outputs": [],
      "stateMutability": "nonpayable",
      "type": "function"
    },
    {
      "inputs": [],
      "name": "renounceOwnership",
      "outputs": [],
      "stateMutability": "nonpayable",
      "type": "function"
    },
    {
      "inputs": [
        {
          "components": [
            {
              "components": [
                {
                  "internalType": "bytes4",
                  "name": "assetClass",
                  "type": "bytes4"
                },
                {
                  "internalType": "bytes",
                  "name": "data",
                  "type": "bytes"
                }
              ],
              "internalType": "struct LibAsset.AssetType",
              "name": "assetType",
              "type": "tuple"
            },
            {
              "internalType": "uint256",
              "name": "value",
              "type": "uint256"
            }
          ],
          "internalType": "struct LibAsset.Asset",
          "name": "asset",
          "type": "tuple"
        },
        {
          "internalType": "address",
          "name": "from",
          "type": "address"
        },
        {
          "internalType": "address",
          "name": "to",
          "type": "address"
        }
      ],
      "name": "transfer",
      "outputs": [],
      "stateMutability": "nonpayable",
      "type": "function"
    },
    {
      "inputs": [
        {
          "internalType": "address",
          "name": "newOwner",
          "type": "address"
        }
      ],
      "name": "transferOwnership",
      "outputs": [],
      "stateMutability": "nonpayable",
      "type": "function"
    }
  ],
  "transactionHash": "0xcec6c3aa34e703061f6cdecdfad1b044112467140f5a3260a73a522f38ae4eab",
  "args": [],
  "solcInputHash": "8b3f23708baa7eccc06d06092456eee1",
  "bytecode": "0x608060405234801561001057600080fd5b50610b38806100206000396000f3fe608060405234801561001057600080fd5b506004361061006d5760003560e01c80632ff26a0a1461007257806354bc0cf11461007c578063715018a61461008f5780638da5cb5b146100975780639870d7fe146100b5578063ac8a584a146100c8578063f2fde38b146100db575b600080fd5b61007a6100ee565b005b61007a61008a366004610862565b6101a0565b61007a6103a2565b61009f61043c565b6040516100ac91906109a8565b60405180910390f35b61007a6100c33660046107f6565b61044b565b61007a6100d63660046107f6565b6104d1565b61007a6100e93660046107f6565b610554565b600054610100900460ff16806101075750610107610645565b80610115575060005460ff16155b6101505760405162461bcd60e51b815260040180806020018281038252602e815260200180610a6d602e913960400191505060405180910390fd5b600054610100900460ff1615801561017b576000805460ff1961ff0019909116610100171660011790555b610183610656565b61018b6106f6565b801561019d576000805461ff00191690555b50565b606560006101ac6107dd565b6001600160a01b0316815260208101919091526040016000205460ff166102045760405162461bcd60e51b8152600401808060200182810382526028815260200180610adb6028913960400191505060405180910390fd5b6000808460000151602001518060200190518101906102239190610835565b604051630b02f02d60e31b8152919350915082906001600160a01b03808716919083169063581781689061025b908690600401610a04565b602060405180830381600087803b15801561027557600080fd5b505af1158015610289573d6000803e3d6000fd5b505050506040513d601f19601f820116820180604052508101906102ad9190610819565b6001600160a01b0316146102dc5760405162461bcd60e51b81526004016102d3906109d5565b60405180910390fd5b60405163104c9fd360e31b81526001600160a01b03821690638264fe9890610308908590600401610a04565b600060405180830381600087803b15801561032257600080fd5b505af1158015610336573d6000803e3d6000fd5b50506040516322dca8bb60e21b81526001600160a01b0384169250638b72a2ec915061036890879086906004016109bc565b600060405180830381600087803b15801561038257600080fd5b505af1158015610396573d6000803e3d6000fd5b50505050505050505050565b6103aa6107dd565b6001600160a01b03166103bb61043c565b6001600160a01b031614610404576040805162461bcd60e51b81526020600482018190526024820152600080516020610a9b833981519152604482015290519081900360640190fd5b6033546040516000916001600160a01b031690600080516020610abb833981519152908390a3603380546001600160a01b0319169055565b6033546001600160a01b031690565b6104536107dd565b6001600160a01b031661046461043c565b6001600160a01b0316146104ad576040805162461bcd60e51b81526020600482018190526024820152600080516020610a9b833981519152604482015290519081900360640190fd5b6001600160a01b03166000908152606560205260409020805460ff19166001179055565b6104d96107dd565b6001600160a01b03166104ea61043c565b6001600160a01b031614610533576040805162461bcd60e51b81526020600482018190526024820152600080516020610a9b833981519152604482015290519081900360640190fd5b6001600160a01b03166000908152606560205260409020805460ff19169055565b61055c6107dd565b6001600160a01b031661056d61043c565b6001600160a01b0316146105b6576040805162461bcd60e51b81526020600482018190526024820152600080516020610a9b833981519152604482015290519081900360640190fd5b6001600160a01b0381166105fb5760405162461bcd60e51b8152600401808060200182810382526026815260200180610a476026913960400191505060405180910390fd5b6033546040516001600160a01b03808416921690600080516020610abb83398151915290600090a3603380546001600160a01b0319166001600160a01b0392909216919091179055565b6000610650306107e1565b15905090565b600054610100900460ff168061066f575061066f610645565b8061067d575060005460ff16155b6106b85760405162461bcd60e51b815260040180806020018281038252602e815260200180610a6d602e913960400191505060405180910390fd5b600054610100900460ff1615801561018b576000805460ff1961ff001990911661010017166001179055801561019d576000805461ff001916905550565b600054610100900460ff168061070f575061070f610645565b8061071d575060005460ff16155b6107585760405162461bcd60e51b815260040180806020018281038252602e815260200180610a6d602e913960400191505060405180910390fd5b600054610100900460ff16158015610783576000805460ff1961ff0019909116610100171660011790555b600061078d6107dd565b603380546001600160a01b0319166001600160a01b03831690811790915560405191925090600090600080516020610abb833981519152908290a350801561019d576000805461ff001916905550565b3390565b803b15155b919050565b80356107e681610a31565b600060208284031215610807578081fd5b813561081281610a31565b9392505050565b60006020828403121561082a578081fd5b815161081281610a31565b60008060408385031215610847578081fd5b825161085281610a31565b6020939093015192949293505050565b600080600060608486031215610876578081fd5b833567ffffffffffffffff8082111561088d578283fd5b818601915060408083890312156108a2578384fd5b805181810181811084821117156108b557fe5b8083528435848111156108c6578687fd5b8501808b038413156108d6578687fd5b6080830182811086821117156108e857fe5b845280356001600160e01b031981168114610901578788fd5b825260208181013586811115610915578889fd5b8083019250508b601f830112610929578788fd5b81358681111561093557fe5b610947601f8201601f19168301610a0d565b96508087528c8282850101111561095c578889fd5b80828401838901378882828901015250856060850152828452808701358185015283995061098b818c016107eb565b98505050505061099c8188016107eb565b93505050509250925092565b6001600160a01b0391909116815260200190565b6001600160a01b03929092168252602082015260400190565b60208082526015908201527429b2b63632b9103737ba10383ab7359037bbb732b960591b604082015260600190565b90815260200190565b60405181810167ffffffffffffffff81118282101715610a2957fe5b604052919050565b6001600160a01b038116811461019d57600080fdfe4f776e61626c653a206e6577206f776e657220697320746865207a65726f2061646472657373496e697469616c697a61626c653a20636f6e747261637420697320616c726561647920696e697469616c697a65644f776e61626c653a2063616c6c6572206973206e6f7420746865206f776e65728be0079c531659141344cd1fd0a4f28419497f9722a3daafe3b4186f6b6457e04f70657261746f72526f6c653a2063616c6c6572206973206e6f7420746865206f70657261746f72a26469706673582212204ee2c5ff60daf313fb81917d8304c4abf5f0fb73ddcea5fbb20f74af4027393a64736f6c63430007060033",
  "devdoc": {
    "kind": "dev",
    "methods": {
      "owner()": {
        "details": "Returns the address of the current owner."
      },
      "renounceOwnership()": {
        "details": "Leaves the contract without owner. It will not be possible to call `onlyOwner` functions anymore. Can only be called by the current owner. NOTE: Renouncing ownership will leave the contract without an owner, thereby removing any functionality that is only available to the owner."
      },
      "transferOwnership(address)": {
        "details": "Transfers ownership of the contract to a new account (`newOwner`). Can only be called by the current owner."
      }
    },
    "version": 1
  },
  "userdoc": {
    "kind": "user",
    "methods": {},
    "version": 1
  },
  "storageLayout": {
    "storage": [
      {
        "astId": 739,
        "contract": "src/PunkTransferProxy.sol:PunkTransferProxy",
        "label": "_initialized",
        "offset": 0,
        "slot": "0",
        "type": "t_bool"
      },
      {
        "astId": 742,
        "contract": "src/PunkTransferProxy.sol:PunkTransferProxy",
        "label": "_initializing",
        "offset": 1,
        "slot": "0",
        "type": "t_bool"
      },
      {
        "astId": 4072,
        "contract": "src/PunkTransferProxy.sol:PunkTransferProxy",
        "label": "__gap",
        "offset": 0,
        "slot": "1",
        "type": "t_array(t_uint256)50_storage"
      },
      {
        "astId": 10,
        "contract": "src/PunkTransferProxy.sol:PunkTransferProxy",
        "label": "_owner",
        "offset": 0,
        "slot": "51",
        "type": "t_address"
      },
      {
        "astId": 129,
        "contract": "src/PunkTransferProxy.sol:PunkTransferProxy",
        "label": "__gap",
        "offset": 0,
        "slot": "52",
        "type": "t_array(t_uint256)49_storage"
      },
      {
        "astId": 12217,
        "contract": "src/PunkTransferProxy.sol:PunkTransferProxy",
        "label": "operators",
        "offset": 0,
        "slot": "101",
        "type": "t_mapping(t_address,t_bool)"
      }
    ],
    "types": {
      "t_address": {
        "encoding": "inplace",
        "label": "address",
        "numberOfBytes": "20"
      },
      "t_array(t_uint256)49_storage": {
        "base": "t_uint256",
        "encoding": "inplace",
        "label": "uint256[49]",
        "numberOfBytes": "1568"
      },
      "t_array(t_uint256)50_storage": {
        "base": "t_uint256",
        "encoding": "inplace",
        "label": "uint256[50]",
        "numberOfBytes": "1600"
      },
      "t_bool": {
        "encoding": "inplace",
        "label": "bool",
        "numberOfBytes": "1"
      },
      "t_mapping(t_address,t_bool)": {
        "encoding": "mapping",
        "key": "t_address",
        "label": "mapping(address => bool)",
        "numberOfBytes": "32",
        "value": "t_bool"
      },
      "t_uint256": {
        "encoding": "inplace",
        "label": "uint256",
        "numberOfBytes": "32"
      }
    }
  }
}