{
  "address": "0x88F166Ac7462D1745A690f51cBe04AB5f73D406D",
  "abi": [
    {
      "anonymous": false,
      "inputs": [
        {
          "indexed": true,
          "internalType": "address",
          "name": "previousOwner",
          "type": "address"
        },
        {
          "indexed": true,
          "internalType": "address",
          "name": "newOwner",
          "type": "address"
        }
      ],
      "name": "OwnershipTransferred",
      "type": "event"
    },
    {
      "anonymous": false,
      "inputs": [
        {
          "indexed": true,
          "internalType": "address",
          "name": "token",
          "type": "address"
        },
        {
          "components": [
            {
              "internalType": "address payable",
              "name": "account",
              "type": "address"
            },
            {
              "internalType": "uint96",
              "name": "value",
              "type": "uint96"
            }
          ],
          "indexed": false,
          "internalType": "struct LibPart.Part[]",
          "name": "royalties",
          "type": "tuple[]"
        }
      ],
      "name": "RoyaltiesSetForContract",
      "type": "event"
    },
    {
      "inputs": [],
      "name": "__RoyaltiesRegistry_init",
      "outputs": [],
      "stateMutability": "nonpayable",
      "type": "function"
    },
    {
      "inputs": [
        {
          "internalType": "address",
          "name": "token",
          "type": "address"
        }
      ],
      "name": "clearRoyaltiesType",
      "outputs": [],
      "stateMutability": "nonpayable",
      "type": "function"
    },
    {
      "inputs": [
        {
          "internalType": "address",
          "name": "token",
          "type": "address"
        },
        {
          "internalType": "uint256",
          "name": "royaltiesType",
          "type": "uint256"
        }
      ],
      "name": "forceSetRoyaltiesType",
      "outputs": [],
      "stateMutability": "nonpayable",
      "type": "function"
    },
    {
      "inputs": [
        {
          "internalType": "address",
          "name": "token",
          "type": "address"
        }
      ],
      "name": "getProvider",
      "outputs": [
        {
          "internalType": "address",
          "name": "",
          "type": "address"
        }
      ],
      "stateMutability": "view",
      "type": "function"
    },
    {
      "inputs": [
        {
          "internalType": "address",
          "name": "token",
          "type": "address"
        },
        {
          "internalType": "uint256",
          "name": "tokenId",
          "type": "uint256"
        }
      ],
      "name": "getRoyalties",
      "outputs": [
        {
          "components": [
            {
              "internalType": "address payable",
              "name": "account",
              "type": "address"
            },
            {
              "internalType": "uint96",
              "name": "value",
              "type": "uint96"
            }
          ],
          "internalType": "struct LibPart.Part[]",
          "name": "",
          "type": "tuple[]"
        }
      ],
      "stateMutability": "nonpayable",
      "type": "function"
    },
    {
      "inputs": [
        {
          "internalType": "uint256",
          "name": "tokenId",
          "type": "uint256"
        }
      ],
      "name": "getRoyalties",
      "outputs": [
        {
          "components": [
            {
              "internalType": "address payable",
              "name": "recipient",
              "type": "address"
            },
            {
              "internalType": "uint256",
              "name": "value",
              "type": "uint256"
            }
          ],
          "internalType": "struct GhostMarketRoyalties.Royalty[]",
          "name": "",
          "type": "tuple[]"
        }
      ],
      "stateMutability": "view",
      "type": "function"
    },
    {
      "inputs": [
        {
          "internalType": "address",
          "name": "token",
          "type": "address"
        }
      ],
      "name": "getRoyaltiesType",
      "outputs": [
        {
          "internalType": "uint256",
          "name": "",
          "type": "uint256"
        }
      ],
      "stateMutability": "view",
      "type": "function"
    },
    {
      "inputs": [],
      "name": "owner",
      "outputs": [
        {
          "internalType": "address",
          "name": "",
          "type": "address"
        }
      ],
      "stateMutability": "view",
      "type": "function"
    },
    {
      "inputs": [],
      "name": "renounceOwnership",
      "outputs": [],
      "stateMutability": "nonpayable",
      "type": "function"
    },
    {
      "inputs": [
        {
          "internalType": "address",
          "name": "",
          "type": "address"
        }
      ],
      "name": "royaltiesByToken",
      "outputs": [
        {
          "internalType": "bool",
          "name": "initialized",
          "type": "bool"
        }
      ],
      "stateMutability": "view",
      "type": "function"
    },
    {
      "inputs": [
        {
          "internalType": "address",
          "name": "",
          "type": "address"
        }
      ],
      "name": "royaltiesProviders",
      "outputs": [
        {
          "internalType": "uint256",
          "name": "",
          "type": "uint256"
        }
      ],
      "stateMutability": "view",
      "type": "function"
    },
    {
      "inputs": [
        {
          "internalType": "address",
          "name": "token",
          "type": "address"
        },
        {
          "internalType": "address",
          "name": "provider",
          "type": "address"
        }
      ],
      "name": "setProviderByToken",
      "outputs": [],
      "stateMutability": "nonpayable",
      "type": "function"
    },
    {
      "inputs": [
        {
          "internalType": "address",
          "name": "token",
          "type": "address"
        },
        {
          "components": [
            {
              "internalType": "address payable",
              "name": "account",
              "type": "address"
            },
            {
              "internalType": "uint96",
              "name": "value",
              "type": "uint96"
            }
          ],
          "internalType": "struct LibPart.Part[]",
          "name": "royalties",
          "type": "tuple[]"
        }
      ],
      "name": "setRoyaltiesByToken",
      "outputs": [],
      "stateMutability": "nonpayable",
      "type": "function"
    },
    {
      "inputs": [
        {
          "internalType": "address",
          "name": "newOwner",
          "type": "address"
        }
      ],
      "name": "transferOwnership",
      "outputs": [],
      "stateMutability": "nonpayable",
      "type": "function"
    }
  ],
  "transactionHash": "0x03ca951321004c6a1fd4d5ec1b20dad0557ced7196c099c4f95269fe5ffc5038",
  "args": [],
  "solcInputHash": "8b3f23708baa7eccc06d06092456eee1",
  "bytecode": "0x608060405234801561001057600080fd5b50611a10806100206000396000f3fe608060405234801561001057600080fd5b50600436106100ca5760003560e01c80639ca7dc7a1161007c5780639ca7dc7a14610165578063acf14efb14610185578063bb3bafd614610198578063d836f013146101b8578063f2fde38b146101cb578063f39cc706146101de578063fc73be00146101f1576100ca565b806305df952f146100cf57806327fff8ab146100f857806336eff6c21461010257806355f21eb714610115578063715018a61461013557806382b19f121461013d5780638da5cb5b1461015d575b600080fd5b6100e26100dd3660046112d9565b610204565b6040516100ef919061173e565b60405180910390f35b610100610219565b005b610100610110366004611439565b6102c3565b6101286101233660046112d9565b6102e3565b6040516100ef9190611665565b610100610302565b61015061014b3660046112d9565b6103ae565b6040516100ef91906118da565b6101286103d6565b610178610173366004611439565b6103e5565b6040516100ef9190611692565b610100610193366004611349565b610583565b6101ab6101a636600461164d565b6107c1565b6040516100ef91906116f3565b6101006101c6366004611311565b6107c7565b6101006101d93660046112d9565b6107dc565b6101506101ec3660046112d9565b6108df565b6101006101ff3660046112d9565b6108f1565b60656020526000908152604090205460ff1681565b600054610100900460ff16806102325750610232610922565b80610240575060005460ff16155b61027b5760405162461bcd60e51b815260040180806020018281038252602e81526020018061198d602e913960400191505060405180910390fd5b600054610100900460ff161580156102a6576000805460ff1961ff0019909116610100171660011790555b6102ae610933565b80156102c0576000805461ff00191690555b50565b6102cc82610a1a565b6102df82826102da856102e3565b610af0565b5050565b6001600160a01b0381166000908152606660205260409020545b919050565b61030a610b47565b6001600160a01b031661031b6103d6565b6001600160a01b031614610376576040805162461bcd60e51b815260206004820181905260248201527f4f776e61626c653a2063616c6c6572206973206e6f7420746865206f776e6572604482015290519081900360640190fd5b6033546040516000916001600160a01b0316906000805160206119bb833981519152908390a3603380546001600160a01b0319169055565b6001600160a01b0381166000908152606660205260408120546103d090610b4b565b92915050565b6033546001600160a01b031690565b6001600160a01b038216600090815260666020526040812054606091819061040c82610b4b565b90508061042a5761041d8683610b89565b905061042a868284610af0565b80600114156104c6576001600160a01b038616600090815260656020908152604080832060010180548251818502810185019093528083529193909284015b828210156104b857600084815260209081902060408051808201909152908401546001600160a01b0381168252600160a01b90046001600160601b031681830152825260019092019101610469565b5050505093505050506103d0565b80600214156104e3576104d98686610db0565b93505050506103d0565b80600314156104f6576104d98686610e70565b806004141561050a576104d9868684610ff3565b806005141561051d576104d986866110ba565b8060061415610562576040805160008082526020820190925290610557565b610544611290565b81526020019060019003908161053c5790505b5093505050506103d0565b60405162461bcd60e51b815260040161057a9061175e565b60405180910390fd5b61058c82610a1a565b6001600160a01b03821660009081526066602052604081208190556105b5908390600190610af0565b6001600160a01b0382166000908152606560205260408120805460ff19168155816105e360018301826112a7565b505060005b825181101561073f5760006001600160a01b031683828151811061060857fe5b6020026020010151600001516001600160a01b0316141561063b5760405162461bcd60e51b815260040161057a90611795565b82818151811061064757fe5b6020026020010151602001516001600160601b03166000141561067c5760405162461bcd60e51b815260040161057a9061185d565b60656000856001600160a01b03166001600160a01b031681526020019081526020016000206001018382815181106106b057fe5b602090810291909101810151825460018101845560009384529282902081519301805491909201516001600160601b0316600160a01b026001600160a01b039384166001600160a01b031990921691909117909216919091179055825183908290811061071957fe5b6020026020010151602001516001600160601b03168201915080806001019150506105e8565b5061271081106107615760405162461bcd60e51b815260040161057a906117e1565b6001600160a01b03831660008181526065602052604090819020805460ff19166001179055517fc026171b9a7c9009d6a748a19a0a3cb877978a585e1647a87a786d724bbde127906107b4908590611692565b60405180910390a2505050565b50606090565b6107d082610a1a565b6102df82600483610af0565b6107e4610b47565b6001600160a01b03166107f56103d6565b6001600160a01b031614610850576040805162461bcd60e51b815260206004820181905260248201527f4f776e61626c653a2063616c6c6572206973206e6f7420746865206f776e6572604482015290519081900360640190fd5b6001600160a01b0381166108955760405162461bcd60e51b81526004018080602001828103825260268152602001806119676026913960400191505060405180910390fd5b6033546040516001600160a01b038084169216906000805160206119bb83398151915290600090a3603380546001600160a01b0319166001600160a01b0392909216919091179055565b60666020526000908152604090205481565b6108fa81610a1a565b610903816102e3565b6001600160a01b03918216600090815260666020526040902091169055565b600061092d30611184565b15905090565b600054610100900460ff168061094c575061094c610922565b8061095a575060005460ff16155b6109955760405162461bcd60e51b815260040180806020018281038252602e81526020018061198d602e913960400191505060405180910390fd5b600054610100900460ff161580156109c0576000805460ff1961ff0019909116610100171660011790555b60006109ca610b47565b603380546001600160a01b0319166001600160a01b038316908117909155604051919250906000906000805160206119bb833981519152908290a35080156102c0576000805461ff001916905550565b610a22610b47565b6001600160a01b0316610a336103d6565b6001600160a01b031614158015610ad35750610a4d610b47565b6001600160a01b0316816001600160a01b0316638da5cb5b6040518163ffffffff1660e01b815260040160206040518083038186803b158015610a8f57600080fd5b505afa158015610aa3573d6000803e3d6000fd5b505050506040513d601f19601f82011682018060405250810190610ac791906112f5565b6001600160a01b031614155b156102c05760405162461bcd60e51b815260040161057a9061182b565b600082118015610b01575060068211155b610b1d5760405162461bcd60e51b815260040161057a906118ad565b6001600160a01b03928316600090815260666020526040902092166101009190910360020a019055565b3390565b600060015b60068111610b8057806101000360020a8381610b6857fe5b0460011415610b785790506102fd565b600101610b50565b50600092915050565b6040516301ffc9a760e01b81526000906001600160a01b038416906301ffc9a790610bbf9063656cb66560e11b90600401611749565b60206040518083038186803b158015610bd757600080fd5b505afa925050508015610c07575060408051601f3d908101601f19168201909252610c049181019061162d565b60015b610c1057610c22565b8015610c205760029150506103d0565b505b6040516301ffc9a760e01b81526001600160a01b038416906301ffc9a790610c6e907fe42093a63818e0c931c15fda9036d0d8995a638e7acfabc8355a4789766e8de990600401611749565b60206040518083038186803b158015610c8657600080fd5b505afa925050508015610cb6575060408051601f3d908101601f19168201909252610cb39181019061162d565b60015b610cbf57610cd1565b8015610ccf5760039150506103d0565b505b6040516301ffc9a760e01b81526001600160a01b038416906301ffc9a790610d049063152a902d60e11b90600401611749565b60206040518083038186803b158015610d1c57600080fd5b505afa925050508015610d4c575060408051601f3d908101601f19168201909252610d499181019061162d565b60015b610d5557610d67565b8015610d655760059150506103d0565b505b6001600160a01b03821615610d7e575060046103d0565b6001600160a01b03831660009081526065602052604090205460ff1615610da7575060016103d0565b50600692915050565b60405163656cb66560e11b81526060906001600160a01b0384169063cad96cca90610ddf9085906004016118da565b60006040518083038186803b158015610df757600080fd5b505afa925050508015610e2c57506040513d6000823e601f3d908101601f19168201604052610e299190810190611491565b60015b610e69576040805160008082526020820190925290610e61565b610e4e611290565b815260200190600190039081610e465790505b5090506103d0565b90506103d0565b604051635d9dd7eb60e11b815260609083906000906001600160a01b0383169063bb3bafd690610ea49087906004016118da565b60006040518083038186803b158015610ebc57600080fd5b505afa158015610ed0573d6000803e3d6000fd5b505050506040513d6000823e601f3d908101601f19168201604052610ef8919081019061156b565b90506000815167ffffffffffffffff81118015610f1457600080fd5b50604051908082528060200260200182016040528015610f4e57816020015b610f3b611290565b815260200190600190039081610f335790505b50905060005b8251811015610fe957828181518110610f6957fe5b602002602001015160200151828281518110610f8157fe5b6020026020010151602001906001600160601b031690816001600160601b031681525050828181518110610fb157fe5b602002602001015160000151828281518110610fc957fe5b60209081029190910101516001600160a01b039091169052600101610f54565b5095945050505050565b604051634e53ee3d60e11b81526060906001600160a01b03831690639ca7dc7a906110249087908790600401611679565b600060405180830381600087803b15801561103e57600080fd5b505af192505050801561107357506040513d6000823e601f3d908101601f191682016040526110709190810190611491565b60015b6110b05760408051600080825260208201909252906110a8565b611095611290565b81526020019060019003908161108d5790505b5090506110b3565b90505b9392505050565b60405163152a902d60e11b81526060906001600160a01b03841690632a55205a906110ee908590620f4240906004016118e3565b604080518083038186803b15801561110557600080fd5b505afa925050508015611135575060408051601f3d908101601f1916820190925261113291810190611464565b60015b611171576040805160008082526020820190925290610e61565b611157611290565b81526020019060019003908161114f5790505090506103d0565b61117b828261118a565b925050506103d0565b3b151590565b606080826111995790506103d0565b6000620f42406064850204606402905061271081106111fb576040805162461bcd60e51b8152602060048201526019602482015278526f79616c7469657320323938312c207468616e203130302560381b604482015290519081900360640190fd5b60408051600180825281830190925290816020015b611218611290565b815260200190600190039081611210579050509150848260008151811061123b57fe5b6020026020010151600001906001600160a01b031690816001600160a01b031681525050808260008151811061126d57fe5b6020908102919091018101516001600160601b0390921691015250905092915050565b604080518082019091526000808252602082015290565b50805460008255906000526020600020908101906102c091905b808211156112d557600081556001016112c1565b5090565b6000602082840312156112ea578081fd5b81356110b38161193c565b600060208284031215611306578081fd5b81516110b38161193c565b60008060408385031215611323578081fd5b823561132e8161193c565b9150602083013561133e8161193c565b809150509250929050565b600080604080848603121561135c578283fd5b83356113678161193c565b925060208481013567ffffffffffffffff80821115611384578485fd5b818701915087601f830112611397578485fd5b81356113aa6113a58261191e565b6118fa565b81815284810190848601878402860187018c10156113c6578889fd5b8895505b838610156114275787818d0312156113e0578889fd5b875188810181811087821117156113f357fe5b895281356114008161193c565b81528188013561140f81611951565b818901528352600195909501949186019187016113ca565b50809750505050505050509250929050565b6000806040838503121561144b578182fd5b82356114568161193c565b946020939093013593505050565b60008060408385031215611476578182fd5b82516114818161193c565b6020939093015192949293505050565b600060208083850312156114a3578182fd5b825167ffffffffffffffff808211156114ba578384fd5b818501915085601f8301126114cd578384fd5b81516114db6113a58261191e565b818152848101908486016040808502870188018b10156114f9578889fd5b8896505b8487101561155c5780828c031215611513578889fd5b8051818101818110888211171561152657fe5b825282516115338161193c565b81528289015161154281611951565b818a015284526001969096019592870192908101906114fd565b50909998505050505050505050565b6000602080838503121561157d578182fd5b825167ffffffffffffffff80821115611594578384fd5b818501915085601f8301126115a7578384fd5b81516115b56113a58261191e565b818152848101908486016040808502870188018b10156115d3578889fd5b8896505b8487101561155c5780828c0312156115ed578889fd5b8051818101818110888211171561160057fe5b8252825161160d8161193c565b8152828901518982015284526001969096019592870192908101906115d7565b60006020828403121561163e578081fd5b815180151581146110b3578182fd5b60006020828403121561165e578081fd5b5035919050565b6001600160a01b0391909116815260200190565b6001600160a01b03929092168252602082015260400190565b602080825282518282018190526000919060409081850190868401855b828110156116e657815180516001600160a01b031685528601516001600160601b03168685015292840192908501906001016116af565b5091979650505050505050565b602080825282518282018190526000919060409081850190868401855b828110156116e657815180516001600160a01b03168552860151868501529284019290850190600101611710565b901515815260200190565b6001600160e01b031991909116815260200190565b6020808252601f908201527f736f6d657468696e672077726f6e6720696e20676574526f79616c7469657300604082015260600190565b6020808252602c908201527f526f79616c746965734279546f6b656e20726563697069656e742073686f756c60408201526b19081899481c1c995cd95b9d60a21b606082015260800190565b6020808252602a908201527f53657420627920746f6b656e20726f79616c746965732073756d206d6f72652c604082015269207468616e203130302560b01b606082015260800190565b602080825260189082015277151bdad95b881bdddb995c881b9bdd0819195d1958dd195960421b604082015260600190565b60208082526030908201527f526f79616c74792076616c756520666f7220526f79616c746965734279546f6b60408201526f0656e2073686f756c64206265203e20360841b606082015260800190565b60208082526013908201527277726f6e6720726f79616c746965735479706560681b604082015260600190565b90815260200190565b9182526001600160601b0316602082015260400190565b60405181810167ffffffffffffffff8111828210171561191657fe5b604052919050565b600067ffffffffffffffff82111561193257fe5b5060209081020190565b6001600160a01b03811681146102c057600080fd5b6001600160601b03811681146102c057600080fdfe4f776e61626c653a206e6577206f776e657220697320746865207a65726f2061646472657373496e697469616c697a61626c653a20636f6e747261637420697320616c726561647920696e697469616c697a65648be0079c531659141344cd1fd0a4f28419497f9722a3daafe3b4186f6b6457e0a2646970667358221220e12f82b5846f1bc26750c0f9554aa5646047f507c67fb73d4287fe93fe68ed6764736f6c63430007060033",
  "devdoc": {
    "events": {
      "RoyaltiesSetForContract(address,(address,uint96)[])": {
        "details": "emitted when royalties set for token in"
      }
    },
    "kind": "dev",
    "methods": {
      "clearRoyaltiesType(address)": {
        "details": "clears royalties type for token contract"
      },
      "forceSetRoyaltiesType(address,uint256)": {
        "details": "clears and sets new royalties type for token contract"
      },
      "getProvider(address)": {
        "details": "returns provider address for token contract from royaltiesProviders mapping"
      },
      "getRoyalties(address,uint256)": {
        "details": "returns royalties for token contract and token id"
      },
      "getRoyalties(uint256)": {
        "details": "get NFT royalties Royalty array"
      },
      "getRoyaltiesType(address)": {
        "details": "returns royalties type for token contract"
      },
      "owner()": {
        "details": "Returns the address of the current owner."
      },
      "renounceOwnership()": {
        "details": "Leaves the contract without owner. It will not be possible to call `onlyOwner` functions anymore. Can only be called by the current owner. NOTE: Renouncing ownership will leave the contract without an owner, thereby removing any functionality that is only available to the owner."
      },
      "setProviderByToken(address,address)": {
        "details": "sets external provider for token contract, and royalties type = 4"
      },
      "setRoyaltiesByToken(address,(address,uint96)[])": {
        "details": "sets royalties for token contract in royaltiesByToken mapping and royalties type = 1"
      },
      "transferOwnership(address)": {
        "details": "Transfers ownership of the contract to a new account (`newOwner`). Can only be called by the current owner."
      }
    },
    "stateVariables": {
      "royaltiesByToken": {
        "details": "stores royalties for token contract, set in setRoyaltiesByToken() method"
      },
      "royaltiesProviders": {
        "details": "stores external provider and royalties type for token contract"
      },
      "royaltiesTypesAmount": {
        "details": "total amount or supported royalties types"
      }
    },
    "version": 1
  },
  "userdoc": {
    "kind": "user",
    "methods": {},
    "version": 1
  },
  "storageLayout": {
    "storage": [
      {
        "astId": 739,
        "contract": "src/royalties-registry/RoyaltiesRegistry.sol:RoyaltiesRegistry",
        "label": "_initialized",
        "offset": 0,
        "slot": "0",
        "type": "t_bool"
      },
      {
        "astId": 742,
        "contract": "src/royalties-registry/RoyaltiesRegistry.sol:RoyaltiesRegistry",
        "label": "_initializing",
        "offset": 1,
        "slot": "0",
        "type": "t_bool"
      },
      {
        "astId": 4072,
        "contract": "src/royalties-registry/RoyaltiesRegistry.sol:RoyaltiesRegistry",
        "label": "__gap",
        "offset": 0,
        "slot": "1",
        "type": "t_array(t_uint256)50_storage"
      },
      {
        "astId": 10,
        "contract": "src/royalties-registry/RoyaltiesRegistry.sol:RoyaltiesRegistry",
        "label": "_owner",
        "offset": 0,
        "slot": "51",
        "type": "t_address"
      },
      {
        "astId": 129,
        "contract": "src/royalties-registry/RoyaltiesRegistry.sol:RoyaltiesRegistry",
        "label": "__gap",
        "offset": 0,
        "slot": "52",
        "type": "t_array(t_uint256)49_storage"
      },
      {
        "astId": 13730,
        "contract": "src/royalties-registry/RoyaltiesRegistry.sol:RoyaltiesRegistry",
        "label": "royaltiesByToken",
        "offset": 0,
        "slot": "101",
        "type": "t_mapping(t_address,t_struct(RoyaltiesSet)13725_storage)"
      },
      {
        "astId": 13735,
        "contract": "src/royalties-registry/RoyaltiesRegistry.sol:RoyaltiesRegistry",
        "label": "royaltiesProviders",
        "offset": 0,
        "slot": "102",
        "type": "t_mapping(t_address,t_uint256)"
      },
      {
        "astId": 14457,
        "contract": "src/royalties-registry/RoyaltiesRegistry.sol:RoyaltiesRegistry",
        "label": "__gap",
        "offset": 0,
        "slot": "103",
        "type": "t_array(t_uint256)46_storage"
      }
    ],
    "types": {
      "t_address": {
        "encoding": "inplace",
        "label": "address",
        "numberOfBytes": "20"
      },
      "t_address_payable": {
        "encoding": "inplace",
        "label": "address payable",
        "numberOfBytes": "20"
      },
      "t_array(t_struct(Part)13391_storage)dyn_storage": {
        "base": "t_struct(Part)13391_storage",
        "encoding": "dynamic_array",
        "label": "struct LibPart.Part[]",
        "numberOfBytes": "32"
      },
      "t_array(t_uint256)46_storage": {
        "base": "t_uint256",
        "encoding": "inplace",
        "label": "uint256[46]",
        "numberOfBytes": "1472"
      },
      "t_array(t_uint256)49_storage": {
        "base": "t_uint256",
        "encoding": "inplace",
        "label": "uint256[49]",
        "numberOfBytes": "1568"
      },
      "t_array(t_uint256)50_storage": {
        "base": "t_uint256",
        "encoding": "inplace",
        "label": "uint256[50]",
        "numberOfBytes": "1600"
      },
      "t_bool": {
        "encoding": "inplace",
        "label": "bool",
        "numberOfBytes": "1"
      },
      "t_mapping(t_address,t_struct(RoyaltiesSet)13725_storage)": {
        "encoding": "mapping",
        "key": "t_address",
        "label": "mapping(address => struct RoyaltiesRegistry.RoyaltiesSet)",
        "numberOfBytes": "32",
        "value": "t_struct(RoyaltiesSet)13725_storage"
      },
      "t_mapping(t_address,t_uint256)": {
        "encoding": "mapping",
        "key": "t_address",
        "label": "mapping(address => uint256)",
        "numberOfBytes": "32",
        "value": "t_uint256"
      },
      "t_struct(Part)13391_storage": {
        "encoding": "inplace",
        "label": "struct LibPart.Part",
        "members": [
          {
            "astId": 13388,
            "contract": "src/royalties-registry/RoyaltiesRegistry.sol:RoyaltiesRegistry",
            "label": "account",
            "offset": 0,
            "slot": "0",
            "type": "t_address_payable"
          },
          {
            "astId": 13390,
            "contract": "src/royalties-registry/RoyaltiesRegistry.sol:RoyaltiesRegistry",
            "label": "value",
            "offset": 20,
            "slot": "0",
            "type": "t_uint96"
          }
        ],
        "numberOfBytes": "32"
      },
      "t_struct(RoyaltiesSet)13725_storage": {
        "encoding": "inplace",
        "label": "struct RoyaltiesRegistry.RoyaltiesSet",
        "members": [
          {
            "astId": 13721,
            "contract": "src/royalties-registry/RoyaltiesRegistry.sol:RoyaltiesRegistry",
            "label": "initialized",
            "offset": 0,
            "slot": "0",
            "type": "t_bool"
          },
          {
            "astId": 13724,
            "contract": "src/royalties-registry/RoyaltiesRegistry.sol:RoyaltiesRegistry",
            "label": "royalties",
            "offset": 0,
            "slot": "1",
            "type": "t_array(t_struct(Part)13391_storage)dyn_storage"
          }
        ],
        "numberOfBytes": "64"
      },
      "t_uint256": {
        "encoding": "inplace",
        "label": "uint256",
        "numberOfBytes": "32"
      },
      "t_uint96": {
        "encoding": "inplace",
        "label": "uint96",
        "numberOfBytes": "12"
      }
    }
  }
}