{
  "_format": "hh-sol-artifact-1",
  "contractName": "GhostAuction",
  "sourceName": "contracts/GhostAuction.sol",
  "abi": [
    {
      "anonymous": false,
      "inputs": [
        {
          "indexed": false,
          "internalType": "uint256",
          "name": "auctionId",
          "type": "uint256"
        },
        {
          "indexed": false,
          "internalType": "address",
          "name": "nftContractAddress",
          "type": "address"
        },
        {
          "indexed": false,
          "internalType": "uint256",
          "name": "tokenId",
          "type": "uint256"
        },
        {
          "indexed": false,
          "internalType": "address",
          "name": "sender",
          "type": "address"
        },
        {
          "indexed": false,
          "internalType": "uint256",
          "name": "value",
          "type": "uint256"
        }
      ],
      "name": "OrderBid",
      "type": "event"
    },
    {
      "anonymous": false,
      "inputs": [
        {
          "indexed": false,
          "internalType": "uint256",
          "name": "auctionId",
          "type": "uint256"
        },
        {
          "indexed": false,
          "internalType": "address",
          "name": "nftContractAddress",
          "type": "address"
        },
        {
          "indexed": false,
          "internalType": "uint256",
          "name": "tokenId",
          "type": "uint256"
        }
      ],
      "name": "OrderCancelled",
      "type": "event"
    },
    {
      "anonymous": false,
      "inputs": [
        {
          "indexed": false,
          "internalType": "uint256",
          "name": "auctionId",
          "type": "uint256"
        },
        {
          "indexed": false,
          "internalType": "uint256",
          "name": "tokenId",
          "type": "uint256"
        },
        {
          "indexed": false,
          "internalType": "address",
          "name": "nftContractAddress",
          "type": "address"
        },
        {
          "indexed": false,
          "internalType": "uint256",
          "name": "duration",
          "type": "uint256"
        },
        {
          "indexed": false,
          "internalType": "uint256",
          "name": "reservePrice",
          "type": "uint256"
        },
        {
          "indexed": false,
          "internalType": "uint256",
          "name": "endPrice",
          "type": "uint256"
        },
        {
          "indexed": false,
          "internalType": "enum GhostAuction.AuctionTypes",
          "name": "auctionType",
          "type": "uint8"
        },
        {
          "indexed": false,
          "internalType": "uint256",
          "name": "startingAt",
          "type": "uint256"
        },
        {
          "indexed": false,
          "internalType": "uint256",
          "name": "extensionPeriod",
          "type": "uint256"
        }
      ],
      "name": "OrderCreated",
      "type": "event"
    },
    {
      "anonymous": false,
      "inputs": [
        {
          "indexed": true,
          "internalType": "address",
          "name": "previousOwner",
          "type": "address"
        },
        {
          "indexed": true,
          "internalType": "address",
          "name": "newOwner",
          "type": "address"
        }
      ],
      "name": "OwnershipTransferred",
      "type": "event"
    },
    {
      "anonymous": false,
      "inputs": [
        {
          "indexed": false,
          "internalType": "address",
          "name": "account",
          "type": "address"
        }
      ],
      "name": "Paused",
      "type": "event"
    },
    {
      "anonymous": false,
      "inputs": [
        {
          "indexed": false,
          "internalType": "address",
          "name": "account",
          "type": "address"
        }
      ],
      "name": "Unpaused",
      "type": "event"
    },
    {
      "inputs": [
        {
          "internalType": "uint256",
          "name": "",
          "type": "uint256"
        }
      ],
      "name": "auctions",
      "outputs": [
        {
          "internalType": "uint256",
          "name": "amount",
          "type": "uint256"
        },
        {
          "internalType": "uint256",
          "name": "duration",
          "type": "uint256"
        },
        {
          "internalType": "uint256",
          "name": "firstBidTime",
          "type": "uint256"
        },
        {
          "internalType": "uint256",
          "name": "reservePrice",
          "type": "uint256"
        },
        {
          "internalType": "address payable",
          "name": "bidder",
          "type": "address"
        },
        {
          "internalType": "address",
          "name": "creator",
          "type": "address"
        },
        {
          "internalType": "address",
          "name": "nftContract",
          "type": "address"
        },
        {
          "internalType": "uint256",
          "name": "tokenId",
          "type": "uint256"
        },
        {
          "internalType": "enum GhostAuction.AuctionTypes",
          "name": "auctionType",
          "type": "uint8"
        },
        {
          "internalType": "uint256",
          "name": "startingAt",
          "type": "uint256"
        },
        {
          "internalType": "uint256",
          "name": "startingPrice",
          "type": "uint256"
        },
        {
          "internalType": "uint256",
          "name": "endingPrice",
          "type": "uint256"
        },
        {
          "internalType": "uint256",
          "name": "extensionPeriod",
          "type": "uint256"
        }
      ],
      "stateMutability": "view",
      "type": "function"
    },
    {
      "inputs": [
        {
          "internalType": "uint256",
          "name": "auctionId",
          "type": "uint256"
        }
      ],
      "name": "cancelAuction",
      "outputs": [],
      "stateMutability": "nonpayable",
      "type": "function"
    },
    {
      "inputs": [
        {
          "internalType": "uint256",
          "name": "tokenId",
          "type": "uint256"
        },
        {
          "internalType": "uint256",
          "name": "duration",
          "type": "uint256"
        },
        {
          "internalType": "uint256",
          "name": "reservePrice",
          "type": "uint256"
        },
        {
          "internalType": "address",
          "name": "nftContractAddress",
          "type": "address"
        },
        {
          "internalType": "enum GhostAuction.AuctionTypes",
          "name": "auctionType",
          "type": "uint8"
        },
        {
          "internalType": "uint256",
          "name": "startingPrice",
          "type": "uint256"
        },
        {
          "internalType": "uint256",
          "name": "endingPrice",
          "type": "uint256"
        },
        {
          "internalType": "uint256",
          "name": "startDate",
          "type": "uint256"
        },
        {
          "internalType": "uint256",
          "name": "extensionPeriod",
          "type": "uint256"
        }
      ],
      "name": "createAuction",
      "outputs": [],
      "stateMutability": "nonpayable",
      "type": "function"
    },
    {
      "inputs": [
        {
          "internalType": "uint256",
          "name": "auctionId",
          "type": "uint256"
        },
        {
          "internalType": "uint256",
          "name": "amount",
          "type": "uint256"
        }
      ],
      "name": "createBid",
      "outputs": [],
      "stateMutability": "payable",
      "type": "function"
    },
    {
      "inputs": [
        {
          "internalType": "uint256",
          "name": "auctionId",
          "type": "uint256"
        }
      ],
      "name": "deleteAuctionOnlyAdmin",
      "outputs": [],
      "stateMutability": "nonpayable",
      "type": "function"
    },
    {
      "inputs": [],
      "name": "getCurrentAuctionId",
      "outputs": [
        {
          "internalType": "uint256",
          "name": "",
          "type": "uint256"
        }
      ],
      "stateMutability": "view",
      "type": "function"
    },
    {
      "inputs": [
        {
          "components": [
            {
              "internalType": "uint256",
              "name": "amount",
              "type": "uint256"
            },
            {
              "internalType": "uint256",
              "name": "duration",
              "type": "uint256"
            },
            {
              "internalType": "uint256",
              "name": "firstBidTime",
              "type": "uint256"
            },
            {
              "internalType": "uint256",
              "name": "reservePrice",
              "type": "uint256"
            },
            {
              "internalType": "address payable",
              "name": "bidder",
              "type": "address"
            },
            {
              "internalType": "address",
              "name": "creator",
              "type": "address"
            },
            {
              "internalType": "address",
              "name": "nftContract",
              "type": "address"
            },
            {
              "internalType": "uint256",
              "name": "tokenId",
              "type": "uint256"
            },
            {
              "internalType": "enum GhostAuction.AuctionTypes",
              "name": "auctionType",
              "type": "uint8"
            },
            {
              "internalType": "uint256",
              "name": "startingAt",
              "type": "uint256"
            },
            {
              "internalType": "uint256",
              "name": "startingPrice",
              "type": "uint256"
            },
            {
              "internalType": "uint256",
              "name": "endingPrice",
              "type": "uint256"
            },
            {
              "internalType": "uint256",
              "name": "extensionPeriod",
              "type": "uint256"
            }
          ],
          "internalType": "struct GhostAuction.Auction",
          "name": "auction",
          "type": "tuple"
        }
      ],
      "name": "getCurrentPrice",
      "outputs": [
        {
          "internalType": "uint256",
          "name": "",
          "type": "uint256"
        }
      ],
      "stateMutability": "view",
      "type": "function"
    },
    {
      "inputs": [
        {
          "internalType": "uint256",
          "name": "auctionId",
          "type": "uint256"
        }
      ],
      "name": "getEndAuctionData",
      "outputs": [
        {
          "components": [
            {
              "internalType": "uint256",
              "name": "auctionId",
              "type": "uint256"
            },
            {
              "internalType": "address",
              "name": "winner",
              "type": "address"
            },
            {
              "internalType": "uint256",
              "name": "amount",
              "type": "uint256"
            },
            {
              "internalType": "address",
              "name": "creator",
              "type": "address"
            }
          ],
          "internalType": "struct GhostAuction.AuctionResult",
          "name": "",
          "type": "tuple"
        }
      ],
      "stateMutability": "view",
      "type": "function"
    },
    {
      "inputs": [],
      "name": "maxAuctionDuration",
      "outputs": [
        {
          "internalType": "uint256",
          "name": "",
          "type": "uint256"
        }
      ],
      "stateMutability": "view",
      "type": "function"
    },
    {
      "inputs": [],
      "name": "minAuctionDuration",
      "outputs": [
        {
          "internalType": "uint256",
          "name": "",
          "type": "uint256"
        }
      ],
      "stateMutability": "view",
      "type": "function"
    },
    {
      "inputs": [],
      "name": "minBidIncrementPercentAuction",
      "outputs": [
        {
          "internalType": "uint8",
          "name": "",
          "type": "uint8"
        }
      ],
      "stateMutability": "view",
      "type": "function"
    },
    {
      "inputs": [],
      "name": "owner",
      "outputs": [
        {
          "internalType": "address",
          "name": "",
          "type": "address"
        }
      ],
      "stateMutability": "view",
      "type": "function"
    },
    {
      "inputs": [],
      "name": "pauseContract",
      "outputs": [],
      "stateMutability": "nonpayable",
      "type": "function"
    },
    {
      "inputs": [],
      "name": "paused",
      "outputs": [
        {
          "internalType": "bool",
          "name": "",
          "type": "bool"
        }
      ],
      "stateMutability": "view",
      "type": "function"
    },
    {
      "inputs": [
        {
          "internalType": "uint256",
          "name": "amount",
          "type": "uint256"
        }
      ],
      "name": "recoverBNB",
      "outputs": [],
      "stateMutability": "nonpayable",
      "type": "function"
    },
    {
      "inputs": [],
      "name": "renounceOwnership",
      "outputs": [],
      "stateMutability": "nonpayable",
      "type": "function"
    },
    {
      "inputs": [
        {
          "internalType": "uint256",
          "name": "maxDurationExtVar",
          "type": "uint256"
        }
      ],
      "name": "setMaxAuctionDuration",
      "outputs": [],
      "stateMutability": "nonpayable",
      "type": "function"
    },
    {
      "inputs": [
        {
          "internalType": "uint256",
          "name": "minDurationExtVar",
          "type": "uint256"
        }
      ],
      "name": "setMinAuctionDuration",
      "outputs": [],
      "stateMutability": "nonpayable",
      "type": "function"
    },
    {
      "inputs": [
        {
          "internalType": "uint8",
          "name": "minBidIncrementPercentExtVar",
          "type": "uint8"
        }
      ],
      "name": "setMinBidIncrementPercent",
      "outputs": [],
      "stateMutability": "nonpayable",
      "type": "function"
    },
    {
      "inputs": [
        {
          "internalType": "address",
          "name": "newOwner",
          "type": "address"
        }
      ],
      "name": "transferOwnership",
      "outputs": [],
      "stateMutability": "nonpayable",
      "type": "function"
    },
    {
      "inputs": [],
      "name": "unpauseContract",
      "outputs": [],
      "stateMutability": "nonpayable",
      "type": "function"
    }
  ],
  "bytecode": "0x608060405234801561001057600080fd5b50612236806100206000396000f3fe60806040526004361061013a5760003560e01c8063715018a6116100bb578063c7a065e71161007f578063f2fde38b11610059578063f2fde38b14610434578063f603939b14610454578063f69082581461047457600080fd5b8063c7a065e714610392578063d80df523146103b2578063e12d145a1461041457600080fd5b8063715018a61461030d5780638da5cb5b1461032257806396b5a7551461034a578063b33712c51461036a578063b7751c711461037f57600080fd5b8063439766ce11610102578063439766ce146101f557806348c9581e1461020a5780635413487614610220578063571a26a0146102365780635c975abb146102e357600080fd5b806303721bb21461013f578063157db316146101615780632403f48e14610189578063360ff11c146101a957806337d9bef4146101c9575b600080fd5b34801561014b57600080fd5b5061015f61015a366004611f4e565b610494565b005b34801561016d57600080fd5b5061017661067e565b6040519081526020015b60405180910390f35b34801561019557600080fd5b5061015f6101a4366004611f9f565b61068e565b3480156101b557600080fd5b506101766101c4366004611e8e565b610ca4565b3480156101d557600080fd5b506098546101e39060ff1681565b60405160ff9091168152602001610180565b34801561020157600080fd5b5061015f610d55565b34801561021657600080fd5b50610176609a5481565b34801561022c57600080fd5b5061017660995481565b34801561024257600080fd5b506102ca610251366004611f4e565b609c60205260009081526040902080546001820154600283015460038401546004850154600586015460068701546007880154600889015460098a0154600a8b0154600b8c0154600c909c01549a9b999a989997986001600160a01b03978816989688169790951695939460ff9093169391929091908d565b6040516101809d9c9b9a999897969594939291906120b0565b3480156102ef57600080fd5b50609b54600160a01b900460ff166040519015158152602001610180565b34801561031957600080fd5b5061015f610de1565b34801561032e57600080fd5b506065546040516001600160a01b039091168152602001610180565b34801561035657600080fd5b5061015f610365366004611f4e565b610e85565b34801561037657600080fd5b5061015f611179565b61015f61038d366004611f7e565b6111f9565b34801561039e57600080fd5b5061015f6103ad366004612015565b6118fc565b3480156103be57600080fd5b506103d26103cd366004611f4e565b61196c565b6040516101809190815181526020808301516001600160a01b039081169183019190915260408084015190830152606092830151169181019190915260800190565b34801561042057600080fd5b5061015f61042f366004611f4e565b611afe565b34801561044057600080fd5b5061015f61044f366004611e52565b611b5d565b34801561046057600080fd5b5061015f61046f366004611f4e565b611c78565b34801561048057600080fd5b5061015f61048f366004611f4e565b611cd4565b609b54600160a01b900460ff16156104d95760405162461bcd60e51b815260206004820152600360248201526204349560ec1b60448201526064015b60405180910390fd5b609b546001600160a01b0316331461051c5760405162461bcd60e51b8152602060048201526006602482015265043444e4841560d41b60448201526064016104d0565b8060036000828152609c602052604090206008015460ff16600381111561055357634e487b7160e01b600052602160045260246000fd5b14156105a5576000818152609c60205260409020600201546105a05760405162461bcd60e51b81526004016104d0906020808252600490820152634441484360e01b604082015260600190565b6105ff565b6000818152609c6020526040902060020154158015906105cd57506105c981611d33565b4210155b6105ff5760405162461bcd60e51b815260206004820152600360248201526241484360e81b60448201526064016104d0565b506000908152609c602052604081208181556001810182905560028101829055600381018290556004810180546001600160a01b03199081169091556005820180548216905560068201805490911690556007810182905560088101805460ff1916905560098101829055600a8101829055600b8101829055600c0155565b600061068960975490565b905090565b600260015414156106e15760405162461bcd60e51b815260206004820152601f60248201527f5265656e7472616e637947756172643a207265656e7472616e742063616c6c0060448201526064016104d0565b6002600155609b54600160a01b900460ff16156107265760405162461bcd60e51b815260206004820152600360248201526204349560ec1b60448201526064016104d0565b610734609780546001019055565b6040516301ffc9a760e01b81526380ac58cd60e01b60048201526001600160a01b038716906301ffc9a79060240160206040518083038186803b15801561077a57600080fd5b505afa15801561078e573d6000803e3d6000fd5b505050506040513d601f19601f820116820180604052508101906107b29190611e6e565b8061083657506040516301ffc9a760e01b8152636cdb3d1360e11b60048201526001600160a01b038716906301ffc9a79060240160206040518083038186803b1580156107fe57600080fd5b505afa158015610812573d6000803e3d6000fd5b505050506040513d601f19601f820116820180604052508101906108369190611e6e565b61086e5760405162461bcd60e51b815260206004820152600960248201526843414e41444e534e4960b81b60448201526064016104d0565b60995488101580156108825750609a548811155b6108b95760405162461bcd60e51b8152602060048201526008602482015267088928aa8989ea8960c31b60448201526064016104d0565b610e108111156108f65760405162461bcd60e51b815260206004820152600860248201526708aa090a884989e960c31b60448201526064016104d0565b600385600381111561091857634e487b7160e01b600052602160045260246000fd5b14156109c657600084116109565760405162461bcd60e51b815260206004820152600560248201526420a9a823ad60d91b60448201526064016104d0565b6000831161098e5760405162461bcd60e51b815260206004820152600560248201526420a2a823ad60d91b60448201526064016104d0565b8284116109c65760405162461bcd60e51b815260206004820152600660248201526504153504745560d41b60448201526064016104d0565b604051806101a00160405280600081526020018981526020016000815260200188815260200160006001600160a01b03168152602001336001600160a01b03168152602001876001600160a01b031681526020018a8152602001866003811115610a4057634e487b7160e01b600052602160045260246000fd5b8152602001428411610a525742610a54565b835b815260200185815260200184815260200182815250609c6000306001600160a01b031663157db3166040518163ffffffff1660e01b815260040160206040518083038186803b158015610aa657600080fd5b505afa158015610aba573d6000803e3d6000fd5b505050506040513d601f19601f82011682018060405250810190610ade9190611f66565b815260208082019290925260409081016000208351815591830151600180840191909155908301516002830155606083015160038084019190915560808401516004840180546001600160a01b039283166001600160a01b03199182161790915560a086015160058601805491841691831691909117905560c086015160068601805491909316911617905560e084015160078401556101008401516008840180549193909260ff19909216918490811115610baa57634e487b7160e01b600052602160045260246000fd5b0217905550610120820151816009015561014082015181600a015561016082015181600b015561018082015181600c01559050507fd0a5c0df7831b5d4cca8c74c5d22ea5c6606814e2498c605bbaf20db9812aade306001600160a01b031663157db3166040518163ffffffff1660e01b815260040160206040518083038186803b158015610c3857600080fd5b505afa158015610c4c573d6000803e3d6000fd5b505050506040513d601f19601f82011682018060405250810190610c709190611f66565b8a888b8b888b8989604051610c8d99989796959493929190612058565b60405180910390a150506001805550505050505050565b60008082610120015111610cb757600080fd5b600082610120015142610cca91906121be565b905082602001518110610ce1575050610160015190565b6000610d37610d2b610d148660200151610d0e886101600151896101400151611d5b90919063ffffffff16565b90611d67565b610120870151610d25904290611d5b565b90611d73565b61014086015190611d5b565b9050836101600151811015610d4e57506101608301515b9392505050565b609b546001600160a01b03163314610d985760405162461bcd60e51b8152602060048201526006602482015265043444e4841560d41b60448201526064016104d0565b609b805460ff60a01b1916600160a01b1790556040513381527f62e78cea01bee320cd4e420270b5ea74000d11b0c9f74754ebdbfc544b05a258906020015b60405180910390a1565b6065546001600160a01b03163314610e3b5760405162461bcd60e51b815260206004820181905260248201527f4f776e61626c653a2063616c6c6572206973206e6f7420746865206f776e657260448201526064016104d0565b6065546040516000916001600160a01b0316907f8be0079c531659141344cd1fd0a4f28419497f9722a3daafe3b4186f6b6457e0908390a3606580546001600160a01b0319169055565b60026001541415610ed85760405162461bcd60e51b815260206004820152601f60248201527f5265656e7472616e637947756172643a207265656e7472616e742063616c6c0060448201526064016104d0565b60026001556000818152609c602052604090206006015481906001600160a01b0316610f2c5760405162461bcd60e51b815260206004820152600360248201526241444560e81b60448201526064016104d0565b6000828152609c602052604090206002015415610f8b5760405162461bcd60e51b815260206004820152601960248201527f41756374696f6e20616c7265616479206861642061206269640000000000000060448201526064016104d0565b6000828152609c60205260409020600501546001600160a01b0316331461101a5760405162461bcd60e51b815260206004820152603b60248201527f41756374696f6e2063616e206f6e6c792062652063616e63656c6c656420627960448201527f2074686520616464726573732077686f2063726561746564206974000000000060648201526084016104d0565b60036000838152609c602052604090206008015460ff16600381111561105057634e487b7160e01b600052602160045260246000fd5b141561109d576000828152609c602052604090206009015442111561109d5760405162461bcd60e51b815260206004820152600360248201526241415360e81b60448201526064016104d0565b6000828152609c602090815260408083206006810180546007830180548785556001850188905560028501889055600385018890556004850180546001600160a01b031990811690915560058601805482169055831690935586905560088301805460ff1916905560098301869055600a8301869055600b8301869055600c9092019490945581518681526001600160a01b039091169281018390529081018390529091907fc4058ebc534b64ecb27b2d4eaa1904f98997ec18ebe6ada4117593dde89478cc9060600160405180910390a15050600180555050565b609b546001600160a01b031633146111bc5760405162461bcd60e51b8152602060048201526006602482015265043444e4841560d41b60448201526064016104d0565b609b805460ff60a01b191690556040513381527f5db9ee0a495bf2e6ff9c91a7834c1ba4fdd244a5e8aa4e537bd38aeae4b073aa90602001610dd7565b6002600154141561124c5760405162461bcd60e51b815260206004820152601f60248201527f5265656e7472616e637947756172643a207265656e7472616e742063616c6c0060448201526064016104d0565b6002600155609b54600160a01b900460ff16156112915760405162461bcd60e51b815260206004820152600360248201526204349560ec1b60448201526064016104d0565b6000828152609c602052604090206006015482906001600160a01b03166112e05760405162461bcd60e51b815260206004820152600360248201526241444560e81b60448201526064016104d0565b6000838152609c602052604090206002015483901580611307575061130481611d33565b42105b6113385760405162461bcd60e51b8152602060048201526002602482015261414560f01b60448201526064016104d0565b6000848152609c602052604090206009015484904210156113815760405162461bcd60e51b8152602060048201526003602482015262414e5360e81b60448201526064016104d0565b3484146113b95760405162461bcd60e51b815260206004820152600660248201526520a22722a6ab60d11b60448201526064016104d0565b600084116113f15760405162461bcd60e51b81526020600482015260056024820152640414d4754360dc1b60448201526064016104d0565b60026000868152609c602052604090206008015460ff16600381111561142757634e487b7160e01b600052602160045260246000fd5b1480611466575060016000868152609c602052604090206008015460ff16600381111561146457634e487b7160e01b600052602160045260246000fd5b145b156115b2576000858152609c6020526040902054611513576000858152609c602052604090204260028083019190915560089091015460ff1660038111156114be57634e487b7160e01b600052602160045260246000fd5b141561150e576000858152609c602052604090206003015484101561150e5760405162461bcd60e51b81526020600482015260066024820152654d4252504f4d60d01b60448201526064016104d0565b6115b2565b6098546000868152609c60205260409020546115529161153d91606491610d0e919060ff16611d73565b6000878152609c602052604090205490611d7f565b8410156115875760405162461bcd60e51b81526020600482015260036024820152622726a160e91b60448201526064016104d0565b6000858152609c6020526040902080546004909101546115b2916001600160a01b0390911690611d8b565b60036000868152609c602052604090206008015460ff1660038111156115e857634e487b7160e01b600052602160045260246000fd5b141561178d576000858152609c6020526040902060020154156116375760405162461bcd60e51b81526020600482015260076024820152662220a1a7a427a160c91b60448201526064016104d0565b6000858152609c6020908152604080832081516101a08101835281548152600182015493810193909352600281015491830191909152600380820154606084015260048201546001600160a01b0390811660808501526005830154811660a085015260068301541660c0840152600782015460e0840152600882015461173093929161010084019160ff16908111156116e057634e487b7160e01b600052602160045260246000fd5b60038111156116ff57634e487b7160e01b600052602160045260246000fd5b815260200160098201548152602001600a8201548152602001600b8201548152602001600c82015481525050610ca4565b90508034101561176c5760405162461bcd60e51b815260206004820152600760248201526604d5347564745560cc1b60448201526064016104d0565b6000868152609c60205260409020600b810191909155426002909101553493505b6000858152609c602052604090208481556004810180546001600160a01b03191633179055600c0154158015906117f8575060036000868152609c602052604090206008015460ff1660038111156117f557634e487b7160e01b600052602160045260246000fd5b14155b1561187f576000858152609c60205260409020600c015461181a904290611d7f565b61182386611d33565b101561187f5761185861183586611d33565b6000878152609c60205260409020600c0154611852904290611d7f565b90611d5b565b6000868152609c602052604081206001018054909190611879908490612167565b90915550505b6000858152609c6020908152604091829020600681015460079091015483518981526001600160a01b039092169282019290925291820152336060820152608081018590527fdb464088a4002c4d7f9012905642ae91b860df96f9c59c86ecd91d3c42fcd27b9060a00160405180910390a1505060018055505050565b6065546001600160a01b031633146119565760405162461bcd60e51b815260206004820181905260248201527f4f776e61626c653a2063616c6c6572206973206e6f7420746865206f776e657260448201526064016104d0565b6098805460ff191660ff92909216919091179055565b604080516080810182526000808252602082018190529181018290526060810191909152609b54600160a01b900460ff16156119d05760405162461bcd60e51b815260206004820152600360248201526204349560ec1b60448201526064016104d0565b8160036000828152609c602052604090206008015460ff166003811115611a0757634e487b7160e01b600052602160045260246000fd5b1415611a59576000818152609c6020526040902060020154611a545760405162461bcd60e51b81526004016104d0906020808252600490820152634441484360e01b604082015260600190565b611ab3565b6000818152609c602052604090206002015415801590611a815750611a7d81611d33565b4210155b611ab35760405162461bcd60e51b815260206004820152600360248201526241484360e81b60448201526064016104d0565b50506000818152609c60209081526040918290206004810154815460059092015484516080810186529586526001600160a01b03918216938601939093529284015216606082015290565b6065546001600160a01b03163314611b585760405162461bcd60e51b815260206004820181905260248201527f4f776e61626c653a2063616c6c6572206973206e6f7420746865206f776e657260448201526064016104d0565b609a55565b6065546001600160a01b03163314611bb75760405162461bcd60e51b815260206004820181905260248201527f4f776e61626c653a2063616c6c6572206973206e6f7420746865206f776e657260448201526064016104d0565b6001600160a01b038116611c1c5760405162461bcd60e51b815260206004820152602660248201527f4f776e61626c653a206e6577206f776e657220697320746865207a65726f206160448201526564647265737360d01b60648201526084016104d0565b6065546040516001600160a01b038084169216907f8be0079c531659141344cd1fd0a4f28419497f9722a3daafe3b4186f6b6457e090600090a3606580546001600160a01b0319166001600160a01b0392909216919091179055565b609b546001600160a01b03163314611cbb5760405162461bcd60e51b8152602060048201526006602482015265043444e4841560d41b60448201526064016104d0565b609b54611cd1906001600160a01b031682611d8b565b50565b6065546001600160a01b03163314611d2e5760405162461bcd60e51b815260206004820181905260248201527f4f776e61626c653a2063616c6c6572206973206e6f7420746865206f776e657260448201526064016104d0565b609955565b6000818152609c602052604081206001810154600290910154611d5591611d7f565b92915050565b6000610d4e82846121be565b6000610d4e828461217f565b6000610d4e828461219f565b6000610d4e8284612167565b6000826001600160a01b03168260405160006040518083038185875af1925050503d8060008114611dd8576040519150601f19603f3d011682016040523d82523d6000602084013e611ddd565b606091505b5050905080611e2e5760405162461bcd60e51b815260206004820152601f60248201527f4c69625472616e7366657220455448207472616e73666572206661696c65640060448201526064016104d0565b505050565b8035611e3e816121eb565b919050565b803560048110611e3e57600080fd5b600060208284031215611e63578081fd5b8135610d4e816121eb565b600060208284031215611e7f578081fd5b81518015158114610d4e578182fd5b60006101a08284031215611ea0578081fd5b611ea861212f565b82358152602083013560208201526040830135604082015260608301356060820152611ed660808401611e33565b6080820152611ee760a08401611e33565b60a0820152611ef860c08401611e33565b60c082015260e083013560e0820152610100611f15818501611e43565b90820152610120838101359082015261014080840135908201526101608084013590820152610180928301359281019290925250919050565b600060208284031215611f5f578081fd5b5035919050565b600060208284031215611f77578081fd5b5051919050565b60008060408385031215611f90578081fd5b50508035926020909101359150565b60008060008060008060008060006101208a8c031215611fbd578485fd5b8935985060208a0135975060408a0135965060608a0135611fdd816121eb565b9550611feb60808b01611e43565b989b979a50959894979660a0860135965060c08601359560e0810135955061010001359350915050565b600060208284031215612026578081fd5b813560ff81168114610d4e578182fd5b6004811061205457634e487b7160e01b600052602160045260246000fd5b9052565b6000610120820190508a82528960208301526001600160a01b03891660408301528760608301528660808301528560a083015261209860c0830186612036565b60e08201939093526101000152979650505050505050565b8d8152602081018d9052604081018c9052606081018b90526001600160a01b038a8116608083015289811660a0830152881660c082015260e081018790526101a08101612101610100830188612036565b856101208301528461014083015283610160830152826101808301529e9d5050505050505050505050505050565b6040516101a0810167ffffffffffffffff8111828210171561216157634e487b7160e01b600052604160045260246000fd5b60405290565b6000821982111561217a5761217a6121d5565b500190565b60008261219a57634e487b7160e01b81526012600452602481fd5b500490565b60008160001904831182151516156121b9576121b96121d5565b500290565b6000828210156121d0576121d06121d5565b500390565b634e487b7160e01b600052601160045260246000fd5b6001600160a01b0381168114611cd157600080fdfea2646970667358221220687daf9c543b4c8a8937be71361e29e0717725ff60d12cad227facaaebb78c6c64736f6c63430008040033",
  "linkReferences": {},
  "deployedLinkReferences": {}
}