{
  "address": "0x1e555AD11AE568dE4e49c19e342fCc7baFb55845",
  "abi": [
    {
      "anonymous": false,
      "inputs": [
        {
          "indexed": false,
          "internalType": "bool",
          "name": "result",
          "type": "bool"
        },
        {
          "indexed": true,
          "internalType": "address",
          "name": "sender",
          "type": "address"
        }
      ],
      "name": "Execution",
      "type": "event"
    },
    {
      "anonymous": false,
      "inputs": [
        {
          "indexed": false,
          "internalType": "uint8",
          "name": "version",
          "type": "uint8"
        }
      ],
      "name": "Initialized",
      "type": "event"
    },
    {
      "anonymous": false,
      "inputs": [
        {
          "indexed": true,
          "internalType": "address",
          "name": "previousOwner",
          "type": "address"
        },
        {
          "indexed": true,
          "internalType": "address",
          "name": "newOwner",
          "type": "address"
        }
      ],
      "name": "OwnershipTransferred",
      "type": "event"
    },
    {
      "anonymous": false,
      "inputs": [
        {
          "indexed": false,
          "internalType": "address",
          "name": "account",
          "type": "address"
        }
      ],
      "name": "Paused",
      "type": "event"
    },
    {
      "anonymous": false,
      "inputs": [
        {
          "indexed": false,
          "internalType": "address",
          "name": "account",
          "type": "address"
        }
      ],
      "name": "Unpaused",
      "type": "event"
    },
    {
      "inputs": [
        {
          "internalType": "address",
          "name": "_exchangeV2",
          "type": "address"
        },
        {
          "internalType": "address",
          "name": "_rarible",
          "type": "address"
        },
        {
          "internalType": "address",
          "name": "_wyvern",
          "type": "address"
        },
        {
          "internalType": "address",
          "name": "_seaport",
          "type": "address"
        },
        {
          "internalType": "address",
          "name": "_x2y2",
          "type": "address"
        },
        {
          "internalType": "address",
          "name": "_looksrare",
          "type": "address"
        },
        {
          "internalType": "address",
          "name": "_sudoswap",
          "type": "address"
        },
        {
          "internalType": "address",
          "name": "_blur",
          "type": "address"
        }
      ],
      "name": "__ExchangeWrapper_init",
      "outputs": [],
      "stateMutability": "nonpayable",
      "type": "function"
    },
    {
      "inputs": [],
      "name": "blur",
      "outputs": [
        {
          "internalType": "address",
          "name": "",
          "type": "address"
        }
      ],
      "stateMutability": "view",
      "type": "function"
    },
    {
      "inputs": [
        {
          "components": [
            {
              "internalType": "enum ExchangeWrapperCore.Markets",
              "name": "marketId",
              "type": "uint8"
            },
            {
              "internalType": "uint256",
              "name": "amount",
              "type": "uint256"
            },
            {
              "internalType": "uint256",
              "name": "fees",
              "type": "uint256"
            },
            {
              "internalType": "bytes",
              "name": "data",
              "type": "bytes"
            }
          ],
          "internalType": "struct ExchangeWrapperCore.PurchaseDetails[]",
          "name": "purchaseDetails",
          "type": "tuple[]"
        },
        {
          "internalType": "address",
          "name": "feeRecipientFirst",
          "type": "address"
        },
        {
          "internalType": "address",
          "name": "feeRecipientSecond",
          "type": "address"
        },
        {
          "internalType": "bool",
          "name": "allowFail",
          "type": "bool"
        }
      ],
      "name": "bulkPurchase",
      "outputs": [],
      "stateMutability": "payable",
      "type": "function"
    },
    {
      "inputs": [
        {
          "components": [
            {
              "internalType": "enum ExchangeWrapperCore.Markets",
              "name": "marketId",
              "type": "uint8"
            },
            {
              "internalType": "uint256",
              "name": "amount",
              "type": "uint256"
            },
            {
              "internalType": "uint256",
              "name": "fees",
              "type": "uint256"
            },
            {
              "internalType": "bytes",
              "name": "data",
              "type": "bytes"
            }
          ],
          "internalType": "struct ExchangeWrapperCore.PurchaseDetails[]",
          "name": "purchaseDetails",
          "type": "tuple[]"
        },
        {
          "internalType": "address",
          "name": "feeRecipientFirst",
          "type": "address"
        },
        {
          "internalType": "address",
          "name": "feeRecipientSecond",
          "type": "address"
        },
        {
          "internalType": "bool",
          "name": "allowFail",
          "type": "bool"
        },
        {
          "components": [
            {
              "internalType": "bytes",
              "name": "path",
              "type": "bytes"
            },
            {
              "internalType": "uint256",
              "name": "amountOut",
              "type": "uint256"
            },
            {
              "internalType": "uint256",
              "name": "amountInMaximum",
              "type": "uint256"
            },
            {
              "internalType": "bool",
              "name": "unwrap",
              "type": "bool"
            }
          ],
          "internalType": "struct ExchangeWrapperCore.SwapDetailsIn",
          "name": "swapDetails",
          "type": "tuple"
        }
      ],
      "name": "bulkPurchaseWithSwap",
      "outputs": [],
      "stateMutability": "payable",
      "type": "function"
    },
    {
      "inputs": [
        {
          "components": [
            {
              "internalType": "enum ExchangeWrapperCore.Markets",
              "name": "marketId",
              "type": "uint8"
            },
            {
              "internalType": "uint256",
              "name": "amount",
              "type": "uint256"
            },
            {
              "internalType": "uint256",
              "name": "fees",
              "type": "uint256"
            },
            {
              "internalType": "bytes",
              "name": "data",
              "type": "bytes"
            }
          ],
          "internalType": "struct ExchangeWrapperCore.PurchaseDetails[]",
          "name": "purchaseDetails",
          "type": "tuple[]"
        },
        {
          "internalType": "address",
          "name": "feeRecipientFirst",
          "type": "address"
        },
        {
          "internalType": "address",
          "name": "feeRecipientSecond",
          "type": "address"
        },
        {
          "internalType": "bool",
          "name": "allowFail",
          "type": "bool"
        },
        {
          "components": [
            {
              "internalType": "address[]",
              "name": "path",
              "type": "address[]"
            },
            {
              "internalType": "uint256",
              "name": "amountOut",
              "type": "uint256"
            },
            {
              "internalType": "uint256",
              "name": "amountInMaximum",
              "type": "uint256"
            },
            {
              "internalType": "uint256[]",
              "name": "binSteps",
              "type": "uint256[]"
            },
            {
              "internalType": "bool",
              "name": "unwrap",
              "type": "bool"
            }
          ],
          "internalType": "struct ExchangeWrapperCore.SwapV2DetailsIn",
          "name": "swapDetails",
          "type": "tuple"
        }
      ],
      "name": "bulkPurchaseWithV2Swap",
      "outputs": [],
      "stateMutability": "payable",
      "type": "function"
    },
    {
      "inputs": [],
      "name": "erc20TransferProxy",
      "outputs": [
        {
          "internalType": "address",
          "name": "",
          "type": "address"
        }
      ],
      "stateMutability": "view",
      "type": "function"
    },
    {
      "inputs": [],
      "name": "exchangeV2",
      "outputs": [
        {
          "internalType": "address",
          "name": "",
          "type": "address"
        }
      ],
      "stateMutability": "view",
      "type": "function"
    },
    {
      "inputs": [],
      "name": "looksrare",
      "outputs": [
        {
          "internalType": "address",
          "name": "",
          "type": "address"
        }
      ],
      "stateMutability": "view",
      "type": "function"
    },
    {
      "inputs": [
        {
          "internalType": "address",
          "name": "",
          "type": "address"
        },
        {
          "internalType": "address",
          "name": "",
          "type": "address"
        },
        {
          "internalType": "uint256[]",
          "name": "",
          "type": "uint256[]"
        },
        {
          "internalType": "uint256[]",
          "name": "",
          "type": "uint256[]"
        },
        {
          "internalType": "bytes",
          "name": "",
          "type": "bytes"
        }
      ],
      "name": "onERC1155BatchReceived",
      "outputs": [
        {
          "internalType": "bytes4",
          "name": "",
          "type": "bytes4"
        }
      ],
      "stateMutability": "nonpayable",
      "type": "function"
    },
    {
      "inputs": [
        {
          "internalType": "address",
          "name": "",
          "type": "address"
        },
        {
          "internalType": "address",
          "name": "",
          "type": "address"
        },
        {
          "internalType": "uint256",
          "name": "",
          "type": "uint256"
        },
        {
          "internalType": "uint256",
          "name": "",
          "type": "uint256"
        },
        {
          "internalType": "bytes",
          "name": "",
          "type": "bytes"
        }
      ],
      "name": "onERC1155Received",
      "outputs": [
        {
          "internalType": "bytes4",
          "name": "",
          "type": "bytes4"
        }
      ],
      "stateMutability": "nonpayable",
      "type": "function"
    },
    {
      "inputs": [
        {
          "internalType": "address",
          "name": "",
          "type": "address"
        },
        {
          "internalType": "address",
          "name": "",
          "type": "address"
        },
        {
          "internalType": "uint256",
          "name": "",
          "type": "uint256"
        },
        {
          "internalType": "bytes",
          "name": "",
          "type": "bytes"
        }
      ],
      "name": "onERC721Received",
      "outputs": [
        {
          "internalType": "bytes4",
          "name": "",
          "type": "bytes4"
        }
      ],
      "stateMutability": "nonpayable",
      "type": "function"
    },
    {
      "inputs": [],
      "name": "owner",
      "outputs": [
        {
          "internalType": "address",
          "name": "",
          "type": "address"
        }
      ],
      "stateMutability": "view",
      "type": "function"
    },
    {
      "inputs": [],
      "name": "pause",
      "outputs": [],
      "stateMutability": "nonpayable",
      "type": "function"
    },
    {
      "inputs": [],
      "name": "paused",
      "outputs": [
        {
          "internalType": "bool",
          "name": "",
          "type": "bool"
        }
      ],
      "stateMutability": "view",
      "type": "function"
    },
    {
      "inputs": [],
      "name": "rarible",
      "outputs": [
        {
          "internalType": "address",
          "name": "",
          "type": "address"
        }
      ],
      "stateMutability": "view",
      "type": "function"
    },
    {
      "inputs": [],
      "name": "renounceOwnership",
      "outputs": [],
      "stateMutability": "nonpayable",
      "type": "function"
    },
    {
      "inputs": [],
      "name": "seaport",
      "outputs": [
        {
          "internalType": "address",
          "name": "",
          "type": "address"
        }
      ],
      "stateMutability": "view",
      "type": "function"
    },
    {
      "inputs": [
        {
          "internalType": "address",
          "name": "_blur",
          "type": "address"
        }
      ],
      "name": "setBlur",
      "outputs": [],
      "stateMutability": "nonpayable",
      "type": "function"
    },
    {
      "inputs": [
        {
          "internalType": "address",
          "name": "_rarible",
          "type": "address"
        }
      ],
      "name": "setRarible",
      "outputs": [],
      "stateMutability": "nonpayable",
      "type": "function"
    },
    {
      "inputs": [
        {
          "internalType": "address",
          "name": "_erc20TransferProxy",
          "type": "address"
        }
      ],
      "name": "setTransferProxy",
      "outputs": [],
      "stateMutability": "nonpayable",
      "type": "function"
    },
    {
      "inputs": [
        {
          "internalType": "contract ISwapRouterV2",
          "name": "_uniswapRouterV2",
          "type": "address"
        }
      ],
      "name": "setUniswapV2",
      "outputs": [],
      "stateMutability": "nonpayable",
      "type": "function"
    },
    {
      "inputs": [
        {
          "internalType": "contract ISwapRouterV3",
          "name": "_uniswapRouterV3",
          "type": "address"
        }
      ],
      "name": "setUniswapV3",
      "outputs": [],
      "stateMutability": "nonpayable",
      "type": "function"
    },
    {
      "inputs": [
        {
          "internalType": "address",
          "name": "_wrappedToken",
          "type": "address"
        }
      ],
      "name": "setWrapped",
      "outputs": [],
      "stateMutability": "nonpayable",
      "type": "function"
    },
    {
      "inputs": [
        {
          "components": [
            {
              "internalType": "enum ExchangeWrapperCore.Markets",
              "name": "marketId",
              "type": "uint8"
            },
            {
              "internalType": "uint256",
              "name": "amount",
              "type": "uint256"
            },
            {
              "internalType": "uint256",
              "name": "fees",
              "type": "uint256"
            },
            {
              "internalType": "bytes",
              "name": "data",
              "type": "bytes"
            }
          ],
          "internalType": "struct ExchangeWrapperCore.PurchaseDetails",
          "name": "purchaseDetails",
          "type": "tuple"
        },
        {
          "internalType": "address",
          "name": "feeRecipientFirst",
          "type": "address"
        },
        {
          "internalType": "address",
          "name": "feeRecipientSecond",
          "type": "address"
        }
      ],
      "name": "singlePurchase",
      "outputs": [],
      "stateMutability": "payable",
      "type": "function"
    },
    {
      "inputs": [],
      "name": "sudoswap",
      "outputs": [
        {
          "internalType": "address",
          "name": "",
          "type": "address"
        }
      ],
      "stateMutability": "view",
      "type": "function"
    },
    {
      "inputs": [
        {
          "internalType": "bytes4",
          "name": "interfaceId",
          "type": "bytes4"
        }
      ],
      "name": "supportsInterface",
      "outputs": [
        {
          "internalType": "bool",
          "name": "",
          "type": "bool"
        }
      ],
      "stateMutability": "view",
      "type": "function"
    },
    {
      "inputs": [
        {
          "components": [
            {
              "internalType": "bytes",
              "name": "path",
              "type": "bytes"
            },
            {
              "internalType": "uint256",
              "name": "amountIn",
              "type": "uint256"
            },
            {
              "internalType": "uint256",
              "name": "amountOutMinimum",
              "type": "uint256"
            },
            {
              "internalType": "bool",
              "name": "unwrap",
              "type": "bool"
            }
          ],
          "internalType": "struct ExchangeWrapperCore.SwapDetailsOut",
          "name": "swapDetails",
          "type": "tuple"
        }
      ],
      "name": "swapExactTokensForTokens",
      "outputs": [
        {
          "internalType": "bool",
          "name": "",
          "type": "bool"
        }
      ],
      "stateMutability": "payable",
      "type": "function"
    },
    {
      "inputs": [
        {
          "components": [
            {
              "internalType": "bytes",
              "name": "path",
              "type": "bytes"
            },
            {
              "internalType": "uint256",
              "name": "amountOut",
              "type": "uint256"
            },
            {
              "internalType": "uint256",
              "name": "amountInMaximum",
              "type": "uint256"
            },
            {
              "internalType": "bool",
              "name": "unwrap",
              "type": "bool"
            }
          ],
          "internalType": "struct ExchangeWrapperCore.SwapDetailsIn",
          "name": "swapDetails",
          "type": "tuple"
        },
        {
          "internalType": "bool",
          "name": "combined",
          "type": "bool"
        }
      ],
      "name": "swapTokensForExactTokens",
      "outputs": [
        {
          "internalType": "bool",
          "name": "",
          "type": "bool"
        }
      ],
      "stateMutability": "payable",
      "type": "function"
    },
    {
      "inputs": [
        {
          "components": [
            {
              "internalType": "address[]",
              "name": "path",
              "type": "address[]"
            },
            {
              "internalType": "uint256",
              "name": "amountIn",
              "type": "uint256"
            },
            {
              "internalType": "uint256",
              "name": "amountOutMinimum",
              "type": "uint256"
            },
            {
              "internalType": "uint256[]",
              "name": "binSteps",
              "type": "uint256[]"
            },
            {
              "internalType": "bool",
              "name": "unwrap",
              "type": "bool"
            }
          ],
          "internalType": "struct ExchangeWrapperCore.SwapV2DetailsOut",
          "name": "swapDetails",
          "type": "tuple"
        }
      ],
      "name": "swapV2ExactETHOrWETHForTokens",
      "outputs": [
        {
          "internalType": "bool",
          "name": "",
          "type": "bool"
        }
      ],
      "stateMutability": "payable",
      "type": "function"
    },
    {
      "inputs": [
        {
          "components": [
            {
              "internalType": "address[]",
              "name": "path",
              "type": "address[]"
            },
            {
              "internalType": "uint256",
              "name": "amountIn",
              "type": "uint256"
            },
            {
              "internalType": "uint256",
              "name": "amountOutMinimum",
              "type": "uint256"
            },
            {
              "internalType": "uint256[]",
              "name": "binSteps",
              "type": "uint256[]"
            },
            {
              "internalType": "bool",
              "name": "unwrap",
              "type": "bool"
            }
          ],
          "internalType": "struct ExchangeWrapperCore.SwapV2DetailsOut",
          "name": "swapDetails",
          "type": "tuple"
        }
      ],
      "name": "swapV2ExactTokensForTokens",
      "outputs": [
        {
          "internalType": "bool",
          "name": "",
          "type": "bool"
        }
      ],
      "stateMutability": "nonpayable",
      "type": "function"
    },
    {
      "inputs": [
        {
          "components": [
            {
              "internalType": "address[]",
              "name": "path",
              "type": "address[]"
            },
            {
              "internalType": "uint256",
              "name": "amountOut",
              "type": "uint256"
            },
            {
              "internalType": "uint256",
              "name": "amountInMaximum",
              "type": "uint256"
            },
            {
              "internalType": "uint256[]",
              "name": "binSteps",
              "type": "uint256[]"
            },
            {
              "internalType": "bool",
              "name": "unwrap",
              "type": "bool"
            }
          ],
          "internalType": "struct ExchangeWrapperCore.SwapV2DetailsIn",
          "name": "swapDetails",
          "type": "tuple"
        },
        {
          "internalType": "bool",
          "name": "combined",
          "type": "bool"
        }
      ],
      "name": "swapV2TokensForExactETHOrWETH",
      "outputs": [
        {
          "internalType": "bool",
          "name": "",
          "type": "bool"
        }
      ],
      "stateMutability": "nonpayable",
      "type": "function"
    },
    {
      "inputs": [
        {
          "components": [
            {
              "internalType": "address[]",
              "name": "path",
              "type": "address[]"
            },
            {
              "internalType": "uint256",
              "name": "amountOut",
              "type": "uint256"
            },
            {
              "internalType": "uint256",
              "name": "amountInMaximum",
              "type": "uint256"
            },
            {
              "internalType": "uint256[]",
              "name": "binSteps",
              "type": "uint256[]"
            },
            {
              "internalType": "bool",
              "name": "unwrap",
              "type": "bool"
            }
          ],
          "internalType": "struct ExchangeWrapperCore.SwapV2DetailsIn",
          "name": "swapDetails",
          "type": "tuple"
        },
        {
          "internalType": "bool",
          "name": "combined",
          "type": "bool"
        }
      ],
      "name": "swapV2TokensForExactTokens",
      "outputs": [
        {
          "internalType": "bool",
          "name": "",
          "type": "bool"
        }
      ],
      "stateMutability": "nonpayable",
      "type": "function"
    },
    {
      "inputs": [
        {
          "internalType": "address",
          "name": "newOwner",
          "type": "address"
        }
      ],
      "name": "transferOwnership",
      "outputs": [],
      "stateMutability": "nonpayable",
      "type": "function"
    },
    {
      "inputs": [],
      "name": "uniswapRouterV2",
      "outputs": [
        {
          "internalType": "contract ISwapRouterV2",
          "name": "",
          "type": "address"
        }
      ],
      "stateMutability": "view",
      "type": "function"
    },
    {
      "inputs": [],
      "name": "uniswapRouterV3",
      "outputs": [
        {
          "internalType": "contract ISwapRouterV3",
          "name": "",
          "type": "address"
        }
      ],
      "stateMutability": "view",
      "type": "function"
    },
    {
      "inputs": [],
      "name": "unpause",
      "outputs": [],
      "stateMutability": "nonpayable",
      "type": "function"
    },
    {
      "inputs": [],
      "name": "wrappedToken",
      "outputs": [
        {
          "internalType": "address",
          "name": "",
          "type": "address"
        }
      ],
      "stateMutability": "view",
      "type": "function"
    },
    {
      "inputs": [],
      "name": "wyvern",
      "outputs": [
        {
          "internalType": "address",
          "name": "",
          "type": "address"
        }
      ],
      "stateMutability": "view",
      "type": "function"
    },
    {
      "inputs": [],
      "name": "x2y2",
      "outputs": [
        {
          "internalType": "address",
          "name": "",
          "type": "address"
        }
      ],
      "stateMutability": "view",
      "type": "function"
    },
    {
      "stateMutability": "payable",
      "type": "receive"
    }
  ],
  "transactionHash": "0x49da77f8446e9129ba7a821fea6639e3359dad7113acff3594ae929a6ca51247",
  "args": [],
  "numDeployments": 2,
  "solcInputHash": "4c9df9b56afbd8c50a8913f0f5775ab0",
  "bytecode": "0x608060405234801561001057600080fd5b50615e7180620000216000396000f3fe6080604052600436106102245760003560e01c806387653f801161012e578063c4e55fd3116100ab578063f23a6e611161006f578063f23a6e6114610649578063f2fde38b14610675578063f5c7bd7014610695578063fc40c9c7146106b5578063fee03e9e146106d557600080fd5b8063c4e55fd3146105c3578063c6d0ffd7146105e3578063cd7f4a0f14610603578063d71c4dd014610616578063df6c25581461062957600080fd5b8063a8e90b57116100f2578063a8e90b5714610524578063aa78ae9314610544578063b94ee33214610564578063bc197c8114610577578063c1aa2938146105a357600080fd5b806387653f80146104935780638ae42905146104a65780638da5cb5b146104c6578063996c6cc3146104e4578063a05f32dc1461050457600080fd5b8063596fa9e3116101bc57806373a963d71161018057806373a963d71461040b578063745fdf8e1461042b5780637908716c1461044b5780638456cb591461046b57806386496e7a1461048057600080fd5b8063596fa9e31461037e57806359e868291461039e5780635c975abb146103be5780635ea1e4c9146103d6578063715018a6146103f657600080fd5b806301ffc9a71461023057806308b1571d1461026557806310f91b0b14610287578063150b7a02146102bf5780632bf92a43146103035780632c979b1614610316578063348c4efd146103365780633f4ba83a146103495780634edfc9f91461035e57600080fd5b3661022b57005b600080fd5b34801561023c57600080fd5b5061025061024b366004614020565b6106f5565b60405190151581526020015b60405180910390f35b34801561027157600080fd5b50610285610280366004614052565b61072c565b005b34801561029357600080fd5b5060a0546102a7906001600160a01b031681565b6040516001600160a01b03909116815260200161025c565b3480156102cb57600080fd5b506102ea6102da36600461424b565b630a85bd0160e11b949350505050565b6040516001600160e01b0319909116815260200161025c565b61028561031136600461454a565b610756565b34801561032257600080fd5b506102506103313660046145eb565b610823565b6102856103443660046146aa565b610ce8565b34801561035557600080fd5b50610285610d1c565b34801561036a57600080fd5b506099546102a7906001600160a01b031681565b34801561038a57600080fd5b50609f546102a7906001600160a01b031681565b3480156103aa57600080fd5b506102856103b9366004614052565b610d2e565b3480156103ca57600080fd5b5060655460ff16610250565b3480156103e257600080fd5b50609d546102a7906001600160a01b031681565b34801561040257600080fd5b50610285610d58565b34801561041757600080fd5b50610285610426366004614052565b610d6a565b34801561043757600080fd5b506102506104463660046145eb565b610d94565b34801561045757600080fd5b50610285610466366004614052565b611399565b34801561047757600080fd5b506102856113c3565b61028561048e36600461474b565b6113d3565b6102506104a13660046147ae565b611458565b3480156104b257600080fd5b506102856104c1366004614052565b611a2b565b3480156104d257600080fd5b506033546001600160a01b03166102a7565b3480156104f057600080fd5b5060a1546102a7906001600160a01b031681565b34801561051057600080fd5b506097546102a7906001600160a01b031681565b34801561053057600080fd5b50609c546102a7906001600160a01b031681565b34801561055057600080fd5b5061028561055f3660046147ea565b611a55565b610285610572366004614893565b611bf8565b34801561058357600080fd5b506102ea610592366004614907565b63bc197c8160e01b95945050505050565b3480156105af57600080fd5b506102856105be366004614052565b611d21565b3480156105cf57600080fd5b506102506105de3660046149a7565b611d4b565b3480156105ef57600080fd5b506098546102a7906001600160a01b031681565b6102506106113660046149a7565b612158565b6102506106243660046149db565b6125c6565b34801561063557600080fd5b50609e546102a7906001600160a01b031681565b34801561065557600080fd5b506102ea610664366004614a10565b63f23a6e6160e01b95945050505050565b34801561068157600080fd5b50610285610690366004614052565b612c55565b3480156106a157600080fd5b50609a546102a7906001600160a01b031681565b3480156106c157600080fd5b50609b546102a7906001600160a01b031681565b3480156106e157600080fd5b5060a2546102a7906001600160a01b031681565b60006001600160e01b03198216630271189760e51b148061072657506301ffc9a760e01b6001600160e01b03198316145b92915050565b610734612cce565b609e80546001600160a01b0319166001600160a01b0392909216919091179055565b61075e612d28565b805180516000919061077290600190614a8e565b8151811061078257610782614aa5565b602090810291909101015160a1549091506001600160a01b03808316911614156107e15760006107b3836001610d94565b9050806107db5760405162461bcd60e51b81526004016107d290614abb565b60405180910390fd5b5061080f565b60006107ee836001610823565b90508061080d5760405162461bcd60e51b81526004016107d290614abb565b505b61081b86868686611bf8565b505050505050565b600080836000015160008151811061083d5761083d614aa5565b602090810291909101015160a2549091506001600160a01b031663776062c382333088604001516040518563ffffffff1660e01b81526004016108839493929190614ae8565b600060405180830381600087803b15801561089d57600080fd5b505af11580156108b1573d6000803e3d6000fd5b5050609f54604051636eb1769f60e11b8152600093506001600160a01b03808616935063dd62ed3e926108eb929116903090600401614b12565b60206040518083038186803b15801561090357600080fd5b505afa158015610917573d6000803e3d6000fd5b505050506040513d601f19601f8201168201806040525081019061093b9190614b2c565b905084604001518110156109d357609f5460405163095ea7b360e01b81526001600160a01b038481169263095ea7b39261097f929091169060001990600401614b45565b602060405180830381600087803b15801561099957600080fd5b505af11580156109ad573d6000803e3d6000fd5b505050506040513d601f19601f820116820180604052508101906109d19190614b69565b505b46600061a86a8214806109e757508161a869145b905060008115610abc57609f5460208901516040808b015160608c01518c51925163a7b856d360e01b81526001600160a01b039095169463a7b856d394610a38949093929130904290600401614bfa565b600060405180830381600087803b158015610a5257600080fd5b505af1925050508015610a8757506040513d6000823e601f3d908101601f19168201604052610a849190810190614ca5565b60015b610a9957600095505050505050610726565b80600081518110610aac57610aac614aa5565b6020026020010151915050610b7d565b609f5460208901516040808b01518b519151634401edf760e11b81526001600160a01b0390941693638803dbee93610afd9390929130904290600401614cd9565b600060405180830381600087803b158015610b1757600080fd5b505af1925050508015610b4c57506040513d6000823e601f3d908101601f19168201604052610b499190810190614ca5565b60015b610b5e57600095505050505050610726565b80600081518110610b7157610b71614aa5565b60200260200101519150505b8760400151811015610c1a576001600160a01b03851663a9059cbb33838b60400151610ba99190614a8e565b6040518363ffffffff1660e01b8152600401610bc6929190614b45565b602060405180830381600087803b158015610be057600080fd5b505af1158015610bf4573d6000803e3d6000fd5b505050506040513d601f19601f82011682018060405250810190610c189190614b69565b505b86610cda578751805160009190610c3390600190614a8e565b81518110610c4357610c43614aa5565b60200260200101519050806001600160a01b031663a9059cbb610c633390565b8b602001516040518363ffffffff1660e01b8152600401610c85929190614b45565b602060405180830381600087803b158015610c9f57600080fd5b505af1158015610cb3573d6000803e3d6000fd5b505050506040513d601f19601f82011682018060405250810190610cd79190614b69565b50505b506001979650505050505050565b610cf0612d28565b6000610cfd8260016125c6565b90508061080f5760405162461bcd60e51b81526004016107d290614abb565b610d24612cce565b610d2c612d6e565b565b610d36612cce565b60a080546001600160a01b0319166001600160a01b0392909216919091179055565b610d60612cce565b610d2c6000612dc0565b610d72612cce565b609f80546001600160a01b0319166001600160a01b0392909216919091179055565b6000808360000151600081518110610dae57610dae614aa5565b602090810291909101015160a2549091506001600160a01b031663776062c382333088604001516040518563ffffffff1660e01b8152600401610df49493929190614ae8565b600060405180830381600087803b158015610e0e57600080fd5b505af1158015610e22573d6000803e3d6000fd5b505060a1546001600160a01b038481169116149150508015610e45575083608001515b15610ee05760a1546040808601519051632e1a7d4d60e01b81526001600160a01b0390921691632e1a7d4d91610e819160040190815260200190565b600060405180830381600087803b158015610e9b57600080fd5b505af1158015610eaf573d6000803e3d6000fd5b5050505082610ed657610ed68460400151610ec73390565b6001600160a01b031690612e12565b6001915050610726565b609f54604051636eb1769f60e11b81526000916001600160a01b038085169263dd62ed3e92610f159216903090600401614b12565b60206040518083038186803b158015610f2d57600080fd5b505afa158015610f41573d6000803e3d6000fd5b505050506040513d601f19601f82011682018060405250810190610f659190614b2c565b90508460400151811015610ffd57609f5460405163095ea7b360e01b81526001600160a01b038481169263095ea7b392610fa9929091169060001990600401614b45565b602060405180830381600087803b158015610fc357600080fd5b505af1158015610fd7573d6000803e3d6000fd5b505050506040513d601f19601f82011682018060405250810190610ffb9190614b69565b505b46600061a86a82148061101157508161a869145b9050600081156110e657609f5460208901516040808b015160608c01518c519251636d3420ed60e01b81526001600160a01b0390951694636d3420ed94611062949093929130904290600401614bfa565b600060405180830381600087803b15801561107c57600080fd5b505af19250505080156110b157506040513d6000823e601f3d908101601f191682016040526110ae9190810190614ca5565b60015b6110c357600095505050505050610726565b806000815181106110d6576110d6614aa5565b60200260200101519150506111a7565b609f5460208901516040808b01518b519151632512eca560e11b81526001600160a01b0390941693634a25d94a936111279390929130904290600401614cd9565b600060405180830381600087803b15801561114157600080fd5b505af192505050801561117657506040513d6000823e601f3d908101601f191682016040526111739190810190614ca5565b60015b61118857600095505050505050610726565b8060008151811061119b5761119b614aa5565b60200260200101519150505b8760400151811015611244576001600160a01b03851663a9059cbb33838b604001516111d39190614a8e565b6040518363ffffffff1660e01b81526004016111f0929190614b45565b602060405180830381600087803b15801561120a57600080fd5b505af115801561121e573d6000803e3d6000fd5b505050506040513d601f19601f820116820180604052508101906112429190614b69565b505b8760800151156112bc5760a160009054906101000a90046001600160a01b03166001600160a01b031663d0e30db089602001516040518263ffffffff1660e01b81526004016000604051808303818588803b1580156112a257600080fd5b505af11580156112b6573d6000803e3d6000fd5b50505050505b86610cda5787608001511561138a5787518051600091906112df90600190614a8e565b815181106112ef576112ef614aa5565b60200260200101519050806001600160a01b031663a9059cbb61130f3390565b8b602001516040518363ffffffff1660e01b8152600401611331929190614b45565b602060405180830381600087803b15801561134b57600080fd5b505af115801561135f573d6000803e3d6000fd5b505050506040513d601f19601f820116820180604052508101906113839190614b69565b5050610cda565b610cda8860200151610ec73390565b6113a1612cce565b609880546001600160a01b0319166001600160a01b0392909216919091179055565b6113cb612cce565b610d2c612ecb565b6113db612d28565b60008060006113eb866000612f08565b9250925092506113f83390565b6001600160a01b03167fc5dd8c21802b423a9c822ee9c934f042186e6bb7097a1dd17717343ee84df71484604051611434911515815260200190565b60405180910390a26114468286613c10565b6114508185613c10565b61081b613c3b565b600080600080846000015190506000601482516114759190614a8e565b9050600160601b81602084010151049350600160601b6000602084010151049250346000141561150a5760a2546001600160a01b031663776062c38533308a602001516040518563ffffffff1660e01b81526004016114d79493929190614ae8565b600060405180830381600087803b1580156114f157600080fd5b505af1158015611505573d6000803e3d6000fd5b505050505b60a1546001600160a01b038581169116148015611528575085606001515b156115b15760a1546020870151604051632e1a7d4d60e01b81526001600160a01b0390921691632e1a7d4d916115649160040190815260200190565b600060405180830381600087803b15801561157e57600080fd5b505af1158015611592573d6000803e3d6000fd5b505050506115a58660200151610ec73390565b50600195945050505050565b6000341180156115ce575060a1546001600160a01b038481169116145b156116d35760a160009054906101000a90046001600160a01b03166001600160a01b031663d0e30db0346040518263ffffffff1660e01b81526004016000604051808303818588803b15801561162357600080fd5b505af1158015611637573d6000803e3d6000fd5b5050505050826001600160a01b031663a9059cbb6116523390565b88602001516040518363ffffffff1660e01b8152600401611674929190614b45565b602060405180830381600087803b15801561168e57600080fd5b505af11580156116a2573d6000803e3d6000fd5b505050506040513d601f19601f820116820180604052508101906116c69190614b69565b5060019695505050505050565b60a054604051636eb1769f60e11b81526000916001600160a01b038088169263dd62ed3e926117089216903090600401614b12565b60206040518083038186803b15801561172057600080fd5b505afa158015611734573d6000803e3d6000fd5b505050506040513d601f19601f820116820180604052508101906117589190614b2c565b905086602001518110156117f05760a05460405163095ea7b360e01b81526001600160a01b038781169263095ea7b39261179c929091169060001990600401614b45565b602060405180830381600087803b1580156117b657600080fd5b505af11580156117ca573d6000803e3d6000fd5b505050506040513d601f19601f820116820180604052508101906117ee9190614b69565b505b6040805160a08082018352895182523060208084019190915242838501528a0151606083015289830151608083015254915163c04b8d5960e01b815290916000916001600160a01b039091169063c04b8d5990611851908590600401614dbe565b602060405180830381600087803b15801561186b57600080fd5b505af192505050801561189b575060408051601f3d908101601f1916820190925261189891810190614b2c565b60015b6118ae5750600098975050505050505050565b905060a060009054906101000a90046001600160a01b03166001600160a01b03166312210e8a6040518163ffffffff1660e01b8152600401600060405180830381600087803b15801561190057600080fd5b505af1158015611914573d6000803e3d6000fd5b505050508860600151156119815760a154604051632e1a7d4d60e01b8152600481018390526001600160a01b0390911690632e1a7d4d90602401600060405180830381600087803b15801561196857600080fd5b505af115801561197c573d6000803e3d6000fd5b505050505b88606001511561199a576119958133610ec7565b611a1c565b60405163a9059cbb60e01b81526001600160a01b0387169063a9059cbb906119c89033908590600401614b45565b602060405180830381600087803b1580156119e257600080fd5b505af11580156119f6573d6000803e3d6000fd5b505050506040513d601f19601f82011682018060405250810190611a1a9190614b69565b505b50600198975050505050505050565b611a33612cce565b60a280546001600160a01b0319166001600160a01b0392909216919091179055565b600054610100900460ff1615808015611a755750600054600160ff909116105b80611a8f5750303b158015611a8f575060005460ff166001145b611af25760405162461bcd60e51b815260206004820152602e60248201527f496e697469616c697a61626c653a20636f6e747261637420697320616c72656160448201526d191e481a5b9a5d1a585b1a5e995960921b60648201526084016107d2565b6000805460ff191660011790558015611b15576000805461ff0019166101001790555b611b1d613c4c565b611b25613c73565b611b2d613ca3565b609780546001600160a01b03199081166001600160a01b03808d1691909117909255609880548216838c16179055609980548216838b16179055609a80548216838a16179055609b80548216838916179055609c80548216838816179055609d80548216838716179055609e80549091169184169190911790558015611bed576000805461ff0019169055604051600181527f7f26b83ff96e1f2b6a682f133852f6798a09c465da95921460cefb38474024989060200160405180910390a15b505050505050505050565b611c00612d28565b6000806000808751905060005b81811015611cb2576000806000611c3d8c8581518110611c2f57611c2f614aa5565b60200260200101518a612f08565b9250925092508580611c4c5750825b604051841515815290965033907fc5dd8c21802b423a9c822ee9c934f042186e6bb7097a1dd17717343ee84df7149060200160405180910390a2611c908289614dd1565b9750611c9c8188614dd1565b965050505080611cab90614de9565b9050611c0d565b5081611cfb5760405162461bcd60e51b81526020600482015260186024820152776e6f207375636365737366756c20657865637574696f6e7360401b60448201526064016107d2565b611d058488613c10565b611d0f8387613c10565b611d17613c3b565b5050505050505050565b611d29612cce565b60a180546001600160a01b0319166001600160a01b0392909216919091179055565b6000808260000151600081518110611d6557611d65614aa5565b60200260200101519050600083600001516001856000015151611d889190614a8e565b81518110611d9857611d98614aa5565b602090810291909101015160a2549091506001600160a01b031663776062c383333088602001516040518563ffffffff1660e01b8152600401611dde9493929190614ae8565b600060405180830381600087803b158015611df857600080fd5b505af1158015611e0c573d6000803e3d6000fd5b5050609f54604051636eb1769f60e11b8152600093506001600160a01b03808716935063dd62ed3e92611e46929116903090600401614b12565b60206040518083038186803b158015611e5e57600080fd5b505afa158015611e72573d6000803e3d6000fd5b505050506040513d601f19601f82011682018060405250810190611e969190614b2c565b90508460200151811015611f2e57609f5460405163095ea7b360e01b81526001600160a01b038581169263095ea7b392611eda929091169060001990600401614b45565b602060405180830381600087803b158015611ef457600080fd5b505af1158015611f08573d6000803e3d6000fd5b505050506040513d601f19601f82011682018060405250810190611f2c9190614b69565b505b46600061a86a821480611f4257508161a869145b90506000811561201757609f5460208901516040808b015160608c01518c51925163a7b856d360e01b81526001600160a01b039095169463a7b856d394611f93949093929130904290600401614bfa565b600060405180830381600087803b158015611fad57600080fd5b505af1925050508015611fe257506040513d6000823e601f3d908101601f19168201604052611fdf9190810190614ca5565b60015b611ff457506000979650505050505050565b8060008151811061200757612007614aa5565b60200260200101519150506120d8565b609f5460208901516040808b01518b519151634401edf760e11b81526001600160a01b0390941693638803dbee936120589390929130904290600401614cd9565b600060405180830381600087803b15801561207257600080fd5b505af19250505080156120a757506040513d6000823e601f3d908101601f191682016040526120a49190810190614ca5565b60015b6120b957506000979650505050505050565b806000815181106120cc576120cc614aa5565b60200260200101519150505b60405163a9059cbb60e01b81526001600160a01b0386169063a9059cbb906121069033908590600401614b45565b602060405180830381600087803b15801561212057600080fd5b505af1158015612134573d6000803e3d6000fd5b505050506040513d601f19601f82011682018060405250810190611a1c9190614b69565b600080826000015160008151811061217257612172614aa5565b602002602001015190506000836000015160018560000151516121959190614a8e565b815181106121a5576121a5614aa5565b60200260200101519050346000141561228c5760a2546001600160a01b031663776062c383333088602001516040518563ffffffff1660e01b81526004016121f09493929190614ae8565b600060405180830381600087803b15801561220a57600080fd5b505af115801561221e573d6000803e3d6000fd5b505060a1546020870151604051632e1a7d4d60e01b81526001600160a01b039092169350632e1a7d4d92506122599160040190815260200190565b600060405180830381600087803b15801561227357600080fd5b505af1158015612287573d6000803e3d6000fd5b505050505b6000341180156122a9575060a1546001600160a01b038281169116145b156123ac5760a160009054906101000a90046001600160a01b03166001600160a01b031663d0e30db0346040518263ffffffff1660e01b81526004016000604051808303818588803b1580156122fe57600080fd5b505af1158015612312573d6000803e3d6000fd5b5050505050806001600160a01b031663a9059cbb61232d3390565b86602001516040518363ffffffff1660e01b815260040161234f929190614b45565b602060405180830381600087803b15801561236957600080fd5b505af115801561237d573d6000803e3d6000fd5b505050506040513d601f19601f820116820180604052508101906123a19190614b69565b506001949350505050565b46600061a86a8214806123c057508161a869145b90506000811561248d57609f5460408089015160608a01518a519251631325dca760e11b81526001600160a01b039094169363264bb94e9361240a93929130904290600401614e04565b600060405180830381600087803b15801561242457600080fd5b505af192505050801561245957506040513d6000823e601f3d908101601f191682016040526124569190810190614ca5565b60015b61246a575060009695505050505050565b8060008151811061247d5761247d614aa5565b6020026020010151915050612546565b609f5460408089015189519151637ff36ab560e01b81526001600160a01b0390931692637ff36ab5926124c7929130904290600401614e4d565b600060405180830381600087803b1580156124e157600080fd5b505af192505050801561251657506040513d6000823e601f3d908101601f191682016040526125139190810190614ca5565b60015b612527575060009695505050505050565b8060008151811061253a5761253a614aa5565b60200260200101519150505b60405163a9059cbb60e01b81526001600160a01b0385169063a9059cbb906125749033908590600401614b45565b602060405180830381600087803b15801561258e57600080fd5b505af11580156125a2573d6000803e3d6000fd5b505050506040513d601f19601f82011682018060405250810190610cda9190614b69565b600080600080856000015190506000601482516125e39190614a8e565b9050600160601b81602084010151049350600160601b600060208401015104925034600014156126785760a2546001600160a01b031663776062c38533308b604001516040518563ffffffff1660e01b81526004016126459493929190614ae8565b600060405180830381600087803b15801561265f57600080fd5b505af1158015612673573d6000803e3d6000fd5b505050505b60a1546001600160a01b038581169116148015612696575086606001515b156127255760a1546020880151604051632e1a7d4d60e01b81526001600160a01b0390921691632e1a7d4d916126d29160040190815260200190565b600060405180830381600087803b1580156126ec57600080fd5b505af1158015612700573d6000803e3d6000fd5b5050505085612718576127188760200151610ec73390565b6001945050505050610726565b600034118015612742575060a1546001600160a01b038481169116145b156128465760a160009054906101000a90046001600160a01b03166001600160a01b031663d0e30db0346040518263ffffffff1660e01b81526004016000604051808303818588803b15801561279757600080fd5b505af11580156127ab573d6000803e3d6000fd5b50505050508561271857602087015160405163a9059cbb60e01b81526001600160a01b0385169163a9059cbb916127e6913391600401614b45565b602060405180830381600087803b15801561280057600080fd5b505af1158015612814573d6000803e3d6000fd5b505050506040513d601f19601f820116820180604052508101906128389190614b69565b506001945050505050610726565b60a054604051636eb1769f60e11b81526000916001600160a01b038088169263dd62ed3e9261287b9216903090600401614b12565b60206040518083038186803b15801561289357600080fd5b505afa1580156128a7573d6000803e3d6000fd5b505050506040513d601f19601f820116820180604052508101906128cb9190614b2c565b905087604001518110156129635760a05460405163095ea7b360e01b81526001600160a01b038781169263095ea7b39261290f929091169060001990600401614b45565b602060405180830381600087803b15801561292957600080fd5b505af115801561293d573d6000803e3d6000fd5b505050506040513d601f19601f820116820180604052508101906129619190614b69565b505b6040805160a080820183528a5182523060208084019190915242838501528b015160608301528a8301516080830152549151631e51809360e31b815290916000916001600160a01b039091169063f28c0498906129c4908590600401614dbe565b602060405180830381600087803b1580156129de57600080fd5b505af1925050508015612a0e575060408051601f3d908101601f19168201909252612a0b91810190614b2c565b60015b612a22576000975050505050505050610726565b905060a060009054906101000a90046001600160a01b03166001600160a01b03166312210e8a6040518163ffffffff1660e01b8152600401600060405180830381600087803b158015612a7457600080fd5b505af1158015612a88573d6000803e3d6000fd5b50505050896060015115612b005760a15460208b0151604051632e1a7d4d60e01b81526001600160a01b0390921691632e1a7d4d91612acd9160040190815260200190565b600060405180830381600087803b158015612ae757600080fd5b505af1158015612afb573d6000803e3d6000fd5b505050505b8960400151811015612b9d576001600160a01b03871663a9059cbb33838d60400151612b2c9190614a8e565b6040518363ffffffff1660e01b8152600401612b49929190614b45565b602060405180830381600087803b158015612b6357600080fd5b505af1158015612b77573d6000803e3d6000fd5b505050506040513d601f19601f82011682018060405250810190612b9b9190614b69565b505b88612c4557896060015115612bc057612bbb8a60200151610ec73390565b612c45565b60208a015160405163a9059cbb60e01b81526001600160a01b0388169163a9059cbb91612bf1913391600401614b45565b602060405180830381600087803b158015612c0b57600080fd5b505af1158015612c1f573d6000803e3d6000fd5b505050506040513d601f19601f82011682018060405250810190612c439190614b69565b505b5060019998505050505050505050565b612c5d612cce565b6001600160a01b038116612cc25760405162461bcd60e51b815260206004820152602660248201527f4f776e61626c653a206e6577206f776e657220697320746865207a65726f206160448201526564647265737360d01b60648201526084016107d2565b612ccb81612dc0565b50565b6033546001600160a01b03163314610d2c5760405162461bcd60e51b815260206004820181905260248201527f4f776e61626c653a2063616c6c6572206973206e6f7420746865206f776e657260448201526064016107d2565b60655460ff1615610d2c5760405162461bcd60e51b815260206004820152601060248201526f14185d5cd8589b194e881c185d5cd95960821b60448201526064016107d2565b612d76613cd6565b6065805460ff191690557f5db9ee0a495bf2e6ff9c91a7834c1ba4fdd244a5e8aa4e537bd38aeae4b073aa335b6040516001600160a01b03909116815260200160405180910390a1565b603380546001600160a01b038381166001600160a01b0319831681179093556040519116919082907f8be0079c531659141344cd1fd0a4f28419497f9722a3daafe3b4186f6b6457e090600090a35050565b6000826001600160a01b03168260405160006040518083038185875af1925050503d8060008114612e5f576040519150601f19603f3d011682016040523d82523d6000602084013e612e64565b606091505b5050905080612ec65760405162461bcd60e51b815260206004820152602860248201527f4c69625472616e73666572204261736543757272656e6379207472616e7366656044820152671c8819985a5b195960c21b60648201526084016107d2565b505050565b612ed3612d28565b6065805460ff191660011790557f62e78cea01bee320cd4e420270b5ea74000d11b0c9f74754ebdbfc544b05a258612da33390565b6000806000806000612f27876060015188604001518960000151613d1f565b60208901519193509150600288516007811115612f4657612f46614e82565b141561302357609a546040516000916001600160a01b0316908390612f6c908790614e98565b60006040518083038185875af1925050503d8060008114612fa9576040519150601f19603f3d011682016040523d82523d6000602084013e612fae565b606091505b505090508715612fd65780612fd157600080600096509650965050505050613c09565b61301d565b8061301d5760405162461bcd60e51b8152602060048201526017602482015276141d5c98da185cd94814d9585c1bdc9d0819985a5b1959604a1b60448201526064016107d2565b50613bd7565b60018851600781111561303857613038614e82565b1415613109576099546040516000916001600160a01b031690839061305e908790614e98565b60006040518083038185875af1925050503d806000811461309b576040519150601f19603f3d011682016040523d82523d6000602084013e6130a0565b606091505b5050905087156130c35780612fd157600080600096509650965050505050613c09565b8061301d5760405162461bcd60e51b8152602060048201526016602482015275141d5c98da185cd94815de5d995c9b8819985a5b195960521b60448201526064016107d2565b60068851600781111561311e5761311e614e82565b14156131f6576097546040516000916001600160a01b0316908390613144908790614e98565b60006040518083038185875af1925050503d8060008114613181576040519150601f19603f3d011682016040523d82523d6000602084013e613186565b606091505b5050905087156131a95780612fd157600080600096509650965050505050613c09565b8061301d5760405162461bcd60e51b815260206004820152601b60248201527f50757263686173652047686f73744d61726b6574206661696c6564000000000060448201526064016107d2565b60008851600781111561320b5761320b614e82565b14156132dd576098546040516000916001600160a01b0316908390613231908790614e98565b60006040518083038185875af1925050503d806000811461326e576040519150601f19603f3d011682016040523d82523d6000602084013e613273565b606091505b5050905087156132965780612fd157600080600096509650965050505050613c09565b8061301d5760405162461bcd60e51b8152602060048201526017602482015276141d5c98da185cd94814985c9a589b194819985a5b1959604a1b60448201526064016107d2565b6003885160078111156132f2576132f2614e82565b14156137855760008380602001905181019061330e91906153a8565b9050871561339057609b5460405163357a150b60e01b81526001600160a01b039091169063357a150b908490613348908590600401615623565b6000604051808303818588803b15801561336157600080fd5b505af193505050508015613373575060015b61338b57600080600096509650965050505050613c09565b6133f5565b609b5460405163357a150b60e01b81526001600160a01b039091169063357a150b9084906133c2908590600401615623565b6000604051808303818588803b1580156133db57600080fd5b505af11580156133ef573d6000803e3d6000fd5b50505050505b60208101515160005b8181101561377d5760008360200151828151811061341e5761341e614aa5565b602002602001015160200151905060008460200151838151811061344457613444614aa5565b602002602001015160400151905060008560000151838151811061346a5761346a614aa5565b60200260200101516101000151828151811061348857613488614aa5565b60200260200101516020015190506000866000015184815181106134ae576134ae614aa5565b602002602001015160e00151511180156134ea57506000866020015185815181106134db576134db614aa5565b602002602001015160c0015151115b1561353c5761353c818760200151868151811061350957613509614aa5565b602002602001015160c001518860000151868151811061352b5761352b614aa5565b602002602001015160e00151613e1a565b855180518490811061355057613550614aa5565b602002602001015160800151600114156136315760008180602001905181019061357a91906157df565b905060005b815181101561362a57600082828151811061359c5761359c614aa5565b6020026020010151905080600001516001600160a01b03166342842e0e306135c13390565b84602001516040518463ffffffff1660e01b81526004016135e49392919061589d565b600060405180830381600087803b1580156135fe57600080fd5b505af1158015613612573d6000803e3d6000fd5b5050505050808061362290614de9565b91505061357f565b5050613769565b855180518490811061364557613645614aa5565b602002602001015160800151600214156137255760008180602001905181019061366f91906158c1565b905060005b815181101561362a57600082828151811061369157613691614aa5565b6020026020010151905080600001516001600160a01b031663f242432a306136b63390565b846020015185604001516040518563ffffffff1660e01b81526004016136df9493929190615987565b600060405180830381600087803b1580156136f957600080fd5b505af115801561370d573d6000803e3d6000fd5b5050505050808061371d90614de9565b915050613674565b60405162461bcd60e51b81526020600482015260196024820152783ab735b737bbb7103232b632b3b0ba32aa3cb832903c193c9960391b60448201526064016107d2565b5050508061377690614de9565b90506133fe565b505050613bd7565b60048851600781111561379a5761379a614e82565b14156139c6576000806000858060200190518101906137b99190615add565b925092509250891561384357609c54604051635a72594b60e11b81526001600160a01b039091169063b4e4b2969086906137f99087908790600401615bc5565b6000604051808303818588803b15801561381257600080fd5b505af193505050508015613824575060015b61383e576000806000985098509850505050505050613c09565b6138aa565b609c54604051635a72594b60e11b81526001600160a01b039091169063b4e4b2969086906138779087908790600401615bc5565b6000604051808303818588803b15801561389057600080fd5b505af11580156138a4573d6000803e3d6000fd5b50505050505b6001600160e01b031981166339d690a360e11b14156139325760408201516001600160a01b03166342842e0e303385608001516040518463ffffffff1660e01b81526004016138fb9392919061589d565b600060405180830381600087803b15801561391557600080fd5b505af1158015613929573d6000803e3d6000fd5b5050505061377d565b6001600160e01b0319811663025ceed960e61b141561398957604082810151608084015160a08501519251637921219560e11b81526001600160a01b039092169263f242432a926138fb9230923392600401615987565b60405162461bcd60e51b8152602060048201526012602482015271556e6b6e6f776e20746f6b656e207479706560701b60448201526064016107d2565b6005885160078111156139db576139db614e82565b1415613aae57609d546040516000916001600160a01b0316908390613a01908790614e98565b60006040518083038185875af1925050503d8060008114613a3e576040519150601f19603f3d011682016040523d82523d6000602084013e613a43565b606091505b505090508715613a665780612fd157600080600096509650965050505050613c09565b8061301d5760405162461bcd60e51b8152602060048201526018602482015277141d5c98da185cd94814dd591bd4ddd85c0819985a5b195960421b60448201526064016107d2565b600788516007811115613ac357613ac3614e82565b1415613b9457609e546040516000916001600160a01b0316908390613ae9908790614e98565b60006040518083038185875af1925050503d8060008114613b26576040519150601f19603f3d011682016040523d82523d6000602084013e613b2b565b606091505b505090508715613b4e5780612fd157600080600096509650965050505050613c09565b8061301d5760405162461bcd60e51b8152602060048201526016602482015275141d5c98da185cd948189b1d5c9a5bc819985a5b195960521b60448201526064016107d2565b60405162461bcd60e51b8152602060048201526018602482015277556e6b6e6f776e2070757263686173652064657461696c7360401b60448201526064016107d2565b613be5828960200151613ec7565b600080613bfa8a604001518b60200151613f71565b60019950909750955050505050505b9250925092565b600082118015613c2857506001600160a01b03811615155b15613c3757613c378183612e12565b5050565b478015612ccb57612ccb3382612e12565b600054610100900460ff16610d2c5760405162461bcd60e51b81526004016107d290615d1f565b600054610100900460ff16613c9a5760405162461bcd60e51b81526004016107d290615d1f565b610d2c33612dc0565b600054610100900460ff16613cca5760405162461bcd60e51b81526004016107d290615d1f565b6065805460ff19169055565b60655460ff16610d2c5760405162461bcd60e51b815260206004820152601460248201527314185d5cd8589b194e881b9bdd081c185d5cd95960621b60448201526064016107d2565b6060806000602085901c61ffff166001811115613d3e57613d3e614e82565b905060606000826001811115613d5657613d56614e82565b1415613d68578693509150613e129050565b6001826001811115613d7c57613d7c614e82565b1415613dca57600087806020019051810190613d989190615d6a565b9050613da386613fa2565b15613dbe578060000151816020015194509450505050613e12565b5193509150613e129050565b60405162461bcd60e51b815260206004820152601a60248201527f756e6b6e6f776e206164646974696f6e616c446174615479706500000000000060448201526064016107d2565b935093915050565b8151835114613e2857600080fd5b8051835114613e3657600080fd5b825160005b81811015613ec057828181518110613e5557613e55614aa5565b01602001516001600160f81b03191615613eb057838181518110613e7b57613e7b614aa5565b602001015160f81c60f81b858281518110613e9857613e98614aa5565b60200101906001600160f81b031916908160001a9053505b613eb981614de9565b9050613e3b565b5050505050565b815160005b81811015613f6b576000848281518110613ee857613ee8614aa5565b60200260200101511115613f5b576000848281518110613f0a57613f0a614aa5565b60200260200101519050600060a0868481518110613f2a57613f2a614aa5565b6020026020010151901c90506000613f4b8287613fea90919063ffffffff16565b9050613f578184613c10565b5050505b613f6481614de9565b9050613ecc565b50505050565b60008061ffff601085901c8116908516613f8b8583613fea565b613f958683613fea565b9350935050509250929050565b60006005826007811115613fb857613fb8614e82565b1480613fd557506004826007811115613fd357613fd3614e82565b145b15613fe257506001919050565b506000919050565b6000612710613ff98385615dfa565b6140039190615e19565b9392505050565b6001600160e01b031981168114612ccb57600080fd5b60006020828403121561403257600080fd5b81356140038161400a565b6001600160a01b0381168114612ccb57600080fd5b60006020828403121561406457600080fd5b81356140038161403d565b634e487b7160e01b600052604160045260246000fd5b604051608081016001600160401b03811182821017156140a7576140a761406f565b60405290565b60405160a081016001600160401b03811182821017156140a7576140a761406f565b604080519081016001600160401b03811182821017156140a7576140a761406f565b6040516101a081016001600160401b03811182821017156140a7576140a761406f565b60405161016081016001600160401b03811182821017156140a7576140a761406f565b60405160c081016001600160401b03811182821017156140a7576140a761406f565b604051606081016001600160401b03811182821017156140a7576140a761406f565b60405161020081016001600160401b03811182821017156140a7576140a761406f565b604051601f8201601f191681016001600160401b03811182821017156141c6576141c661406f565b604052919050565b60006001600160401b038211156141e7576141e761406f565b50601f01601f191660200190565b600082601f83011261420657600080fd5b8135614219614214826141ce565b61419e565b81815284602083860101111561422e57600080fd5b816020850160208301376000918101602001919091529392505050565b6000806000806080858703121561426157600080fd5b843561426c8161403d565b9350602085013561427c8161403d565b92506040850135915060608501356001600160401b0381111561429e57600080fd5b6142aa878288016141f5565b91505092959194509250565b60006001600160401b038211156142cf576142cf61406f565b5060051b60200190565b60088110612ccb57600080fd5b6000608082840312156142f857600080fd5b614300614085565b9050813561430d816142d9565b80825250602082013560208201526040820135604082015260608201356001600160401b0381111561433e57600080fd5b61434a848285016141f5565b60608301525092915050565b600082601f83011261436757600080fd5b81356020614377614214836142b6565b82815260059290921b8401810191818101908684111561439657600080fd5b8286015b848110156143d55780356001600160401b038111156143b95760008081fd5b6143c78986838b01016142e6565b84525091830191830161439a565b509695505050505050565b8015158114612ccb57600080fd5b80356143f9816143e0565b919050565b600082601f83011261440f57600080fd5b8135602061441f614214836142b6565b82815260059290921b8401810191818101908684111561443e57600080fd5b8286015b848110156143d55780358352918301918301614442565b600060a0828403121561446b57600080fd5b6144736140ad565b905081356001600160401b038082111561448c57600080fd5b818401915084601f8301126144a057600080fd5b813560206144b0614214836142b6565b82815260059290921b840181019181810190888411156144cf57600080fd5b948201945b838610156144f65785356144e78161403d565b825294820194908201906144d4565b86525085810135908501525060408085013590840152606084013591508082111561452057600080fd5b5061452d848285016143fe565b60608301525061453f608083016143ee565b608082015292915050565b600080600080600060a0868803121561456257600080fd5b85356001600160401b038082111561457957600080fd5b61458589838a01614356565b9650602088013591506145978261403d565b9094506040870135906145a98261403d565b9093506060870135906145bb826143e0565b909250608087013590808211156145d157600080fd5b506145de88828901614459565b9150509295509295909350565b600080604083850312156145fe57600080fd5b82356001600160401b0381111561461457600080fd5b61462085828601614459565b9250506020830135614631816143e0565b809150509250929050565b60006080828403121561464e57600080fd5b614656614085565b905081356001600160401b0381111561466e57600080fd5b61467a848285016141f5565b8252506020820135602082015260408201356040820152606082013561469f816143e0565b606082015292915050565b600080600080600060a086880312156146c257600080fd5b85356001600160401b03808211156146d957600080fd5b6146e589838a01614356565b9650602088013591506146f78261403d565b9094506040870135906147098261403d565b90935060608701359061471b826143e0565b9092506080870135908082111561473157600080fd5b506145de8882890161463c565b6001600160a01b03169052565b60008060006060848603121561476057600080fd5b83356001600160401b0381111561477657600080fd5b614782868287016142e6565b93505060208401356147938161403d565b915060408401356147a38161403d565b809150509250925092565b6000602082840312156147c057600080fd5b81356001600160401b038111156147d657600080fd5b6147e28482850161463c565b949350505050565b600080600080600080600080610100898b03121561480757600080fd5b88356148128161403d565b975060208901356148228161403d565b965060408901356148328161403d565b955060608901356148428161403d565b945060808901356148528161403d565b935060a08901356148628161403d565b925060c08901356148728161403d565b915060e08901356148828161403d565b809150509295985092959890939650565b600080600080608085870312156148a957600080fd5b84356001600160401b038111156148bf57600080fd5b6148cb87828801614356565b94505060208501356148dc8161403d565b925060408501356148ec8161403d565b915060608501356148fc816143e0565b939692955090935050565b600080600080600060a0868803121561491f57600080fd5b853561492a8161403d565b9450602086013561493a8161403d565b935060408601356001600160401b038082111561495657600080fd5b61496289838a016143fe565b9450606088013591508082111561497857600080fd5b61498489838a016143fe565b9350608088013591508082111561499a57600080fd5b506145de888289016141f5565b6000602082840312156149b957600080fd5b81356001600160401b038111156149cf57600080fd5b6147e284828501614459565b600080604083850312156149ee57600080fd5b82356001600160401b03811115614a0457600080fd5b6146208582860161463c565b600080600080600060a08688031215614a2857600080fd5b8535614a338161403d565b94506020860135614a438161403d565b9350604086013592506060860135915060808601356001600160401b03811115614a6c57600080fd5b6145de888289016141f5565b634e487b7160e01b600052601160045260246000fd5b600082821015614aa057614aa0614a78565b500390565b634e487b7160e01b600052603260045260246000fd5b6020808252601390820152721cddd85c081b9bdd081cdd58d8d95cdcd99d5b606a1b604082015260600190565b6001600160a01b039485168152928416602084015292166040820152606081019190915260800190565b6001600160a01b0392831681529116602082015260400190565b600060208284031215614b3e57600080fd5b5051919050565b6001600160a01b03929092168252602082015260400190565b80516143f9816143e0565b600060208284031215614b7b57600080fd5b8151614003816143e0565b600081518084526020808501945080840160005b83811015614bb657815187529582019590820190600101614b9a565b509495945050505050565b600081518084526020808501945080840160005b83811015614bb65781516001600160a01b031687529582019590820190600101614bd5565b86815285602082015260c060408201526000614c1960c0830187614b86565b8281036060840152614c2b8187614bc1565b6001600160a01b03959095166080840152505060a00152949350505050565b600082601f830112614c5b57600080fd5b81516020614c6b614214836142b6565b82815260059290921b84018101918181019086841115614c8a57600080fd5b8286015b848110156143d55780518352918301918301614c8e565b600060208284031215614cb757600080fd5b81516001600160401b03811115614ccd57600080fd5b6147e284828501614c4a565b85815284602082015260a060408201526000614cf860a0830186614bc1565b6001600160a01b0394909416606083015250608001529392505050565b60005b83811015614d30578181015183820152602001614d18565b83811115613f6b5750506000910152565b60008151808452614d59816020860160208601614d15565b601f01601f19169290920160200192915050565b6000815160a08452614d8260a0850182614d41565b6020848101516001600160a01b031690860152604080850151908601526060808501519086015260809384015193909401929092525090919050565b6020815260006140036020830184614d6d565b60008219821115614de457614de4614a78565b500190565b6000600019821415614dfd57614dfd614a78565b5060010190565b85815260a060208201526000614e1d60a0830187614b86565b8281036040840152614e2f8187614bc1565b6001600160a01b039590951660608401525050608001529392505050565b848152608060208201526000614e666080830186614bc1565b6001600160a01b03949094166040830152506060015292915050565b634e487b7160e01b600052602160045260246000fd5b60008251614eaa818460208701614d15565b9190910192915050565b80516143f98161403d565b600082601f830112614ed057600080fd5b8151614ede614214826141ce565b818152846020838601011115614ef357600080fd5b6147e2826020830160208701614d15565b600082601f830112614f1557600080fd5b81516020614f25614214836142b6565b82815260059290921b84018101918181019086841115614f4457600080fd5b8286015b848110156143d55780516001600160401b0380821115614f685760008081fd5b908801906040828b03601f1901811315614f825760008081fd5b614f8a6140cf565b838801518152908301519082821115614fa35760008081fd5b614fb18c8984870101614ebf565b818901528652505050918301918301614f48565b805160ff811681146143f957600080fd5b600082601f830112614fe757600080fd5b81516020614ff7614214836142b6565b82815260059290921b8401810191818101908684111561501657600080fd5b8286015b848110156143d55780516001600160401b038082111561503a5760008081fd5b908801906101a0828b03601f19018113156150555760008081fd5b61505d6140f1565b8784015181526040615070818601614eb4565b89830152606080860151828401526080915081860151818401525060a0808601518284015260c0915081860151818401525060e06150af818701614eb4565b82840152610100915081860151858111156150ca5760008081fd5b6150d88f8c838a0101614ebf565b82850152505061012080860151858111156150f35760008081fd5b6151018f8c838a0101614f04565b838501525061014094508486015181840152505061016080850151848301526101809350615130848601614fc5565b9082015261513f848301614fc5565b928101929092525084525091830191830161501a565b80516143f9816142d9565b600082601f83011261517157600080fd5b81516020615181614214836142b6565b82815260069290921b840181019181810190868411156151a057600080fd5b8286015b848110156143d557604081890312156151bd5760008081fd5b6151c56140cf565b81518152848201516151d68161403d565b818601528352918301916040016151a4565b600082601f8301126151f957600080fd5b81516020615209614214836142b6565b82815260059290921b8401810191818101908684111561522857600080fd5b8286015b848110156143d55780516001600160401b038082111561524c5760008081fd5b90880190610160828b03601f19018113156152675760008081fd5b61526f614114565b61527a888501615155565b815260408085015189830152606080860151828401526080915081860151818401525060a0808601518284015260c091506152b6828701614eb4565b9083015260e085810151858111156152ce5760008081fd5b6152dc8f8c838a0101614ebf565b83850152506101009150818601518184015250610120808601518284015261014091508186015181840152508285015192508383111561531c5760008081fd5b61532a8d8a85880101615160565b90820152865250505091830191830161522c565b600060c0828403121561535057600080fd5b615358614137565b905081518152602082015160208201526040820151604082015260608201516060820152608082015161538a8161403d565b608082015260a082015161539d816143e0565b60a082015292915050565b6000602082840312156153ba57600080fd5b81516001600160401b03808211156153d157600080fd5b9083019061016082860312156153e657600080fd5b6153ee614137565b8251828111156153fd57600080fd5b61540987828601614fd6565b82525060208301518281111561541e57600080fd5b61542a878286016151e8565b60208301525061543d866040850161533e565b6040820152610100830151606082015261012083015160808201526154656101408401614fc5565b60a082015295945050505050565b600081518084526020808501808196508360051b8101915082860160005b858110156154cf57828403895281518051855285015160408686018190526154bb81870183614d41565b9a87019a9550505090840190600101615491565b5091979650505050505050565b600881106154fa57634e487b7160e01b600052602160045260246000fd5b9052565b600081518084526020808501945080840160005b83811015614bb6578151805188528301516001600160a01b03168388015260409096019590820190600101615512565b600081518084526020808501808196508360051b8101915082860160005b858110156154cf578284038952815161016061557d8683516154dc565b818701518688015260408083015190870152606080830151908701526080808301519087015260a0808301516155b58289018261473e565b505060c08083015182828901526155ce83890182614d41565b60e085810151908a015261010080860151908a015261012080860151908a015261014094850151898203958a0195909552925061560f9150829050836154fe565b9a87019a9550505090840190600101615560565b60006020808352610180808401855161016080858801528282518085526101a094508489019150848160051b8a0101878501945060005b8281101561573e578a820361019f19018452855180518352898101516156828b85018261473e565b5060408181015190840152606080820151908401526080808201519084015260a0808201519084015260c0808201516156bd8286018261473e565b505060e08082015189828601526156d68a860182614d41565b91505061010080830151858303828701526156f18382615473565b925050506101208083015181860152506101408083015181860152508682015161571f8886018260ff169052565b509089015160ff1692890192909252948801949288019260010161565a565b50968a0151898803601f190160408b01529661575a8189615542565b9750505050604088015193506157b06060880185805182526020808201519083015260408082015190830152606080820151908301526080808201516001600160a01b03169083015260a0908101511515910152565b6060880151610120880152608088015161014088015260a09097015160ff169690950195909552509392505050565b600060208083850312156157f257600080fd5b82516001600160401b0381111561580857600080fd5b8301601f8101851361581957600080fd5b8051615827614214826142b6565b81815260069190911b8201830190838101908783111561584657600080fd5b928401925b8284101561589257604084890312156158645760008081fd5b61586c6140cf565b84516158778161403d565b8152848601518682015282526040909301929084019061584b565b979650505050505050565b6001600160a01b039384168152919092166020820152604081019190915260600190565b600060208083850312156158d457600080fd5b82516001600160401b038111156158ea57600080fd5b8301601f810185136158fb57600080fd5b8051615909614214826142b6565b8181526060918202830184019184820191908884111561592857600080fd5b938501935b8385101561597b5780858a0312156159455760008081fd5b61594d614159565b85516159588161403d565b81528587015187820152604080870151908201528352938401939185019161592d565b50979650505050505050565b6001600160a01b0394851681529290931660208301526040820152606081019190915260a06080820181905260009082015260c00190565b600061020082840312156159d257600080fd5b6159da61417b565b90506159e582614b5e565b81526159f360208301614eb4565b6020820152615a0460408301614eb4565b6040820152606082015160608201526080820151608082015260a082015160a0820152615a3360c08301614eb4565b60c0820152615a4460e08301614eb4565b60e08201526101008281015190820152610120808301519082015261014080830151908201526101608083015190820152610180808301516001600160401b03811115615a9057600080fd5b615a9c85828601614ebf565b8284015250506101a0615ab0818401614fc5565b908201526101c082810151908201526101e09182015191810191909152919050565b80516143f98161400a565b600080600060608486031215615af257600080fd5b83516001600160401b0380821115615b0957600080fd5b9085019060c08288031215615b1d57600080fd5b615b25614137565b8251615b30816143e0565b81526020830151615b408161403d565b8060208301525060408301516040820152606083015160608201526080830151608082015260a083015182811115615b7757600080fd5b615b8389828601614ebf565b60a0830152506020870151909550915080821115615ba057600080fd5b50615bad868287016159bf565b925050615bbc60408501615ad2565b90509250925092565b60408152600061010084511515604084015260018060a01b03602086015116606084015260408501516080840152606085015160a0840152608085015160c084015260a085015160c060e0850152615c1f82850182614d41565b848103602086015285511515815290506102006020860151615c44602084018261473e565b506040860151615c57604084018261473e565b50606086015160608301526080860151608083015260a086015160a083015260c0860151615c8860c084018261473e565b5060e0860151615c9b60e084018261473e565b50858301519282019290925261012080860151908201526101408086015190820152610160808601519082015261018080860151818301849052909290615ce482840182614d41565b935050506101a080860151615cfd8284018260ff169052565b50506101c085810151908201526101e094850151940193909352509092915050565b6020808252602b908201527f496e697469616c697a61626c653a20636f6e7472616374206973206e6f74206960408201526a6e697469616c697a696e6760a81b606082015260800190565b600060208284031215615d7c57600080fd5b81516001600160401b0380821115615d9357600080fd5b9083019060408286031215615da757600080fd5b615daf6140cf565b825182811115615dbe57600080fd5b615dca87828601614ebf565b825250602083015182811115615ddf57600080fd5b615deb87828601614c4a565b60208301525095945050505050565b6000816000190483118215151615615e1457615e14614a78565b500290565b600082615e3657634e487b7160e01b600052601260045260246000fd5b50049056fea2646970667358221220d5926290e6ea91af372d524d217987e2646fd13a791e24a2ffe53568e10d049b64736f6c63430008090033",
  "devdoc": {
    "kind": "dev",
    "methods": {
      "bulkPurchase((uint8,uint256,uint256,bytes)[],address,address,bool)": {
        "params": {
          "allowFail": "- true if fails while executing orders are allowed, false if fail of a single order means fail of the whole batch",
          "feeRecipientFirst": "- address of the first fee recipient",
          "feeRecipientSecond": "- address of the second fee recipient",
          "purchaseDetails": "- array of details about the purchases (more info in PurchaseDetails struct)"
        }
      },
      "bulkPurchaseWithSwap((uint8,uint256,uint256,bytes)[],address,address,bool,(bytes,uint256,uint256,bool))": {
        "params": {
          "allowFail": "- true if fails while executing orders are allowed, false if fail of a single order means fail of the whole batch",
          "feeRecipientFirst": "- address of the first fee recipient",
          "feeRecipientSecond": "- address of the second fee recipient",
          "purchaseDetails": "- array of details about the purchases (more info in PurchaseDetails struct)",
          "swapDetails": "- swapDetails v3"
        }
      },
      "bulkPurchaseWithV2Swap((uint8,uint256,uint256,bytes)[],address,address,bool,(address[],uint256,uint256,uint256[],bool))": {
        "params": {
          "allowFail": "- true if fails while executing orders are allowed, false if fail of a single order means fail of the whole batch",
          "feeRecipientFirst": "- address of the first fee recipient",
          "feeRecipientSecond": "- address of the second fee recipient",
          "purchaseDetails": "- array of details about the purchases (more info in PurchaseDetails struct)",
          "swapDetails": "- swapDetails v2"
        }
      },
      "onERC721Received(address,address,uint256,bytes)": {
        "details": "See {IERC721Receiver-onERC721Received}. Always returns `IERC721Receiver.onERC721Received.selector`."
      },
      "owner()": {
        "details": "Returns the address of the current owner."
      },
      "paused()": {
        "details": "Returns true if the contract is paused, and false otherwise."
      },
      "renounceOwnership()": {
        "details": "Leaves the contract without owner. It will not be possible to call `onlyOwner` functions anymore. Can only be called by the current owner. NOTE: Renouncing ownership will leave the contract without an owner, thereby removing any functionality that is only available to the owner."
      },
      "singlePurchase((uint8,uint256,uint256,bytes),address,address)": {
        "params": {
          "feeRecipientFirst": "- address of the first fee recipient",
          "feeRecipientSecond": "- address of the second fee recipient",
          "purchaseDetails": "- details about the purchase (more info in PurchaseDetails struct)"
        }
      },
      "supportsInterface(bytes4)": {
        "details": "See {IERC165-supportsInterface}."
      },
      "swapExactTokensForTokens((bytes,uint256,uint256,bool))": {
        "params": {
          "swapDetails": "swapDetails required"
        }
      },
      "swapTokensForExactTokens((bytes,uint256,uint256,bool),bool)": {
        "params": {
          "combined": "combined swap + buy - if true funds are not sent back to sender buy kept for trade",
          "swapDetails": "swapDetails required"
        }
      },
      "swapV2ExactETHOrWETHForTokens((address[],uint256,uint256,uint256[],bool))": {
        "params": {
          "swapDetails": "swapDetails required"
        }
      },
      "swapV2ExactTokensForTokens((address[],uint256,uint256,uint256[],bool))": {
        "params": {
          "swapDetails": "swapDetails required"
        }
      },
      "swapV2TokensForExactETHOrWETH((address[],uint256,uint256,uint256[],bool),bool)": {
        "params": {
          "combined": "combined swap + buy - if true funds are not sent back to sender buy kept for trade",
          "swapDetails": "swapDetails required"
        }
      },
      "swapV2TokensForExactTokens((address[],uint256,uint256,uint256[],bool),bool)": {
        "params": {
          "combined": "combined swap + buy - if true funds are not sent back to sender buy kept for trade",
          "swapDetails": "swapDetails required"
        }
      },
      "transferOwnership(address)": {
        "details": "Transfers ownership of the contract to a new account (`newOwner`). Can only be called by the current owner."
      }
    },
    "version": 1
  },
  "userdoc": {
    "kind": "user",
    "methods": {
      "bulkPurchase((uint8,uint256,uint256,bytes)[],address,address,bool)": {
        "notice": "executes an array of purchases"
      },
      "bulkPurchaseWithSwap((uint8,uint256,uint256,bytes)[],address,address,bool,(bytes,uint256,uint256,bool))": {
        "notice": "executes an array of purchases - with swap v3"
      },
      "bulkPurchaseWithV2Swap((uint8,uint256,uint256,bytes)[],address,address,bool,(address[],uint256,uint256,uint256[],bool))": {
        "notice": "executes an array of purchases - with swap v2 - tokens for tokens or tokens for eth/weth"
      },
      "pause()": {
        "notice": "Pause the contract"
      },
      "setRarible(address)": {
        "notice": "temp for upgrade - to remove once initialized"
      },
      "setTransferProxy(address)": {
        "notice": "Set erc20 transfer proxy"
      },
      "setUniswapV2(address)": {
        "notice": "Set uniswap v2 router"
      },
      "setUniswapV3(address)": {
        "notice": "Set uniswap v3 router"
      },
      "setWrapped(address)": {
        "notice": "Set wrapped token"
      },
      "singlePurchase((uint8,uint256,uint256,bytes),address,address)": {
        "notice": "executes a single purchase"
      },
      "swapExactTokensForTokens((bytes,uint256,uint256,bool))": {
        "notice": "swaps exact tokens for tokens - uniswap v3"
      },
      "swapTokensForExactTokens((bytes,uint256,uint256,bool),bool)": {
        "notice": "swaps tokens for exact tokens - uniswap v3"
      },
      "swapV2ExactETHOrWETHForTokens((address[],uint256,uint256,uint256[],bool))": {
        "notice": "swaps exact ETH or WETH for tokens - uniswap v2"
      },
      "swapV2ExactTokensForTokens((address[],uint256,uint256,uint256[],bool))": {
        "notice": "swaps exact tokens for tokens - uniswap v2"
      },
      "swapV2TokensForExactETHOrWETH((address[],uint256,uint256,uint256[],bool),bool)": {
        "notice": "swaps tokens for exact ETH or WETH - uniswap v2"
      },
      "swapV2TokensForExactTokens((address[],uint256,uint256,uint256[],bool),bool)": {
        "notice": "swaps tokens for exact tokens - uniswap v2"
      },
      "unpause()": {
        "notice": "Unpause the contract"
      }
    },
    "version": 1
  },
  "storageLayout": {
    "storage": [
      {
        "astId": 138,
        "contract": "src/exchange-wrapper/ExchangeWrapper.sol:ExchangeWrapper",
        "label": "_initialized",
        "offset": 0,
        "slot": "0",
        "type": "t_uint8"
      },
      {
        "astId": 141,
        "contract": "src/exchange-wrapper/ExchangeWrapper.sol:ExchangeWrapper",
        "label": "_initializing",
        "offset": 1,
        "slot": "0",
        "type": "t_bool"
      },
      {
        "astId": 1326,
        "contract": "src/exchange-wrapper/ExchangeWrapper.sol:ExchangeWrapper",
        "label": "__gap",
        "offset": 0,
        "slot": "1",
        "type": "t_array(t_uint256)50_storage"
      },
      {
        "astId": 10,
        "contract": "src/exchange-wrapper/ExchangeWrapper.sol:ExchangeWrapper",
        "label": "_owner",
        "offset": 0,
        "slot": "51",
        "type": "t_address"
      },
      {
        "astId": 130,
        "contract": "src/exchange-wrapper/ExchangeWrapper.sol:ExchangeWrapper",
        "label": "__gap",
        "offset": 0,
        "slot": "52",
        "type": "t_array(t_uint256)49_storage"
      },
      {
        "astId": 303,
        "contract": "src/exchange-wrapper/ExchangeWrapper.sol:ExchangeWrapper",
        "label": "_paused",
        "offset": 0,
        "slot": "101",
        "type": "t_bool"
      },
      {
        "astId": 408,
        "contract": "src/exchange-wrapper/ExchangeWrapper.sol:ExchangeWrapper",
        "label": "__gap",
        "offset": 0,
        "slot": "102",
        "type": "t_array(t_uint256)49_storage"
      },
      {
        "astId": 2362,
        "contract": "src/exchange-wrapper/ExchangeWrapper.sol:ExchangeWrapper",
        "label": "exchangeV2",
        "offset": 0,
        "slot": "151",
        "type": "t_address"
      },
      {
        "astId": 2364,
        "contract": "src/exchange-wrapper/ExchangeWrapper.sol:ExchangeWrapper",
        "label": "rarible",
        "offset": 0,
        "slot": "152",
        "type": "t_address"
      },
      {
        "astId": 2366,
        "contract": "src/exchange-wrapper/ExchangeWrapper.sol:ExchangeWrapper",
        "label": "wyvern",
        "offset": 0,
        "slot": "153",
        "type": "t_address"
      },
      {
        "astId": 2368,
        "contract": "src/exchange-wrapper/ExchangeWrapper.sol:ExchangeWrapper",
        "label": "seaport",
        "offset": 0,
        "slot": "154",
        "type": "t_address"
      },
      {
        "astId": 2370,
        "contract": "src/exchange-wrapper/ExchangeWrapper.sol:ExchangeWrapper",
        "label": "x2y2",
        "offset": 0,
        "slot": "155",
        "type": "t_address"
      },
      {
        "astId": 2372,
        "contract": "src/exchange-wrapper/ExchangeWrapper.sol:ExchangeWrapper",
        "label": "looksrare",
        "offset": 0,
        "slot": "156",
        "type": "t_address"
      },
      {
        "astId": 2374,
        "contract": "src/exchange-wrapper/ExchangeWrapper.sol:ExchangeWrapper",
        "label": "sudoswap",
        "offset": 0,
        "slot": "157",
        "type": "t_address"
      },
      {
        "astId": 2376,
        "contract": "src/exchange-wrapper/ExchangeWrapper.sol:ExchangeWrapper",
        "label": "blur",
        "offset": 0,
        "slot": "158",
        "type": "t_address"
      },
      {
        "astId": 2379,
        "contract": "src/exchange-wrapper/ExchangeWrapper.sol:ExchangeWrapper",
        "label": "uniswapRouterV2",
        "offset": 0,
        "slot": "159",
        "type": "t_contract(ISwapRouterV2)5584"
      },
      {
        "astId": 2382,
        "contract": "src/exchange-wrapper/ExchangeWrapper.sol:ExchangeWrapper",
        "label": "uniswapRouterV3",
        "offset": 0,
        "slot": "160",
        "type": "t_contract(ISwapRouterV3)5634"
      },
      {
        "astId": 2384,
        "contract": "src/exchange-wrapper/ExchangeWrapper.sol:ExchangeWrapper",
        "label": "wrappedToken",
        "offset": 0,
        "slot": "161",
        "type": "t_address"
      },
      {
        "astId": 2386,
        "contract": "src/exchange-wrapper/ExchangeWrapper.sol:ExchangeWrapper",
        "label": "erc20TransferProxy",
        "offset": 0,
        "slot": "162",
        "type": "t_address"
      }
    ],
    "types": {
      "t_address": {
        "encoding": "inplace",
        "label": "address",
        "numberOfBytes": "20"
      },
      "t_array(t_uint256)49_storage": {
        "base": "t_uint256",
        "encoding": "inplace",
        "label": "uint256[49]",
        "numberOfBytes": "1568"
      },
      "t_array(t_uint256)50_storage": {
        "base": "t_uint256",
        "encoding": "inplace",
        "label": "uint256[50]",
        "numberOfBytes": "1600"
      },
      "t_bool": {
        "encoding": "inplace",
        "label": "bool",
        "numberOfBytes": "1"
      },
      "t_contract(ISwapRouterV2)5584": {
        "encoding": "inplace",
        "label": "contract ISwapRouterV2",
        "numberOfBytes": "20"
      },
      "t_contract(ISwapRouterV3)5634": {
        "encoding": "inplace",
        "label": "contract ISwapRouterV3",
        "numberOfBytes": "20"
      },
      "t_uint256": {
        "encoding": "inplace",
        "label": "uint256",
        "numberOfBytes": "32"
      },
      "t_uint8": {
        "encoding": "inplace",
        "label": "uint8",
        "numberOfBytes": "1"
      }
    }
  }
}