{
  "address": "0xAB8944314D0eA90fba56644A4989Dd9924F56748",
  "abi": [
    {
      "anonymous": false,
      "inputs": [
        {
          "indexed": false,
          "internalType": "bool",
          "name": "result",
          "type": "bool"
        },
        {
          "indexed": true,
          "internalType": "address",
          "name": "sender",
          "type": "address"
        }
      ],
      "name": "Execution",
      "type": "event"
    },
    {
      "anonymous": false,
      "inputs": [
        {
          "indexed": false,
          "internalType": "uint8",
          "name": "version",
          "type": "uint8"
        }
      ],
      "name": "Initialized",
      "type": "event"
    },
    {
      "anonymous": false,
      "inputs": [
        {
          "indexed": true,
          "internalType": "address",
          "name": "previousOwner",
          "type": "address"
        },
        {
          "indexed": true,
          "internalType": "address",
          "name": "newOwner",
          "type": "address"
        }
      ],
      "name": "OwnershipTransferred",
      "type": "event"
    },
    {
      "anonymous": false,
      "inputs": [
        {
          "indexed": false,
          "internalType": "address",
          "name": "account",
          "type": "address"
        }
      ],
      "name": "Paused",
      "type": "event"
    },
    {
      "anonymous": false,
      "inputs": [
        {
          "indexed": false,
          "internalType": "address",
          "name": "account",
          "type": "address"
        }
      ],
      "name": "Unpaused",
      "type": "event"
    },
    {
      "inputs": [
        {
          "internalType": "address",
          "name": "_exchangeV2",
          "type": "address"
        },
        {
          "internalType": "address",
          "name": "_rarible",
          "type": "address"
        },
        {
          "internalType": "address",
          "name": "_seaport_1_4",
          "type": "address"
        },
        {
          "internalType": "address",
          "name": "_seaport_1_5",
          "type": "address"
        },
        {
          "internalType": "address",
          "name": "_x2y2",
          "type": "address"
        },
        {
          "internalType": "address",
          "name": "_looksrare",
          "type": "address"
        },
        {
          "internalType": "address",
          "name": "_sudoswap",
          "type": "address"
        },
        {
          "internalType": "address",
          "name": "_blur",
          "type": "address"
        }
      ],
      "name": "__ExchangeWrapper_init",
      "outputs": [],
      "stateMutability": "nonpayable",
      "type": "function"
    },
    {
      "inputs": [],
      "name": "blur",
      "outputs": [
        {
          "internalType": "address",
          "name": "",
          "type": "address"
        }
      ],
      "stateMutability": "view",
      "type": "function"
    },
    {
      "inputs": [
        {
          "components": [
            {
              "internalType": "enum ExchangeWrapperCore.Markets",
              "name": "marketId",
              "type": "uint8"
            },
            {
              "internalType": "uint256",
              "name": "amount",
              "type": "uint256"
            },
            {
              "internalType": "address",
              "name": "paymentToken",
              "type": "address"
            },
            {
              "internalType": "uint256",
              "name": "fees",
              "type": "uint256"
            },
            {
              "internalType": "bytes",
              "name": "data",
              "type": "bytes"
            }
          ],
          "internalType": "struct ExchangeWrapperCore.PurchaseDetails[]",
          "name": "purchaseDetails",
          "type": "tuple[]"
        },
        {
          "internalType": "address",
          "name": "feeRecipientFirst",
          "type": "address"
        },
        {
          "internalType": "address",
          "name": "feeRecipientSecond",
          "type": "address"
        },
        {
          "internalType": "bool",
          "name": "allowFail",
          "type": "bool"
        }
      ],
      "name": "bulkPurchase",
      "outputs": [],
      "stateMutability": "payable",
      "type": "function"
    },
    {
      "inputs": [
        {
          "components": [
            {
              "internalType": "enum ExchangeWrapperCore.Markets",
              "name": "marketId",
              "type": "uint8"
            },
            {
              "internalType": "uint256",
              "name": "amount",
              "type": "uint256"
            },
            {
              "internalType": "address",
              "name": "paymentToken",
              "type": "address"
            },
            {
              "internalType": "uint256",
              "name": "fees",
              "type": "uint256"
            },
            {
              "internalType": "bytes",
              "name": "data",
              "type": "bytes"
            }
          ],
          "internalType": "struct ExchangeWrapperCore.PurchaseDetails[]",
          "name": "purchaseDetails",
          "type": "tuple[]"
        },
        {
          "internalType": "address",
          "name": "feeRecipientFirst",
          "type": "address"
        },
        {
          "internalType": "address",
          "name": "feeRecipientSecond",
          "type": "address"
        },
        {
          "internalType": "bool",
          "name": "allowFail",
          "type": "bool"
        },
        {
          "components": [
            {
              "internalType": "bytes",
              "name": "path",
              "type": "bytes"
            },
            {
              "internalType": "uint256",
              "name": "amountOut",
              "type": "uint256"
            },
            {
              "internalType": "uint256",
              "name": "amountInMaximum",
              "type": "uint256"
            },
            {
              "internalType": "bool",
              "name": "unwrap",
              "type": "bool"
            }
          ],
          "internalType": "struct ExchangeWrapperCore.SwapDetailsIn",
          "name": "swapDetails",
          "type": "tuple"
        }
      ],
      "name": "bulkPurchaseWithSwap",
      "outputs": [],
      "stateMutability": "payable",
      "type": "function"
    },
    {
      "inputs": [
        {
          "components": [
            {
              "internalType": "enum ExchangeWrapperCore.Markets",
              "name": "marketId",
              "type": "uint8"
            },
            {
              "internalType": "uint256",
              "name": "amount",
              "type": "uint256"
            },
            {
              "internalType": "address",
              "name": "paymentToken",
              "type": "address"
            },
            {
              "internalType": "uint256",
              "name": "fees",
              "type": "uint256"
            },
            {
              "internalType": "bytes",
              "name": "data",
              "type": "bytes"
            }
          ],
          "internalType": "struct ExchangeWrapperCore.PurchaseDetails[]",
          "name": "purchaseDetails",
          "type": "tuple[]"
        },
        {
          "internalType": "address",
          "name": "feeRecipientFirst",
          "type": "address"
        },
        {
          "internalType": "address",
          "name": "feeRecipientSecond",
          "type": "address"
        },
        {
          "internalType": "bool",
          "name": "allowFail",
          "type": "bool"
        },
        {
          "components": [
            {
              "internalType": "address[]",
              "name": "path",
              "type": "address[]"
            },
            {
              "internalType": "uint256",
              "name": "amountOut",
              "type": "uint256"
            },
            {
              "internalType": "uint256",
              "name": "amountInMaximum",
              "type": "uint256"
            },
            {
              "internalType": "uint256[]",
              "name": "binSteps",
              "type": "uint256[]"
            },
            {
              "internalType": "bool",
              "name": "unwrap",
              "type": "bool"
            }
          ],
          "internalType": "struct ExchangeWrapperCore.SwapV2DetailsIn",
          "name": "swapDetails",
          "type": "tuple"
        }
      ],
      "name": "bulkPurchaseWithV2Swap",
      "outputs": [],
      "stateMutability": "payable",
      "type": "function"
    },
    {
      "inputs": [],
      "name": "erc20TransferProxy",
      "outputs": [
        {
          "internalType": "address",
          "name": "",
          "type": "address"
        }
      ],
      "stateMutability": "view",
      "type": "function"
    },
    {
      "inputs": [],
      "name": "exchangeV2",
      "outputs": [
        {
          "internalType": "address",
          "name": "",
          "type": "address"
        }
      ],
      "stateMutability": "view",
      "type": "function"
    },
    {
      "inputs": [],
      "name": "looksrare",
      "outputs": [
        {
          "internalType": "address",
          "name": "",
          "type": "address"
        }
      ],
      "stateMutability": "view",
      "type": "function"
    },
    {
      "inputs": [
        {
          "internalType": "address",
          "name": "",
          "type": "address"
        },
        {
          "internalType": "address",
          "name": "",
          "type": "address"
        },
        {
          "internalType": "uint256[]",
          "name": "",
          "type": "uint256[]"
        },
        {
          "internalType": "uint256[]",
          "name": "",
          "type": "uint256[]"
        },
        {
          "internalType": "bytes",
          "name": "",
          "type": "bytes"
        }
      ],
      "name": "onERC1155BatchReceived",
      "outputs": [
        {
          "internalType": "bytes4",
          "name": "",
          "type": "bytes4"
        }
      ],
      "stateMutability": "nonpayable",
      "type": "function"
    },
    {
      "inputs": [
        {
          "internalType": "address",
          "name": "",
          "type": "address"
        },
        {
          "internalType": "address",
          "name": "",
          "type": "address"
        },
        {
          "internalType": "uint256",
          "name": "",
          "type": "uint256"
        },
        {
          "internalType": "uint256",
          "name": "",
          "type": "uint256"
        },
        {
          "internalType": "bytes",
          "name": "",
          "type": "bytes"
        }
      ],
      "name": "onERC1155Received",
      "outputs": [
        {
          "internalType": "bytes4",
          "name": "",
          "type": "bytes4"
        }
      ],
      "stateMutability": "nonpayable",
      "type": "function"
    },
    {
      "inputs": [
        {
          "internalType": "address",
          "name": "",
          "type": "address"
        },
        {
          "internalType": "address",
          "name": "",
          "type": "address"
        },
        {
          "internalType": "uint256",
          "name": "",
          "type": "uint256"
        },
        {
          "internalType": "bytes",
          "name": "",
          "type": "bytes"
        }
      ],
      "name": "onERC721Received",
      "outputs": [
        {
          "internalType": "bytes4",
          "name": "",
          "type": "bytes4"
        }
      ],
      "stateMutability": "nonpayable",
      "type": "function"
    },
    {
      "inputs": [],
      "name": "owner",
      "outputs": [
        {
          "internalType": "address",
          "name": "",
          "type": "address"
        }
      ],
      "stateMutability": "view",
      "type": "function"
    },
    {
      "inputs": [],
      "name": "pause",
      "outputs": [],
      "stateMutability": "nonpayable",
      "type": "function"
    },
    {
      "inputs": [],
      "name": "paused",
      "outputs": [
        {
          "internalType": "bool",
          "name": "",
          "type": "bool"
        }
      ],
      "stateMutability": "view",
      "type": "function"
    },
    {
      "inputs": [
        {
          "internalType": "enum ExchangeWrapperCore.Markets",
          "name": "",
          "type": "uint8"
        }
      ],
      "name": "proxies",
      "outputs": [
        {
          "internalType": "address",
          "name": "",
          "type": "address"
        }
      ],
      "stateMutability": "view",
      "type": "function"
    },
    {
      "inputs": [],
      "name": "rarible",
      "outputs": [
        {
          "internalType": "address",
          "name": "",
          "type": "address"
        }
      ],
      "stateMutability": "view",
      "type": "function"
    },
    {
      "inputs": [],
      "name": "renounceOwnership",
      "outputs": [],
      "stateMutability": "nonpayable",
      "type": "function"
    },
    {
      "inputs": [],
      "name": "seaport_1_4",
      "outputs": [
        {
          "internalType": "address",
          "name": "",
          "type": "address"
        }
      ],
      "stateMutability": "view",
      "type": "function"
    },
    {
      "inputs": [],
      "name": "seaport_1_5",
      "outputs": [
        {
          "internalType": "address",
          "name": "",
          "type": "address"
        }
      ],
      "stateMutability": "view",
      "type": "function"
    },
    {
      "inputs": [
        {
          "internalType": "address",
          "name": "_blur",
          "type": "address"
        }
      ],
      "name": "setBlur",
      "outputs": [],
      "stateMutability": "nonpayable",
      "type": "function"
    },
    {
      "inputs": [
        {
          "internalType": "address",
          "name": "_looksrare",
          "type": "address"
        }
      ],
      "name": "setLooksRare",
      "outputs": [],
      "stateMutability": "nonpayable",
      "type": "function"
    },
    {
      "inputs": [
        {
          "internalType": "enum ExchangeWrapperCore.Markets",
          "name": "marketId",
          "type": "uint8"
        },
        {
          "internalType": "address",
          "name": "proxy",
          "type": "address"
        }
      ],
      "name": "setMarketProxy",
      "outputs": [],
      "stateMutability": "nonpayable",
      "type": "function"
    },
    {
      "inputs": [
        {
          "internalType": "address",
          "name": "_rarible",
          "type": "address"
        }
      ],
      "name": "setRarible",
      "outputs": [],
      "stateMutability": "nonpayable",
      "type": "function"
    },
    {
      "inputs": [
        {
          "internalType": "address",
          "name": "_seaport",
          "type": "address"
        }
      ],
      "name": "setSeaport14",
      "outputs": [],
      "stateMutability": "nonpayable",
      "type": "function"
    },
    {
      "inputs": [
        {
          "internalType": "address",
          "name": "_seaport",
          "type": "address"
        }
      ],
      "name": "setSeaport15",
      "outputs": [],
      "stateMutability": "nonpayable",
      "type": "function"
    },
    {
      "inputs": [
        {
          "internalType": "address",
          "name": "_sudoswap",
          "type": "address"
        }
      ],
      "name": "setSudoSwap",
      "outputs": [],
      "stateMutability": "nonpayable",
      "type": "function"
    },
    {
      "inputs": [
        {
          "internalType": "address",
          "name": "_erc20TransferProxy",
          "type": "address"
        }
      ],
      "name": "setTransferProxy",
      "outputs": [],
      "stateMutability": "nonpayable",
      "type": "function"
    },
    {
      "inputs": [
        {
          "internalType": "contract ISwapRouterV2",
          "name": "_uniswapRouterV2",
          "type": "address"
        }
      ],
      "name": "setUniswapV2",
      "outputs": [],
      "stateMutability": "nonpayable",
      "type": "function"
    },
    {
      "inputs": [
        {
          "internalType": "contract ISwapRouterV3",
          "name": "_uniswapRouterV3",
          "type": "address"
        }
      ],
      "name": "setUniswapV3",
      "outputs": [],
      "stateMutability": "nonpayable",
      "type": "function"
    },
    {
      "inputs": [
        {
          "internalType": "address",
          "name": "_wrappedToken",
          "type": "address"
        }
      ],
      "name": "setWrapped",
      "outputs": [],
      "stateMutability": "nonpayable",
      "type": "function"
    },
    {
      "inputs": [
        {
          "internalType": "address",
          "name": "_x2y2",
          "type": "address"
        }
      ],
      "name": "setX2Y2",
      "outputs": [],
      "stateMutability": "nonpayable",
      "type": "function"
    },
    {
      "inputs": [
        {
          "components": [
            {
              "internalType": "enum ExchangeWrapperCore.Markets",
              "name": "marketId",
              "type": "uint8"
            },
            {
              "internalType": "uint256",
              "name": "amount",
              "type": "uint256"
            },
            {
              "internalType": "address",
              "name": "paymentToken",
              "type": "address"
            },
            {
              "internalType": "uint256",
              "name": "fees",
              "type": "uint256"
            },
            {
              "internalType": "bytes",
              "name": "data",
              "type": "bytes"
            }
          ],
          "internalType": "struct ExchangeWrapperCore.PurchaseDetails",
          "name": "purchaseDetails",
          "type": "tuple"
        },
        {
          "internalType": "address",
          "name": "feeRecipientFirst",
          "type": "address"
        },
        {
          "internalType": "address",
          "name": "feeRecipientSecond",
          "type": "address"
        }
      ],
      "name": "singlePurchase",
      "outputs": [],
      "stateMutability": "payable",
      "type": "function"
    },
    {
      "inputs": [],
      "name": "sudoswap",
      "outputs": [
        {
          "internalType": "address",
          "name": "",
          "type": "address"
        }
      ],
      "stateMutability": "view",
      "type": "function"
    },
    {
      "inputs": [
        {
          "internalType": "bytes4",
          "name": "interfaceId",
          "type": "bytes4"
        }
      ],
      "name": "supportsInterface",
      "outputs": [
        {
          "internalType": "bool",
          "name": "",
          "type": "bool"
        }
      ],
      "stateMutability": "view",
      "type": "function"
    },
    {
      "inputs": [
        {
          "internalType": "address",
          "name": "newOwner",
          "type": "address"
        }
      ],
      "name": "transferOwnership",
      "outputs": [],
      "stateMutability": "nonpayable",
      "type": "function"
    },
    {
      "inputs": [],
      "name": "uniswapRouterV2",
      "outputs": [
        {
          "internalType": "contract ISwapRouterV2",
          "name": "",
          "type": "address"
        }
      ],
      "stateMutability": "view",
      "type": "function"
    },
    {
      "inputs": [],
      "name": "uniswapRouterV3",
      "outputs": [
        {
          "internalType": "contract ISwapRouterV3",
          "name": "",
          "type": "address"
        }
      ],
      "stateMutability": "view",
      "type": "function"
    },
    {
      "inputs": [],
      "name": "unpause",
      "outputs": [],
      "stateMutability": "nonpayable",
      "type": "function"
    },
    {
      "inputs": [],
      "name": "wrappedToken",
      "outputs": [
        {
          "internalType": "address",
          "name": "",
          "type": "address"
        }
      ],
      "stateMutability": "view",
      "type": "function"
    },
    {
      "inputs": [],
      "name": "x2y2",
      "outputs": [
        {
          "internalType": "address",
          "name": "",
          "type": "address"
        }
      ],
      "stateMutability": "view",
      "type": "function"
    },
    {
      "stateMutability": "payable",
      "type": "receive"
    }
  ],
  "transactionHash": "0x8111568ba0cafbce475ab16fda92837783976c32df7feaf2a344ad9cc99e260b",
  "args": [],
  "numDeployments": 4,
  "solcInputHash": "b409e2163f540739a526753a3a6c5675",
  "bytecode": "0x608060405234801561001057600080fd5b50615e7a80620000216000396000f3fe60806040526004361061023f5760003560e01c806386619edf1161012e578063acf342bd116100ab578063df6c25581161006f578063df6c2558146106b6578063f23a6e61146106d6578063f2fde38b14610702578063fc40c9c714610722578063fee03e9e1461074257600080fd5b8063acf342bd14610617578063bc197c8114610637578063c1aa293814610663578063c6d0ffd714610683578063d6dc927f146106a357600080fd5b8063996c6cc3116100f2578063996c6cc3146105775780639981a6d714610597578063a05f32dc146105b7578063a8e90b57146105d7578063aa78ae93146105f757600080fd5b806386619edf146104d05780638ae42905146104e35780638da5cb5b146105035780639137f9c21461052157806392e871bf1461055757600080fd5b806359e86829116101bc578063715018a611610180578063715018a61461044657806373a963d71461045b5780637908716c1461047b5780637da50dd61461049b5780638456cb59146104bb57600080fd5b806359e86829146103bb5780635c975abb146103db5780635ea1e4c9146103f35780635f2772e31461041357806365c5bb061461042657600080fd5b8063368c802c11610203578063368c802c146103335780633f4ba83a146103465780634fe356691461035b57806357f57d6a1461037b578063596fa9e31461039b57600080fd5b806301ffc9a71461024b57806308b1571d1461028057806310f91b0b146102a2578063150b7a02146102cf5780631d9a08be1461031357600080fd5b3661024657005b600080fd5b34801561025757600080fd5b5061026b610266366004613bdb565b610762565b60405190151581526020015b60405180910390f35b34801561028c57600080fd5b506102a061029b366004613c0d565b610799565b005b3480156102ae57600080fd5b5060a0546102c2906001600160a01b031681565b6040516102779190613c2a565b3480156102db57600080fd5b506102fa6102ea366004613e3c565b630a85bd0160e11b949350505050565b6040516001600160e01b03199091168152602001610277565b34801561031f57600080fd5b506102a061032e366004613c0d565b6107c3565b6102a0610341366004613f58565b6107ed565b34801561035257600080fd5b506102a06108bc565b34801561036757600080fd5b506099546102c2906001600160a01b031681565b34801561038757600080fd5b506102a0610396366004613c0d565b6108ce565b3480156103a757600080fd5b50609f546102c2906001600160a01b031681565b3480156103c757600080fd5b506102a06103d6366004613c0d565b6108f8565b3480156103e757600080fd5b5060655460ff1661026b565b3480156103ff57600080fd5b50609d546102c2906001600160a01b031681565b6102a06104213660046140ee565b610922565b34801561043257600080fd5b506102a0610441366004613c0d565b610a35565b34801561045257600080fd5b506102a0610a5f565b34801561046757600080fd5b506102a0610476366004613c0d565b610a71565b34801561048757600080fd5b506102a0610496366004613c0d565b610a9b565b3480156104a757600080fd5b506102a06104b636600461425e565b610ac5565b3480156104c757600080fd5b506102a0610b2b565b6102a06104de366004614297565b610b3b565b3480156104ef57600080fd5b506102a06104fe366004613c0d565b610b79565b34801561050f57600080fd5b506033546001600160a01b03166102c2565b34801561052d57600080fd5b506102c261053c366004614392565b60a3602052600090815260409020546001600160a01b031681565b34801561056357600080fd5b506102a0610572366004613c0d565b610ba3565b34801561058357600080fd5b5060a1546102c2906001600160a01b031681565b3480156105a357600080fd5b506102a06105b2366004613c0d565b610bcd565b3480156105c357600080fd5b506097546102c2906001600160a01b031681565b3480156105e357600080fd5b50609c546102c2906001600160a01b031681565b34801561060357600080fd5b506102a06106123660046143af565b610bf7565b34801561062357600080fd5b50609a546102c2906001600160a01b031681565b34801561064357600080fd5b506102fa610652366004614458565b63bc197c8160e01b95945050505050565b34801561066f57600080fd5b506102a061067e366004613c0d565b610d9a565b34801561068f57600080fd5b506098546102c2906001600160a01b031681565b6102a06106b1366004614505565b610dc4565b3480156106c257600080fd5b50609e546102c2906001600160a01b031681565b3480156106e257600080fd5b506102fa6106f1366004614579565b63f23a6e6160e01b95945050505050565b34801561070e57600080fd5b506102a061071d366004613c0d565b610f83565b34801561072e57600080fd5b50609b546102c2906001600160a01b031681565b34801561074e57600080fd5b5060a2546102c2906001600160a01b031681565b60006001600160e01b03198216630271189760e51b148061079357506301ffc9a760e01b6001600160e01b03198316145b92915050565b6107a1610ffc565b609e80546001600160a01b0319166001600160a01b0392909216919091179055565b6107cb610ffc565b609b80546001600160a01b0319166001600160a01b0392909216919091179055565b6107f5611056565b600080600061080586600061109c565b9250925092506108123390565b6001600160a01b03167fc5dd8c21802b423a9c822ee9c934f042186e6bb7097a1dd17717343ee84df7148460405161084e911515815260200190565b60405180910390a260408601516001600160a01b031661088157610872828661211e565b61087c818561211e565b6108ac565b61089086604001518387612149565b61089f86604001518286612149565b6108ac86604001516121ed565b6108b46122f4565b505050505050565b6108c4610ffc565b6108cc612305565b565b6108d6610ffc565b609c80546001600160a01b0319166001600160a01b0392909216919091179055565b610900610ffc565b60a080546001600160a01b0319166001600160a01b0392909216919091179055565b61092a611056565b60008160000151600081518110610943576109436145e1565b60200260200101519050600082600001516001846000015151610966919061460d565b81518110610976576109766145e1565b602090810291909101015160a1549091506001600160a01b03808316911614156109d35760006109a584612351565b9050806109cd5760405162461bcd60e51b81526004016109c490614624565b60405180910390fd5b50610a20565b60a1546001600160a01b03838116911614156109f45760006109a584612916565b60006109ff84612cd0565b905080610a1e5760405162461bcd60e51b81526004016109c490614624565b505b610a2c87878787610dc4565b50505050505050565b610a3d610ffc565b609d80546001600160a01b0319166001600160a01b0392909216919091179055565b610a67610ffc565b6108cc60006130c3565b610a79610ffc565b609f80546001600160a01b0319166001600160a01b0392909216919091179055565b610aa3610ffc565b609880546001600160a01b0319166001600160a01b0392909216919091179055565b610acd610ffc565b8060a36000846007811115610ae457610ae4614651565b6007811115610af557610af5614651565b815260200190815260200160002060006101000a8154816001600160a01b0302191690836001600160a01b031602179055505050565b610b33610ffc565b6108cc613115565b610b43611056565b6000610b4e82613152565b905080610b6d5760405162461bcd60e51b81526004016109c490614624565b6108b486868686610dc4565b610b81610ffc565b60a280546001600160a01b0319166001600160a01b0392909216919091179055565b610bab610ffc565b609a80546001600160a01b0319166001600160a01b0392909216919091179055565b610bd5610ffc565b609980546001600160a01b0319166001600160a01b0392909216919091179055565b600054610100900460ff1615808015610c175750600054600160ff909116105b80610c315750303b158015610c31575060005460ff166001145b610c945760405162461bcd60e51b815260206004820152602e60248201527f496e697469616c697a61626c653a20636f6e747261637420697320616c72656160448201526d191e481a5b9a5d1a585b1a5e995960921b60648201526084016109c4565b6000805460ff191660011790558015610cb7576000805461ff0019166101001790555b610cbf613696565b610cc76136bd565b610ccf6136ed565b609780546001600160a01b03199081166001600160a01b03808d1691909117909255609880548216838c16179055609980548216838b16179055609a80548216838a16179055609b80548216838916179055609c80548216838816179055609d80548216838716179055609e80549091169184169190911790558015610d8f576000805461ff0019169055604051600181527f7f26b83ff96e1f2b6a682f133852f6798a09c465da95921460cefb38474024989060200160405180910390a15b505050505050505050565b610da2610ffc565b60a180546001600160a01b0319166001600160a01b0392909216919091179055565b610dcc611056565b6000806000808751905060005b81811015610f0b576000806000610e098c8581518110610dfb57610dfb6145e1565b60200260200101518a61109c565b9250925092508580610e185750825b604051841515815290965033907fc5dd8c21802b423a9c822ee9c934f042186e6bb7097a1dd17717343ee84df7149060200160405180910390a260006001600160a01b03168c8581518110610e6f57610e6f6145e1565b6020026020010151604001516001600160a01b03161415610ea757610e948289614667565b9750610ea08188614667565b9650610ef7565b610ecf8c8581518110610ebc57610ebc6145e1565b602002602001015160400151838d612149565b610ef78c8581518110610ee457610ee46145e1565b602002602001015160400151828c612149565b50505080610f049061467f565b9050610dd9565b5081610f545760405162461bcd60e51b81526020600482015260186024820152776e6f207375636365737366756c20657865637574696f6e7360401b60448201526064016109c4565b610f5e848861211e565b610f68838761211e565b610f7188613720565b610f796122f4565b5050505050505050565b610f8b610ffc565b6001600160a01b038116610ff05760405162461bcd60e51b815260206004820152602660248201527f4f776e61626c653a206e6577206f776e657220697320746865207a65726f206160448201526564647265737360d01b60648201526084016109c4565b610ff9816130c3565b50565b6033546001600160a01b031633146108cc5760405162461bcd60e51b815260206004820181905260248201527f4f776e61626c653a2063616c6c6572206973206e6f7420746865206f776e657260448201526064016109c4565b60655460ff16156108cc5760405162461bcd60e51b815260206004820152601060248201526f14185d5cd8589b194e881c185d5cd95960821b60448201526064016109c4565b60008060008060006110bb87608001518860600151896000015161379a565b915091506000876020015190506000806110dd8a606001518b60200151613895565b60408c015191935091506001600160a01b031615611348576000925060008a604001516001600160a01b03166370a08231306040518263ffffffff1660e01b815260040161112b9190613c2a565b60206040518083038186803b15801561114357600080fd5b505afa158015611157573d6000803e3d6000fd5b505050506040513d601f19601f8201168201806040525081019061117b919061469a565b9050600082848d602001516111909190614667565b61119a9190614667565b90508181111561121c5760a25460408d01516001600160a01b039091169063776062c39033306111ca878761460d565b6040518563ffffffff1660e01b81526004016111e994939291906146b3565b600060405180830381600087803b15801561120357600080fd5b505af1158015611217573d6000803e3d6000fd5b505050505b600061122b8d600001516138c6565b905060008d604001516001600160a01b031663dd62ed3e83306040518363ffffffff1660e01b81526004016112619291906146dd565b60206040518083038186803b15801561127957600080fd5b505afa15801561128d573d6000803e3d6000fd5b505050506040513d601f19601f820116820180604052508101906112b1919061469a565b905082811015611343578d604001516001600160a01b031663095ea7b3836000196040518363ffffffff1660e01b81526004016112ef9291906146f7565b602060405180830381600087803b15801561130957600080fd5b505af115801561131d573d6000803e3d6000fd5b505050506040513d601f19601f82011682018060405250810190611341919061471b565b505b505050505b60028a51600781111561135d5761135d614651565b141561144257609a546040516000916001600160a01b0316908590611383908990614764565b60006040518083038185875af1925050503d80600081146113c0576040519150601f19603f3d011682016040523d82523d6000602084013e6113c5565b606091505b5050905089156113ef57806113ea576000806000985098509850505050505050612117565b61143c565b8061143c5760405162461bcd60e51b815260206004820152601b60248201527f507572636861736520536561506f72745f315f35206661696c6564000000000060448201526064016109c4565b506120fc565b60018a51600781111561145757611457614651565b1415611531576099546040516000916001600160a01b031690859061147d908990614764565b60006040518083038185875af1925050503d80600081146114ba576040519150601f19603f3d011682016040523d82523d6000602084013e6114bf565b606091505b5050905089156114e457806113ea576000806000985098509850505050505050612117565b8061143c5760405162461bcd60e51b815260206004820152601b60248201527f507572636861736520536561506f72745f315f34206661696c6564000000000060448201526064016109c4565b60068a51600781111561154657611546614651565b1415611620576097546040516000916001600160a01b031690859061156c908990614764565b60006040518083038185875af1925050503d80600081146115a9576040519150601f19603f3d011682016040523d82523d6000602084013e6115ae565b606091505b5050905089156115d357806113ea576000806000985098509850505050505050612117565b8061143c5760405162461bcd60e51b815260206004820152601b60248201527f50757263686173652047686f73744d61726b6574206661696c6564000000000060448201526064016109c4565b60008a51600781111561163557611635614651565b1415611709576098546040516000916001600160a01b031690859061165b908990614764565b60006040518083038185875af1925050503d8060008114611698576040519150601f19603f3d011682016040523d82523d6000602084013e61169d565b606091505b5050905089156116c257806113ea576000806000985098509850505050505050612117565b8061143c5760405162461bcd60e51b8152602060048201526017602482015276141d5c98da185cd94814985c9a589b194819985a5b1959604a1b60448201526064016109c4565b60038a51600781111561171e5761171e614651565b1415611bb35760008580602001905181019061173a9190614c7c565b905089156117be57609b5460405163357a150b60e01b81526001600160a01b039091169063357a150b908690611774908590600401614f20565b6000604051808303818588803b15801561178d57600080fd5b505af19350505050801561179f575060015b6117b9576000806000985098509850505050505050612117565b611823565b609b5460405163357a150b60e01b81526001600160a01b039091169063357a150b9086906117f0908590600401614f20565b6000604051808303818588803b15801561180957600080fd5b505af115801561181d573d6000803e3d6000fd5b50505050505b60208101515160005b81811015611bab5760008360200151828151811061184c5761184c6145e1565b6020026020010151602001519050600084602001518381518110611872576118726145e1565b6020026020010151604001519050600085600001518381518110611898576118986145e1565b6020026020010151610100015182815181106118b6576118b66145e1565b60200260200101516020015190506000866000015184815181106118dc576118dc6145e1565b602002602001015160e00151511180156119185750600086602001518581518110611909576119096145e1565b602002602001015160c0015151115b1561196a5761196a8187602001518681518110611937576119376145e1565b602002602001015160c0015188600001518681518110611959576119596145e1565b602002602001015160e0015161390f565b855180518490811061197e5761197e6145e1565b60200260200101516080015160011415611a5f576000818060200190518101906119a891906150dc565b905060005b8151811015611a585760008282815181106119ca576119ca6145e1565b6020026020010151905080600001516001600160a01b03166342842e0e306119ef3390565b84602001516040518463ffffffff1660e01b8152600401611a129392919061519a565b600060405180830381600087803b158015611a2c57600080fd5b505af1158015611a40573d6000803e3d6000fd5b50505050508080611a509061467f565b9150506119ad565b5050611b97565b8551805184908110611a7357611a736145e1565b60200260200101516080015160021415611b5357600081806020019051810190611a9d91906151be565b905060005b8151811015611a58576000828281518110611abf57611abf6145e1565b6020026020010151905080600001516001600160a01b031663f242432a30611ae43390565b846020015185604001516040518563ffffffff1660e01b8152600401611b0d9493929190615284565b600060405180830381600087803b158015611b2757600080fd5b505af1158015611b3b573d6000803e3d6000fd5b50505050508080611b4b9061467f565b915050611aa2565b60405162461bcd60e51b81526020600482015260196024820152783ab735b737bbb7103232b632b3b0ba32aa3cb832903c193c9960391b60448201526064016109c4565b50505080611ba49061467f565b905061182c565b5050506120fc565b60048a516007811115611bc857611bc8614651565b1415611df657600080600087806020019051810190611be791906153da565b9250925092508b15611c7357609c54604051635a72594b60e11b81526001600160a01b039091169063b4e4b296908890611c2790879087906004016154c2565b6000604051808303818588803b158015611c4057600080fd5b505af193505050508015611c52575060015b611c6e5760008060009a509a509a505050505050505050612117565b611cda565b609c54604051635a72594b60e11b81526001600160a01b039091169063b4e4b296908890611ca790879087906004016154c2565b6000604051808303818588803b158015611cc057600080fd5b505af1158015611cd4573d6000803e3d6000fd5b50505050505b6001600160e01b031981166339d690a360e11b1415611d625760408201516001600160a01b03166342842e0e303385608001516040518463ffffffff1660e01b8152600401611d2b9392919061519a565b600060405180830381600087803b158015611d4557600080fd5b505af1158015611d59573d6000803e3d6000fd5b50505050611bab565b6001600160e01b0319811663025ceed960e61b1415611db957604082810151608084015160a08501519251637921219560e11b81526001600160a01b039092169263f242432a92611d2b9230923392600401615284565b60405162461bcd60e51b8152602060048201526012602482015271556e6b6e6f776e20746f6b656e207479706560701b60448201526064016109c4565b60058a516007811115611e0b57611e0b614651565b1415611ee057609d546040516000916001600160a01b0316908590611e31908990614764565b60006040518083038185875af1925050503d8060008114611e6e576040519150601f19603f3d011682016040523d82523d6000602084013e611e73565b606091505b505090508915611e9857806113ea576000806000985098509850505050505050612117565b8061143c5760405162461bcd60e51b8152602060048201526018602482015277141d5c98da185cd94814dd591bd4ddd85c0819985a5b195960421b60448201526064016109c4565b60078a516007811115611ef557611ef5614651565b14156120b957600080600087806020019051810190611f14919061587c565b9250925092508b15611fa057609e54604051639a1fc3a760e01b81526001600160a01b0390911690639a1fc3a7908890611f549087908790600401615aa0565b6000604051808303818588803b158015611f6d57600080fd5b505af193505050508015611f7f575060015b611f9b5760008060009a509a509a505050505050505050612117565b612007565b609e54604051639a1fc3a760e01b81526001600160a01b0390911690639a1fc3a7908890611fd49087908790600401615aa0565b6000604051808303818588803b158015611fed57600080fd5b505af1158015612001573d6000803e3d6000fd5b50505050505b6001600160e01b031981166339d690a360e11b141561205c5782516060810151608090910151604051632142170760e11b81526001600160a01b03909216916342842e0e91611d2b913091339160040161519a565b6001600160e01b0319811663025ceed960e61b1415611db95782516060810151608082015160a090920151604051637921219560e11b81526001600160a01b039092169263f242432a92611d2b9230923392909190600401615284565b60405162461bcd60e51b8152602060048201526018602482015277556e6b6e6f776e2070757263686173652064657461696c7360401b60448201526064016109c4565b61210a848b602001516139bc565b6001975090955093505050505b9250925092565b60008211801561213657506001600160a01b03811615155b15612145576121458183613a60565b5050565b60008211801561216157506001600160a01b03811615155b156121e85760405163a9059cbb60e01b81526001600160a01b0384169063a9059cbb9061219490849086906004016146f7565b602060405180830381600087803b1580156121ae57600080fd5b505af11580156121c2573d6000803e3d6000fd5b505050506040513d601f19601f820116820180604052508101906121e6919061471b565b505b505050565b6040516370a0823160e01b81526000906001600160a01b038316906370a082319061221c903090600401613c2a565b60206040518083038186803b15801561223457600080fd5b505afa158015612248573d6000803e3d6000fd5b505050506040513d601f19601f8201168201806040525081019061226c919061469a565b905080156121455760405163a9059cbb60e01b81526001600160a01b0383169063a9059cbb906122a290339085906004016146f7565b602060405180830381600087803b1580156122bc57600080fd5b505af11580156122d0573d6000803e3d6000fd5b505050506040513d601f19601f820116820180604052508101906121e8919061471b565b478015610ff957610ff93382613a60565b61230d613b14565b6065805460ff191690557f5db9ee0a495bf2e6ff9c91a7834c1ba4fdd244a5e8aa4e537bd38aeae4b073aa335b6040516123479190613c2a565b60405180910390a1565b600080826000015160008151811061236b5761236b6145e1565b6020026020010151905060008360000151600185600001515161238e919061460d565b8151811061239e5761239e6145e1565b602090810291909101015160a2549091506001600160a01b031663776062c383333088604001516040518563ffffffff1660e01b81526004016123e494939291906146b3565b600060405180830381600087803b1580156123fe57600080fd5b505af1158015612412573d6000803e3d6000fd5b505060a1546001600160a01b038581169116149150508015612435575083608001515b156124b45760a1546040808601519051632e1a7d4d60e01b81526001600160a01b0390921691632e1a7d4d916124719160040190815260200190565b600060405180830381600087803b15801561248b57600080fd5b505af192505050801561249c575060015b6124aa575060009392505050565b5060019392505050565b6000341180156124d1575060a1546001600160a01b038281169116145b1561253a5760a160009054906101000a90046001600160a01b03166001600160a01b031663d0e30db0346040518263ffffffff1660e01b81526004016000604051808303818588803b15801561252657600080fd5b505af19350505050801561249c57506124aa565b609f54604051636eb1769f60e11b81526000916001600160a01b038086169263dd62ed3e9261256f92169030906004016146dd565b60206040518083038186803b15801561258757600080fd5b505afa15801561259b573d6000803e3d6000fd5b505050506040513d601f19601f820116820180604052508101906125bf919061469a565b9050846040015181101561265757609f5460405163095ea7b360e01b81526001600160a01b038581169263095ea7b3926126039290911690600019906004016146f7565b602060405180830381600087803b15801561261d57600080fd5b505af1158015612631573d6000803e3d6000fd5b505050506040513d601f19601f82011682018060405250810190612655919061471b565b505b46600061a86a82148061266b57508161a869145b9050600047821561273957609f5460208a01516040808c015160608d01518d519251636d3420ed60e01b81526000956001600160a01b031694636d3420ed946126be949193919230904290600401615b37565b600060405180830381600087803b1580156126d857600080fd5b505af11580156126ec573d6000803e3d6000fd5b505050506040513d6000823e601f3d908101601f191682016040526127149190810190615be2565b905080600081518110612729576127296145e1565b60200260200101519250506127f1565b609f5460208a01516040808c01518c519151632512eca560e11b81526000946001600160a01b031693634a25d94a9361277a93919230904290600401615c16565b600060405180830381600087803b15801561279457600080fd5b505af11580156127a8573d6000803e3d6000fd5b505050506040513d6000823e601f3d908101601f191682016040526127d09190810190615be2565b9050806000815181106127e5576127e56145e1565b60200260200101519250505b60408901514790831015612890576001600160a01b03881663a9059cbb33858d6040015161281f919061460d565b6040518363ffffffff1660e01b815260040161283c9291906146f7565b602060405180830381600087803b15801561285657600080fd5b505af115801561286a573d6000803e3d6000fd5b505050506040513d601f19601f8201168201806040525081019061288e919061471b565b505b8960800151156129065760a1546001600160a01b031663d0e30db06128b5848461460d565b6040518263ffffffff1660e01b81526004016000604051808303818588803b1580156128e057600080fd5b505af1935050505080156128f2575060015b612906575060009998505050505050505050565b5060019998505050505050505050565b6000808260000151600081518110612930576129306145e1565b60200260200101519050600083600001516001856000015151612953919061460d565b81518110612963576129636145e1565b602002602001015190503460001415612a505760a2546001600160a01b031663776062c383333088604001516040518563ffffffff1660e01b81526004016129ae94939291906146b3565b600060405180830381600087803b1580156129c857600080fd5b505af11580156129dc573d6000803e3d6000fd5b505060a1546040808801519051632e1a7d4d60e01b81526001600160a01b039092169350632e1a7d4d9250612a179160040190815260200190565b600060405180830381600087803b158015612a3157600080fd5b505af1925050508015612a42575060015b612a50575060009392505050565b600034118015612a6d575060a1546001600160a01b038281169116145b15612b705760a160009054906101000a90046001600160a01b03166001600160a01b031663d0e30db0346040518263ffffffff1660e01b81526004016000604051808303818588803b158015612ac257600080fd5b505af193505050508015612ad4575060015b612ae2575060009392505050565b604080850151905163a9059cbb60e01b81526001600160a01b0383169163a9059cbb91612b139133916004016146f7565b602060405180830381600087803b158015612b2d57600080fd5b505af1158015612b41573d6000803e3d6000fd5b505050506040513d601f19601f82011682018060405250810190612b65919061471b565b506001949350505050565b46600061a86a821480612b8457508161a869145b90508015612c2d57609f54604080880151602089015160608a01518a519351630217ab2560e51b81526001600160a01b03909516946342f564a094612bd193929130904290600401615c52565b6000604051808303818588803b158015612bea57600080fd5b505af1158015612bfe573d6000803e3d6000fd5b50505050506040513d6000823e601f3d908101601f19168201604052612c279190810190615be2565b50612cc4565b609f5460408088015160208901518951925163fb3bdb4160e01b81526001600160a01b039094169363fb3bdb4193612c6c929130904290600401615c9b565b6000604051808303818588803b158015612c8557600080fd5b505af1158015612c99573d6000803e3d6000fd5b50505050506040513d6000823e601f3d908101601f19168201604052612cc29190810190615be2565b505b50600195945050505050565b6000808260000151600081518110612cea57612cea6145e1565b602090810291909101015160a2549091506001600160a01b031663776062c382333087604001516040518563ffffffff1660e01b8152600401612d3094939291906146b3565b600060405180830381600087803b158015612d4a57600080fd5b505af1158015612d5e573d6000803e3d6000fd5b5050609f54604051636eb1769f60e11b8152600093506001600160a01b03808616935063dd62ed3e92612d989291169030906004016146dd565b60206040518083038186803b158015612db057600080fd5b505afa158015612dc4573d6000803e3d6000fd5b505050506040513d601f19601f82011682018060405250810190612de8919061469a565b90508360400151811015612e8057609f5460405163095ea7b360e01b81526001600160a01b038481169263095ea7b392612e2c9290911690600019906004016146f7565b602060405180830381600087803b158015612e4657600080fd5b505af1158015612e5a573d6000803e3d6000fd5b505050506040513d601f19601f82011682018060405250810190612e7e919061471b565b505b46600061a86a821480612e9457508161a869145b905060008115612f6157609f5460208801516040808a015160608b01518b51925163a7b856d360e01b81526000956001600160a01b03169463a7b856d394612ee6949193919230904290600401615b37565b600060405180830381600087803b158015612f0057600080fd5b505af1158015612f14573d6000803e3d6000fd5b505050506040513d6000823e601f3d908101601f19168201604052612f3c9190810190615be2565b905080600081518110612f5157612f516145e1565b6020026020010151915050613019565b609f5460208801516040808a01518a519151634401edf760e11b81526000946001600160a01b031693638803dbee93612fa293919230904290600401615c16565b600060405180830381600087803b158015612fbc57600080fd5b505af1158015612fd0573d6000803e3d6000fd5b505050506040513d6000823e601f3d908101601f19168201604052612ff89190810190615be2565b90508060008151811061300d5761300d6145e1565b60200260200101519150505b86604001518110156130b6576001600160a01b03851663a9059cbb33838a60400151613045919061460d565b6040518363ffffffff1660e01b81526004016130629291906146f7565b602060405180830381600087803b15801561307c57600080fd5b505af1158015613090573d6000803e3d6000fd5b505050506040513d601f19601f820116820180604052508101906130b4919061471b565b505b5060019695505050505050565b603380546001600160a01b038381166001600160a01b0319831681179093556040519116919082907f8be0079c531659141344cd1fd0a4f28419497f9722a3daafe3b4186f6b6457e090600090a35050565b61311d611056565b6065805460ff191660011790557f62e78cea01bee320cd4e420270b5ea74000d11b0c9f74754ebdbfc544b05a25861233a3390565b6000806000808460000151905060006014825161316f919061460d565b9050600160601b81602084010151049350600160601b600060208401015104925034600014156132045760a2546001600160a01b031663776062c38533308a604001516040518563ffffffff1660e01b81526004016131d194939291906146b3565b600060405180830381600087803b1580156131eb57600080fd5b505af11580156131ff573d6000803e3d6000fd5b505050505b60a1546001600160a01b038581169116148015613222575085606001515b156132995760a1546020870151604051632e1a7d4d60e01b81526001600160a01b0390921691632e1a7d4d9161325e9160040190815260200190565b600060405180830381600087803b15801561327857600080fd5b505af1925050508015613289575060015b612cc45750600095945050505050565b6000341180156132b6575060a1546001600160a01b038481169116145b1561331f5760a160009054906101000a90046001600160a01b03166001600160a01b031663d0e30db0346040518263ffffffff1660e01b81526004016000604051808303818588803b15801561330b57600080fd5b505af1935050505080156132895750612cc4565b60a054604051636eb1769f60e11b81526000916001600160a01b038088169263dd62ed3e9261335492169030906004016146dd565b60206040518083038186803b15801561336c57600080fd5b505afa158015613380573d6000803e3d6000fd5b505050506040513d601f19601f820116820180604052508101906133a4919061469a565b9050866040015181101561343c5760a05460405163095ea7b360e01b81526001600160a01b038781169263095ea7b3926133e89290911690600019906004016146f7565b602060405180830381600087803b15801561340257600080fd5b505af1158015613416573d6000803e3d6000fd5b505050506040513d601f19601f8201168201806040525081019061343a919061471b565b505b6040805160a08082018352895182523060208084019190915242838501528a01516060830152898301516080830152549151631e51809360e31b815290916000916001600160a01b039091169063f28c049890349061349f908690600401615cd0565b6020604051808303818588803b1580156134b857600080fd5b505af1935050505080156134e9575060408051601f3d908101601f191682019092526134e69181019061469a565b60015b6134fc5750600098975050505050505050565b905060a060009054906101000a90046001600160a01b03166001600160a01b03166312210e8a6040518163ffffffff1660e01b8152600401600060405180830381600087803b15801561354e57600080fd5b505af1158015613562573d6000803e3d6000fd5b505050508860600151156135e55760a15460208a0151604051632e1a7d4d60e01b81526001600160a01b0390921691632e1a7d4d916135a79160040190815260200190565b600060405180830381600087803b1580156135c157600080fd5b505af19250505080156135d2575060015b6135e55750600098975050505050505050565b88604001518110156136875734613687576001600160a01b03871663a9059cbb33838c60400151613616919061460d565b6040518363ffffffff1660e01b81526004016136339291906146f7565b602060405180830381600087803b15801561364d57600080fd5b505af1158015613661573d6000803e3d6000fd5b505050506040513d601f19601f82011682018060405250810190613685919061471b565b505b50600198975050505050505050565b600054610100900460ff166108cc5760405162461bcd60e51b81526004016109c490615d28565b600054610100900460ff166136e45760405162461bcd60e51b81526004016109c490615d28565b6108cc336130c3565b600054610100900460ff166137145760405162461bcd60e51b81526004016109c490615d28565b6065805460ff19169055565b805160005b818110156121e85760006001600160a01b031683828151811061374a5761374a6145e1565b6020026020010151604001516001600160a01b03161461378a5761378a838281518110613779576137796145e1565b6020026020010151604001516121ed565b6137938161467f565b9050613725565b6060806000602085901c61ffff1660018111156137b9576137b9614651565b9050606060008260018111156137d1576137d1614651565b14156137e357869350915061388d9050565b60018260018111156137f7576137f7614651565b1415613845576000878060200190518101906138139190615d73565b905061381e86613b5d565b1561383957806000015181602001519450945050505061388d565b519350915061388d9050565b60405162461bcd60e51b815260206004820152601a60248201527f756e6b6e6f776e206164646974696f6e616c446174615479706500000000000060448201526064016109c4565b935093915050565b60008061ffff601085901c81169085166138af8583613ba5565b6138b98683613ba5565b9350935050509250929050565b600060a360008360078111156138de576138de614651565b60078111156138ef576138ef614651565b81526020810191909152604001600020546001600160a01b031692915050565b815183511461391d57600080fd5b805183511461392b57600080fd5b825160005b818110156139b55782818151811061394a5761394a6145e1565b01602001516001600160f81b031916156139a557838181518110613970576139706145e1565b602001015160f81c60f81b85828151811061398d5761398d6145e1565b60200101906001600160f81b031916908160001a9053505b6139ae8161467f565b9050613930565b5050505050565b815160005b818110156121e65760008482815181106139dd576139dd6145e1565b60200260200101511115613a505760008482815181106139ff576139ff6145e1565b60200260200101519050600060a0868481518110613a1f57613a1f6145e1565b6020026020010151901c90506000613a408287613ba590919063ffffffff16565b9050613a4c818461211e565b5050505b613a598161467f565b90506139c1565b6000826001600160a01b03168260405160006040518083038185875af1925050503d8060008114613aad576040519150601f19603f3d011682016040523d82523d6000602084013e613ab2565b606091505b50509050806121e85760405162461bcd60e51b815260206004820152602860248201527f4c69625472616e73666572204261736543757272656e6379207472616e7366656044820152671c8819985a5b195960c21b60648201526084016109c4565b60655460ff166108cc5760405162461bcd60e51b815260206004820152601460248201527314185d5cd8589b194e881b9bdd081c185d5cd95960621b60448201526064016109c4565b60006005826007811115613b7357613b73614651565b1480613b9057506004826007811115613b8e57613b8e614651565b145b15613b9d57506001919050565b506000919050565b6000612710613bb48385615e03565b613bbe9190615e22565b9392505050565b6001600160e01b031981168114610ff957600080fd5b600060208284031215613bed57600080fd5b8135613bbe81613bc5565b6001600160a01b0381168114610ff957600080fd5b600060208284031215613c1f57600080fd5b8135613bbe81613bf8565b6001600160a01b0391909116815260200190565b634e487b7160e01b600052604160045260246000fd5b60405160a081016001600160401b0381118282101715613c7657613c76613c3e565b60405290565b604051608081016001600160401b0381118282101715613c7657613c76613c3e565b604080519081016001600160401b0381118282101715613c7657613c76613c3e565b6040516101a081016001600160401b0381118282101715613c7657613c76613c3e565b60405161016081016001600160401b0381118282101715613c7657613c76613c3e565b60405160c081016001600160401b0381118282101715613c7657613c76613c3e565b604051606081016001600160401b0381118282101715613c7657613c76613c3e565b60405161020081016001600160401b0381118282101715613c7657613c76613c3e565b60405160e081016001600160401b0381118282101715613c7657613c76613c3e565b604051601f8201601f191681016001600160401b0381118282101715613db757613db7613c3e565b604052919050565b60006001600160401b03821115613dd857613dd8613c3e565b50601f01601f191660200190565b600082601f830112613df757600080fd5b8135613e0a613e0582613dbf565b613d8f565b818152846020838601011115613e1f57600080fd5b816020850160208301376000918101602001919091529392505050565b60008060008060808587031215613e5257600080fd5b8435613e5d81613bf8565b93506020850135613e6d81613bf8565b92506040850135915060608501356001600160401b03811115613e8f57600080fd5b613e9b87828801613de6565b91505092959194509250565b60088110610ff957600080fd5b600060a08284031215613ec657600080fd5b60405160a081016001600160401b038282108183111715613ee957613ee9613c3e565b8160405282935084359150613efd82613ea7565b8183526020850135602084015260408501359150613f1a82613bf8565b816040840152606085013560608401526080850135915080821115613f3e57600080fd5b50613f4b85828601613de6565b6080830152505092915050565b600080600060608486031215613f6d57600080fd5b83356001600160401b03811115613f8357600080fd5b613f8f86828701613eb4565b9350506020840135613fa081613bf8565b91506040840135613fb081613bf8565b809150509250925092565b6001600160a01b03169052565b60006001600160401b03821115613fe157613fe1613c3e565b5060051b60200190565b600082601f830112613ffc57600080fd5b8135602061400c613e0583613fc8565b82815260059290921b8401810191818101908684111561402b57600080fd5b8286015b8481101561406a5780356001600160401b0381111561404e5760008081fd5b61405c8986838b0101613eb4565b84525091830191830161402f565b509695505050505050565b8015158114610ff957600080fd5b803561408e81614075565b919050565b600082601f8301126140a457600080fd5b813560206140b4613e0583613fc8565b82815260059290921b840181019181810190868411156140d357600080fd5b8286015b8481101561406a57803583529183019183016140d7565b600080600080600060a0868803121561410657600080fd5b85356001600160401b038082111561411d57600080fd5b61412989838a01613feb565b9650602091508188013561413c81613bf8565b9550604088013561414c81613bf8565b9450606088013561415c81614075565b935060808801358181111561417057600080fd5b880160a0818b03121561418257600080fd5b61418a613c54565b81358381111561419957600080fd5b8201601f81018c136141aa57600080fd5b80356141b8613e0582613fc8565b81815260059190911b8201860190868101908e8311156141d757600080fd5b928701925b828410156141fe5783356141ef81613bf8565b825292870192908701906141dc565b80855250505050838201358482015260408201356040820152606082013593508284111561422b57600080fd5b6142378b858401614093565b606082015261424860808301614083565b6080820152809450505050509295509295909350565b6000806040838503121561427157600080fd5b823561427c81613ea7565b9150602083013561428c81613bf8565b809150509250929050565b600080600080600060a086880312156142af57600080fd5b85356001600160401b03808211156142c657600080fd5b6142d289838a01613feb565b9650602088013591506142e482613bf8565b9094506040870135906142f682613bf8565b90935060608701359061430882614075565b9092506080870135908082111561431e57600080fd5b908701906080828a03121561433257600080fd5b61433a613c7c565b82358281111561434957600080fd5b6143558b828601613de6565b82525060208301356020820152604083013560408201526060830135925061437c83614075565b8260608201528093505050509295509295909350565b6000602082840312156143a457600080fd5b8135613bbe81613ea7565b600080600080600080600080610100898b0312156143cc57600080fd5b88356143d781613bf8565b975060208901356143e781613bf8565b965060408901356143f781613bf8565b9550606089013561440781613bf8565b9450608089013561441781613bf8565b935060a089013561442781613bf8565b925060c089013561443781613bf8565b915060e089013561444781613bf8565b809150509295985092959890939650565b600080600080600060a0868803121561447057600080fd5b853561447b81613bf8565b9450602086013561448b81613bf8565b935060408601356001600160401b03808211156144a757600080fd5b6144b389838a01614093565b945060608801359150808211156144c957600080fd5b6144d589838a01614093565b935060808801359150808211156144eb57600080fd5b506144f888828901613de6565b9150509295509295909350565b6000806000806080858703121561451b57600080fd5b84356001600160401b0381111561453157600080fd5b61453d87828801613feb565b945050602085013561454e81613bf8565b9250604085013561455e81613bf8565b9150606085013561456e81614075565b939692955090935050565b600080600080600060a0868803121561459157600080fd5b853561459c81613bf8565b945060208601356145ac81613bf8565b9350604086013592506060860135915060808601356001600160401b038111156145d557600080fd5b6144f888828901613de6565b634e487b7160e01b600052603260045260246000fd5b634e487b7160e01b600052601160045260246000fd5b60008282101561461f5761461f6145f7565b500390565b6020808252601390820152721cddd85c081b9bdd081cdd58d8d95cdcd99d5b606a1b604082015260600190565b634e487b7160e01b600052602160045260246000fd5b6000821982111561467a5761467a6145f7565b500190565b6000600019821415614693576146936145f7565b5060010190565b6000602082840312156146ac57600080fd5b5051919050565b6001600160a01b039485168152928416602084015292166040820152606081019190915260800190565b6001600160a01b0392831681529116602082015260400190565b6001600160a01b03929092168252602082015260400190565b805161408e81614075565b60006020828403121561472d57600080fd5b8151613bbe81614075565b60005b8381101561475357818101518382015260200161473b565b838111156121e65750506000910152565b60008251614776818460208701614738565b9190910192915050565b805161408e81613bf8565b600082601f83011261479c57600080fd5b81516147aa613e0582613dbf565b8181528460208386010111156147bf57600080fd5b6147d0826020830160208701614738565b949350505050565b600082601f8301126147e957600080fd5b815160206147f9613e0583613fc8565b82815260059290921b8401810191818101908684111561481857600080fd5b8286015b8481101561406a5780516001600160401b038082111561483c5760008081fd5b908801906040828b03601f19018113156148565760008081fd5b61485e613c9e565b8388015181529083015190828211156148775760008081fd5b6148858c898487010161478b565b81890152865250505091830191830161481c565b805160ff8116811461408e57600080fd5b600082601f8301126148bb57600080fd5b815160206148cb613e0583613fc8565b82815260059290921b840181019181810190868411156148ea57600080fd5b8286015b8481101561406a5780516001600160401b038082111561490e5760008081fd5b908801906101a0828b03601f19018113156149295760008081fd5b614931613cc0565b8784015181526040614944818601614780565b89830152606080860151828401526080915081860151818401525060a0808601518284015260c0915081860151818401525060e0614983818701614780565b828401526101009150818601518581111561499e5760008081fd5b6149ac8f8c838a010161478b565b82850152505061012080860151858111156149c75760008081fd5b6149d58f8c838a01016147d8565b838501525061014094508486015181840152505061016080850151848301526101809350614a04848601614899565b90820152614a13848301614899565b92810192909252508452509183019183016148ee565b805161408e81613ea7565b600082601f830112614a4557600080fd5b81516020614a55613e0583613fc8565b82815260069290921b84018101918181019086841115614a7457600080fd5b8286015b8481101561406a5760408189031215614a915760008081fd5b614a99613c9e565b8151815284820151614aaa81613bf8565b81860152835291830191604001614a78565b600082601f830112614acd57600080fd5b81516020614add613e0583613fc8565b82815260059290921b84018101918181019086841115614afc57600080fd5b8286015b8481101561406a5780516001600160401b0380821115614b205760008081fd5b90880190610160828b03601f1901811315614b3b5760008081fd5b614b43613ce3565b614b4e888501614a29565b815260408085015189830152606080860151828401526080915081860151818401525060a0808601518284015260c09150614b8a828701614780565b9083015260e08581015185811115614ba25760008081fd5b614bb08f8c838a010161478b565b838501525061010091508186015181840152506101208086015182840152610140915081860151818401525082850151925083831115614bf05760008081fd5b614bfe8d8a85880101614a34565b908201528652505050918301918301614b00565b600060c08284031215614c2457600080fd5b614c2c613d06565b9050815181526020820151602082015260408201516040820152606082015160608201526080820151614c5e81613bf8565b608082015260a0820151614c7181614075565b60a082015292915050565b600060208284031215614c8e57600080fd5b81516001600160401b0380821115614ca557600080fd5b908301906101608286031215614cba57600080fd5b614cc2613d06565b825182811115614cd157600080fd5b614cdd878286016148aa565b825250602083015182811115614cf257600080fd5b614cfe87828601614abc565b602083015250614d118660408501614c12565b604082015261010083015160608201526101208301516080820152614d396101408401614899565b60a082015295945050505050565b60008151808452614d5f816020860160208601614738565b601f01601f19169290920160200192915050565b600081518084526020808501808196508360051b8101915082860160005b85811015614dcf5782840389528151805185528501516040868601819052614dbb81870183614d47565b9a87019a9550505090840190600101614d91565b5091979650505050505050565b60088110614dec57614dec614651565b9052565b600081518084526020808501945080840160005b83811015614e34578151805188528301516001600160a01b03168388015260409096019590820190600101614e04565b509495945050505050565b600081518084526020808501808196508360051b8101915082860160005b85811015614dcf5782840389528151610160614e7a868351614ddc565b818701518688015260408083015190870152606080830151908701526080808301519087015260a080830151614eb282890182613fbb565b505060c0808301518282890152614ecb83890182614d47565b60e085810151908a015261010080860151908a015261012080860151908a015261014094850151898203958a01959095529250614f0c915082905083614df0565b9a87019a9550505090840190600101614e5d565b60006020808352610180808401855161016080858801528282518085526101a094508489019150848160051b8a0101878501945060005b8281101561503b578a820361019f1901845285518051835289810151614f7f8b850182613fbb565b5060408181015190840152606080820151908401526080808201519084015260a0808201519084015260c080820151614fba82860182613fbb565b505060e0808201518982860152614fd38a860182614d47565b9150506101008083015185830382870152614fee8382614d73565b925050506101208083015181860152506101408083015181860152508682015161501c8886018260ff169052565b509089015160ff16928901929092529488019492880192600101614f57565b50968a0151898803601f190160408b0152966150578189614e3f565b9750505050604088015193506150ad6060880185805182526020808201519083015260408082015190830152606080820151908301526080808201516001600160a01b03169083015260a0908101511515910152565b6060880151610120880152608088015161014088015260a09097015160ff169690950195909552509392505050565b600060208083850312156150ef57600080fd5b82516001600160401b0381111561510557600080fd5b8301601f8101851361511657600080fd5b8051615124613e0582613fc8565b81815260069190911b8201830190838101908783111561514357600080fd5b928401925b8284101561518f57604084890312156151615760008081fd5b615169613c9e565b845161517481613bf8565b81528486015186820152825260409093019290840190615148565b979650505050505050565b6001600160a01b039384168152919092166020820152604081019190915260600190565b600060208083850312156151d157600080fd5b82516001600160401b038111156151e757600080fd5b8301601f810185136151f857600080fd5b8051615206613e0582613fc8565b8181526060918202830184019184820191908884111561522557600080fd5b938501935b838510156152785780858a0312156152425760008081fd5b61524a613d28565b855161525581613bf8565b81528587015187820152604080870151908201528352938401939185019161522a565b50979650505050505050565b6001600160a01b0394851681529290931660208301526040820152606081019190915260a06080820181905260009082015260c00190565b600061020082840312156152cf57600080fd5b6152d7613d4a565b90506152e282614710565b81526152f060208301614780565b602082015261530160408301614780565b6040820152606082015160608201526080820151608082015260a082015160a082015261533060c08301614780565b60c082015261534160e08301614780565b60e08201526101008281015190820152610120808301519082015261014080830151908201526101608083015190820152610180808301516001600160401b0381111561538d57600080fd5b6153998582860161478b565b8284015250506101a06153ad818401614899565b908201526101c082810151908201526101e09182015191810191909152919050565b805161408e81613bc5565b6000806000606084860312156153ef57600080fd5b83516001600160401b038082111561540657600080fd5b9085019060c0828803121561541a57600080fd5b615422613d06565b825161542d81614075565b8152602083015161543d81613bf8565b8060208301525060408301516040820152606083015160608201526080830151608082015260a08301518281111561547457600080fd5b6154808982860161478b565b60a083015250602087015190955091508082111561549d57600080fd5b506154aa868287016152bc565b9250506154b9604085016153cf565b90509250925092565b60408152600061010084511515604084015260018060a01b03602086015116606084015260408501516080840152606085015160a0840152608085015160c084015260a085015160c060e085015261551c82850182614d47565b8481036020860152855115158152905061020060208601516155416020840182613fbb565b5060408601516155546040840182613fbb565b50606086015160608301526080860151608083015260a086015160a083015260c086015161558560c0840182613fbb565b5060e086015161559860e0840182613fbb565b508583015192820192909252610120808601519082015261014080860151908201526101608086015190820152610180808601518183018490529092906155e182840182614d47565b935050506101a0808601516155fa8284018260ff169052565b50506101c085810151908201526101e094850151940193909352509092915050565b80516002811061408e57600080fd5b600082601f83011261563c57600080fd5b8151602061564c613e0583613fc8565b82815260069290921b8401810191818101908684111561566b57600080fd5b8286015b8481101561406a57604081890312156156885760008081fd5b615690613c9e565b815161ffff811681146156a35760008081fd5b8152818501516156b281613bf8565b8186015283529183019160400161566f565b60006101a082840312156156d757600080fd5b6156df613cc0565b90506156ea82614780565b81526156f86020830161561c565b602082015261570960408301614780565b604082015261571a60608301614780565b60608201526080820151608082015260a082015160a082015261573f60c08301614780565b60c082015260e0828101519082015261010080830151908201526101208083015190820152610140808301516001600160401b038082111561578057600080fd5b61578c8683870161562b565b83850152610160925082850151838501526101809250828501519150808211156157b557600080fd5b506157c28582860161478b565b82840152505092915050565b600060e082840312156157e057600080fd5b6157e8613d6d565b905081516001600160401b038082111561580157600080fd5b61580d858386016156c4565b835261581b60208501614899565b60208401526040840151604084015260608401516060840152608084015191508082111561584857600080fd5b506158558482850161478b565b60808301525061586760a0830161561c565b60a082015260c082015160c082015292915050565b60008060006060848603121561589157600080fd5b83516001600160401b03808211156158a857600080fd5b6158b4878388016157ce565b945060208601519150808211156158ca57600080fd5b506158d7868287016157ce565b9250506040840151613fb081613bc5565b60028110614dec57614dec614651565b600081518084526020808501945080840160005b83811015614e34578151805161ffff1688528301516001600160a01b0316838801526040909601959082019060010161590c565b6000815160e0845261595660e085018251613fbb565b602081015161010061596a818701836158e8565b6040830151915061012061598081880184613fbb565b6060840151925061014061599681890185613fbb565b6080850151935061016084818a015260a0860151945061018085818b015260c087015195506101a06159ca818c0188613fbb565b60e08801516101c08c0152858801516101e08c0152848801516102008c0152838801519650806102208c015250615a056102808b01876158f8565b918701516102408b01529095015188860360df19016102608a0152949350615a339250839150849050614d47565b9150506020830151615a4a602086018260ff169052565b50604083015160408501526060830151606085015260808301518482036080860152615a768282614d47565b91505060a0830151615a8b60a08601826158e8565b5060c083015160c08501528091505092915050565b604081526000615ab36040830185615940565b8281036020840152615ac58185615940565b95945050505050565b600081518084526020808501945080840160005b83811015614e3457815187529582019590820190600101615ae2565b600081518084526020808501945080840160005b83811015614e345781516001600160a01b031687529582019590820190600101615b12565b86815285602082015260c060408201526000615b5660c0830187615ace565b8281036060840152615b688187615afe565b6001600160a01b03959095166080840152505060a00152949350505050565b600082601f830112615b9857600080fd5b81516020615ba8613e0583613fc8565b82815260059290921b84018101918181019086841115615bc757600080fd5b8286015b8481101561406a5780518352918301918301615bcb565b600060208284031215615bf457600080fd5b81516001600160401b03811115615c0a57600080fd5b6147d084828501615b87565b85815284602082015260a060408201526000615c3560a0830186615afe565b6001600160a01b0394909416606083015250608001529392505050565b85815260a060208201526000615c6b60a0830187615ace565b8281036040840152615c7d8187615afe565b6001600160a01b039590951660608401525050608001529392505050565b848152608060208201526000615cb46080830186615afe565b6001600160a01b03949094166040830152506060015292915050565b602081526000825160a06020840152615cec60c0840182614d47565b905060018060a01b0360208501511660408401526040840151606084015260608401516080840152608084015160a08401528091505092915050565b6020808252602b908201527f496e697469616c697a61626c653a20636f6e7472616374206973206e6f74206960408201526a6e697469616c697a696e6760a81b606082015260800190565b600060208284031215615d8557600080fd5b81516001600160401b0380821115615d9c57600080fd5b9083019060408286031215615db057600080fd5b615db8613c9e565b825182811115615dc757600080fd5b615dd38782860161478b565b825250602083015182811115615de857600080fd5b615df487828601615b87565b60208301525095945050505050565b6000816000190483118215151615615e1d57615e1d6145f7565b500290565b600082615e3f57634e487b7160e01b600052601260045260246000fd5b50049056fea2646970667358221220e18fcb26ac0051944ad5df169c5198d5e1c84daea86c760b64fa642bea93718d64736f6c63430008090033",
  "devdoc": {
    "kind": "dev",
    "methods": {
      "bulkPurchase((uint8,uint256,address,uint256,bytes)[],address,address,bool)": {
        "params": {
          "allowFail": "- true if fails while executing orders are allowed, false if fail of a single order means fail of the whole batch",
          "feeRecipientFirst": "- address of the first fee recipient",
          "feeRecipientSecond": "- address of the second fee recipient",
          "purchaseDetails": "- array of details about the purchases (more info in PurchaseDetails struct)"
        }
      },
      "bulkPurchaseWithSwap((uint8,uint256,address,uint256,bytes)[],address,address,bool,(bytes,uint256,uint256,bool))": {
        "params": {
          "allowFail": "- true if fails while executing orders are allowed, false if fail of a single order means fail of the whole batch",
          "feeRecipientFirst": "- address of the first fee recipient",
          "feeRecipientSecond": "- address of the second fee recipient",
          "purchaseDetails": "- array of details about the purchases (more info in PurchaseDetails struct)",
          "swapDetails": "- swapDetails v3"
        }
      },
      "bulkPurchaseWithV2Swap((uint8,uint256,address,uint256,bytes)[],address,address,bool,(address[],uint256,uint256,uint256[],bool))": {
        "params": {
          "allowFail": "- true if fails while executing orders are allowed, false if fail of a single order means fail of the whole batch",
          "feeRecipientFirst": "- address of the first fee recipient",
          "feeRecipientSecond": "- address of the second fee recipient",
          "purchaseDetails": "- array of details about the purchases (more info in PurchaseDetails struct)",
          "swapDetails": "- swapDetails v2"
        }
      },
      "onERC721Received(address,address,uint256,bytes)": {
        "details": "See {IERC721Receiver-onERC721Received}. Always returns `IERC721Receiver.onERC721Received.selector`."
      },
      "owner()": {
        "details": "Returns the address of the current owner."
      },
      "paused()": {
        "details": "Returns true if the contract is paused, and false otherwise."
      },
      "renounceOwnership()": {
        "details": "Leaves the contract without owner. It will not be possible to call `onlyOwner` functions anymore. Can only be called by the current owner. NOTE: Renouncing ownership will leave the contract without an owner, thereby removing any functionality that is only available to the owner."
      },
      "singlePurchase((uint8,uint256,address,uint256,bytes),address,address)": {
        "params": {
          "feeRecipientFirst": "- address of the first fee recipient",
          "feeRecipientSecond": "- address of the second fee recipient",
          "purchaseDetails": "- details about the purchase (more info in PurchaseDetails struct)"
        }
      },
      "supportsInterface(bytes4)": {
        "details": "See {IERC165-supportsInterface}."
      },
      "transferOwnership(address)": {
        "details": "Transfers ownership of the contract to a new account (`newOwner`). Can only be called by the current owner."
      }
    },
    "version": 1
  },
  "userdoc": {
    "kind": "user",
    "methods": {
      "bulkPurchase((uint8,uint256,address,uint256,bytes)[],address,address,bool)": {
        "notice": "executes an array of purchases"
      },
      "bulkPurchaseWithSwap((uint8,uint256,address,uint256,bytes)[],address,address,bool,(bytes,uint256,uint256,bool))": {
        "notice": "executes an array of purchases - with swap v3"
      },
      "bulkPurchaseWithV2Swap((uint8,uint256,address,uint256,bytes)[],address,address,bool,(address[],uint256,uint256,uint256[],bool))": {
        "notice": "executes an array of purchases - with swap v2 - tokens for tokens or tokens for eth/weth"
      },
      "pause()": {
        "notice": "Pause the contract"
      },
      "setBlur(address)": {
        "notice": "set blur - temporary to remove"
      },
      "setLooksRare(address)": {
        "notice": "set looksrare - temporary to remove"
      },
      "setMarketProxy(uint8,address)": {
        "notice": "Set erc20 proxy for market"
      },
      "setRarible(address)": {
        "notice": "set rarible - temporary to remove"
      },
      "setSeaport14(address)": {
        "notice": "set seaport 1.4 - temporary to remove"
      },
      "setSeaport15(address)": {
        "notice": "set seaport 1.5 - temporary to remove"
      },
      "setSudoSwap(address)": {
        "notice": "set sudoswap - temporary to remove"
      },
      "setTransferProxy(address)": {
        "notice": "Set erc20 transfer proxy"
      },
      "setUniswapV2(address)": {
        "notice": "Set uniswap v2 router"
      },
      "setUniswapV3(address)": {
        "notice": "Set uniswap v3 router"
      },
      "setWrapped(address)": {
        "notice": "Set wrapped token"
      },
      "setX2Y2(address)": {
        "notice": "set x2y2 - temporary to remove"
      },
      "singlePurchase((uint8,uint256,address,uint256,bytes),address,address)": {
        "notice": "executes a single purchase"
      },
      "unpause()": {
        "notice": "Unpause the contract"
      }
    },
    "version": 1
  },
  "storageLayout": {
    "storage": [
      {
        "astId": 721,
        "contract": "src/exchange-wrapper/ExchangeWrapper.sol:ExchangeWrapper",
        "label": "_initialized",
        "offset": 0,
        "slot": "0",
        "type": "t_uint8"
      },
      {
        "astId": 724,
        "contract": "src/exchange-wrapper/ExchangeWrapper.sol:ExchangeWrapper",
        "label": "_initializing",
        "offset": 1,
        "slot": "0",
        "type": "t_bool"
      },
      {
        "astId": 4842,
        "contract": "src/exchange-wrapper/ExchangeWrapper.sol:ExchangeWrapper",
        "label": "__gap",
        "offset": 0,
        "slot": "1",
        "type": "t_array(t_uint256)50_storage"
      },
      {
        "astId": 593,
        "contract": "src/exchange-wrapper/ExchangeWrapper.sol:ExchangeWrapper",
        "label": "_owner",
        "offset": 0,
        "slot": "51",
        "type": "t_address"
      },
      {
        "astId": 713,
        "contract": "src/exchange-wrapper/ExchangeWrapper.sol:ExchangeWrapper",
        "label": "__gap",
        "offset": 0,
        "slot": "52",
        "type": "t_array(t_uint256)49_storage"
      },
      {
        "astId": 886,
        "contract": "src/exchange-wrapper/ExchangeWrapper.sol:ExchangeWrapper",
        "label": "_paused",
        "offset": 0,
        "slot": "101",
        "type": "t_bool"
      },
      {
        "astId": 991,
        "contract": "src/exchange-wrapper/ExchangeWrapper.sol:ExchangeWrapper",
        "label": "__gap",
        "offset": 0,
        "slot": "102",
        "type": "t_array(t_uint256)49_storage"
      },
      {
        "astId": 11538,
        "contract": "src/exchange-wrapper/ExchangeWrapper.sol:ExchangeWrapper",
        "label": "exchangeV2",
        "offset": 0,
        "slot": "151",
        "type": "t_address"
      },
      {
        "astId": 11540,
        "contract": "src/exchange-wrapper/ExchangeWrapper.sol:ExchangeWrapper",
        "label": "rarible",
        "offset": 0,
        "slot": "152",
        "type": "t_address"
      },
      {
        "astId": 11542,
        "contract": "src/exchange-wrapper/ExchangeWrapper.sol:ExchangeWrapper",
        "label": "seaport_1_4",
        "offset": 0,
        "slot": "153",
        "type": "t_address"
      },
      {
        "astId": 11544,
        "contract": "src/exchange-wrapper/ExchangeWrapper.sol:ExchangeWrapper",
        "label": "seaport_1_5",
        "offset": 0,
        "slot": "154",
        "type": "t_address"
      },
      {
        "astId": 11546,
        "contract": "src/exchange-wrapper/ExchangeWrapper.sol:ExchangeWrapper",
        "label": "x2y2",
        "offset": 0,
        "slot": "155",
        "type": "t_address"
      },
      {
        "astId": 11548,
        "contract": "src/exchange-wrapper/ExchangeWrapper.sol:ExchangeWrapper",
        "label": "looksrare",
        "offset": 0,
        "slot": "156",
        "type": "t_address"
      },
      {
        "astId": 11550,
        "contract": "src/exchange-wrapper/ExchangeWrapper.sol:ExchangeWrapper",
        "label": "sudoswap",
        "offset": 0,
        "slot": "157",
        "type": "t_address"
      },
      {
        "astId": 11552,
        "contract": "src/exchange-wrapper/ExchangeWrapper.sol:ExchangeWrapper",
        "label": "blur",
        "offset": 0,
        "slot": "158",
        "type": "t_address"
      },
      {
        "astId": 11555,
        "contract": "src/exchange-wrapper/ExchangeWrapper.sol:ExchangeWrapper",
        "label": "uniswapRouterV2",
        "offset": 0,
        "slot": "159",
        "type": "t_contract(ISwapRouterV2)14749"
      },
      {
        "astId": 11558,
        "contract": "src/exchange-wrapper/ExchangeWrapper.sol:ExchangeWrapper",
        "label": "uniswapRouterV3",
        "offset": 0,
        "slot": "160",
        "type": "t_contract(ISwapRouterV3)14799"
      },
      {
        "astId": 11560,
        "contract": "src/exchange-wrapper/ExchangeWrapper.sol:ExchangeWrapper",
        "label": "wrappedToken",
        "offset": 0,
        "slot": "161",
        "type": "t_address"
      },
      {
        "astId": 11562,
        "contract": "src/exchange-wrapper/ExchangeWrapper.sol:ExchangeWrapper",
        "label": "erc20TransferProxy",
        "offset": 0,
        "slot": "162",
        "type": "t_address"
      },
      {
        "astId": 11567,
        "contract": "src/exchange-wrapper/ExchangeWrapper.sol:ExchangeWrapper",
        "label": "proxies",
        "offset": 0,
        "slot": "163",
        "type": "t_mapping(t_enum(Markets)11582,t_address)"
      }
    ],
    "types": {
      "t_address": {
        "encoding": "inplace",
        "label": "address",
        "numberOfBytes": "20"
      },
      "t_array(t_uint256)49_storage": {
        "base": "t_uint256",
        "encoding": "inplace",
        "label": "uint256[49]",
        "numberOfBytes": "1568"
      },
      "t_array(t_uint256)50_storage": {
        "base": "t_uint256",
        "encoding": "inplace",
        "label": "uint256[50]",
        "numberOfBytes": "1600"
      },
      "t_bool": {
        "encoding": "inplace",
        "label": "bool",
        "numberOfBytes": "1"
      },
      "t_contract(ISwapRouterV2)14749": {
        "encoding": "inplace",
        "label": "contract ISwapRouterV2",
        "numberOfBytes": "20"
      },
      "t_contract(ISwapRouterV3)14799": {
        "encoding": "inplace",
        "label": "contract ISwapRouterV3",
        "numberOfBytes": "20"
      },
      "t_enum(Markets)11582": {
        "encoding": "inplace",
        "label": "enum ExchangeWrapperCore.Markets",
        "numberOfBytes": "1"
      },
      "t_mapping(t_enum(Markets)11582,t_address)": {
        "encoding": "mapping",
        "key": "t_enum(Markets)11582",
        "label": "mapping(enum ExchangeWrapperCore.Markets => address)",
        "numberOfBytes": "32",
        "value": "t_address"
      },
      "t_uint256": {
        "encoding": "inplace",
        "label": "uint256",
        "numberOfBytes": "32"
      },
      "t_uint8": {
        "encoding": "inplace",
        "label": "uint8",
        "numberOfBytes": "1"
      }
    }
  }
}