{
  "address": "0xBfFF66A150923594CE25901Bc351Bf6603B76758",
  "abi": [
    {
      "anonymous": false,
      "inputs": [
        {
          "indexed": false,
          "internalType": "bool",
          "name": "result",
          "type": "bool"
        },
        {
          "indexed": true,
          "internalType": "address",
          "name": "sender",
          "type": "address"
        }
      ],
      "name": "Execution",
      "type": "event"
    },
    {
      "anonymous": false,
      "inputs": [
        {
          "indexed": false,
          "internalType": "uint8",
          "name": "version",
          "type": "uint8"
        }
      ],
      "name": "Initialized",
      "type": "event"
    },
    {
      "anonymous": false,
      "inputs": [
        {
          "indexed": true,
          "internalType": "address",
          "name": "previousOwner",
          "type": "address"
        },
        {
          "indexed": true,
          "internalType": "address",
          "name": "newOwner",
          "type": "address"
        }
      ],
      "name": "OwnershipTransferred",
      "type": "event"
    },
    {
      "anonymous": false,
      "inputs": [
        {
          "indexed": false,
          "internalType": "address",
          "name": "account",
          "type": "address"
        }
      ],
      "name": "Paused",
      "type": "event"
    },
    {
      "anonymous": false,
      "inputs": [
        {
          "indexed": false,
          "internalType": "address",
          "name": "account",
          "type": "address"
        }
      ],
      "name": "Unpaused",
      "type": "event"
    },
    {
      "inputs": [
        {
          "internalType": "address",
          "name": "_exchangeV2",
          "type": "address"
        },
        {
          "internalType": "address",
          "name": "_rarible",
          "type": "address"
        },
        {
          "internalType": "address",
          "name": "_wyvern",
          "type": "address"
        },
        {
          "internalType": "address",
          "name": "_seaport",
          "type": "address"
        },
        {
          "internalType": "address",
          "name": "_x2y2",
          "type": "address"
        },
        {
          "internalType": "address",
          "name": "_looksrare",
          "type": "address"
        },
        {
          "internalType": "address",
          "name": "_sudoswap",
          "type": "address"
        }
      ],
      "name": "__ExchangeWrapper_init",
      "outputs": [],
      "stateMutability": "nonpayable",
      "type": "function"
    },
    {
      "inputs": [
        {
          "components": [
            {
              "internalType": "enum ExchangeWrapperCore.Markets",
              "name": "marketId",
              "type": "uint8"
            },
            {
              "internalType": "uint256",
              "name": "amount",
              "type": "uint256"
            },
            {
              "internalType": "uint256",
              "name": "fees",
              "type": "uint256"
            },
            {
              "internalType": "bytes",
              "name": "data",
              "type": "bytes"
            }
          ],
          "internalType": "struct ExchangeWrapperCore.PurchaseDetails[]",
          "name": "purchaseDetails",
          "type": "tuple[]"
        },
        {
          "internalType": "address",
          "name": "feeRecipientFirst",
          "type": "address"
        },
        {
          "internalType": "address",
          "name": "feeRecipientSecond",
          "type": "address"
        },
        {
          "internalType": "bool",
          "name": "allowFail",
          "type": "bool"
        }
      ],
      "name": "bulkPurchase",
      "outputs": [],
      "stateMutability": "payable",
      "type": "function"
    },
    {
      "inputs": [],
      "name": "exchangeV2",
      "outputs": [
        {
          "internalType": "address",
          "name": "",
          "type": "address"
        }
      ],
      "stateMutability": "view",
      "type": "function"
    },
    {
      "inputs": [],
      "name": "looksrare",
      "outputs": [
        {
          "internalType": "address",
          "name": "",
          "type": "address"
        }
      ],
      "stateMutability": "view",
      "type": "function"
    },
    {
      "inputs": [
        {
          "internalType": "address",
          "name": "",
          "type": "address"
        },
        {
          "internalType": "address",
          "name": "",
          "type": "address"
        },
        {
          "internalType": "uint256[]",
          "name": "",
          "type": "uint256[]"
        },
        {
          "internalType": "uint256[]",
          "name": "",
          "type": "uint256[]"
        },
        {
          "internalType": "bytes",
          "name": "",
          "type": "bytes"
        }
      ],
      "name": "onERC1155BatchReceived",
      "outputs": [
        {
          "internalType": "bytes4",
          "name": "",
          "type": "bytes4"
        }
      ],
      "stateMutability": "nonpayable",
      "type": "function"
    },
    {
      "inputs": [
        {
          "internalType": "address",
          "name": "",
          "type": "address"
        },
        {
          "internalType": "address",
          "name": "",
          "type": "address"
        },
        {
          "internalType": "uint256",
          "name": "",
          "type": "uint256"
        },
        {
          "internalType": "uint256",
          "name": "",
          "type": "uint256"
        },
        {
          "internalType": "bytes",
          "name": "",
          "type": "bytes"
        }
      ],
      "name": "onERC1155Received",
      "outputs": [
        {
          "internalType": "bytes4",
          "name": "",
          "type": "bytes4"
        }
      ],
      "stateMutability": "nonpayable",
      "type": "function"
    },
    {
      "inputs": [
        {
          "internalType": "address",
          "name": "",
          "type": "address"
        },
        {
          "internalType": "address",
          "name": "",
          "type": "address"
        },
        {
          "internalType": "uint256",
          "name": "",
          "type": "uint256"
        },
        {
          "internalType": "bytes",
          "name": "",
          "type": "bytes"
        }
      ],
      "name": "onERC721Received",
      "outputs": [
        {
          "internalType": "bytes4",
          "name": "",
          "type": "bytes4"
        }
      ],
      "stateMutability": "nonpayable",
      "type": "function"
    },
    {
      "inputs": [],
      "name": "owner",
      "outputs": [
        {
          "internalType": "address",
          "name": "",
          "type": "address"
        }
      ],
      "stateMutability": "view",
      "type": "function"
    },
    {
      "inputs": [],
      "name": "pause",
      "outputs": [],
      "stateMutability": "nonpayable",
      "type": "function"
    },
    {
      "inputs": [],
      "name": "paused",
      "outputs": [
        {
          "internalType": "bool",
          "name": "",
          "type": "bool"
        }
      ],
      "stateMutability": "view",
      "type": "function"
    },
    {
      "inputs": [],
      "name": "rarible",
      "outputs": [
        {
          "internalType": "address",
          "name": "",
          "type": "address"
        }
      ],
      "stateMutability": "view",
      "type": "function"
    },
    {
      "inputs": [],
      "name": "renounceOwnership",
      "outputs": [],
      "stateMutability": "nonpayable",
      "type": "function"
    },
    {
      "inputs": [],
      "name": "seaport",
      "outputs": [
        {
          "internalType": "address",
          "name": "",
          "type": "address"
        }
      ],
      "stateMutability": "view",
      "type": "function"
    },
    {
      "inputs": [
        {
          "components": [
            {
              "internalType": "enum ExchangeWrapperCore.Markets",
              "name": "marketId",
              "type": "uint8"
            },
            {
              "internalType": "uint256",
              "name": "amount",
              "type": "uint256"
            },
            {
              "internalType": "uint256",
              "name": "fees",
              "type": "uint256"
            },
            {
              "internalType": "bytes",
              "name": "data",
              "type": "bytes"
            }
          ],
          "internalType": "struct ExchangeWrapperCore.PurchaseDetails",
          "name": "purchaseDetails",
          "type": "tuple"
        },
        {
          "internalType": "address",
          "name": "feeRecipientFirst",
          "type": "address"
        },
        {
          "internalType": "address",
          "name": "feeRecipientSecond",
          "type": "address"
        }
      ],
      "name": "singlePurchase",
      "outputs": [],
      "stateMutability": "payable",
      "type": "function"
    },
    {
      "inputs": [],
      "name": "sudoswap",
      "outputs": [
        {
          "internalType": "address",
          "name": "",
          "type": "address"
        }
      ],
      "stateMutability": "view",
      "type": "function"
    },
    {
      "inputs": [
        {
          "internalType": "bytes4",
          "name": "interfaceId",
          "type": "bytes4"
        }
      ],
      "name": "supportsInterface",
      "outputs": [
        {
          "internalType": "bool",
          "name": "",
          "type": "bool"
        }
      ],
      "stateMutability": "view",
      "type": "function"
    },
    {
      "inputs": [
        {
          "internalType": "address",
          "name": "newOwner",
          "type": "address"
        }
      ],
      "name": "transferOwnership",
      "outputs": [],
      "stateMutability": "nonpayable",
      "type": "function"
    },
    {
      "inputs": [],
      "name": "unpause",
      "outputs": [],
      "stateMutability": "nonpayable",
      "type": "function"
    },
    {
      "inputs": [],
      "name": "wyvern",
      "outputs": [
        {
          "internalType": "address",
          "name": "",
          "type": "address"
        }
      ],
      "stateMutability": "view",
      "type": "function"
    },
    {
      "inputs": [],
      "name": "x2y2",
      "outputs": [
        {
          "internalType": "address",
          "name": "",
          "type": "address"
        }
      ],
      "stateMutability": "view",
      "type": "function"
    },
    {
      "stateMutability": "payable",
      "type": "receive"
    }
  ],
  "transactionHash": "0xee48087c890fb3a9d1dacdf0d13531dfa6c081bb0ba3caf85e2c1fa734f9a598",
  "args": [],
  "solcInputHash": "c38a6f56aac05d03a4a1582c032d6571",
  "bytecode": "0x608060405234801561001057600080fd5b50613233806100206000396000f3fe6080604052600436106101235760003560e01c8063a05f32dc116100a0578063e3891cc311610064578063e3891cc314610329578063f23a6e6114610349578063f2fde38b14610375578063f5c7bd7014610395578063fc40c9c7146103b557600080fd5b8063a05f32dc1461028a578063a8e90b57146102aa578063b94ee332146102ca578063bc197c81146102dd578063c6d0ffd71461030957600080fd5b80635ea1e4c9116100e75780635ea1e4c91461020f578063715018a61461022f5780638456cb591461024457806386496e7a146102595780638da5cb5b1461026c57600080fd5b806301ffc9a71461012f578063150b7a02146101645780633f4ba83a146101a85780634edfc9f9146101bf5780635c975abb146101f757600080fd5b3661012a57005b600080fd5b34801561013b57600080fd5b5061014f61014a366004611a75565b6103d5565b60405190151581526020015b60405180910390f35b34801561017057600080fd5b5061018f61017f366004611c4f565b630a85bd0160e11b949350505050565b6040516001600160e01b0319909116815260200161015b565b3480156101b457600080fd5b506101bd61040c565b005b3480156101cb57600080fd5b506099546101df906001600160a01b031681565b6040516001600160a01b03909116815260200161015b565b34801561020357600080fd5b5060655460ff1661014f565b34801561021b57600080fd5b50609d546101df906001600160a01b031681565b34801561023b57600080fd5b506101bd61041e565b34801561025057600080fd5b506101bd610430565b6101bd610267366004611d59565b610440565b34801561027857600080fd5b506033546001600160a01b03166101df565b34801561029657600080fd5b506097546101df906001600160a01b031681565b3480156102b657600080fd5b50609c546101df906001600160a01b031681565b6101bd6102d8366004611df8565b6104cd565b3480156102e957600080fd5b5061018f6102f8366004611f41565b63bc197c8160e01b95945050505050565b34801561031557600080fd5b506098546101df906001600160a01b031681565b34801561033557600080fd5b506101bd610344366004611fee565b6105f7565b34801561035557600080fd5b5061018f610364366004612084565b63f23a6e6160e01b95945050505050565b34801561038157600080fd5b506101bd6103903660046120ec565b61078d565b3480156103a157600080fd5b50609a546101df906001600160a01b031681565b3480156103c157600080fd5b50609b546101df906001600160a01b031681565b60006001600160e01b03198216630271189760e51b148061040657506301ffc9a760e01b6001600160e01b03198316145b92915050565b610414610806565b61041c610860565b565b610426610806565b61041c60006108b2565b610438610806565b61041c610904565b610448610941565b6000806000610458866000610987565b9250925092506104653390565b6001600160a01b03167fc5dd8c21802b423a9c822ee9c934f042186e6bb7097a1dd17717343ee84df714846040516104a1911515815260200190565b60405180910390a26104b382866115b1565b6104bd81856115b1565b6104c56115dc565b505050505050565b6104d5610941565b6000806000805b875181101561058457600080600061050d8b85815181106104ff576104ff612109565b602002602001015189610987565b925092509250848061051c5750825b604051841515815290955033907fc5dd8c21802b423a9c822ee9c934f042186e6bb7097a1dd17717343ee84df7149060200160405180910390a26105608288612135565b965061056c8187612135565b9550505050808061057c9061214d565b9150506104dc565b50806105d25760405162461bcd60e51b81526020600482015260186024820152776e6f207375636365737366756c20657865637574696f6e7360401b60448201526064015b60405180910390fd5b6105dc83876115b1565b6105e682866115b1565b6105ee6115dc565b50505050505050565b600054610100900460ff16158080156106175750600054600160ff909116105b806106315750303b158015610631575060005460ff166001145b6106945760405162461bcd60e51b815260206004820152602e60248201527f496e697469616c697a61626c653a20636f6e747261637420697320616c72656160448201526d191e481a5b9a5d1a585b1a5e995960921b60648201526084016105c9565b6000805460ff1916600117905580156106b7576000805461ff0019166101001790555b6106bf6115ed565b6106c7611614565b6106cf611644565b609780546001600160a01b03199081166001600160a01b03808c1691909117909255609880548216838b16179055609980548216838a16179055609a80548216838916179055609b80548216838816179055609c80548216838716179055609d80549091169184169190911790558015610783576000805461ff0019169055604051600181527f7f26b83ff96e1f2b6a682f133852f6798a09c465da95921460cefb38474024989060200160405180910390a15b5050505050505050565b610795610806565b6001600160a01b0381166107fa5760405162461bcd60e51b815260206004820152602660248201527f4f776e61626c653a206e6577206f776e657220697320746865207a65726f206160448201526564647265737360d01b60648201526084016105c9565b610803816108b2565b50565b6033546001600160a01b0316331461041c5760405162461bcd60e51b815260206004820181905260248201527f4f776e61626c653a2063616c6c6572206973206e6f7420746865206f776e657260448201526064016105c9565b610868611677565b6065805460ff191690557f5db9ee0a495bf2e6ff9c91a7834c1ba4fdd244a5e8aa4e537bd38aeae4b073aa335b6040516001600160a01b03909116815260200160405180910390a1565b603380546001600160a01b038381166001600160a01b0319831681179093556040519116919082907f8be0079c531659141344cd1fd0a4f28419497f9722a3daafe3b4186f6b6457e090600090a35050565b61090c610941565b6065805460ff191660011790557f62e78cea01bee320cd4e420270b5ea74000d11b0c9f74754ebdbfc544b05a2586108953390565b60655460ff161561041c5760405162461bcd60e51b815260206004820152601060248201526f14185d5cd8589b194e881c185d5cd95960821b60448201526064016105c9565b60008060008060006109a68760600151886040015189600001516116c0565b602089015191935091506002885160068111156109c5576109c5612168565b1415610aa257609a546040516000916001600160a01b03169083906109eb9087906121aa565b60006040518083038185875af1925050503d8060008114610a28576040519150601f19603f3d011682016040523d82523d6000602084013e610a2d565b606091505b505090508715610a555780610a50576000806000965096509650505050506115aa565b610a9c565b80610a9c5760405162461bcd60e51b8152602060048201526017602482015276141d5c98da185cd94814d9585c1bdc9d0819985a5b1959604a1b60448201526064016105c9565b50611578565b600188516006811115610ab757610ab7612168565b1415610b88576099546040516000916001600160a01b0316908390610add9087906121aa565b60006040518083038185875af1925050503d8060008114610b1a576040519150601f19603f3d011682016040523d82523d6000602084013e610b1f565b606091505b505090508715610b425780610a50576000806000965096509650505050506115aa565b80610a9c5760405162461bcd60e51b8152602060048201526016602482015275141d5c98da185cd94815de5d995c9b8819985a5b195960521b60448201526064016105c9565b600688516006811115610b9d57610b9d612168565b1415610c75576097546040516000916001600160a01b0316908390610bc39087906121aa565b60006040518083038185875af1925050503d8060008114610c00576040519150601f19603f3d011682016040523d82523d6000602084013e610c05565b606091505b505090508715610c285780610a50576000806000965096509650505050506115aa565b80610a9c5760405162461bcd60e51b815260206004820152601b60248201527f50757263686173652047686f73744d61726b6574206661696c6564000000000060448201526064016105c9565b600088516006811115610c8a57610c8a612168565b1415610d5c576098546040516000916001600160a01b0316908390610cb09087906121aa565b60006040518083038185875af1925050503d8060008114610ced576040519150601f19603f3d011682016040523d82523d6000602084013e610cf2565b606091505b505090508715610d155780610a50576000806000965096509650505050506115aa565b80610a9c5760405162461bcd60e51b8152602060048201526017602482015276141d5c98da185cd94814985c9a589b194819985a5b1959604a1b60448201526064016105c9565b600388516006811115610d7157610d71612168565b141561120457600083806020019051810190610d8d91906126d1565b90508715610e0f57609b5460405163357a150b60e01b81526001600160a01b039091169063357a150b908490610dc790859060040161298d565b6000604051808303818588803b158015610de057600080fd5b505af193505050508015610df2575060015b610e0a576000806000965096509650505050506115aa565b610e74565b609b5460405163357a150b60e01b81526001600160a01b039091169063357a150b908490610e4190859060040161298d565b6000604051808303818588803b158015610e5a57600080fd5b505af1158015610e6e573d6000803e3d6000fd5b50505050505b60005b8160200151518110156111fd57600082602001518281518110610e9c57610e9c612109565b6020026020010151602001519050600083602001518381518110610ec257610ec2612109565b6020026020010151604001519050600084600001518381518110610ee857610ee8612109565b602002602001015161010001518281518110610f0657610f06612109565b6020026020010151602001519050600085600001518481518110610f2c57610f2c612109565b602002602001015160e0015151118015610f685750600085602001518581518110610f5957610f59612109565b602002602001015160c0015151115b15610fba57610fba8186602001518681518110610f8757610f87612109565b602002602001015160c0015187600001518681518110610fa957610fa9612109565b602002602001015160e001516117bb565b8451805184908110610fce57610fce612109565b602002602001015160800151600114156110af57600081806020019051810190610ff89190612b49565b905060005b81518110156110a857600082828151811061101a5761101a612109565b6020026020010151905080600001516001600160a01b03166342842e0e3061103f3390565b84602001516040518463ffffffff1660e01b815260040161106293929190612c07565b600060405180830381600087803b15801561107c57600080fd5b505af1158015611090573d6000803e3d6000fd5b505050505080806110a09061214d565b915050610ffd565b50506111e7565b84518051849081106110c3576110c3612109565b602002602001015160800151600214156111a3576000818060200190518101906110ed9190612c2b565b905060005b81518110156110a857600082828151811061110f5761110f612109565b6020026020010151905080600001516001600160a01b031663f242432a306111343390565b846020015185604001516040518563ffffffff1660e01b815260040161115d9493929190612cf1565b600060405180830381600087803b15801561117757600080fd5b505af115801561118b573d6000803e3d6000fd5b5050505050808061119b9061214d565b9150506110f2565b60405162461bcd60e51b81526020600482015260196024820152783ab735b737bbb7103232b632b3b0ba32aa3cb832903c193c9960391b60448201526064016105c9565b50505080806111f59061214d565b915050610e77565b5050611578565b60048851600681111561121957611219612168565b141561144d576000806000858060200190518101906112389190612e47565b92509250925089156112c257609c54604051635a72594b60e11b81526001600160a01b039091169063b4e4b2969086906112789087908790600401612f2f565b6000604051808303818588803b15801561129157600080fd5b505af1935050505080156112a3575060015b6112bd5760008060009850985098505050505050506115aa565b611329565b609c54604051635a72594b60e11b81526001600160a01b039091169063b4e4b2969086906112f69087908790600401612f2f565b6000604051808303818588803b15801561130f57600080fd5b505af1158015611323573d6000803e3d6000fd5b50505050505b6001600160e01b031981166339d690a360e11b14156113b15760408201516001600160a01b03166342842e0e303385608001516040518463ffffffff1660e01b815260040161137a93929190612c07565b600060405180830381600087803b15801561139457600080fd5b505af11580156113a8573d6000803e3d6000fd5b50505050611445565b6001600160e01b0319811663025ceed960e61b141561140857604082810151608084015160a08501519251637921219560e11b81526001600160a01b039092169263f242432a9261137a9230923392600401612cf1565b60405162461bcd60e51b8152602060048201526012602482015271556e6b6e6f776e20746f6b656e207479706560701b60448201526064016105c9565b505050611578565b60058851600681111561146257611462612168565b141561153557609d546040516000916001600160a01b03169083906114889087906121aa565b60006040518083038185875af1925050503d80600081146114c5576040519150601f19603f3d011682016040523d82523d6000602084013e6114ca565b606091505b5050905087156114ed5780610a50576000806000965096509650505050506115aa565b80610a9c5760405162461bcd60e51b8152602060048201526018602482015277141d5c98da185cd94814dd591bd4ddd85c0819985a5b195960421b60448201526064016105c9565b60405162461bcd60e51b8152602060048201526018602482015277556e6b6e6f776e2070757263686173652064657461696c7360401b60448201526064016105c9565b611586828960200151611868565b60008061159b8a604001518b60200151611912565b60019950909750955050505050505b9250925092565b6000821180156115c957506001600160a01b03811615155b156115d8576115d88183611943565b5050565b478015610803576108033382611943565b600054610100900460ff1661041c5760405162461bcd60e51b81526004016105c990613089565b600054610100900460ff1661163b5760405162461bcd60e51b81526004016105c990613089565b61041c336108b2565b600054610100900460ff1661166b5760405162461bcd60e51b81526004016105c990613089565b6065805460ff19169055565b60655460ff1661041c5760405162461bcd60e51b815260206004820152601460248201527314185d5cd8589b194e881b9bdd081c185d5cd95960621b60448201526064016105c9565b6060806000602085901c61ffff1660018111156116df576116df612168565b9050606060008260018111156116f7576116f7612168565b14156117095786935091506117b39050565b600182600181111561171d5761171d612168565b141561176b5760008780602001905181019061173991906130d4565b9050611744866119f7565b1561175f5780600001518160200151945094505050506117b3565b51935091506117b39050565b60405162461bcd60e51b815260206004820152601a60248201527f756e6b6e6f776e206164646974696f6e616c446174615479706500000000000060448201526064016105c9565b935093915050565b81518351146117c957600080fd5b80518351146117d757600080fd5b60005b8351811015611862578181815181106117f5576117f5612109565b01602001516001600160f81b031916156118505782818151811061181b5761181b612109565b602001015160f81c60f81b84828151811061183857611838612109565b60200101906001600160f81b031916908160001a9053505b8061185a8161214d565b9150506117da565b50505050565b60005b825181101561190d57600083828151811061188857611888612109565b602002602001015111156118fb5760008382815181106118aa576118aa612109565b60200260200101519050600060a08584815181106118ca576118ca612109565b6020026020010151901c905060006118eb8286611a3f90919063ffffffff16565b90506118f781846115b1565b5050505b806119058161214d565b91505061186b565b505050565b60008061ffff601085901c811690851661192c8583611a3f565b6119368683611a3f565b9350935050509250929050565b6000826001600160a01b03168260405160006040518083038185875af1925050503d8060008114611990576040519150601f19603f3d011682016040523d82523d6000602084013e611995565b606091505b505090508061190d5760405162461bcd60e51b815260206004820152602860248201527f4c69625472616e73666572204261736543757272656e6379207472616e7366656044820152671c8819985a5b195960c21b60648201526084016105c9565b60006005826006811115611a0d57611a0d612168565b1480611a2a57506004826006811115611a2857611a28612168565b145b15611a3757506001919050565b506000919050565b6000612710611a4e83856131bc565b611a5891906131db565b9392505050565b6001600160e01b03198116811461080357600080fd5b600060208284031215611a8757600080fd5b8135611a5881611a5f565b6001600160a01b038116811461080357600080fd5b8035611ab281611a92565b919050565b634e487b7160e01b600052604160045260246000fd5b604080519081016001600160401b0381118282101715611aef57611aef611ab7565b60405290565b6040516101a081016001600160401b0381118282101715611aef57611aef611ab7565b60405161016081016001600160401b0381118282101715611aef57611aef611ab7565b60405160c081016001600160401b0381118282101715611aef57611aef611ab7565b604051606081016001600160401b0381118282101715611aef57611aef611ab7565b60405161020081016001600160401b0381118282101715611aef57611aef611ab7565b604051601f8201601f191681016001600160401b0381118282101715611bca57611bca611ab7565b604052919050565b60006001600160401b03821115611beb57611beb611ab7565b50601f01601f191660200190565b600082601f830112611c0a57600080fd5b8135611c1d611c1882611bd2565b611ba2565b818152846020838601011115611c3257600080fd5b816020850160208301376000918101602001919091529392505050565b60008060008060808587031215611c6557600080fd5b8435611c7081611a92565b93506020850135611c8081611a92565b92506040850135915060608501356001600160401b03811115611ca257600080fd5b611cae87828801611bf9565b91505092959194509250565b6001600160a01b03169052565b600060808284031215611cd957600080fd5b604051608081016001600160401b038282108183111715611cfc57611cfc611ab7565b816040528293508435915060078210611d1457600080fd5b81835260208501356020840152604085013560408401526060850135915080821115611d3f57600080fd5b50611d4c85828601611bf9565b6060830152505092915050565b600080600060608486031215611d6e57600080fd5b83356001600160401b03811115611d8457600080fd5b611d9086828701611cc7565b9350506020840135611da181611a92565b91506040840135611db181611a92565b809150509250925092565b60006001600160401b03821115611dd557611dd5611ab7565b5060051b60200190565b801515811461080357600080fd5b8035611ab281611ddf565b60008060008060808587031215611e0e57600080fd5b84356001600160401b0380821115611e2557600080fd5b818701915087601f830112611e3957600080fd5b81356020611e49611c1883611dbc565b82815260059290921b8401810191818101908b841115611e6857600080fd5b8286015b84811015611ea057803586811115611e845760008081fd5b611e928e86838b0101611cc7565b845250918301918301611e6c565b509850611eb09050898201611aa7565b965050505050611ec260408601611aa7565b9150611ed060608601611ded565b905092959194509250565b600082601f830112611eec57600080fd5b81356020611efc611c1883611dbc565b82815260059290921b84018101918181019086841115611f1b57600080fd5b8286015b84811015611f365780358352918301918301611f1f565b509695505050505050565b600080600080600060a08688031215611f5957600080fd5b8535611f6481611a92565b94506020860135611f7481611a92565b935060408601356001600160401b0380821115611f9057600080fd5b611f9c89838a01611edb565b94506060880135915080821115611fb257600080fd5b611fbe89838a01611edb565b93506080880135915080821115611fd457600080fd5b50611fe188828901611bf9565b9150509295509295909350565b600080600080600080600060e0888a03121561200957600080fd5b873561201481611a92565b9650602088013561202481611a92565b9550604088013561203481611a92565b9450606088013561204481611a92565b9350608088013561205481611a92565b925060a088013561206481611a92565b915060c088013561207481611a92565b8091505092959891949750929550565b600080600080600060a0868803121561209c57600080fd5b85356120a781611a92565b945060208601356120b781611a92565b9350604086013592506060860135915060808601356001600160401b038111156120e057600080fd5b611fe188828901611bf9565b6000602082840312156120fe57600080fd5b8135611a5881611a92565b634e487b7160e01b600052603260045260246000fd5b634e487b7160e01b600052601160045260246000fd5b600082198211156121485761214861211f565b500190565b60006000198214156121615761216161211f565b5060010190565b634e487b7160e01b600052602160045260246000fd5b60005b83811015612199578181015183820152602001612181565b838111156118625750506000910152565b600082516121bc81846020870161217e565b9190910192915050565b8051611ab281611a92565b600082601f8301126121e257600080fd5b81516121f0611c1882611bd2565b81815284602083860101111561220557600080fd5b61221682602083016020870161217e565b949350505050565b600082601f83011261222f57600080fd5b8151602061223f611c1883611dbc565b82815260059290921b8401810191818101908684111561225e57600080fd5b8286015b84811015611f365780516001600160401b03808211156122825760008081fd5b908801906040828b03601f190181131561229c5760008081fd5b6122a4611acd565b8388015181529083015190828211156122bd5760008081fd5b6122cb8c89848701016121d1565b818901528652505050918301918301612262565b805160ff81168114611ab257600080fd5b600082601f83011261230157600080fd5b81516020612311611c1883611dbc565b82815260059290921b8401810191818101908684111561233057600080fd5b8286015b84811015611f365780516001600160401b03808211156123545760008081fd5b908801906101a0828b03601f190181131561236f5760008081fd5b612377611af5565b878401518152604061238a8186016121c6565b89830152606080860151828401526080915081860151818401525060a0808601518284015260c0915081860151818401525060e06123c98187016121c6565b82840152610100915081860151858111156123e45760008081fd5b6123f28f8c838a01016121d1565b828501525050610120808601518581111561240d5760008081fd5b61241b8f8c838a010161221e565b83850152506101409450848601518184015250506101608085015184830152610180935061244a8486016122df565b908201526124598483016122df565b9281019290925250845250918301918301612334565b805160088110611ab257600080fd5b600082601f83011261248f57600080fd5b8151602061249f611c1883611dbc565b82815260069290921b840181019181810190868411156124be57600080fd5b8286015b84811015611f3657604081890312156124db5760008081fd5b6124e3611acd565b81518152848201516124f481611a92565b818601528352918301916040016124c2565b600082601f83011261251757600080fd5b81516020612527611c1883611dbc565b82815260059290921b8401810191818101908684111561254657600080fd5b8286015b84811015611f365780516001600160401b038082111561256a5760008081fd5b90880190610160828b03601f19018113156125855760008081fd5b61258d611b18565b61259888850161246f565b815260408085015189830152606080860151828401526080915081860151818401525060a0808601518284015260c091506125d48287016121c6565b9083015260e085810151858111156125ec5760008081fd5b6125fa8f8c838a01016121d1565b83850152506101009150818601518184015250610120808601518284015261014091508186015181840152508285015192508383111561263a5760008081fd5b6126488d8a8588010161247e565b90820152865250505091830191830161254a565b8051611ab281611ddf565b600060c0828403121561267957600080fd5b612681611b3b565b90508151815260208201516020820152604082015160408201526060820151606082015260808201516126b381611a92565b608082015260a08201516126c681611ddf565b60a082015292915050565b6000602082840312156126e357600080fd5b81516001600160401b03808211156126fa57600080fd5b90830190610160828603121561270f57600080fd5b612717611b3b565b82518281111561272657600080fd5b612732878286016122f0565b82525060208301518281111561274757600080fd5b61275387828601612506565b6020830152506127668660408501612667565b60408201526101008301516060820152610120830151608082015261278e61014084016122df565b60a082015295945050505050565b600081518084526127b481602086016020860161217e565b601f01601f19169290920160200192915050565b600081518084526020808501808196508360051b8101915082860160005b8581101561282457828403895281518051855285015160408686018190526128108187018361279c565b9a87019a95505050908401906001016127e6565b5091979650505050505050565b6008811061284f57634e487b7160e01b600052602160045260246000fd5b9052565b600081518084526020808501945080840160005b83811015612897578151805188528301516001600160a01b03168388015260409096019590820190600101612867565b509495945050505050565b6000815180845260208085019450848260051b860182860160005b8581101561298057838303895281516101606128da858351612831565b818701518588015260408083015190860152606080830151908601526080808301519086015260a08083015161291282880182611cba565b505060c080830151828288015261292b8388018261279c565b60e08581015190890152610100808601519089015261012080860151908901526101409485015188820395890195909552925061296c915082905083612853565b9a87019a94505050908401906001016128bd565b5090979650505050505050565b60006020808352610180808401855161016080858801528282518085526101a094508489019150848160051b8a0101878501945060005b82811015612aa8578a820361019f19018452855180518352898101516129ec8b850182611cba565b5060408181015190840152606080820151908401526080808201519084015260a0808201519084015260c080820151612a2782860182611cba565b505060e0808201518982860152612a408a86018261279c565b9150506101008083015185830382870152612a5b83826127c8565b9250505061012080830151818601525061014080830151818601525086820151612a898886018260ff169052565b509089015160ff169289019290925294880194928801926001016129c4565b50968a0151898803601f190160408b015296612ac481896128a2565b975050505060408801519350612b1a6060880185805182526020808201519083015260408082015190830152606080820151908301526080808201516001600160a01b03169083015260a0908101511515910152565b6060880151610120880152608088015161014088015260a09097015160ff169690950195909552509392505050565b60006020808385031215612b5c57600080fd5b82516001600160401b03811115612b7257600080fd5b8301601f81018513612b8357600080fd5b8051612b91611c1882611dbc565b81815260069190911b82018301908381019087831115612bb057600080fd5b928401925b82841015612bfc5760408489031215612bce5760008081fd5b612bd6611acd565b8451612be181611a92565b81528486015186820152825260409093019290840190612bb5565b979650505050505050565b6001600160a01b039384168152919092166020820152604081019190915260600190565b60006020808385031215612c3e57600080fd5b82516001600160401b03811115612c5457600080fd5b8301601f81018513612c6557600080fd5b8051612c73611c1882611dbc565b81815260609182028301840191848201919088841115612c9257600080fd5b938501935b83851015612ce55780858a031215612caf5760008081fd5b612cb7611b5d565b8551612cc281611a92565b815285870151878201526040808701519082015283529384019391850191612c97565b50979650505050505050565b6001600160a01b0394851681529290931660208301526040820152606081019190915260a06080820181905260009082015260c00190565b60006102008284031215612d3c57600080fd5b612d44611b7f565b9050612d4f8261265c565b8152612d5d602083016121c6565b6020820152612d6e604083016121c6565b6040820152606082015160608201526080820151608082015260a082015160a0820152612d9d60c083016121c6565b60c0820152612dae60e083016121c6565b60e08201526101008281015190820152610120808301519082015261014080830151908201526101608083015190820152610180808301516001600160401b03811115612dfa57600080fd5b612e06858286016121d1565b8284015250506101a0612e1a8184016122df565b908201526101c082810151908201526101e09182015191810191909152919050565b8051611ab281611a5f565b600080600060608486031215612e5c57600080fd5b83516001600160401b0380821115612e7357600080fd5b9085019060c08288031215612e8757600080fd5b612e8f611b3b565b8251612e9a81611ddf565b81526020830151612eaa81611a92565b8060208301525060408301516040820152606083015160608201526080830151608082015260a083015182811115612ee157600080fd5b612eed898286016121d1565b60a0830152506020870151909550915080821115612f0a57600080fd5b50612f1786828701612d29565b925050612f2660408501612e3c565b90509250925092565b60408152600061010084511515604084015260018060a01b03602086015116606084015260408501516080840152606085015160a0840152608085015160c084015260a085015160c060e0850152612f898285018261279c565b848103602086015285511515815290506102006020860151612fae6020840182611cba565b506040860151612fc16040840182611cba565b50606086015160608301526080860151608083015260a086015160a083015260c0860151612ff260c0840182611cba565b5060e086015161300560e0840182611cba565b5085830151928201929092526101208086015190820152610140808601519082015261016080860151908201526101808086015181830184905290929061304e8284018261279c565b935050506101a0808601516130678284018260ff169052565b50506101c085810151908201526101e094850151940193909352509092915050565b6020808252602b908201527f496e697469616c697a61626c653a20636f6e7472616374206973206e6f74206960408201526a6e697469616c697a696e6760a81b606082015260800190565b600060208083850312156130e757600080fd5b82516001600160401b03808211156130fe57600080fd5b908401906040828703121561311257600080fd5b61311a611acd565b82518281111561312957600080fd5b613135888286016121d1565b825250838301518281111561314957600080fd5b80840193505086601f84011261315e57600080fd5b8251915061316e611c1883611dbc565b82815260059290921b8301840191848101908884111561318d57600080fd5b938501935b838510156131ab57845182529385019390850190613192565b948201949094529695505050505050565b60008160001904831182151516156131d6576131d661211f565b500290565b6000826131f857634e487b7160e01b600052601260045260246000fd5b50049056fea2646970667358221220ceb12b04804fc76e7cee361dd2cdd3bf4cdc7064a7b85ff36a281e025fa15c8064736f6c63430008090033",
  "devdoc": {
    "kind": "dev",
    "methods": {
      "bulkPurchase((uint8,uint256,uint256,bytes)[],address,address,bool)": {
        "params": {
          "allowFail": "- true if fails while executing orders are allowed, false if fail of a single order means fail of the whole batch",
          "feeRecipientFirst": "- address of the first fee recipient",
          "feeRecipientSecond": "- address of the second fee recipient",
          "purchaseDetails": "- array of details about the purchases (more info in PurchaseDetails struct)"
        }
      },
      "onERC721Received(address,address,uint256,bytes)": {
        "details": "See {IERC721Receiver-onERC721Received}. Always returns `IERC721Receiver.onERC721Received.selector`."
      },
      "owner()": {
        "details": "Returns the address of the current owner."
      },
      "paused()": {
        "details": "Returns true if the contract is paused, and false otherwise."
      },
      "renounceOwnership()": {
        "details": "Leaves the contract without owner. It will not be possible to call `onlyOwner` functions anymore. Can only be called by the current owner. NOTE: Renouncing ownership will leave the contract without an owner, thereby removing any functionality that is only available to the owner."
      },
      "singlePurchase((uint8,uint256,uint256,bytes),address,address)": {
        "params": {
          "feeRecipientFirst": "- address of the first fee recipient",
          "feeRecipientSecond": "- address of the second fee recipient",
          "purchaseDetails": "- details about the purchase (more info in PurchaseDetails struct)"
        }
      },
      "supportsInterface(bytes4)": {
        "details": "See {IERC165-supportsInterface}."
      },
      "transferOwnership(address)": {
        "details": "Transfers ownership of the contract to a new account (`newOwner`). Can only be called by the current owner."
      }
    },
    "version": 1
  },
  "userdoc": {
    "kind": "user",
    "methods": {
      "bulkPurchase((uint8,uint256,uint256,bytes)[],address,address,bool)": {
        "notice": "executes an array of purchases"
      },
      "pause()": {
        "notice": "Pause the contract"
      },
      "singlePurchase((uint8,uint256,uint256,bytes),address,address)": {
        "notice": "executes a single purchase"
      },
      "unpause()": {
        "notice": "Unpause the contract"
      }
    },
    "version": 1
  },
  "storageLayout": {
    "storage": [
      {
        "astId": 138,
        "contract": "src/exchange-wrapper/ExchangeWrapper.sol:ExchangeWrapper",
        "label": "_initialized",
        "offset": 0,
        "slot": "0",
        "type": "t_uint8"
      },
      {
        "astId": 141,
        "contract": "src/exchange-wrapper/ExchangeWrapper.sol:ExchangeWrapper",
        "label": "_initializing",
        "offset": 1,
        "slot": "0",
        "type": "t_bool"
      },
      {
        "astId": 1009,
        "contract": "src/exchange-wrapper/ExchangeWrapper.sol:ExchangeWrapper",
        "label": "__gap",
        "offset": 0,
        "slot": "1",
        "type": "t_array(t_uint256)50_storage"
      },
      {
        "astId": 10,
        "contract": "src/exchange-wrapper/ExchangeWrapper.sol:ExchangeWrapper",
        "label": "_owner",
        "offset": 0,
        "slot": "51",
        "type": "t_address"
      },
      {
        "astId": 130,
        "contract": "src/exchange-wrapper/ExchangeWrapper.sol:ExchangeWrapper",
        "label": "__gap",
        "offset": 0,
        "slot": "52",
        "type": "t_array(t_uint256)49_storage"
      },
      {
        "astId": 303,
        "contract": "src/exchange-wrapper/ExchangeWrapper.sol:ExchangeWrapper",
        "label": "_paused",
        "offset": 0,
        "slot": "101",
        "type": "t_bool"
      },
      {
        "astId": 408,
        "contract": "src/exchange-wrapper/ExchangeWrapper.sol:ExchangeWrapper",
        "label": "__gap",
        "offset": 0,
        "slot": "102",
        "type": "t_array(t_uint256)49_storage"
      },
      {
        "astId": 2484,
        "contract": "src/exchange-wrapper/ExchangeWrapper.sol:ExchangeWrapper",
        "label": "exchangeV2",
        "offset": 0,
        "slot": "151",
        "type": "t_address"
      },
      {
        "astId": 2486,
        "contract": "src/exchange-wrapper/ExchangeWrapper.sol:ExchangeWrapper",
        "label": "rarible",
        "offset": 0,
        "slot": "152",
        "type": "t_address"
      },
      {
        "astId": 2488,
        "contract": "src/exchange-wrapper/ExchangeWrapper.sol:ExchangeWrapper",
        "label": "wyvern",
        "offset": 0,
        "slot": "153",
        "type": "t_address"
      },
      {
        "astId": 2490,
        "contract": "src/exchange-wrapper/ExchangeWrapper.sol:ExchangeWrapper",
        "label": "seaport",
        "offset": 0,
        "slot": "154",
        "type": "t_address"
      },
      {
        "astId": 2492,
        "contract": "src/exchange-wrapper/ExchangeWrapper.sol:ExchangeWrapper",
        "label": "x2y2",
        "offset": 0,
        "slot": "155",
        "type": "t_address"
      },
      {
        "astId": 2494,
        "contract": "src/exchange-wrapper/ExchangeWrapper.sol:ExchangeWrapper",
        "label": "looksrare",
        "offset": 0,
        "slot": "156",
        "type": "t_address"
      },
      {
        "astId": 2496,
        "contract": "src/exchange-wrapper/ExchangeWrapper.sol:ExchangeWrapper",
        "label": "sudoswap",
        "offset": 0,
        "slot": "157",
        "type": "t_address"
      }
    ],
    "types": {
      "t_address": {
        "encoding": "inplace",
        "label": "address",
        "numberOfBytes": "20"
      },
      "t_array(t_uint256)49_storage": {
        "base": "t_uint256",
        "encoding": "inplace",
        "label": "uint256[49]",
        "numberOfBytes": "1568"
      },
      "t_array(t_uint256)50_storage": {
        "base": "t_uint256",
        "encoding": "inplace",
        "label": "uint256[50]",
        "numberOfBytes": "1600"
      },
      "t_bool": {
        "encoding": "inplace",
        "label": "bool",
        "numberOfBytes": "1"
      },
      "t_uint256": {
        "encoding": "inplace",
        "label": "uint256",
        "numberOfBytes": "32"
      },
      "t_uint8": {
        "encoding": "inplace",
        "label": "uint8",
        "numberOfBytes": "1"
      }
    }
  }
}