{
  "_format": "hh-sol-artifact-1",
  "contractName": "TestExchangeV2",
  "sourceName": "contracts/tests/TestExchangeV2.sol",
  "abi": [
    {
      "anonymous": false,
      "inputs": [
        {
          "indexed": true,
          "internalType": "bytes4",
          "name": "assetType",
          "type": "bytes4"
        },
        {
          "indexed": false,
          "internalType": "address",
          "name": "matcher",
          "type": "address"
        }
      ],
      "name": "MatcherChange",
      "type": "event"
    },
    {
      "anonymous": false,
      "inputs": [
        {
          "indexed": false,
          "internalType": "uint256",
          "name": "auctionId",
          "type": "uint256"
        },
        {
          "indexed": false,
          "internalType": "address",
          "name": "nftContractAddress",
          "type": "address"
        },
        {
          "indexed": false,
          "internalType": "uint256",
          "name": "tokenId",
          "type": "uint256"
        },
        {
          "indexed": false,
          "internalType": "address",
          "name": "sender",
          "type": "address"
        },
        {
          "indexed": false,
          "internalType": "uint256",
          "name": "value",
          "type": "uint256"
        }
      ],
      "name": "OrderBid",
      "type": "event"
    },
    {
      "anonymous": false,
      "inputs": [
        {
          "indexed": false,
          "internalType": "uint256",
          "name": "auctionId",
          "type": "uint256"
        },
        {
          "indexed": false,
          "internalType": "address",
          "name": "nftContractAddress",
          "type": "address"
        },
        {
          "indexed": false,
          "internalType": "uint256",
          "name": "tokenId",
          "type": "uint256"
        }
      ],
      "name": "OrderCancelled",
      "type": "event"
    },
    {
      "anonymous": false,
      "inputs": [
        {
          "indexed": false,
          "internalType": "uint256",
          "name": "auctionId",
          "type": "uint256"
        },
        {
          "indexed": false,
          "internalType": "uint256",
          "name": "tokenId",
          "type": "uint256"
        },
        {
          "indexed": false,
          "internalType": "address",
          "name": "nftContractAddress",
          "type": "address"
        },
        {
          "indexed": false,
          "internalType": "uint256",
          "name": "duration",
          "type": "uint256"
        },
        {
          "indexed": false,
          "internalType": "uint256",
          "name": "reservePrice",
          "type": "uint256"
        },
        {
          "indexed": false,
          "internalType": "uint256",
          "name": "endPrice",
          "type": "uint256"
        },
        {
          "indexed": false,
          "internalType": "enum GhostAuction.AuctionTypes",
          "name": "auctionType",
          "type": "uint8"
        },
        {
          "indexed": false,
          "internalType": "uint256",
          "name": "startingAt",
          "type": "uint256"
        },
        {
          "indexed": false,
          "internalType": "uint256",
          "name": "extensionPeriod",
          "type": "uint256"
        }
      ],
      "name": "OrderCreated",
      "type": "event"
    },
    {
      "anonymous": false,
      "inputs": [
        {
          "indexed": false,
          "internalType": "bytes32",
          "name": "leftHash",
          "type": "bytes32"
        },
        {
          "indexed": false,
          "internalType": "bytes32",
          "name": "rightHash",
          "type": "bytes32"
        },
        {
          "indexed": false,
          "internalType": "address",
          "name": "leftMaker",
          "type": "address"
        },
        {
          "indexed": false,
          "internalType": "address",
          "name": "rightMaker",
          "type": "address"
        },
        {
          "indexed": false,
          "internalType": "uint256",
          "name": "newLeftFill",
          "type": "uint256"
        },
        {
          "indexed": false,
          "internalType": "uint256",
          "name": "newRightFill",
          "type": "uint256"
        }
      ],
      "name": "OrderFilled",
      "type": "event"
    },
    {
      "anonymous": false,
      "inputs": [
        {
          "indexed": false,
          "internalType": "uint256",
          "name": "auctionId",
          "type": "uint256"
        },
        {
          "indexed": false,
          "internalType": "address",
          "name": "nftContractAddress",
          "type": "address"
        },
        {
          "indexed": false,
          "internalType": "address",
          "name": "winner",
          "type": "address"
        },
        {
          "indexed": false,
          "internalType": "uint256",
          "name": "amount",
          "type": "uint256"
        }
      ],
      "name": "OrderFilledAuction",
      "type": "event"
    },
    {
      "anonymous": false,
      "inputs": [
        {
          "indexed": true,
          "internalType": "address",
          "name": "previousOwner",
          "type": "address"
        },
        {
          "indexed": true,
          "internalType": "address",
          "name": "newOwner",
          "type": "address"
        }
      ],
      "name": "OwnershipTransferred",
      "type": "event"
    },
    {
      "anonymous": false,
      "inputs": [
        {
          "indexed": false,
          "internalType": "address",
          "name": "account",
          "type": "address"
        }
      ],
      "name": "Paused",
      "type": "event"
    },
    {
      "anonymous": false,
      "inputs": [
        {
          "indexed": true,
          "internalType": "bytes4",
          "name": "assetType",
          "type": "bytes4"
        },
        {
          "indexed": false,
          "internalType": "address",
          "name": "proxy",
          "type": "address"
        }
      ],
      "name": "ProxyChange",
      "type": "event"
    },
    {
      "anonymous": false,
      "inputs": [
        {
          "components": [
            {
              "components": [
                {
                  "internalType": "bytes4",
                  "name": "assetClass",
                  "type": "bytes4"
                },
                {
                  "internalType": "bytes",
                  "name": "data",
                  "type": "bytes"
                }
              ],
              "internalType": "struct LibAsset.AssetType",
              "name": "assetType",
              "type": "tuple"
            },
            {
              "internalType": "uint256",
              "name": "value",
              "type": "uint256"
            }
          ],
          "indexed": false,
          "internalType": "struct LibAsset.Asset",
          "name": "asset",
          "type": "tuple"
        },
        {
          "indexed": false,
          "internalType": "address",
          "name": "from",
          "type": "address"
        },
        {
          "indexed": false,
          "internalType": "address",
          "name": "to",
          "type": "address"
        },
        {
          "indexed": false,
          "internalType": "bytes4",
          "name": "transferDirection",
          "type": "bytes4"
        },
        {
          "indexed": false,
          "internalType": "bytes4",
          "name": "transferType",
          "type": "bytes4"
        }
      ],
      "name": "Transfer",
      "type": "event"
    },
    {
      "anonymous": false,
      "inputs": [
        {
          "indexed": false,
          "internalType": "address",
          "name": "account",
          "type": "address"
        }
      ],
      "name": "Unpaused",
      "type": "event"
    },
    {
      "inputs": [
        {
          "internalType": "contract INftTransferProxy",
          "name": "_transferProxy",
          "type": "address"
        },
        {
          "internalType": "contract IERC20TransferProxy",
          "name": "_erc20TransferProxy",
          "type": "address"
        },
        {
          "internalType": "uint256",
          "name": "newProtocolFee",
          "type": "uint256"
        },
        {
          "internalType": "address",
          "name": "newDefaultFeeReceiver",
          "type": "address"
        },
        {
          "internalType": "address",
          "name": "adminRecoveryAddress",
          "type": "address"
        }
      ],
      "name": "__ExchangeV2_init",
      "outputs": [],
      "stateMutability": "nonpayable",
      "type": "function"
    },
    {
      "inputs": [
        {
          "internalType": "uint256",
          "name": "",
          "type": "uint256"
        }
      ],
      "name": "auctions",
      "outputs": [
        {
          "internalType": "uint256",
          "name": "amount",
          "type": "uint256"
        },
        {
          "internalType": "uint256",
          "name": "duration",
          "type": "uint256"
        },
        {
          "internalType": "uint256",
          "name": "firstBidTime",
          "type": "uint256"
        },
        {
          "internalType": "uint256",
          "name": "reservePrice",
          "type": "uint256"
        },
        {
          "internalType": "address payable",
          "name": "bidder",
          "type": "address"
        },
        {
          "internalType": "address",
          "name": "creator",
          "type": "address"
        },
        {
          "internalType": "address",
          "name": "nftContract",
          "type": "address"
        },
        {
          "internalType": "uint256",
          "name": "tokenId",
          "type": "uint256"
        },
        {
          "internalType": "enum GhostAuction.AuctionTypes",
          "name": "auctionType",
          "type": "uint8"
        },
        {
          "internalType": "uint256",
          "name": "startingAt",
          "type": "uint256"
        },
        {
          "internalType": "uint256",
          "name": "startingPrice",
          "type": "uint256"
        },
        {
          "internalType": "uint256",
          "name": "endingPrice",
          "type": "uint256"
        },
        {
          "internalType": "uint256",
          "name": "extensionPeriod",
          "type": "uint256"
        }
      ],
      "stateMutability": "view",
      "type": "function"
    },
    {
      "inputs": [
        {
          "internalType": "uint256",
          "name": "auctionId",
          "type": "uint256"
        }
      ],
      "name": "cancelAuction",
      "outputs": [],
      "stateMutability": "nonpayable",
      "type": "function"
    },
    {
      "inputs": [
        {
          "internalType": "uint256",
          "name": "tokenId",
          "type": "uint256"
        },
        {
          "internalType": "uint256",
          "name": "duration",
          "type": "uint256"
        },
        {
          "internalType": "uint256",
          "name": "reservePrice",
          "type": "uint256"
        },
        {
          "internalType": "address",
          "name": "nftContractAddress",
          "type": "address"
        },
        {
          "internalType": "enum GhostAuction.AuctionTypes",
          "name": "auctionType",
          "type": "uint8"
        },
        {
          "internalType": "uint256",
          "name": "startingPrice",
          "type": "uint256"
        },
        {
          "internalType": "uint256",
          "name": "endingPrice",
          "type": "uint256"
        },
        {
          "internalType": "uint256",
          "name": "startDate",
          "type": "uint256"
        },
        {
          "internalType": "uint256",
          "name": "extensionPeriod",
          "type": "uint256"
        }
      ],
      "name": "createAuction",
      "outputs": [],
      "stateMutability": "nonpayable",
      "type": "function"
    },
    {
      "inputs": [
        {
          "internalType": "uint256",
          "name": "auctionId",
          "type": "uint256"
        },
        {
          "internalType": "uint256",
          "name": "amount",
          "type": "uint256"
        }
      ],
      "name": "createBid",
      "outputs": [],
      "stateMutability": "payable",
      "type": "function"
    },
    {
      "inputs": [],
      "name": "defaultFeeReceiver",
      "outputs": [
        {
          "internalType": "address",
          "name": "",
          "type": "address"
        }
      ],
      "stateMutability": "view",
      "type": "function"
    },
    {
      "inputs": [
        {
          "internalType": "uint256",
          "name": "auctionId",
          "type": "uint256"
        }
      ],
      "name": "deleteAuctionOnlyAdmin",
      "outputs": [],
      "stateMutability": "nonpayable",
      "type": "function"
    },
    {
      "inputs": [
        {
          "components": [
            {
              "internalType": "address",
              "name": "maker",
              "type": "address"
            },
            {
              "components": [
                {
                  "components": [
                    {
                      "internalType": "bytes4",
                      "name": "assetClass",
                      "type": "bytes4"
                    },
                    {
                      "internalType": "bytes",
                      "name": "data",
                      "type": "bytes"
                    }
                  ],
                  "internalType": "struct LibAsset.AssetType",
                  "name": "assetType",
                  "type": "tuple"
                },
                {
                  "internalType": "uint256",
                  "name": "value",
                  "type": "uint256"
                }
              ],
              "internalType": "struct LibAsset.Asset",
              "name": "makeAsset",
              "type": "tuple"
            },
            {
              "internalType": "address",
              "name": "taker",
              "type": "address"
            },
            {
              "components": [
                {
                  "components": [
                    {
                      "internalType": "bytes4",
                      "name": "assetClass",
                      "type": "bytes4"
                    },
                    {
                      "internalType": "bytes",
                      "name": "data",
                      "type": "bytes"
                    }
                  ],
                  "internalType": "struct LibAsset.AssetType",
                  "name": "assetType",
                  "type": "tuple"
                },
                {
                  "internalType": "uint256",
                  "name": "value",
                  "type": "uint256"
                }
              ],
              "internalType": "struct LibAsset.Asset",
              "name": "takeAsset",
              "type": "tuple"
            },
            {
              "internalType": "uint256",
              "name": "salt",
              "type": "uint256"
            },
            {
              "internalType": "uint256",
              "name": "start",
              "type": "uint256"
            },
            {
              "internalType": "uint256",
              "name": "end",
              "type": "uint256"
            },
            {
              "internalType": "bytes4",
              "name": "dataType",
              "type": "bytes4"
            },
            {
              "internalType": "bytes",
              "name": "data",
              "type": "bytes"
            }
          ],
          "internalType": "struct LibOrder.Order",
          "name": "orderLeft",
          "type": "tuple"
        },
        {
          "components": [
            {
              "internalType": "address",
              "name": "maker",
              "type": "address"
            },
            {
              "components": [
                {
                  "components": [
                    {
                      "internalType": "bytes4",
                      "name": "assetClass",
                      "type": "bytes4"
                    },
                    {
                      "internalType": "bytes",
                      "name": "data",
                      "type": "bytes"
                    }
                  ],
                  "internalType": "struct LibAsset.AssetType",
                  "name": "assetType",
                  "type": "tuple"
                },
                {
                  "internalType": "uint256",
                  "name": "value",
                  "type": "uint256"
                }
              ],
              "internalType": "struct LibAsset.Asset",
              "name": "makeAsset",
              "type": "tuple"
            },
            {
              "internalType": "address",
              "name": "taker",
              "type": "address"
            },
            {
              "components": [
                {
                  "components": [
                    {
                      "internalType": "bytes4",
                      "name": "assetClass",
                      "type": "bytes4"
                    },
                    {
                      "internalType": "bytes",
                      "name": "data",
                      "type": "bytes"
                    }
                  ],
                  "internalType": "struct LibAsset.AssetType",
                  "name": "assetType",
                  "type": "tuple"
                },
                {
                  "internalType": "uint256",
                  "name": "value",
                  "type": "uint256"
                }
              ],
              "internalType": "struct LibAsset.Asset",
              "name": "takeAsset",
              "type": "tuple"
            },
            {
              "internalType": "uint256",
              "name": "salt",
              "type": "uint256"
            },
            {
              "internalType": "uint256",
              "name": "start",
              "type": "uint256"
            },
            {
              "internalType": "uint256",
              "name": "end",
              "type": "uint256"
            },
            {
              "internalType": "bytes4",
              "name": "dataType",
              "type": "bytes4"
            },
            {
              "internalType": "bytes",
              "name": "data",
              "type": "bytes"
            }
          ],
          "internalType": "struct LibOrder.Order",
          "name": "orderRight",
          "type": "tuple"
        },
        {
          "internalType": "uint256",
          "name": "auctionId",
          "type": "uint256"
        }
      ],
      "name": "endAuctionDoTransfer",
      "outputs": [],
      "stateMutability": "payable",
      "type": "function"
    },
    {
      "inputs": [
        {
          "internalType": "address",
          "name": "",
          "type": "address"
        }
      ],
      "name": "feeReceivers",
      "outputs": [
        {
          "internalType": "address",
          "name": "",
          "type": "address"
        }
      ],
      "stateMutability": "view",
      "type": "function"
    },
    {
      "inputs": [
        {
          "internalType": "bytes32",
          "name": "",
          "type": "bytes32"
        }
      ],
      "name": "fills",
      "outputs": [
        {
          "internalType": "uint256",
          "name": "",
          "type": "uint256"
        }
      ],
      "stateMutability": "view",
      "type": "function"
    },
    {
      "inputs": [],
      "name": "getChainId",
      "outputs": [
        {
          "internalType": "uint256",
          "name": "chainId",
          "type": "uint256"
        }
      ],
      "stateMutability": "view",
      "type": "function"
    },
    {
      "inputs": [],
      "name": "getCurrentAuctionId",
      "outputs": [
        {
          "internalType": "uint256",
          "name": "",
          "type": "uint256"
        }
      ],
      "stateMutability": "view",
      "type": "function"
    },
    {
      "inputs": [
        {
          "components": [
            {
              "internalType": "uint256",
              "name": "amount",
              "type": "uint256"
            },
            {
              "internalType": "uint256",
              "name": "duration",
              "type": "uint256"
            },
            {
              "internalType": "uint256",
              "name": "firstBidTime",
              "type": "uint256"
            },
            {
              "internalType": "uint256",
              "name": "reservePrice",
              "type": "uint256"
            },
            {
              "internalType": "address payable",
              "name": "bidder",
              "type": "address"
            },
            {
              "internalType": "address",
              "name": "creator",
              "type": "address"
            },
            {
              "internalType": "address",
              "name": "nftContract",
              "type": "address"
            },
            {
              "internalType": "uint256",
              "name": "tokenId",
              "type": "uint256"
            },
            {
              "internalType": "enum GhostAuction.AuctionTypes",
              "name": "auctionType",
              "type": "uint8"
            },
            {
              "internalType": "uint256",
              "name": "startingAt",
              "type": "uint256"
            },
            {
              "internalType": "uint256",
              "name": "startingPrice",
              "type": "uint256"
            },
            {
              "internalType": "uint256",
              "name": "endingPrice",
              "type": "uint256"
            },
            {
              "internalType": "uint256",
              "name": "extensionPeriod",
              "type": "uint256"
            }
          ],
          "internalType": "struct GhostAuction.Auction",
          "name": "auction",
          "type": "tuple"
        }
      ],
      "name": "getCurrentPrice",
      "outputs": [
        {
          "internalType": "uint256",
          "name": "",
          "type": "uint256"
        }
      ],
      "stateMutability": "view",
      "type": "function"
    },
    {
      "inputs": [
        {
          "internalType": "uint256",
          "name": "auctionId",
          "type": "uint256"
        }
      ],
      "name": "getEndAuctionData",
      "outputs": [
        {
          "components": [
            {
              "internalType": "uint256",
              "name": "auctionId",
              "type": "uint256"
            },
            {
              "internalType": "address",
              "name": "winner",
              "type": "address"
            },
            {
              "internalType": "uint256",
              "name": "amount",
              "type": "uint256"
            },
            {
              "internalType": "address",
              "name": "creator",
              "type": "address"
            }
          ],
          "internalType": "struct GhostAuction.AuctionResult",
          "name": "",
          "type": "tuple"
        }
      ],
      "stateMutability": "view",
      "type": "function"
    },
    {
      "inputs": [
        {
          "internalType": "uint256",
          "name": "tokenId",
          "type": "uint256"
        }
      ],
      "name": "getRoyalties",
      "outputs": [
        {
          "components": [
            {
              "internalType": "address payable",
              "name": "recipient",
              "type": "address"
            },
            {
              "internalType": "uint256",
              "name": "value",
              "type": "uint256"
            }
          ],
          "internalType": "struct GhostMarketRoyalties.Royalty[]",
          "name": "",
          "type": "tuple[]"
        }
      ],
      "stateMutability": "view",
      "type": "function"
    },
    {
      "inputs": [
        {
          "components": [
            {
              "internalType": "address",
              "name": "maker",
              "type": "address"
            },
            {
              "components": [
                {
                  "components": [
                    {
                      "internalType": "bytes4",
                      "name": "assetClass",
                      "type": "bytes4"
                    },
                    {
                      "internalType": "bytes",
                      "name": "data",
                      "type": "bytes"
                    }
                  ],
                  "internalType": "struct LibAsset.AssetType",
                  "name": "assetType",
                  "type": "tuple"
                },
                {
                  "internalType": "uint256",
                  "name": "value",
                  "type": "uint256"
                }
              ],
              "internalType": "struct LibAsset.Asset",
              "name": "makeAsset",
              "type": "tuple"
            },
            {
              "internalType": "address",
              "name": "taker",
              "type": "address"
            },
            {
              "components": [
                {
                  "components": [
                    {
                      "internalType": "bytes4",
                      "name": "assetClass",
                      "type": "bytes4"
                    },
                    {
                      "internalType": "bytes",
                      "name": "data",
                      "type": "bytes"
                    }
                  ],
                  "internalType": "struct LibAsset.AssetType",
                  "name": "assetType",
                  "type": "tuple"
                },
                {
                  "internalType": "uint256",
                  "name": "value",
                  "type": "uint256"
                }
              ],
              "internalType": "struct LibAsset.Asset",
              "name": "takeAsset",
              "type": "tuple"
            },
            {
              "internalType": "uint256",
              "name": "salt",
              "type": "uint256"
            },
            {
              "internalType": "uint256",
              "name": "start",
              "type": "uint256"
            },
            {
              "internalType": "uint256",
              "name": "end",
              "type": "uint256"
            },
            {
              "internalType": "bytes4",
              "name": "dataType",
              "type": "bytes4"
            },
            {
              "internalType": "bytes",
              "name": "data",
              "type": "bytes"
            }
          ],
          "internalType": "struct LibOrder.Order",
          "name": "orderLeft",
          "type": "tuple"
        },
        {
          "components": [
            {
              "internalType": "address",
              "name": "maker",
              "type": "address"
            },
            {
              "components": [
                {
                  "components": [
                    {
                      "internalType": "bytes4",
                      "name": "assetClass",
                      "type": "bytes4"
                    },
                    {
                      "internalType": "bytes",
                      "name": "data",
                      "type": "bytes"
                    }
                  ],
                  "internalType": "struct LibAsset.AssetType",
                  "name": "assetType",
                  "type": "tuple"
                },
                {
                  "internalType": "uint256",
                  "name": "value",
                  "type": "uint256"
                }
              ],
              "internalType": "struct LibAsset.Asset",
              "name": "makeAsset",
              "type": "tuple"
            },
            {
              "internalType": "address",
              "name": "taker",
              "type": "address"
            },
            {
              "components": [
                {
                  "components": [
                    {
                      "internalType": "bytes4",
                      "name": "assetClass",
                      "type": "bytes4"
                    },
                    {
                      "internalType": "bytes",
                      "name": "data",
                      "type": "bytes"
                    }
                  ],
                  "internalType": "struct LibAsset.AssetType",
                  "name": "assetType",
                  "type": "tuple"
                },
                {
                  "internalType": "uint256",
                  "name": "value",
                  "type": "uint256"
                }
              ],
              "internalType": "struct LibAsset.Asset",
              "name": "takeAsset",
              "type": "tuple"
            },
            {
              "internalType": "uint256",
              "name": "salt",
              "type": "uint256"
            },
            {
              "internalType": "uint256",
              "name": "start",
              "type": "uint256"
            },
            {
              "internalType": "uint256",
              "name": "end",
              "type": "uint256"
            },
            {
              "internalType": "bytes4",
              "name": "dataType",
              "type": "bytes4"
            },
            {
              "internalType": "bytes",
              "name": "data",
              "type": "bytes"
            }
          ],
          "internalType": "struct LibOrder.Order",
          "name": "orderRight",
          "type": "tuple"
        },
        {
          "internalType": "uint256",
          "name": "amountFromAuction",
          "type": "uint256"
        }
      ],
      "name": "matchAndTransferAuctionExternal",
      "outputs": [],
      "stateMutability": "nonpayable",
      "type": "function"
    },
    {
      "inputs": [
        {
          "components": [
            {
              "internalType": "address",
              "name": "maker",
              "type": "address"
            },
            {
              "components": [
                {
                  "components": [
                    {
                      "internalType": "bytes4",
                      "name": "assetClass",
                      "type": "bytes4"
                    },
                    {
                      "internalType": "bytes",
                      "name": "data",
                      "type": "bytes"
                    }
                  ],
                  "internalType": "struct LibAsset.AssetType",
                  "name": "assetType",
                  "type": "tuple"
                },
                {
                  "internalType": "uint256",
                  "name": "value",
                  "type": "uint256"
                }
              ],
              "internalType": "struct LibAsset.Asset",
              "name": "makeAsset",
              "type": "tuple"
            },
            {
              "internalType": "address",
              "name": "taker",
              "type": "address"
            },
            {
              "components": [
                {
                  "components": [
                    {
                      "internalType": "bytes4",
                      "name": "assetClass",
                      "type": "bytes4"
                    },
                    {
                      "internalType": "bytes",
                      "name": "data",
                      "type": "bytes"
                    }
                  ],
                  "internalType": "struct LibAsset.AssetType",
                  "name": "assetType",
                  "type": "tuple"
                },
                {
                  "internalType": "uint256",
                  "name": "value",
                  "type": "uint256"
                }
              ],
              "internalType": "struct LibAsset.Asset",
              "name": "takeAsset",
              "type": "tuple"
            },
            {
              "internalType": "uint256",
              "name": "salt",
              "type": "uint256"
            },
            {
              "internalType": "uint256",
              "name": "start",
              "type": "uint256"
            },
            {
              "internalType": "uint256",
              "name": "end",
              "type": "uint256"
            },
            {
              "internalType": "bytes4",
              "name": "dataType",
              "type": "bytes4"
            },
            {
              "internalType": "bytes",
              "name": "data",
              "type": "bytes"
            }
          ],
          "internalType": "struct LibOrder.Order",
          "name": "orderLeft",
          "type": "tuple"
        },
        {
          "components": [
            {
              "internalType": "address",
              "name": "maker",
              "type": "address"
            },
            {
              "components": [
                {
                  "components": [
                    {
                      "internalType": "bytes4",
                      "name": "assetClass",
                      "type": "bytes4"
                    },
                    {
                      "internalType": "bytes",
                      "name": "data",
                      "type": "bytes"
                    }
                  ],
                  "internalType": "struct LibAsset.AssetType",
                  "name": "assetType",
                  "type": "tuple"
                },
                {
                  "internalType": "uint256",
                  "name": "value",
                  "type": "uint256"
                }
              ],
              "internalType": "struct LibAsset.Asset",
              "name": "makeAsset",
              "type": "tuple"
            },
            {
              "internalType": "address",
              "name": "taker",
              "type": "address"
            },
            {
              "components": [
                {
                  "components": [
                    {
                      "internalType": "bytes4",
                      "name": "assetClass",
                      "type": "bytes4"
                    },
                    {
                      "internalType": "bytes",
                      "name": "data",
                      "type": "bytes"
                    }
                  ],
                  "internalType": "struct LibAsset.AssetType",
                  "name": "assetType",
                  "type": "tuple"
                },
                {
                  "internalType": "uint256",
                  "name": "value",
                  "type": "uint256"
                }
              ],
              "internalType": "struct LibAsset.Asset",
              "name": "takeAsset",
              "type": "tuple"
            },
            {
              "internalType": "uint256",
              "name": "salt",
              "type": "uint256"
            },
            {
              "internalType": "uint256",
              "name": "start",
              "type": "uint256"
            },
            {
              "internalType": "uint256",
              "name": "end",
              "type": "uint256"
            },
            {
              "internalType": "bytes4",
              "name": "dataType",
              "type": "bytes4"
            },
            {
              "internalType": "bytes",
              "name": "data",
              "type": "bytes"
            }
          ],
          "internalType": "struct LibOrder.Order",
          "name": "orderRight",
          "type": "tuple"
        }
      ],
      "name": "matchAndTransferExternal",
      "outputs": [],
      "stateMutability": "payable",
      "type": "function"
    },
    {
      "inputs": [
        {
          "components": [
            {
              "internalType": "address",
              "name": "maker",
              "type": "address"
            },
            {
              "components": [
                {
                  "components": [
                    {
                      "internalType": "bytes4",
                      "name": "assetClass",
                      "type": "bytes4"
                    },
                    {
                      "internalType": "bytes",
                      "name": "data",
                      "type": "bytes"
                    }
                  ],
                  "internalType": "struct LibAsset.AssetType",
                  "name": "assetType",
                  "type": "tuple"
                },
                {
                  "internalType": "uint256",
                  "name": "value",
                  "type": "uint256"
                }
              ],
              "internalType": "struct LibAsset.Asset",
              "name": "makeAsset",
              "type": "tuple"
            },
            {
              "internalType": "address",
              "name": "taker",
              "type": "address"
            },
            {
              "components": [
                {
                  "components": [
                    {
                      "internalType": "bytes4",
                      "name": "assetClass",
                      "type": "bytes4"
                    },
                    {
                      "internalType": "bytes",
                      "name": "data",
                      "type": "bytes"
                    }
                  ],
                  "internalType": "struct LibAsset.AssetType",
                  "name": "assetType",
                  "type": "tuple"
                },
                {
                  "internalType": "uint256",
                  "name": "value",
                  "type": "uint256"
                }
              ],
              "internalType": "struct LibAsset.Asset",
              "name": "takeAsset",
              "type": "tuple"
            },
            {
              "internalType": "uint256",
              "name": "salt",
              "type": "uint256"
            },
            {
              "internalType": "uint256",
              "name": "start",
              "type": "uint256"
            },
            {
              "internalType": "uint256",
              "name": "end",
              "type": "uint256"
            },
            {
              "internalType": "bytes4",
              "name": "dataType",
              "type": "bytes4"
            },
            {
              "internalType": "bytes",
              "name": "data",
              "type": "bytes"
            }
          ],
          "internalType": "struct LibOrder.Order",
          "name": "orderLeft",
          "type": "tuple"
        },
        {
          "internalType": "bytes",
          "name": "signatureLeft",
          "type": "bytes"
        },
        {
          "components": [
            {
              "internalType": "address",
              "name": "maker",
              "type": "address"
            },
            {
              "components": [
                {
                  "components": [
                    {
                      "internalType": "bytes4",
                      "name": "assetClass",
                      "type": "bytes4"
                    },
                    {
                      "internalType": "bytes",
                      "name": "data",
                      "type": "bytes"
                    }
                  ],
                  "internalType": "struct LibAsset.AssetType",
                  "name": "assetType",
                  "type": "tuple"
                },
                {
                  "internalType": "uint256",
                  "name": "value",
                  "type": "uint256"
                }
              ],
              "internalType": "struct LibAsset.Asset",
              "name": "makeAsset",
              "type": "tuple"
            },
            {
              "internalType": "address",
              "name": "taker",
              "type": "address"
            },
            {
              "components": [
                {
                  "components": [
                    {
                      "internalType": "bytes4",
                      "name": "assetClass",
                      "type": "bytes4"
                    },
                    {
                      "internalType": "bytes",
                      "name": "data",
                      "type": "bytes"
                    }
                  ],
                  "internalType": "struct LibAsset.AssetType",
                  "name": "assetType",
                  "type": "tuple"
                },
                {
                  "internalType": "uint256",
                  "name": "value",
                  "type": "uint256"
                }
              ],
              "internalType": "struct LibAsset.Asset",
              "name": "takeAsset",
              "type": "tuple"
            },
            {
              "internalType": "uint256",
              "name": "salt",
              "type": "uint256"
            },
            {
              "internalType": "uint256",
              "name": "start",
              "type": "uint256"
            },
            {
              "internalType": "uint256",
              "name": "end",
              "type": "uint256"
            },
            {
              "internalType": "bytes4",
              "name": "dataType",
              "type": "bytes4"
            },
            {
              "internalType": "bytes",
              "name": "data",
              "type": "bytes"
            }
          ],
          "internalType": "struct LibOrder.Order",
          "name": "orderRight",
          "type": "tuple"
        },
        {
          "internalType": "bytes",
          "name": "signatureRight",
          "type": "bytes"
        }
      ],
      "name": "matchOrders",
      "outputs": [],
      "stateMutability": "payable",
      "type": "function"
    },
    {
      "inputs": [],
      "name": "maxAuctionDuration",
      "outputs": [
        {
          "internalType": "uint256",
          "name": "",
          "type": "uint256"
        }
      ],
      "stateMutability": "view",
      "type": "function"
    },
    {
      "inputs": [],
      "name": "minAuctionDuration",
      "outputs": [
        {
          "internalType": "uint256",
          "name": "",
          "type": "uint256"
        }
      ],
      "stateMutability": "view",
      "type": "function"
    },
    {
      "inputs": [],
      "name": "minBidIncrementPercentAuction",
      "outputs": [
        {
          "internalType": "uint8",
          "name": "",
          "type": "uint8"
        }
      ],
      "stateMutability": "view",
      "type": "function"
    },
    {
      "inputs": [],
      "name": "owner",
      "outputs": [
        {
          "internalType": "address",
          "name": "",
          "type": "address"
        }
      ],
      "stateMutability": "view",
      "type": "function"
    },
    {
      "inputs": [],
      "name": "pauseContract",
      "outputs": [],
      "stateMutability": "nonpayable",
      "type": "function"
    },
    {
      "inputs": [],
      "name": "paused",
      "outputs": [
        {
          "internalType": "bool",
          "name": "",
          "type": "bool"
        }
      ],
      "stateMutability": "view",
      "type": "function"
    },
    {
      "inputs": [],
      "name": "protocolFee",
      "outputs": [
        {
          "internalType": "uint256",
          "name": "",
          "type": "uint256"
        }
      ],
      "stateMutability": "view",
      "type": "function"
    },
    {
      "inputs": [
        {
          "internalType": "uint256",
          "name": "amount",
          "type": "uint256"
        }
      ],
      "name": "recoverBNB",
      "outputs": [],
      "stateMutability": "nonpayable",
      "type": "function"
    },
    {
      "inputs": [],
      "name": "renounceOwnership",
      "outputs": [],
      "stateMutability": "nonpayable",
      "type": "function"
    },
    {
      "inputs": [
        {
          "internalType": "bytes4",
          "name": "assetType",
          "type": "bytes4"
        },
        {
          "internalType": "address",
          "name": "matcher",
          "type": "address"
        }
      ],
      "name": "setAssetMatcher",
      "outputs": [],
      "stateMutability": "nonpayable",
      "type": "function"
    },
    {
      "inputs": [
        {
          "internalType": "address payable",
          "name": "newDefaultFeeReceiver",
          "type": "address"
        }
      ],
      "name": "setDefaultFeeReceiver",
      "outputs": [],
      "stateMutability": "nonpayable",
      "type": "function"
    },
    {
      "inputs": [
        {
          "internalType": "address",
          "name": "token",
          "type": "address"
        },
        {
          "internalType": "address",
          "name": "wallet",
          "type": "address"
        }
      ],
      "name": "setFeeReceiver",
      "outputs": [],
      "stateMutability": "nonpayable",
      "type": "function"
    },
    {
      "inputs": [
        {
          "internalType": "uint256",
          "name": "maxDurationExtVar",
          "type": "uint256"
        }
      ],
      "name": "setMaxAuctionDuration",
      "outputs": [],
      "stateMutability": "nonpayable",
      "type": "function"
    },
    {
      "inputs": [
        {
          "internalType": "uint256",
          "name": "minDurationExtVar",
          "type": "uint256"
        }
      ],
      "name": "setMinAuctionDuration",
      "outputs": [],
      "stateMutability": "nonpayable",
      "type": "function"
    },
    {
      "inputs": [
        {
          "internalType": "uint8",
          "name": "minBidIncrementPercentExtVar",
          "type": "uint8"
        }
      ],
      "name": "setMinBidIncrementPercent",
      "outputs": [],
      "stateMutability": "nonpayable",
      "type": "function"
    },
    {
      "inputs": [
        {
          "internalType": "uint256",
          "name": "newProtocolFee",
          "type": "uint256"
        }
      ],
      "name": "setProtocolFee",
      "outputs": [],
      "stateMutability": "nonpayable",
      "type": "function"
    },
    {
      "inputs": [
        {
          "internalType": "bytes4",
          "name": "assetType",
          "type": "bytes4"
        },
        {
          "internalType": "address",
          "name": "proxy",
          "type": "address"
        }
      ],
      "name": "setTransferProxy",
      "outputs": [],
      "stateMutability": "nonpayable",
      "type": "function"
    },
    {
      "inputs": [
        {
          "internalType": "address",
          "name": "newOwner",
          "type": "address"
        }
      ],
      "name": "transferOwnership",
      "outputs": [],
      "stateMutability": "nonpayable",
      "type": "function"
    },
    {
      "inputs": [],
      "name": "unpauseContract",
      "outputs": [],
      "stateMutability": "nonpayable",
      "type": "function"
    }
  ],
  "bytecode": "0x608060405234801561001057600080fd5b50615e4d80620000216000396000f3fe60806040526004361061021a5760003560e01c8063715018a611610123578063bb3bafd6116100ab578063e99a3f801161006f578063e99a3f80146106eb578063ebc25956146106fe578063f2fde38b1461071e578063f603939b1461073e578063f69082581461075e57600080fd5b8063bb3bafd6146105fb578063c7a065e714610629578063d80df52314610649578063e12d145a146106ab578063e66db25e146106cb57600080fd5b806399a06b6a116100f257806399a06b6a14610589578063b0e21e8a1461059c578063b33712c5146105b3578063b39deb46146105c8578063b7751c71146105e857600080fd5b8063715018a614610516578063787dce3d1461052b5780638da5cb5b1461054b57806396b5a7551461056957600080fd5b8063360ff11c116101a6578063459d823011610175578063459d8230146103fc57806348c9581e1461040f5780635413487614610426578063571a26a01461043d5780635c975abb146104eb57600080fd5b8063360ff11c1461037957806337d9bef4146103995780633abf6fd4146103c6578063439766ce146103e757600080fd5b80631cdfe3d8116101ed5780631cdfe3d8146102d857806320158c44146102f85780632403f48e1461032657806330c642f1146103465780633408e4701461036657600080fd5b806302097ab11461021f57806303721bb2146102735780631372a62514610295578063157db316146102b5575b600080fd5b34801561022b57600080fd5b5061025661023a3660046152a9565b610195602052600090815260409020546001600160a01b031681565b6040516001600160a01b0390911681526020015b60405180910390f35b34801561027f57600080fd5b5061029361028e366004615417565b61077e565b005b3480156102a157600080fd5b506102936102b0366004615468565b61096e565b3480156102c157600080fd5b506102ca610ab0565b60405190815260200161026a565b3480156102e457600080fd5b506102936102f33660046152a9565b610ac1565b34801561030457600080fd5b506102ca610313366004615417565b6101616020526000908152604090205481565b34801561033257600080fd5b5061029361034136600461587f565b610b2c565b34801561035257600080fd5b5061029361036136600461544b565b611147565b34801561037257600080fd5b50466102ca565b34801561038557600080fd5b506102ca610394366004615587565b6111fd565b3480156103a557600080fd5b506101c5546103b49060ff1681565b60405160ff909116815260200161026a565b3480156103d257600080fd5b5061019454610256906001600160a01b031681565b3480156103f357600080fd5b506102936112ae565b61029361040a3660046157dc565b61133c565b34801561041b57600080fd5b506102ca6101c75481565b34801561043257600080fd5b506102ca6101c65481565b34801561044957600080fd5b506104d2610458366004615417565b6101c960205260009081526040902080546001820154600283015460038401546004850154600586015460068701546007880154600889015460098a0154600a8b0154600b8c0154600c909c01549a9b999a989997986001600160a01b03978816989688169790951695939460ff9093169391929091908d565b60405161026a9d9c9b9a99989796959493929190615b7e565b3480156104f757600080fd5b506101c854600160a01b900460ff16604051901515815260200161026a565b34801561052257600080fd5b506102936115d7565b34801561053757600080fd5b50610293610546366004615417565b611669565b34801561055757600080fd5b506065546001600160a01b0316610256565b34801561057557600080fd5b50610293610584366004615417565b6116b7565b61029361059736600461577b565b6119b1565b3480156105a857600080fd5b506102ca6101935481565b3480156105bf57600080fd5b506102936119bf565b3480156105d457600080fd5b506102936105e336600461544b565b611a41565b6102936105f636600461585e565b611aef565b34801561060757600080fd5b5061061c610616366004615417565b50606090565b60405161026a91906159b5565b34801561063557600080fd5b506102936106443660046158f5565b612209565b34801561065557600080fd5b50610669610664366004615417565b612268565b60405161026a9190815181526020808301516001600160a01b039081169183019190915260408084015190830152606092830151169181019190915260800190565b3480156106b757600080fd5b506102936106c6366004615417565b6123ff565b3480156106d757600080fd5b506102936106e636600461530e565b61244d565b6102936106f93660046156d3565b6124c4565b34801561070a57600080fd5b506102936107193660046157dc565b6125f8565b34801561072a57600080fd5b506102936107393660046152a9565b612608565b34801561074a57600080fd5b50610293610759366004615417565b612711565b34801561076a57600080fd5b50610293610779366004615417565b61276f565b6101c854600160a01b900460ff16156107c45760405162461bcd60e51b815260206004820152600360248201526204349560ec1b60448201526064015b60405180910390fd5b6101c8546001600160a01b031633146108085760405162461bcd60e51b8152602060048201526006602482015265043444e4841560d41b60448201526064016107bb565b80600360008281526101c9602052604090206008015460ff16600381111561084057634e487b7160e01b600052602160045260246000fd5b14156108935760008181526101c9602052604090206002015461088e5760405162461bcd60e51b81526004016107bb906020808252600490820152634441484360e01b604082015260600190565b6108ee565b60008181526101c96020526040902060020154158015906108bc57506108b8816127bd565b4210155b6108ee5760405162461bcd60e51b815260206004820152600360248201526241484360e81b60448201526064016107bb565b5060009081526101c9602052604081208181556001810182905560028101829055600381018290556004810180546001600160a01b03199081169091556005820180548216905560068201805490911690556007810182905560088101805460ff1916905560098101829055600a8101829055600b8101829055600c0155565b600054610100900460ff1680610987575060005460ff16155b6109a35760405162461bcd60e51b81526004016107bb90615a26565b600054610100900460ff161580156109c5576000805461ffff19166101011790555b6109cd6127e6565b6109d5612851565b60c96020527fea0f2c387bb995d4fa72ef5fd8f77002182e2f2427114668c9ad6240ba990eb380546001600160a01b038781166001600160a01b0319928316179092557fa8c5c9d849afe4566fd6daba687a2a7baa8ffe8bfcac7a0fae545dc26eb71edc80549289169282168317905563025ceed960e61b6000527f6bcb877229283a230d76147c7b081bd9ba65c229d33b4866b30216aeb6e1469a80549091169091179055610a8584846128ff565b610a8d61298e565b610a9682612a2b565b8015610aa8576000805461ff00191690555b505050505050565b6000610abc6101c45490565b905090565b6065546001600160a01b03163314610b095760405162461bcd60e51b81526020600482018190526024820152600080516020615df883398151915260448201526064016107bb565b61019480546001600160a01b0319166001600160a01b0392909216919091179055565b60026001541415610b7f5760405162461bcd60e51b815260206004820152601f60248201527f5265656e7472616e637947756172643a207265656e7472616e742063616c6c0060448201526064016107bb565b60026001556101c854600160a01b900460ff1615610bc55760405162461bcd60e51b815260206004820152600360248201526204349560ec1b60448201526064016107bb565b610bd46101c480546001019055565b6040516301ffc9a760e01b81526380ac58cd60e01b60048201526001600160a01b038716906301ffc9a79060240160206040518083038186803b158015610c1a57600080fd5b505afa158015610c2e573d6000803e3d6000fd5b505050506040513d601f19601f82011682018060405250810190610c5291906153f7565b80610cd657506040516301ffc9a760e01b8152636cdb3d1360e11b60048201526001600160a01b038716906301ffc9a79060240160206040518083038186803b158015610c9e57600080fd5b505afa158015610cb2573d6000803e3d6000fd5b505050506040513d601f19601f82011682018060405250810190610cd691906153f7565b610d0e5760405162461bcd60e51b815260206004820152600960248201526843414e41444e534e4960b81b60448201526064016107bb565b6101c6548810158015610d2457506101c7548811155b610d5b5760405162461bcd60e51b8152602060048201526008602482015267088928aa8989ea8960c31b60448201526064016107bb565b610e10811115610d985760405162461bcd60e51b815260206004820152600860248201526708aa090a884989e960c31b60448201526064016107bb565b6003856003811115610dba57634e487b7160e01b600052602160045260246000fd5b1415610e685760008411610df85760405162461bcd60e51b815260206004820152600560248201526420a9a823ad60d91b60448201526064016107bb565b60008311610e305760405162461bcd60e51b815260206004820152600560248201526420a2a823ad60d91b60448201526064016107bb565b828411610e685760405162461bcd60e51b815260206004820152600660248201526504153504745560d41b60448201526064016107bb565b604051806101a00160405280600081526020018981526020016000815260200188815260200160006001600160a01b03168152602001336001600160a01b03168152602001876001600160a01b031681526020018a8152602001866003811115610ee257634e487b7160e01b600052602160045260246000fd5b8152602001428411610ef45742610ef6565b835b8152602001858152602001848152602001828152506101c96000306001600160a01b031663157db3166040518163ffffffff1660e01b815260040160206040518083038186803b158015610f4957600080fd5b505afa158015610f5d573d6000803e3d6000fd5b505050506040513d601f19601f82011682018060405250810190610f819190615846565b815260208082019290925260409081016000208351815591830151600180840191909155908301516002830155606083015160038084019190915560808401516004840180546001600160a01b039283166001600160a01b03199182161790915560a086015160058601805491841691831691909117905560c086015160068601805491909316911617905560e084015160078401556101008401516008840180549193909260ff1990921691849081111561104d57634e487b7160e01b600052602160045260246000fd5b0217905550610120820151816009015561014082015181600a015561016082015181600b015561018082015181600c01559050507fd0a5c0df7831b5d4cca8c74c5d22ea5c6606814e2498c605bbaf20db9812aade306001600160a01b031663157db3166040518163ffffffff1660e01b815260040160206040518083038186803b1580156110db57600080fd5b505afa1580156110ef573d6000803e3d6000fd5b505050506040513d601f19601f820116820180604052508101906111139190615846565b8a888b8b888b898960405161113099989796959493929190615b26565b60405180910390a150506001805550505050505050565b6065546001600160a01b0316331461118f5760405162461bcd60e51b81526020600482018190526024820152600080516020615df883398151915260448201526064016107bb565b6001600160e01b03198216600081815260c9602090815260409182902080546001600160a01b0319166001600160a01b03861690811790915591519182527f4b5aced933c0c9a88aeac3f0b3b72c5aaf75df8ebaf53225773248c4c315359391015b60405180910390a25050565b6000808261012001511161121057600080fd5b6000826101200151426112239190615d42565b90508260200151811061123a575050610160015190565b600061129061128461126d8660200151611267886101600151896101400151612aea90919063ffffffff16565b90612af6565b61012087015161127e904290612aea565b90612b02565b61014086015190612aea565b90508361016001518110156112a757506101608301515b9392505050565b6101c8546001600160a01b031633146112f25760405162461bcd60e51b8152602060048201526006602482015265043444e4841560d41b60448201526064016107bb565b6101c8805460ff60a01b1916600160a01b1790556040513381527f62e78cea01bee320cd4e420270b5ea74000d11b0c9f74754ebdbfc544b05a258906020015b60405180910390a1565b6002600154141561138f5760405162461bcd60e51b815260206004820152601f60248201527f5265656e7472616e637947756172643a207265656e7472616e742063616c6c0060448201526064016107bb565b60026001556101c854600160a01b900460ff16156113d55760405162461bcd60e51b815260206004820152600360248201526204349560ec1b60448201526064016107bb565b80600360008281526101c9602052604090206008015460ff16600381111561140d57634e487b7160e01b600052602160045260246000fd5b14156114605760008181526101c9602052604090206002015461145b5760405162461bcd60e51b81526004016107bb906020808252600490820152634441484360e01b604082015260600190565b6114bb565b60008181526101c96020526040902060020154158015906114895750611485816127bd565b4210155b6114bb5760405162461bcd60e51b815260206004820152600360248201526241484360e81b60448201526064016107bb565b60008281526101c960205260409020600401546001600160a01b031633811461154c5760405162461bcd60e51b815260206004820152603560248201527f41756374696f6e2063616e206f6e6c7920626520636c61696d6564206279207460448201527f686520616464726573732077686f20776f6e206974000000000000000000000060648201526084016107bb565b60008381526101c96020908152604091829020805460069091015483518781526001600160a01b03918216938101939093528416828401526060820181905291517f1a5624b2a9f99ec718b6b64f4f7f5b24aa4901b85950ee11c5f98dd651aac5639181900360800190a16115c2868683612b0e565b6115cb84612da3565b50506001805550505050565b6065546001600160a01b0316331461161f5760405162461bcd60e51b81526020600482018190526024820152600080516020615df883398151915260448201526064016107bb565b6065546040516000916001600160a01b0316907f8be0079c531659141344cd1fd0a4f28419497f9722a3daafe3b4186f6b6457e0908390a3606580546001600160a01b0319169055565b6065546001600160a01b031633146116b15760405162461bcd60e51b81526020600482018190526024820152600080516020615df883398151915260448201526064016107bb565b61019355565b6002600154141561170a5760405162461bcd60e51b815260206004820152601f60248201527f5265656e7472616e637947756172643a207265656e7472616e742063616c6c0060448201526064016107bb565b600260015560008181526101c9602052604090206006015481906001600160a01b031661175f5760405162461bcd60e51b815260206004820152600360248201526241444560e81b60448201526064016107bb565b60008281526101c96020526040902060020154156117bf5760405162461bcd60e51b815260206004820152601960248201527f41756374696f6e20616c7265616479206861642061206269640000000000000060448201526064016107bb565b60008281526101c960205260409020600501546001600160a01b0316331461184f5760405162461bcd60e51b815260206004820152603b60248201527f41756374696f6e2063616e206f6e6c792062652063616e63656c6c656420627960448201527f2074686520616464726573732077686f2063726561746564206974000000000060648201526084016107bb565b600360008381526101c9602052604090206008015460ff16600381111561188657634e487b7160e01b600052602160045260246000fd5b14156118d45760008281526101c960205260409020600901544211156118d45760405162461bcd60e51b815260206004820152600360248201526241415360e81b60448201526064016107bb565b60008281526101c9602090815260408083206006810180546007830180548785556001850188905560028501889055600385018890556004850180546001600160a01b031990811690915560058601805482169055831690935586905560088301805460ff1916905560098301869055600a8301869055600b8301869055600c9092019490945581518681526001600160a01b039091169281018390529081018390529091907fc4058ebc534b64ecb27b2d4eaa1904f98997ec18ebe6ada4117593dde89478cc9060600160405180910390a15050600180555050565b6119bb8282612de4565b5050565b6101c8546001600160a01b03163314611a035760405162461bcd60e51b8152602060048201526006602482015265043444e4841560d41b60448201526064016107bb565b6101c8805460ff60a01b191690556040513381527f5db9ee0a495bf2e6ff9c91a7834c1ba4fdd244a5e8aa4e537bd38aeae4b073aa90602001611332565b6065546001600160a01b03163314611a895760405162461bcd60e51b81526020600482018190526024820152600080516020615df883398151915260448201526064016107bb565b6001600160e01b0319821660008181526097602090815260409182902080546001600160a01b0319166001600160a01b03861690811790915591519182527fd2bf91075f105d0fd80328da28e20ebdad1c1261839711183bc29a44cbe6c72f91016111f1565b60026001541415611b425760405162461bcd60e51b815260206004820152601f60248201527f5265656e7472616e637947756172643a207265656e7472616e742063616c6c0060448201526064016107bb565b60026001556101c854600160a01b900460ff1615611b885760405162461bcd60e51b815260206004820152600360248201526204349560ec1b60448201526064016107bb565b60008281526101c9602052604090206006015482906001600160a01b0316611bd85760405162461bcd60e51b815260206004820152600360248201526241444560e81b60448201526064016107bb565b60008381526101c9602052604090206002015483901580611c005750611bfd816127bd565b42105b611c315760405162461bcd60e51b8152602060048201526002602482015261414560f01b60448201526064016107bb565b60008481526101c960205260409020600901548490421015611c7b5760405162461bcd60e51b8152602060048201526003602482015262414e5360e81b60448201526064016107bb565b348414611cb35760405162461bcd60e51b815260206004820152600660248201526520a22722a6ab60d11b60448201526064016107bb565b60008411611ceb5760405162461bcd60e51b81526020600482015260056024820152640414d4754360dc1b60448201526064016107bb565b600260008681526101c9602052604090206008015460ff166003811115611d2257634e487b7160e01b600052602160045260246000fd5b1480611d625750600160008681526101c9602052604090206008015460ff166003811115611d6057634e487b7160e01b600052602160045260246000fd5b145b15611eb55760008581526101c96020526040902054611e125760008581526101c9602052604090204260028083019190915560089091015460ff166003811115611dbc57634e487b7160e01b600052602160045260246000fd5b1415611e0d5760008581526101c96020526040902060030154841015611e0d5760405162461bcd60e51b81526020600482015260066024820152654d4252504f4d60d01b60448201526064016107bb565b611eb5565b6101c55460008681526101c96020526040902054611e5491611e3e91606491611267919060ff16612b02565b60008781526101c9602052604090205490613047565b841015611e895760405162461bcd60e51b81526020600482015260036024820152622726a160e91b60448201526064016107bb565b60008581526101c9602052604090208054600490910154611eb5916001600160a01b0390911690613053565b600360008681526101c9602052604090206008015460ff166003811115611eec57634e487b7160e01b600052602160045260246000fd5b14156120945760008581526101c9602052604090206002015415611f3c5760405162461bcd60e51b81526020600482015260076024820152662220a1a7a427a160c91b60448201526064016107bb565b60008581526101c96020908152604080832081516101a08101835281548152600182015493810193909352600281015491830191909152600380820154606084015260048201546001600160a01b0390811660808501526005830154811660a085015260068301541660c0840152600782015460e0840152600882015461203693929161010084019160ff1690811115611fe657634e487b7160e01b600052602160045260246000fd5b600381111561200557634e487b7160e01b600052602160045260246000fd5b815260200160098201548152602001600a8201548152602001600b8201548152602001600c820154815250506111fd565b9050803410156120725760405162461bcd60e51b815260206004820152600760248201526604d5347564745560cc1b60448201526064016107bb565b60008681526101c960205260409020600b810191909155426002909101553493505b60008581526101c9602052604090208481556004810180546001600160a01b03191633179055600c0154158015906121015750600360008681526101c9602052604090206008015460ff1660038111156120fe57634e487b7160e01b600052602160045260246000fd5b14155b1561218b5760008581526101c960205260409020600c0154612124904290613047565b61212d866127bd565b101561218b5761216361213f866127bd565b60008781526101c960205260409020600c015461215d904290613047565b90612aea565b60008681526101c9602052604081206001018054909190612185908490615ceb565b90915550505b60008581526101c96020908152604091829020600681015460079091015483518981526001600160a01b039092169282019290925291820152336060820152608081018590527fdb464088a4002c4d7f9012905642ae91b860df96f9c59c86ecd91d3c42fcd27b9060a00160405180910390a1505060018055505050565b6065546001600160a01b031633146122515760405162461bcd60e51b81526020600482018190526024820152600080516020615df883398151915260448201526064016107bb565b6101c5805460ff191660ff92909216919091179055565b6040805160808101825260008082526020820181905291810182905260608101919091526101c854600160a01b900460ff16156122cd5760405162461bcd60e51b815260206004820152600360248201526204349560ec1b60448201526064016107bb565b81600360008281526101c9602052604090206008015460ff16600381111561230557634e487b7160e01b600052602160045260246000fd5b14156123585760008181526101c960205260409020600201546123535760405162461bcd60e51b81526004016107bb906020808252600490820152634441484360e01b604082015260600190565b6123b3565b60008181526101c9602052604090206002015415801590612381575061237d816127bd565b4210155b6123b35760405162461bcd60e51b815260206004820152600360248201526241484360e81b60448201526064016107bb565b505060008181526101c960209081526040918290206004810154815460059092015484516080810186529586526001600160a01b03918216938601939093529284015216606082015290565b6065546001600160a01b031633146124475760405162461bcd60e51b81526020600482018190526024820152600080516020615df883398151915260448201526064016107bb565b6101c755565b6065546001600160a01b031633146124955760405162461bcd60e51b81526020600482018190526024820152600080516020615df883398151915260448201526064016107bb565b6001600160a01b0391821660009081526101956020526040902080546001600160a01b03191691909216179055565b6124ce84846130f6565b6124d882826130f6565b60408401516001600160a01b0316156125605783604001516001600160a01b031682600001516001600160a01b0316146125605760405162461bcd60e51b815260206004820152602360248201527f6c6566744f726465722e74616b657220766572696669636174696f6e206661696044820152621b195960ea1b60648201526084016107bb565b60408201516001600160a01b0316156125e85783600001516001600160a01b031682604001516001600160a01b0316146125e85760405162461bcd60e51b8152602060048201526024808201527f72696768744f726465722e74616b657220766572696669636174696f6e2066616044820152631a5b195960e21b60648201526084016107bb565b6125f28483612de4565b50505050565b612603838383612b0e565b505050565b6065546001600160a01b031633146126505760405162461bcd60e51b81526020600482018190526024820152600080516020615df883398151915260448201526064016107bb565b6001600160a01b0381166126b55760405162461bcd60e51b815260206004820152602660248201527f4f776e61626c653a206e6577206f776e657220697320746865207a65726f206160448201526564647265737360d01b60648201526084016107bb565b6065546040516001600160a01b038084169216907f8be0079c531659141344cd1fd0a4f28419497f9722a3daafe3b4186f6b6457e090600090a3606580546001600160a01b0319166001600160a01b0392909216919091179055565b6101c8546001600160a01b031633146127555760405162461bcd60e51b8152602060048201526006602482015265043444e4841560d41b60448201526064016107bb565b6101c85461276c906001600160a01b031682613053565b50565b6065546001600160a01b031633146127b75760405162461bcd60e51b81526020600482018190526024820152600080516020615df883398151915260448201526064016107bb565b6101c655565b60008181526101c96020526040812060018101546002909101546127e091613047565b92915050565b600054610100900460ff16806127ff575060005460ff16155b61281b5760405162461bcd60e51b81526004016107bb90615a26565b600054610100900460ff1615801561283d576000805461ffff19166101011790555b801561276c576000805461ff001916905550565b600054610100900460ff168061286a575060005460ff16155b6128865760405162461bcd60e51b81526004016107bb90615a26565b600054610100900460ff161580156128a8576000805461ffff19166101011790555b606580546001600160a01b0319163390811790915560405181906000907f8be0079c531659141344cd1fd0a4f28419497f9722a3daafe3b4186f6b6457e0908290a350801561276c576000805461ff001916905550565b600054610100900460ff1680612918575060005460ff16155b6129345760405162461bcd60e51b81526004016107bb90615a26565b600054610100900460ff16158015612956576000805461ffff19166101011790555b61019383905561019480546001600160a01b0319166001600160a01b0384161790558015612603576000805461ff0019169055505050565b600054610100900460ff16806129a7575060005460ff16155b6129c35760405162461bcd60e51b81526004016107bb90615a26565b600054610100900460ff161580156129e5576000805461ffff19166101011790555b61283d6040518060400160405280600b81526020016a11da1bdcdd13585c9ad95d60aa1b815250604051806040016040528060018152602001601960f91b815250613109565b600054610100900460ff1680612a44575060005460ff16155b612a605760405162461bcd60e51b81526004016107bb90615a26565b600054610100900460ff16158015612a82576000805461ffff19166101011790555b6101c8805474ffffffffffffffffffffffffffffffffffffffffff19166001600160a01b038416179055612ab4612851565b612abe6005612209565b612ac961025861276f565b612ad562278d006123ff565b80156119bb576000805461ff00191690555050565b60006112a78284615d42565b60006112a78284615d03565b60006112a78284615d23565b600080612b1b8585613193565b915091506000612b2a86613290565b90506000612b3786613290565b6000838152610161602052604080822054838352908220549293509190612b608a8a8585613300565b90506000816020015111612ba85760405162461bcd60e51b815260206004820152600f60248201526e1b9bdd1a1a5b99c81d1bc8199a5b1b608a1b60448201526064016107bb565b600080612bb88989858f8f613390565b8a5191935091506001600160e01b0319166355575f5d60e11b1415612c4857818a1015612c275760405162461bcd60e51b815260206004820152601960248201527f6d616b654d617463683a206e6f7420656e6f756768204554480000000000000060448201526064016107bb565b818a1115612c4357612c43612c3c838c615d42565b3390613053565b612cc7565b87516001600160e01b0319166355575f5d60e11b1415612cc757808a1015612cb25760405162461bcd60e51b815260206004820152601960248201527f74616b654d617463683a206e6f7420656e6f756768204554480000000000000060448201526064016107bb565b808a1115612cc757612cc7612c3c838c615d42565b8b516001600160a01b03163014612cf8576020830151612ce79086615ceb565b600088815261016160205260409020555b8a516001600160a01b03163014612d26578251612d159085615ceb565b600087815261016160205260409020555b8b518b516020858101518651604080518d81529384018c90526001600160a01b0395861690840152939092166060820152608081019190915260a08101919091527f0c0792d64a63025aad5946328f2bee95ed6f94d57160e5449513ecd215a074a69060c0015b60405180910390a1505050505050505050505050565b6101c854600160a01b900460ff16156108085760405162461bcd60e51b815260206004820152600360248201526204349560ec1b60448201526064016107bb565b600080612df18484613193565b915091506000612e0085613290565b90506000612e0d85613290565b6000838152610161602052604080822054838352908220549293509190612e3689898585613300565b90506000816020015111612e7e5760405162461bcd60e51b815260206004820152600f60248201526e1b9bdd1a1a5b99c81d1bc8199a5b1b608a1b60448201526064016107bb565b600080612e8e8989858e8e613390565b8a5191935091506001600160e01b0319166355575f5d60e11b1415612f085781341015612eee5760405162461bcd60e51b815260206004820152600e60248201526d0dcdee840cadcdeeaced0408aa8960931b60448201526064016107bb565b81341115612f0357612f03612c3c8334615d42565b612f78565b87516001600160e01b0319166355575f5d60e11b1415612f785780341015612f635760405162461bcd60e51b815260206004820152600e60248201526d0dcdee840cadcdeeaced0408aa8960931b60448201526064016107bb565b80341115612f7857612f78612c3c8234615d42565b8a5133906001600160a01b03168114612fab576020840151612f9a9087615ceb565b600089815261016160205260409020555b8a516001600160a01b03828116911614612fdc578351612fcb9086615ceb565b600088815261016160205260409020555b8b518b516020868101518751604080518e81529384018d90526001600160a01b0395861690840152939092166060820152608081019190915260a08101919091527f0c0792d64a63025aad5946328f2bee95ed6f94d57160e5449513ecd215a074a69060c001612d8d565b60006112a78284615ceb565b6000826001600160a01b03168260405160006040518083038185875af1925050503d80600081146130a0576040519150601f19603f3d011682016040523d82523d6000602084013e6130a5565b606091505b50509050806126035760405162461bcd60e51b815260206004820152601f60248201527f4c69625472616e7366657220455448207472616e73666572206661696c65640060448201526064016107bb565b6130ff8261350d565b6119bb82826135cd565b600054610100900460ff1680613122575060005460ff16155b61313e5760405162461bcd60e51b81526004016107bb90615a26565b600054610100900460ff16158015613160576000805461ffff19166101011790555b825160208085019190912083519184019190912060fb9190915560fc558015612603576000805461ff0019169055505050565b6040805180820190915260008152606060208201526040805180820190915260008152606060208201526020840151516060840151516131d3919061377b565b80519092506001600160e01b0319166132235760405162461bcd60e51b81526020600482015260126024820152710c2e6e6cae8e640c8dedc4ee840dac2e8c6d60731b60448201526064016107bb565b606084015151602084015151613239919061377b565b80519091506001600160e01b0319166132895760405162461bcd60e51b81526020600482015260126024820152710c2e6e6cae8e640c8dedc4ee840dac2e8c6d60731b60448201526064016107bb565b9250929050565b8051602082015151600091906132a5906137c8565b6060840151516132b4906137c8565b608080860151604080516001600160a01b039096166020870152850193909352606084019190915282015260a0015b604051602081830303815290604052805190602001209050919050565b60408051808201909152600080825260208201526000806133218786613825565b915091506000806133328887613825565b91509150838111156133655761335a84848a60200151602001518b6060015160200151613869565b945050505050613388565b6133818960200151602001518a606001516020015184846138f5565b9450505050505b949350505050565b60008060006133a788600001518860000151613982565b865160208801519094509250905060006133c086613a53565b905060006133cd86613a53565b905060018360028111156133f157634e487b7160e01b600052602160045260246000fd5b141561346a578751875161342a919084848e8e7f1a0388dd7519a093630516a672419a2562e0e74deb98af068657dc265f0164c9613b1b565b9450613465898960200151886000015185600001517fb45a3ba14423c8f1b71cc094845ab56b5294dbe8d8e3ba53f3cdb63d59a4044b613b97565b613500565b600283600281111561348c57634e487b7160e01b600052602160045260246000fd5b1415613500576134c98860200151876000015183858d8f7fb45a3ba14423c8f1b71cc094845ab56b5294dbe8d8e3ba53f3cdb63d59a4044b613b1b565b885188518351929650613500928d9291907f1a0388dd7519a093630516a672419a2562e0e74deb98af068657dc265f0164c9613b97565b5050509550959350505050565b60a081015115806135215750428160a00151105b61356d5760405162461bcd60e51b815260206004820152601d60248201527f4f726465722073746172742076616c69646174696f6e206661696c656400000060448201526064016107bb565b60c081015115806135815750428160c00151115b61276c5760405162461bcd60e51b815260206004820152601b60248201527f4f7264657220656e642076616c69646174696f6e206661696c6564000000000060448201526064016107bb565b81516001600160a01b0316336001600160a01b0316146119bb5760006135f283613d19565b83519091506001600160a01b03163b156136fc578251630b135d3f60e11b906001600160a01b0316631626ba7e61362884613df1565b856040518363ffffffff1660e01b8152600401613646929190615a0d565b60206040518083038186803b15801561365e57600080fd5b505afa158015613672573d6000803e3d6000fd5b505050506040513d601f19601f82011682018060405250810190613696919061542f565b6001600160e01b031916146126035760405162461bcd60e51b815260206004820152602660248201527f436f6e74726163743a207369676e617475726520766572696669636174696f6e6044820152651032b93937b960d11b60648201526084016107bb565b82516001600160a01b031661371a8361371484613df1565b90613f0f565b6001600160a01b0316146126035760405162461bcd60e51b815260206004820152602260248201527f557365723a207369676e617475726520766572696669636174696f6e2065727260448201526137b960f11b60648201526084016107bb565b604080518082019091526000815260606020820152600061379c8484613fd4565b80519091506001600160e01b0319166137c1576137b98385613fd4565b9150506127e0565b90506127e0565b80516020808301518051908201206040516000936132e3937f452a0dc408cb0d27ffc3b3caff933a5208040a53a9dbecd8d89cad2c0d40e00c939192019283526001600160e01b0319919091166020830152604082015260600190565b60008061384383856060015160200151612aea90919063ffffffff16565b90506138608460200151602001518560600151602001518361422d565b91509250929050565b6040805180820190915260008082526020820152600061388a85858561422d565b9050858111156138dc5760405162461bcd60e51b815260206004820152601860248201527f66696c6c4c6566743a20756e61626c6520746f2066696c6c000000000000000060448201526064016107bb565b5050604080518082019091529384525050602082015290565b6040805180820190915260008082526020820152600061391683878761422d565b9050838111156139685760405162461bcd60e51b815260206004820152601960248201527f66696c6c52696768743a20756e61626c6520746f2066696c6c0000000000000060448201526064016107bb565b604080518082019091529283526020830152509392505050565b60006001600160e01b031983166355575f5d60e11b14156139a5575060016127e0565b6001600160e01b031982166355575f5d60e11b14156139c6575060026127e0565b6001600160e01b031983166322ba176160e21b14156139e7575060016127e0565b6001600160e01b031982166322ba176160e21b1415613a08575060026127e0565b6001600160e01b0319831663025ceed960e61b1415613a29575060016127e0565b6001600160e01b0319821663025ceed960e61b1415613a4a575060026127e0565b50600092915050565b604080518082019091526060808252602082015260e08201516001600160e01b031916632611a13360e11b1415613ab057613a92826101000151614295565b805151909150613aab578151613aa890826142bd565b90505b919050565b60e08201516001600160e01b03199081161415613ad3578151613aa890826142bd565b60405162461bcd60e51b815260206004820152601760248201527f556e6b6e6f776e204f726465722064617461207479706500000000000000000060448201526064016107bb565b6000613b2f886101935488602001516143a3565b90506000613b40828a8a8887614439565b9050613b508585838c8c88614522565b9050613b6485828b8a602001518c88614671565b9050613b7885828b89602001518c88614671565b9050613b8b85828a896000015187613b97565b50979650505050505050565b6000805b8351811015613cc7576000613bf2858381518110613bc957634e487b7160e01b600052603260045260246000fd5b6020026020010151602001516bffffffffffffffffffffffff168861475490919063ffffffff16565b9050613c40858381518110613c1757634e487b7160e01b600052603260045260246000fd5b6020026020010151602001516bffffffffffffffffffffffff168461304790919063ffffffff16565b92508015613cb457613cb460405180604001604052808a81526020018381525087878581518110613c8157634e487b7160e01b600052603260045260246000fd5b602002602001015160000151877fa10bb5b2060a412d05113732875a5431ca23453eb93f797e0ffcb5b40e5f2c3e614766565b5080613cbf81615d85565b915050613b9b565b508061271014610aa85760405162461bcd60e51b815260206004820152601e60248201527f53756d207061796f75747320427073206e6f7420657175616c2031303025000060448201526064016107bb565b60007f477ed43b8020849b755512278536c3766a3b4ab547519949a75f483372493f8d8260000151613d4e8460200151614b67565b8460400151613d608660600151614b67565b608087015160a088015160c089015160e08a01516101008b015180516020918201206040516132e39b9a999897969594939201998a526001600160a01b0398891660208b015260408a0197909752949096166060880152608087019290925260a086015260c085015260e08401929092526001600160e01b0319919091166101008301526101208201526101400190565b604080518082018252600b81526a11da1bdcdd13585c9ad95d60aa1b6020918201528151808301835260018152601960f91b9082015281517f8b73c3c69bb8fe3d512ecc4cf759cc79239f7b179b0ffacaa9a75d522b39400f8183018190527ff7645354abf2b8319c9979d69e838e27128975fec6da6f7d8206f207bba6d37b8285018190527fad7c5bef027816a800da1736444fb58a807ef4c9603b7848673f7e3a68eb14a5606084018190524660808501523060a0808601919091528651808603909101815260c08501875280519086012061190160f01b60e086015260e285018190526101028086018990528751808703909101815261012290950190965283519390940192909220600094929392905b9695505050505050565b600080600080845160411415613f395750505060208201516040830151606084015160001a613fc8565b845160401415613f805750505060408201516020830151907f7fffffffffffffffffffffffffffffffffffffffffffffffffffffffffffffff81169060ff1c601b01613fc8565b60405162461bcd60e51b815260206004820152601f60248201527f45434453413a20696e76616c6964207369676e6174757265206c656e6774680060448201526064016107bb565b613f0586828585614bbd565b604080518082019091526000815260606020820152825182516001600160e01b031982166355575f5d60e11b1415614054576001600160e01b031981166355575f5d60e11b14156140295784925050506127e0565b50506040805180820182526000808252825160208181019094529081529181019190915290506127e0565b6001600160e01b031982166322ba176160e21b1415614099576001600160e01b031981166322ba176160e21b1415614029576140908585614d66565b925050506127e0565b6001600160e01b031982166339d690a360e11b14156140d5576001600160e01b031981166339d690a360e11b1415614029576140908585614d66565b6001600160e01b0319821663025ceed960e61b1415614111576001600160e01b0319811663025ceed960e61b1415614029576140908585614d66565b6001600160e01b031982166000908152609760205260409020546001600160a01b031680156141c6576040516306d3f7cb60e41b81526001600160a01b03821690636d3f7cb0906141689089908990600401615a83565b60006040518083038186803b15801561418057600080fd5b505afa158015614194573d6000803e3d6000fd5b505050506040513d6000823e601f3d908101601f191682016040526141bc91908101906154cf565b93505050506127e0565b6001600160e01b031983811690831614156141e5576141bc8686614d66565b60405162461bcd60e51b815260206004820152601760248201527f6e6f7420666f756e64204941737365744d61746368657200000000000000000060448201526064016107bb565b600061423a848484614dd0565b156142875760405162461bcd60e51b815260206004820152600e60248201527f726f756e64696e67206572726f7200000000000000000000000000000000000060448201526064016107bb565b613388836112678685612b02565b6040805180820190915260608082526020820152818060200190518101906127e09190615647565b6040805180820182526060808252602082015281516001808252818401909352909160009190816020015b60408051808201909152600080825260208201528152602001906001900390816142e8579050509050838160008151811061433357634e487b7160e01b600052603260045260246000fd5b6020026020010151600001906001600160a01b031690816001600160a01b0316815250506127108160008151811061437b57634e487b7160e01b600052603260045260246000fd5b6020908102919091018101516bffffffffffffffffffffffff92909216910152825250919050565b60006143b96143b28585614754565b8590613047565b905060005b82518110156144315761441d6144168483815181106143ed57634e487b7160e01b600052603260045260246000fd5b6020026020010151602001516bffffffffffffffffffffffff168761475490919063ffffffff16565b8390613047565b91508061442981615d85565b9150506143be565b509392505050565b600080600061444c888861019354614e7b565b909250905080156145175784516000906001600160e01b0319166322ba176160e21b141561449357856020015180602001905181019061448c91906152c5565b90506144cc565b85516001600160e01b03191663025ceed960e61b14156144cc57600086602001518060200190518101906144c791906152e1565b509150505b614515604051806040016040528088815260200184815250886144ee84614e9d565b887ff87e69cb514f255f3d32f9d90f25160a10d0cdefe6618a6406db334d4450595c614766565b505b509695505050505050565b845184906001600160e01b03191663025ceed960e61b14801590614558575085516001600160e01b0319166339d690a360e11b14155b1561456257613f05565b600080876020015180602001905181019061457d91906152e1565b91509150600061458d8383614edb565b905060005b8151811015614663576000806145d4878b8686815181106145c357634e487b7160e01b600052603260045260246000fd5b602002602001015160200151614e7b565b9097508792509050801561464e5761464e60405180604001604052808f8152602001838152508a86868151811061461b57634e487b7160e01b600052603260045260246000fd5b6020026020010151600001518b7fb3c5c697ec0b511b76d12f6293e6ee827b1e1df79ac7c64d0466d945904893d7614766565b5050808061465b90615d85565b915050614592565b505050509695505050505050565b8460005b8451811015614517576000806146c584898986815181106146a657634e487b7160e01b600052603260045260246000fd5b6020026020010151602001516bffffffffffffffffffffffff16614e7b565b9094508492509050801561473f5761473f60405180604001604052808c8152602001838152508789868151811061470c57634e487b7160e01b600052603260045260246000fd5b602002602001015160000151887fdfdfdaf4cc275341b6776a7ee23b953990b8d991717449077287da70f32cf955614766565b5050808061474c90615d85565b915050614675565b60006112a76127106112678585612b02565b8451516001600160e01b0319166355575f5d60e11b141561479f57602085015161479a906001600160a01b03851690613053565b614b21565b8451516001600160e01b0319166322ba176160e21b141561488b5760008560000151602001518060200190518101906147d891906152c5565b6322ba176160e21b60005260c960209081527fea0f2c387bb995d4fa72ef5fd8f77002182e2f2427114668c9ad6240ba990eb3549088015160405163776062c360e01b81526001600160a01b038085166004830152898116602483015288811660448301526064820192909252929350169063776062c390608401600060405180830381600087803b15801561486d57600080fd5b505af1158015614881573d6000803e3d6000fd5b5050505050614b21565b8451516001600160e01b0319166339d690a360e11b14156149ca576000808660000151602001518060200190518101906148c591906152e1565b91509150866020015160011461491d5760405162461bcd60e51b815260206004820152601260248201527f6572633732312076616c7565206572726f72000000000000000000000000000060448201526064016107bb565b6339d690a360e11b60005260c96020527fa8c5c9d849afe4566fd6daba687a2a7baa8ffe8bfcac7a0fae545dc26eb71edc54604051637b84dc8360e11b81526001600160a01b03848116600483015288811660248301528781166044830152606482018490529091169063f709b906906084015b600060405180830381600087803b1580156149ab57600080fd5b505af11580156149bf573d6000803e3d6000fd5b505050505050614b21565b8451516001600160e01b03191663025ceed960e61b1415614aa057600080866000015160200151806020019051810190614a0491906152e1565b63025ceed960e61b600090815260c960209081527f6bcb877229283a230d76147c7b081bd9ba65c229d33b4866b30216aeb6e1469a54908b0151604051639c1c2ee960e01b81526001600160a01b0380871660048301528c811660248301528b8116604483015260648201869052608482019290925260c060a482015260c4810193909352939550919350911690639c1c2ee99060e401614991565b8451516001600160e01b031916600090815260c96020526040908190205490516354bc0cf160e01b81526001600160a01b03909116906354bc0cf190614aee90889088908890600401615aa8565b600060405180830381600087803b158015614b0857600080fd5b505af1158015614b1c573d6000803e3d6000fd5b505050505b7fcae9d16f553e92058883de29cb3135dbc0c1e31fd7eace79fef1d80577fe482e8585858585604051614b58959493929190615adb565b60405180910390a15050505050565b60007fdb6f72e915676cfc289da13bc4ece054fd17b1df6d77ffc4a60510718c236b08614b9783600001516137c8565b6020808501516040516132e3949392019283526020830191909152604082015260600190565b60007f7fffffffffffffffffffffffffffffff5d576e7357a4501ddfe92f46681b20a0821115614c3a5760405162461bcd60e51b815260206004820152602260248201527f45434453413a20696e76616c6964207369676e6174757265202773272076616c604482015261756560f01b60648201526084016107bb565b8360ff16601b1480614c4f57508360ff16601c145b614ca65760405162461bcd60e51b815260206004820152602260248201527f45434453413a20696e76616c6964207369676e6174757265202776272076616c604482015261756560f01b60648201526084016107bb565b6040805160008082526020820180845288905260ff871692820192909252606081018590526080810184905260019060a0016020604051602081039080840390855afa158015614cfa573d6000803e3d6000fd5b5050604051601f1901519150506001600160a01b038116614d5d5760405162461bcd60e51b815260206004820152601860248201527f45434453413a20696e76616c6964207369676e6174757265000000000000000060448201526064016107bb565b95945050505050565b60408051808201909152600081526060602082015260208084015180519082012083820151805192019190912080821415614da55784925050506127e0565b5050604080518082018252600080825282516020808201909452908152918101919091529392505050565b600082614e1f5760405162461bcd60e51b815260206004820152601060248201527f6469766973696f6e206279207a65726f0000000000000000000000000000000060448201526064016107bb565b811580614e2a575083155b15614e37575060006112a7565b60008380614e5557634e487b7160e01b600052601260045260246000fd5b8584099050614e648584612b02565b614e70826103e8612b02565b101595945050505050565b600080614e9185614e8c8686614754565b614fdf565b91509150935093915050565b6001600160a01b03808216600090815261019560205260408120549091168015614ec75792915050565b5050610194546001600160a01b0316919050565b6040516301ffc9a760e01b815263721049d360e11b60048201526060906001600160a01b038416906301ffc9a79060240160206040518083038186803b158015614f2457600080fd5b505afa158015614f38573d6000803e3d6000fd5b505050506040513d601f19601f82011682018060405250810190614f5c91906153f7565b156127e057604051635d9dd7eb60e11b81526004810183905283906001600160a01b0382169063bb3bafd69060240160006040518083038186803b158015614fa357600080fd5b505afa158015614fb7573d6000803e3d6000fd5b505050506040513d6000823e601f3d908101601f191682016040526137b99190810190615346565b60008082841115614ffe57614ff48484612aea565b9150829050613289565b50600093915050565b8035613aab81615dcc565b600082601f830112615022578081fd5b8151602061503761503283615c9f565b615c6e565b80838252828201915082860187848660061b8901011115615056578586fd5b855b858110156150b957604080838b031215615070578788fd5b615078615bfd565b835161508381615dcc565b8152838701516bffffffffffffffffffffffff811681146150a257898afd5b818801528552938501939190910190600101615058565b5090979650505050505050565b8035613aab81615de1565b600082601f8301126150e1578081fd5b81356150ef61503282615cc3565b818152846020838601011115615103578283fd5b816020850160208301379081016020019190915292915050565b803560048110613aab57600080fd5b60006040828403121561513d578081fd5b615145615bfd565b9050813567ffffffffffffffff8082111561515f57600080fd5b908301906040828603121561517357600080fd5b61517b615bfd565b823561518681615de1565b815260208301358281111561519a57600080fd5b6151a6878286016150d1565b6020830152508084525050506020820135602082015292915050565b600061012082840312156151d4578081fd5b6151dc615c26565b90506151e782615007565b8152602082013567ffffffffffffffff8082111561520457600080fd5b6152108583860161512c565b602084015261522160408501615007565b6040840152606084013591508082111561523a57600080fd5b6152468583860161512c565b60608401526080840135608084015260a084013560a084015260c084013560c084015261527560e085016150c6565b60e08401526101009150818401358181111561529057600080fd5b61529c868287016150d1565b8385015250505092915050565b6000602082840312156152ba578081fd5b81356112a781615dcc565b6000602082840312156152d6578081fd5b81516112a781615dcc565b600080604083850312156152f3578081fd5b82516152fe81615dcc565b6020939093015192949293505050565b60008060408385031215615320578182fd5b823561532b81615dcc565b9150602083013561533b81615dcc565b809150509250929050565b60006020808385031215615358578182fd5b825167ffffffffffffffff81111561536e578283fd5b8301601f8101851361537e578283fd5b805161538c61503282615c9f565b80828252848201915084840188868560061b87010111156153ab578687fd5b8694505b83851015613b8b57604080828b0312156153c7578788fd5b6153cf615bfd565b82516153da81615dcc565b8152828801518882015284526001959095019492860192016153af565b600060208284031215615408578081fd5b815180151581146112a7578182fd5b600060208284031215615428578081fd5b5035919050565b600060208284031215615440578081fd5b81516112a781615de1565b6000806040838503121561545d578182fd5b823561532b81615de1565b600080600080600060a0868803121561547f578081fd5b853561548a81615dcc565b9450602086013561549a81615dcc565b93506040860135925060608601356154b181615dcc565b915060808601356154c181615dcc565b809150509295509295909350565b600060208083850312156154e1578182fd5b825167ffffffffffffffff808211156154f8578384fd5b908401906040828703121561550b578384fd5b615513615bfd565b825161551e81615de1565b81528284015182811115615530578586fd5b80840193505086601f840112615544578485fd5b8251915061555461503283615cc3565b8281528785848601011115615567578586fd5b61557683868301878701615d59565b938101939093525090949350505050565b60006101a08284031215615599578081fd5b6155a1615c4a565b823581526020830135602082015260408301356040820152606083013560608201526155cf60808401615007565b60808201526155e060a08401615007565b60a08201526155f160c08401615007565b60c082015260e083013560e082015261010061560e81850161511d565b90820152610120838101359082015261014080840135908201526101608084013590820152610180928301359281019290925250919050565b600060208284031215615658578081fd5b815167ffffffffffffffff8082111561566f578283fd5b9083019060408286031215615682578283fd5b61568a615bfd565b825182811115615698578485fd5b6156a487828601615012565b8252506020830151828111156156b8578485fd5b6156c487828601615012565b60208301525095945050505050565b600080600080608085870312156156e8578182fd5b843567ffffffffffffffff808211156156ff578384fd5b61570b888389016151c2565b95506020870135915080821115615720578384fd5b61572c888389016150d1565b94506040870135915080821115615741578384fd5b61574d888389016151c2565b93506060870135915080821115615762578283fd5b5061576f878288016150d1565b91505092959194509250565b6000806040838503121561578d578182fd5b823567ffffffffffffffff808211156157a4578384fd5b6157b0868387016151c2565b935060208501359150808211156157c5578283fd5b506157d2858286016151c2565b9150509250929050565b6000806000606084860312156157f0578081fd5b833567ffffffffffffffff80821115615807578283fd5b615813878388016151c2565b94506020860135915080821115615828578283fd5b50615835868287016151c2565b925050604084013590509250925092565b600060208284031215615857578081fd5b5051919050565b60008060408385031215615870578182fd5b50508035926020909101359150565b60008060008060008060008060006101208a8c03121561589d578687fd5b8935985060208a0135975060408a0135965060608a01356158bd81615dcc565b95506158cb60808b0161511d565b989b979a50959894979660a0860135965060c08601359560e0810135955061010001359350915050565b600060208284031215615906578081fd5b813560ff811681146112a7578182fd5b6000815180845261592e816020860160208601615d59565b601f01601f19169290920160200192915050565b6004811061596057634e487b7160e01b600052602160045260246000fd5b9052565b63ffffffff60e01b815116825260006020820151604060208501526133886040850182615916565b60008151604084526159a16040850182615964565b602093840151949093019390935250919050565b602080825282518282018190526000919060409081850190868401855b82811015615a0057815180516001600160a01b031685528601518685015292840192908501906001016159d2565b5091979650505050505050565b8281526040602082015260006133886040830184615916565b6020808252602e908201527f496e697469616c697a61626c653a20636f6e747261637420697320616c72656160408201527f647920696e697469616c697a6564000000000000000000000000000000000000606082015260800190565b604081526000615a966040830185615964565b8281036020840152614d5d8185615964565b606081526000615abb606083018661598c565b6001600160a01b0394851660208401529290931660409091015292915050565b60a081526000615aee60a083018861598c565b6001600160a01b0396871660208401529490951660408201526001600160e01b03199283166060820152911660809091015292915050565b6000610120820190508a82528960208301526001600160a01b03891660408301528760608301528660808301528560a0830152615b6660c0830186615942565b60e08201939093526101000152979650505050505050565b8d8152602081018d9052604081018c9052606081018b90526001600160a01b038a8116608083015289811660a0830152881660c082015260e081018790526101a08101615bcf610100830188615942565b856101208301528461014083015283610160830152826101808301529e9d5050505050505050505050505050565b6040805190810167ffffffffffffffff81118282101715615c2057615c20615db6565b60405290565b604051610120810167ffffffffffffffff81118282101715615c2057615c20615db6565b6040516101a0810167ffffffffffffffff81118282101715615c2057615c20615db6565b604051601f8201601f1916810167ffffffffffffffff81118282101715615c9757615c97615db6565b604052919050565b600067ffffffffffffffff821115615cb957615cb9615db6565b5060051b60200190565b600067ffffffffffffffff821115615cdd57615cdd615db6565b50601f01601f191660200190565b60008219821115615cfe57615cfe615da0565b500190565b600082615d1e57634e487b7160e01b81526012600452602481fd5b500490565b6000816000190483118215151615615d3d57615d3d615da0565b500290565b600082821015615d5457615d54615da0565b500390565b60005b83811015615d74578181015183820152602001615d5c565b838111156125f25750506000910152565b6000600019821415615d9957615d99615da0565b5060010190565b634e487b7160e01b600052601160045260246000fd5b634e487b7160e01b600052604160045260246000fd5b6001600160a01b038116811461276c57600080fd5b6001600160e01b03198116811461276c57600080fdfe4f776e61626c653a2063616c6c6572206973206e6f7420746865206f776e6572a26469706673582212205d13c7bed629a6306c22ea2960902bb80525cde424819aa2c2dca2bad0ec289664736f6c63430008040033",
  "linkReferences": {},
  "deployedLinkReferences": {}
}