{
  "_format": "hh-sol-artifact-1",
  "contractName": "TestERC721WithRoyalties_Error",
  "sourceName": "contracts/tests/tokens/TestERC721WithRoyalties_Error.sol",
  "abi": [
    {
      "anonymous": false,
      "inputs": [
        {
          "indexed": true,
          "internalType": "address",
          "name": "owner",
          "type": "address"
        },
        {
          "indexed": true,
          "internalType": "address",
          "name": "approved",
          "type": "address"
        },
        {
          "indexed": true,
          "internalType": "uint256",
          "name": "tokenId",
          "type": "uint256"
        }
      ],
      "name": "Approval",
      "type": "event"
    },
    {
      "anonymous": false,
      "inputs": [
        {
          "indexed": true,
          "internalType": "address",
          "name": "owner",
          "type": "address"
        },
        {
          "indexed": true,
          "internalType": "address",
          "name": "operator",
          "type": "address"
        },
        {
          "indexed": false,
          "internalType": "bool",
          "name": "approved",
          "type": "bool"
        }
      ],
      "name": "ApprovalForAll",
      "type": "event"
    },
    {
      "anonymous": false,
      "inputs": [
        {
          "indexed": false,
          "internalType": "address",
          "name": "msgSender",
          "type": "address"
        },
        {
          "indexed": false,
          "internalType": "uint256",
          "name": "tokenId",
          "type": "uint256"
        },
        {
          "indexed": false,
          "internalType": "string",
          "name": "lockedContent",
          "type": "string"
        }
      ],
      "name": "LockedContentViewed",
      "type": "event"
    },
    {
      "anonymous": false,
      "inputs": [
        {
          "indexed": false,
          "internalType": "address",
          "name": "feeChanger",
          "type": "address"
        },
        {
          "indexed": false,
          "internalType": "uint256",
          "name": "newValue",
          "type": "uint256"
        }
      ],
      "name": "MintFeesUpdated",
      "type": "event"
    },
    {
      "anonymous": false,
      "inputs": [
        {
          "indexed": false,
          "internalType": "address",
          "name": "feeWithdrawer",
          "type": "address"
        },
        {
          "indexed": false,
          "internalType": "uint256",
          "name": "withdrawAmount",
          "type": "uint256"
        }
      ],
      "name": "MintFeesWithdrawn",
      "type": "event"
    },
    {
      "anonymous": false,
      "inputs": [
        {
          "indexed": false,
          "internalType": "address",
          "name": "toAddress",
          "type": "address"
        },
        {
          "indexed": false,
          "internalType": "uint256",
          "name": "tokenId",
          "type": "uint256"
        },
        {
          "indexed": false,
          "internalType": "string",
          "name": "externalURI",
          "type": "string"
        }
      ],
      "name": "Minted",
      "type": "event"
    },
    {
      "anonymous": false,
      "inputs": [
        {
          "indexed": true,
          "internalType": "address",
          "name": "previousOwner",
          "type": "address"
        },
        {
          "indexed": true,
          "internalType": "address",
          "name": "newOwner",
          "type": "address"
        }
      ],
      "name": "OwnershipTransferred",
      "type": "event"
    },
    {
      "anonymous": false,
      "inputs": [
        {
          "indexed": false,
          "internalType": "address",
          "name": "account",
          "type": "address"
        }
      ],
      "name": "Paused",
      "type": "event"
    },
    {
      "anonymous": false,
      "inputs": [
        {
          "indexed": true,
          "internalType": "bytes32",
          "name": "role",
          "type": "bytes32"
        },
        {
          "indexed": true,
          "internalType": "bytes32",
          "name": "previousAdminRole",
          "type": "bytes32"
        },
        {
          "indexed": true,
          "internalType": "bytes32",
          "name": "newAdminRole",
          "type": "bytes32"
        }
      ],
      "name": "RoleAdminChanged",
      "type": "event"
    },
    {
      "anonymous": false,
      "inputs": [
        {
          "indexed": true,
          "internalType": "bytes32",
          "name": "role",
          "type": "bytes32"
        },
        {
          "indexed": true,
          "internalType": "address",
          "name": "account",
          "type": "address"
        },
        {
          "indexed": true,
          "internalType": "address",
          "name": "sender",
          "type": "address"
        }
      ],
      "name": "RoleGranted",
      "type": "event"
    },
    {
      "anonymous": false,
      "inputs": [
        {
          "indexed": true,
          "internalType": "bytes32",
          "name": "role",
          "type": "bytes32"
        },
        {
          "indexed": true,
          "internalType": "address",
          "name": "account",
          "type": "address"
        },
        {
          "indexed": true,
          "internalType": "address",
          "name": "sender",
          "type": "address"
        }
      ],
      "name": "RoleRevoked",
      "type": "event"
    },
    {
      "anonymous": false,
      "inputs": [
        {
          "indexed": true,
          "internalType": "address",
          "name": "from",
          "type": "address"
        },
        {
          "indexed": true,
          "internalType": "address",
          "name": "to",
          "type": "address"
        },
        {
          "indexed": true,
          "internalType": "uint256",
          "name": "tokenId",
          "type": "uint256"
        }
      ],
      "name": "Transfer",
      "type": "event"
    },
    {
      "anonymous": false,
      "inputs": [
        {
          "indexed": false,
          "internalType": "address",
          "name": "account",
          "type": "address"
        }
      ],
      "name": "Unpaused",
      "type": "event"
    },
    {
      "inputs": [],
      "name": "DEFAULT_ADMIN_ROLE",
      "outputs": [
        {
          "internalType": "bytes32",
          "name": "",
          "type": "bytes32"
        }
      ],
      "stateMutability": "view",
      "type": "function"
    },
    {
      "inputs": [],
      "name": "MINTER_ROLE",
      "outputs": [
        {
          "internalType": "bytes32",
          "name": "",
          "type": "bytes32"
        }
      ],
      "stateMutability": "view",
      "type": "function"
    },
    {
      "inputs": [],
      "name": "PAUSER_ROLE",
      "outputs": [
        {
          "internalType": "bytes32",
          "name": "",
          "type": "bytes32"
        }
      ],
      "stateMutability": "view",
      "type": "function"
    },
    {
      "inputs": [],
      "name": "POLYNETWORK_ROLE",
      "outputs": [
        {
          "internalType": "bytes32",
          "name": "",
          "type": "bytes32"
        }
      ],
      "stateMutability": "view",
      "type": "function"
    },
    {
      "inputs": [
        {
          "internalType": "address",
          "name": "to",
          "type": "address"
        },
        {
          "internalType": "uint256",
          "name": "tokenId",
          "type": "uint256"
        }
      ],
      "name": "approve",
      "outputs": [],
      "stateMutability": "nonpayable",
      "type": "function"
    },
    {
      "inputs": [
        {
          "internalType": "address",
          "name": "owner",
          "type": "address"
        }
      ],
      "name": "balanceOf",
      "outputs": [
        {
          "internalType": "uint256",
          "name": "",
          "type": "uint256"
        }
      ],
      "stateMutability": "view",
      "type": "function"
    },
    {
      "inputs": [
        {
          "internalType": "uint256",
          "name": "tokenId",
          "type": "uint256"
        }
      ],
      "name": "burn",
      "outputs": [],
      "stateMutability": "nonpayable",
      "type": "function"
    },
    {
      "inputs": [
        {
          "internalType": "uint256[]",
          "name": "tokensId",
          "type": "uint256[]"
        }
      ],
      "name": "burnBatch",
      "outputs": [],
      "stateMutability": "nonpayable",
      "type": "function"
    },
    {
      "inputs": [
        {
          "internalType": "uint256",
          "name": "tokenId",
          "type": "uint256"
        }
      ],
      "name": "getApproved",
      "outputs": [
        {
          "internalType": "address",
          "name": "",
          "type": "address"
        }
      ],
      "stateMutability": "view",
      "type": "function"
    },
    {
      "inputs": [],
      "name": "getCurrentCounter",
      "outputs": [
        {
          "internalType": "uint256",
          "name": "",
          "type": "uint256"
        }
      ],
      "stateMutability": "view",
      "type": "function"
    },
    {
      "inputs": [
        {
          "internalType": "uint256",
          "name": "tokenId",
          "type": "uint256"
        }
      ],
      "name": "getCurrentLockedContentViewTracker",
      "outputs": [
        {
          "internalType": "uint256",
          "name": "",
          "type": "uint256"
        }
      ],
      "stateMutability": "view",
      "type": "function"
    },
    {
      "inputs": [],
      "name": "getGhostmarketMintFees",
      "outputs": [
        {
          "internalType": "uint256",
          "name": "",
          "type": "uint256"
        }
      ],
      "stateMutability": "view",
      "type": "function"
    },
    {
      "inputs": [],
      "name": "getLastTokenID",
      "outputs": [
        {
          "internalType": "uint256",
          "name": "",
          "type": "uint256"
        }
      ],
      "stateMutability": "view",
      "type": "function"
    },
    {
      "inputs": [
        {
          "internalType": "uint256",
          "name": "tokenId",
          "type": "uint256"
        }
      ],
      "name": "getLockedContent",
      "outputs": [],
      "stateMutability": "nonpayable",
      "type": "function"
    },
    {
      "inputs": [
        {
          "internalType": "uint256",
          "name": "tokenId",
          "type": "uint256"
        }
      ],
      "name": "getMetadataJson",
      "outputs": [
        {
          "internalType": "string",
          "name": "",
          "type": "string"
        }
      ],
      "stateMutability": "view",
      "type": "function"
    },
    {
      "inputs": [
        {
          "internalType": "bytes32",
          "name": "role",
          "type": "bytes32"
        }
      ],
      "name": "getRoleAdmin",
      "outputs": [
        {
          "internalType": "bytes32",
          "name": "",
          "type": "bytes32"
        }
      ],
      "stateMutability": "view",
      "type": "function"
    },
    {
      "inputs": [
        {
          "internalType": "bytes32",
          "name": "role",
          "type": "bytes32"
        },
        {
          "internalType": "uint256",
          "name": "index",
          "type": "uint256"
        }
      ],
      "name": "getRoleMember",
      "outputs": [
        {
          "internalType": "address",
          "name": "",
          "type": "address"
        }
      ],
      "stateMutability": "view",
      "type": "function"
    },
    {
      "inputs": [
        {
          "internalType": "bytes32",
          "name": "role",
          "type": "bytes32"
        }
      ],
      "name": "getRoleMemberCount",
      "outputs": [
        {
          "internalType": "uint256",
          "name": "",
          "type": "uint256"
        }
      ],
      "stateMutability": "view",
      "type": "function"
    },
    {
      "inputs": [
        {
          "internalType": "uint256",
          "name": "",
          "type": "uint256"
        }
      ],
      "name": "getRoyalties",
      "outputs": [
        {
          "components": [
            {
              "internalType": "address payable",
              "name": "recipient",
              "type": "address"
            },
            {
              "internalType": "uint256",
              "name": "value",
              "type": "uint256"
            }
          ],
          "internalType": "struct GhostMarketERC721.Royalty[]",
          "name": "",
          "type": "tuple[]"
        }
      ],
      "stateMutability": "pure",
      "type": "function"
    },
    {
      "inputs": [
        {
          "internalType": "uint256",
          "name": "tokenId",
          "type": "uint256"
        }
      ],
      "name": "getRoyaltiesBps",
      "outputs": [
        {
          "internalType": "uint256[]",
          "name": "",
          "type": "uint256[]"
        }
      ],
      "stateMutability": "view",
      "type": "function"
    },
    {
      "inputs": [
        {
          "internalType": "uint256",
          "name": "tokenId",
          "type": "uint256"
        }
      ],
      "name": "getRoyaltiesRecipients",
      "outputs": [
        {
          "internalType": "address payable[]",
          "name": "",
          "type": "address[]"
        }
      ],
      "stateMutability": "view",
      "type": "function"
    },
    {
      "inputs": [
        {
          "internalType": "bytes32",
          "name": "role",
          "type": "bytes32"
        },
        {
          "internalType": "address",
          "name": "account",
          "type": "address"
        }
      ],
      "name": "grantRole",
      "outputs": [],
      "stateMutability": "nonpayable",
      "type": "function"
    },
    {
      "inputs": [
        {
          "internalType": "bytes32",
          "name": "role",
          "type": "bytes32"
        },
        {
          "internalType": "address",
          "name": "account",
          "type": "address"
        }
      ],
      "name": "hasRole",
      "outputs": [
        {
          "internalType": "bool",
          "name": "",
          "type": "bool"
        }
      ],
      "stateMutability": "view",
      "type": "function"
    },
    {
      "inputs": [
        {
          "internalType": "string",
          "name": "name",
          "type": "string"
        },
        {
          "internalType": "string",
          "name": "symbol",
          "type": "string"
        },
        {
          "internalType": "string",
          "name": "uri",
          "type": "string"
        }
      ],
      "name": "initialize",
      "outputs": [],
      "stateMutability": "nonpayable",
      "type": "function"
    },
    {
      "inputs": [
        {
          "internalType": "address",
          "name": "owner",
          "type": "address"
        },
        {
          "internalType": "address",
          "name": "operator",
          "type": "address"
        }
      ],
      "name": "isApprovedForAll",
      "outputs": [
        {
          "internalType": "bool",
          "name": "",
          "type": "bool"
        }
      ],
      "stateMutability": "view",
      "type": "function"
    },
    {
      "inputs": [
        {
          "internalType": "address",
          "name": "to",
          "type": "address"
        },
        {
          "components": [
            {
              "internalType": "address payable",
              "name": "recipient",
              "type": "address"
            },
            {
              "internalType": "uint256",
              "name": "value",
              "type": "uint256"
            }
          ],
          "internalType": "struct GhostMarketERC721.Royalty[]",
          "name": "royalties",
          "type": "tuple[]"
        },
        {
          "internalType": "string",
          "name": "externalURI",
          "type": "string"
        },
        {
          "internalType": "string",
          "name": "metadata",
          "type": "string"
        },
        {
          "internalType": "string",
          "name": "lockedcontent",
          "type": "string"
        }
      ],
      "name": "mintGhost",
      "outputs": [],
      "stateMutability": "payable",
      "type": "function"
    },
    {
      "inputs": [
        {
          "internalType": "address",
          "name": "to",
          "type": "address"
        },
        {
          "internalType": "uint256",
          "name": "tokenId",
          "type": "uint256"
        },
        {
          "internalType": "string",
          "name": "uri",
          "type": "string"
        }
      ],
      "name": "mintWithURI",
      "outputs": [],
      "stateMutability": "nonpayable",
      "type": "function"
    },
    {
      "inputs": [],
      "name": "name",
      "outputs": [
        {
          "internalType": "string",
          "name": "",
          "type": "string"
        }
      ],
      "stateMutability": "view",
      "type": "function"
    },
    {
      "inputs": [],
      "name": "owner",
      "outputs": [
        {
          "internalType": "address",
          "name": "",
          "type": "address"
        }
      ],
      "stateMutability": "view",
      "type": "function"
    },
    {
      "inputs": [
        {
          "internalType": "uint256",
          "name": "tokenId",
          "type": "uint256"
        }
      ],
      "name": "ownerOf",
      "outputs": [
        {
          "internalType": "address",
          "name": "",
          "type": "address"
        }
      ],
      "stateMutability": "view",
      "type": "function"
    },
    {
      "inputs": [],
      "name": "pause",
      "outputs": [],
      "stateMutability": "nonpayable",
      "type": "function"
    },
    {
      "inputs": [],
      "name": "paused",
      "outputs": [
        {
          "internalType": "bool",
          "name": "",
          "type": "bool"
        }
      ],
      "stateMutability": "view",
      "type": "function"
    },
    {
      "inputs": [],
      "name": "renounceOwnership",
      "outputs": [],
      "stateMutability": "nonpayable",
      "type": "function"
    },
    {
      "inputs": [
        {
          "internalType": "bytes32",
          "name": "role",
          "type": "bytes32"
        },
        {
          "internalType": "address",
          "name": "account",
          "type": "address"
        }
      ],
      "name": "renounceRole",
      "outputs": [],
      "stateMutability": "nonpayable",
      "type": "function"
    },
    {
      "inputs": [
        {
          "internalType": "bytes32",
          "name": "role",
          "type": "bytes32"
        },
        {
          "internalType": "address",
          "name": "account",
          "type": "address"
        }
      ],
      "name": "revokeRole",
      "outputs": [],
      "stateMutability": "nonpayable",
      "type": "function"
    },
    {
      "inputs": [
        {
          "internalType": "address",
          "name": "from",
          "type": "address"
        },
        {
          "internalType": "address",
          "name": "to",
          "type": "address"
        },
        {
          "internalType": "uint256",
          "name": "tokenId",
          "type": "uint256"
        }
      ],
      "name": "safeTransferFrom",
      "outputs": [],
      "stateMutability": "nonpayable",
      "type": "function"
    },
    {
      "inputs": [
        {
          "internalType": "address",
          "name": "from",
          "type": "address"
        },
        {
          "internalType": "address",
          "name": "to",
          "type": "address"
        },
        {
          "internalType": "uint256",
          "name": "tokenId",
          "type": "uint256"
        },
        {
          "internalType": "bytes",
          "name": "_data",
          "type": "bytes"
        }
      ],
      "name": "safeTransferFrom",
      "outputs": [],
      "stateMutability": "nonpayable",
      "type": "function"
    },
    {
      "inputs": [
        {
          "internalType": "address",
          "name": "operator",
          "type": "address"
        },
        {
          "internalType": "bool",
          "name": "approved",
          "type": "bool"
        }
      ],
      "name": "setApprovalForAll",
      "outputs": [],
      "stateMutability": "nonpayable",
      "type": "function"
    },
    {
      "inputs": [
        {
          "internalType": "string",
          "name": "baseTokenURI",
          "type": "string"
        }
      ],
      "name": "setBaseTokenURI",
      "outputs": [],
      "stateMutability": "nonpayable",
      "type": "function"
    },
    {
      "inputs": [
        {
          "internalType": "uint256",
          "name": "gmmf",
          "type": "uint256"
        }
      ],
      "name": "setGhostmarketMintFee",
      "outputs": [],
      "stateMutability": "nonpayable",
      "type": "function"
    },
    {
      "inputs": [
        {
          "internalType": "bytes4",
          "name": "interfaceId",
          "type": "bytes4"
        }
      ],
      "name": "supportsInterface",
      "outputs": [
        {
          "internalType": "bool",
          "name": "",
          "type": "bool"
        }
      ],
      "stateMutability": "view",
      "type": "function"
    },
    {
      "inputs": [],
      "name": "symbol",
      "outputs": [
        {
          "internalType": "string",
          "name": "",
          "type": "string"
        }
      ],
      "stateMutability": "view",
      "type": "function"
    },
    {
      "inputs": [
        {
          "internalType": "uint256",
          "name": "index",
          "type": "uint256"
        }
      ],
      "name": "tokenByIndex",
      "outputs": [
        {
          "internalType": "uint256",
          "name": "",
          "type": "uint256"
        }
      ],
      "stateMutability": "view",
      "type": "function"
    },
    {
      "inputs": [
        {
          "internalType": "address",
          "name": "owner",
          "type": "address"
        },
        {
          "internalType": "uint256",
          "name": "index",
          "type": "uint256"
        }
      ],
      "name": "tokenOfOwnerByIndex",
      "outputs": [
        {
          "internalType": "uint256",
          "name": "",
          "type": "uint256"
        }
      ],
      "stateMutability": "view",
      "type": "function"
    },
    {
      "inputs": [
        {
          "internalType": "uint256",
          "name": "tokenId",
          "type": "uint256"
        }
      ],
      "name": "tokenURI",
      "outputs": [
        {
          "internalType": "string",
          "name": "",
          "type": "string"
        }
      ],
      "stateMutability": "view",
      "type": "function"
    },
    {
      "inputs": [],
      "name": "totalSupply",
      "outputs": [
        {
          "internalType": "uint256",
          "name": "",
          "type": "uint256"
        }
      ],
      "stateMutability": "view",
      "type": "function"
    },
    {
      "inputs": [
        {
          "internalType": "address",
          "name": "from",
          "type": "address"
        },
        {
          "internalType": "address",
          "name": "to",
          "type": "address"
        },
        {
          "internalType": "uint256",
          "name": "tokenId",
          "type": "uint256"
        }
      ],
      "name": "transferFrom",
      "outputs": [],
      "stateMutability": "nonpayable",
      "type": "function"
    },
    {
      "inputs": [
        {
          "internalType": "address",
          "name": "newOwner",
          "type": "address"
        }
      ],
      "name": "transferOwnership",
      "outputs": [],
      "stateMutability": "nonpayable",
      "type": "function"
    },
    {
      "inputs": [],
      "name": "unpause",
      "outputs": [],
      "stateMutability": "nonpayable",
      "type": "function"
    },
    {
      "inputs": [
        {
          "internalType": "uint256",
          "name": "withdrawAmount",
          "type": "uint256"
        }
      ],
      "name": "withdraw",
      "outputs": [],
      "stateMutability": "nonpayable",
      "type": "function"
    }
  ],
  "bytecode": "0x608060405234801561001057600080fd5b50614c47806100206000396000f3fe6080604052600436106103295760003560e01c80638456cb59116101a5578063c6f4f0f0116100ec578063e24dbeae11610095578063e985e9c51161006f578063e985e9c514610950578063edcbc0bd14610999578063f2fde38b146109c6578063f7d027de146109e657600080fd5b8063e24dbeae146108e6578063e4623c1b146108fc578063e63ab1e91461091c57600080fd5b8063d5391393116100c6578063d539139314610872578063d547741f146108a6578063dac0f3d9146108c657600080fd5b8063c6f4f0f014610804578063c87b56dd14610832578063ca15c8731461085257600080fd5b8063a217fddf1161014e578063b88d4fde11610128578063b88d4fde1461078a578063bb3bafd6146107aa578063c1793c58146107d757600080fd5b8063a217fddf14610735578063a22cb4651461074a578063a6487c531461076a57600080fd5b806391d148541161017f57806391d14854146106a657806395d89b41146106ec5780639ceea6651461070157600080fd5b80638456cb59146106525780638da5cb5b146106675780639010d07c1461068657600080fd5b80632fffbf26116102745780634a99950b1161021d5780636352211e116101f75780636352211e146105e857806370a0823114610608578063715018a61461062857806373448c461461063d57600080fd5b80634a99950b1461058f5780634f6ccce7146105af5780635c975abb146105cf57600080fd5b80633f4ba83a1161024e5780633f4ba83a1461053a57806342842e0e1461054f57806342966c681461056f57600080fd5b80632fffbf26146104e757806330176e13146104fa57806336568abe1461051a57600080fd5b80631c7e78f3116102d65780632e1a7d4d116102b05780632e1a7d4d146104875780632f2ff15d146104a75780632f745c59146104c757600080fd5b80631c7e78f31461041757806323b872dd14610437578063248a9ca31461045757600080fd5b8063095ea7b311610307578063095ea7b3146103bd5780630e094137146103df57806318160ddd1461040257600080fd5b806301ffc9a71461032e57806306fdde0314610363578063081812fc14610385575b600080fd5b34801561033a57600080fd5b5061034e6103493660046145c1565b610a06565b60405190151581526020015b60405180910390f35b34801561036f57600080fd5b50610378610a17565b60405161035a91906149a7565b34801561039157600080fd5b506103a56103a0366004614564565b610aa9565b6040516001600160a01b03909116815260200161035a565b3480156103c957600080fd5b506103dd6103d836600461444f565b610b43565b005b3480156103eb57600080fd5b506103f4610c59565b60405190815260200161035a565b34801561040e57600080fd5b5060fd546103f4565b34801561042357600080fd5b506103dd610432366004614564565b610c90565b34801561044357600080fd5b506103dd61045236600461421b565b610d52565b34801561046357600080fd5b506103f4610472366004614564565b60009081526065602052604090206001015490565b34801561049357600080fd5b506103dd6104a2366004614564565b610dce565b3480156104b357600080fd5b506103dd6104c236600461457c565b610fab565b3480156104d357600080fd5b506103f46104e236600461444f565b610fcd565b6103dd6104f53660046142d8565b611063565b34801561050657600080fd5b506103dd6105153660046145f9565b611299565b34801561052657600080fd5b506103dd61053536600461457c565b61132e565b34801561054657600080fd5b506103dd611350565b34801561055b57600080fd5b506103dd61056a36600461421b565b6113f8565b34801561057b57600080fd5b506103dd61058a366004614564565b611413565b34801561059b57600080fd5b506103dd6105aa36600461447a565b61149a565b3480156105bb57600080fd5b506103f46105ca366004614564565b6115af565b3480156105db57600080fd5b5061015f5460ff1661034e565b3480156105f457600080fd5b506103a5610603366004614564565b611650565b34801561061457600080fd5b506103f46106233660046141c7565b6116c7565b34801561063457600080fd5b506103dd61174e565b34801561064957600080fd5b506103f46117f5565b34801561065e57600080fd5b506103dd611801565b34801561067357600080fd5b5061025b546001600160a01b03166103a5565b34801561069257600080fd5b506103a56106a13660046145a0565b6118a5565b3480156106b257600080fd5b5061034e6106c136600461457c565b60009182526065602090815260408084206001600160a01b0393909316845291905290205460ff1690565b3480156106f857600080fd5b506103786118c4565b34801561070d57600080fd5b506103f47f8a9d57248f1015d5cac20111fe2512477434cf493627e5e959ca751e593d807981565b34801561074157600080fd5b506103f4600081565b34801561075657600080fd5b506103dd61076536600461441e565b6118d3565b34801561077657600080fd5b506103dd61078536600461462c565b611998565b34801561079657600080fd5b506103dd6107a536600461425b565b611abc565b3480156107b657600080fd5b506107ca6107c5366004614564565b611b38565b60405161035a9190614917565b3480156107e357600080fd5b506107f76107f2366004614564565b611b83565b60405161035a919061496f565b34801561081057600080fd5b506103f461081f366004614564565b60009081526102c1602052604090205490565b34801561083e57600080fd5b5061037861084d366004614564565b611cd0565b34801561085e57600080fd5b506103f461086d366004614564565b611cdb565b34801561087e57600080fd5b506103f47f9f2df0fed2c77648de5860a4cc508cd0818c85b8b8a1ab4ceeef8d981c8956a681565b3480156108b257600080fd5b506103dd6108c136600461457c565b611cf2565b3480156108d257600080fd5b506103dd6108e1366004614564565b611cfc565b3480156108f257600080fd5b506102c4546103f4565b34801561090857600080fd5b506103dd6109173660046144d1565b611da4565b34801561092857600080fd5b506103f47f65d7a28e3265b37a6474929f336521b332c1681b933f6cb9f3376673440d862a81565b34801561095c57600080fd5b5061034e61096b3660046141e3565b6001600160a01b03918216600090815260ce6020908152604080832093909416825291909152205460ff1690565b3480156109a557600080fd5b506109b96109b4366004614564565b611df2565b60405161035a91906148ca565b3480156109d257600080fd5b506103dd6109e13660046141c7565b611f44565b3480156109f257600080fd5b50610378610a01366004614564565b612062565b6000610a1182612105565b92915050565b606060c98054610a2690614b3a565b80601f0160208091040260200160405190810160405280929190818152602001828054610a5290614b3a565b8015610a9f5780601f10610a7457610100808354040283529160200191610a9f565b820191906000526020600020905b815481529060010190602001808311610a8257829003601f168201915b5050505050905090565b600081815260cb60205260408120546001600160a01b0316610b275760405162461bcd60e51b815260206004820152602c60248201527f4552433732313a20617070726f76656420717565727920666f72206e6f6e657860448201526b34b9ba32b73a103a37b5b2b760a11b60648201526084015b60405180910390fd5b50600090815260cd60205260409020546001600160a01b031690565b6000610b4e82611650565b9050806001600160a01b0316836001600160a01b03161415610bbc5760405162461bcd60e51b815260206004820152602160248201527f4552433732313a20617070726f76616c20746f2063757272656e74206f776e656044820152603960f91b6064820152608401610b1e565b336001600160a01b0382161480610bd85750610bd8813361096b565b610c4a5760405162461bcd60e51b815260206004820152603860248201527f4552433732313a20617070726f76652063616c6c6572206973206e6f74206f7760448201527f6e6572206e6f7220617070726f76656420666f7220616c6c00000000000000006064820152608401610b1e565b610c548383612137565b505050565b6000610c656101f55490565b60011415610c7a57506101f55490565b905090565b6001610c866101f55490565b610c759190614ae0565b33610c9a82611650565b6001600160a01b031614610cfc5760405162461bcd60e51b815260206004820152602360248201527f43616c6c6572206d75737420626520746865206f776e6572206f66207468652060448201526213919560ea1b6064820152608401610b1e565b610d05816121a5565b60008181526102c060205260409081902090517f544b1d1249133c50ce89743ed1ca34a815bd50d42b71e6d331a1ac560013a8ec91610d47913391859161480b565b60405180910390a150565b610d5d335b826121d3565b610dc35760405162461bcd60e51b815260206004820152603160248201527f4552433732313a207472616e736665722063616c6c6572206973206e6f74206f6044820152701ddb995c881b9bdc88185c1c1c9bdd9959607a1b6064820152608401610b1e565b610c548383836122ca565b61025b546001600160a01b03163314610e295760405162461bcd60e51b815260206004820181905260248201527f4f776e61626c653a2063616c6c6572206973206e6f7420746865206f776e65726044820152606401610b1e565b600081118015610e3c57506102c3548111155b610ebe5760405162461bcd60e51b815260206004820152604760248201527f576974686472617720616d6f756e742073686f756c642062652067726561746560448201527f72207468656e203020616e64206c657373207468656e20636f6e74726163742060648201526662616c616e636560c81b608482015260a401610b1e565b806102c36000828254610ed19190614ae0565b9091555050604051600090339083908381818185875af1925050503d8060008114610f18576040519150601f19603f3d011682016040523d82523d6000602084013e610f1d565b606091505b5050905080610f6e5760405162461bcd60e51b815260206004820152601060248201527f5472616e73666572206661696c65642e000000000000000000000000000000006044820152606401610b1e565b60408051338152602081018490527f3c897fa64265e543b9d36df079688f87240185d1bf1a937e4c45a56e11678736910160405180910390a15050565b610fb58282612475565b6000828152609760205260409020610c54908261249b565b6000610fd8836116c7565b821061103a5760405162461bcd60e51b815260206004820152602b60248201527f455243373231456e756d657261626c653a206f776e657220696e646578206f7560448201526a74206f6620626f756e647360a81b6064820152608401610b1e565b506001600160a01b0391909116600090815260fb60209081526040808320938352929052205490565b60026102295414156110b75760405162461bcd60e51b815260206004820152601f60248201527f5265656e7472616e637947756172643a207265656e7472616e742063616c6c006044820152606401610b1e565b6002610229556001600160a01b0385166111135760405162461bcd60e51b815260206004820152601160248201527f746f2063616e277420626520656d7074790000000000000000000000000000006044820152606401610b1e565b6040805160008152602081018083528151902091611133918691016146d2565b6040516020818303038152906040528051906020012014156111975760405162461bcd60e51b815260206004820152601a60248201527f65787465726e616c5552492063616e277420626520656d7074790000000000006044820152606401610b1e565b6111a0856124b0565b60006111aa610c59565b8551909150156111be576111be81866124d2565b60408051600081526020810180835281519020916111de918691016146d2565b6040516020818303038152906040528051906020012014611203576112038184612788565b6040805160008152602081018083528151902091611223918591016146d2565b60405160208183030381529060405280519060200120146112485761124881836127a8565b6112506127c8565b7fe7cd4ce7f2a465edc730269a1305e8a48bad821e8fb7e152ec413829c01a53c4868286604051611283939291906147da565b60405180910390a1505060016102295550505050565b6112a46000336106c1565b6113165760405162461bcd60e51b815260206004820152603460248201527f73657442617365546f6b656e5552493a206d75737420686176652041444d494e60448201527f20726f6c6520746f206368616e676520746869730000000000000000000000006064820152608401610b1e565b805161132a906101f6906020840190614081565b5050565b6113388282612869565b6000828152609760205260409020610c5490826128f1565b61137a7f65d7a28e3265b37a6474929f336521b332c1681b933f6cb9f3376673440d862a336106c1565b6113ee576040805162461bcd60e51b81526020600482015260248101919091527f4552433732315072657365744d696e7465725061757365724175746f49643a2060448201527f6d75737420686176652070617573657220726f6c6520746f20756e70617573656064820152608401610b1e565b6113f6612906565b565b610c5483838360405180602001604052806000815250611abc565b61141c33610d57565b61148e5760405162461bcd60e51b815260206004820152603060248201527f4552433732314275726e61626c653a2063616c6c6572206973206e6f74206f7760448201527f6e6572206e6f7220617070726f766564000000000000000000000000000000006064820152608401610b1e565b611497816129a4565b50565b6114c47f8a9d57248f1015d5cac20111fe2512477434cf493627e5e959ca751e593d8079336106c1565b6115365760405162461bcd60e51b815260206004820152603460248201527f6d696e74576974685552493a206d757374206861766520504f4c594e4554574f60448201527f524b5f524f4c4520726f6c6520746f206d696e740000000000000000000000006064820152608401610b1e565b600082815260cb60205260409020546001600160a01b03161561159b5760405162461bcd60e51b815260206004820152601660248201527f746f6b656e20696420616c7265616479206578697374000000000000000000006044820152606401610b1e565b6115a583836129ad565b610c5482826129b7565b60006115ba60fd5490565b821061161d5760405162461bcd60e51b815260206004820152602c60248201527f455243373231456e756d657261626c653a20676c6f62616c20696e646578206f60448201526b7574206f6620626f756e647360a01b6064820152608401610b1e565b60fd828154811061163e57634e487b7160e01b600052603260045260246000fd5b90600052602060002001549050919050565b600081815260cb60205260408120546001600160a01b031680610a115760405162461bcd60e51b815260206004820152602960248201527f4552433732313a206f776e657220717565727920666f72206e6f6e657869737460448201526832b73a103a37b5b2b760b91b6064820152608401610b1e565b60006001600160a01b0382166117325760405162461bcd60e51b815260206004820152602a60248201527f4552433732313a2062616c616e636520717565727920666f7220746865207a65604482015269726f206164647265737360b01b6064820152608401610b1e565b506001600160a01b0316600090815260cc602052604090205490565b61025b546001600160a01b031633146117a95760405162461bcd60e51b815260206004820181905260248201527f4f776e61626c653a2063616c6c6572206973206e6f7420746865206f776e65726044820152606401610b1e565b61025b546040516000916001600160a01b0316907f8be0079c531659141344cd1fd0a4f28419497f9722a3daafe3b4186f6b6457e0908390a361025b80546001600160a01b0319169055565b6000610c756101f55490565b61182b7f65d7a28e3265b37a6474929f336521b332c1681b933f6cb9f3376673440d862a336106c1565b61189d5760405162461bcd60e51b815260206004820152603e60248201527f4552433732315072657365744d696e7465725061757365724175746f49643a2060448201527f6d75737420686176652070617573657220726f6c6520746f20706175736500006064820152608401610b1e565b6113f66129c1565b60008281526097602052604081206118bd9083612a4b565b9392505050565b606060ca8054610a2690614b3a565b6001600160a01b03821633141561192c5760405162461bcd60e51b815260206004820152601960248201527f4552433732313a20617070726f766520746f2063616c6c6572000000000000006044820152606401610b1e565b33600081815260ce602090815260408083206001600160a01b03871680855290835292819020805460ff191686151590811790915590519081529192917f17307eab39ab6107e8899845ad3d59bd9653f200f220920489ca2b5937696c31910160405180910390a35050565b600054610100900460ff16806119b1575060005460ff16155b6119cd5760405162461bcd60e51b8152600401610b1e906149ba565b600054610100900460ff161580156119ef576000805461ffff19166101011790555b6119f7612a57565b6119ff612a57565b611a07612a57565b611a0f612a57565b611a17612a57565b611a1f612a57565b611a27612ac2565b611a2f612a57565b611a37612a57565b611a418484612b38565b611a4a82612bcd565b611a52612ce6565b611a7b7fee40ffc1ec8332b0837bd418921ada6378fb242be0d51d747626add0fc93894b612d95565b611aa47fe42093a63818e0c931c15fda9036d0d8995a638e7acfabc8355a4789766e8de9612d95565b8015611ab6576000805461ff00191690555b50505050565b611ac633836121d3565b611b2c5760405162461bcd60e51b815260206004820152603160248201527f4552433732313a207472616e736665722063616c6c6572206973206e6f74206f6044820152701ddb995c881b9bdc88185c1c1c9bdd9959607a1b6064820152608401610b1e565b611ab684848484612e15565b60405162461bcd60e51b815260206004820152601360248201527f676574526f79616c74696573206661696c6564000000000000000000000000006044820152606090606401610b1e565b60008181526102bf60209081526040808320805482518185028101850190935280835260609493849084015b82821015611bf7576000848152602090819020604080518082019091526002850290910180546001600160a01b03168252600190810154828401529083529092019101611baf565b5050505090506000815167ffffffffffffffff811115611c2757634e487b7160e01b600052604160045260246000fd5b604051908082528060200260200182016040528015611c50578160200160208202803683370190505b50905060005b8251811015611cc857828181518110611c7f57634e487b7160e01b600052603260045260246000fd5b602002602001015160200151828281518110611cab57634e487b7160e01b600052603260045260246000fd5b602090810291909101015280611cc081614b75565b915050611c56565b509392505050565b6060610a1182612e93565b6000818152609760205260408120610a1190613012565b611338828261301c565b611d076000336106c1565b611d685760405162461bcd60e51b815260206004820152602c60248201527f43616c6c6572206d75737420686176652061646d696e20726f6c6520746f207360448201526b6574206d696e74206665657360a01b6064820152608401610b1e565b6102c481905560408051338152602081018390527f7801094d3234fa70b910ee2d953591f831bb371292f4f1d114a9111f2391c8129101610d47565b60005b815181101561132a57611de0828281518110611dd357634e487b7160e01b600052603260045260246000fd5b6020026020010151611413565b80611dea81614b75565b915050611da7565b60008181526102bf60209081526040808320805482518185028101850190935280835260609493849084015b82821015611e66576000848152602090819020604080518082019091526002850290910180546001600160a01b03168252600190810154828401529083529092019101611e1e565b5050505090506000815167ffffffffffffffff811115611e9657634e487b7160e01b600052604160045260246000fd5b604051908082528060200260200182016040528015611ebf578160200160208202803683370190505b50905060005b8251811015611cc857828181518110611eee57634e487b7160e01b600052603260045260246000fd5b602002602001015160000151828281518110611f1a57634e487b7160e01b600052603260045260246000fd5b6001600160a01b039092166020928302919091019091015280611f3c81614b75565b915050611ec5565b61025b546001600160a01b03163314611f9f5760405162461bcd60e51b815260206004820181905260248201527f4f776e61626c653a2063616c6c6572206973206e6f7420746865206f776e65726044820152606401610b1e565b6001600160a01b0381166120045760405162461bcd60e51b815260206004820152602660248201527f4f776e61626c653a206e6577206f776e657220697320746865207a65726f206160448201526564647265737360d01b6064820152608401610b1e565b61025b546040516001600160a01b038084169216907f8be0079c531659141344cd1fd0a4f28419497f9722a3daafe3b4186f6b6457e090600090a361025b80546001600160a01b0319166001600160a01b0392909216919091179055565b60008181526102c26020526040902080546060919061208090614b3a565b80601f01602080910402602001604051908101604052809291908181526020018280546120ac90614b3a565b80156120f95780601f106120ce576101008083540402835291602001916120f9565b820191906000526020600020905b8154815290600101906020018083116120dc57829003601f168201915b50505050509050919050565b600061211082613042565b80610a115750506001600160e01b031916600090815261028d602052604090205460ff1690565b600081815260cd6020526040902080546001600160a01b0319166001600160a01b038416908117909155819061216c82611650565b6001600160a01b03167f8c5be1e5ebec7d5bd14f71427d1e84f3dd0314c0f7b2291e5b200ac8c7c3b92560405160405180910390a45050565b60008181526102c160205260409020546121c0906001614a95565b60009182526102c1602052604090912055565b600081815260cb60205260408120546001600160a01b031661224c5760405162461bcd60e51b815260206004820152602c60248201527f4552433732313a206f70657261746f7220717565727920666f72206e6f6e657860448201526b34b9ba32b73a103a37b5b2b760a11b6064820152608401610b1e565b600061225783611650565b9050806001600160a01b0316846001600160a01b031614806122925750836001600160a01b031661228784610aa9565b6001600160a01b0316145b806122c257506001600160a01b03808216600090815260ce602090815260408083209388168352929052205460ff165b949350505050565b826001600160a01b03166122dd82611650565b6001600160a01b0316146123455760405162461bcd60e51b815260206004820152602960248201527f4552433732313a207472616e73666572206f6620746f6b656e2074686174206960448201526839903737ba1037bbb760b91b6064820152608401610b1e565b6001600160a01b0382166123a75760405162461bcd60e51b8152602060048201526024808201527f4552433732313a207472616e7366657220746f20746865207a65726f206164646044820152637265737360e01b6064820152608401610b1e565b6123b283838361304d565b6123bd600082612137565b6001600160a01b038316600090815260cc602052604081208054600192906123e6908490614ae0565b90915550506001600160a01b038216600090815260cc60205260408120805460019290612414908490614a95565b9091555050600081815260cb602052604080822080546001600160a01b0319166001600160a01b0386811691821790925591518493918716917fddf252ad1be2c89b69c2b068fc378daa952ba7f163c4a11628f55a4df523b3ef91a4505050565b6000828152606560205260409020600101546124918133613058565b610c5483836130d8565b60006118bd836001600160a01b03841661317a565b6124c3816124be6101f55490565b6131c9565b6114976101f580546001019055565b600082815260cb60205260409020546001600160a01b031661254b5760405162461bcd60e51b815260206004820152602c60248201527f4552433732313a20617070726f76656420717565727920666f72206e6f6e657860448201526b34b9ba32b73a103a37b5b2b760a11b6064820152608401610b1e565b60005b8151811015610c545760006001600160a01b031682828151811061258257634e487b7160e01b600052603260045260246000fd5b6020026020010151600001516001600160a01b031614156125e55760405162461bcd60e51b815260206004820152601b60248201527f526563697069656e742073686f756c642062652070726573656e7400000000006044820152606401610b1e565b600082828151811061260757634e487b7160e01b600052603260045260246000fd5b6020026020010151602001511161266b5760405162461bcd60e51b815260206004820152602260248201527f526f79616c746965732076616c75652073686f756c6420626520706f73697469604482015261766560f01b6064820152608401610b1e565b61138882828151811061268e57634e487b7160e01b600052603260045260246000fd5b60200260200101516020015111156126fc5760405162461bcd60e51b815260206004820152602b60248201527f526f79616c746965732076616c75652073686f756c64206e6f74206265206d6f60448201526a7265207468616e2035302560a81b6064820152608401610b1e565b60008381526102bf60205260409020825183908390811061272d57634e487b7160e01b600052603260045260246000fd5b602090810291909101810151825460018082018555600094855293839020825160029092020180546001600160a01b0319166001600160a01b039092169190911781559101519101558061278081614b75565b91505061254e565b60008281526102c2602090815260409091208251610c5492840190614081565b60008281526102c0602090815260409091208251610c5492840190614081565b6102c45415612849576102c45434146128495760405162461bcd60e51b815260206004820152603260248201527f57726f6e6720666565732076616c75652073656e7420746f2047686f73744d6160448201527f726b657420666f72206d696e74206665657300000000000000000000000000006064820152608401610b1e565b34156113f657346102c360008282546128629190614a95565b9091555050565b6001600160a01b03811633146128e75760405162461bcd60e51b815260206004820152602f60248201527f416363657373436f6e74726f6c3a2063616e206f6e6c792072656e6f756e636560448201527f20726f6c657320666f722073656c6600000000000000000000000000000000006064820152608401610b1e565b61132a8282613317565b60006118bd836001600160a01b03841661339a565b61015f5460ff166129595760405162461bcd60e51b815260206004820152601460248201527f5061757361626c653a206e6f74207061757365640000000000000000000000006044820152606401610b1e565b61015f805460ff191690557f5db9ee0a495bf2e6ff9c91a7834c1ba4fdd244a5e8aa4e537bd38aeae4b073aa335b6040516001600160a01b03909116815260200160405180910390a1565b611497816134b1565b61132a82826134f3565b61132a828261350d565b61015f5460ff1615612a155760405162461bcd60e51b815260206004820152601060248201527f5061757361626c653a20706175736564000000000000000000000000000000006044820152606401610b1e565b61015f805460ff191660011790557f62e78cea01bee320cd4e420270b5ea74000d11b0c9f74754ebdbfc544b05a2586129873390565b60006118bd83836135b7565b600054610100900460ff1680612a70575060005460ff16155b612a8c5760405162461bcd60e51b8152600401610b1e906149ba565b600054610100900460ff16158015612aae576000805461ffff19166101011790555b8015611497576000805461ff001916905550565b600054610100900460ff1680612adb575060005460ff16155b612af75760405162461bcd60e51b8152600401610b1e906149ba565b600054610100900460ff16158015612b19576000805461ffff19166101011790555b61015f805460ff191690558015611497576000805461ff001916905550565b600054610100900460ff1680612b51575060005460ff16155b612b6d5760405162461bcd60e51b8152600401610b1e906149ba565b600054610100900460ff16158015612b8f576000805461ffff19166101011790555b8251612ba29060c9906020860190614081565b508151612bb69060ca906020850190614081565b508015610c54576000805461ff0019169055505050565b600054610100900460ff1680612be6575060005460ff16155b612c025760405162461bcd60e51b8152600401610b1e906149ba565b600054610100900460ff16158015612c24576000805461ffff19166101011790555b8151612c38906101f6906020850190614081565b50612c4460003361364b565b612c6e7f9f2df0fed2c77648de5860a4cc508cd0818c85b8b8a1ab4ceeef8d981c8956a63361364b565b612c987f65d7a28e3265b37a6474929f336521b332c1681b933f6cb9f3376673440d862a3361364b565b612cc27f8a9d57248f1015d5cac20111fe2512477434cf493627e5e959ca751e593d80793361364b565b612cd16101f580546001019055565b801561132a576000805461ff00191690555050565b600054610100900460ff1680612cff575060005460ff16155b612d1b5760405162461bcd60e51b8152600401610b1e906149ba565b600054610100900460ff16158015612d3d576000805461ffff19166101011790555b61025b80546001600160a01b0319163390811790915560405181906000907f8be0079c531659141344cd1fd0a4f28419497f9722a3daafe3b4186f6b6457e0908290a3508015611497576000805461ff001916905550565b6001600160e01b03198082161415612def5760405162461bcd60e51b815260206004820152601c60248201527f4552433136353a20696e76616c696420696e74657266616365206964000000006044820152606401610b1e565b6001600160e01b031916600090815261028d60205260409020805460ff19166001179055565b612e208484846122ca565b612e2c84848484613655565b611ab65760405162461bcd60e51b815260206004820152603260248201527f4552433732313a207472616e7366657220746f206e6f6e20455243373231526560448201527131b2b4bb32b91034b6b83632b6b2b73a32b960711b6064820152608401610b1e565b600081815260cb60205260409020546060906001600160a01b0316612f205760405162461bcd60e51b815260206004820152603160248201527f45524337323155524953746f726167653a2055524920717565727920666f722060448201527f6e6f6e6578697374656e7420746f6b656e0000000000000000000000000000006064820152608401610b1e565b60008281526101c3602052604081208054612f3a90614b3a565b80601f0160208091040260200160405190810160405280929190818152602001828054612f6690614b3a565b8015612fb35780601f10612f8857610100808354040283529160200191612fb3565b820191906000526020600020905b815481529060010190602001808311612f9657829003601f168201915b505050505090506000612fc46137ad565b9050805160001415612fd7575092915050565b815115613009578082604051602001612ff19291906146ee565b60405160208183030381529060405292505050919050565b6122c2846137bd565b6000610a11825490565b6000828152606560205260409020600101546130388133613058565b610c548383613317565b6000610a11826138a5565b610c548383836138ca565b60008281526065602090815260408083206001600160a01b038516845290915290205460ff1661132a57613096816001600160a01b0316601461393d565b6130a183602061393d565b6040516020016130b292919061471d565b60408051601f198184030181529082905262461bcd60e51b8252610b1e916004016149a7565b60008281526065602090815260408083206001600160a01b038516845290915290205460ff1661132a5760008281526065602090815260408083206001600160a01b03851684529091529020805460ff191660011790556131363390565b6001600160a01b0316816001600160a01b0316837f2f8788117e7eff1d82e926ec794901d17c78024a50270940304540a733656f0d60405160405180910390a45050565b60008181526001830160205260408120546131c157508154600181810184556000848152602080822090930184905584548482528286019093526040902091909155610a11565b506000610a11565b6001600160a01b03821661321f5760405162461bcd60e51b815260206004820181905260248201527f4552433732313a206d696e7420746f20746865207a65726f20616464726573736044820152606401610b1e565b600081815260cb60205260409020546001600160a01b0316156132845760405162461bcd60e51b815260206004820152601c60248201527f4552433732313a20746f6b656e20616c7265616479206d696e746564000000006044820152606401610b1e565b6132906000838361304d565b6001600160a01b038216600090815260cc602052604081208054600192906132b9908490614a95565b9091555050600081815260cb602052604080822080546001600160a01b0319166001600160a01b03861690811790915590518392907fddf252ad1be2c89b69c2b068fc378daa952ba7f163c4a11628f55a4df523b3ef908290a45050565b60008281526065602090815260408083206001600160a01b038516845290915290205460ff161561132a5760008281526065602090815260408083206001600160a01b0385168085529252808320805460ff1916905551339285917ff6391f5c32d9c69d2a47ea670b442974b53935d1edc7fd64eb21e047a839171b9190a45050565b600081815260018301602052604081205480156134a75760006133be600183614ae0565b85549091506000906133d290600190614ae0565b905060008660000182815481106133f957634e487b7160e01b600052603260045260246000fd5b906000526020600020015490508087600001848154811061342a57634e487b7160e01b600052603260045260246000fd5b60009182526020808320909101929092558281526001890190915260409020849055865487908061346b57634e487b7160e01b600052603160045260246000fd5b60019003818190600052602060002001600090559055866001016000878152602001908152602001600020600090556001945050505050610a11565b6000915050610a11565b6134ba81613b2c565b60008181526101c36020526040902080546134d490614b3a565b1590506114975760008181526101c36020526040812061149791614105565b61132a828260405180602001604052806000815250613bd3565b600082815260cb60205260409020546001600160a01b03166135975760405162461bcd60e51b815260206004820152602e60248201527f45524337323155524953746f726167653a2055524920736574206f66206e6f6e60448201527f6578697374656e7420746f6b656e0000000000000000000000000000000000006064820152608401610b1e565b60008281526101c3602090815260409091208251610c5492840190614081565b815460009082106136155760405162461bcd60e51b815260206004820152602260248201527f456e756d657261626c655365743a20696e646578206f7574206f6620626f756e604482015261647360f01b6064820152608401610b1e565b82600001828154811061363857634e487b7160e01b600052603260045260246000fd5b9060005260206000200154905092915050565b610fb58282613c51565b60006001600160a01b0384163b156137a257604051630a85bd0160e11b81526001600160a01b0385169063150b7a029061369990339089908890889060040161479e565b602060405180830381600087803b1580156136b357600080fd5b505af19250505080156136e3575060408051601f3d908101601f191682019092526136e0918101906145dd565b60015b613788573d808015613711576040519150601f19603f3d011682016040523d82523d6000602084013e613716565b606091505b5080516137805760405162461bcd60e51b815260206004820152603260248201527f4552433732313a207472616e7366657220746f206e6f6e20455243373231526560448201527131b2b4bb32b91034b6b83632b6b2b73a32b960711b6064820152608401610b1e565b805181602001fd5b6001600160e01b031916630a85bd0160e11b1490506122c2565b506001949350505050565b60606101f68054610a2690614b3a565b600081815260cb60205260409020546060906001600160a01b031661384a5760405162461bcd60e51b815260206004820152602f60248201527f4552433732314d657461646174613a2055524920717565727920666f72206e6f60448201527f6e6578697374656e7420746f6b656e00000000000000000000000000000000006064820152608401610b1e565b60006138546137ad565b9050600081511161387457604051806020016040528060008152506118bd565b8061387e84613c5b565b60405160200161388f9291906146ee565b6040516020818303038152906040529392505050565b60006001600160e01b0319821663780e9d6360e01b1480610a115750610a1182613d75565b6138d5838383613db5565b61015f5460ff1615610c545760405162461bcd60e51b815260206004820152602b60248201527f4552433732315061757361626c653a20746f6b656e207472616e73666572207760448201526a1a1a5b19481c185d5cd95960aa1b6064820152608401610b1e565b6060600061394c836002614ac1565b613957906002614a95565b67ffffffffffffffff81111561397d57634e487b7160e01b600052604160045260246000fd5b6040519080825280601f01601f1916602001820160405280156139a7576020820181803683370190505b509050600360fc1b816000815181106139d057634e487b7160e01b600052603260045260246000fd5b60200101906001600160f81b031916908160001a905350600f60fb1b81600181518110613a0d57634e487b7160e01b600052603260045260246000fd5b60200101906001600160f81b031916908160001a9053506000613a31846002614ac1565b613a3c906001614a95565b90505b6001811115613add577f303132333435363738396162636465660000000000000000000000000000000085600f1660108110613a8b57634e487b7160e01b600052603260045260246000fd5b1a60f81b828281518110613aaf57634e487b7160e01b600052603260045260246000fd5b60200101906001600160f81b031916908160001a90535060049490941c93613ad681614b23565b9050613a3f565b5083156118bd5760405162461bcd60e51b815260206004820181905260248201527f537472696e67733a20686578206c656e67746820696e73756666696369656e746044820152606401610b1e565b6000613b3782611650565b9050613b458160008461304d565b613b50600083612137565b6001600160a01b038116600090815260cc60205260408120805460019290613b79908490614ae0565b9091555050600082815260cb602052604080822080546001600160a01b0319169055518391906001600160a01b038416907fddf252ad1be2c89b69c2b068fc378daa952ba7f163c4a11628f55a4df523b3ef908390a45050565b613bdd83836131c9565b613bea6000848484613655565b610c545760405162461bcd60e51b815260206004820152603260248201527f4552433732313a207472616e7366657220746f206e6f6e20455243373231526560448201527131b2b4bb32b91034b6b83632b6b2b73a32b960711b6064820152608401610b1e565b61132a82826130d8565b606081613c7f5750506040805180820190915260018152600360fc1b602082015290565b8160005b8115613ca95780613c9381614b75565b9150613ca29050600a83614aad565b9150613c83565b60008167ffffffffffffffff811115613cd257634e487b7160e01b600052604160045260246000fd5b6040519080825280601f01601f191660200182016040528015613cfc576020820181803683370190505b5090505b84156122c257613d11600183614ae0565b9150613d1e600a86614b90565b613d29906030614a95565b60f81b818381518110613d4c57634e487b7160e01b600052603260045260246000fd5b60200101906001600160f81b031916908160001a905350613d6e600a86614aad565b9450613d00565b60006001600160e01b031982166380ac58cd60e01b1480613da657506001600160e01b03198216635b5e139f60e01b145b80610a115750610a1182613e6d565b6001600160a01b038316613e1057613e0b8160fd8054600083815260fe60205260408120829055600182018355919091527f9346ac6dd7de6b96975fec380d4d994c4c12e6a8897544f22915316cc6cca2800155565b613e33565b816001600160a01b0316836001600160a01b031614613e3357613e338382613e92565b6001600160a01b038216613e4a57610c5481613f2f565b826001600160a01b0316826001600160a01b031614610c5457610c548282614008565b60006001600160e01b03198216635a05180f60e01b1480610a115750610a118261404c565b60006001613e9f846116c7565b613ea99190614ae0565b600083815260fc6020526040902054909150808214613efc576001600160a01b038416600090815260fb60209081526040808320858452825280832054848452818420819055835260fc90915290208190555b50600091825260fc602090815260408084208490556001600160a01b03909416835260fb81528383209183525290812055565b60fd54600090613f4190600190614ae0565b600083815260fe602052604081205460fd8054939450909284908110613f7757634e487b7160e01b600052603260045260246000fd5b906000526020600020015490508060fd8381548110613fa657634e487b7160e01b600052603260045260246000fd5b600091825260208083209091019290925582815260fe909152604080822084905585825281205560fd805480613fec57634e487b7160e01b600052603160045260246000fd5b6001900381819060005260206000200160009055905550505050565b6000614013836116c7565b6001600160a01b03909316600090815260fb60209081526040808320868452825280832085905593825260fc9052919091209190915550565b60006001600160e01b03198216637965db0b60e01b1480610a1157506301ffc9a760e01b6001600160e01b0319831614610a11565b82805461408d90614b3a565b90600052602060002090601f0160209004810192826140af57600085556140f5565b82601f106140c857805160ff19168380011785556140f5565b828001600101855582156140f5579182015b828111156140f55782518255916020019190600101906140da565b5061410192915061413b565b5090565b50805461411190614b3a565b6000825580601f10614121575050565b601f01602090049060005260206000209081019061149791905b5b80821115614101576000815560010161413c565b600067ffffffffffffffff83111561416a5761416a614bd0565b61417d601f8401601f1916602001614a40565b905082815283838301111561419157600080fd5b828260208301376000602084830101529392505050565b600082601f8301126141b8578081fd5b6118bd83833560208501614150565b6000602082840312156141d8578081fd5b81356118bd81614be6565b600080604083850312156141f5578081fd5b823561420081614be6565b9150602083013561421081614be6565b809150509250929050565b60008060006060848603121561422f578081fd5b833561423a81614be6565b9250602084013561424a81614be6565b929592945050506040919091013590565b60008060008060808587031215614270578081fd5b843561427b81614be6565b9350602085013561428b81614be6565b925060408501359150606085013567ffffffffffffffff8111156142ad578182fd5b8501601f810187136142bd578182fd5b6142cc87823560208401614150565b91505092959194509250565b600080600080600060a086880312156142ef578081fd5b85356142fa81614be6565b945060208681013567ffffffffffffffff80821115614317578384fd5b818901915089601f83011261432a578384fd5b813561433d61433882614a71565b614a40565b8082825285820191508585018d878560061b880101111561435c578788fd5b8795505b838610156143a9576040818f031215614377578788fd5b61437f614a17565b813561438a81614be6565b8152818801358882015283526001959095019491860191604001614360565b509850505060408901359250808311156143c1578384fd5b6143cd8a848b016141a8565b955060608901359250808311156143e2578384fd5b6143ee8a848b016141a8565b94506080890135925080831115614403578384fd5b5050614411888289016141a8565b9150509295509295909350565b60008060408385031215614430578182fd5b823561443b81614be6565b915060208301358015158114614210578182fd5b60008060408385031215614461578182fd5b823561446c81614be6565b946020939093013593505050565b60008060006060848603121561448e578081fd5b833561449981614be6565b925060208401359150604084013567ffffffffffffffff8111156144bb578182fd5b6144c7868287016141a8565b9150509250925092565b600060208083850312156144e3578182fd5b823567ffffffffffffffff8111156144f9578283fd5b8301601f81018513614509578283fd5b803561451761433882614a71565b80828252848201915084840188868560051b8701011115614536578687fd5b8694505b8385101561455857803583526001949094019391850191850161453a565b50979650505050505050565b600060208284031215614575578081fd5b5035919050565b6000806040838503121561458e578182fd5b82359150602083013561421081614be6565b600080604083850312156145b2578182fd5b50508035926020909101359150565b6000602082840312156145d2578081fd5b81356118bd81614bfb565b6000602082840312156145ee578081fd5b81516118bd81614bfb565b60006020828403121561460a578081fd5b813567ffffffffffffffff811115614620578182fd5b6122c2848285016141a8565b600080600060608486031215614640578081fd5b833567ffffffffffffffff80821115614657578283fd5b614663878388016141a8565b94506020860135915080821115614678578283fd5b614684878388016141a8565b93506040860135915080821115614699578283fd5b506144c7868287016141a8565b600081518084526146be816020860160208601614af7565b601f01601f19169290920160200192915050565b600082516146e4818460208701614af7565b9190910192915050565b60008351614700818460208801614af7565b835190830190614714818360208801614af7565b01949350505050565b7f416363657373436f6e74726f6c3a206163636f756e7420000000000000000000815260008351614755816017850160208801614af7565b7f206973206d697373696e6720726f6c65200000000000000000000000000000006017918401918201528351614792816028840160208801614af7565b01602801949350505050565b60006001600160a01b038087168352808616602084015250836040830152608060608301526147d060808301846146a6565b9695505050505050565b6001600160a01b038416815282602082015260606040820152600061480260608301846146a6565b95945050505050565b6001600160a01b03841681526000602084818401526060604084015281845483600182811c91508083168061484157607f831692505b85831081141561485f57634e487b7160e01b87526022600452602487fd5b606088018390526080880181801561487e576001811461488f576148b9565b60ff198616825287820196506148b9565b60008b815260209020895b868110156148b35781548482015290850190890161489a565b83019750505b50949b9a5050505050505050505050565b6020808252825182820181905260009190848201906040850190845b8181101561490b5783516001600160a01b0316835292840192918401916001016148e6565b50909695505050505050565b602080825282518282018190526000919060409081850190868401855b8281101561496257815180516001600160a01b03168552860151868501529284019290850190600101614934565b5091979650505050505050565b6020808252825182820181905260009190848201906040850190845b8181101561490b5783518352928401929184019160010161498b565b6020815260006118bd60208301846146a6565b6020808252602e908201527f496e697469616c697a61626c653a20636f6e747261637420697320616c72656160408201527f647920696e697469616c697a6564000000000000000000000000000000000000606082015260800190565b6040805190810167ffffffffffffffff81118282101715614a3a57614a3a614bd0565b60405290565b604051601f8201601f1916810167ffffffffffffffff81118282101715614a6957614a69614bd0565b604052919050565b600067ffffffffffffffff821115614a8b57614a8b614bd0565b5060051b60200190565b60008219821115614aa857614aa8614ba4565b500190565b600082614abc57614abc614bba565b500490565b6000816000190483118215151615614adb57614adb614ba4565b500290565b600082821015614af257614af2614ba4565b500390565b60005b83811015614b12578181015183820152602001614afa565b83811115611ab65750506000910152565b600081614b3257614b32614ba4565b506000190190565b600181811c90821680614b4e57607f821691505b60208210811415614b6f57634e487b7160e01b600052602260045260246000fd5b50919050565b6000600019821415614b8957614b89614ba4565b5060010190565b600082614b9f57614b9f614bba565b500690565b634e487b7160e01b600052601160045260246000fd5b634e487b7160e01b600052601260045260246000fd5b634e487b7160e01b600052604160045260246000fd5b6001600160a01b038116811461149757600080fd5b6001600160e01b03198116811461149757600080fdfea2646970667358221220d6134a10dd52c874d9f10622d3c55dfaff9bb66ece2f46c02e6cdcbbab26795f64736f6c63430008040033",
  "linkReferences": {},
  "deployedLinkReferences": {}
}