{
  "_format": "hh-sol-artifact-1",
  "contractName": "TransferProxy",
  "sourceName": "contracts/TransferProxy.sol",
  "abi": [
    {
      "anonymous": false,
      "inputs": [
        {
          "indexed": true,
          "internalType": "address",
          "name": "previousOwner",
          "type": "address"
        },
        {
          "indexed": true,
          "internalType": "address",
          "name": "newOwner",
          "type": "address"
        }
      ],
      "name": "OwnershipTransferred",
      "type": "event"
    },
    {
      "inputs": [],
      "name": "__OperatorRole_init",
      "outputs": [],
      "stateMutability": "nonpayable",
      "type": "function"
    },
    {
      "inputs": [],
      "name": "__TransferProxy_init",
      "outputs": [],
      "stateMutability": "nonpayable",
      "type": "function"
    },
    {
      "inputs": [
        {
          "internalType": "address",
          "name": "operator",
          "type": "address"
        }
      ],
      "name": "addOperator",
      "outputs": [],
      "stateMutability": "nonpayable",
      "type": "function"
    },
    {
      "inputs": [
        {
          "internalType": "contract IERC1155Upgradeable",
          "name": "token",
          "type": "address"
        },
        {
          "internalType": "address",
          "name": "from",
          "type": "address"
        },
        {
          "internalType": "address",
          "name": "to",
          "type": "address"
        },
        {
          "internalType": "uint256",
          "name": "id",
          "type": "uint256"
        },
        {
          "internalType": "uint256",
          "name": "value",
          "type": "uint256"
        },
        {
          "internalType": "bytes",
          "name": "data",
          "type": "bytes"
        }
      ],
      "name": "erc1155safeTransferFrom",
      "outputs": [],
      "stateMutability": "nonpayable",
      "type": "function"
    },
    {
      "inputs": [
        {
          "internalType": "contract IERC721Upgradeable",
          "name": "token",
          "type": "address"
        },
        {
          "internalType": "address",
          "name": "from",
          "type": "address"
        },
        {
          "internalType": "address",
          "name": "to",
          "type": "address"
        },
        {
          "internalType": "uint256",
          "name": "tokenId",
          "type": "uint256"
        }
      ],
      "name": "erc721safeTransferFrom",
      "outputs": [],
      "stateMutability": "nonpayable",
      "type": "function"
    },
    {
      "inputs": [],
      "name": "owner",
      "outputs": [
        {
          "internalType": "address",
          "name": "",
          "type": "address"
        }
      ],
      "stateMutability": "view",
      "type": "function"
    },
    {
      "inputs": [
        {
          "internalType": "address",
          "name": "operator",
          "type": "address"
        }
      ],
      "name": "removeOperator",
      "outputs": [],
      "stateMutability": "nonpayable",
      "type": "function"
    },
    {
      "inputs": [],
      "name": "renounceOwnership",
      "outputs": [],
      "stateMutability": "nonpayable",
      "type": "function"
    },
    {
      "inputs": [
        {
          "internalType": "address",
          "name": "newOwner",
          "type": "address"
        }
      ],
      "name": "transferOwnership",
      "outputs": [],
      "stateMutability": "nonpayable",
      "type": "function"
    }
  ],
  "bytecode": "0x608060405234801561001057600080fd5b50610a8c806100206000396000f3fe608060405234801561001057600080fd5b50600436106100935760003560e01c80639870d7fe116100665780639870d7fe146100d15780639c1c2ee9146100e4578063ac8a584a146100f7578063f2fde38b1461010a578063f709b9061461011d57600080fd5b80632ff26a0a14610098578063495edf86146100a2578063715018a6146100aa5780638da5cb5b146100b2575b600080fd5b6100a0610130565b005b6100a06101f8565b6100a061029e565b603354604080516001600160a01b039092168252519081900360200190f35b6100a06100df3660046108bd565b610342565b6100a06100f23660046108e0565b6103c0565b6100a06101053660046108bd565b6104a1565b6100a06101183660046108bd565b61051c565b6100a061012b366004610999565b610637565b600054610100900460ff1680610149575060005460ff16155b6101b15760405162461bcd60e51b815260206004820152602e60248201527f496e697469616c697a61626c653a20636f6e747261637420697320616c72656160448201526d191e481a5b9a5d1a585b1a5e995960921b60648201526084015b60405180910390fd5b600054610100900460ff161580156101d3576000805461ffff19166101011790555b6101db610717565b6101e36107c8565b80156101f5576000805461ff00191690555b50565b600054610100900460ff1680610211575060005460ff16155b6102745760405162461bcd60e51b815260206004820152602e60248201527f496e697469616c697a61626c653a20636f6e747261637420697320616c72656160448201526d191e481a5b9a5d1a585b1a5e995960921b60648201526084016101a8565b600054610100900460ff16158015610296576000805461ffff19166101011790555b6101e3610130565b6033546001600160a01b031633146102f85760405162461bcd60e51b815260206004820181905260248201527f4f776e61626c653a2063616c6c6572206973206e6f7420746865206f776e657260448201526064016101a8565b6033546040516000916001600160a01b0316907f8be0079c531659141344cd1fd0a4f28419497f9722a3daafe3b4186f6b6457e0908390a3603380546001600160a01b0319169055565b6033546001600160a01b0316331461039c5760405162461bcd60e51b815260206004820181905260248201527f4f776e61626c653a2063616c6c6572206973206e6f7420746865206f776e657260448201526064016101a8565b6001600160a01b03166000908152606560205260409020805460ff19166001179055565b3360009081526065602052604090205460ff166104305760405162461bcd60e51b815260206004820152602860248201527f4f70657261746f72526f6c653a2063616c6c6572206973206e6f74207468652060448201526737b832b930ba37b960c11b60648201526084016101a8565b604051637921219560e11b81526001600160a01b0388169063f242432a90610466908990899089908990899089906004016109e9565b600060405180830381600087803b15801561048057600080fd5b505af1158015610494573d6000803e3d6000fd5b5050505050505050505050565b6033546001600160a01b031633146104fb5760405162461bcd60e51b815260206004820181905260248201527f4f776e61626c653a2063616c6c6572206973206e6f7420746865206f776e657260448201526064016101a8565b6001600160a01b03166000908152606560205260409020805460ff19169055565b6033546001600160a01b031633146105765760405162461bcd60e51b815260206004820181905260248201527f4f776e61626c653a2063616c6c6572206973206e6f7420746865206f776e657260448201526064016101a8565b6001600160a01b0381166105db5760405162461bcd60e51b815260206004820152602660248201527f4f776e61626c653a206e6577206f776e657220697320746865207a65726f206160448201526564647265737360d01b60648201526084016101a8565b6033546040516001600160a01b038084169216907f8be0079c531659141344cd1fd0a4f28419497f9722a3daafe3b4186f6b6457e090600090a3603380546001600160a01b0319166001600160a01b0392909216919091179055565b3360009081526065602052604090205460ff166106a75760405162461bcd60e51b815260206004820152602860248201527f4f70657261746f72526f6c653a2063616c6c6572206973206e6f74207468652060448201526737b832b930ba37b960c11b60648201526084016101a8565b604051632142170760e11b81526001600160a01b0384811660048301528381166024830152604482018390528516906342842e0e90606401600060405180830381600087803b1580156106f957600080fd5b505af115801561070d573d6000803e3d6000fd5b5050505050505050565b600054610100900460ff1680610730575060005460ff16155b6107935760405162461bcd60e51b815260206004820152602e60248201527f496e697469616c697a61626c653a20636f6e747261637420697320616c72656160448201526d191e481a5b9a5d1a585b1a5e995960921b60648201526084016101a8565b600054610100900460ff161580156101e3576000805461ffff191661010117905580156101f5576000805461ff001916905550565b600054610100900460ff16806107e1575060005460ff16155b6108445760405162461bcd60e51b815260206004820152602e60248201527f496e697469616c697a61626c653a20636f6e747261637420697320616c72656160448201526d191e481a5b9a5d1a585b1a5e995960921b60648201526084016101a8565b600054610100900460ff16158015610866576000805461ffff19166101011790555b603380546001600160a01b0319163390811790915560405181906000907f8be0079c531659141344cd1fd0a4f28419497f9722a3daafe3b4186f6b6457e0908290a35080156101f5576000805461ff001916905550565b6000602082840312156108ce578081fd5b81356108d981610a41565b9392505050565b600080600080600080600060c0888a0312156108fa578283fd5b873561090581610a41565b9650602088013561091581610a41565b9550604088013561092581610a41565b9450606088013593506080880135925060a088013567ffffffffffffffff8082111561094f578384fd5b818a0191508a601f830112610962578384fd5b813581811115610970578485fd5b8b6020828501011115610981578485fd5b60208301945080935050505092959891949750929550565b600080600080608085870312156109ae578384fd5b84356109b981610a41565b935060208501356109c981610a41565b925060408501356109d981610a41565b9396929550929360600135925050565b60006001600160a01b03808916835280881660208401525085604083015284606083015260a060808301528260a0830152828460c084013781830160c090810191909152601f909201601f1916010195945050505050565b6001600160a01b03811681146101f557600080fdfea2646970667358221220d156791ac17fc52ebd12d2a41d68c1cbe4b9bb12611997f387e908f2e250fd7664736f6c63430008040033",
  "linkReferences": {},
  "deployedLinkReferences": {}
}