{
  "_format": "hh-sol-artifact-1",
  "contractName": "ExchangeV2",
  "sourceName": "contracts/ExchangeV2.sol",
  "abi": [
    {
      "anonymous": false,
      "inputs": [
        {
          "indexed": true,
          "internalType": "bytes4",
          "name": "assetType",
          "type": "bytes4"
        },
        {
          "indexed": false,
          "internalType": "address",
          "name": "matcher",
          "type": "address"
        }
      ],
      "name": "MatcherChange",
      "type": "event"
    },
    {
      "anonymous": false,
      "inputs": [
        {
          "indexed": false,
          "internalType": "uint256",
          "name": "auctionId",
          "type": "uint256"
        },
        {
          "indexed": false,
          "internalType": "address",
          "name": "nftContractAddress",
          "type": "address"
        },
        {
          "indexed": false,
          "internalType": "uint256",
          "name": "tokenId",
          "type": "uint256"
        },
        {
          "indexed": false,
          "internalType": "address",
          "name": "sender",
          "type": "address"
        },
        {
          "indexed": false,
          "internalType": "uint256",
          "name": "value",
          "type": "uint256"
        }
      ],
      "name": "OrderBid",
      "type": "event"
    },
    {
      "anonymous": false,
      "inputs": [
        {
          "indexed": false,
          "internalType": "uint256",
          "name": "auctionId",
          "type": "uint256"
        },
        {
          "indexed": false,
          "internalType": "address",
          "name": "nftContractAddress",
          "type": "address"
        },
        {
          "indexed": false,
          "internalType": "uint256",
          "name": "tokenId",
          "type": "uint256"
        }
      ],
      "name": "OrderCancelled",
      "type": "event"
    },
    {
      "anonymous": false,
      "inputs": [
        {
          "indexed": false,
          "internalType": "uint256",
          "name": "auctionId",
          "type": "uint256"
        },
        {
          "indexed": false,
          "internalType": "uint256",
          "name": "tokenId",
          "type": "uint256"
        },
        {
          "indexed": false,
          "internalType": "address",
          "name": "nftContractAddress",
          "type": "address"
        },
        {
          "indexed": false,
          "internalType": "uint256",
          "name": "duration",
          "type": "uint256"
        },
        {
          "indexed": false,
          "internalType": "uint256",
          "name": "reservePrice",
          "type": "uint256"
        },
        {
          "indexed": false,
          "internalType": "uint256",
          "name": "endPrice",
          "type": "uint256"
        },
        {
          "indexed": false,
          "internalType": "enum GhostAuction.AuctionTypes",
          "name": "auctionType",
          "type": "uint8"
        },
        {
          "indexed": false,
          "internalType": "uint256",
          "name": "startingAt",
          "type": "uint256"
        },
        {
          "indexed": false,
          "internalType": "uint256",
          "name": "extensionPeriod",
          "type": "uint256"
        }
      ],
      "name": "OrderCreated",
      "type": "event"
    },
    {
      "anonymous": false,
      "inputs": [
        {
          "indexed": false,
          "internalType": "bytes32",
          "name": "leftHash",
          "type": "bytes32"
        },
        {
          "indexed": false,
          "internalType": "bytes32",
          "name": "rightHash",
          "type": "bytes32"
        },
        {
          "indexed": false,
          "internalType": "address",
          "name": "leftMaker",
          "type": "address"
        },
        {
          "indexed": false,
          "internalType": "address",
          "name": "rightMaker",
          "type": "address"
        },
        {
          "indexed": false,
          "internalType": "uint256",
          "name": "newLeftFill",
          "type": "uint256"
        },
        {
          "indexed": false,
          "internalType": "uint256",
          "name": "newRightFill",
          "type": "uint256"
        }
      ],
      "name": "OrderFilled",
      "type": "event"
    },
    {
      "anonymous": false,
      "inputs": [
        {
          "indexed": false,
          "internalType": "uint256",
          "name": "auctionId",
          "type": "uint256"
        },
        {
          "indexed": false,
          "internalType": "address",
          "name": "nftContractAddress",
          "type": "address"
        },
        {
          "indexed": false,
          "internalType": "address",
          "name": "winner",
          "type": "address"
        },
        {
          "indexed": false,
          "internalType": "uint256",
          "name": "amount",
          "type": "uint256"
        }
      ],
      "name": "OrderFilledAuction",
      "type": "event"
    },
    {
      "anonymous": false,
      "inputs": [
        {
          "indexed": true,
          "internalType": "address",
          "name": "previousOwner",
          "type": "address"
        },
        {
          "indexed": true,
          "internalType": "address",
          "name": "newOwner",
          "type": "address"
        }
      ],
      "name": "OwnershipTransferred",
      "type": "event"
    },
    {
      "anonymous": false,
      "inputs": [
        {
          "indexed": false,
          "internalType": "address",
          "name": "account",
          "type": "address"
        }
      ],
      "name": "Paused",
      "type": "event"
    },
    {
      "anonymous": false,
      "inputs": [
        {
          "indexed": true,
          "internalType": "bytes4",
          "name": "assetType",
          "type": "bytes4"
        },
        {
          "indexed": false,
          "internalType": "address",
          "name": "proxy",
          "type": "address"
        }
      ],
      "name": "ProxyChange",
      "type": "event"
    },
    {
      "anonymous": false,
      "inputs": [
        {
          "components": [
            {
              "components": [
                {
                  "internalType": "bytes4",
                  "name": "assetClass",
                  "type": "bytes4"
                },
                {
                  "internalType": "bytes",
                  "name": "data",
                  "type": "bytes"
                }
              ],
              "internalType": "struct LibAsset.AssetType",
              "name": "assetType",
              "type": "tuple"
            },
            {
              "internalType": "uint256",
              "name": "value",
              "type": "uint256"
            }
          ],
          "indexed": false,
          "internalType": "struct LibAsset.Asset",
          "name": "asset",
          "type": "tuple"
        },
        {
          "indexed": false,
          "internalType": "address",
          "name": "from",
          "type": "address"
        },
        {
          "indexed": false,
          "internalType": "address",
          "name": "to",
          "type": "address"
        },
        {
          "indexed": false,
          "internalType": "bytes4",
          "name": "transferDirection",
          "type": "bytes4"
        },
        {
          "indexed": false,
          "internalType": "bytes4",
          "name": "transferType",
          "type": "bytes4"
        }
      ],
      "name": "Transfer",
      "type": "event"
    },
    {
      "anonymous": false,
      "inputs": [
        {
          "indexed": false,
          "internalType": "address",
          "name": "account",
          "type": "address"
        }
      ],
      "name": "Unpaused",
      "type": "event"
    },
    {
      "inputs": [
        {
          "internalType": "contract INftTransferProxy",
          "name": "_transferProxy",
          "type": "address"
        },
        {
          "internalType": "contract IERC20TransferProxy",
          "name": "_erc20TransferProxy",
          "type": "address"
        },
        {
          "internalType": "uint256",
          "name": "newProtocolFee",
          "type": "uint256"
        },
        {
          "internalType": "address",
          "name": "newDefaultFeeReceiver",
          "type": "address"
        },
        {
          "internalType": "address",
          "name": "adminRecoveryAddress",
          "type": "address"
        }
      ],
      "name": "__ExchangeV2_init",
      "outputs": [],
      "stateMutability": "nonpayable",
      "type": "function"
    },
    {
      "inputs": [
        {
          "internalType": "uint256",
          "name": "",
          "type": "uint256"
        }
      ],
      "name": "auctions",
      "outputs": [
        {
          "internalType": "uint256",
          "name": "amount",
          "type": "uint256"
        },
        {
          "internalType": "uint256",
          "name": "duration",
          "type": "uint256"
        },
        {
          "internalType": "uint256",
          "name": "firstBidTime",
          "type": "uint256"
        },
        {
          "internalType": "uint256",
          "name": "reservePrice",
          "type": "uint256"
        },
        {
          "internalType": "address payable",
          "name": "bidder",
          "type": "address"
        },
        {
          "internalType": "address",
          "name": "creator",
          "type": "address"
        },
        {
          "internalType": "address",
          "name": "nftContract",
          "type": "address"
        },
        {
          "internalType": "uint256",
          "name": "tokenId",
          "type": "uint256"
        },
        {
          "internalType": "enum GhostAuction.AuctionTypes",
          "name": "auctionType",
          "type": "uint8"
        },
        {
          "internalType": "uint256",
          "name": "startingAt",
          "type": "uint256"
        },
        {
          "internalType": "uint256",
          "name": "startingPrice",
          "type": "uint256"
        },
        {
          "internalType": "uint256",
          "name": "endingPrice",
          "type": "uint256"
        },
        {
          "internalType": "uint256",
          "name": "extensionPeriod",
          "type": "uint256"
        }
      ],
      "stateMutability": "view",
      "type": "function"
    },
    {
      "inputs": [
        {
          "internalType": "uint256",
          "name": "auctionId",
          "type": "uint256"
        }
      ],
      "name": "cancelAuction",
      "outputs": [],
      "stateMutability": "nonpayable",
      "type": "function"
    },
    {
      "inputs": [
        {
          "internalType": "uint256",
          "name": "tokenId",
          "type": "uint256"
        },
        {
          "internalType": "uint256",
          "name": "duration",
          "type": "uint256"
        },
        {
          "internalType": "uint256",
          "name": "reservePrice",
          "type": "uint256"
        },
        {
          "internalType": "address",
          "name": "nftContractAddress",
          "type": "address"
        },
        {
          "internalType": "enum GhostAuction.AuctionTypes",
          "name": "auctionType",
          "type": "uint8"
        },
        {
          "internalType": "uint256",
          "name": "startingPrice",
          "type": "uint256"
        },
        {
          "internalType": "uint256",
          "name": "endingPrice",
          "type": "uint256"
        },
        {
          "internalType": "uint256",
          "name": "startDate",
          "type": "uint256"
        },
        {
          "internalType": "uint256",
          "name": "extensionPeriod",
          "type": "uint256"
        }
      ],
      "name": "createAuction",
      "outputs": [],
      "stateMutability": "nonpayable",
      "type": "function"
    },
    {
      "inputs": [
        {
          "internalType": "uint256",
          "name": "auctionId",
          "type": "uint256"
        },
        {
          "internalType": "uint256",
          "name": "amount",
          "type": "uint256"
        }
      ],
      "name": "createBid",
      "outputs": [],
      "stateMutability": "payable",
      "type": "function"
    },
    {
      "inputs": [],
      "name": "defaultFeeReceiver",
      "outputs": [
        {
          "internalType": "address",
          "name": "",
          "type": "address"
        }
      ],
      "stateMutability": "view",
      "type": "function"
    },
    {
      "inputs": [
        {
          "internalType": "uint256",
          "name": "auctionId",
          "type": "uint256"
        }
      ],
      "name": "deleteAuctionOnlyAdmin",
      "outputs": [],
      "stateMutability": "nonpayable",
      "type": "function"
    },
    {
      "inputs": [
        {
          "components": [
            {
              "internalType": "address",
              "name": "maker",
              "type": "address"
            },
            {
              "components": [
                {
                  "components": [
                    {
                      "internalType": "bytes4",
                      "name": "assetClass",
                      "type": "bytes4"
                    },
                    {
                      "internalType": "bytes",
                      "name": "data",
                      "type": "bytes"
                    }
                  ],
                  "internalType": "struct LibAsset.AssetType",
                  "name": "assetType",
                  "type": "tuple"
                },
                {
                  "internalType": "uint256",
                  "name": "value",
                  "type": "uint256"
                }
              ],
              "internalType": "struct LibAsset.Asset",
              "name": "makeAsset",
              "type": "tuple"
            },
            {
              "internalType": "address",
              "name": "taker",
              "type": "address"
            },
            {
              "components": [
                {
                  "components": [
                    {
                      "internalType": "bytes4",
                      "name": "assetClass",
                      "type": "bytes4"
                    },
                    {
                      "internalType": "bytes",
                      "name": "data",
                      "type": "bytes"
                    }
                  ],
                  "internalType": "struct LibAsset.AssetType",
                  "name": "assetType",
                  "type": "tuple"
                },
                {
                  "internalType": "uint256",
                  "name": "value",
                  "type": "uint256"
                }
              ],
              "internalType": "struct LibAsset.Asset",
              "name": "takeAsset",
              "type": "tuple"
            },
            {
              "internalType": "uint256",
              "name": "salt",
              "type": "uint256"
            },
            {
              "internalType": "uint256",
              "name": "start",
              "type": "uint256"
            },
            {
              "internalType": "uint256",
              "name": "end",
              "type": "uint256"
            },
            {
              "internalType": "bytes4",
              "name": "dataType",
              "type": "bytes4"
            },
            {
              "internalType": "bytes",
              "name": "data",
              "type": "bytes"
            }
          ],
          "internalType": "struct LibOrder.Order",
          "name": "orderLeft",
          "type": "tuple"
        },
        {
          "components": [
            {
              "internalType": "address",
              "name": "maker",
              "type": "address"
            },
            {
              "components": [
                {
                  "components": [
                    {
                      "internalType": "bytes4",
                      "name": "assetClass",
                      "type": "bytes4"
                    },
                    {
                      "internalType": "bytes",
                      "name": "data",
                      "type": "bytes"
                    }
                  ],
                  "internalType": "struct LibAsset.AssetType",
                  "name": "assetType",
                  "type": "tuple"
                },
                {
                  "internalType": "uint256",
                  "name": "value",
                  "type": "uint256"
                }
              ],
              "internalType": "struct LibAsset.Asset",
              "name": "makeAsset",
              "type": "tuple"
            },
            {
              "internalType": "address",
              "name": "taker",
              "type": "address"
            },
            {
              "components": [
                {
                  "components": [
                    {
                      "internalType": "bytes4",
                      "name": "assetClass",
                      "type": "bytes4"
                    },
                    {
                      "internalType": "bytes",
                      "name": "data",
                      "type": "bytes"
                    }
                  ],
                  "internalType": "struct LibAsset.AssetType",
                  "name": "assetType",
                  "type": "tuple"
                },
                {
                  "internalType": "uint256",
                  "name": "value",
                  "type": "uint256"
                }
              ],
              "internalType": "struct LibAsset.Asset",
              "name": "takeAsset",
              "type": "tuple"
            },
            {
              "internalType": "uint256",
              "name": "salt",
              "type": "uint256"
            },
            {
              "internalType": "uint256",
              "name": "start",
              "type": "uint256"
            },
            {
              "internalType": "uint256",
              "name": "end",
              "type": "uint256"
            },
            {
              "internalType": "bytes4",
              "name": "dataType",
              "type": "bytes4"
            },
            {
              "internalType": "bytes",
              "name": "data",
              "type": "bytes"
            }
          ],
          "internalType": "struct LibOrder.Order",
          "name": "orderRight",
          "type": "tuple"
        },
        {
          "internalType": "uint256",
          "name": "auctionId",
          "type": "uint256"
        }
      ],
      "name": "endAuctionDoTransfer",
      "outputs": [],
      "stateMutability": "payable",
      "type": "function"
    },
    {
      "inputs": [
        {
          "internalType": "address",
          "name": "",
          "type": "address"
        }
      ],
      "name": "feeReceivers",
      "outputs": [
        {
          "internalType": "address",
          "name": "",
          "type": "address"
        }
      ],
      "stateMutability": "view",
      "type": "function"
    },
    {
      "inputs": [
        {
          "internalType": "bytes32",
          "name": "",
          "type": "bytes32"
        }
      ],
      "name": "fills",
      "outputs": [
        {
          "internalType": "uint256",
          "name": "",
          "type": "uint256"
        }
      ],
      "stateMutability": "view",
      "type": "function"
    },
    {
      "inputs": [],
      "name": "getChainId",
      "outputs": [
        {
          "internalType": "uint256",
          "name": "chainId",
          "type": "uint256"
        }
      ],
      "stateMutability": "view",
      "type": "function"
    },
    {
      "inputs": [],
      "name": "getCurrentAuctionId",
      "outputs": [
        {
          "internalType": "uint256",
          "name": "",
          "type": "uint256"
        }
      ],
      "stateMutability": "view",
      "type": "function"
    },
    {
      "inputs": [
        {
          "components": [
            {
              "internalType": "uint256",
              "name": "amount",
              "type": "uint256"
            },
            {
              "internalType": "uint256",
              "name": "duration",
              "type": "uint256"
            },
            {
              "internalType": "uint256",
              "name": "firstBidTime",
              "type": "uint256"
            },
            {
              "internalType": "uint256",
              "name": "reservePrice",
              "type": "uint256"
            },
            {
              "internalType": "address payable",
              "name": "bidder",
              "type": "address"
            },
            {
              "internalType": "address",
              "name": "creator",
              "type": "address"
            },
            {
              "internalType": "address",
              "name": "nftContract",
              "type": "address"
            },
            {
              "internalType": "uint256",
              "name": "tokenId",
              "type": "uint256"
            },
            {
              "internalType": "enum GhostAuction.AuctionTypes",
              "name": "auctionType",
              "type": "uint8"
            },
            {
              "internalType": "uint256",
              "name": "startingAt",
              "type": "uint256"
            },
            {
              "internalType": "uint256",
              "name": "startingPrice",
              "type": "uint256"
            },
            {
              "internalType": "uint256",
              "name": "endingPrice",
              "type": "uint256"
            },
            {
              "internalType": "uint256",
              "name": "extensionPeriod",
              "type": "uint256"
            }
          ],
          "internalType": "struct GhostAuction.Auction",
          "name": "auction",
          "type": "tuple"
        }
      ],
      "name": "getCurrentPrice",
      "outputs": [
        {
          "internalType": "uint256",
          "name": "",
          "type": "uint256"
        }
      ],
      "stateMutability": "view",
      "type": "function"
    },
    {
      "inputs": [
        {
          "internalType": "uint256",
          "name": "auctionId",
          "type": "uint256"
        }
      ],
      "name": "getEndAuctionData",
      "outputs": [
        {
          "components": [
            {
              "internalType": "uint256",
              "name": "auctionId",
              "type": "uint256"
            },
            {
              "internalType": "address",
              "name": "winner",
              "type": "address"
            },
            {
              "internalType": "uint256",
              "name": "amount",
              "type": "uint256"
            },
            {
              "internalType": "address",
              "name": "creator",
              "type": "address"
            }
          ],
          "internalType": "struct GhostAuction.AuctionResult",
          "name": "",
          "type": "tuple"
        }
      ],
      "stateMutability": "view",
      "type": "function"
    },
    {
      "inputs": [
        {
          "internalType": "uint256",
          "name": "tokenId",
          "type": "uint256"
        }
      ],
      "name": "getRoyalties",
      "outputs": [
        {
          "components": [
            {
              "internalType": "address payable",
              "name": "recipient",
              "type": "address"
            },
            {
              "internalType": "uint256",
              "name": "value",
              "type": "uint256"
            }
          ],
          "internalType": "struct GhostMarketRoyalties.Royalty[]",
          "name": "",
          "type": "tuple[]"
        }
      ],
      "stateMutability": "view",
      "type": "function"
    },
    {
      "inputs": [
        {
          "components": [
            {
              "internalType": "address",
              "name": "maker",
              "type": "address"
            },
            {
              "components": [
                {
                  "components": [
                    {
                      "internalType": "bytes4",
                      "name": "assetClass",
                      "type": "bytes4"
                    },
                    {
                      "internalType": "bytes",
                      "name": "data",
                      "type": "bytes"
                    }
                  ],
                  "internalType": "struct LibAsset.AssetType",
                  "name": "assetType",
                  "type": "tuple"
                },
                {
                  "internalType": "uint256",
                  "name": "value",
                  "type": "uint256"
                }
              ],
              "internalType": "struct LibAsset.Asset",
              "name": "makeAsset",
              "type": "tuple"
            },
            {
              "internalType": "address",
              "name": "taker",
              "type": "address"
            },
            {
              "components": [
                {
                  "components": [
                    {
                      "internalType": "bytes4",
                      "name": "assetClass",
                      "type": "bytes4"
                    },
                    {
                      "internalType": "bytes",
                      "name": "data",
                      "type": "bytes"
                    }
                  ],
                  "internalType": "struct LibAsset.AssetType",
                  "name": "assetType",
                  "type": "tuple"
                },
                {
                  "internalType": "uint256",
                  "name": "value",
                  "type": "uint256"
                }
              ],
              "internalType": "struct LibAsset.Asset",
              "name": "takeAsset",
              "type": "tuple"
            },
            {
              "internalType": "uint256",
              "name": "salt",
              "type": "uint256"
            },
            {
              "internalType": "uint256",
              "name": "start",
              "type": "uint256"
            },
            {
              "internalType": "uint256",
              "name": "end",
              "type": "uint256"
            },
            {
              "internalType": "bytes4",
              "name": "dataType",
              "type": "bytes4"
            },
            {
              "internalType": "bytes",
              "name": "data",
              "type": "bytes"
            }
          ],
          "internalType": "struct LibOrder.Order",
          "name": "orderLeft",
          "type": "tuple"
        },
        {
          "internalType": "bytes",
          "name": "signatureLeft",
          "type": "bytes"
        },
        {
          "components": [
            {
              "internalType": "address",
              "name": "maker",
              "type": "address"
            },
            {
              "components": [
                {
                  "components": [
                    {
                      "internalType": "bytes4",
                      "name": "assetClass",
                      "type": "bytes4"
                    },
                    {
                      "internalType": "bytes",
                      "name": "data",
                      "type": "bytes"
                    }
                  ],
                  "internalType": "struct LibAsset.AssetType",
                  "name": "assetType",
                  "type": "tuple"
                },
                {
                  "internalType": "uint256",
                  "name": "value",
                  "type": "uint256"
                }
              ],
              "internalType": "struct LibAsset.Asset",
              "name": "makeAsset",
              "type": "tuple"
            },
            {
              "internalType": "address",
              "name": "taker",
              "type": "address"
            },
            {
              "components": [
                {
                  "components": [
                    {
                      "internalType": "bytes4",
                      "name": "assetClass",
                      "type": "bytes4"
                    },
                    {
                      "internalType": "bytes",
                      "name": "data",
                      "type": "bytes"
                    }
                  ],
                  "internalType": "struct LibAsset.AssetType",
                  "name": "assetType",
                  "type": "tuple"
                },
                {
                  "internalType": "uint256",
                  "name": "value",
                  "type": "uint256"
                }
              ],
              "internalType": "struct LibAsset.Asset",
              "name": "takeAsset",
              "type": "tuple"
            },
            {
              "internalType": "uint256",
              "name": "salt",
              "type": "uint256"
            },
            {
              "internalType": "uint256",
              "name": "start",
              "type": "uint256"
            },
            {
              "internalType": "uint256",
              "name": "end",
              "type": "uint256"
            },
            {
              "internalType": "bytes4",
              "name": "dataType",
              "type": "bytes4"
            },
            {
              "internalType": "bytes",
              "name": "data",
              "type": "bytes"
            }
          ],
          "internalType": "struct LibOrder.Order",
          "name": "orderRight",
          "type": "tuple"
        },
        {
          "internalType": "bytes",
          "name": "signatureRight",
          "type": "bytes"
        }
      ],
      "name": "matchOrders",
      "outputs": [],
      "stateMutability": "payable",
      "type": "function"
    },
    {
      "inputs": [],
      "name": "maxAuctionDuration",
      "outputs": [
        {
          "internalType": "uint256",
          "name": "",
          "type": "uint256"
        }
      ],
      "stateMutability": "view",
      "type": "function"
    },
    {
      "inputs": [],
      "name": "minAuctionDuration",
      "outputs": [
        {
          "internalType": "uint256",
          "name": "",
          "type": "uint256"
        }
      ],
      "stateMutability": "view",
      "type": "function"
    },
    {
      "inputs": [],
      "name": "minBidIncrementPercentAuction",
      "outputs": [
        {
          "internalType": "uint8",
          "name": "",
          "type": "uint8"
        }
      ],
      "stateMutability": "view",
      "type": "function"
    },
    {
      "inputs": [],
      "name": "owner",
      "outputs": [
        {
          "internalType": "address",
          "name": "",
          "type": "address"
        }
      ],
      "stateMutability": "view",
      "type": "function"
    },
    {
      "inputs": [],
      "name": "pauseContract",
      "outputs": [],
      "stateMutability": "nonpayable",
      "type": "function"
    },
    {
      "inputs": [],
      "name": "paused",
      "outputs": [
        {
          "internalType": "bool",
          "name": "",
          "type": "bool"
        }
      ],
      "stateMutability": "view",
      "type": "function"
    },
    {
      "inputs": [],
      "name": "protocolFee",
      "outputs": [
        {
          "internalType": "uint256",
          "name": "",
          "type": "uint256"
        }
      ],
      "stateMutability": "view",
      "type": "function"
    },
    {
      "inputs": [
        {
          "internalType": "uint256",
          "name": "amount",
          "type": "uint256"
        }
      ],
      "name": "recoverBNB",
      "outputs": [],
      "stateMutability": "nonpayable",
      "type": "function"
    },
    {
      "inputs": [],
      "name": "renounceOwnership",
      "outputs": [],
      "stateMutability": "nonpayable",
      "type": "function"
    },
    {
      "inputs": [
        {
          "internalType": "bytes4",
          "name": "assetType",
          "type": "bytes4"
        },
        {
          "internalType": "address",
          "name": "matcher",
          "type": "address"
        }
      ],
      "name": "setAssetMatcher",
      "outputs": [],
      "stateMutability": "nonpayable",
      "type": "function"
    },
    {
      "inputs": [
        {
          "internalType": "address payable",
          "name": "newDefaultFeeReceiver",
          "type": "address"
        }
      ],
      "name": "setDefaultFeeReceiver",
      "outputs": [],
      "stateMutability": "nonpayable",
      "type": "function"
    },
    {
      "inputs": [
        {
          "internalType": "address",
          "name": "token",
          "type": "address"
        },
        {
          "internalType": "address",
          "name": "wallet",
          "type": "address"
        }
      ],
      "name": "setFeeReceiver",
      "outputs": [],
      "stateMutability": "nonpayable",
      "type": "function"
    },
    {
      "inputs": [
        {
          "internalType": "uint256",
          "name": "maxDurationExtVar",
          "type": "uint256"
        }
      ],
      "name": "setMaxAuctionDuration",
      "outputs": [],
      "stateMutability": "nonpayable",
      "type": "function"
    },
    {
      "inputs": [
        {
          "internalType": "uint256",
          "name": "minDurationExtVar",
          "type": "uint256"
        }
      ],
      "name": "setMinAuctionDuration",
      "outputs": [],
      "stateMutability": "nonpayable",
      "type": "function"
    },
    {
      "inputs": [
        {
          "internalType": "uint8",
          "name": "minBidIncrementPercentExtVar",
          "type": "uint8"
        }
      ],
      "name": "setMinBidIncrementPercent",
      "outputs": [],
      "stateMutability": "nonpayable",
      "type": "function"
    },
    {
      "inputs": [
        {
          "internalType": "uint256",
          "name": "newProtocolFee",
          "type": "uint256"
        }
      ],
      "name": "setProtocolFee",
      "outputs": [],
      "stateMutability": "nonpayable",
      "type": "function"
    },
    {
      "inputs": [
        {
          "internalType": "bytes4",
          "name": "assetType",
          "type": "bytes4"
        },
        {
          "internalType": "address",
          "name": "proxy",
          "type": "address"
        }
      ],
      "name": "setTransferProxy",
      "outputs": [],
      "stateMutability": "nonpayable",
      "type": "function"
    },
    {
      "inputs": [
        {
          "internalType": "address",
          "name": "newOwner",
          "type": "address"
        }
      ],
      "name": "transferOwnership",
      "outputs": [],
      "stateMutability": "nonpayable",
      "type": "function"
    },
    {
      "inputs": [],
      "name": "unpauseContract",
      "outputs": [],
      "stateMutability": "nonpayable",
      "type": "function"
    }
  ],
  "bytecode": "0x608060405234801561001057600080fd5b50615d8780620000216000396000f3fe6080604052600436106102045760003560e01c80635c975abb11610118578063bb3bafd6116100a0578063e66db25e1161006f578063e66db25e146106a2578063e99a3f80146106c2578063f2fde38b146106d5578063f603939b146106f5578063f69082581461071557600080fd5b8063bb3bafd6146105d2578063c7a065e714610600578063d80df52314610620578063e12d145a1461068257600080fd5b806396b5a755116100e757806396b5a75514610553578063b0e21e8a14610573578063b33712c51461058a578063b39deb461461059f578063b7751c71146105bf57600080fd5b80635c975abb146104d5578063715018a614610500578063787dce3d146105155780638da5cb5b1461053557600080fd5b80633408e4701161019b578063439766ce1161016a578063439766ce146103d1578063459d8230146103e657806348c9581e146103f95780635413487614610410578063571a26a01461042757600080fd5b80633408e47014610350578063360ff11c1461036357806337d9bef4146103835780633abf6fd4146103b057600080fd5b80631cdfe3d8116101d75780631cdfe3d8146102c257806320158c44146102e25780632403f48e1461031057806330c642f11461033057600080fd5b806302097ab11461020957806303721bb21461025d5780631372a6251461027f578063157db3161461029f575b600080fd5b34801561021557600080fd5b50610240610224366004615244565b610195602052600090815260409020546001600160a01b031681565b6040516001600160a01b0390911681526020015b60405180910390f35b34801561026957600080fd5b5061027d6102783660046153b2565b610735565b005b34801561028b57600080fd5b5061027d61029a366004615403565b610925565b3480156102ab57600080fd5b506102b4610a67565b604051908152602001610254565b3480156102ce57600080fd5b5061027d6102dd366004615244565b610a78565b3480156102ee57600080fd5b506102b46102fd3660046153b2565b6101616020526000908152604090205481565b34801561031c57600080fd5b5061027d61032b3660046157b9565b610ae3565b34801561033c57600080fd5b5061027d61034b3660046153e6565b6110fe565b34801561035c57600080fd5b50466102b4565b34801561036f57600080fd5b506102b461037e366004615522565b6111b4565b34801561038f57600080fd5b506101c55461039e9060ff1681565b60405160ff9091168152602001610254565b3480156103bc57600080fd5b5061019454610240906001600160a01b031681565b3480156103dd57600080fd5b5061027d611265565b61027d6103f4366004615716565b6112f3565b34801561040557600080fd5b506102b46101c75481565b34801561041c57600080fd5b506102b46101c65481565b34801561043357600080fd5b506104bc6104423660046153b2565b6101c960205260009081526040902080546001820154600283015460038401546004850154600586015460068701546007880154600889015460098a0154600a8b0154600b8c0154600c909c01549a9b999a989997986001600160a01b03978816989688169790951695939460ff9093169391929091908d565b6040516102549d9c9b9a99989796959493929190615ab8565b3480156104e157600080fd5b506101c854600160a01b900460ff166040519015158152602001610254565b34801561050c57600080fd5b5061027d61158e565b34801561052157600080fd5b5061027d6105303660046153b2565b611620565b34801561054157600080fd5b506065546001600160a01b0316610240565b34801561055f57600080fd5b5061027d61056e3660046153b2565b61166e565b34801561057f57600080fd5b506102b46101935481565b34801561059657600080fd5b5061027d611968565b3480156105ab57600080fd5b5061027d6105ba3660046153e6565b6119ea565b61027d6105cd366004615798565b611a98565b3480156105de57600080fd5b506105f36105ed3660046153b2565b50606090565b60405161025491906158ef565b34801561060c57600080fd5b5061027d61061b36600461582f565b6121b2565b34801561062c57600080fd5b5061064061063b3660046153b2565b612211565b6040516102549190815181526020808301516001600160a01b039081169183019190915260408084015190830152606092830151169181019190915260800190565b34801561068e57600080fd5b5061027d61069d3660046153b2565b6123a8565b3480156106ae57600080fd5b5061027d6106bd3660046152a9565b6123f6565b61027d6106d036600461566e565b61246d565b3480156106e157600080fd5b5061027d6106f0366004615244565b6125a1565b34801561070157600080fd5b5061027d6107103660046153b2565b6126aa565b34801561072157600080fd5b5061027d6107303660046153b2565b612708565b6101c854600160a01b900460ff161561077b5760405162461bcd60e51b815260206004820152600360248201526204349560ec1b60448201526064015b60405180910390fd5b6101c8546001600160a01b031633146107bf5760405162461bcd60e51b8152602060048201526006602482015265043444e4841560d41b6044820152606401610772565b80600360008281526101c9602052604090206008015460ff1660038111156107f757634e487b7160e01b600052602160045260246000fd5b141561084a5760008181526101c960205260409020600201546108455760405162461bcd60e51b8152600401610772906020808252600490820152634441484360e01b604082015260600190565b6108a5565b60008181526101c9602052604090206002015415801590610873575061086f81612756565b4210155b6108a55760405162461bcd60e51b815260206004820152600360248201526241484360e81b6044820152606401610772565b5060009081526101c9602052604081208181556001810182905560028101829055600381018290556004810180546001600160a01b03199081169091556005820180548216905560068201805490911690556007810182905560088101805460ff1916905560098101829055600a8101829055600b8101829055600c0155565b600054610100900460ff168061093e575060005460ff16155b61095a5760405162461bcd60e51b815260040161077290615960565b600054610100900460ff1615801561097c576000805461ffff19166101011790555b61098461277f565b61098c6127ea565b60c96020527fea0f2c387bb995d4fa72ef5fd8f77002182e2f2427114668c9ad6240ba990eb380546001600160a01b038781166001600160a01b0319928316179092557fa8c5c9d849afe4566fd6daba687a2a7baa8ffe8bfcac7a0fae545dc26eb71edc80549289169282168317905563025ceed960e61b6000527f6bcb877229283a230d76147c7b081bd9ba65c229d33b4866b30216aeb6e1469a80549091169091179055610a3c8484612898565b610a44612928565b610a4d826129c5565b8015610a5f576000805461ff00191690555b505050505050565b6000610a736101c45490565b905090565b6065546001600160a01b03163314610ac05760405162461bcd60e51b81526020600482018190526024820152600080516020615d328339815191526044820152606401610772565b61019480546001600160a01b0319166001600160a01b0392909216919091179055565b60026001541415610b365760405162461bcd60e51b815260206004820152601f60248201527f5265656e7472616e637947756172643a207265656e7472616e742063616c6c006044820152606401610772565b60026001556101c854600160a01b900460ff1615610b7c5760405162461bcd60e51b815260206004820152600360248201526204349560ec1b6044820152606401610772565b610b8b6101c480546001019055565b6040516301ffc9a760e01b81526380ac58cd60e01b60048201526001600160a01b038716906301ffc9a79060240160206040518083038186803b158015610bd157600080fd5b505afa158015610be5573d6000803e3d6000fd5b505050506040513d601f19601f82011682018060405250810190610c099190615392565b80610c8d57506040516301ffc9a760e01b8152636cdb3d1360e11b60048201526001600160a01b038716906301ffc9a79060240160206040518083038186803b158015610c5557600080fd5b505afa158015610c69573d6000803e3d6000fd5b505050506040513d601f19601f82011682018060405250810190610c8d9190615392565b610cc55760405162461bcd60e51b815260206004820152600960248201526843414e41444e534e4960b81b6044820152606401610772565b6101c6548810158015610cdb57506101c7548811155b610d125760405162461bcd60e51b8152602060048201526008602482015267088928aa8989ea8960c31b6044820152606401610772565b610e10811115610d4f5760405162461bcd60e51b815260206004820152600860248201526708aa090a884989e960c31b6044820152606401610772565b6003856003811115610d7157634e487b7160e01b600052602160045260246000fd5b1415610e1f5760008411610daf5760405162461bcd60e51b815260206004820152600560248201526420a9a823ad60d91b6044820152606401610772565b60008311610de75760405162461bcd60e51b815260206004820152600560248201526420a2a823ad60d91b6044820152606401610772565b828411610e1f5760405162461bcd60e51b815260206004820152600660248201526504153504745560d41b6044820152606401610772565b604051806101a00160405280600081526020018981526020016000815260200188815260200160006001600160a01b03168152602001336001600160a01b03168152602001876001600160a01b031681526020018a8152602001866003811115610e9957634e487b7160e01b600052602160045260246000fd5b8152602001428411610eab5742610ead565b835b8152602001858152602001848152602001828152506101c96000306001600160a01b031663157db3166040518163ffffffff1660e01b815260040160206040518083038186803b158015610f0057600080fd5b505afa158015610f14573d6000803e3d6000fd5b505050506040513d601f19601f82011682018060405250810190610f389190615780565b815260208082019290925260409081016000208351815591830151600180840191909155908301516002830155606083015160038084019190915560808401516004840180546001600160a01b039283166001600160a01b03199182161790915560a086015160058601805491841691831691909117905560c086015160068601805491909316911617905560e084015160078401556101008401516008840180549193909260ff1990921691849081111561100457634e487b7160e01b600052602160045260246000fd5b0217905550610120820151816009015561014082015181600a015561016082015181600b015561018082015181600c01559050507fd0a5c0df7831b5d4cca8c74c5d22ea5c6606814e2498c605bbaf20db9812aade306001600160a01b031663157db3166040518163ffffffff1660e01b815260040160206040518083038186803b15801561109257600080fd5b505afa1580156110a6573d6000803e3d6000fd5b505050506040513d601f19601f820116820180604052508101906110ca9190615780565b8a888b8b888b89896040516110e799989796959493929190615a60565b60405180910390a150506001805550505050505050565b6065546001600160a01b031633146111465760405162461bcd60e51b81526020600482018190526024820152600080516020615d328339815191526044820152606401610772565b6001600160e01b03198216600081815260c9602090815260409182902080546001600160a01b0319166001600160a01b03861690811790915591519182527f4b5aced933c0c9a88aeac3f0b3b72c5aaf75df8ebaf53225773248c4c315359391015b60405180910390a25050565b600080826101200151116111c757600080fd5b6000826101200151426111da9190615c7c565b9050826020015181106111f1575050610160015190565b600061124761123b611224866020015161121e886101600151896101400151612a8590919063ffffffff16565b90612a91565b610120870151611235904290612a85565b90612a9d565b61014086015190612a85565b905083610160015181101561125e57506101608301515b9392505050565b6101c8546001600160a01b031633146112a95760405162461bcd60e51b8152602060048201526006602482015265043444e4841560d41b6044820152606401610772565b6101c8805460ff60a01b1916600160a01b1790556040513381527f62e78cea01bee320cd4e420270b5ea74000d11b0c9f74754ebdbfc544b05a258906020015b60405180910390a1565b600260015414156113465760405162461bcd60e51b815260206004820152601f60248201527f5265656e7472616e637947756172643a207265656e7472616e742063616c6c006044820152606401610772565b60026001556101c854600160a01b900460ff161561138c5760405162461bcd60e51b815260206004820152600360248201526204349560ec1b6044820152606401610772565b80600360008281526101c9602052604090206008015460ff1660038111156113c457634e487b7160e01b600052602160045260246000fd5b14156114175760008181526101c960205260409020600201546114125760405162461bcd60e51b8152600401610772906020808252600490820152634441484360e01b604082015260600190565b611472565b60008181526101c9602052604090206002015415801590611440575061143c81612756565b4210155b6114725760405162461bcd60e51b815260206004820152600360248201526241484360e81b6044820152606401610772565b60008281526101c960205260409020600401546001600160a01b03163381146115035760405162461bcd60e51b815260206004820152603560248201527f41756374696f6e2063616e206f6e6c7920626520636c61696d6564206279207460448201527f686520616464726573732077686f20776f6e20697400000000000000000000006064820152608401610772565b60008381526101c96020908152604091829020805460069091015483518781526001600160a01b03918216938101939093528416828401526060820181905291517f1a5624b2a9f99ec718b6b64f4f7f5b24aa4901b85950ee11c5f98dd651aac5639181900360800190a1611579868683612aa9565b61158284612d3e565b50506001805550505050565b6065546001600160a01b031633146115d65760405162461bcd60e51b81526020600482018190526024820152600080516020615d328339815191526044820152606401610772565b6065546040516000916001600160a01b0316907f8be0079c531659141344cd1fd0a4f28419497f9722a3daafe3b4186f6b6457e0908390a3606580546001600160a01b0319169055565b6065546001600160a01b031633146116685760405162461bcd60e51b81526020600482018190526024820152600080516020615d328339815191526044820152606401610772565b61019355565b600260015414156116c15760405162461bcd60e51b815260206004820152601f60248201527f5265656e7472616e637947756172643a207265656e7472616e742063616c6c006044820152606401610772565b600260015560008181526101c9602052604090206006015481906001600160a01b03166117165760405162461bcd60e51b815260206004820152600360248201526241444560e81b6044820152606401610772565b60008281526101c96020526040902060020154156117765760405162461bcd60e51b815260206004820152601960248201527f41756374696f6e20616c726561647920686164206120626964000000000000006044820152606401610772565b60008281526101c960205260409020600501546001600160a01b031633146118065760405162461bcd60e51b815260206004820152603b60248201527f41756374696f6e2063616e206f6e6c792062652063616e63656c6c656420627960448201527f2074686520616464726573732077686f206372656174656420697400000000006064820152608401610772565b600360008381526101c9602052604090206008015460ff16600381111561183d57634e487b7160e01b600052602160045260246000fd5b141561188b5760008281526101c9602052604090206009015442111561188b5760405162461bcd60e51b815260206004820152600360248201526241415360e81b6044820152606401610772565b60008281526101c9602090815260408083206006810180546007830180548785556001850188905560028501889055600385018890556004850180546001600160a01b031990811690915560058601805482169055831690935586905560088301805460ff1916905560098301869055600a8301869055600b8301869055600c9092019490945581518681526001600160a01b039091169281018390529081018390529091907fc4058ebc534b64ecb27b2d4eaa1904f98997ec18ebe6ada4117593dde89478cc9060600160405180910390a15050600180555050565b6101c8546001600160a01b031633146119ac5760405162461bcd60e51b8152602060048201526006602482015265043444e4841560d41b6044820152606401610772565b6101c8805460ff60a01b191690556040513381527f5db9ee0a495bf2e6ff9c91a7834c1ba4fdd244a5e8aa4e537bd38aeae4b073aa906020016112e9565b6065546001600160a01b03163314611a325760405162461bcd60e51b81526020600482018190526024820152600080516020615d328339815191526044820152606401610772565b6001600160e01b0319821660008181526097602090815260409182902080546001600160a01b0319166001600160a01b03861690811790915591519182527fd2bf91075f105d0fd80328da28e20ebdad1c1261839711183bc29a44cbe6c72f91016111a8565b60026001541415611aeb5760405162461bcd60e51b815260206004820152601f60248201527f5265656e7472616e637947756172643a207265656e7472616e742063616c6c006044820152606401610772565b60026001556101c854600160a01b900460ff1615611b315760405162461bcd60e51b815260206004820152600360248201526204349560ec1b6044820152606401610772565b60008281526101c9602052604090206006015482906001600160a01b0316611b815760405162461bcd60e51b815260206004820152600360248201526241444560e81b6044820152606401610772565b60008381526101c9602052604090206002015483901580611ba95750611ba681612756565b42105b611bda5760405162461bcd60e51b8152602060048201526002602482015261414560f01b6044820152606401610772565b60008481526101c960205260409020600901548490421015611c245760405162461bcd60e51b8152602060048201526003602482015262414e5360e81b6044820152606401610772565b348414611c5c5760405162461bcd60e51b815260206004820152600660248201526520a22722a6ab60d11b6044820152606401610772565b60008411611c945760405162461bcd60e51b81526020600482015260056024820152640414d4754360dc1b6044820152606401610772565b600260008681526101c9602052604090206008015460ff166003811115611ccb57634e487b7160e01b600052602160045260246000fd5b1480611d0b5750600160008681526101c9602052604090206008015460ff166003811115611d0957634e487b7160e01b600052602160045260246000fd5b145b15611e5e5760008581526101c96020526040902054611dbb5760008581526101c9602052604090204260028083019190915560089091015460ff166003811115611d6557634e487b7160e01b600052602160045260246000fd5b1415611db65760008581526101c96020526040902060030154841015611db65760405162461bcd60e51b81526020600482015260066024820152654d4252504f4d60d01b6044820152606401610772565b611e5e565b6101c55460008681526101c96020526040902054611dfd91611de79160649161121e919060ff16612a9d565b60008781526101c9602052604090205490612d7f565b841015611e325760405162461bcd60e51b81526020600482015260036024820152622726a160e91b6044820152606401610772565b60008581526101c9602052604090208054600490910154611e5e916001600160a01b0390911690612d8b565b600360008681526101c9602052604090206008015460ff166003811115611e9557634e487b7160e01b600052602160045260246000fd5b141561203d5760008581526101c9602052604090206002015415611ee55760405162461bcd60e51b81526020600482015260076024820152662220a1a7a427a160c91b6044820152606401610772565b60008581526101c96020908152604080832081516101a08101835281548152600182015493810193909352600281015491830191909152600380820154606084015260048201546001600160a01b0390811660808501526005830154811660a085015260068301541660c0840152600782015460e08401526008820154611fdf93929161010084019160ff1690811115611f8f57634e487b7160e01b600052602160045260246000fd5b6003811115611fae57634e487b7160e01b600052602160045260246000fd5b815260200160098201548152602001600a8201548152602001600b8201548152602001600c820154815250506111b4565b90508034101561201b5760405162461bcd60e51b815260206004820152600760248201526604d5347564745560cc1b6044820152606401610772565b60008681526101c960205260409020600b810191909155426002909101553493505b60008581526101c9602052604090208481556004810180546001600160a01b03191633179055600c0154158015906120aa5750600360008681526101c9602052604090206008015460ff1660038111156120a757634e487b7160e01b600052602160045260246000fd5b14155b156121345760008581526101c960205260409020600c01546120cd904290612d7f565b6120d686612756565b10156121345761210c6120e886612756565b60008781526101c960205260409020600c0154612106904290612d7f565b90612a85565b60008681526101c960205260408120600101805490919061212e908490615c25565b90915550505b60008581526101c96020908152604091829020600681015460079091015483518981526001600160a01b039092169282019290925291820152336060820152608081018590527fdb464088a4002c4d7f9012905642ae91b860df96f9c59c86ecd91d3c42fcd27b9060a00160405180910390a1505060018055505050565b6065546001600160a01b031633146121fa5760405162461bcd60e51b81526020600482018190526024820152600080516020615d328339815191526044820152606401610772565b6101c5805460ff191660ff92909216919091179055565b6040805160808101825260008082526020820181905291810182905260608101919091526101c854600160a01b900460ff16156122765760405162461bcd60e51b815260206004820152600360248201526204349560ec1b6044820152606401610772565b81600360008281526101c9602052604090206008015460ff1660038111156122ae57634e487b7160e01b600052602160045260246000fd5b14156123015760008181526101c960205260409020600201546122fc5760405162461bcd60e51b8152600401610772906020808252600490820152634441484360e01b604082015260600190565b61235c565b60008181526101c960205260409020600201541580159061232a575061232681612756565b4210155b61235c5760405162461bcd60e51b815260206004820152600360248201526241484360e81b6044820152606401610772565b505060008181526101c960209081526040918290206004810154815460059092015484516080810186529586526001600160a01b03918216938601939093529284015216606082015290565b6065546001600160a01b031633146123f05760405162461bcd60e51b81526020600482018190526024820152600080516020615d328339815191526044820152606401610772565b6101c755565b6065546001600160a01b0316331461243e5760405162461bcd60e51b81526020600482018190526024820152600080516020615d328339815191526044820152606401610772565b6001600160a01b0391821660009081526101956020526040902080546001600160a01b03191691909216179055565b6124778484612e2e565b6124818282612e2e565b60408401516001600160a01b0316156125095783604001516001600160a01b031682600001516001600160a01b0316146125095760405162461bcd60e51b815260206004820152602360248201527f6c6566744f726465722e74616b657220766572696669636174696f6e206661696044820152621b195960ea1b6064820152608401610772565b60408201516001600160a01b0316156125915783600001516001600160a01b031682604001516001600160a01b0316146125915760405162461bcd60e51b8152602060048201526024808201527f72696768744f726465722e74616b657220766572696669636174696f6e2066616044820152631a5b195960e21b6064820152608401610772565b61259b8483612e41565b50505050565b6065546001600160a01b031633146125e95760405162461bcd60e51b81526020600482018190526024820152600080516020615d328339815191526044820152606401610772565b6001600160a01b03811661264e5760405162461bcd60e51b815260206004820152602660248201527f4f776e61626c653a206e6577206f776e657220697320746865207a65726f206160448201526564647265737360d01b6064820152608401610772565b6065546040516001600160a01b038084169216907f8be0079c531659141344cd1fd0a4f28419497f9722a3daafe3b4186f6b6457e090600090a3606580546001600160a01b0319166001600160a01b0392909216919091179055565b6101c8546001600160a01b031633146126ee5760405162461bcd60e51b8152602060048201526006602482015265043444e4841560d41b6044820152606401610772565b6101c854612705906001600160a01b031682612d8b565b50565b6065546001600160a01b031633146127505760405162461bcd60e51b81526020600482018190526024820152600080516020615d328339815191526044820152606401610772565b6101c655565b60008181526101c960205260408120600181015460029091015461277991612d7f565b92915050565b600054610100900460ff1680612798575060005460ff16155b6127b45760405162461bcd60e51b815260040161077290615960565b600054610100900460ff161580156127d6576000805461ffff19166101011790555b8015612705576000805461ff001916905550565b600054610100900460ff1680612803575060005460ff16155b61281f5760405162461bcd60e51b815260040161077290615960565b600054610100900460ff16158015612841576000805461ffff19166101011790555b606580546001600160a01b0319163390811790915560405181906000907f8be0079c531659141344cd1fd0a4f28419497f9722a3daafe3b4186f6b6457e0908290a3508015612705576000805461ff001916905550565b600054610100900460ff16806128b1575060005460ff16155b6128cd5760405162461bcd60e51b815260040161077290615960565b600054610100900460ff161580156128ef576000805461ffff19166101011790555b61019383905561019480546001600160a01b0319166001600160a01b0384161790558015612923576000805461ff00191690555b505050565b600054610100900460ff1680612941575060005460ff16155b61295d5760405162461bcd60e51b815260040161077290615960565b600054610100900460ff1615801561297f576000805461ffff19166101011790555b6127d66040518060400160405280600b81526020016a11da1bdcdd13585c9ad95d60aa1b815250604051806040016040528060018152602001601960f91b8152506130a4565b600054610100900460ff16806129de575060005460ff16155b6129fa5760405162461bcd60e51b815260040161077290615960565b600054610100900460ff16158015612a1c576000805461ffff19166101011790555b6101c8805474ffffffffffffffffffffffffffffffffffffffffff19166001600160a01b038416179055612a4e6127ea565b612a5860056121b2565b612a63610258612708565b612a6f62278d006123a8565b8015612a81576000805461ff00191690555b5050565b600061125e8284615c7c565b600061125e8284615c3d565b600061125e8284615c5d565b600080612ab6858561312e565b915091506000612ac58661322b565b90506000612ad28661322b565b6000838152610161602052604080822054838352908220549293509190612afb8a8a858561329b565b90506000816020015111612b435760405162461bcd60e51b815260206004820152600f60248201526e1b9bdd1a1a5b99c81d1bc8199a5b1b608a1b6044820152606401610772565b600080612b538989858f8f61332b565b8a5191935091506001600160e01b0319166355575f5d60e11b1415612be357818a1015612bc25760405162461bcd60e51b815260206004820152601960248201527f6d616b654d617463683a206e6f7420656e6f75676820455448000000000000006044820152606401610772565b818a1115612bde57612bde612bd7838c615c7c565b3390612d8b565b612c62565b87516001600160e01b0319166355575f5d60e11b1415612c6257808a1015612c4d5760405162461bcd60e51b815260206004820152601960248201527f74616b654d617463683a206e6f7420656e6f75676820455448000000000000006044820152606401610772565b808a1115612c6257612c62612bd7838c615c7c565b8b516001600160a01b03163014612c93576020830151612c829086615c25565b600088815261016160205260409020555b8a516001600160a01b03163014612cc1578251612cb09085615c25565b600087815261016160205260409020555b8b518b516020858101518651604080518d81529384018c90526001600160a01b0395861690840152939092166060820152608081019190915260a08101919091527f0c0792d64a63025aad5946328f2bee95ed6f94d57160e5449513ecd215a074a69060c0015b60405180910390a1505050505050505050505050565b6101c854600160a01b900460ff16156107bf5760405162461bcd60e51b815260206004820152600360248201526204349560ec1b6044820152606401610772565b600061125e8284615c25565b6000826001600160a01b03168260405160006040518083038185875af1925050503d8060008114612dd8576040519150601f19603f3d011682016040523d82523d6000602084013e612ddd565b606091505b50509050806129235760405162461bcd60e51b815260206004820152601f60248201527f4c69625472616e7366657220455448207472616e73666572206661696c6564006044820152606401610772565b612e37826134a8565b612a818282613568565b600080612e4e848461312e565b915091506000612e5d8561322b565b90506000612e6a8561322b565b6000838152610161602052604080822054838352908220549293509190612e938989858561329b565b90506000816020015111612edb5760405162461bcd60e51b815260206004820152600f60248201526e1b9bdd1a1a5b99c81d1bc8199a5b1b608a1b6044820152606401610772565b600080612eeb8989858e8e61332b565b8a5191935091506001600160e01b0319166355575f5d60e11b1415612f655781341015612f4b5760405162461bcd60e51b815260206004820152600e60248201526d0dcdee840cadcdeeaced0408aa8960931b6044820152606401610772565b81341115612f6057612f60612bd78334615c7c565b612fd5565b87516001600160e01b0319166355575f5d60e11b1415612fd55780341015612fc05760405162461bcd60e51b815260206004820152600e60248201526d0dcdee840cadcdeeaced0408aa8960931b6044820152606401610772565b80341115612fd557612fd5612bd78234615c7c565b8a5133906001600160a01b03168114613008576020840151612ff79087615c25565b600089815261016160205260409020555b8a516001600160a01b038281169116146130395783516130289086615c25565b600088815261016160205260409020555b8b518b516020868101518751604080518e81529384018d90526001600160a01b0395861690840152939092166060820152608081019190915260a08101919091527f0c0792d64a63025aad5946328f2bee95ed6f94d57160e5449513ecd215a074a69060c001612d28565b600054610100900460ff16806130bd575060005460ff16155b6130d95760405162461bcd60e51b815260040161077290615960565b600054610100900460ff161580156130fb576000805461ffff19166101011790555b825160208085019190912083519184019190912060fb9190915560fc558015612923576000805461ff0019169055505050565b60408051808201909152600081526060602082015260408051808201909152600081526060602082015260208401515160608401515161316e9190613716565b80519092506001600160e01b0319166131be5760405162461bcd60e51b81526020600482015260126024820152710c2e6e6cae8e640c8dedc4ee840dac2e8c6d60731b6044820152606401610772565b6060840151516020840151516131d49190613716565b80519091506001600160e01b0319166132245760405162461bcd60e51b81526020600482015260126024820152710c2e6e6cae8e640c8dedc4ee840dac2e8c6d60731b6044820152606401610772565b9250929050565b80516020820151516000919061324090613763565b60608401515161324f90613763565b608080860151604080516001600160a01b039096166020870152850193909352606084019190915282015260a0015b604051602081830303815290604052805190602001209050919050565b60408051808201909152600080825260208201526000806132bc87866137c0565b915091506000806132cd88876137c0565b9150915083811115613300576132f584848a60200151602001518b6060015160200151613804565b945050505050613323565b61331c8960200151602001518a60600151602001518484613890565b9450505050505b949350505050565b60008060006133428860000151886000015161391d565b8651602088015190945092509050600061335b866139ee565b90506000613368866139ee565b9050600183600281111561338c57634e487b7160e01b600052602160045260246000fd5b141561340557875187516133c5919084848e8e7f1a0388dd7519a093630516a672419a2562e0e74deb98af068657dc265f0164c9613ab6565b9450613400898960200151886000015185600001517fb45a3ba14423c8f1b71cc094845ab56b5294dbe8d8e3ba53f3cdb63d59a4044b613b32565b61349b565b600283600281111561342757634e487b7160e01b600052602160045260246000fd5b141561349b576134648860200151876000015183858d8f7fb45a3ba14423c8f1b71cc094845ab56b5294dbe8d8e3ba53f3cdb63d59a4044b613ab6565b88518851835192965061349b928d9291907f1a0388dd7519a093630516a672419a2562e0e74deb98af068657dc265f0164c9613b32565b5050509550959350505050565b60a081015115806134bc5750428160a00151105b6135085760405162461bcd60e51b815260206004820152601d60248201527f4f726465722073746172742076616c69646174696f6e206661696c65640000006044820152606401610772565b60c0810151158061351c5750428160c00151115b6127055760405162461bcd60e51b815260206004820152601b60248201527f4f7264657220656e642076616c69646174696f6e206661696c656400000000006044820152606401610772565b81516001600160a01b0316336001600160a01b031614612a8157600061358d83613cb4565b83519091506001600160a01b03163b15613697578251630b135d3f60e11b906001600160a01b0316631626ba7e6135c384613d8c565b856040518363ffffffff1660e01b81526004016135e1929190615947565b60206040518083038186803b1580156135f957600080fd5b505afa15801561360d573d6000803e3d6000fd5b505050506040513d601f19601f8201168201806040525081019061363191906153ca565b6001600160e01b031916146129235760405162461bcd60e51b815260206004820152602660248201527f436f6e74726163743a207369676e617475726520766572696669636174696f6e6044820152651032b93937b960d11b6064820152608401610772565b82516001600160a01b03166136b5836136af84613d8c565b90613eaa565b6001600160a01b0316146129235760405162461bcd60e51b815260206004820152602260248201527f557365723a207369676e617475726520766572696669636174696f6e2065727260448201526137b960f11b6064820152608401610772565b60408051808201909152600081526060602082015260006137378484613f6f565b80519091506001600160e01b03191661375c576137548385613f6f565b915050612779565b9050612779565b805160208083015180519082012060405160009361327e937f452a0dc408cb0d27ffc3b3caff933a5208040a53a9dbecd8d89cad2c0d40e00c939192019283526001600160e01b0319919091166020830152604082015260600190565b6000806137de83856060015160200151612a8590919063ffffffff16565b90506137fb846020015160200151856060015160200151836141c8565b91509250929050565b604080518082019091526000808252602082015260006138258585856141c8565b9050858111156138775760405162461bcd60e51b815260206004820152601860248201527f66696c6c4c6566743a20756e61626c6520746f2066696c6c00000000000000006044820152606401610772565b5050604080518082019091529384525050602082015290565b604080518082019091526000808252602082015260006138b18387876141c8565b9050838111156139035760405162461bcd60e51b815260206004820152601960248201527f66696c6c52696768743a20756e61626c6520746f2066696c6c000000000000006044820152606401610772565b604080518082019091529283526020830152509392505050565b60006001600160e01b031983166355575f5d60e11b141561394057506001612779565b6001600160e01b031982166355575f5d60e11b141561396157506002612779565b6001600160e01b031983166322ba176160e21b141561398257506001612779565b6001600160e01b031982166322ba176160e21b14156139a357506002612779565b6001600160e01b0319831663025ceed960e61b14156139c457506001612779565b6001600160e01b0319821663025ceed960e61b14156139e557506002612779565b50600092915050565b604080518082019091526060808252602082015260e08201516001600160e01b031916632611a13360e11b1415613a4b57613a2d826101000151614230565b805151909150613a46578151613a439082614258565b90505b919050565b60e08201516001600160e01b03199081161415613a6e578151613a439082614258565b60405162461bcd60e51b815260206004820152601760248201527f556e6b6e6f776e204f72646572206461746120747970650000000000000000006044820152606401610772565b6000613aca8861019354886020015161433e565b90506000613adb828a8a88876143d4565b9050613aeb8585838c8c886144bd565b9050613aff85828b8a602001518c8861460c565b9050613b1385828b89602001518c8861460c565b9050613b2685828a896000015187613b32565b50979650505050505050565b6000805b8351811015613c62576000613b8d858381518110613b6457634e487b7160e01b600052603260045260246000fd5b6020026020010151602001516bffffffffffffffffffffffff16886146ef90919063ffffffff16565b9050613bdb858381518110613bb257634e487b7160e01b600052603260045260246000fd5b6020026020010151602001516bffffffffffffffffffffffff1684612d7f90919063ffffffff16565b92508015613c4f57613c4f60405180604001604052808a81526020018381525087878581518110613c1c57634e487b7160e01b600052603260045260246000fd5b602002602001015160000151877fa10bb5b2060a412d05113732875a5431ca23453eb93f797e0ffcb5b40e5f2c3e614701565b5080613c5a81615cbf565b915050613b36565b508061271014610a5f5760405162461bcd60e51b815260206004820152601e60248201527f53756d207061796f75747320427073206e6f7420657175616c203130302500006044820152606401610772565b60007f477ed43b8020849b755512278536c3766a3b4ab547519949a75f483372493f8d8260000151613ce98460200151614b02565b8460400151613cfb8660600151614b02565b608087015160a088015160c089015160e08a01516101008b0151805160209182012060405161327e9b9a999897969594939201998a526001600160a01b0398891660208b015260408a0197909752949096166060880152608087019290925260a086015260c085015260e08401929092526001600160e01b0319919091166101008301526101208201526101400190565b604080518082018252600b81526a11da1bdcdd13585c9ad95d60aa1b6020918201528151808301835260018152601960f91b9082015281517f8b73c3c69bb8fe3d512ecc4cf759cc79239f7b179b0ffacaa9a75d522b39400f8183018190527ff7645354abf2b8319c9979d69e838e27128975fec6da6f7d8206f207bba6d37b8285018190527fad7c5bef027816a800da1736444fb58a807ef4c9603b7848673f7e3a68eb14a5606084018190524660808501523060a0808601919091528651808603909101815260c08501875280519086012061190160f01b60e086015260e285018190526101028086018990528751808703909101815261012290950190965283519390940192909220600094929392905b9695505050505050565b600080600080845160411415613ed45750505060208201516040830151606084015160001a613f63565b845160401415613f1b5750505060408201516020830151907f7fffffffffffffffffffffffffffffffffffffffffffffffffffffffffffffff81169060ff1c601b01613f63565b60405162461bcd60e51b815260206004820152601f60248201527f45434453413a20696e76616c6964207369676e6174757265206c656e677468006044820152606401610772565b613ea086828585614b58565b604080518082019091526000815260606020820152825182516001600160e01b031982166355575f5d60e11b1415613fef576001600160e01b031981166355575f5d60e11b1415613fc4578492505050612779565b5050604080518082018252600080825282516020818101909452908152918101919091529050612779565b6001600160e01b031982166322ba176160e21b1415614034576001600160e01b031981166322ba176160e21b1415613fc45761402b8585614d01565b92505050612779565b6001600160e01b031982166339d690a360e11b1415614070576001600160e01b031981166339d690a360e11b1415613fc45761402b8585614d01565b6001600160e01b0319821663025ceed960e61b14156140ac576001600160e01b0319811663025ceed960e61b1415613fc45761402b8585614d01565b6001600160e01b031982166000908152609760205260409020546001600160a01b03168015614161576040516306d3f7cb60e41b81526001600160a01b03821690636d3f7cb09061410390899089906004016159bd565b60006040518083038186803b15801561411b57600080fd5b505afa15801561412f573d6000803e3d6000fd5b505050506040513d6000823e601f3d908101601f19168201604052614157919081019061546a565b9350505050612779565b6001600160e01b03198381169083161415614180576141578686614d01565b60405162461bcd60e51b815260206004820152601760248201527f6e6f7420666f756e64204941737365744d6174636865720000000000000000006044820152606401610772565b60006141d5848484614d6b565b156142225760405162461bcd60e51b815260206004820152600e60248201527f726f756e64696e67206572726f720000000000000000000000000000000000006044820152606401610772565b6133238361121e8685612a9d565b60408051808201909152606080825260208201528180602001905181019061277991906155e2565b6040805180820182526060808252602082015281516001808252818401909352909160009190816020015b604080518082019091526000808252602082015281526020019060019003908161428357905050905083816000815181106142ce57634e487b7160e01b600052603260045260246000fd5b6020026020010151600001906001600160a01b031690816001600160a01b0316815250506127108160008151811061431657634e487b7160e01b600052603260045260246000fd5b6020908102919091018101516bffffffffffffffffffffffff92909216910152825250919050565b600061435461434d85856146ef565b8590612d7f565b905060005b82518110156143cc576143b86143b184838151811061438857634e487b7160e01b600052603260045260246000fd5b6020026020010151602001516bffffffffffffffffffffffff16876146ef90919063ffffffff16565b8390612d7f565b9150806143c481615cbf565b915050614359565b509392505050565b60008060006143e7888861019354614e16565b909250905080156144b25784516000906001600160e01b0319166322ba176160e21b141561442e5785602001518060200190518101906144279190615260565b9050614467565b85516001600160e01b03191663025ceed960e61b14156144675760008660200151806020019051810190614462919061527c565b509150505b6144b06040518060400160405280888152602001848152508861448984614e38565b887ff87e69cb514f255f3d32f9d90f25160a10d0cdefe6618a6406db334d4450595c614701565b505b509695505050505050565b845184906001600160e01b03191663025ceed960e61b148015906144f3575085516001600160e01b0319166339d690a360e11b14155b156144fd57613ea0565b6000808760200151806020019051810190614518919061527c565b9150915060006145288383614e76565b905060005b81518110156145fe5760008061456f878b86868151811061455e57634e487b7160e01b600052603260045260246000fd5b602002602001015160200151614e16565b909750879250905080156145e9576145e960405180604001604052808f8152602001838152508a8686815181106145b657634e487b7160e01b600052603260045260246000fd5b6020026020010151600001518b7fb3c5c697ec0b511b76d12f6293e6ee827b1e1df79ac7c64d0466d945904893d7614701565b505080806145f690615cbf565b91505061452d565b505050509695505050505050565b8460005b84518110156144b257600080614660848989868151811061464157634e487b7160e01b600052603260045260246000fd5b6020026020010151602001516bffffffffffffffffffffffff16614e16565b909450849250905080156146da576146da60405180604001604052808c815260200183815250878986815181106146a757634e487b7160e01b600052603260045260246000fd5b602002602001015160000151887fdfdfdaf4cc275341b6776a7ee23b953990b8d991717449077287da70f32cf955614701565b505080806146e790615cbf565b915050614610565b600061125e61271061121e8585612a9d565b8451516001600160e01b0319166355575f5d60e11b141561473a576020850151614735906001600160a01b03851690612d8b565b614abc565b8451516001600160e01b0319166322ba176160e21b14156148265760008560000151602001518060200190518101906147739190615260565b6322ba176160e21b60005260c960209081527fea0f2c387bb995d4fa72ef5fd8f77002182e2f2427114668c9ad6240ba990eb3549088015160405163776062c360e01b81526001600160a01b038085166004830152898116602483015288811660448301526064820192909252929350169063776062c390608401600060405180830381600087803b15801561480857600080fd5b505af115801561481c573d6000803e3d6000fd5b5050505050614abc565b8451516001600160e01b0319166339d690a360e11b141561496557600080866000015160200151806020019051810190614860919061527c565b9150915086602001516001146148b85760405162461bcd60e51b815260206004820152601260248201527f6572633732312076616c7565206572726f7200000000000000000000000000006044820152606401610772565b6339d690a360e11b60005260c96020527fa8c5c9d849afe4566fd6daba687a2a7baa8ffe8bfcac7a0fae545dc26eb71edc54604051637b84dc8360e11b81526001600160a01b03848116600483015288811660248301528781166044830152606482018490529091169063f709b906906084015b600060405180830381600087803b15801561494657600080fd5b505af115801561495a573d6000803e3d6000fd5b505050505050614abc565b8451516001600160e01b03191663025ceed960e61b1415614a3b5760008086600001516020015180602001905181019061499f919061527c565b63025ceed960e61b600090815260c960209081527f6bcb877229283a230d76147c7b081bd9ba65c229d33b4866b30216aeb6e1469a54908b0151604051639c1c2ee960e01b81526001600160a01b0380871660048301528c811660248301528b8116604483015260648201869052608482019290925260c060a482015260c4810193909352939550919350911690639c1c2ee99060e40161492c565b8451516001600160e01b031916600090815260c96020526040908190205490516354bc0cf160e01b81526001600160a01b03909116906354bc0cf190614a89908890889088906004016159e2565b600060405180830381600087803b158015614aa357600080fd5b505af1158015614ab7573d6000803e3d6000fd5b505050505b7fcae9d16f553e92058883de29cb3135dbc0c1e31fd7eace79fef1d80577fe482e8585858585604051614af3959493929190615a15565b60405180910390a15050505050565b60007fdb6f72e915676cfc289da13bc4ece054fd17b1df6d77ffc4a60510718c236b08614b328360000151613763565b60208085015160405161327e949392019283526020830191909152604082015260600190565b60007f7fffffffffffffffffffffffffffffff5d576e7357a4501ddfe92f46681b20a0821115614bd55760405162461bcd60e51b815260206004820152602260248201527f45434453413a20696e76616c6964207369676e6174757265202773272076616c604482015261756560f01b6064820152608401610772565b8360ff16601b1480614bea57508360ff16601c145b614c415760405162461bcd60e51b815260206004820152602260248201527f45434453413a20696e76616c6964207369676e6174757265202776272076616c604482015261756560f01b6064820152608401610772565b6040805160008082526020820180845288905260ff871692820192909252606081018590526080810184905260019060a0016020604051602081039080840390855afa158015614c95573d6000803e3d6000fd5b5050604051601f1901519150506001600160a01b038116614cf85760405162461bcd60e51b815260206004820152601860248201527f45434453413a20696e76616c6964207369676e617475726500000000000000006044820152606401610772565b95945050505050565b60408051808201909152600081526060602082015260208084015180519082012083820151805192019190912080821415614d40578492505050612779565b5050604080518082018252600080825282516020808201909452908152918101919091529392505050565b600082614dba5760405162461bcd60e51b815260206004820152601060248201527f6469766973696f6e206279207a65726f000000000000000000000000000000006044820152606401610772565b811580614dc5575083155b15614dd25750600061125e565b60008380614df057634e487b7160e01b600052601260045260246000fd5b8584099050614dff8584612a9d565b614e0b826103e8612a9d565b101595945050505050565b600080614e2c85614e2786866146ef565b614f7a565b91509150935093915050565b6001600160a01b03808216600090815261019560205260408120549091168015614e625792915050565b5050610194546001600160a01b0316919050565b6040516301ffc9a760e01b815263721049d360e11b60048201526060906001600160a01b038416906301ffc9a79060240160206040518083038186803b158015614ebf57600080fd5b505afa158015614ed3573d6000803e3d6000fd5b505050506040513d601f19601f82011682018060405250810190614ef79190615392565b1561277957604051635d9dd7eb60e11b81526004810183905283906001600160a01b0382169063bb3bafd69060240160006040518083038186803b158015614f3e57600080fd5b505afa158015614f52573d6000803e3d6000fd5b505050506040513d6000823e601f3d908101601f1916820160405261375491908101906152e1565b60008082841115614f9957614f8f8484612a85565b9150829050613224565b50600093915050565b8035613a4681615d06565b600082601f830112614fbd578081fd5b81516020614fd2614fcd83615bd9565b615ba8565b80838252828201915082860187848660061b8901011115614ff1578586fd5b855b8581101561505457604080838b03121561500b578788fd5b615013615b37565b835161501e81615d06565b8152838701516bffffffffffffffffffffffff8116811461503d57898afd5b818801528552938501939190910190600101614ff3565b5090979650505050505050565b8035613a4681615d1b565b600082601f83011261507c578081fd5b813561508a614fcd82615bfd565b81815284602083860101111561509e578283fd5b816020850160208301379081016020019190915292915050565b803560048110613a4657600080fd5b6000604082840312156150d8578081fd5b6150e0615b37565b9050813567ffffffffffffffff808211156150fa57600080fd5b908301906040828603121561510e57600080fd5b615116615b37565b823561512181615d1b565b815260208301358281111561513557600080fd5b6151418782860161506c565b6020830152508084525050506020820135602082015292915050565b6000610120828403121561516f578081fd5b615177615b60565b905061518282614fa2565b8152602082013567ffffffffffffffff8082111561519f57600080fd5b6151ab858386016150c7565b60208401526151bc60408501614fa2565b604084015260608401359150808211156151d557600080fd5b6151e1858386016150c7565b60608401526080840135608084015260a084013560a084015260c084013560c084015261521060e08501615061565b60e08401526101009150818401358181111561522b57600080fd5b6152378682870161506c565b8385015250505092915050565b600060208284031215615255578081fd5b813561125e81615d06565b600060208284031215615271578081fd5b815161125e81615d06565b6000806040838503121561528e578081fd5b825161529981615d06565b6020939093015192949293505050565b600080604083850312156152bb578182fd5b82356152c681615d06565b915060208301356152d681615d06565b809150509250929050565b600060208083850312156152f3578182fd5b825167ffffffffffffffff811115615309578283fd5b8301601f81018513615319578283fd5b8051615327614fcd82615bd9565b80828252848201915084840188868560061b8701011115615346578687fd5b8694505b83851015613b2657604080828b031215615362578788fd5b61536a615b37565b825161537581615d06565b81528288015188820152845260019590950194928601920161534a565b6000602082840312156153a3578081fd5b8151801515811461125e578182fd5b6000602082840312156153c3578081fd5b5035919050565b6000602082840312156153db578081fd5b815161125e81615d1b565b600080604083850312156153f8578182fd5b82356152c681615d1b565b600080600080600060a0868803121561541a578081fd5b853561542581615d06565b9450602086013561543581615d06565b935060408601359250606086013561544c81615d06565b9150608086013561545c81615d06565b809150509295509295909350565b6000602080838503121561547c578182fd5b825167ffffffffffffffff80821115615493578384fd5b90840190604082870312156154a6578384fd5b6154ae615b37565b82516154b981615d1b565b815282840151828111156154cb578586fd5b80840193505086601f8401126154df578485fd5b825191506154ef614fcd83615bfd565b8281528785848601011115615502578586fd5b61551183868301878701615c93565b938101939093525090949350505050565b60006101a08284031215615534578081fd5b61553c615b84565b8235815260208301356020820152604083013560408201526060830135606082015261556a60808401614fa2565b608082015261557b60a08401614fa2565b60a082015261558c60c08401614fa2565b60c082015260e083013560e08201526101006155a98185016150b8565b90820152610120838101359082015261014080840135908201526101608084013590820152610180928301359281019290925250919050565b6000602082840312156155f3578081fd5b815167ffffffffffffffff8082111561560a578283fd5b908301906040828603121561561d578283fd5b615625615b37565b825182811115615633578485fd5b61563f87828601614fad565b825250602083015182811115615653578485fd5b61565f87828601614fad565b60208301525095945050505050565b60008060008060808587031215615683578182fd5b843567ffffffffffffffff8082111561569a578384fd5b6156a68883890161515d565b955060208701359150808211156156bb578384fd5b6156c78883890161506c565b945060408701359150808211156156dc578384fd5b6156e88883890161515d565b935060608701359150808211156156fd578283fd5b5061570a8782880161506c565b91505092959194509250565b60008060006060848603121561572a578081fd5b833567ffffffffffffffff80821115615741578283fd5b61574d8783880161515d565b94506020860135915080821115615762578283fd5b5061576f8682870161515d565b925050604084013590509250925092565b600060208284031215615791578081fd5b5051919050565b600080604083850312156157aa578182fd5b50508035926020909101359150565b60008060008060008060008060006101208a8c0312156157d7578687fd5b8935985060208a0135975060408a0135965060608a01356157f781615d06565b955061580560808b016150b8565b989b979a50959894979660a0860135965060c08601359560e0810135955061010001359350915050565b600060208284031215615840578081fd5b813560ff8116811461125e578182fd5b60008151808452615868816020860160208601615c93565b601f01601f19169290920160200192915050565b6004811061589a57634e487b7160e01b600052602160045260246000fd5b9052565b63ffffffff60e01b815116825260006020820151604060208501526133236040850182615850565b60008151604084526158db604085018261589e565b602093840151949093019390935250919050565b602080825282518282018190526000919060409081850190868401855b8281101561593a57815180516001600160a01b0316855286015186850152928401929085019060010161590c565b5091979650505050505050565b8281526040602082015260006133236040830184615850565b6020808252602e908201527f496e697469616c697a61626c653a20636f6e747261637420697320616c72656160408201527f647920696e697469616c697a6564000000000000000000000000000000000000606082015260800190565b6040815260006159d0604083018561589e565b8281036020840152614cf8818561589e565b6060815260006159f560608301866158c6565b6001600160a01b0394851660208401529290931660409091015292915050565b60a081526000615a2860a08301886158c6565b6001600160a01b0396871660208401529490951660408201526001600160e01b03199283166060820152911660809091015292915050565b6000610120820190508a82528960208301526001600160a01b03891660408301528760608301528660808301528560a0830152615aa060c083018661587c565b60e08201939093526101000152979650505050505050565b8d8152602081018d9052604081018c9052606081018b90526001600160a01b038a8116608083015289811660a0830152881660c082015260e081018790526101a08101615b0961010083018861587c565b856101208301528461014083015283610160830152826101808301529e9d5050505050505050505050505050565b6040805190810167ffffffffffffffff81118282101715615b5a57615b5a615cf0565b60405290565b604051610120810167ffffffffffffffff81118282101715615b5a57615b5a615cf0565b6040516101a0810167ffffffffffffffff81118282101715615b5a57615b5a615cf0565b604051601f8201601f1916810167ffffffffffffffff81118282101715615bd157615bd1615cf0565b604052919050565b600067ffffffffffffffff821115615bf357615bf3615cf0565b5060051b60200190565b600067ffffffffffffffff821115615c1757615c17615cf0565b50601f01601f191660200190565b60008219821115615c3857615c38615cda565b500190565b600082615c5857634e487b7160e01b81526012600452602481fd5b500490565b6000816000190483118215151615615c7757615c77615cda565b500290565b600082821015615c8e57615c8e615cda565b500390565b60005b83811015615cae578181015183820152602001615c96565b8381111561259b5750506000910152565b6000600019821415615cd357615cd3615cda565b5060010190565b634e487b7160e01b600052601160045260246000fd5b634e487b7160e01b600052604160045260246000fd5b6001600160a01b038116811461270557600080fd5b6001600160e01b03198116811461270557600080fdfe4f776e61626c653a2063616c6c6572206973206e6f7420746865206f776e6572a2646970667358221220c23d020a6d563198848987e8ba5fdd57318130f001725e4ace2acb3e074a004664736f6c63430008040033",
  "linkReferences": {},
  "deployedLinkReferences": {}
}