{
  "_format": "hh-sol-artifact-1",
  "contractName": "TestERC1155",
  "sourceName": "contracts/tests/tokens/TestERC1155.sol",
  "abi": [
    {
      "anonymous": false,
      "inputs": [
        {
          "indexed": true,
          "internalType": "address",
          "name": "account",
          "type": "address"
        },
        {
          "indexed": true,
          "internalType": "address",
          "name": "operator",
          "type": "address"
        },
        {
          "indexed": false,
          "internalType": "bool",
          "name": "approved",
          "type": "bool"
        }
      ],
      "name": "ApprovalForAll",
      "type": "event"
    },
    {
      "anonymous": false,
      "inputs": [
        {
          "indexed": true,
          "internalType": "address",
          "name": "operator",
          "type": "address"
        },
        {
          "indexed": true,
          "internalType": "address",
          "name": "from",
          "type": "address"
        },
        {
          "indexed": true,
          "internalType": "address",
          "name": "to",
          "type": "address"
        },
        {
          "indexed": false,
          "internalType": "uint256[]",
          "name": "ids",
          "type": "uint256[]"
        },
        {
          "indexed": false,
          "internalType": "uint256[]",
          "name": "values",
          "type": "uint256[]"
        }
      ],
      "name": "TransferBatch",
      "type": "event"
    },
    {
      "anonymous": false,
      "inputs": [
        {
          "indexed": true,
          "internalType": "address",
          "name": "operator",
          "type": "address"
        },
        {
          "indexed": true,
          "internalType": "address",
          "name": "from",
          "type": "address"
        },
        {
          "indexed": true,
          "internalType": "address",
          "name": "to",
          "type": "address"
        },
        {
          "indexed": false,
          "internalType": "uint256",
          "name": "id",
          "type": "uint256"
        },
        {
          "indexed": false,
          "internalType": "uint256",
          "name": "value",
          "type": "uint256"
        }
      ],
      "name": "TransferSingle",
      "type": "event"
    },
    {
      "anonymous": false,
      "inputs": [
        {
          "indexed": false,
          "internalType": "string",
          "name": "value",
          "type": "string"
        },
        {
          "indexed": true,
          "internalType": "uint256",
          "name": "id",
          "type": "uint256"
        }
      ],
      "name": "URI",
      "type": "event"
    },
    {
      "inputs": [
        {
          "internalType": "address",
          "name": "account",
          "type": "address"
        },
        {
          "internalType": "uint256",
          "name": "id",
          "type": "uint256"
        }
      ],
      "name": "balanceOf",
      "outputs": [
        {
          "internalType": "uint256",
          "name": "",
          "type": "uint256"
        }
      ],
      "stateMutability": "view",
      "type": "function"
    },
    {
      "inputs": [
        {
          "internalType": "address[]",
          "name": "accounts",
          "type": "address[]"
        },
        {
          "internalType": "uint256[]",
          "name": "ids",
          "type": "uint256[]"
        }
      ],
      "name": "balanceOfBatch",
      "outputs": [
        {
          "internalType": "uint256[]",
          "name": "",
          "type": "uint256[]"
        }
      ],
      "stateMutability": "view",
      "type": "function"
    },
    {
      "inputs": [
        {
          "internalType": "address",
          "name": "account",
          "type": "address"
        },
        {
          "internalType": "address",
          "name": "operator",
          "type": "address"
        }
      ],
      "name": "isApprovedForAll",
      "outputs": [
        {
          "internalType": "bool",
          "name": "",
          "type": "bool"
        }
      ],
      "stateMutability": "view",
      "type": "function"
    },
    {
      "inputs": [
        {
          "internalType": "address",
          "name": "to",
          "type": "address"
        },
        {
          "internalType": "uint256",
          "name": "tokenId",
          "type": "uint256"
        },
        {
          "internalType": "uint256",
          "name": "amount",
          "type": "uint256"
        }
      ],
      "name": "mint",
      "outputs": [],
      "stateMutability": "nonpayable",
      "type": "function"
    },
    {
      "inputs": [
        {
          "internalType": "address",
          "name": "from",
          "type": "address"
        },
        {
          "internalType": "address",
          "name": "to",
          "type": "address"
        },
        {
          "internalType": "uint256[]",
          "name": "ids",
          "type": "uint256[]"
        },
        {
          "internalType": "uint256[]",
          "name": "amounts",
          "type": "uint256[]"
        },
        {
          "internalType": "bytes",
          "name": "data",
          "type": "bytes"
        }
      ],
      "name": "safeBatchTransferFrom",
      "outputs": [],
      "stateMutability": "nonpayable",
      "type": "function"
    },
    {
      "inputs": [
        {
          "internalType": "address",
          "name": "from",
          "type": "address"
        },
        {
          "internalType": "address",
          "name": "to",
          "type": "address"
        },
        {
          "internalType": "uint256",
          "name": "id",
          "type": "uint256"
        },
        {
          "internalType": "uint256",
          "name": "amount",
          "type": "uint256"
        },
        {
          "internalType": "bytes",
          "name": "data",
          "type": "bytes"
        }
      ],
      "name": "safeTransferFrom",
      "outputs": [],
      "stateMutability": "nonpayable",
      "type": "function"
    },
    {
      "inputs": [
        {
          "internalType": "address",
          "name": "operator",
          "type": "address"
        },
        {
          "internalType": "bool",
          "name": "approved",
          "type": "bool"
        }
      ],
      "name": "setApprovalForAll",
      "outputs": [],
      "stateMutability": "nonpayable",
      "type": "function"
    },
    {
      "inputs": [
        {
          "internalType": "bytes4",
          "name": "interfaceId",
          "type": "bytes4"
        }
      ],
      "name": "supportsInterface",
      "outputs": [
        {
          "internalType": "bool",
          "name": "",
          "type": "bool"
        }
      ],
      "stateMutability": "view",
      "type": "function"
    },
    {
      "inputs": [
        {
          "internalType": "uint256",
          "name": "",
          "type": "uint256"
        }
      ],
      "name": "uri",
      "outputs": [
        {
          "internalType": "string",
          "name": "",
          "type": "string"
        }
      ],
      "stateMutability": "view",
      "type": "function"
    }
  ],
  "bytecode": "0x608060405234801561001057600080fd5b50611687806100206000396000f3fe608060405234801561001057600080fd5b50600436106100925760003560e01c80632eb2c2d6116100665780632eb2c2d6146101155780634e1273f414610128578063a22cb46514610148578063e985e9c51461015b578063f242432a1461019757600080fd5b8062fdd58e1461009757806301ffc9a7146100bd5780630e89341c146100e0578063156e29f614610100575b600080fd5b6100aa6100a536600461119d565b6101aa565b6040519081526020015b60405180910390f35b6100d06100cb3660046112c3565b610243565b60405190151581526020016100b4565b6100f36100ee366004611302565b610295565b6040516100b49190611481565b61011361010e3660046111c6565b610329565b005b61011361012336600461105a565b610349565b61013b6101363660046111f8565b61069f565b6040516100b49190611440565b610113610156366004611163565b610801565b6100d0610169366004611028565b6001600160a01b03918216600090815260666020908152604080832093909416825291909152205460ff1690565b6101136101a5366004611100565b6108d8565b60006001600160a01b03831661021b5760405162461bcd60e51b815260206004820152602b60248201527f455243313135353a2062616c616e636520717565727920666f7220746865207a60448201526a65726f206164647265737360a81b60648201526084015b60405180910390fd5b5060009081526065602090815260408083206001600160a01b03949094168352929052205490565b60006001600160e01b03198216636cdb3d1360e11b148061027457506001600160e01b031982166303a24d0760e21b145b8061028f57506301ffc9a760e01b6001600160e01b03198316145b92915050565b6060606780546102a4906114e7565b80601f01602080910402602001604051908101604052809291908181526020018280546102d0906114e7565b801561031d5780601f106102f25761010080835404028352916020019161031d565b820191906000526020600020905b81548152906001019060200180831161030057829003601f168201915b50505050509050919050565b61034483838360405180602001604052806000815250610b0d565b505050565b81518351146103ab5760405162461bcd60e51b815260206004820152602860248201527f455243313135353a2069647320616e6420616d6f756e7473206c656e677468206044820152670dad2e6dac2e8c6d60c31b6064820152608401610212565b6001600160a01b03841661040f5760405162461bcd60e51b815260206004820152602560248201527f455243313135353a207472616e7366657220746f20746865207a65726f206164604482015264647265737360d81b6064820152608401610212565b6001600160a01b03851633148061042b575061042b8533610169565b61049d5760405162461bcd60e51b815260206004820152603260248201527f455243313135353a207472616e736665722063616c6c6572206973206e6f742060448201527f6f776e6572206e6f7220617070726f76656400000000000000000000000000006064820152608401610212565b3360005b84518110156106315760008582815181106104cc57634e487b7160e01b600052603260045260246000fd5b6020026020010151905060008583815181106104f857634e487b7160e01b600052603260045260246000fd5b60209081029190910181015160008481526065835260408082206001600160a01b038e16835290935291909120549091508181101561058c5760405162461bcd60e51b815260206004820152602a60248201527f455243313135353a20696e73756666696369656e742062616c616e636520666f60448201526939103a3930b739b332b960b11b6064820152608401610212565b61059682826114d0565b6065600085815260200190815260200160002060008c6001600160a01b03166001600160a01b0316815260200190815260200160002081905550816065600085815260200190815260200160002060008b6001600160a01b03166001600160a01b03168152602001908152602001600020600082825461061691906114b8565b925050819055505050508061062a9061154f565b90506104a1565b50846001600160a01b0316866001600160a01b0316826001600160a01b03167f4a39dc06d4c0dbc64b70af90fd698a233a518aa5d07e595d983b8c0526c8f7fb8787604051610681929190611453565b60405180910390a4610697818787878787610c10565b505050505050565b606081518351146107045760405162461bcd60e51b815260206004820152602960248201527f455243313135353a206163636f756e747320616e6420696473206c656e677468604482015268040dad2e6dac2e8c6d60bb1b6064820152608401610212565b6000835167ffffffffffffffff81111561072e57634e487b7160e01b600052604160045260246000fd5b604051908082528060200260200182016040528015610757578160200160208202803683370190505b50905060005b84518110156107f9576107be85828151811061078957634e487b7160e01b600052603260045260246000fd5b60200260200101518583815181106107b157634e487b7160e01b600052603260045260246000fd5b60200260200101516101aa565b8282815181106107de57634e487b7160e01b600052603260045260246000fd5b60209081029190910101526107f28161154f565b905061075d565b509392505050565b336001600160a01b038316141561086c5760405162461bcd60e51b815260206004820152602960248201527f455243313135353a2073657474696e6720617070726f76616c20737461747573604482015268103337b91039b2b63360b91b6064820152608401610212565b3360008181526066602090815260408083206001600160a01b03871680855290835292819020805460ff191686151590811790915590519081529192917f17307eab39ab6107e8899845ad3d59bd9653f200f220920489ca2b5937696c31910160405180910390a35050565b6001600160a01b03841661093c5760405162461bcd60e51b815260206004820152602560248201527f455243313135353a207472616e7366657220746f20746865207a65726f206164604482015264647265737360d81b6064820152608401610212565b6001600160a01b03851633148061095857506109588533610169565b6109b65760405162461bcd60e51b815260206004820152602960248201527f455243313135353a2063616c6c6572206973206e6f74206f776e6572206e6f7260448201526808185c1c1c9bdd995960ba1b6064820152608401610212565b336109d68187876109c688610dc5565b6109cf88610dc5565b5050505050565b60008481526065602090815260408083206001600160a01b038a16845290915290205483811015610a5c5760405162461bcd60e51b815260206004820152602a60248201527f455243313135353a20696e73756666696369656e742062616c616e636520666f60448201526939103a3930b739b332b960b11b6064820152608401610212565b610a6684826114d0565b60008681526065602090815260408083206001600160a01b038c81168552925280832093909355881681529081208054869290610aa49084906114b8565b909155505060408051868152602081018690526001600160a01b03808916928a821692918616917fc3d58168c5ae7397731d063d5bbf3d657854427343f4c083240f7aacaa2d0f62910160405180910390a4610b04828888888888610e1e565b50505050505050565b6001600160a01b038416610b6d5760405162461bcd60e51b815260206004820152602160248201527f455243313135353a206d696e7420746f20746865207a65726f206164647265736044820152607360f81b6064820152608401610212565b33610b7e816000876109c688610dc5565b60008481526065602090815260408083206001600160a01b038916845290915281208054859290610bb09084906114b8565b909155505060408051858152602081018590526001600160a01b0380881692600092918516917fc3d58168c5ae7397731d063d5bbf3d657854427343f4c083240f7aacaa2d0f62910160405180910390a46109cf81600087878787610e1e565b6001600160a01b0384163b156106975760405163bc197c8160e01b81526001600160a01b0385169063bc197c8190610c54908990899088908890889060040161139f565b602060405180830381600087803b158015610c6e57600080fd5b505af1925050508015610c9e575060408051601f3d908101601f19168201909252610c9b918101906112e6565b60015b610d5457610caa611596565b806308c379a01415610ce45750610cbf6115ae565b80610cca5750610ce6565b8060405162461bcd60e51b81526004016102129190611481565b505b60405162461bcd60e51b815260206004820152603460248201527f455243313135353a207472616e7366657220746f206e6f6e204552433131353560448201527f526563656976657220696d706c656d656e7465720000000000000000000000006064820152608401610212565b6001600160e01b0319811663bc197c8160e01b14610b045760405162461bcd60e51b815260206004820152602860248201527f455243313135353a204552433131353552656365697665722072656a656374656044820152676420746f6b656e7360c01b6064820152608401610212565b60408051600180825281830190925260609160009190602080830190803683370190505090508281600081518110610e0d57634e487b7160e01b600052603260045260246000fd5b602090810291909101015292915050565b6001600160a01b0384163b156106975760405163f23a6e6160e01b81526001600160a01b0385169063f23a6e6190610e6290899089908890889088906004016113fd565b602060405180830381600087803b158015610e7c57600080fd5b505af1925050508015610eac575060408051601f3d908101601f19168201909252610ea9918101906112e6565b60015b610eb857610caa611596565b6001600160e01b0319811663f23a6e6160e01b14610b045760405162461bcd60e51b815260206004820152602860248201527f455243313135353a204552433131353552656365697665722072656a656374656044820152676420746f6b656e7360c01b6064820152608401610212565b80356001600160a01b0381168114610f4057600080fd5b919050565b600082601f830112610f55578081fd5b81356020610f6282611494565b604051610f6f8282611522565b8381528281019150858301600585901b87018401881015610f8e578586fd5b855b85811015610fac57813584529284019290840190600101610f90565b5090979650505050505050565b600082601f830112610fc9578081fd5b813567ffffffffffffffff811115610fe357610fe3611580565b604051610ffa601f8301601f191660200182611522565b81815284602083860101111561100e578283fd5b816020850160208301379081016020019190915292915050565b6000806040838503121561103a578182fd5b61104383610f29565b915061105160208401610f29565b90509250929050565b600080600080600060a08688031215611071578081fd5b61107a86610f29565b945061108860208701610f29565b9350604086013567ffffffffffffffff808211156110a4578283fd5b6110b089838a01610f45565b945060608801359150808211156110c5578283fd5b6110d189838a01610f45565b935060808801359150808211156110e6578283fd5b506110f388828901610fb9565b9150509295509295909350565b600080600080600060a08688031215611117578081fd5b61112086610f29565b945061112e60208701610f29565b93506040860135925060608601359150608086013567ffffffffffffffff811115611157578182fd5b6110f388828901610fb9565b60008060408385031215611175578182fd5b61117e83610f29565b915060208301358015158114611192578182fd5b809150509250929050565b600080604083850312156111af578182fd5b6111b883610f29565b946020939093013593505050565b6000806000606084860312156111da578283fd5b6111e384610f29565b95602085013595506040909401359392505050565b6000806040838503121561120a578182fd5b823567ffffffffffffffff80821115611221578384fd5b818501915085601f830112611234578384fd5b8135602061124182611494565b60405161124e8282611522565b8381528281019150858301600585901b870184018b101561126d578889fd5b8896505b848710156112965761128281610f29565b835260019690960195918301918301611271565b50965050860135925050808211156112ac578283fd5b506112b985828601610f45565b9150509250929050565b6000602082840312156112d4578081fd5b81356112df81611638565b9392505050565b6000602082840312156112f7578081fd5b81516112df81611638565b600060208284031215611313578081fd5b5035919050565b6000815180845260208085019450808401835b838110156113495781518752958201959082019060010161132d565b509495945050505050565b60008151808452815b818110156113795760208185018101518683018201520161135d565b8181111561138a5782602083870101525b50601f01601f19169290920160200192915050565b60006001600160a01b03808816835280871660208401525060a060408301526113cb60a083018661131a565b82810360608401526113dd818661131a565b905082810360808401526113f18185611354565b98975050505050505050565b60006001600160a01b03808816835280871660208401525084604083015283606083015260a0608083015261143560a0830184611354565b979650505050505050565b6020815260006112df602083018461131a565b604081526000611466604083018561131a565b8281036020840152611478818561131a565b95945050505050565b6020815260006112df6020830184611354565b600067ffffffffffffffff8211156114ae576114ae611580565b5060051b60200190565b600082198211156114cb576114cb61156a565b500190565b6000828210156114e2576114e261156a565b500390565b600181811c908216806114fb57607f821691505b6020821081141561151c57634e487b7160e01b600052602260045260246000fd5b50919050565b601f8201601f1916810167ffffffffffffffff8111828210171561154857611548611580565b6040525050565b60006000198214156115635761156361156a565b5060010190565b634e487b7160e01b600052601160045260246000fd5b634e487b7160e01b600052604160045260246000fd5b600060033d11156115ab57600481823e5160e01c5b90565b600060443d10156115bc5790565b6040516003193d81016004833e81513d67ffffffffffffffff81602484011181841117156115ec57505050505090565b82850191508151818111156116045750505050505090565b843d870101602082850101111561161e5750505050505090565b61162d60208286010187611522565b509095945050505050565b6001600160e01b03198116811461164e57600080fd5b5056fea2646970667358221220c6c5ecaf08911a84d46bfe8afd5d574c4ebd4eab27f5bf35087208f2984b1b1364736f6c63430008040033",
  "linkReferences": {},
  "deployedLinkReferences": {}
}