{
  "address": "0x68efd84E9Fe2D36c36243dEB2E9B1d3d3cd15423",
  "abi": [
    {
      "inputs": [
        {
          "components": [
            {
              "internalType": "bytes4",
              "name": "assetClass",
              "type": "bytes4"
            },
            {
              "internalType": "bytes",
              "name": "data",
              "type": "bytes"
            }
          ],
          "internalType": "struct LibAsset.AssetType",
          "name": "leftAssetType",
          "type": "tuple"
        },
        {
          "components": [
            {
              "internalType": "bytes4",
              "name": "assetClass",
              "type": "bytes4"
            },
            {
              "internalType": "bytes",
              "name": "data",
              "type": "bytes"
            }
          ],
          "internalType": "struct LibAsset.AssetType",
          "name": "rightAssetType",
          "type": "tuple"
        }
      ],
      "name": "matchAssets",
      "outputs": [
        {
          "components": [
            {
              "internalType": "bytes4",
              "name": "assetClass",
              "type": "bytes4"
            },
            {
              "internalType": "bytes",
              "name": "data",
              "type": "bytes"
            }
          ],
          "internalType": "struct LibAsset.AssetType",
          "name": "",
          "type": "tuple"
        }
      ],
      "stateMutability": "pure",
      "type": "function"
    }
  ],
  "transactionHash": "0xb06e925ff6e382293da27e7d999412bf175ae9246db12c1f546a71ff295d3abf",
  "args": [],
  "solcInputHash": "c38a6f56aac05d03a4a1582c032d6571",
  "bytecode": "0x608060405234801561001057600080fd5b50610444806100206000396000f3fe608060405234801561001057600080fd5b506004361061002b5760003560e01c80636d3f7cb014610030575b600080fd5b61004361003e3660046102d0565b610059565b6040516100509190610334565b60405180910390f35b60408051808201909152600081526060602082015281516001600160e01b0319166339d690a360e11b148061009f575081516001600160e01b03191663025ceed960e61b145b806100bb575081516001600160e01b03191663d8f960c160e01b145b806100d6575081516001600160e01b03191662737ea960e61b145b806100f2575081516001600160e01b031916630f9ae27560e21b145b15610178576000836020015180602001905181019061011191906103c0565b90506000836020015180602001905181019061012d91906103e2565b509050806001600160a01b0316826001600160a01b031614156101755750506040805180820190915282516001600160e01b031916815260208084015190820152905061019c565b50505b50604080518082018252600080825282516020818101909452908152918101919091525b92915050565b634e487b7160e01b600052604160045260246000fd5b6040805190810167ffffffffffffffff811182821017156101db576101db6101a2565b60405290565b604051601f8201601f1916810167ffffffffffffffff8111828210171561020a5761020a6101a2565b604052919050565b60006040828403121561022457600080fd5b61022c6101b8565b905081356001600160e01b03198116811461024657600080fd5b815260208281013567ffffffffffffffff8082111561026457600080fd5b818501915085601f83011261027857600080fd5b81358181111561028a5761028a6101a2565b61029c601f8201601f191685016101e1565b915080825286848285010111156102b257600080fd5b80848401858401376000908201840152918301919091525092915050565b600080604083850312156102e357600080fd5b823567ffffffffffffffff808211156102fb57600080fd5b61030786838701610212565b9350602085013591508082111561031d57600080fd5b5061032a85828601610212565b9150509250929050565b6000602080835263ffffffff60e01b8451168184015280840151604080850152805180606086015260005b8181101561037b5782810184015186820160800152830161035f565b8181111561038d576000608083880101525b50601f01601f191693909301608001949350505050565b80516001600160a01b03811681146103bb57600080fd5b919050565b6000602082840312156103d257600080fd5b6103db826103a4565b9392505050565b600080604083850312156103f557600080fd5b6103fe836103a4565b915060208301519050925092905056fea264697066735822122040b9e675911b3dfcf3d976026d5ebe6ca1f8f6cb9b0946f4e44b966d9b4939d264736f6c63430008090033",
  "devdoc": {
    "kind": "dev",
    "methods": {},
    "version": 1
  },
  "userdoc": {
    "kind": "user",
    "methods": {},
    "version": 1
  },
  "storageLayout": {
    "storage": [],
    "types": null
  }
}