{
  "address": "0xB18ADd37213F82Ec5443aF12f587bD30bc2f6238",
  "abi": [
    {
      "anonymous": false,
      "inputs": [
        {
          "indexed": false,
          "internalType": "bool",
          "name": "result",
          "type": "bool"
        },
        {
          "indexed": true,
          "internalType": "address",
          "name": "sender",
          "type": "address"
        }
      ],
      "name": "Execution",
      "type": "event"
    },
    {
      "anonymous": false,
      "inputs": [
        {
          "indexed": false,
          "internalType": "uint8",
          "name": "version",
          "type": "uint8"
        }
      ],
      "name": "Initialized",
      "type": "event"
    },
    {
      "anonymous": false,
      "inputs": [
        {
          "indexed": true,
          "internalType": "address",
          "name": "previousOwner",
          "type": "address"
        },
        {
          "indexed": true,
          "internalType": "address",
          "name": "newOwner",
          "type": "address"
        }
      ],
      "name": "OwnershipTransferred",
      "type": "event"
    },
    {
      "anonymous": false,
      "inputs": [
        {
          "indexed": false,
          "internalType": "address",
          "name": "account",
          "type": "address"
        }
      ],
      "name": "Paused",
      "type": "event"
    },
    {
      "anonymous": false,
      "inputs": [
        {
          "indexed": false,
          "internalType": "address",
          "name": "account",
          "type": "address"
        }
      ],
      "name": "Unpaused",
      "type": "event"
    },
    {
      "inputs": [
        {
          "internalType": "address",
          "name": "_exchangeV2",
          "type": "address"
        },
        {
          "internalType": "address",
          "name": "_rarible",
          "type": "address"
        },
        {
          "internalType": "address",
          "name": "_wyvern",
          "type": "address"
        },
        {
          "internalType": "address",
          "name": "_seaport",
          "type": "address"
        },
        {
          "internalType": "address",
          "name": "_x2y2",
          "type": "address"
        },
        {
          "internalType": "address",
          "name": "_looksrare",
          "type": "address"
        },
        {
          "internalType": "address",
          "name": "_sudoswap",
          "type": "address"
        },
        {
          "internalType": "address",
          "name": "_blur",
          "type": "address"
        }
      ],
      "name": "__ExchangeWrapper_init",
      "outputs": [],
      "stateMutability": "nonpayable",
      "type": "function"
    },
    {
      "inputs": [],
      "name": "blur",
      "outputs": [
        {
          "internalType": "address",
          "name": "",
          "type": "address"
        }
      ],
      "stateMutability": "view",
      "type": "function"
    },
    {
      "inputs": [
        {
          "components": [
            {
              "internalType": "enum ExchangeWrapperCore.Markets",
              "name": "marketId",
              "type": "uint8"
            },
            {
              "internalType": "uint256",
              "name": "amount",
              "type": "uint256"
            },
            {
              "internalType": "uint256",
              "name": "fees",
              "type": "uint256"
            },
            {
              "internalType": "bytes",
              "name": "data",
              "type": "bytes"
            }
          ],
          "internalType": "struct ExchangeWrapperCore.PurchaseDetails[]",
          "name": "purchaseDetails",
          "type": "tuple[]"
        },
        {
          "internalType": "address",
          "name": "feeRecipientFirst",
          "type": "address"
        },
        {
          "internalType": "address",
          "name": "feeRecipientSecond",
          "type": "address"
        },
        {
          "internalType": "bool",
          "name": "allowFail",
          "type": "bool"
        }
      ],
      "name": "bulkPurchase",
      "outputs": [],
      "stateMutability": "payable",
      "type": "function"
    },
    {
      "inputs": [
        {
          "components": [
            {
              "internalType": "enum ExchangeWrapperCore.Markets",
              "name": "marketId",
              "type": "uint8"
            },
            {
              "internalType": "uint256",
              "name": "amount",
              "type": "uint256"
            },
            {
              "internalType": "uint256",
              "name": "fees",
              "type": "uint256"
            },
            {
              "internalType": "bytes",
              "name": "data",
              "type": "bytes"
            }
          ],
          "internalType": "struct ExchangeWrapperCore.PurchaseDetails[]",
          "name": "purchaseDetails",
          "type": "tuple[]"
        },
        {
          "internalType": "address",
          "name": "feeRecipientFirst",
          "type": "address"
        },
        {
          "internalType": "address",
          "name": "feeRecipientSecond",
          "type": "address"
        },
        {
          "internalType": "bool",
          "name": "allowFail",
          "type": "bool"
        },
        {
          "components": [
            {
              "internalType": "bytes",
              "name": "path",
              "type": "bytes"
            },
            {
              "internalType": "uint256",
              "name": "amountOut",
              "type": "uint256"
            },
            {
              "internalType": "uint256",
              "name": "amountInMaximum",
              "type": "uint256"
            },
            {
              "internalType": "bool",
              "name": "unwrap",
              "type": "bool"
            }
          ],
          "internalType": "struct ExchangeWrapperCore.SwapDetailsIn",
          "name": "swapDetails",
          "type": "tuple"
        }
      ],
      "name": "bulkPurchaseWithSwap",
      "outputs": [],
      "stateMutability": "payable",
      "type": "function"
    },
    {
      "inputs": [
        {
          "components": [
            {
              "internalType": "enum ExchangeWrapperCore.Markets",
              "name": "marketId",
              "type": "uint8"
            },
            {
              "internalType": "uint256",
              "name": "amount",
              "type": "uint256"
            },
            {
              "internalType": "uint256",
              "name": "fees",
              "type": "uint256"
            },
            {
              "internalType": "bytes",
              "name": "data",
              "type": "bytes"
            }
          ],
          "internalType": "struct ExchangeWrapperCore.PurchaseDetails[]",
          "name": "purchaseDetails",
          "type": "tuple[]"
        },
        {
          "internalType": "address",
          "name": "feeRecipientFirst",
          "type": "address"
        },
        {
          "internalType": "address",
          "name": "feeRecipientSecond",
          "type": "address"
        },
        {
          "internalType": "bool",
          "name": "allowFail",
          "type": "bool"
        },
        {
          "components": [
            {
              "internalType": "address[]",
              "name": "path",
              "type": "address[]"
            },
            {
              "internalType": "uint256",
              "name": "amountOut",
              "type": "uint256"
            },
            {
              "internalType": "uint256",
              "name": "amountInMaximum",
              "type": "uint256"
            },
            {
              "internalType": "uint256[]",
              "name": "binSteps",
              "type": "uint256[]"
            },
            {
              "internalType": "bool",
              "name": "unwrap",
              "type": "bool"
            }
          ],
          "internalType": "struct ExchangeWrapperCore.SwapV2DetailsIn",
          "name": "swapDetails",
          "type": "tuple"
        }
      ],
      "name": "bulkPurchaseWithV2Swap",
      "outputs": [],
      "stateMutability": "payable",
      "type": "function"
    },
    {
      "inputs": [],
      "name": "erc20TransferProxy",
      "outputs": [
        {
          "internalType": "address",
          "name": "",
          "type": "address"
        }
      ],
      "stateMutability": "view",
      "type": "function"
    },
    {
      "inputs": [],
      "name": "exchangeV2",
      "outputs": [
        {
          "internalType": "address",
          "name": "",
          "type": "address"
        }
      ],
      "stateMutability": "view",
      "type": "function"
    },
    {
      "inputs": [],
      "name": "looksrare",
      "outputs": [
        {
          "internalType": "address",
          "name": "",
          "type": "address"
        }
      ],
      "stateMutability": "view",
      "type": "function"
    },
    {
      "inputs": [
        {
          "internalType": "address",
          "name": "",
          "type": "address"
        },
        {
          "internalType": "address",
          "name": "",
          "type": "address"
        },
        {
          "internalType": "uint256[]",
          "name": "",
          "type": "uint256[]"
        },
        {
          "internalType": "uint256[]",
          "name": "",
          "type": "uint256[]"
        },
        {
          "internalType": "bytes",
          "name": "",
          "type": "bytes"
        }
      ],
      "name": "onERC1155BatchReceived",
      "outputs": [
        {
          "internalType": "bytes4",
          "name": "",
          "type": "bytes4"
        }
      ],
      "stateMutability": "nonpayable",
      "type": "function"
    },
    {
      "inputs": [
        {
          "internalType": "address",
          "name": "",
          "type": "address"
        },
        {
          "internalType": "address",
          "name": "",
          "type": "address"
        },
        {
          "internalType": "uint256",
          "name": "",
          "type": "uint256"
        },
        {
          "internalType": "uint256",
          "name": "",
          "type": "uint256"
        },
        {
          "internalType": "bytes",
          "name": "",
          "type": "bytes"
        }
      ],
      "name": "onERC1155Received",
      "outputs": [
        {
          "internalType": "bytes4",
          "name": "",
          "type": "bytes4"
        }
      ],
      "stateMutability": "nonpayable",
      "type": "function"
    },
    {
      "inputs": [
        {
          "internalType": "address",
          "name": "",
          "type": "address"
        },
        {
          "internalType": "address",
          "name": "",
          "type": "address"
        },
        {
          "internalType": "uint256",
          "name": "",
          "type": "uint256"
        },
        {
          "internalType": "bytes",
          "name": "",
          "type": "bytes"
        }
      ],
      "name": "onERC721Received",
      "outputs": [
        {
          "internalType": "bytes4",
          "name": "",
          "type": "bytes4"
        }
      ],
      "stateMutability": "nonpayable",
      "type": "function"
    },
    {
      "inputs": [],
      "name": "owner",
      "outputs": [
        {
          "internalType": "address",
          "name": "",
          "type": "address"
        }
      ],
      "stateMutability": "view",
      "type": "function"
    },
    {
      "inputs": [],
      "name": "pause",
      "outputs": [],
      "stateMutability": "nonpayable",
      "type": "function"
    },
    {
      "inputs": [],
      "name": "paused",
      "outputs": [
        {
          "internalType": "bool",
          "name": "",
          "type": "bool"
        }
      ],
      "stateMutability": "view",
      "type": "function"
    },
    {
      "inputs": [],
      "name": "rarible",
      "outputs": [
        {
          "internalType": "address",
          "name": "",
          "type": "address"
        }
      ],
      "stateMutability": "view",
      "type": "function"
    },
    {
      "inputs": [],
      "name": "renounceOwnership",
      "outputs": [],
      "stateMutability": "nonpayable",
      "type": "function"
    },
    {
      "inputs": [],
      "name": "seaport",
      "outputs": [
        {
          "internalType": "address",
          "name": "",
          "type": "address"
        }
      ],
      "stateMutability": "view",
      "type": "function"
    },
    {
      "inputs": [
        {
          "internalType": "address",
          "name": "_blur",
          "type": "address"
        }
      ],
      "name": "setBlur",
      "outputs": [],
      "stateMutability": "nonpayable",
      "type": "function"
    },
    {
      "inputs": [
        {
          "internalType": "address",
          "name": "_rarible",
          "type": "address"
        }
      ],
      "name": "setRarible",
      "outputs": [],
      "stateMutability": "nonpayable",
      "type": "function"
    },
    {
      "inputs": [
        {
          "internalType": "address",
          "name": "_erc20TransferProxy",
          "type": "address"
        }
      ],
      "name": "setTransferProxy",
      "outputs": [],
      "stateMutability": "nonpayable",
      "type": "function"
    },
    {
      "inputs": [
        {
          "internalType": "contract ISwapRouterV2",
          "name": "_uniswapRouterV2",
          "type": "address"
        }
      ],
      "name": "setUniswapV2",
      "outputs": [],
      "stateMutability": "nonpayable",
      "type": "function"
    },
    {
      "inputs": [
        {
          "internalType": "contract ISwapRouterV3",
          "name": "_uniswapRouterV3",
          "type": "address"
        }
      ],
      "name": "setUniswapV3",
      "outputs": [],
      "stateMutability": "nonpayable",
      "type": "function"
    },
    {
      "inputs": [
        {
          "internalType": "address",
          "name": "_wrappedToken",
          "type": "address"
        }
      ],
      "name": "setWrapped",
      "outputs": [],
      "stateMutability": "nonpayable",
      "type": "function"
    },
    {
      "inputs": [
        {
          "components": [
            {
              "internalType": "enum ExchangeWrapperCore.Markets",
              "name": "marketId",
              "type": "uint8"
            },
            {
              "internalType": "uint256",
              "name": "amount",
              "type": "uint256"
            },
            {
              "internalType": "uint256",
              "name": "fees",
              "type": "uint256"
            },
            {
              "internalType": "bytes",
              "name": "data",
              "type": "bytes"
            }
          ],
          "internalType": "struct ExchangeWrapperCore.PurchaseDetails",
          "name": "purchaseDetails",
          "type": "tuple"
        },
        {
          "internalType": "address",
          "name": "feeRecipientFirst",
          "type": "address"
        },
        {
          "internalType": "address",
          "name": "feeRecipientSecond",
          "type": "address"
        }
      ],
      "name": "singlePurchase",
      "outputs": [],
      "stateMutability": "payable",
      "type": "function"
    },
    {
      "inputs": [],
      "name": "sudoswap",
      "outputs": [
        {
          "internalType": "address",
          "name": "",
          "type": "address"
        }
      ],
      "stateMutability": "view",
      "type": "function"
    },
    {
      "inputs": [
        {
          "internalType": "bytes4",
          "name": "interfaceId",
          "type": "bytes4"
        }
      ],
      "name": "supportsInterface",
      "outputs": [
        {
          "internalType": "bool",
          "name": "",
          "type": "bool"
        }
      ],
      "stateMutability": "view",
      "type": "function"
    },
    {
      "inputs": [
        {
          "components": [
            {
              "internalType": "bytes",
              "name": "path",
              "type": "bytes"
            },
            {
              "internalType": "uint256",
              "name": "amountIn",
              "type": "uint256"
            },
            {
              "internalType": "uint256",
              "name": "amountOutMinimum",
              "type": "uint256"
            },
            {
              "internalType": "bool",
              "name": "unwrap",
              "type": "bool"
            }
          ],
          "internalType": "struct ExchangeWrapperCore.SwapDetailsOut",
          "name": "swapDetails",
          "type": "tuple"
        }
      ],
      "name": "swapExactTokensForTokens",
      "outputs": [
        {
          "internalType": "bool",
          "name": "",
          "type": "bool"
        }
      ],
      "stateMutability": "payable",
      "type": "function"
    },
    {
      "inputs": [
        {
          "components": [
            {
              "internalType": "bytes",
              "name": "path",
              "type": "bytes"
            },
            {
              "internalType": "uint256",
              "name": "amountOut",
              "type": "uint256"
            },
            {
              "internalType": "uint256",
              "name": "amountInMaximum",
              "type": "uint256"
            },
            {
              "internalType": "bool",
              "name": "unwrap",
              "type": "bool"
            }
          ],
          "internalType": "struct ExchangeWrapperCore.SwapDetailsIn",
          "name": "swapDetails",
          "type": "tuple"
        }
      ],
      "name": "swapTokensForExactTokens",
      "outputs": [
        {
          "internalType": "bool",
          "name": "",
          "type": "bool"
        }
      ],
      "stateMutability": "payable",
      "type": "function"
    },
    {
      "inputs": [
        {
          "components": [
            {
              "internalType": "address[]",
              "name": "path",
              "type": "address[]"
            },
            {
              "internalType": "uint256",
              "name": "amountIn",
              "type": "uint256"
            },
            {
              "internalType": "uint256",
              "name": "amountOutMinimum",
              "type": "uint256"
            },
            {
              "internalType": "uint256[]",
              "name": "binSteps",
              "type": "uint256[]"
            },
            {
              "internalType": "bool",
              "name": "unwrap",
              "type": "bool"
            }
          ],
          "internalType": "struct ExchangeWrapperCore.SwapV2DetailsOut",
          "name": "swapDetails",
          "type": "tuple"
        }
      ],
      "name": "swapV2ExactETHOrWETHForTokens",
      "outputs": [
        {
          "internalType": "bool",
          "name": "",
          "type": "bool"
        }
      ],
      "stateMutability": "payable",
      "type": "function"
    },
    {
      "inputs": [
        {
          "components": [
            {
              "internalType": "address[]",
              "name": "path",
              "type": "address[]"
            },
            {
              "internalType": "uint256",
              "name": "amountIn",
              "type": "uint256"
            },
            {
              "internalType": "uint256",
              "name": "amountOutMinimum",
              "type": "uint256"
            },
            {
              "internalType": "uint256[]",
              "name": "binSteps",
              "type": "uint256[]"
            },
            {
              "internalType": "bool",
              "name": "unwrap",
              "type": "bool"
            }
          ],
          "internalType": "struct ExchangeWrapperCore.SwapV2DetailsOut",
          "name": "swapDetails",
          "type": "tuple"
        }
      ],
      "name": "swapV2ExactTokensForTokens",
      "outputs": [
        {
          "internalType": "bool",
          "name": "",
          "type": "bool"
        }
      ],
      "stateMutability": "nonpayable",
      "type": "function"
    },
    {
      "inputs": [
        {
          "components": [
            {
              "internalType": "address[]",
              "name": "path",
              "type": "address[]"
            },
            {
              "internalType": "uint256",
              "name": "amountOut",
              "type": "uint256"
            },
            {
              "internalType": "uint256",
              "name": "amountInMaximum",
              "type": "uint256"
            },
            {
              "internalType": "uint256[]",
              "name": "binSteps",
              "type": "uint256[]"
            },
            {
              "internalType": "bool",
              "name": "unwrap",
              "type": "bool"
            }
          ],
          "internalType": "struct ExchangeWrapperCore.SwapV2DetailsIn",
          "name": "swapDetails",
          "type": "tuple"
        }
      ],
      "name": "swapV2TokensForExactETHOrWETH",
      "outputs": [
        {
          "internalType": "bool",
          "name": "",
          "type": "bool"
        }
      ],
      "stateMutability": "nonpayable",
      "type": "function"
    },
    {
      "inputs": [
        {
          "components": [
            {
              "internalType": "address[]",
              "name": "path",
              "type": "address[]"
            },
            {
              "internalType": "uint256",
              "name": "amountOut",
              "type": "uint256"
            },
            {
              "internalType": "uint256",
              "name": "amountInMaximum",
              "type": "uint256"
            },
            {
              "internalType": "uint256[]",
              "name": "binSteps",
              "type": "uint256[]"
            },
            {
              "internalType": "bool",
              "name": "unwrap",
              "type": "bool"
            }
          ],
          "internalType": "struct ExchangeWrapperCore.SwapV2DetailsIn",
          "name": "swapDetails",
          "type": "tuple"
        }
      ],
      "name": "swapV2TokensForExactTokens",
      "outputs": [
        {
          "internalType": "bool",
          "name": "",
          "type": "bool"
        }
      ],
      "stateMutability": "nonpayable",
      "type": "function"
    },
    {
      "inputs": [
        {
          "internalType": "address",
          "name": "newOwner",
          "type": "address"
        }
      ],
      "name": "transferOwnership",
      "outputs": [],
      "stateMutability": "nonpayable",
      "type": "function"
    },
    {
      "inputs": [],
      "name": "uniswapRouterV2",
      "outputs": [
        {
          "internalType": "contract ISwapRouterV2",
          "name": "",
          "type": "address"
        }
      ],
      "stateMutability": "view",
      "type": "function"
    },
    {
      "inputs": [],
      "name": "uniswapRouterV3",
      "outputs": [
        {
          "internalType": "contract ISwapRouterV3",
          "name": "",
          "type": "address"
        }
      ],
      "stateMutability": "view",
      "type": "function"
    },
    {
      "inputs": [],
      "name": "unpause",
      "outputs": [],
      "stateMutability": "nonpayable",
      "type": "function"
    },
    {
      "inputs": [],
      "name": "wrappedToken",
      "outputs": [
        {
          "internalType": "address",
          "name": "",
          "type": "address"
        }
      ],
      "stateMutability": "view",
      "type": "function"
    },
    {
      "inputs": [],
      "name": "wyvern",
      "outputs": [
        {
          "internalType": "address",
          "name": "",
          "type": "address"
        }
      ],
      "stateMutability": "view",
      "type": "function"
    },
    {
      "inputs": [],
      "name": "x2y2",
      "outputs": [
        {
          "internalType": "address",
          "name": "",
          "type": "address"
        }
      ],
      "stateMutability": "view",
      "type": "function"
    },
    {
      "stateMutability": "payable",
      "type": "receive"
    }
  ],
  "transactionHash": "0x3d8ca286b5f54f68cf75178a265e304db5376c081d05673935deafef3842eba3",
  "args": [],
  "numDeployments": 1,
  "solcInputHash": "ef612943a6d569808c6e386591a30bb6",
  "bytecode": "0x608060405234801561001057600080fd5b506154d8806100206000396000f3fe6080604052600436106102245760003560e01c806387653f801161012e578063c4e55fd3116100ab578063f23a6e611161006f578063f23a6e6114610649578063f2fde38b14610675578063f5c7bd7014610695578063fc40c9c7146106b5578063fee03e9e146106d557600080fd5b8063c4e55fd3146105b6578063c6d0ffd7146105d6578063cd7f4a0f146105f6578063cdb8950a14610609578063df6c25581461062957600080fd5b8063a8e90b57116100f2578063a8e90b5714610517578063aa78ae9314610537578063b94ee33214610557578063bc197c811461056a578063c1aa29381461059657600080fd5b806387653f80146104865780638ae42905146104995780638da5cb5b146104b9578063996c6cc3146104d7578063a05f32dc146104f757600080fd5b8063596fa9e3116101bc57806373a963d71161018057806373a963d71461040b5780637908716c1461042b578063819092191461044b5780638456cb591461045e57806386496e7a1461047357600080fd5b8063596fa9e31461037e57806359e868291461039e5780635c975abb146103be5780635ea1e4c9146103d6578063715018a6146103f657600080fd5b806301ffc9a71461023057806308b1571d1461026557806310f91b0b14610287578063150b7a02146102bf57806319bcbcad146103035780632bf92a4314610323578063348c4efd146103365780633f4ba83a146103495780634edfc9f91461035e57600080fd5b3661022b57005b600080fd5b34801561023c57600080fd5b5061025061024b36600461370d565b6106f5565b60405190151581526020015b60405180910390f35b34801561027157600080fd5b5061028561028036600461373f565b61072c565b005b34801561029357600080fd5b5060a0546102a7906001600160a01b031681565b6040516001600160a01b03909116815260200161025c565b3480156102cb57600080fd5b506102ea6102da366004613938565b630a85bd0160e11b949350505050565b6040516001600160e01b0319909116815260200161025c565b34801561030f57600080fd5b5061025061031e366004613b3b565b610756565b610285610331366004613c73565b610c61565b610285610344366004613d82565b610d2a565b34801561035557600080fd5b50610285610d5c565b34801561036a57600080fd5b506099546102a7906001600160a01b031681565b34801561038a57600080fd5b50609f546102a7906001600160a01b031681565b3480156103aa57600080fd5b506102856103b936600461373f565b610d6e565b3480156103ca57600080fd5b5060655460ff16610250565b3480156103e257600080fd5b50609d546102a7906001600160a01b031681565b34801561040257600080fd5b50610285610d98565b34801561041757600080fd5b5061028561042636600461373f565b610daa565b34801561043757600080fd5b5061028561044636600461373f565b610dd4565b610250610459366004613e23565b610dfe565b34801561046a57600080fd5b506102856112db565b610285610481366004613e57565b6112eb565b610250610494366004613e23565b611370565b3480156104a557600080fd5b506102856104b436600461373f565b611766565b3480156104c557600080fd5b506033546001600160a01b03166102a7565b3480156104e357600080fd5b5060a1546102a7906001600160a01b031681565b34801561050357600080fd5b506097546102a7906001600160a01b031681565b34801561052357600080fd5b50609c546102a7906001600160a01b031681565b34801561054357600080fd5b50610285610552366004613eba565b611790565b610285610565366004613f63565b611933565b34801561057657600080fd5b506102ea610585366004613fd7565b63bc197c8160e01b95945050505050565b3480156105a257600080fd5b506102856105b136600461373f565b611a5c565b3480156105c257600080fd5b506102506105d1366004613b3b565b611a86565b3480156105e257600080fd5b506098546102a7906001600160a01b031681565b610250610604366004613b3b565b611dd2565b34801561061557600080fd5b50610250610624366004613b3b565b611fca565b34801561063557600080fd5b50609e546102a7906001600160a01b031681565b34801561065557600080fd5b506102ea610664366004614077565b63f23a6e6160e01b95945050505050565b34801561068157600080fd5b5061028561069036600461373f565b612342565b3480156106a157600080fd5b50609a546102a7906001600160a01b031681565b3480156106c157600080fd5b50609b546102a7906001600160a01b031681565b3480156106e157600080fd5b5060a2546102a7906001600160a01b031681565b60006001600160e01b03198216630271189760e51b148061072657506301ffc9a760e01b6001600160e01b03198316145b92915050565b6107346123bb565b609e80546001600160a01b0319166001600160a01b0392909216919091179055565b6000808260000151600081518110610770576107706140df565b602090810291909101015160a2549091506001600160a01b031663776062c382333087604001516040518563ffffffff1660e01b81526004016107b694939291906140f5565b600060405180830381600087803b1580156107d057600080fd5b505af11580156107e4573d6000803e3d6000fd5b505060a1546001600160a01b038481169116149150508015610807575082608001515b1561087e5760a1546040808501519051632e1a7d4d60e01b81526001600160a01b0390921691632e1a7d4d916108439160040190815260200190565b600060405180830381600087803b15801561085d57600080fd5b505af1158015610871573d6000803e3d6000fd5b5060019695505050505050565b609f54604051636eb1769f60e11b81526000916001600160a01b038085169263dd62ed3e926108b3921690309060040161411f565b60206040518083038186803b1580156108cb57600080fd5b505afa1580156108df573d6000803e3d6000fd5b505050506040513d601f19601f820116820180604052508101906109039190614139565b9050836040015181101561099b57609f5460405163095ea7b360e01b81526001600160a01b038481169263095ea7b392610947929091169060001990600401614152565b602060405180830381600087803b15801561096157600080fd5b505af1158015610975573d6000803e3d6000fd5b505050506040513d601f19601f820116820180604052508101906109999190614176565b505b46600061a86a8214806109af57508161a869145b905060008115610a8357609f5460208801516040808a015160608b01518b519251636d3420ed60e01b81526001600160a01b0390951694636d3420ed94610a00949093929130904290600401614207565b600060405180830381600087803b158015610a1a57600080fd5b505af1925050508015610a4f57506040513d6000823e601f3d908101601f19168201604052610a4c91908101906142b2565b60015b610a60575060009695505050505050565b80600081518110610a7357610a736140df565b6020026020010151915050610b43565b609f5460208801516040808a01518a519151632512eca560e11b81526001600160a01b0390941693634a25d94a93610ac493909291309042906004016142e6565b600060405180830381600087803b158015610ade57600080fd5b505af1925050508015610b1357506040513d6000823e601f3d908101601f19168201604052610b1091908101906142b2565b60015b610b24575060009695505050505050565b80600081518110610b3757610b376140df565b60200260200101519150505b866080015115610bb75760a1546020880151604051632e1a7d4d60e01b81526001600160a01b0390921691632e1a7d4d91610b849160040190815260200190565b600060405180830381600087803b158015610b9e57600080fd5b505af1158015610bb2573d6000803e3d6000fd5b505050505b8660400151811015610871576001600160a01b03851663a9059cbb335b838a60400151610be49190614338565b6040518363ffffffff1660e01b8152600401610c01929190614152565b602060405180830381600087803b158015610c1b57600080fd5b505af1158015610c2f573d6000803e3d6000fd5b505050506040513d601f19601f82011682018060405250810190610c539190614176565b505060019695505050505050565b610c69612415565b8051805160009190610c7d90600190614338565b81518110610c8d57610c8d6140df565b602090810291909101015160a1549091506001600160a01b0380831691161415610cea576000610cbc83610756565b905080610ce45760405162461bcd60e51b8152600401610cdb9061434f565b60405180910390fd5b50610d16565b6000610cf583611fca565b905080610d145760405162461bcd60e51b8152600401610cdb9061434f565b505b610d2286868686611933565b505050505050565b610d32612415565b6000610d3d82610dfe565b905080610d165760405162461bcd60e51b8152600401610cdb9061434f565b610d646123bb565b610d6c61245b565b565b610d766123bb565b60a080546001600160a01b0319166001600160a01b0392909216919091179055565b610da06123bb565b610d6c60006124ad565b610db26123bb565b609f80546001600160a01b0319166001600160a01b0392909216919091179055565b610ddc6123bb565b609880546001600160a01b0319166001600160a01b0392909216919091179055565b60008060008084600001519050600060148251610e1b9190614338565b9050600160601b81602084010151049350600160601b60006020840101510492503460001415610eb05760a2546001600160a01b031663776062c38533308a604001516040518563ffffffff1660e01b8152600401610e7d94939291906140f5565b600060405180830381600087803b158015610e9757600080fd5b505af1158015610eab573d6000803e3d6000fd5b505050505b60a1546001600160a01b038581169116148015610ece575085606001515b15610f485760a1546020870151604051632e1a7d4d60e01b81526001600160a01b0390921691632e1a7d4d91610f0a9160040190815260200190565b600060405180830381600087803b158015610f2457600080fd5b505af1158015610f38573d6000803e3d6000fd5b5060019998505050505050505050565b600034118015610f65575060a1546001600160a01b038481169116145b15610f765750600195945050505050565b60a054604051636eb1769f60e11b81526000916001600160a01b038088169263dd62ed3e92610fab921690309060040161411f565b60206040518083038186803b158015610fc357600080fd5b505afa158015610fd7573d6000803e3d6000fd5b505050506040513d601f19601f82011682018060405250810190610ffb9190614139565b905086604001518110156110935760a05460405163095ea7b360e01b81526001600160a01b038781169263095ea7b39261103f929091169060001990600401614152565b602060405180830381600087803b15801561105957600080fd5b505af115801561106d573d6000803e3d6000fd5b505050506040513d601f19601f820116820180604052508101906110919190614176565b505b6040805160a08082018352895182523060208084019190915242838501528a01516060830152898301516080830152549151631e51809360e31b815290916000916001600160a01b039091169063f28c0498906110f4908590600401614425565b602060405180830381600087803b15801561110e57600080fd5b505af192505050801561113e575060408051601f3d908101601f1916820190925261113b91810190614139565b60015b6111515750600098975050505050505050565b905060a060009054906101000a90046001600160a01b03166001600160a01b03166312210e8a6040518163ffffffff1660e01b8152600401600060405180830381600087803b1580156111a357600080fd5b505af11580156111b7573d6000803e3d6000fd5b5050505088606001511561122f5760a15460208a0151604051632e1a7d4d60e01b81526001600160a01b0390921691632e1a7d4d916111fc9160040190815260200190565b600060405180830381600087803b15801561121657600080fd5b505af115801561122a573d6000803e3d6000fd5b505050505b88604001518110156112cc576001600160a01b03871663a9059cbb33838c6040015161125b9190614338565b6040518363ffffffff1660e01b8152600401611278929190614152565b602060405180830381600087803b15801561129257600080fd5b505af11580156112a6573d6000803e3d6000fd5b505050506040513d601f19601f820116820180604052508101906112ca9190614176565b505b50600198975050505050505050565b6112e36123bb565b610d6c6124ff565b6112f3612415565b600080600061130386600061253c565b9250925092506113103390565b6001600160a01b03167fc5dd8c21802b423a9c822ee9c934f042186e6bb7097a1dd17717343ee84df7148460405161134c911515815260200190565b60405180910390a261135e8286613244565b6113688185613244565b610d2261326f565b6000806000808460000151905060006014825161138d9190614338565b9050600160601b81602084010151049350600160601b600060208401015104925034600014156114225760a2546001600160a01b031663776062c38533308a602001516040518563ffffffff1660e01b81526004016113ef94939291906140f5565b600060405180830381600087803b15801561140957600080fd5b505af115801561141d573d6000803e3d6000fd5b505050505b60a1546001600160a01b038581169116148015611440575085606001515b1561147c5760a1546020870151604051632e1a7d4d60e01b81526001600160a01b0390921691632e1a7d4d91610f0a9160040190815260200190565b600034118015611499575060a1546001600160a01b038481169116145b156114aa5750600195945050505050565b60a054604051636eb1769f60e11b81526000916001600160a01b038088169263dd62ed3e926114df921690309060040161411f565b60206040518083038186803b1580156114f757600080fd5b505afa15801561150b573d6000803e3d6000fd5b505050506040513d601f19601f8201168201806040525081019061152f9190614139565b905086602001518110156115c75760a05460405163095ea7b360e01b81526001600160a01b038781169263095ea7b392611573929091169060001990600401614152565b602060405180830381600087803b15801561158d57600080fd5b505af11580156115a1573d6000803e3d6000fd5b505050506040513d601f19601f820116820180604052508101906115c59190614176565b505b6040805160a08082018352895182523060208084019190915242838501528a0151606083015289830151608083015254915163c04b8d5960e01b815290916000916001600160a01b039091169063c04b8d5990611628908590600401614425565b602060405180830381600087803b15801561164257600080fd5b505af1925050508015611672575060408051601f3d908101601f1916820190925261166f91810190614139565b60015b6116855750600098975050505050505050565b905060a060009054906101000a90046001600160a01b03166001600160a01b03166312210e8a6040518163ffffffff1660e01b8152600401600060405180830381600087803b1580156116d757600080fd5b505af11580156116eb573d6000803e3d6000fd5b505050508860600151156112cc5760a154604051632e1a7d4d60e01b8152600481018390526001600160a01b0390911690632e1a7d4d90602401600060405180830381600087803b15801561173f57600080fd5b505af1158015611753573d6000803e3d6000fd5b5050505050600198975050505050505050565b61176e6123bb565b60a280546001600160a01b0319166001600160a01b0392909216919091179055565b600054610100900460ff16158080156117b05750600054600160ff909116105b806117ca5750303b1580156117ca575060005460ff166001145b61182d5760405162461bcd60e51b815260206004820152602e60248201527f496e697469616c697a61626c653a20636f6e747261637420697320616c72656160448201526d191e481a5b9a5d1a585b1a5e995960921b6064820152608401610cdb565b6000805460ff191660011790558015611850576000805461ff0019166101001790555b611858613280565b6118606132a7565b6118686132d7565b609780546001600160a01b03199081166001600160a01b03808d1691909117909255609880548216838c16179055609980548216838b16179055609a80548216838a16179055609b80548216838916179055609c80548216838816179055609d80548216838716179055609e80549091169184169190911790558015611928576000805461ff0019169055604051600181527f7f26b83ff96e1f2b6a682f133852f6798a09c465da95921460cefb38474024989060200160405180910390a15b505050505050505050565b61193b612415565b6000806000808751905060005b818110156119ed5760008060006119788c858151811061196a5761196a6140df565b60200260200101518a61253c565b92509250925085806119875750825b604051841515815290965033907fc5dd8c21802b423a9c822ee9c934f042186e6bb7097a1dd17717343ee84df7149060200160405180910390a26119cb8289614438565b97506119d78188614438565b9650505050806119e690614450565b9050611948565b5081611a365760405162461bcd60e51b81526020600482015260186024820152776e6f207375636365737366756c20657865637574696f6e7360401b6044820152606401610cdb565b611a408488613244565b611a4a8387613244565b611a5261326f565b5050505050505050565b611a646123bb565b60a180546001600160a01b0319166001600160a01b0392909216919091179055565b6000808260000151600081518110611aa057611aa06140df565b602090810291909101015160a2549091506001600160a01b031663776062c382333087602001516040518563ffffffff1660e01b8152600401611ae694939291906140f5565b600060405180830381600087803b158015611b0057600080fd5b505af1158015611b14573d6000803e3d6000fd5b5050609f54604051636eb1769f60e11b8152600093506001600160a01b03808616935063dd62ed3e92611b4e92911690309060040161411f565b60206040518083038186803b158015611b6657600080fd5b505afa158015611b7a573d6000803e3d6000fd5b505050506040513d601f19601f82011682018060405250810190611b9e9190614139565b90508360200151811015611c3657609f5460405163095ea7b360e01b81526001600160a01b038481169263095ea7b392611be2929091169060001990600401614152565b602060405180830381600087803b158015611bfc57600080fd5b505af1158015611c10573d6000803e3d6000fd5b505050506040513d601f19601f82011682018060405250810190611c349190614176565b505b46600061a86a821480611c4a57508161a869145b905060008115611d1e57609f5460208801516040808a015160608b01518b51925163a7b856d360e01b81526001600160a01b039095169463a7b856d394611c9b949093929130904290600401614207565b600060405180830381600087803b158015611cb557600080fd5b505af1925050508015611cea57506040513d6000823e601f3d908101601f19168201604052611ce791908101906142b2565b60015b611cfb575060009695505050505050565b80600081518110611d0e57611d0e6140df565b6020026020010151915050610871565b609f5460208801516040808a01518a519151634401edf760e11b81526001600160a01b0390941693638803dbee93611d5f93909291309042906004016142e6565b600060405180830381600087803b158015611d7957600080fd5b505af1925050508015611dae57506040513d6000823e601f3d908101601f19168201604052611dab91908101906142b2565b60015b611dbf575060009695505050505050565b80600081518110610f3857610f386140df565b6000808260000151600081518110611dec57611dec6140df565b60200260200101519050600083600001516001856000015151611e0f9190614338565b81518110611e1f57611e1f6140df565b602002602001015190503460001415611f065760a2546001600160a01b031663776062c383333088602001516040518563ffffffff1660e01b8152600401611e6a94939291906140f5565b600060405180830381600087803b158015611e8457600080fd5b505af1158015611e98573d6000803e3d6000fd5b505060a1546020870151604051632e1a7d4d60e01b81526001600160a01b039092169350632e1a7d4d9250611ed39160040190815260200190565b600060405180830381600087803b158015611eed57600080fd5b505af1158015611f01573d6000803e3d6000fd5b505050505b600034118015611f23575060a1546001600160a01b038281169116145b15611f32575060019392505050565b46600061a86a821480611f4657508161a869145b905060008115611f9057609f5460408089015160608a01518a519251631325dca760e11b81526001600160a01b039094169363264bb94e93611c9b9392913090429060040161446b565b609f5460408089015189519151637ff36ab560e01b81526001600160a01b0390931692637ff36ab592611d5f9291309042906004016144b4565b6000808260000151600081518110611fe457611fe46140df565b602090810291909101015160a2549091506001600160a01b031663776062c382333087604001516040518563ffffffff1660e01b815260040161202a94939291906140f5565b600060405180830381600087803b15801561204457600080fd5b505af1158015612058573d6000803e3d6000fd5b5050609f54604051636eb1769f60e11b8152600093506001600160a01b03808616935063dd62ed3e9261209292911690309060040161411f565b60206040518083038186803b1580156120aa57600080fd5b505afa1580156120be573d6000803e3d6000fd5b505050506040513d601f19601f820116820180604052508101906120e29190614139565b9050836040015181101561217a57609f5460405163095ea7b360e01b81526001600160a01b038481169263095ea7b392612126929091169060001990600401614152565b602060405180830381600087803b15801561214057600080fd5b505af1158015612154573d6000803e3d6000fd5b505050506040513d601f19601f820116820180604052508101906121789190614176565b505b46600061a86a82148061218e57508161a869145b90506000811561226257609f5460208801516040808a015160608b01518b51925163a7b856d360e01b81526001600160a01b039095169463a7b856d3946121df949093929130904290600401614207565b600060405180830381600087803b1580156121f957600080fd5b505af192505050801561222e57506040513d6000823e601f3d908101601f1916820160405261222b91908101906142b2565b60015b61223f575060009695505050505050565b80600081518110612252576122526140df565b6020026020010151915050610bb7565b609f5460208801516040808a01518a519151634401edf760e11b81526001600160a01b0390941693638803dbee936122a393909291309042906004016142e6565b600060405180830381600087803b1580156122bd57600080fd5b505af19250505080156122f257506040513d6000823e601f3d908101601f191682016040526122ef91908101906142b2565b60015b612303575060009695505050505050565b80600081518110612316576123166140df565b60200260200101519150508660400151811015610871576001600160a01b03851663a9059cbb33610bd4565b61234a6123bb565b6001600160a01b0381166123af5760405162461bcd60e51b815260206004820152602660248201527f4f776e61626c653a206e6577206f776e657220697320746865207a65726f206160448201526564647265737360d01b6064820152608401610cdb565b6123b8816124ad565b50565b6033546001600160a01b03163314610d6c5760405162461bcd60e51b815260206004820181905260248201527f4f776e61626c653a2063616c6c6572206973206e6f7420746865206f776e65726044820152606401610cdb565b60655460ff1615610d6c5760405162461bcd60e51b815260206004820152601060248201526f14185d5cd8589b194e881c185d5cd95960821b6044820152606401610cdb565b61246361330a565b6065805460ff191690557f5db9ee0a495bf2e6ff9c91a7834c1ba4fdd244a5e8aa4e537bd38aeae4b073aa335b6040516001600160a01b03909116815260200160405180910390a1565b603380546001600160a01b038381166001600160a01b0319831681179093556040519116919082907f8be0079c531659141344cd1fd0a4f28419497f9722a3daafe3b4186f6b6457e090600090a35050565b612507612415565b6065805460ff191660011790557f62e78cea01bee320cd4e420270b5ea74000d11b0c9f74754ebdbfc544b05a2586124903390565b600080600080600061255b876060015188604001518960000151613353565b6020890151919350915060028851600781111561257a5761257a6144e9565b141561265757609a546040516000916001600160a01b03169083906125a09087906144ff565b60006040518083038185875af1925050503d80600081146125dd576040519150601f19603f3d011682016040523d82523d6000602084013e6125e2565b606091505b50509050871561260a57806126055760008060009650965096505050505061323d565b612651565b806126515760405162461bcd60e51b8152602060048201526017602482015276141d5c98da185cd94814d9585c1bdc9d0819985a5b1959604a1b6044820152606401610cdb565b5061320b565b60018851600781111561266c5761266c6144e9565b141561273d576099546040516000916001600160a01b03169083906126929087906144ff565b60006040518083038185875af1925050503d80600081146126cf576040519150601f19603f3d011682016040523d82523d6000602084013e6126d4565b606091505b5050905087156126f757806126055760008060009650965096505050505061323d565b806126515760405162461bcd60e51b8152602060048201526016602482015275141d5c98da185cd94815de5d995c9b8819985a5b195960521b6044820152606401610cdb565b600688516007811115612752576127526144e9565b141561282a576097546040516000916001600160a01b03169083906127789087906144ff565b60006040518083038185875af1925050503d80600081146127b5576040519150601f19603f3d011682016040523d82523d6000602084013e6127ba565b606091505b5050905087156127dd57806126055760008060009650965096505050505061323d565b806126515760405162461bcd60e51b815260206004820152601b60248201527f50757263686173652047686f73744d61726b6574206661696c656400000000006044820152606401610cdb565b60008851600781111561283f5761283f6144e9565b1415612911576098546040516000916001600160a01b03169083906128659087906144ff565b60006040518083038185875af1925050503d80600081146128a2576040519150601f19603f3d011682016040523d82523d6000602084013e6128a7565b606091505b5050905087156128ca57806126055760008060009650965096505050505061323d565b806126515760405162461bcd60e51b8152602060048201526017602482015276141d5c98da185cd94814985c9a589b194819985a5b1959604a1b6044820152606401610cdb565b600388516007811115612926576129266144e9565b1415612db9576000838060200190518101906129429190614a0f565b905087156129c457609b5460405163357a150b60e01b81526001600160a01b039091169063357a150b90849061297c908590600401614c8a565b6000604051808303818588803b15801561299557600080fd5b505af1935050505080156129a7575060015b6129bf5760008060009650965096505050505061323d565b612a29565b609b5460405163357a150b60e01b81526001600160a01b039091169063357a150b9084906129f6908590600401614c8a565b6000604051808303818588803b158015612a0f57600080fd5b505af1158015612a23573d6000803e3d6000fd5b50505050505b60208101515160005b81811015612db157600083602001518281518110612a5257612a526140df565b6020026020010151602001519050600084602001518381518110612a7857612a786140df565b6020026020010151604001519050600085600001518381518110612a9e57612a9e6140df565b602002602001015161010001518281518110612abc57612abc6140df565b6020026020010151602001519050600086600001518481518110612ae257612ae26140df565b602002602001015160e0015151118015612b1e5750600086602001518581518110612b0f57612b0f6140df565b602002602001015160c0015151115b15612b7057612b708187602001518681518110612b3d57612b3d6140df565b602002602001015160c0015188600001518681518110612b5f57612b5f6140df565b602002602001015160e0015161344e565b8551805184908110612b8457612b846140df565b60200260200101516080015160011415612c6557600081806020019051810190612bae9190614e46565b905060005b8151811015612c5e576000828281518110612bd057612bd06140df565b6020026020010151905080600001516001600160a01b03166342842e0e30612bf53390565b84602001516040518463ffffffff1660e01b8152600401612c1893929190614f04565b600060405180830381600087803b158015612c3257600080fd5b505af1158015612c46573d6000803e3d6000fd5b50505050508080612c5690614450565b915050612bb3565b5050612d9d565b8551805184908110612c7957612c796140df565b60200260200101516080015160021415612d5957600081806020019051810190612ca39190614f28565b905060005b8151811015612c5e576000828281518110612cc557612cc56140df565b6020026020010151905080600001516001600160a01b031663f242432a30612cea3390565b846020015185604001516040518563ffffffff1660e01b8152600401612d139493929190614fee565b600060405180830381600087803b158015612d2d57600080fd5b505af1158015612d41573d6000803e3d6000fd5b50505050508080612d5190614450565b915050612ca8565b60405162461bcd60e51b81526020600482015260196024820152783ab735b737bbb7103232b632b3b0ba32aa3cb832903c193c9960391b6044820152606401610cdb565b50505080612daa90614450565b9050612a32565b50505061320b565b600488516007811115612dce57612dce6144e9565b1415612ffa57600080600085806020019051810190612ded9190615144565b9250925092508915612e7757609c54604051635a72594b60e11b81526001600160a01b039091169063b4e4b296908690612e2d908790879060040161522c565b6000604051808303818588803b158015612e4657600080fd5b505af193505050508015612e58575060015b612e7257600080600098509850985050505050505061323d565b612ede565b609c54604051635a72594b60e11b81526001600160a01b039091169063b4e4b296908690612eab908790879060040161522c565b6000604051808303818588803b158015612ec457600080fd5b505af1158015612ed8573d6000803e3d6000fd5b50505050505b6001600160e01b031981166339d690a360e11b1415612f665760408201516001600160a01b03166342842e0e303385608001516040518463ffffffff1660e01b8152600401612f2f93929190614f04565b600060405180830381600087803b158015612f4957600080fd5b505af1158015612f5d573d6000803e3d6000fd5b50505050612db1565b6001600160e01b0319811663025ceed960e61b1415612fbd57604082810151608084015160a08501519251637921219560e11b81526001600160a01b039092169263f242432a92612f2f9230923392600401614fee565b60405162461bcd60e51b8152602060048201526012602482015271556e6b6e6f776e20746f6b656e207479706560701b6044820152606401610cdb565b60058851600781111561300f5761300f6144e9565b14156130e257609d546040516000916001600160a01b03169083906130359087906144ff565b60006040518083038185875af1925050503d8060008114613072576040519150601f19603f3d011682016040523d82523d6000602084013e613077565b606091505b50509050871561309a57806126055760008060009650965096505050505061323d565b806126515760405162461bcd60e51b8152602060048201526018602482015277141d5c98da185cd94814dd591bd4ddd85c0819985a5b195960421b6044820152606401610cdb565b6007885160078111156130f7576130f76144e9565b14156131c857609e546040516000916001600160a01b031690839061311d9087906144ff565b60006040518083038185875af1925050503d806000811461315a576040519150601f19603f3d011682016040523d82523d6000602084013e61315f565b606091505b50509050871561318257806126055760008060009650965096505050505061323d565b806126515760405162461bcd60e51b8152602060048201526016602482015275141d5c98da185cd948189b1d5c9a5bc819985a5b195960521b6044820152606401610cdb565b60405162461bcd60e51b8152602060048201526018602482015277556e6b6e6f776e2070757263686173652064657461696c7360401b6044820152606401610cdb565b6132198289602001516134fb565b60008061322e8a604001518b602001516135a5565b60019950909750955050505050505b9250925092565b60008211801561325c57506001600160a01b03811615155b1561326b5761326b81836135d6565b5050565b4780156123b8576123b833826135d6565b600054610100900460ff16610d6c5760405162461bcd60e51b8152600401610cdb90615386565b600054610100900460ff166132ce5760405162461bcd60e51b8152600401610cdb90615386565b610d6c336124ad565b600054610100900460ff166132fe5760405162461bcd60e51b8152600401610cdb90615386565b6065805460ff19169055565b60655460ff16610d6c5760405162461bcd60e51b815260206004820152601460248201527314185d5cd8589b194e881b9bdd081c185d5cd95960621b6044820152606401610cdb565b6060806000602085901c61ffff166001811115613372576133726144e9565b90506060600082600181111561338a5761338a6144e9565b141561339c5786935091506134469050565b60018260018111156133b0576133b06144e9565b14156133fe576000878060200190518101906133cc91906153d1565b90506133d78661368f565b156133f2578060000151816020015194509450505050613446565b51935091506134469050565b60405162461bcd60e51b815260206004820152601a60248201527f756e6b6e6f776e206164646974696f6e616c44617461547970650000000000006044820152606401610cdb565b935093915050565b815183511461345c57600080fd5b805183511461346a57600080fd5b825160005b818110156134f457828181518110613489576134896140df565b01602001516001600160f81b031916156134e4578381815181106134af576134af6140df565b602001015160f81c60f81b8582815181106134cc576134cc6140df565b60200101906001600160f81b031916908160001a9053505b6134ed81614450565b905061346f565b5050505050565b815160005b8181101561359f57600084828151811061351c5761351c6140df565b6020026020010151111561358f57600084828151811061353e5761353e6140df565b60200260200101519050600060a086848151811061355e5761355e6140df565b6020026020010151901c9050600061357f82876136d790919063ffffffff16565b905061358b8184613244565b5050505b61359881614450565b9050613500565b50505050565b60008061ffff601085901c81169085166135bf85836136d7565b6135c986836136d7565b9350935050509250929050565b6000826001600160a01b03168260405160006040518083038185875af1925050503d8060008114613623576040519150601f19603f3d011682016040523d82523d6000602084013e613628565b606091505b505090508061368a5760405162461bcd60e51b815260206004820152602860248201527f4c69625472616e73666572204261736543757272656e6379207472616e7366656044820152671c8819985a5b195960c21b6064820152608401610cdb565b505050565b600060058260078111156136a5576136a56144e9565b14806136c2575060048260078111156136c0576136c06144e9565b145b156136cf57506001919050565b506000919050565b60006127106136e68385615461565b6136f09190615480565b9392505050565b6001600160e01b0319811681146123b857600080fd5b60006020828403121561371f57600080fd5b81356136f0816136f7565b6001600160a01b03811681146123b857600080fd5b60006020828403121561375157600080fd5b81356136f08161372a565b634e487b7160e01b600052604160045260246000fd5b60405160a081016001600160401b03811182821017156137945761379461375c565b60405290565b604051608081016001600160401b03811182821017156137945761379461375c565b604080519081016001600160401b03811182821017156137945761379461375c565b6040516101a081016001600160401b03811182821017156137945761379461375c565b60405161016081016001600160401b03811182821017156137945761379461375c565b60405160c081016001600160401b03811182821017156137945761379461375c565b604051606081016001600160401b03811182821017156137945761379461375c565b60405161020081016001600160401b03811182821017156137945761379461375c565b604051601f8201601f191681016001600160401b03811182821017156138b3576138b361375c565b604052919050565b60006001600160401b038211156138d4576138d461375c565b50601f01601f191660200190565b600082601f8301126138f357600080fd5b8135613906613901826138bb565b61388b565b81815284602083860101111561391b57600080fd5b816020850160208301376000918101602001919091529392505050565b6000806000806080858703121561394e57600080fd5b84356139598161372a565b935060208501356139698161372a565b92506040850135915060608501356001600160401b0381111561398b57600080fd5b613997878288016138e2565b91505092959194509250565b60006001600160401b038211156139bc576139bc61375c565b5060051b60200190565b600082601f8301126139d757600080fd5b813560206139e7613901836139a3565b82815260059290921b84018101918181019086841115613a0657600080fd5b8286015b84811015613a215780358352918301918301613a0a565b509695505050505050565b80151581146123b857600080fd5b8035613a4581613a2c565b919050565b600060a08284031215613a5c57600080fd5b613a64613772565b905081356001600160401b0380821115613a7d57600080fd5b818401915084601f830112613a9157600080fd5b81356020613aa1613901836139a3565b82815260059290921b84018101918181019088841115613ac057600080fd5b948201945b83861015613ae7578535613ad88161372a565b82529482019490820190613ac5565b865250858101359085015250604080850135908401526060840135915080821115613b1157600080fd5b50613b1e848285016139c6565b606083015250613b3060808301613a3a565b608082015292915050565b600060208284031215613b4d57600080fd5b81356001600160401b03811115613b6357600080fd5b613b6f84828501613a4a565b949350505050565b600881106123b857600080fd5b600060808284031215613b9657600080fd5b613b9e61379a565b90508135613bab81613b77565b80825250602082013560208201526040820135604082015260608201356001600160401b03811115613bdc57600080fd5b613be8848285016138e2565b60608301525092915050565b600082601f830112613c0557600080fd5b81356020613c15613901836139a3565b82815260059290921b84018101918181019086841115613c3457600080fd5b8286015b84811015613a215780356001600160401b03811115613c575760008081fd5b613c658986838b0101613b84565b845250918301918301613c38565b600080600080600060a08688031215613c8b57600080fd5b85356001600160401b0380821115613ca257600080fd5b613cae89838a01613bf4565b965060208801359150613cc08261372a565b909450604087013590613cd28261372a565b909350606087013590613ce482613a2c565b90925060808701359080821115613cfa57600080fd5b50613d0788828901613a4a565b9150509295509295909350565b600060808284031215613d2657600080fd5b613d2e61379a565b905081356001600160401b03811115613d4657600080fd5b613d52848285016138e2565b82525060208201356020820152604082013560408201526060820135613d7781613a2c565b606082015292915050565b600080600080600060a08688031215613d9a57600080fd5b85356001600160401b0380821115613db157600080fd5b613dbd89838a01613bf4565b965060208801359150613dcf8261372a565b909450604087013590613de18261372a565b909350606087013590613df382613a2c565b90925060808701359080821115613e0957600080fd5b50613d0788828901613d14565b6001600160a01b03169052565b600060208284031215613e3557600080fd5b81356001600160401b03811115613e4b57600080fd5b613b6f84828501613d14565b600080600060608486031215613e6c57600080fd5b83356001600160401b03811115613e8257600080fd5b613e8e86828701613b84565b9350506020840135613e9f8161372a565b91506040840135613eaf8161372a565b809150509250925092565b600080600080600080600080610100898b031215613ed757600080fd5b8835613ee28161372a565b97506020890135613ef28161372a565b96506040890135613f028161372a565b95506060890135613f128161372a565b94506080890135613f228161372a565b935060a0890135613f328161372a565b925060c0890135613f428161372a565b915060e0890135613f528161372a565b809150509295985092959890939650565b60008060008060808587031215613f7957600080fd5b84356001600160401b03811115613f8f57600080fd5b613f9b87828801613bf4565b9450506020850135613fac8161372a565b92506040850135613fbc8161372a565b91506060850135613fcc81613a2c565b939692955090935050565b600080600080600060a08688031215613fef57600080fd5b8535613ffa8161372a565b9450602086013561400a8161372a565b935060408601356001600160401b038082111561402657600080fd5b61403289838a016139c6565b9450606088013591508082111561404857600080fd5b61405489838a016139c6565b9350608088013591508082111561406a57600080fd5b50613d07888289016138e2565b600080600080600060a0868803121561408f57600080fd5b853561409a8161372a565b945060208601356140aa8161372a565b9350604086013592506060860135915060808601356001600160401b038111156140d357600080fd5b613d07888289016138e2565b634e487b7160e01b600052603260045260246000fd5b6001600160a01b039485168152928416602084015292166040820152606081019190915260800190565b6001600160a01b0392831681529116602082015260400190565b60006020828403121561414b57600080fd5b5051919050565b6001600160a01b03929092168252602082015260400190565b8051613a4581613a2c565b60006020828403121561418857600080fd5b81516136f081613a2c565b600081518084526020808501945080840160005b838110156141c3578151875295820195908201906001016141a7565b509495945050505050565b600081518084526020808501945080840160005b838110156141c35781516001600160a01b0316875295820195908201906001016141e2565b86815285602082015260c06040820152600061422660c0830187614193565b828103606084015261423881876141ce565b6001600160a01b03959095166080840152505060a00152949350505050565b600082601f83011261426857600080fd5b81516020614278613901836139a3565b82815260059290921b8401810191818101908684111561429757600080fd5b8286015b84811015613a21578051835291830191830161429b565b6000602082840312156142c457600080fd5b81516001600160401b038111156142da57600080fd5b613b6f84828501614257565b85815284602082015260a06040820152600061430560a08301866141ce565b6001600160a01b0394909416606083015250608001529392505050565b634e487b7160e01b600052601160045260246000fd5b60008282101561434a5761434a614322565b500390565b6020808252601390820152721cddd85c081b9bdd081cdd58d8d95cdcd99d5b606a1b604082015260600190565b60005b8381101561439757818101518382015260200161437f565b8381111561359f5750506000910152565b600081518084526143c081602086016020860161437c565b601f01601f19169290920160200192915050565b6000815160a084526143e960a08501826143a8565b6020848101516001600160a01b031690860152604080850151908601526060808501519086015260809384015193909401929092525090919050565b6020815260006136f060208301846143d4565b6000821982111561444b5761444b614322565b500190565b600060001982141561446457614464614322565b5060010190565b85815260a06020820152600061448460a0830187614193565b828103604084015261449681876141ce565b6001600160a01b039590951660608401525050608001529392505050565b8481526080602082015260006144cd60808301866141ce565b6001600160a01b03949094166040830152506060015292915050565b634e487b7160e01b600052602160045260246000fd5b6000825161451181846020870161437c565b9190910192915050565b8051613a458161372a565b600082601f83011261453757600080fd5b8151614545613901826138bb565b81815284602083860101111561455a57600080fd5b613b6f82602083016020870161437c565b600082601f83011261457c57600080fd5b8151602061458c613901836139a3565b82815260059290921b840181019181810190868411156145ab57600080fd5b8286015b84811015613a215780516001600160401b03808211156145cf5760008081fd5b908801906040828b03601f19018113156145e95760008081fd5b6145f16137bc565b83880151815290830151908282111561460a5760008081fd5b6146188c8984870101614526565b8189015286525050509183019183016145af565b805160ff81168114613a4557600080fd5b600082601f83011261464e57600080fd5b8151602061465e613901836139a3565b82815260059290921b8401810191818101908684111561467d57600080fd5b8286015b84811015613a215780516001600160401b03808211156146a15760008081fd5b908801906101a0828b03601f19018113156146bc5760008081fd5b6146c46137de565b87840151815260406146d781860161451b565b89830152606080860151828401526080915081860151818401525060a0808601518284015260c0915081860151818401525060e061471681870161451b565b82840152610100915081860151858111156147315760008081fd5b61473f8f8c838a0101614526565b828501525050610120808601518581111561475a5760008081fd5b6147688f8c838a010161456b565b83850152506101409450848601518184015250506101608085015184830152610180935061479784860161462c565b908201526147a684830161462c565b9281019290925250845250918301918301614681565b8051613a4581613b77565b600082601f8301126147d857600080fd5b815160206147e8613901836139a3565b82815260069290921b8401810191818101908684111561480757600080fd5b8286015b84811015613a2157604081890312156148245760008081fd5b61482c6137bc565b815181528482015161483d8161372a565b8186015283529183019160400161480b565b600082601f83011261486057600080fd5b81516020614870613901836139a3565b82815260059290921b8401810191818101908684111561488f57600080fd5b8286015b84811015613a215780516001600160401b03808211156148b35760008081fd5b90880190610160828b03601f19018113156148ce5760008081fd5b6148d6613801565b6148e18885016147bc565b815260408085015189830152606080860151828401526080915081860151818401525060a0808601518284015260c0915061491d82870161451b565b9083015260e085810151858111156149355760008081fd5b6149438f8c838a0101614526565b8385015250610100915081860151818401525061012080860151828401526101409150818601518184015250828501519250838311156149835760008081fd5b6149918d8a858801016147c7565b908201528652505050918301918301614893565b600060c082840312156149b757600080fd5b6149bf613824565b90508151815260208201516020820152604082015160408201526060820151606082015260808201516149f18161372a565b608082015260a0820151614a0481613a2c565b60a082015292915050565b600060208284031215614a2157600080fd5b81516001600160401b0380821115614a3857600080fd5b908301906101608286031215614a4d57600080fd5b614a55613824565b825182811115614a6457600080fd5b614a708782860161463d565b825250602083015182811115614a8557600080fd5b614a918782860161484f565b602083015250614aa486604085016149a5565b604082015261010083015160608201526101208301516080820152614acc610140840161462c565b60a082015295945050505050565b600081518084526020808501808196508360051b8101915082860160005b85811015614b365782840389528151805185528501516040868601819052614b22818701836143a8565b9a87019a9550505090840190600101614af8565b5091979650505050505050565b60088110614b6157634e487b7160e01b600052602160045260246000fd5b9052565b600081518084526020808501945080840160005b838110156141c3578151805188528301516001600160a01b03168388015260409096019590820190600101614b79565b600081518084526020808501808196508360051b8101915082860160005b85811015614b365782840389528151610160614be4868351614b43565b818701518688015260408083015190870152606080830151908701526080808301519087015260a080830151614c1c82890182613e16565b505060c0808301518282890152614c35838901826143a8565b60e085810151908a015261010080860151908a015261012080860151908a015261014094850151898203958a01959095529250614c76915082905083614b65565b9a87019a9550505090840190600101614bc7565b60006020808352610180808401855161016080858801528282518085526101a094508489019150848160051b8a0101878501945060005b82811015614da5578a820361019f1901845285518051835289810151614ce98b850182613e16565b5060408181015190840152606080820151908401526080808201519084015260a0808201519084015260c080820151614d2482860182613e16565b505060e0808201518982860152614d3d8a8601826143a8565b9150506101008083015185830382870152614d588382614ada565b9250505061012080830151818601525061014080830151818601525086820151614d868886018260ff169052565b509089015160ff16928901929092529488019492880192600101614cc1565b50968a0151898803601f190160408b015296614dc18189614ba9565b975050505060408801519350614e176060880185805182526020808201519083015260408082015190830152606080820151908301526080808201516001600160a01b03169083015260a0908101511515910152565b6060880151610120880152608088015161014088015260a09097015160ff169690950195909552509392505050565b60006020808385031215614e5957600080fd5b82516001600160401b03811115614e6f57600080fd5b8301601f81018513614e8057600080fd5b8051614e8e613901826139a3565b81815260069190911b82018301908381019087831115614ead57600080fd5b928401925b82841015614ef95760408489031215614ecb5760008081fd5b614ed36137bc565b8451614ede8161372a565b81528486015186820152825260409093019290840190614eb2565b979650505050505050565b6001600160a01b039384168152919092166020820152604081019190915260600190565b60006020808385031215614f3b57600080fd5b82516001600160401b03811115614f5157600080fd5b8301601f81018513614f6257600080fd5b8051614f70613901826139a3565b81815260609182028301840191848201919088841115614f8f57600080fd5b938501935b83851015614fe25780858a031215614fac5760008081fd5b614fb4613846565b8551614fbf8161372a565b815285870151878201526040808701519082015283529384019391850191614f94565b50979650505050505050565b6001600160a01b0394851681529290931660208301526040820152606081019190915260a06080820181905260009082015260c00190565b6000610200828403121561503957600080fd5b615041613868565b905061504c8261416b565b815261505a6020830161451b565b602082015261506b6040830161451b565b6040820152606082015160608201526080820151608082015260a082015160a082015261509a60c0830161451b565b60c08201526150ab60e0830161451b565b60e08201526101008281015190820152610120808301519082015261014080830151908201526101608083015190820152610180808301516001600160401b038111156150f757600080fd5b61510385828601614526565b8284015250506101a061511781840161462c565b908201526101c082810151908201526101e09182015191810191909152919050565b8051613a45816136f7565b60008060006060848603121561515957600080fd5b83516001600160401b038082111561517057600080fd5b9085019060c0828803121561518457600080fd5b61518c613824565b825161519781613a2c565b815260208301516151a78161372a565b8060208301525060408301516040820152606083015160608201526080830151608082015260a0830151828111156151de57600080fd5b6151ea89828601614526565b60a083015250602087015190955091508082111561520757600080fd5b5061521486828701615026565b92505061522360408501615139565b90509250925092565b60408152600061010084511515604084015260018060a01b03602086015116606084015260408501516080840152606085015160a0840152608085015160c084015260a085015160c060e0850152615286828501826143a8565b8481036020860152855115158152905061020060208601516152ab6020840182613e16565b5060408601516152be6040840182613e16565b50606086015160608301526080860151608083015260a086015160a083015260c08601516152ef60c0840182613e16565b5060e086015161530260e0840182613e16565b5085830151928201929092526101208086015190820152610140808601519082015261016080860151908201526101808086015181830184905290929061534b828401826143a8565b935050506101a0808601516153648284018260ff169052565b50506101c085810151908201526101e094850151940193909352509092915050565b6020808252602b908201527f496e697469616c697a61626c653a20636f6e7472616374206973206e6f74206960408201526a6e697469616c697a696e6760a81b606082015260800190565b6000602082840312156153e357600080fd5b81516001600160401b03808211156153fa57600080fd5b908301906040828603121561540e57600080fd5b6154166137bc565b82518281111561542557600080fd5b61543187828601614526565b82525060208301518281111561544657600080fd5b61545287828601614257565b60208301525095945050505050565b600081600019048311821515161561547b5761547b614322565b500290565b60008261549d57634e487b7160e01b600052601260045260246000fd5b50049056fea2646970667358221220b2be033b43e9c65b46d2e8cebae6236984532fe16b42a267eb41a9d81ebfa54464736f6c63430008090033",
  "devdoc": {
    "kind": "dev",
    "methods": {
      "bulkPurchase((uint8,uint256,uint256,bytes)[],address,address,bool)": {
        "params": {
          "allowFail": "- true if fails while executing orders are allowed, false if fail of a single order means fail of the whole batch",
          "feeRecipientFirst": "- address of the first fee recipient",
          "feeRecipientSecond": "- address of the second fee recipient",
          "purchaseDetails": "- array of details about the purchases (more info in PurchaseDetails struct)"
        }
      },
      "bulkPurchaseWithSwap((uint8,uint256,uint256,bytes)[],address,address,bool,(bytes,uint256,uint256,bool))": {
        "params": {
          "allowFail": "- true if fails while executing orders are allowed, false if fail of a single order means fail of the whole batch",
          "feeRecipientFirst": "- address of the first fee recipient",
          "feeRecipientSecond": "- address of the second fee recipient",
          "purchaseDetails": "- array of details about the purchases (more info in PurchaseDetails struct)",
          "swapDetails": "- swapDetails v3"
        }
      },
      "bulkPurchaseWithV2Swap((uint8,uint256,uint256,bytes)[],address,address,bool,(address[],uint256,uint256,uint256[],bool))": {
        "params": {
          "allowFail": "- true if fails while executing orders are allowed, false if fail of a single order means fail of the whole batch",
          "feeRecipientFirst": "- address of the first fee recipient",
          "feeRecipientSecond": "- address of the second fee recipient",
          "purchaseDetails": "- array of details about the purchases (more info in PurchaseDetails struct)",
          "swapDetails": "- swapDetails v2"
        }
      },
      "onERC721Received(address,address,uint256,bytes)": {
        "details": "See {IERC721Receiver-onERC721Received}. Always returns `IERC721Receiver.onERC721Received.selector`."
      },
      "owner()": {
        "details": "Returns the address of the current owner."
      },
      "paused()": {
        "details": "Returns true if the contract is paused, and false otherwise."
      },
      "renounceOwnership()": {
        "details": "Leaves the contract without owner. It will not be possible to call `onlyOwner` functions anymore. Can only be called by the current owner. NOTE: Renouncing ownership will leave the contract without an owner, thereby removing any functionality that is only available to the owner."
      },
      "singlePurchase((uint8,uint256,uint256,bytes),address,address)": {
        "params": {
          "feeRecipientFirst": "- address of the first fee recipient",
          "feeRecipientSecond": "- address of the second fee recipient",
          "purchaseDetails": "- details about the purchase (more info in PurchaseDetails struct)"
        }
      },
      "supportsInterface(bytes4)": {
        "details": "See {IERC165-supportsInterface}."
      },
      "swapExactTokensForTokens((bytes,uint256,uint256,bool))": {
        "params": {
          "swapDetails": "swapDetails required"
        }
      },
      "swapTokensForExactTokens((bytes,uint256,uint256,bool))": {
        "params": {
          "swapDetails": "swapDetails required"
        }
      },
      "swapV2ExactETHOrWETHForTokens((address[],uint256,uint256,uint256[],bool))": {
        "params": {
          "swapDetails": "swapDetails required"
        }
      },
      "swapV2ExactTokensForTokens((address[],uint256,uint256,uint256[],bool))": {
        "params": {
          "swapDetails": "swapDetails required"
        }
      },
      "swapV2TokensForExactETHOrWETH((address[],uint256,uint256,uint256[],bool))": {
        "params": {
          "swapDetails": "swapDetails required"
        }
      },
      "swapV2TokensForExactTokens((address[],uint256,uint256,uint256[],bool))": {
        "params": {
          "swapDetails": "swapDetails required"
        }
      },
      "transferOwnership(address)": {
        "details": "Transfers ownership of the contract to a new account (`newOwner`). Can only be called by the current owner."
      }
    },
    "version": 1
  },
  "userdoc": {
    "kind": "user",
    "methods": {
      "bulkPurchase((uint8,uint256,uint256,bytes)[],address,address,bool)": {
        "notice": "executes an array of purchases"
      },
      "bulkPurchaseWithSwap((uint8,uint256,uint256,bytes)[],address,address,bool,(bytes,uint256,uint256,bool))": {
        "notice": "executes an array of purchases - with swap v3"
      },
      "bulkPurchaseWithV2Swap((uint8,uint256,uint256,bytes)[],address,address,bool,(address[],uint256,uint256,uint256[],bool))": {
        "notice": "executes an array of purchases - with swap v2 - tokens for tokens or tokens for eth/weth"
      },
      "pause()": {
        "notice": "Pause the contract"
      },
      "setRarible(address)": {
        "notice": "temp for upgrade - to remove once initialized"
      },
      "setTransferProxy(address)": {
        "notice": "Set erc20 transfer proxy"
      },
      "setUniswapV2(address)": {
        "notice": "Set uniswap v2 router"
      },
      "setUniswapV3(address)": {
        "notice": "Set uniswap v3 router"
      },
      "setWrapped(address)": {
        "notice": "Set wrapped token"
      },
      "singlePurchase((uint8,uint256,uint256,bytes),address,address)": {
        "notice": "executes a single purchase"
      },
      "swapExactTokensForTokens((bytes,uint256,uint256,bool))": {
        "notice": "swaps exact tokens for tokens - uniswap v3"
      },
      "swapTokensForExactTokens((bytes,uint256,uint256,bool))": {
        "notice": "swaps tokens for exact tokens - uniswap v3"
      },
      "swapV2ExactETHOrWETHForTokens((address[],uint256,uint256,uint256[],bool))": {
        "notice": "swaps exact ETH or WETH for tokens - uniswap v2"
      },
      "swapV2ExactTokensForTokens((address[],uint256,uint256,uint256[],bool))": {
        "notice": "swaps exact tokens for tokens - uniswap v2"
      },
      "swapV2TokensForExactETHOrWETH((address[],uint256,uint256,uint256[],bool))": {
        "notice": "swaps tokens for exact ETH or WETH - uniswap v2"
      },
      "swapV2TokensForExactTokens((address[],uint256,uint256,uint256[],bool))": {
        "notice": "swaps tokens for exact tokens - uniswap v2"
      },
      "unpause()": {
        "notice": "Unpause the contract"
      }
    },
    "version": 1
  },
  "storageLayout": {
    "storage": [
      {
        "astId": 721,
        "contract": "src/exchange-wrapper/ExchangeWrapper.sol:ExchangeWrapper",
        "label": "_initialized",
        "offset": 0,
        "slot": "0",
        "type": "t_uint8"
      },
      {
        "astId": 724,
        "contract": "src/exchange-wrapper/ExchangeWrapper.sol:ExchangeWrapper",
        "label": "_initializing",
        "offset": 1,
        "slot": "0",
        "type": "t_bool"
      },
      {
        "astId": 4842,
        "contract": "src/exchange-wrapper/ExchangeWrapper.sol:ExchangeWrapper",
        "label": "__gap",
        "offset": 0,
        "slot": "1",
        "type": "t_array(t_uint256)50_storage"
      },
      {
        "astId": 593,
        "contract": "src/exchange-wrapper/ExchangeWrapper.sol:ExchangeWrapper",
        "label": "_owner",
        "offset": 0,
        "slot": "51",
        "type": "t_address"
      },
      {
        "astId": 713,
        "contract": "src/exchange-wrapper/ExchangeWrapper.sol:ExchangeWrapper",
        "label": "__gap",
        "offset": 0,
        "slot": "52",
        "type": "t_array(t_uint256)49_storage"
      },
      {
        "astId": 886,
        "contract": "src/exchange-wrapper/ExchangeWrapper.sol:ExchangeWrapper",
        "label": "_paused",
        "offset": 0,
        "slot": "101",
        "type": "t_bool"
      },
      {
        "astId": 991,
        "contract": "src/exchange-wrapper/ExchangeWrapper.sol:ExchangeWrapper",
        "label": "__gap",
        "offset": 0,
        "slot": "102",
        "type": "t_array(t_uint256)49_storage"
      },
      {
        "astId": 11145,
        "contract": "src/exchange-wrapper/ExchangeWrapper.sol:ExchangeWrapper",
        "label": "exchangeV2",
        "offset": 0,
        "slot": "151",
        "type": "t_address"
      },
      {
        "astId": 11147,
        "contract": "src/exchange-wrapper/ExchangeWrapper.sol:ExchangeWrapper",
        "label": "rarible",
        "offset": 0,
        "slot": "152",
        "type": "t_address"
      },
      {
        "astId": 11149,
        "contract": "src/exchange-wrapper/ExchangeWrapper.sol:ExchangeWrapper",
        "label": "wyvern",
        "offset": 0,
        "slot": "153",
        "type": "t_address"
      },
      {
        "astId": 11151,
        "contract": "src/exchange-wrapper/ExchangeWrapper.sol:ExchangeWrapper",
        "label": "seaport",
        "offset": 0,
        "slot": "154",
        "type": "t_address"
      },
      {
        "astId": 11153,
        "contract": "src/exchange-wrapper/ExchangeWrapper.sol:ExchangeWrapper",
        "label": "x2y2",
        "offset": 0,
        "slot": "155",
        "type": "t_address"
      },
      {
        "astId": 11155,
        "contract": "src/exchange-wrapper/ExchangeWrapper.sol:ExchangeWrapper",
        "label": "looksrare",
        "offset": 0,
        "slot": "156",
        "type": "t_address"
      },
      {
        "astId": 11157,
        "contract": "src/exchange-wrapper/ExchangeWrapper.sol:ExchangeWrapper",
        "label": "sudoswap",
        "offset": 0,
        "slot": "157",
        "type": "t_address"
      },
      {
        "astId": 11159,
        "contract": "src/exchange-wrapper/ExchangeWrapper.sol:ExchangeWrapper",
        "label": "blur",
        "offset": 0,
        "slot": "158",
        "type": "t_address"
      },
      {
        "astId": 11162,
        "contract": "src/exchange-wrapper/ExchangeWrapper.sol:ExchangeWrapper",
        "label": "uniswapRouterV2",
        "offset": 0,
        "slot": "159",
        "type": "t_contract(ISwapRouterV2)14144"
      },
      {
        "astId": 11165,
        "contract": "src/exchange-wrapper/ExchangeWrapper.sol:ExchangeWrapper",
        "label": "uniswapRouterV3",
        "offset": 0,
        "slot": "160",
        "type": "t_contract(ISwapRouterV3)14194"
      },
      {
        "astId": 11167,
        "contract": "src/exchange-wrapper/ExchangeWrapper.sol:ExchangeWrapper",
        "label": "wrappedToken",
        "offset": 0,
        "slot": "161",
        "type": "t_address"
      },
      {
        "astId": 11169,
        "contract": "src/exchange-wrapper/ExchangeWrapper.sol:ExchangeWrapper",
        "label": "erc20TransferProxy",
        "offset": 0,
        "slot": "162",
        "type": "t_address"
      }
    ],
    "types": {
      "t_address": {
        "encoding": "inplace",
        "label": "address",
        "numberOfBytes": "20"
      },
      "t_array(t_uint256)49_storage": {
        "base": "t_uint256",
        "encoding": "inplace",
        "label": "uint256[49]",
        "numberOfBytes": "1568"
      },
      "t_array(t_uint256)50_storage": {
        "base": "t_uint256",
        "encoding": "inplace",
        "label": "uint256[50]",
        "numberOfBytes": "1600"
      },
      "t_bool": {
        "encoding": "inplace",
        "label": "bool",
        "numberOfBytes": "1"
      },
      "t_contract(ISwapRouterV2)14144": {
        "encoding": "inplace",
        "label": "contract ISwapRouterV2",
        "numberOfBytes": "20"
      },
      "t_contract(ISwapRouterV3)14194": {
        "encoding": "inplace",
        "label": "contract ISwapRouterV3",
        "numberOfBytes": "20"
      },
      "t_uint256": {
        "encoding": "inplace",
        "label": "uint256",
        "numberOfBytes": "32"
      },
      "t_uint8": {
        "encoding": "inplace",
        "label": "uint8",
        "numberOfBytes": "1"
      }
    }
  }
}