{
  "address": "0xAB8944314D0eA90fba56644A4989Dd9924F56748",
  "abi": [
    {
      "anonymous": false,
      "inputs": [
        {
          "indexed": false,
          "internalType": "bool",
          "name": "result",
          "type": "bool"
        },
        {
          "indexed": true,
          "internalType": "address",
          "name": "sender",
          "type": "address"
        }
      ],
      "name": "Execution",
      "type": "event"
    },
    {
      "anonymous": false,
      "inputs": [
        {
          "indexed": false,
          "internalType": "uint8",
          "name": "version",
          "type": "uint8"
        }
      ],
      "name": "Initialized",
      "type": "event"
    },
    {
      "anonymous": false,
      "inputs": [
        {
          "indexed": true,
          "internalType": "address",
          "name": "previousOwner",
          "type": "address"
        },
        {
          "indexed": true,
          "internalType": "address",
          "name": "newOwner",
          "type": "address"
        }
      ],
      "name": "OwnershipTransferred",
      "type": "event"
    },
    {
      "anonymous": false,
      "inputs": [
        {
          "indexed": false,
          "internalType": "address",
          "name": "account",
          "type": "address"
        }
      ],
      "name": "Paused",
      "type": "event"
    },
    {
      "anonymous": false,
      "inputs": [
        {
          "indexed": false,
          "internalType": "address",
          "name": "account",
          "type": "address"
        }
      ],
      "name": "Unpaused",
      "type": "event"
    },
    {
      "inputs": [
        {
          "internalType": "address",
          "name": "_exchangeV2",
          "type": "address"
        },
        {
          "internalType": "address",
          "name": "_rarible",
          "type": "address"
        },
        {
          "internalType": "address",
          "name": "_wyvern",
          "type": "address"
        },
        {
          "internalType": "address",
          "name": "_seaport",
          "type": "address"
        },
        {
          "internalType": "address",
          "name": "_x2y2",
          "type": "address"
        },
        {
          "internalType": "address",
          "name": "_looksrare",
          "type": "address"
        },
        {
          "internalType": "address",
          "name": "_sudoswap",
          "type": "address"
        },
        {
          "internalType": "address",
          "name": "_blur",
          "type": "address"
        },
        {
          "internalType": "address",
          "name": "_wrappedToken",
          "type": "address"
        },
        {
          "internalType": "contract ISwapRouterV3",
          "name": "_uniswapRouterV3",
          "type": "address"
        },
        {
          "internalType": "address",
          "name": "_erc20TransferProxy",
          "type": "address"
        },
        {
          "internalType": "contract ISwapRouterV2",
          "name": "_uniswapRouterV2",
          "type": "address"
        }
      ],
      "name": "__ExchangeWrapper_init",
      "outputs": [],
      "stateMutability": "nonpayable",
      "type": "function"
    },
    {
      "inputs": [],
      "name": "blur",
      "outputs": [
        {
          "internalType": "address",
          "name": "",
          "type": "address"
        }
      ],
      "stateMutability": "view",
      "type": "function"
    },
    {
      "inputs": [
        {
          "components": [
            {
              "internalType": "enum ExchangeWrapperCore.Markets",
              "name": "marketId",
              "type": "uint8"
            },
            {
              "internalType": "uint256",
              "name": "amount",
              "type": "uint256"
            },
            {
              "internalType": "uint256",
              "name": "fees",
              "type": "uint256"
            },
            {
              "internalType": "bytes",
              "name": "data",
              "type": "bytes"
            }
          ],
          "internalType": "struct ExchangeWrapperCore.PurchaseDetails[]",
          "name": "purchaseDetails",
          "type": "tuple[]"
        },
        {
          "internalType": "address",
          "name": "feeRecipientFirst",
          "type": "address"
        },
        {
          "internalType": "address",
          "name": "feeRecipientSecond",
          "type": "address"
        },
        {
          "internalType": "bool",
          "name": "allowFail",
          "type": "bool"
        }
      ],
      "name": "bulkPurchase",
      "outputs": [],
      "stateMutability": "payable",
      "type": "function"
    },
    {
      "inputs": [
        {
          "components": [
            {
              "internalType": "enum ExchangeWrapperCore.Markets",
              "name": "marketId",
              "type": "uint8"
            },
            {
              "internalType": "uint256",
              "name": "amount",
              "type": "uint256"
            },
            {
              "internalType": "uint256",
              "name": "fees",
              "type": "uint256"
            },
            {
              "internalType": "bytes",
              "name": "data",
              "type": "bytes"
            }
          ],
          "internalType": "struct ExchangeWrapperCore.PurchaseDetails[]",
          "name": "purchaseDetails",
          "type": "tuple[]"
        },
        {
          "internalType": "address",
          "name": "feeRecipientFirst",
          "type": "address"
        },
        {
          "internalType": "address",
          "name": "feeRecipientSecond",
          "type": "address"
        },
        {
          "internalType": "bool",
          "name": "allowFail",
          "type": "bool"
        },
        {
          "components": [
            {
              "internalType": "bytes",
              "name": "path",
              "type": "bytes"
            },
            {
              "internalType": "uint256",
              "name": "amountOut",
              "type": "uint256"
            },
            {
              "internalType": "uint256",
              "name": "amountInMaximum",
              "type": "uint256"
            },
            {
              "internalType": "bool",
              "name": "unwrap",
              "type": "bool"
            }
          ],
          "internalType": "struct ExchangeWrapperCore.SwapDetailsIn",
          "name": "swapDetails",
          "type": "tuple"
        }
      ],
      "name": "bulkPurchaseWithSwap",
      "outputs": [],
      "stateMutability": "payable",
      "type": "function"
    },
    {
      "inputs": [
        {
          "components": [
            {
              "internalType": "enum ExchangeWrapperCore.Markets",
              "name": "marketId",
              "type": "uint8"
            },
            {
              "internalType": "uint256",
              "name": "amount",
              "type": "uint256"
            },
            {
              "internalType": "uint256",
              "name": "fees",
              "type": "uint256"
            },
            {
              "internalType": "bytes",
              "name": "data",
              "type": "bytes"
            }
          ],
          "internalType": "struct ExchangeWrapperCore.PurchaseDetails[]",
          "name": "purchaseDetails",
          "type": "tuple[]"
        },
        {
          "internalType": "address",
          "name": "feeRecipientFirst",
          "type": "address"
        },
        {
          "internalType": "address",
          "name": "feeRecipientSecond",
          "type": "address"
        },
        {
          "internalType": "bool",
          "name": "allowFail",
          "type": "bool"
        },
        {
          "components": [
            {
              "internalType": "address[]",
              "name": "path",
              "type": "address[]"
            },
            {
              "internalType": "uint256",
              "name": "amountOut",
              "type": "uint256"
            },
            {
              "internalType": "uint256",
              "name": "amountInMaximum",
              "type": "uint256"
            }
          ],
          "internalType": "struct ExchangeWrapperCore.SwapV2DetailsIn",
          "name": "swapDetails",
          "type": "tuple"
        }
      ],
      "name": "bulkPurchaseWithV2Swap",
      "outputs": [],
      "stateMutability": "payable",
      "type": "function"
    },
    {
      "inputs": [],
      "name": "erc20TransferProxy",
      "outputs": [
        {
          "internalType": "address",
          "name": "",
          "type": "address"
        }
      ],
      "stateMutability": "view",
      "type": "function"
    },
    {
      "inputs": [],
      "name": "exchangeV2",
      "outputs": [
        {
          "internalType": "address",
          "name": "",
          "type": "address"
        }
      ],
      "stateMutability": "view",
      "type": "function"
    },
    {
      "inputs": [],
      "name": "looksrare",
      "outputs": [
        {
          "internalType": "address",
          "name": "",
          "type": "address"
        }
      ],
      "stateMutability": "view",
      "type": "function"
    },
    {
      "inputs": [
        {
          "internalType": "address",
          "name": "",
          "type": "address"
        },
        {
          "internalType": "address",
          "name": "",
          "type": "address"
        },
        {
          "internalType": "uint256[]",
          "name": "",
          "type": "uint256[]"
        },
        {
          "internalType": "uint256[]",
          "name": "",
          "type": "uint256[]"
        },
        {
          "internalType": "bytes",
          "name": "",
          "type": "bytes"
        }
      ],
      "name": "onERC1155BatchReceived",
      "outputs": [
        {
          "internalType": "bytes4",
          "name": "",
          "type": "bytes4"
        }
      ],
      "stateMutability": "nonpayable",
      "type": "function"
    },
    {
      "inputs": [
        {
          "internalType": "address",
          "name": "",
          "type": "address"
        },
        {
          "internalType": "address",
          "name": "",
          "type": "address"
        },
        {
          "internalType": "uint256",
          "name": "",
          "type": "uint256"
        },
        {
          "internalType": "uint256",
          "name": "",
          "type": "uint256"
        },
        {
          "internalType": "bytes",
          "name": "",
          "type": "bytes"
        }
      ],
      "name": "onERC1155Received",
      "outputs": [
        {
          "internalType": "bytes4",
          "name": "",
          "type": "bytes4"
        }
      ],
      "stateMutability": "nonpayable",
      "type": "function"
    },
    {
      "inputs": [
        {
          "internalType": "address",
          "name": "",
          "type": "address"
        },
        {
          "internalType": "address",
          "name": "",
          "type": "address"
        },
        {
          "internalType": "uint256",
          "name": "",
          "type": "uint256"
        },
        {
          "internalType": "bytes",
          "name": "",
          "type": "bytes"
        }
      ],
      "name": "onERC721Received",
      "outputs": [
        {
          "internalType": "bytes4",
          "name": "",
          "type": "bytes4"
        }
      ],
      "stateMutability": "nonpayable",
      "type": "function"
    },
    {
      "inputs": [],
      "name": "owner",
      "outputs": [
        {
          "internalType": "address",
          "name": "",
          "type": "address"
        }
      ],
      "stateMutability": "view",
      "type": "function"
    },
    {
      "inputs": [],
      "name": "pause",
      "outputs": [],
      "stateMutability": "nonpayable",
      "type": "function"
    },
    {
      "inputs": [],
      "name": "paused",
      "outputs": [
        {
          "internalType": "bool",
          "name": "",
          "type": "bool"
        }
      ],
      "stateMutability": "view",
      "type": "function"
    },
    {
      "inputs": [],
      "name": "rarible",
      "outputs": [
        {
          "internalType": "address",
          "name": "",
          "type": "address"
        }
      ],
      "stateMutability": "view",
      "type": "function"
    },
    {
      "inputs": [],
      "name": "renounceOwnership",
      "outputs": [],
      "stateMutability": "nonpayable",
      "type": "function"
    },
    {
      "inputs": [],
      "name": "seaport",
      "outputs": [
        {
          "internalType": "address",
          "name": "",
          "type": "address"
        }
      ],
      "stateMutability": "view",
      "type": "function"
    },
    {
      "inputs": [
        {
          "internalType": "address",
          "name": "_blur",
          "type": "address"
        }
      ],
      "name": "setBlur",
      "outputs": [],
      "stateMutability": "nonpayable",
      "type": "function"
    },
    {
      "inputs": [
        {
          "internalType": "address",
          "name": "_rarible",
          "type": "address"
        }
      ],
      "name": "setRarible",
      "outputs": [],
      "stateMutability": "nonpayable",
      "type": "function"
    },
    {
      "inputs": [
        {
          "internalType": "address",
          "name": "_erc20TransferProxy",
          "type": "address"
        }
      ],
      "name": "setTransferProxy",
      "outputs": [],
      "stateMutability": "nonpayable",
      "type": "function"
    },
    {
      "inputs": [
        {
          "internalType": "contract ISwapRouterV2",
          "name": "_uniswapRouterV2",
          "type": "address"
        }
      ],
      "name": "setUniswapV2",
      "outputs": [],
      "stateMutability": "nonpayable",
      "type": "function"
    },
    {
      "inputs": [
        {
          "internalType": "contract ISwapRouterV3",
          "name": "_uniswapRouterV3",
          "type": "address"
        }
      ],
      "name": "setUniswapV3",
      "outputs": [],
      "stateMutability": "nonpayable",
      "type": "function"
    },
    {
      "inputs": [
        {
          "internalType": "address",
          "name": "_wrappedToken",
          "type": "address"
        }
      ],
      "name": "setWrapped",
      "outputs": [],
      "stateMutability": "nonpayable",
      "type": "function"
    },
    {
      "inputs": [
        {
          "components": [
            {
              "internalType": "enum ExchangeWrapperCore.Markets",
              "name": "marketId",
              "type": "uint8"
            },
            {
              "internalType": "uint256",
              "name": "amount",
              "type": "uint256"
            },
            {
              "internalType": "uint256",
              "name": "fees",
              "type": "uint256"
            },
            {
              "internalType": "bytes",
              "name": "data",
              "type": "bytes"
            }
          ],
          "internalType": "struct ExchangeWrapperCore.PurchaseDetails",
          "name": "purchaseDetails",
          "type": "tuple"
        },
        {
          "internalType": "address",
          "name": "feeRecipientFirst",
          "type": "address"
        },
        {
          "internalType": "address",
          "name": "feeRecipientSecond",
          "type": "address"
        }
      ],
      "name": "singlePurchase",
      "outputs": [],
      "stateMutability": "payable",
      "type": "function"
    },
    {
      "inputs": [
        {
          "components": [
            {
              "internalType": "enum ExchangeWrapperCore.Markets",
              "name": "marketId",
              "type": "uint8"
            },
            {
              "internalType": "uint256",
              "name": "amount",
              "type": "uint256"
            },
            {
              "internalType": "uint256",
              "name": "fees",
              "type": "uint256"
            },
            {
              "internalType": "bytes",
              "name": "data",
              "type": "bytes"
            }
          ],
          "internalType": "struct ExchangeWrapperCore.PurchaseDetails",
          "name": "purchaseDetails",
          "type": "tuple"
        },
        {
          "internalType": "address",
          "name": "feeRecipientFirst",
          "type": "address"
        },
        {
          "internalType": "address",
          "name": "feeRecipientSecond",
          "type": "address"
        },
        {
          "components": [
            {
              "internalType": "bytes",
              "name": "path",
              "type": "bytes"
            },
            {
              "internalType": "uint256",
              "name": "amountOut",
              "type": "uint256"
            },
            {
              "internalType": "uint256",
              "name": "amountInMaximum",
              "type": "uint256"
            },
            {
              "internalType": "bool",
              "name": "unwrap",
              "type": "bool"
            }
          ],
          "internalType": "struct ExchangeWrapperCore.SwapDetailsIn",
          "name": "swapDetails",
          "type": "tuple"
        }
      ],
      "name": "singlePurchaseWithSwap",
      "outputs": [],
      "stateMutability": "payable",
      "type": "function"
    },
    {
      "inputs": [
        {
          "components": [
            {
              "internalType": "enum ExchangeWrapperCore.Markets",
              "name": "marketId",
              "type": "uint8"
            },
            {
              "internalType": "uint256",
              "name": "amount",
              "type": "uint256"
            },
            {
              "internalType": "uint256",
              "name": "fees",
              "type": "uint256"
            },
            {
              "internalType": "bytes",
              "name": "data",
              "type": "bytes"
            }
          ],
          "internalType": "struct ExchangeWrapperCore.PurchaseDetails",
          "name": "purchaseDetails",
          "type": "tuple"
        },
        {
          "internalType": "address",
          "name": "feeRecipientFirst",
          "type": "address"
        },
        {
          "internalType": "address",
          "name": "feeRecipientSecond",
          "type": "address"
        },
        {
          "components": [
            {
              "internalType": "address[]",
              "name": "path",
              "type": "address[]"
            },
            {
              "internalType": "uint256",
              "name": "amountOut",
              "type": "uint256"
            },
            {
              "internalType": "uint256",
              "name": "amountInMaximum",
              "type": "uint256"
            }
          ],
          "internalType": "struct ExchangeWrapperCore.SwapV2DetailsIn",
          "name": "swapDetails",
          "type": "tuple"
        }
      ],
      "name": "singlePurchaseWithV2Swap",
      "outputs": [],
      "stateMutability": "payable",
      "type": "function"
    },
    {
      "inputs": [],
      "name": "sudoswap",
      "outputs": [
        {
          "internalType": "address",
          "name": "",
          "type": "address"
        }
      ],
      "stateMutability": "view",
      "type": "function"
    },
    {
      "inputs": [
        {
          "internalType": "bytes4",
          "name": "interfaceId",
          "type": "bytes4"
        }
      ],
      "name": "supportsInterface",
      "outputs": [
        {
          "internalType": "bool",
          "name": "",
          "type": "bool"
        }
      ],
      "stateMutability": "view",
      "type": "function"
    },
    {
      "inputs": [
        {
          "internalType": "address",
          "name": "newOwner",
          "type": "address"
        }
      ],
      "name": "transferOwnership",
      "outputs": [],
      "stateMutability": "nonpayable",
      "type": "function"
    },
    {
      "inputs": [],
      "name": "uniswapRouterV2",
      "outputs": [
        {
          "internalType": "contract ISwapRouterV2",
          "name": "",
          "type": "address"
        }
      ],
      "stateMutability": "view",
      "type": "function"
    },
    {
      "inputs": [],
      "name": "uniswapRouterV3",
      "outputs": [
        {
          "internalType": "contract ISwapRouterV3",
          "name": "",
          "type": "address"
        }
      ],
      "stateMutability": "view",
      "type": "function"
    },
    {
      "inputs": [],
      "name": "unpause",
      "outputs": [],
      "stateMutability": "nonpayable",
      "type": "function"
    },
    {
      "inputs": [],
      "name": "wrappedToken",
      "outputs": [
        {
          "internalType": "address",
          "name": "",
          "type": "address"
        }
      ],
      "stateMutability": "view",
      "type": "function"
    },
    {
      "inputs": [],
      "name": "wyvern",
      "outputs": [
        {
          "internalType": "address",
          "name": "",
          "type": "address"
        }
      ],
      "stateMutability": "view",
      "type": "function"
    },
    {
      "inputs": [],
      "name": "x2y2",
      "outputs": [
        {
          "internalType": "address",
          "name": "",
          "type": "address"
        }
      ],
      "stateMutability": "view",
      "type": "function"
    },
    {
      "stateMutability": "payable",
      "type": "receive"
    }
  ],
  "transactionHash": "0xe53d921a8051a6a2faa038f47fcd9e9bb762c09c61036651680688a918ef67f2",
  "args": [],
  "solcInputHash": "87416f68acb0d40f1193fc99c0a3b9d5",
  "bytecode": "0x608060405234801561001057600080fd5b506143f5806100206000396000f3fe6080604052600436106101c85760003560e01c80638a11c270116100f8578063c1aa293811610090578063c1aa2938146104fa578063c6d0ffd71461051a578063dd39dac01461053a578063df6c25581461055a578063f23a6e611461057a578063f2fde38b146105a6578063f5c7bd70146105c6578063fc40c9c7146105e6578063fee03e9e1461060657600080fd5b80638a11c270146103f75780638ae429051461040a5780638da5cb5b1461042a578063996c6cc314610448578063a05f32dc14610468578063a8e90b5714610488578063ac403129146104a8578063b94ee332146104bb578063bc197c81146104ce57600080fd5b806359e868291161016b57806359e868291461030f5780635c975abb1461032f5780635ea1e4c91461034757806368d4176914610367578063715018a61461037a57806373a963d71461038f5780637908716c146103af5780638456cb59146103cf57806386496e7a146103e457600080fd5b806301ffc9a7146101d457806308b1571d1461020957806310f91b0b1461022b578063150b7a0214610263578063348c4efd146102a75780633f4ba83a146102ba5780634edfc9f9146102cf578063596fa9e3146102ef57600080fd5b366101cf57005b600080fd5b3480156101e057600080fd5b506101f46101ef3660046126d5565b610626565b60405190151581526020015b60405180910390f35b34801561021557600080fd5b50610229610224366004612717565b61065d565b005b34801561023757600080fd5b5060a05461024b906001600160a01b031681565b6040516001600160a01b039091168152602001610200565b34801561026f57600080fd5b5061028e61027e3660046128ee565b630a85bd0160e11b949350505050565b6040516001600160e01b03199091168152602001610200565b6102296102b5366004612aff565b610687565b3480156102c657600080fd5b506102296106d6565b3480156102db57600080fd5b5060995461024b906001600160a01b031681565b3480156102fb57600080fd5b5060a25461024b906001600160a01b031681565b34801561031b57600080fd5b5061022961032a366004612717565b6106e8565b34801561033b57600080fd5b5060655460ff166101f4565b34801561035357600080fd5b50609d5461024b906001600160a01b031681565b610229610375366004612c66565b610712565b34801561038657600080fd5b50610229610725565b34801561039b57600080fd5b506102296103aa366004612717565b610737565b3480156103bb57600080fd5b506102296103ca366004612717565b610761565b3480156103db57600080fd5b5061022961078b565b6102296103f2366004612cfa565b61079b565b610229610405366004612d5d565b610820565b34801561041657600080fd5b50610229610425366004612717565b610864565b34801561043657600080fd5b506033546001600160a01b031661024b565b34801561045457600080fd5b50609f5461024b906001600160a01b031681565b34801561047457600080fd5b5060975461024b906001600160a01b031681565b34801561049457600080fd5b50609c5461024b906001600160a01b031681565b6102296104b6366004612ddd565b61088e565b6102296104c9366004612e5d565b6108a1565b3480156104da57600080fd5b5061028e6104e9366004612f2c565b63bc197c8160e01b95945050505050565b34801561050657600080fd5b50610229610515366004612717565b6109ca565b34801561052657600080fd5b5060985461024b906001600160a01b031681565b34801561054657600080fd5b50610229610555366004612fcc565b6109f4565b34801561056657600080fd5b50609e5461024b906001600160a01b031681565b34801561058657600080fd5b5061028e6105953660046130b4565b63f23a6e6160e01b95945050505050565b3480156105b257600080fd5b506102296105c1366004612717565b610c04565b3480156105d257600080fd5b50609a5461024b906001600160a01b031681565b3480156105f257600080fd5b50609b5461024b906001600160a01b031681565b34801561061257600080fd5b5060a15461024b906001600160a01b031681565b60006001600160e01b03198216630271189760e51b148061065757506301ffc9a760e01b6001600160e01b03198316145b92915050565b610665610c7d565b609e80546001600160a01b0319166001600160a01b0392909216919091179055565b61068f610cd7565b600061069a82610d1d565b9050806106c25760405162461bcd60e51b81526004016106b99061311c565b60405180910390fd5b6106ce868686866108a1565b505050505050565b6106de610c7d565b6106e6611115565b565b6106f0610c7d565b60a080546001600160a01b0319166001600160a01b0392909216919091179055565b61071a610cd7565b600061069a82611167565b61072d610c7d565b6106e6600061147c565b61073f610c7d565b60a280546001600160a01b0319166001600160a01b0392909216919091179055565b610769610c7d565b609880546001600160a01b0319166001600160a01b0392909216919091179055565b610793610c7d565b6106e66114ce565b6107a3610cd7565b60008060006107b386600061150b565b9250925092506107c03390565b6001600160a01b03167fc5dd8c21802b423a9c822ee9c934f042186e6bb7097a1dd17717343ee84df714846040516107fc911515815260200190565b60405180910390a261080e8286612213565b6108188185612213565b6106ce61223e565b610828610cd7565b600061083382611167565b9050806108525760405162461bcd60e51b81526004016106b99061311c565b61085d85858561079b565b5050505050565b61086c610c7d565b60a180546001600160a01b0319166001600160a01b0392909216919091179055565b610896610cd7565b600061083382610d1d565b6108a9610cd7565b6000806000808751905060005b8181101561095b5760008060006108e68c85815181106108d8576108d8613149565b60200260200101518a61150b565b92509250925085806108f55750825b604051841515815290965033907fc5dd8c21802b423a9c822ee9c934f042186e6bb7097a1dd17717343ee84df7149060200160405180910390a26109398289613175565b97506109458188613175565b9650505050806109549061318d565b90506108b6565b50816109a45760405162461bcd60e51b81526020600482015260186024820152776e6f207375636365737366756c20657865637574696f6e7360401b60448201526064016106b9565b6109ae8488612213565b6109b88387612213565b6109c061223e565b5050505050505050565b6109d2610c7d565b609f80546001600160a01b0319166001600160a01b0392909216919091179055565b600054610100900460ff1615808015610a145750600054600160ff909116105b80610a2e5750303b158015610a2e575060005460ff166001145b610a915760405162461bcd60e51b815260206004820152602e60248201527f496e697469616c697a61626c653a20636f6e747261637420697320616c72656160448201526d191e481a5b9a5d1a585b1a5e995960921b60648201526084016106b9565b6000805460ff191660011790558015610ab4576000805461ff0019166101001790555b610abc61224f565b610ac4612276565b610acc6122a6565b610baf8d8d8d8d8d8d8d8d8d8d8d8d609780546001600160a01b039d8e166001600160a01b031991821617909155609880549c8e169c82169c909c17909b55609980549a8d169a8c169a909a17909955609a8054988c16988b1698909817909755609b8054968b16968a1696909617909555609c8054948a1694891694909417909355609d805492891692881692909217909155609e8054918816918716919091179055609f805491871691861691909117905560a0805491861691851691909117905560a1805491851691841691909117905560a28054919093169116179055565b8015610bf5576000805461ff0019169055604051600181527f7f26b83ff96e1f2b6a682f133852f6798a09c465da95921460cefb38474024989060200160405180910390a15b50505050505050505050505050565b610c0c610c7d565b6001600160a01b038116610c715760405162461bcd60e51b815260206004820152602660248201527f4f776e61626c653a206e6577206f776e657220697320746865207a65726f206160448201526564647265737360d01b60648201526084016106b9565b610c7a8161147c565b50565b6033546001600160a01b031633146106e65760405162461bcd60e51b815260206004820181905260248201527f4f776e61626c653a2063616c6c6572206973206e6f7420746865206f776e657260448201526064016106b9565b60655460ff16156106e65760405162461bcd60e51b815260206004820152601060248201526f14185d5cd8589b194e881c185d5cd95960821b60448201526064016106b9565b8051805160009182918290610d34906014906131a8565b8281016020015160a154604080890151905163776062c360e01b8152600160601b90930496509293506001600160a01b03169163776062c391610d7f918791339130916004016131bf565b600060405180830381600087803b158015610d9957600080fd5b505af1158015610dad573d6000803e3d6000fd5b505060a054604051636eb1769f60e11b81526001600160a01b03918216600482015230602482015260009350908616915063dd62ed3e9060440160206040518083038186803b158015610dff57600080fd5b505afa158015610e13573d6000803e3d6000fd5b505050506040513d601f19601f82011682018060405250810190610e3791906131e9565b90508560400151811015610ecf5760a05460405163095ea7b360e01b81526001600160a01b038681169263095ea7b392610e7b929091169060001990600401613202565b602060405180830381600087803b158015610e9557600080fd5b505af1158015610ea9573d6000803e3d6000fd5b505050506040513d601f19601f82011682018060405250810190610ecd9190613226565b505b6040805160a08082018352885182523060208084019190915242838501528901516060830152888301516080830152549151631e51809360e31b815290916000916001600160a01b039091169063f28c049890610f3090859060040161329b565b602060405180830381600087803b158015610f4a57600080fd5b505af1925050508015610f7a575060408051601f3d908101601f19168201909252610f77918101906131e9565b60015b610f8c57506000979650505050505050565b905060a060009054906101000a90046001600160a01b03166001600160a01b03166312210e8a6040518163ffffffff1660e01b8152600401600060405180830381600087803b158015610fde57600080fd5b505af1158015610ff2573d6000803e3d6000fd5b5050505087606001511561106a57609f546020890151604051632e1a7d4d60e01b81526001600160a01b0390921691632e1a7d4d916110379160040190815260200190565b600060405180830381600087803b15801561105157600080fd5b505af1158015611065573d6000803e3d6000fd5b505050505b8760400151811015611107576001600160a01b03861663a9059cbb33838b6040015161109691906131a8565b6040518363ffffffff1660e01b81526004016110b3929190613202565b602060405180830381600087803b1580156110cd57600080fd5b505af11580156110e1573d6000803e3d6000fd5b505050506040513d601f19601f820116820180604052508101906111059190613226565b505b506001979650505050505050565b61111d6122d9565b6065805460ff191690557f5db9ee0a495bf2e6ff9c91a7834c1ba4fdd244a5e8aa4e537bd38aeae4b073aa335b6040516001600160a01b03909116815260200160405180910390a1565b600080826000015160008151811061118157611181613149565b602090810291909101015160a1549091506001600160a01b031663776062c382333087604001516040518563ffffffff1660e01b81526004016111c794939291906131bf565b600060405180830381600087803b1580156111e157600080fd5b505af11580156111f5573d6000803e3d6000fd5b505060a254604051636eb1769f60e11b81526001600160a01b03918216600482015230602482015260009350908416915063dd62ed3e9060440160206040518083038186803b15801561124757600080fd5b505afa15801561125b573d6000803e3d6000fd5b505050506040513d601f19601f8201168201806040525081019061127f91906131e9565b905083604001518110156113175760a25460405163095ea7b360e01b81526001600160a01b038481169263095ea7b3926112c3929091169060001990600401613202565b602060405180830381600087803b1580156112dd57600080fd5b505af11580156112f1573d6000803e3d6000fd5b505050506040513d601f19601f820116820180604052508101906113159190613226565b505b60a254602085015160408087015187519151632512eca560e11b81526000946001600160a01b031693634a25d94a93611358939192309042906004016132f3565b600060405180830381600087803b15801561137257600080fd5b505af19250505080156113a757506040513d6000823e601f3d908101601f191682016040526113a491908101906133bf565b60015b6113b657506000949350505050565b806000815181106113c9576113c9613149565b60200260200101519150508460400151811015611471576001600160a01b03831663a9059cbb3383886040015161140091906131a8565b6040518363ffffffff1660e01b815260040161141d929190613202565b602060405180830381600087803b15801561143757600080fd5b505af115801561144b573d6000803e3d6000fd5b505050506040513d601f19601f8201168201806040525081019061146f9190613226565b505b506001949350505050565b603380546001600160a01b038381166001600160a01b0319831681179093556040519116919082907f8be0079c531659141344cd1fd0a4f28419497f9722a3daafe3b4186f6b6457e090600090a35050565b6114d6610cd7565b6065805460ff191660011790557f62e78cea01bee320cd4e420270b5ea74000d11b0c9f74754ebdbfc544b05a25861114a3390565b600080600080600061152a876060015188604001518960000151612322565b60208901519193509150600288516007811115611549576115496133fb565b141561162657609a546040516000916001600160a01b031690839061156f908790613411565b60006040518083038185875af1925050503d80600081146115ac576040519150601f19603f3d011682016040523d82523d6000602084013e6115b1565b606091505b5050905087156115d957806115d45760008060009650965096505050505061220c565b611620565b806116205760405162461bcd60e51b8152602060048201526017602482015276141d5c98da185cd94814d9585c1bdc9d0819985a5b1959604a1b60448201526064016106b9565b506121da565b60018851600781111561163b5761163b6133fb565b141561170c576099546040516000916001600160a01b0316908390611661908790613411565b60006040518083038185875af1925050503d806000811461169e576040519150601f19603f3d011682016040523d82523d6000602084013e6116a3565b606091505b5050905087156116c657806115d45760008060009650965096505050505061220c565b806116205760405162461bcd60e51b8152602060048201526016602482015275141d5c98da185cd94815de5d995c9b8819985a5b195960521b60448201526064016106b9565b600688516007811115611721576117216133fb565b14156117f9576097546040516000916001600160a01b0316908390611747908790613411565b60006040518083038185875af1925050503d8060008114611784576040519150601f19603f3d011682016040523d82523d6000602084013e611789565b606091505b5050905087156117ac57806115d45760008060009650965096505050505061220c565b806116205760405162461bcd60e51b815260206004820152601b60248201527f50757263686173652047686f73744d61726b6574206661696c6564000000000060448201526064016106b9565b60008851600781111561180e5761180e6133fb565b14156118e0576098546040516000916001600160a01b0316908390611834908790613411565b60006040518083038185875af1925050503d8060008114611871576040519150601f19603f3d011682016040523d82523d6000602084013e611876565b606091505b50509050871561189957806115d45760008060009650965096505050505061220c565b806116205760405162461bcd60e51b8152602060048201526017602482015276141d5c98da185cd94814985c9a589b194819985a5b1959604a1b60448201526064016106b9565b6003885160078111156118f5576118f56133fb565b1415611d88576000838060200190518101906119119190613921565b9050871561199357609b5460405163357a150b60e01b81526001600160a01b039091169063357a150b90849061194b908590600401613ba7565b6000604051808303818588803b15801561196457600080fd5b505af193505050508015611976575060015b61198e5760008060009650965096505050505061220c565b6119f8565b609b5460405163357a150b60e01b81526001600160a01b039091169063357a150b9084906119c5908590600401613ba7565b6000604051808303818588803b1580156119de57600080fd5b505af11580156119f2573d6000803e3d6000fd5b50505050505b60208101515160005b81811015611d8057600083602001518281518110611a2157611a21613149565b6020026020010151602001519050600084602001518381518110611a4757611a47613149565b6020026020010151604001519050600085600001518381518110611a6d57611a6d613149565b602002602001015161010001518281518110611a8b57611a8b613149565b6020026020010151602001519050600086600001518481518110611ab157611ab1613149565b602002602001015160e0015151118015611aed5750600086602001518581518110611ade57611ade613149565b602002602001015160c0015151115b15611b3f57611b3f8187602001518681518110611b0c57611b0c613149565b602002602001015160c0015188600001518681518110611b2e57611b2e613149565b602002602001015160e0015161241d565b8551805184908110611b5357611b53613149565b60200260200101516080015160011415611c3457600081806020019051810190611b7d9190613d63565b905060005b8151811015611c2d576000828281518110611b9f57611b9f613149565b6020026020010151905080600001516001600160a01b03166342842e0e30611bc43390565b84602001516040518463ffffffff1660e01b8152600401611be793929190613e21565b600060405180830381600087803b158015611c0157600080fd5b505af1158015611c15573d6000803e3d6000fd5b50505050508080611c259061318d565b915050611b82565b5050611d6c565b8551805184908110611c4857611c48613149565b60200260200101516080015160021415611d2857600081806020019051810190611c729190613e45565b905060005b8151811015611c2d576000828281518110611c9457611c94613149565b6020026020010151905080600001516001600160a01b031663f242432a30611cb93390565b846020015185604001516040518563ffffffff1660e01b8152600401611ce29493929190613f0b565b600060405180830381600087803b158015611cfc57600080fd5b505af1158015611d10573d6000803e3d6000fd5b50505050508080611d209061318d565b915050611c77565b60405162461bcd60e51b81526020600482015260196024820152783ab735b737bbb7103232b632b3b0ba32aa3cb832903c193c9960391b60448201526064016106b9565b50505080611d799061318d565b9050611a01565b5050506121da565b600488516007811115611d9d57611d9d6133fb565b1415611fc957600080600085806020019051810190611dbc9190614061565b9250925092508915611e4657609c54604051635a72594b60e11b81526001600160a01b039091169063b4e4b296908690611dfc9087908790600401614149565b6000604051808303818588803b158015611e1557600080fd5b505af193505050508015611e27575060015b611e4157600080600098509850985050505050505061220c565b611ead565b609c54604051635a72594b60e11b81526001600160a01b039091169063b4e4b296908690611e7a9087908790600401614149565b6000604051808303818588803b158015611e9357600080fd5b505af1158015611ea7573d6000803e3d6000fd5b50505050505b6001600160e01b031981166339d690a360e11b1415611f355760408201516001600160a01b03166342842e0e303385608001516040518463ffffffff1660e01b8152600401611efe93929190613e21565b600060405180830381600087803b158015611f1857600080fd5b505af1158015611f2c573d6000803e3d6000fd5b50505050611d80565b6001600160e01b0319811663025ceed960e61b1415611f8c57604082810151608084015160a08501519251637921219560e11b81526001600160a01b039092169263f242432a92611efe9230923392600401613f0b565b60405162461bcd60e51b8152602060048201526012602482015271556e6b6e6f776e20746f6b656e207479706560701b60448201526064016106b9565b600588516007811115611fde57611fde6133fb565b14156120b157609d546040516000916001600160a01b0316908390612004908790613411565b60006040518083038185875af1925050503d8060008114612041576040519150601f19603f3d011682016040523d82523d6000602084013e612046565b606091505b50509050871561206957806115d45760008060009650965096505050505061220c565b806116205760405162461bcd60e51b8152602060048201526018602482015277141d5c98da185cd94814dd591bd4ddd85c0819985a5b195960421b60448201526064016106b9565b6007885160078111156120c6576120c66133fb565b141561219757609e546040516000916001600160a01b03169083906120ec908790613411565b60006040518083038185875af1925050503d8060008114612129576040519150601f19603f3d011682016040523d82523d6000602084013e61212e565b606091505b50509050871561215157806115d45760008060009650965096505050505061220c565b806116205760405162461bcd60e51b8152602060048201526016602482015275141d5c98da185cd948189b1d5c9a5bc819985a5b195960521b60448201526064016106b9565b60405162461bcd60e51b8152602060048201526018602482015277556e6b6e6f776e2070757263686173652064657461696c7360401b60448201526064016106b9565b6121e88289602001516124c3565b6000806121fd8a604001518b6020015161256d565b60019950909750955050505050505b9250925092565b60008211801561222b57506001600160a01b03811615155b1561223a5761223a818361259e565b5050565b478015610c7a57610c7a338261259e565b600054610100900460ff166106e65760405162461bcd60e51b81526004016106b9906142a3565b600054610100900460ff1661229d5760405162461bcd60e51b81526004016106b9906142a3565b6106e63361147c565b600054610100900460ff166122cd5760405162461bcd60e51b81526004016106b9906142a3565b6065805460ff19169055565b60655460ff166106e65760405162461bcd60e51b815260206004820152601460248201527314185d5cd8589b194e881b9bdd081c185d5cd95960621b60448201526064016106b9565b6060806000602085901c61ffff166001811115612341576123416133fb565b905060606000826001811115612359576123596133fb565b141561236b5786935091506124159050565b600182600181111561237f5761237f6133fb565b14156123cd5760008780602001905181019061239b91906142ee565b90506123a686612657565b156123c1578060000151816020015194509450505050612415565b51935091506124159050565b60405162461bcd60e51b815260206004820152601a60248201527f756e6b6e6f776e206164646974696f6e616c446174615479706500000000000060448201526064016106b9565b935093915050565b815183511461242b57600080fd5b805183511461243957600080fd5b825160005b8181101561085d5782818151811061245857612458613149565b01602001516001600160f81b031916156124b35783818151811061247e5761247e613149565b602001015160f81c60f81b85828151811061249b5761249b613149565b60200101906001600160f81b031916908160001a9053505b6124bc8161318d565b905061243e565b815160005b818110156125675760008482815181106124e4576124e4613149565b6020026020010151111561255757600084828151811061250657612506613149565b60200260200101519050600060a086848151811061252657612526613149565b6020026020010151901c90506000612547828761269f90919063ffffffff16565b90506125538184612213565b5050505b6125608161318d565b90506124c8565b50505050565b60008061ffff601085901c8116908516612587858361269f565b612591868361269f565b9350935050509250929050565b6000826001600160a01b03168260405160006040518083038185875af1925050503d80600081146125eb576040519150601f19603f3d011682016040523d82523d6000602084013e6125f0565b606091505b50509050806126525760405162461bcd60e51b815260206004820152602860248201527f4c69625472616e73666572204261736543757272656e6379207472616e7366656044820152671c8819985a5b195960c21b60648201526084016106b9565b505050565b6000600582600781111561266d5761266d6133fb565b148061268a57506004826007811115612688576126886133fb565b145b1561269757506001919050565b506000919050565b60006127106126ae838561437e565b6126b8919061439d565b9392505050565b6001600160e01b031981168114610c7a57600080fd5b6000602082840312156126e757600080fd5b81356126b8816126bf565b6001600160a01b0381168114610c7a57600080fd5b8035612712816126f2565b919050565b60006020828403121561272957600080fd5b81356126b8816126f2565b634e487b7160e01b600052604160045260246000fd5b604051608081016001600160401b038111828210171561276c5761276c612734565b60405290565b604051606081016001600160401b038111828210171561276c5761276c612734565b604080519081016001600160401b038111828210171561276c5761276c612734565b6040516101a081016001600160401b038111828210171561276c5761276c612734565b60405161016081016001600160401b038111828210171561276c5761276c612734565b60405160c081016001600160401b038111828210171561276c5761276c612734565b60405161020081016001600160401b038111828210171561276c5761276c612734565b604051601f8201601f191681016001600160401b038111828210171561286957612869612734565b604052919050565b60006001600160401b0382111561288a5761288a612734565b50601f01601f191660200190565b600082601f8301126128a957600080fd5b81356128bc6128b782612871565b612841565b8181528460208386010111156128d157600080fd5b816020850160208301376000918101602001919091529392505050565b6000806000806080858703121561290457600080fd5b843561290f816126f2565b9350602085013561291f816126f2565b92506040850135915060608501356001600160401b0381111561294157600080fd5b61294d87828801612898565b91505092959194509250565b60006001600160401b0382111561297257612972612734565b5060051b60200190565b60088110610c7a57600080fd5b60006080828403121561299b57600080fd5b6129a361274a565b905081356129b08161297c565b80825250602082013560208201526040820135604082015260608201356001600160401b038111156129e157600080fd5b6129ed84828501612898565b60608301525092915050565b600082601f830112612a0a57600080fd5b81356020612a1a6128b783612959565b82815260059290921b84018101918181019086841115612a3957600080fd5b8286015b84811015612a785780356001600160401b03811115612a5c5760008081fd5b612a6a8986838b0101612989565b845250918301918301612a3d565b509695505050505050565b8015158114610c7a57600080fd5b600060808284031215612aa357600080fd5b612aab61274a565b905081356001600160401b03811115612ac357600080fd5b612acf84828501612898565b82525060208201356020820152604082013560408201526060820135612af481612a83565b606082015292915050565b600080600080600060a08688031215612b1757600080fd5b85356001600160401b0380821115612b2e57600080fd5b612b3a89838a016129f9565b965060208801359150612b4c826126f2565b909450604087013590612b5e826126f2565b909350606087013590612b7082612a83565b90925060808701359080821115612b8657600080fd5b50612b9388828901612a91565b9150509295509295909350565b6001600160a01b03169052565b600060608284031215612bbf57600080fd5b612bc7612772565b905081356001600160401b03811115612bdf57600080fd5b8201601f81018413612bf057600080fd5b80356020612c006128b783612959565b82815260059290921b83018101918181019087841115612c1f57600080fd5b938201935b83851015612c46578435612c37816126f2565b82529382019390820190612c24565b808652505080850135818501525050506040820135604082015292915050565b600080600080600060a08688031215612c7e57600080fd5b85356001600160401b0380821115612c9557600080fd5b612ca189838a016129f9565b965060208801359150612cb3826126f2565b909450604087013590612cc5826126f2565b909350606087013590612cd782612a83565b90925060808701359080821115612ced57600080fd5b50612b9388828901612bad565b600080600060608486031215612d0f57600080fd5b83356001600160401b03811115612d2557600080fd5b612d3186828701612989565b9350506020840135612d42816126f2565b91506040840135612d52816126f2565b809150509250925092565b60008060008060808587031215612d7357600080fd5b84356001600160401b0380821115612d8a57600080fd5b612d9688838901612989565b955060208701359150612da8826126f2565b909350604086013590612dba826126f2565b90925060608601359080821115612dd057600080fd5b5061294d87828801612bad565b60008060008060808587031215612df357600080fd5b84356001600160401b0380821115612e0a57600080fd5b612e1688838901612989565b955060208701359150612e28826126f2565b909350604086013590612e3a826126f2565b90925060608601359080821115612e5057600080fd5b5061294d87828801612a91565b60008060008060808587031215612e7357600080fd5b84356001600160401b03811115612e8957600080fd5b612e95878288016129f9565b9450506020850135612ea6816126f2565b92506040850135612eb6816126f2565b91506060850135612ec681612a83565b939692955090935050565b600082601f830112612ee257600080fd5b81356020612ef26128b783612959565b82815260059290921b84018101918181019086841115612f1157600080fd5b8286015b84811015612a785780358352918301918301612f15565b600080600080600060a08688031215612f4457600080fd5b8535612f4f816126f2565b94506020860135612f5f816126f2565b935060408601356001600160401b0380821115612f7b57600080fd5b612f8789838a01612ed1565b94506060880135915080821115612f9d57600080fd5b612fa989838a01612ed1565b93506080880135915080821115612fbf57600080fd5b50612b9388828901612898565b6000806000806000806000806000806000806101808d8f031215612fef57600080fd5b8c35612ffa816126f2565b9b5060208d013561300a816126f2565b9a5060408d013561301a816126f2565b995060608d013561302a816126f2565b985060808d013561303a816126f2565b975060a08d013561304a816126f2565b965061305860c08e01612707565b955061306660e08e01612707565b94506130756101008e01612707565b93506130846101208e01612707565b92506130936101408e01612707565b91506130a26101608e01612707565b90509295989b509295989b509295989b565b600080600080600060a086880312156130cc57600080fd5b85356130d7816126f2565b945060208601356130e7816126f2565b9350604086013592506060860135915060808601356001600160401b0381111561311057600080fd5b612b9388828901612898565b6020808252601390820152721cddd85c081b9bdd081cdd58d8d95cdcd99d5b606a1b604082015260600190565b634e487b7160e01b600052603260045260246000fd5b634e487b7160e01b600052601160045260246000fd5b600082198211156131885761318861315f565b500190565b60006000198214156131a1576131a161315f565b5060010190565b6000828210156131ba576131ba61315f565b500390565b6001600160a01b039485168152928416602084015292166040820152606081019190915260800190565b6000602082840312156131fb57600080fd5b5051919050565b6001600160a01b03929092168252602082015260400190565b805161271281612a83565b60006020828403121561323857600080fd5b81516126b881612a83565b60005b8381101561325e578181015183820152602001613246565b838111156125675750506000910152565b60008151808452613287816020860160208601613243565b601f01601f19169290920160200192915050565b602081526000825160a060208401526132b760c084018261326f565b905060018060a01b0360208501511660408401526040840151606084015260608401516080840152608084015160a08401528091505092915050565b600060a082018783526020878185015260a0604085015281875180845260c086019150828901935060005b818110156133435784516001600160a01b03168352938301939183019160010161331e565b50506001600160a01b03969096166060850152505050608001529392505050565b600082601f83011261337557600080fd5b815160206133856128b783612959565b82815260059290921b840181019181810190868411156133a457600080fd5b8286015b84811015612a7857805183529183019183016133a8565b6000602082840312156133d157600080fd5b81516001600160401b038111156133e757600080fd5b6133f384828501613364565b949350505050565b634e487b7160e01b600052602160045260246000fd5b60008251613423818460208701613243565b9190910192915050565b8051612712816126f2565b600082601f83011261344957600080fd5b81516134576128b782612871565b81815284602083860101111561346c57600080fd5b6133f3826020830160208701613243565b600082601f83011261348e57600080fd5b8151602061349e6128b783612959565b82815260059290921b840181019181810190868411156134bd57600080fd5b8286015b84811015612a785780516001600160401b03808211156134e15760008081fd5b908801906040828b03601f19018113156134fb5760008081fd5b613503612794565b83880151815290830151908282111561351c5760008081fd5b61352a8c8984870101613438565b8189015286525050509183019183016134c1565b805160ff8116811461271257600080fd5b600082601f83011261356057600080fd5b815160206135706128b783612959565b82815260059290921b8401810191818101908684111561358f57600080fd5b8286015b84811015612a785780516001600160401b03808211156135b35760008081fd5b908801906101a0828b03601f19018113156135ce5760008081fd5b6135d66127b6565b87840151815260406135e981860161342d565b89830152606080860151828401526080915081860151818401525060a0808601518284015260c0915081860151818401525060e061362881870161342d565b82840152610100915081860151858111156136435760008081fd5b6136518f8c838a0101613438565b828501525050610120808601518581111561366c5760008081fd5b61367a8f8c838a010161347d565b8385015250610140945084860151818401525050610160808501518483015261018093506136a984860161353e565b908201526136b884830161353e565b9281019290925250845250918301918301613593565b80516127128161297c565b600082601f8301126136ea57600080fd5b815160206136fa6128b783612959565b82815260069290921b8401810191818101908684111561371957600080fd5b8286015b84811015612a7857604081890312156137365760008081fd5b61373e612794565b815181528482015161374f816126f2565b8186015283529183019160400161371d565b600082601f83011261377257600080fd5b815160206137826128b783612959565b82815260059290921b840181019181810190868411156137a157600080fd5b8286015b84811015612a785780516001600160401b03808211156137c55760008081fd5b90880190610160828b03601f19018113156137e05760008081fd5b6137e86127d9565b6137f38885016136ce565b815260408085015189830152606080860151828401526080915081860151818401525060a0808601518284015260c0915061382f82870161342d565b9083015260e085810151858111156138475760008081fd5b6138558f8c838a0101613438565b8385015250610100915081860151818401525061012080860151828401526101409150818601518184015250828501519250838311156138955760008081fd5b6138a38d8a858801016136d9565b9082015286525050509183019183016137a5565b600060c082840312156138c957600080fd5b6138d16127fc565b9050815181526020820151602082015260408201516040820152606082015160608201526080820151613903816126f2565b608082015260a082015161391681612a83565b60a082015292915050565b60006020828403121561393357600080fd5b81516001600160401b038082111561394a57600080fd5b90830190610160828603121561395f57600080fd5b6139676127fc565b82518281111561397657600080fd5b6139828782860161354f565b82525060208301518281111561399757600080fd5b6139a387828601613761565b6020830152506139b686604085016138b7565b6040820152610100830151606082015261012083015160808201526139de610140840161353e565b60a082015295945050505050565b600081518084526020808501808196508360051b8101915082860160005b85811015613a485782840389528151805185528501516040868601819052613a348187018361326f565b9a87019a9550505090840190600101613a0a565b5091979650505050505050565b60088110613a7357634e487b7160e01b600052602160045260246000fd5b9052565b600081518084526020808501945080840160005b83811015613abb578151805188528301516001600160a01b03168388015260409096019590820190600101613a8b565b509495945050505050565b600081518084526020808501808196508360051b8101915082860160005b85811015613a485782840389528151610160613b01868351613a55565b818701518688015260408083015190870152606080830151908701526080808301519087015260a080830151613b3982890182612ba0565b505060c0808301518282890152613b528389018261326f565b60e085810151908a015261010080860151908a015261012080860151908a015261014094850151898203958a01959095529250613b93915082905083613a77565b9a87019a9550505090840190600101613ae4565b60006020808352610180808401855161016080858801528282518085526101a094508489019150848160051b8a0101878501945060005b82811015613cc2578a820361019f1901845285518051835289810151613c068b850182612ba0565b5060408181015190840152606080820151908401526080808201519084015260a0808201519084015260c080820151613c4182860182612ba0565b505060e0808201518982860152613c5a8a86018261326f565b9150506101008083015185830382870152613c7583826139ec565b9250505061012080830151818601525061014080830151818601525086820151613ca38886018260ff169052565b509089015160ff16928901929092529488019492880192600101613bde565b50968a0151898803601f190160408b015296613cde8189613ac6565b975050505060408801519350613d346060880185805182526020808201519083015260408082015190830152606080820151908301526080808201516001600160a01b03169083015260a0908101511515910152565b6060880151610120880152608088015161014088015260a09097015160ff169690950195909552509392505050565b60006020808385031215613d7657600080fd5b82516001600160401b03811115613d8c57600080fd5b8301601f81018513613d9d57600080fd5b8051613dab6128b782612959565b81815260069190911b82018301908381019087831115613dca57600080fd5b928401925b82841015613e165760408489031215613de85760008081fd5b613df0612794565b8451613dfb816126f2565b81528486015186820152825260409093019290840190613dcf565b979650505050505050565b6001600160a01b039384168152919092166020820152604081019190915260600190565b60006020808385031215613e5857600080fd5b82516001600160401b03811115613e6e57600080fd5b8301601f81018513613e7f57600080fd5b8051613e8d6128b782612959565b81815260609182028301840191848201919088841115613eac57600080fd5b938501935b83851015613eff5780858a031215613ec95760008081fd5b613ed1612772565b8551613edc816126f2565b815285870151878201526040808701519082015283529384019391850191613eb1565b50979650505050505050565b6001600160a01b0394851681529290931660208301526040820152606081019190915260a06080820181905260009082015260c00190565b60006102008284031215613f5657600080fd5b613f5e61281e565b9050613f698261321b565b8152613f776020830161342d565b6020820152613f886040830161342d565b6040820152606082015160608201526080820151608082015260a082015160a0820152613fb760c0830161342d565b60c0820152613fc860e0830161342d565b60e08201526101008281015190820152610120808301519082015261014080830151908201526101608083015190820152610180808301516001600160401b0381111561401457600080fd5b61402085828601613438565b8284015250506101a061403481840161353e565b908201526101c082810151908201526101e09182015191810191909152919050565b8051612712816126bf565b60008060006060848603121561407657600080fd5b83516001600160401b038082111561408d57600080fd5b9085019060c082880312156140a157600080fd5b6140a96127fc565b82516140b481612a83565b815260208301516140c4816126f2565b8060208301525060408301516040820152606083015160608201526080830151608082015260a0830151828111156140fb57600080fd5b61410789828601613438565b60a083015250602087015190955091508082111561412457600080fd5b5061413186828701613f43565b92505061414060408501614056565b90509250925092565b60408152600061010084511515604084015260018060a01b03602086015116606084015260408501516080840152606085015160a0840152608085015160c084015260a085015160c060e08501526141a38285018261326f565b8481036020860152855115158152905061020060208601516141c86020840182612ba0565b5060408601516141db6040840182612ba0565b50606086015160608301526080860151608083015260a086015160a083015260c086015161420c60c0840182612ba0565b5060e086015161421f60e0840182612ba0565b508583015192820192909252610120808601519082015261014080860151908201526101608086015190820152610180808601518183018490529092906142688284018261326f565b935050506101a0808601516142818284018260ff169052565b50506101c085810151908201526101e094850151940193909352509092915050565b6020808252602b908201527f496e697469616c697a61626c653a20636f6e7472616374206973206e6f74206960408201526a6e697469616c697a696e6760a81b606082015260800190565b60006020828403121561430057600080fd5b81516001600160401b038082111561431757600080fd5b908301906040828603121561432b57600080fd5b614333612794565b82518281111561434257600080fd5b61434e87828601613438565b82525060208301518281111561436357600080fd5b61436f87828601613364565b60208301525095945050505050565b60008160001904831182151516156143985761439861315f565b500290565b6000826143ba57634e487b7160e01b600052601260045260246000fd5b50049056fea26469706673582212204ed2bb9120164246eaf5f25dc5d4e166282e5d4fdb50ebc930950135b0cfbf4764736f6c63430008090033",
  "devdoc": {
    "kind": "dev",
    "methods": {
      "bulkPurchase((uint8,uint256,uint256,bytes)[],address,address,bool)": {
        "params": {
          "allowFail": "- true if fails while executing orders are allowed, false if fail of a single order means fail of the whole batch",
          "feeRecipientFirst": "- address of the first fee recipient",
          "feeRecipientSecond": "- address of the second fee recipient",
          "purchaseDetails": "- array of details about the purchases (more info in PurchaseDetails struct)"
        }
      },
      "bulkPurchaseWithSwap((uint8,uint256,uint256,bytes)[],address,address,bool,(bytes,uint256,uint256,bool))": {
        "params": {
          "allowFail": "- true if fails while executing orders are allowed, false if fail of a single order means fail of the whole batch",
          "feeRecipientFirst": "- address of the first fee recipient",
          "feeRecipientSecond": "- address of the second fee recipient",
          "purchaseDetails": "- array of details about the purchases (more info in PurchaseDetails struct)",
          "swapDetails": "- swapDetailsV3"
        }
      },
      "bulkPurchaseWithV2Swap((uint8,uint256,uint256,bytes)[],address,address,bool,(address[],uint256,uint256))": {
        "params": {
          "allowFail": "- true if fails while executing orders are allowed, false if fail of a single order means fail of the whole batch",
          "feeRecipientFirst": "- address of the first fee recipient",
          "feeRecipientSecond": "- address of the second fee recipient",
          "purchaseDetails": "- array of details about the purchases (more info in PurchaseDetails struct)",
          "swapDetails": "- swapDetailsV2"
        }
      },
      "onERC721Received(address,address,uint256,bytes)": {
        "details": "See {IERC721Receiver-onERC721Received}. Always returns `IERC721Receiver.onERC721Received.selector`."
      },
      "owner()": {
        "details": "Returns the address of the current owner."
      },
      "paused()": {
        "details": "Returns true if the contract is paused, and false otherwise."
      },
      "renounceOwnership()": {
        "details": "Leaves the contract without owner. It will not be possible to call `onlyOwner` functions anymore. Can only be called by the current owner. NOTE: Renouncing ownership will leave the contract without an owner, thereby removing any functionality that is only available to the owner."
      },
      "singlePurchase((uint8,uint256,uint256,bytes),address,address)": {
        "params": {
          "feeRecipientFirst": "- address of the first fee recipient",
          "feeRecipientSecond": "- address of the second fee recipient",
          "purchaseDetails": "- details about the purchase (more info in PurchaseDetails struct)"
        }
      },
      "singlePurchaseWithSwap((uint8,uint256,uint256,bytes),address,address,(bytes,uint256,uint256,bool))": {
        "params": {
          "feeRecipientFirst": "- address of the first fee recipient",
          "feeRecipientSecond": "- address of the second fee recipient",
          "purchaseDetails": "- details about the purchase (more info in PurchaseDetails struct)",
          "swapDetails": "- swapDetailsV3"
        }
      },
      "singlePurchaseWithV2Swap((uint8,uint256,uint256,bytes),address,address,(address[],uint256,uint256))": {
        "params": {
          "feeRecipientFirst": "- address of the first fee recipient",
          "feeRecipientSecond": "- address of the second fee recipient",
          "purchaseDetails": "- details about the purchase (more info in PurchaseDetails struct)",
          "swapDetails": "- swapDetailsV2"
        }
      },
      "supportsInterface(bytes4)": {
        "details": "See {IERC165-supportsInterface}."
      },
      "transferOwnership(address)": {
        "details": "Transfers ownership of the contract to a new account (`newOwner`). Can only be called by the current owner."
      }
    },
    "version": 1
  },
  "userdoc": {
    "kind": "user",
    "methods": {
      "bulkPurchase((uint8,uint256,uint256,bytes)[],address,address,bool)": {
        "notice": "executes an array of purchases"
      },
      "bulkPurchaseWithSwap((uint8,uint256,uint256,bytes)[],address,address,bool,(bytes,uint256,uint256,bool))": {
        "notice": "executes an array of purchases - with swap v3"
      },
      "bulkPurchaseWithV2Swap((uint8,uint256,uint256,bytes)[],address,address,bool,(address[],uint256,uint256))": {
        "notice": "executes an array of purchases - with swap v2"
      },
      "pause()": {
        "notice": "Pause the contract"
      },
      "setTransferProxy(address)": {
        "notice": "temp for upgrade - to remove once initialized"
      },
      "singlePurchase((uint8,uint256,uint256,bytes),address,address)": {
        "notice": "executes a single purchase"
      },
      "singlePurchaseWithSwap((uint8,uint256,uint256,bytes),address,address,(bytes,uint256,uint256,bool))": {
        "notice": "executes a single purchase - with swap v3"
      },
      "singlePurchaseWithV2Swap((uint8,uint256,uint256,bytes),address,address,(address[],uint256,uint256))": {
        "notice": "executes a single purchase - with swap v2"
      },
      "unpause()": {
        "notice": "Unpause the contract"
      }
    },
    "version": 1
  },
  "storageLayout": {
    "storage": [
      {
        "astId": 138,
        "contract": "src/exchange-wrapper/ExchangeWrapper.sol:ExchangeWrapper",
        "label": "_initialized",
        "offset": 0,
        "slot": "0",
        "type": "t_uint8"
      },
      {
        "astId": 141,
        "contract": "src/exchange-wrapper/ExchangeWrapper.sol:ExchangeWrapper",
        "label": "_initializing",
        "offset": 1,
        "slot": "0",
        "type": "t_bool"
      },
      {
        "astId": 1326,
        "contract": "src/exchange-wrapper/ExchangeWrapper.sol:ExchangeWrapper",
        "label": "__gap",
        "offset": 0,
        "slot": "1",
        "type": "t_array(t_uint256)50_storage"
      },
      {
        "astId": 10,
        "contract": "src/exchange-wrapper/ExchangeWrapper.sol:ExchangeWrapper",
        "label": "_owner",
        "offset": 0,
        "slot": "51",
        "type": "t_address"
      },
      {
        "astId": 130,
        "contract": "src/exchange-wrapper/ExchangeWrapper.sol:ExchangeWrapper",
        "label": "__gap",
        "offset": 0,
        "slot": "52",
        "type": "t_array(t_uint256)49_storage"
      },
      {
        "astId": 303,
        "contract": "src/exchange-wrapper/ExchangeWrapper.sol:ExchangeWrapper",
        "label": "_paused",
        "offset": 0,
        "slot": "101",
        "type": "t_bool"
      },
      {
        "astId": 408,
        "contract": "src/exchange-wrapper/ExchangeWrapper.sol:ExchangeWrapper",
        "label": "__gap",
        "offset": 0,
        "slot": "102",
        "type": "t_array(t_uint256)49_storage"
      },
      {
        "astId": 2688,
        "contract": "src/exchange-wrapper/ExchangeWrapper.sol:ExchangeWrapper",
        "label": "exchangeV2",
        "offset": 0,
        "slot": "151",
        "type": "t_address"
      },
      {
        "astId": 2690,
        "contract": "src/exchange-wrapper/ExchangeWrapper.sol:ExchangeWrapper",
        "label": "rarible",
        "offset": 0,
        "slot": "152",
        "type": "t_address"
      },
      {
        "astId": 2692,
        "contract": "src/exchange-wrapper/ExchangeWrapper.sol:ExchangeWrapper",
        "label": "wyvern",
        "offset": 0,
        "slot": "153",
        "type": "t_address"
      },
      {
        "astId": 2694,
        "contract": "src/exchange-wrapper/ExchangeWrapper.sol:ExchangeWrapper",
        "label": "seaport",
        "offset": 0,
        "slot": "154",
        "type": "t_address"
      },
      {
        "astId": 2696,
        "contract": "src/exchange-wrapper/ExchangeWrapper.sol:ExchangeWrapper",
        "label": "x2y2",
        "offset": 0,
        "slot": "155",
        "type": "t_address"
      },
      {
        "astId": 2698,
        "contract": "src/exchange-wrapper/ExchangeWrapper.sol:ExchangeWrapper",
        "label": "looksrare",
        "offset": 0,
        "slot": "156",
        "type": "t_address"
      },
      {
        "astId": 2700,
        "contract": "src/exchange-wrapper/ExchangeWrapper.sol:ExchangeWrapper",
        "label": "sudoswap",
        "offset": 0,
        "slot": "157",
        "type": "t_address"
      },
      {
        "astId": 2702,
        "contract": "src/exchange-wrapper/ExchangeWrapper.sol:ExchangeWrapper",
        "label": "blur",
        "offset": 0,
        "slot": "158",
        "type": "t_address"
      },
      {
        "astId": 2704,
        "contract": "src/exchange-wrapper/ExchangeWrapper.sol:ExchangeWrapper",
        "label": "wrappedToken",
        "offset": 0,
        "slot": "159",
        "type": "t_address"
      },
      {
        "astId": 2707,
        "contract": "src/exchange-wrapper/ExchangeWrapper.sol:ExchangeWrapper",
        "label": "uniswapRouterV3",
        "offset": 0,
        "slot": "160",
        "type": "t_contract(ISwapRouterV3)5073"
      },
      {
        "astId": 2709,
        "contract": "src/exchange-wrapper/ExchangeWrapper.sol:ExchangeWrapper",
        "label": "erc20TransferProxy",
        "offset": 0,
        "slot": "161",
        "type": "t_address"
      },
      {
        "astId": 2712,
        "contract": "src/exchange-wrapper/ExchangeWrapper.sol:ExchangeWrapper",
        "label": "uniswapRouterV2",
        "offset": 0,
        "slot": "162",
        "type": "t_contract(ISwapRouterV2)4971"
      }
    ],
    "types": {
      "t_address": {
        "encoding": "inplace",
        "label": "address",
        "numberOfBytes": "20"
      },
      "t_array(t_uint256)49_storage": {
        "base": "t_uint256",
        "encoding": "inplace",
        "label": "uint256[49]",
        "numberOfBytes": "1568"
      },
      "t_array(t_uint256)50_storage": {
        "base": "t_uint256",
        "encoding": "inplace",
        "label": "uint256[50]",
        "numberOfBytes": "1600"
      },
      "t_bool": {
        "encoding": "inplace",
        "label": "bool",
        "numberOfBytes": "1"
      },
      "t_contract(ISwapRouterV2)4971": {
        "encoding": "inplace",
        "label": "contract ISwapRouterV2",
        "numberOfBytes": "20"
      },
      "t_contract(ISwapRouterV3)5073": {
        "encoding": "inplace",
        "label": "contract ISwapRouterV3",
        "numberOfBytes": "20"
      },
      "t_uint256": {
        "encoding": "inplace",
        "label": "uint256",
        "numberOfBytes": "32"
      },
      "t_uint8": {
        "encoding": "inplace",
        "label": "uint8",
        "numberOfBytes": "1"
      }
    }
  }
}