{
  "address": "0xB2C95373Ac1c11afC7d840123E9278833a534fFf",
  "abi": [
    {
      "anonymous": false,
      "inputs": [
        {
          "indexed": false,
          "internalType": "bool",
          "name": "result",
          "type": "bool"
        },
        {
          "indexed": true,
          "internalType": "address",
          "name": "sender",
          "type": "address"
        }
      ],
      "name": "Execution",
      "type": "event"
    },
    {
      "anonymous": false,
      "inputs": [
        {
          "indexed": false,
          "internalType": "uint8",
          "name": "version",
          "type": "uint8"
        }
      ],
      "name": "Initialized",
      "type": "event"
    },
    {
      "anonymous": false,
      "inputs": [
        {
          "indexed": true,
          "internalType": "address",
          "name": "previousOwner",
          "type": "address"
        },
        {
          "indexed": true,
          "internalType": "address",
          "name": "newOwner",
          "type": "address"
        }
      ],
      "name": "OwnershipTransferred",
      "type": "event"
    },
    {
      "anonymous": false,
      "inputs": [
        {
          "indexed": false,
          "internalType": "address",
          "name": "account",
          "type": "address"
        }
      ],
      "name": "Paused",
      "type": "event"
    },
    {
      "anonymous": false,
      "inputs": [
        {
          "indexed": false,
          "internalType": "address",
          "name": "account",
          "type": "address"
        }
      ],
      "name": "Unpaused",
      "type": "event"
    },
    {
      "inputs": [
        {
          "internalType": "address",
          "name": "_exchangeV2",
          "type": "address"
        },
        {
          "internalType": "address",
          "name": "_rarible",
          "type": "address"
        },
        {
          "internalType": "address",
          "name": "_wyvern",
          "type": "address"
        },
        {
          "internalType": "address",
          "name": "_seaport",
          "type": "address"
        },
        {
          "internalType": "address",
          "name": "_x2y2",
          "type": "address"
        },
        {
          "internalType": "address",
          "name": "_looksrare",
          "type": "address"
        },
        {
          "internalType": "address",
          "name": "_sudoswap",
          "type": "address"
        },
        {
          "internalType": "address",
          "name": "_blur",
          "type": "address"
        }
      ],
      "name": "__ExchangeWrapper_init",
      "outputs": [],
      "stateMutability": "nonpayable",
      "type": "function"
    },
    {
      "inputs": [],
      "name": "blur",
      "outputs": [
        {
          "internalType": "address",
          "name": "",
          "type": "address"
        }
      ],
      "stateMutability": "view",
      "type": "function"
    },
    {
      "inputs": [
        {
          "components": [
            {
              "internalType": "enum ExchangeWrapperCore.Markets",
              "name": "marketId",
              "type": "uint8"
            },
            {
              "internalType": "uint256",
              "name": "amount",
              "type": "uint256"
            },
            {
              "internalType": "address",
              "name": "paymentToken",
              "type": "address"
            },
            {
              "internalType": "uint256",
              "name": "fees",
              "type": "uint256"
            },
            {
              "internalType": "bytes",
              "name": "data",
              "type": "bytes"
            }
          ],
          "internalType": "struct ExchangeWrapperCore.PurchaseDetails[]",
          "name": "purchaseDetails",
          "type": "tuple[]"
        },
        {
          "internalType": "address",
          "name": "feeRecipientFirst",
          "type": "address"
        },
        {
          "internalType": "address",
          "name": "feeRecipientSecond",
          "type": "address"
        },
        {
          "internalType": "bool",
          "name": "allowFail",
          "type": "bool"
        }
      ],
      "name": "bulkPurchase",
      "outputs": [],
      "stateMutability": "payable",
      "type": "function"
    },
    {
      "inputs": [
        {
          "components": [
            {
              "internalType": "enum ExchangeWrapperCore.Markets",
              "name": "marketId",
              "type": "uint8"
            },
            {
              "internalType": "uint256",
              "name": "amount",
              "type": "uint256"
            },
            {
              "internalType": "address",
              "name": "paymentToken",
              "type": "address"
            },
            {
              "internalType": "uint256",
              "name": "fees",
              "type": "uint256"
            },
            {
              "internalType": "bytes",
              "name": "data",
              "type": "bytes"
            }
          ],
          "internalType": "struct ExchangeWrapperCore.PurchaseDetails[]",
          "name": "purchaseDetails",
          "type": "tuple[]"
        },
        {
          "internalType": "address",
          "name": "feeRecipientFirst",
          "type": "address"
        },
        {
          "internalType": "address",
          "name": "feeRecipientSecond",
          "type": "address"
        },
        {
          "internalType": "bool",
          "name": "allowFail",
          "type": "bool"
        },
        {
          "components": [
            {
              "internalType": "bytes",
              "name": "path",
              "type": "bytes"
            },
            {
              "internalType": "uint256",
              "name": "amountOut",
              "type": "uint256"
            },
            {
              "internalType": "uint256",
              "name": "amountInMaximum",
              "type": "uint256"
            },
            {
              "internalType": "bool",
              "name": "unwrap",
              "type": "bool"
            }
          ],
          "internalType": "struct ExchangeWrapperCore.SwapDetailsIn",
          "name": "swapDetails",
          "type": "tuple"
        }
      ],
      "name": "bulkPurchaseWithSwap",
      "outputs": [],
      "stateMutability": "payable",
      "type": "function"
    },
    {
      "inputs": [
        {
          "components": [
            {
              "internalType": "enum ExchangeWrapperCore.Markets",
              "name": "marketId",
              "type": "uint8"
            },
            {
              "internalType": "uint256",
              "name": "amount",
              "type": "uint256"
            },
            {
              "internalType": "address",
              "name": "paymentToken",
              "type": "address"
            },
            {
              "internalType": "uint256",
              "name": "fees",
              "type": "uint256"
            },
            {
              "internalType": "bytes",
              "name": "data",
              "type": "bytes"
            }
          ],
          "internalType": "struct ExchangeWrapperCore.PurchaseDetails[]",
          "name": "purchaseDetails",
          "type": "tuple[]"
        },
        {
          "internalType": "address",
          "name": "feeRecipientFirst",
          "type": "address"
        },
        {
          "internalType": "address",
          "name": "feeRecipientSecond",
          "type": "address"
        },
        {
          "internalType": "bool",
          "name": "allowFail",
          "type": "bool"
        },
        {
          "components": [
            {
              "internalType": "address[]",
              "name": "path",
              "type": "address[]"
            },
            {
              "internalType": "uint256",
              "name": "amountOut",
              "type": "uint256"
            },
            {
              "internalType": "uint256",
              "name": "amountInMaximum",
              "type": "uint256"
            },
            {
              "internalType": "uint256[]",
              "name": "binSteps",
              "type": "uint256[]"
            },
            {
              "internalType": "bool",
              "name": "unwrap",
              "type": "bool"
            }
          ],
          "internalType": "struct ExchangeWrapperCore.SwapV2DetailsIn",
          "name": "swapDetails",
          "type": "tuple"
        }
      ],
      "name": "bulkPurchaseWithV2Swap",
      "outputs": [],
      "stateMutability": "payable",
      "type": "function"
    },
    {
      "inputs": [],
      "name": "erc20TransferProxy",
      "outputs": [
        {
          "internalType": "address",
          "name": "",
          "type": "address"
        }
      ],
      "stateMutability": "view",
      "type": "function"
    },
    {
      "inputs": [],
      "name": "exchangeV2",
      "outputs": [
        {
          "internalType": "address",
          "name": "",
          "type": "address"
        }
      ],
      "stateMutability": "view",
      "type": "function"
    },
    {
      "inputs": [],
      "name": "looksrare",
      "outputs": [
        {
          "internalType": "address",
          "name": "",
          "type": "address"
        }
      ],
      "stateMutability": "view",
      "type": "function"
    },
    {
      "inputs": [
        {
          "internalType": "address",
          "name": "",
          "type": "address"
        },
        {
          "internalType": "address",
          "name": "",
          "type": "address"
        },
        {
          "internalType": "uint256[]",
          "name": "",
          "type": "uint256[]"
        },
        {
          "internalType": "uint256[]",
          "name": "",
          "type": "uint256[]"
        },
        {
          "internalType": "bytes",
          "name": "",
          "type": "bytes"
        }
      ],
      "name": "onERC1155BatchReceived",
      "outputs": [
        {
          "internalType": "bytes4",
          "name": "",
          "type": "bytes4"
        }
      ],
      "stateMutability": "nonpayable",
      "type": "function"
    },
    {
      "inputs": [
        {
          "internalType": "address",
          "name": "",
          "type": "address"
        },
        {
          "internalType": "address",
          "name": "",
          "type": "address"
        },
        {
          "internalType": "uint256",
          "name": "",
          "type": "uint256"
        },
        {
          "internalType": "uint256",
          "name": "",
          "type": "uint256"
        },
        {
          "internalType": "bytes",
          "name": "",
          "type": "bytes"
        }
      ],
      "name": "onERC1155Received",
      "outputs": [
        {
          "internalType": "bytes4",
          "name": "",
          "type": "bytes4"
        }
      ],
      "stateMutability": "nonpayable",
      "type": "function"
    },
    {
      "inputs": [
        {
          "internalType": "address",
          "name": "",
          "type": "address"
        },
        {
          "internalType": "address",
          "name": "",
          "type": "address"
        },
        {
          "internalType": "uint256",
          "name": "",
          "type": "uint256"
        },
        {
          "internalType": "bytes",
          "name": "",
          "type": "bytes"
        }
      ],
      "name": "onERC721Received",
      "outputs": [
        {
          "internalType": "bytes4",
          "name": "",
          "type": "bytes4"
        }
      ],
      "stateMutability": "nonpayable",
      "type": "function"
    },
    {
      "inputs": [],
      "name": "owner",
      "outputs": [
        {
          "internalType": "address",
          "name": "",
          "type": "address"
        }
      ],
      "stateMutability": "view",
      "type": "function"
    },
    {
      "inputs": [],
      "name": "pause",
      "outputs": [],
      "stateMutability": "nonpayable",
      "type": "function"
    },
    {
      "inputs": [],
      "name": "paused",
      "outputs": [
        {
          "internalType": "bool",
          "name": "",
          "type": "bool"
        }
      ],
      "stateMutability": "view",
      "type": "function"
    },
    {
      "inputs": [
        {
          "internalType": "enum ExchangeWrapperCore.Markets",
          "name": "",
          "type": "uint8"
        }
      ],
      "name": "proxies",
      "outputs": [
        {
          "internalType": "address",
          "name": "",
          "type": "address"
        }
      ],
      "stateMutability": "view",
      "type": "function"
    },
    {
      "inputs": [],
      "name": "rarible",
      "outputs": [
        {
          "internalType": "address",
          "name": "",
          "type": "address"
        }
      ],
      "stateMutability": "view",
      "type": "function"
    },
    {
      "inputs": [],
      "name": "renounceOwnership",
      "outputs": [],
      "stateMutability": "nonpayable",
      "type": "function"
    },
    {
      "inputs": [],
      "name": "seaport",
      "outputs": [
        {
          "internalType": "address",
          "name": "",
          "type": "address"
        }
      ],
      "stateMutability": "view",
      "type": "function"
    },
    {
      "inputs": [
        {
          "internalType": "enum ExchangeWrapperCore.Markets",
          "name": "marketId",
          "type": "uint8"
        },
        {
          "internalType": "address",
          "name": "proxy",
          "type": "address"
        }
      ],
      "name": "setMarketProxy",
      "outputs": [],
      "stateMutability": "nonpayable",
      "type": "function"
    },
    {
      "inputs": [
        {
          "internalType": "address",
          "name": "_erc20TransferProxy",
          "type": "address"
        }
      ],
      "name": "setTransferProxy",
      "outputs": [],
      "stateMutability": "nonpayable",
      "type": "function"
    },
    {
      "inputs": [
        {
          "internalType": "contract ISwapRouterV2",
          "name": "_uniswapRouterV2",
          "type": "address"
        }
      ],
      "name": "setUniswapV2",
      "outputs": [],
      "stateMutability": "nonpayable",
      "type": "function"
    },
    {
      "inputs": [
        {
          "internalType": "contract ISwapRouterV3",
          "name": "_uniswapRouterV3",
          "type": "address"
        }
      ],
      "name": "setUniswapV3",
      "outputs": [],
      "stateMutability": "nonpayable",
      "type": "function"
    },
    {
      "inputs": [
        {
          "internalType": "address",
          "name": "_wrappedToken",
          "type": "address"
        }
      ],
      "name": "setWrapped",
      "outputs": [],
      "stateMutability": "nonpayable",
      "type": "function"
    },
    {
      "inputs": [
        {
          "components": [
            {
              "internalType": "enum ExchangeWrapperCore.Markets",
              "name": "marketId",
              "type": "uint8"
            },
            {
              "internalType": "uint256",
              "name": "amount",
              "type": "uint256"
            },
            {
              "internalType": "address",
              "name": "paymentToken",
              "type": "address"
            },
            {
              "internalType": "uint256",
              "name": "fees",
              "type": "uint256"
            },
            {
              "internalType": "bytes",
              "name": "data",
              "type": "bytes"
            }
          ],
          "internalType": "struct ExchangeWrapperCore.PurchaseDetails",
          "name": "purchaseDetails",
          "type": "tuple"
        },
        {
          "internalType": "address",
          "name": "feeRecipientFirst",
          "type": "address"
        },
        {
          "internalType": "address",
          "name": "feeRecipientSecond",
          "type": "address"
        }
      ],
      "name": "singlePurchase",
      "outputs": [],
      "stateMutability": "payable",
      "type": "function"
    },
    {
      "inputs": [],
      "name": "sudoswap",
      "outputs": [
        {
          "internalType": "address",
          "name": "",
          "type": "address"
        }
      ],
      "stateMutability": "view",
      "type": "function"
    },
    {
      "inputs": [
        {
          "internalType": "bytes4",
          "name": "interfaceId",
          "type": "bytes4"
        }
      ],
      "name": "supportsInterface",
      "outputs": [
        {
          "internalType": "bool",
          "name": "",
          "type": "bool"
        }
      ],
      "stateMutability": "view",
      "type": "function"
    },
    {
      "inputs": [
        {
          "internalType": "address",
          "name": "newOwner",
          "type": "address"
        }
      ],
      "name": "transferOwnership",
      "outputs": [],
      "stateMutability": "nonpayable",
      "type": "function"
    },
    {
      "inputs": [],
      "name": "uniswapRouterV2",
      "outputs": [
        {
          "internalType": "contract ISwapRouterV2",
          "name": "",
          "type": "address"
        }
      ],
      "stateMutability": "view",
      "type": "function"
    },
    {
      "inputs": [],
      "name": "uniswapRouterV3",
      "outputs": [
        {
          "internalType": "contract ISwapRouterV3",
          "name": "",
          "type": "address"
        }
      ],
      "stateMutability": "view",
      "type": "function"
    },
    {
      "inputs": [],
      "name": "unpause",
      "outputs": [],
      "stateMutability": "nonpayable",
      "type": "function"
    },
    {
      "inputs": [],
      "name": "wrappedToken",
      "outputs": [
        {
          "internalType": "address",
          "name": "",
          "type": "address"
        }
      ],
      "stateMutability": "view",
      "type": "function"
    },
    {
      "inputs": [],
      "name": "wyvern",
      "outputs": [
        {
          "internalType": "address",
          "name": "",
          "type": "address"
        }
      ],
      "stateMutability": "view",
      "type": "function"
    },
    {
      "inputs": [],
      "name": "x2y2",
      "outputs": [
        {
          "internalType": "address",
          "name": "",
          "type": "address"
        }
      ],
      "stateMutability": "view",
      "type": "function"
    },
    {
      "stateMutability": "payable",
      "type": "receive"
    }
  ],
  "transactionHash": "0x89c3bf72486f2d238632fbe9fa84b560bcd19bd601be4bbcd7d282035bc21cb0",
  "args": [],
  "numDeployments": 4,
  "solcInputHash": "74a3b1ce56b8b23e9ecff9f557f0eab1",
  "bytecode": "0x608060405234801561001057600080fd5b50615476806100206000396000f3fe6080604052600436106101b25760003560e01c80638ae42905116100ed578063c1aa293811610090578063c1aa2938146104d6578063c6d0ffd7146104f6578063d6dc927f14610516578063df6c255814610529578063f23a6e6114610549578063f2fde38b14610575578063f5c7bd7014610595578063fc40c9c7146105b5578063fee03e9e146105d557600080fd5b80638ae42905146103b65780638da5cb5b146103d65780639137f9c2146103f4578063996c6cc31461042a578063a05f32dc1461044a578063a8e90b571461046a578063aa78ae931461048a578063bc197c81146104aa57600080fd5b80635c975abb116101555780635c975abb146102ee5780635ea1e4c9146103065780635f2772e314610326578063715018a61461033957806373a963d71461034e5780637da50dd61461036e5780638456cb591461038e57806386619edf146103a357600080fd5b806301ffc9a7146101be57806310f91b0b146101f3578063150b7a0214610220578063368c802c146102645780633f4ba83a146102795780634edfc9f91461028e578063596fa9e3146102ae57806359e86829146102ce57600080fd5b366101b957005b600080fd5b3480156101ca57600080fd5b506101de6101d936600461369d565b6105f5565b60405190151581526020015b60405180910390f35b3480156101ff57600080fd5b5060a054610213906001600160a01b031681565b6040516101ea91906136ba565b34801561022c57600080fd5b5061024b61023b3660046138bf565b630a85bd0160e11b949350505050565b6040516001600160e01b031990911681526020016101ea565b6102776102723660046139db565b61062c565b005b34801561028557600080fd5b506102776106fb565b34801561029a57600080fd5b50609954610213906001600160a01b031681565b3480156102ba57600080fd5b50609f54610213906001600160a01b031681565b3480156102da57600080fd5b506102776102e9366004613a4b565b61070d565b3480156102fa57600080fd5b5060655460ff166101de565b34801561031257600080fd5b50609d54610213906001600160a01b031681565b610277610334366004613b8e565b610737565b34801561034557600080fd5b5061027761084a565b34801561035a57600080fd5b50610277610369366004613a4b565b61085c565b34801561037a57600080fd5b50610277610389366004613cfe565b610886565b34801561039a57600080fd5b506102776108ec565b6102776103b1366004613d37565b6108fc565b3480156103c257600080fd5b506102776103d1366004613a4b565b61093a565b3480156103e257600080fd5b506033546001600160a01b0316610213565b34801561040057600080fd5b5061021361040f366004613e32565b60a3602052600090815260409020546001600160a01b031681565b34801561043657600080fd5b5060a154610213906001600160a01b031681565b34801561045657600080fd5b50609754610213906001600160a01b031681565b34801561047657600080fd5b50609c54610213906001600160a01b031681565b34801561049657600080fd5b506102776104a5366004613e4f565b610964565b3480156104b657600080fd5b5061024b6104c5366004613ef8565b63bc197c8160e01b95945050505050565b3480156104e257600080fd5b506102776104f1366004613a4b565b610b07565b34801561050257600080fd5b50609854610213906001600160a01b031681565b610277610524366004613fa5565b610b31565b34801561053557600080fd5b50609e54610213906001600160a01b031681565b34801561055557600080fd5b5061024b610564366004614019565b63f23a6e6160e01b95945050505050565b34801561058157600080fd5b50610277610590366004613a4b565b610cf0565b3480156105a157600080fd5b50609a54610213906001600160a01b031681565b3480156105c157600080fd5b50609b54610213906001600160a01b031681565b3480156105e157600080fd5b5060a254610213906001600160a01b031681565b60006001600160e01b03198216630271189760e51b148061062657506301ffc9a760e01b6001600160e01b03198316145b92915050565b610634610d69565b6000806000610644866000610daf565b9250925092506106513390565b6001600160a01b03167fc5dd8c21802b423a9c822ee9c934f042186e6bb7097a1dd17717343ee84df7148460405161068d911515815260200190565b60405180910390a260408601516001600160a01b03166106c0576106b18286611c4b565b6106bb8185611c4b565b6106eb565b6106cf86604001518387611c76565b6106de86604001518286611c76565b6106eb8660400151611d1a565b6106f3611e21565b505050505050565b610703611e32565b61070b611e8c565b565b610715611e32565b60a080546001600160a01b0319166001600160a01b0392909216919091179055565b61073f610d69565b6000816000015160008151811061075857610758614081565b6020026020010151905060008260000151600184600001515161077b91906140ad565b8151811061078b5761078b614081565b602090810291909101015160a1549091506001600160a01b03808316911614156107e85760006107ba84611ed8565b9050806107e25760405162461bcd60e51b81526004016107d9906140c4565b60405180910390fd5b50610835565b60a1546001600160a01b03838116911614156108095760006107ba846123e0565b60006108148461279a565b9050806108335760405162461bcd60e51b81526004016107d9906140c4565b505b61084187878787610b31565b50505050505050565b610852611e32565b61070b6000612b8d565b610864611e32565b609f80546001600160a01b0319166001600160a01b0392909216919091179055565b61088e611e32565b8060a360008460078111156108a5576108a56140f1565b60078111156108b6576108b66140f1565b815260200190815260200160002060006101000a8154816001600160a01b0302191690836001600160a01b031602179055505050565b6108f4611e32565b61070b612bdf565b610904610d69565b600061090f82612c1c565b90508061092e5760405162461bcd60e51b81526004016107d9906140c4565b6106f386868686610b31565b610942611e32565b60a280546001600160a01b0319166001600160a01b0392909216919091179055565b600054610100900460ff16158080156109845750600054600160ff909116105b8061099e5750303b15801561099e575060005460ff166001145b610a015760405162461bcd60e51b815260206004820152602e60248201527f496e697469616c697a61626c653a20636f6e747261637420697320616c72656160448201526d191e481a5b9a5d1a585b1a5e995960921b60648201526084016107d9565b6000805460ff191660011790558015610a24576000805461ff0019166101001790555b610a2c613158565b610a3461317f565b610a3c6131af565b609780546001600160a01b03199081166001600160a01b03808d1691909117909255609880548216838c16179055609980548216838b16179055609a80548216838a16179055609b80548216838916179055609c80548216838816179055609d80548216838716179055609e80549091169184169190911790558015610afc576000805461ff0019169055604051600181527f7f26b83ff96e1f2b6a682f133852f6798a09c465da95921460cefb38474024989060200160405180910390a15b505050505050505050565b610b0f611e32565b60a180546001600160a01b0319166001600160a01b0392909216919091179055565b610b39610d69565b6000806000808751905060005b81811015610c78576000806000610b768c8581518110610b6857610b68614081565b60200260200101518a610daf565b9250925092508580610b855750825b604051841515815290965033907fc5dd8c21802b423a9c822ee9c934f042186e6bb7097a1dd17717343ee84df7149060200160405180910390a260006001600160a01b03168c8581518110610bdc57610bdc614081565b6020026020010151604001516001600160a01b03161415610c1457610c018289614107565b9750610c0d8188614107565b9650610c64565b610c3c8c8581518110610c2957610c29614081565b602002602001015160400151838d611c76565b610c648c8581518110610c5157610c51614081565b602002602001015160400151828c611c76565b50505080610c719061411f565b9050610b46565b5081610cc15760405162461bcd60e51b81526020600482015260186024820152776e6f207375636365737366756c20657865637574696f6e7360401b60448201526064016107d9565b610ccb8488611c4b565b610cd58387611c4b565b610cde886131e2565b610ce6611e21565b5050505050505050565b610cf8611e32565b6001600160a01b038116610d5d5760405162461bcd60e51b815260206004820152602660248201527f4f776e61626c653a206e6577206f776e657220697320746865207a65726f206160448201526564647265737360d01b60648201526084016107d9565b610d6681612b8d565b50565b60655460ff161561070b5760405162461bcd60e51b815260206004820152601060248201526f14185d5cd8589b194e881c185d5cd95960821b60448201526064016107d9565b6000806000806000610dce87608001518860600151896000015161325c565b91509150600087602001519050600080610df08a606001518b60200151613357565b60408c015191935091506001600160a01b03161561105b576000925060008a604001516001600160a01b03166370a08231306040518263ffffffff1660e01b8152600401610e3e91906136ba565b60206040518083038186803b158015610e5657600080fd5b505afa158015610e6a573d6000803e3d6000fd5b505050506040513d601f19601f82011682018060405250810190610e8e919061413a565b9050600082848d60200151610ea39190614107565b610ead9190614107565b905081811115610f2f5760a25460408d01516001600160a01b039091169063776062c3903330610edd87876140ad565b6040518563ffffffff1660e01b8152600401610efc9493929190614153565b600060405180830381600087803b158015610f1657600080fd5b505af1158015610f2a573d6000803e3d6000fd5b505050505b6000610f3e8d60000151613388565b905060008d604001516001600160a01b031663dd62ed3e83306040518363ffffffff1660e01b8152600401610f7492919061417d565b60206040518083038186803b158015610f8c57600080fd5b505afa158015610fa0573d6000803e3d6000fd5b505050506040513d601f19601f82011682018060405250810190610fc4919061413a565b905082811015611056578d604001516001600160a01b031663095ea7b3836000196040518363ffffffff1660e01b8152600401611002929190614197565b602060405180830381600087803b15801561101c57600080fd5b505af1158015611030573d6000803e3d6000fd5b505050506040513d601f19601f8201168201806040525081019061105491906141bb565b505b505050505b60028a516007811115611070576110706140f1565b141561114f57609a546040516000916001600160a01b0316908590611096908990614204565b60006040518083038185875af1925050503d80600081146110d3576040519150601f19603f3d011682016040523d82523d6000602084013e6110d8565b606091505b50509050891561110257806110fd576000806000985098509850505050505050611c44565b611149565b806111495760405162461bcd60e51b8152602060048201526017602482015276141d5c98da185cd94814d9585c1bdc9d0819985a5b1959604a1b60448201526064016107d9565b50611c29565b60068a516007811115611164576111646140f1565b141561123e576097546040516000916001600160a01b031690859061118a908990614204565b60006040518083038185875af1925050503d80600081146111c7576040519150601f19603f3d011682016040523d82523d6000602084013e6111cc565b606091505b5050905089156111f157806110fd576000806000985098509850505050505050611c44565b806111495760405162461bcd60e51b815260206004820152601b60248201527f50757263686173652047686f73744d61726b6574206661696c6564000000000060448201526064016107d9565b60008a516007811115611253576112536140f1565b1415611327576098546040516000916001600160a01b0316908590611279908990614204565b60006040518083038185875af1925050503d80600081146112b6576040519150601f19603f3d011682016040523d82523d6000602084013e6112bb565b606091505b5050905089156112e057806110fd576000806000985098509850505050505050611c44565b806111495760405162461bcd60e51b8152602060048201526017602482015276141d5c98da185cd94814985c9a589b194819985a5b1959604a1b60448201526064016107d9565b60038a51600781111561133c5761133c6140f1565b14156117d157600085806020019051810190611358919061471c565b905089156113dc57609b5460405163357a150b60e01b81526001600160a01b039091169063357a150b9086906113929085906004016149ce565b6000604051808303818588803b1580156113ab57600080fd5b505af1935050505080156113bd575060015b6113d7576000806000985098509850505050505050611c44565b611441565b609b5460405163357a150b60e01b81526001600160a01b039091169063357a150b90869061140e9085906004016149ce565b6000604051808303818588803b15801561142757600080fd5b505af115801561143b573d6000803e3d6000fd5b50505050505b60208101515160005b818110156117c95760008360200151828151811061146a5761146a614081565b602002602001015160200151905060008460200151838151811061149057611490614081565b60200260200101516040015190506000856000015183815181106114b6576114b6614081565b6020026020010151610100015182815181106114d4576114d4614081565b60200260200101516020015190506000866000015184815181106114fa576114fa614081565b602002602001015160e0015151118015611536575060008660200151858151811061152757611527614081565b602002602001015160c0015151115b1561158857611588818760200151868151811061155557611555614081565b602002602001015160c001518860000151868151811061157757611577614081565b602002602001015160e001516133d1565b855180518490811061159c5761159c614081565b6020026020010151608001516001141561167d576000818060200190518101906115c69190614b8a565b905060005b81518110156116765760008282815181106115e8576115e8614081565b6020026020010151905080600001516001600160a01b03166342842e0e3061160d3390565b84602001516040518463ffffffff1660e01b815260040161163093929190614c48565b600060405180830381600087803b15801561164a57600080fd5b505af115801561165e573d6000803e3d6000fd5b5050505050808061166e9061411f565b9150506115cb565b50506117b5565b855180518490811061169157611691614081565b60200260200101516080015160021415611771576000818060200190518101906116bb9190614c6c565b905060005b81518110156116765760008282815181106116dd576116dd614081565b6020026020010151905080600001516001600160a01b031663f242432a306117023390565b846020015185604001516040518563ffffffff1660e01b815260040161172b9493929190614d32565b600060405180830381600087803b15801561174557600080fd5b505af1158015611759573d6000803e3d6000fd5b505050505080806117699061411f565b9150506116c0565b60405162461bcd60e51b81526020600482015260196024820152783ab735b737bbb7103232b632b3b0ba32aa3cb832903c193c9960391b60448201526064016107d9565b505050806117c29061411f565b905061144a565b505050611c29565b60048a5160078111156117e6576117e66140f1565b1415611a14576000806000878060200190518101906118059190614e88565b9250925092508b1561189157609c54604051635a72594b60e11b81526001600160a01b039091169063b4e4b2969088906118459087908790600401614f70565b6000604051808303818588803b15801561185e57600080fd5b505af193505050508015611870575060015b61188c5760008060009a509a509a505050505050505050611c44565b6118f8565b609c54604051635a72594b60e11b81526001600160a01b039091169063b4e4b2969088906118c59087908790600401614f70565b6000604051808303818588803b1580156118de57600080fd5b505af11580156118f2573d6000803e3d6000fd5b50505050505b6001600160e01b031981166339d690a360e11b14156119805760408201516001600160a01b03166342842e0e303385608001516040518463ffffffff1660e01b815260040161194993929190614c48565b600060405180830381600087803b15801561196357600080fd5b505af1158015611977573d6000803e3d6000fd5b505050506117c9565b6001600160e01b0319811663025ceed960e61b14156119d757604082810151608084015160a08501519251637921219560e11b81526001600160a01b039092169263f242432a926119499230923392600401614d32565b60405162461bcd60e51b8152602060048201526012602482015271556e6b6e6f776e20746f6b656e207479706560701b60448201526064016107d9565b60058a516007811115611a2957611a296140f1565b1415611afe57609d546040516000916001600160a01b0316908590611a4f908990614204565b60006040518083038185875af1925050503d8060008114611a8c576040519150601f19603f3d011682016040523d82523d6000602084013e611a91565b606091505b505090508915611ab657806110fd576000806000985098509850505050505050611c44565b806111495760405162461bcd60e51b8152602060048201526018602482015277141d5c98da185cd94814dd591bd4ddd85c0819985a5b195960421b60448201526064016107d9565b60078a516007811115611b1357611b136140f1565b1415611be657609e546040516000916001600160a01b0316908590611b39908990614204565b60006040518083038185875af1925050503d8060008114611b76576040519150601f19603f3d011682016040523d82523d6000602084013e611b7b565b606091505b505090508915611ba057806110fd576000806000985098509850505050505050611c44565b806111495760405162461bcd60e51b8152602060048201526016602482015275141d5c98da185cd948189b1d5c9a5bc819985a5b195960521b60448201526064016107d9565b60405162461bcd60e51b8152602060048201526018602482015277556e6b6e6f776e2070757263686173652064657461696c7360401b60448201526064016107d9565b611c37848b6020015161347e565b6001975090955093505050505b9250925092565b600082118015611c6357506001600160a01b03811615155b15611c7257611c728183613522565b5050565b600082118015611c8e57506001600160a01b03811615155b15611d155760405163a9059cbb60e01b81526001600160a01b0384169063a9059cbb90611cc19084908690600401614197565b602060405180830381600087803b158015611cdb57600080fd5b505af1158015611cef573d6000803e3d6000fd5b505050506040513d601f19601f82011682018060405250810190611d1391906141bb565b505b505050565b6040516370a0823160e01b81526000906001600160a01b038316906370a0823190611d499030906004016136ba565b60206040518083038186803b158015611d6157600080fd5b505afa158015611d75573d6000803e3d6000fd5b505050506040513d601f19601f82011682018060405250810190611d99919061413a565b90508015611c725760405163a9059cbb60e01b81526001600160a01b0383169063a9059cbb90611dcf9033908590600401614197565b602060405180830381600087803b158015611de957600080fd5b505af1158015611dfd573d6000803e3d6000fd5b505050506040513d601f19601f82011682018060405250810190611d1591906141bb565b478015610d6657610d663382613522565b6033546001600160a01b0316331461070b5760405162461bcd60e51b815260206004820181905260248201527f4f776e61626c653a2063616c6c6572206973206e6f7420746865206f776e657260448201526064016107d9565b611e946135d6565b6065805460ff191690557f5db9ee0a495bf2e6ff9c91a7834c1ba4fdd244a5e8aa4e537bd38aeae4b073aa335b604051611ece91906136ba565b60405180910390a1565b6000808260000151600081518110611ef257611ef2614081565b602090810291909101015160a2549091506001600160a01b031663776062c382333087604001516040518563ffffffff1660e01b8152600401611f389493929190614153565b600060405180830381600087803b158015611f5257600080fd5b505af1158015611f66573d6000803e3d6000fd5b505060a1546001600160a01b038481169116149150508015611f89575082608001515b156120065760a1546040808501519051632e1a7d4d60e01b81526001600160a01b0390921691632e1a7d4d91611fc59160040190815260200190565b600060405180830381600087803b158015611fdf57600080fd5b505af1925050508015611ff0575060015b611ffd5750600092915050565b50600192915050565b609f54604051636eb1769f60e11b81526000916001600160a01b038085169263dd62ed3e9261203b921690309060040161417d565b60206040518083038186803b15801561205357600080fd5b505afa158015612067573d6000803e3d6000fd5b505050506040513d601f19601f8201168201806040525081019061208b919061413a565b9050836040015181101561212357609f5460405163095ea7b360e01b81526001600160a01b038481169263095ea7b3926120cf929091169060001990600401614197565b602060405180830381600087803b1580156120e957600080fd5b505af11580156120fd573d6000803e3d6000fd5b505050506040513d601f19601f8201168201806040525081019061212191906141bb565b505b46600061a86a82148061213757508161a869145b9050600047821561220557609f5460208901516040808b015160608c01518c519251636d3420ed60e01b81526000956001600160a01b031694636d3420ed9461218a949193919230904290600401615133565b600060405180830381600087803b1580156121a457600080fd5b505af11580156121b8573d6000803e3d6000fd5b505050506040513d6000823e601f3d908101601f191682016040526121e091908101906151de565b9050806000815181106121f5576121f5614081565b60200260200101519250506122bd565b609f5460208901516040808b01518b519151632512eca560e11b81526000946001600160a01b031693634a25d94a9361224693919230904290600401615212565b600060405180830381600087803b15801561226057600080fd5b505af1158015612274573d6000803e3d6000fd5b505050506040513d6000823e601f3d908101601f1916820160405261229c91908101906151de565b9050806000815181106122b1576122b1614081565b60200260200101519250505b6040880151479083101561235c576001600160a01b03871663a9059cbb33858c604001516122eb91906140ad565b6040518363ffffffff1660e01b8152600401612308929190614197565b602060405180830381600087803b15801561232257600080fd5b505af1158015612336573d6000803e3d6000fd5b505050506040513d601f19601f8201168201806040525081019061235a91906141bb565b505b8860800151156123d15760a1546001600160a01b031663d0e30db061238184846140ad565b6040518263ffffffff1660e01b81526004016000604051808303818588803b1580156123ac57600080fd5b505af1935050505080156123be575060015b6123d15750600098975050505050505050565b50600198975050505050505050565b60008082600001516000815181106123fa576123fa614081565b6020026020010151905060008360000151600185600001515161241d91906140ad565b8151811061242d5761242d614081565b60200260200101519050346000141561251a5760a2546001600160a01b031663776062c383333088604001516040518563ffffffff1660e01b81526004016124789493929190614153565b600060405180830381600087803b15801561249257600080fd5b505af11580156124a6573d6000803e3d6000fd5b505060a1546040808801519051632e1a7d4d60e01b81526001600160a01b039092169350632e1a7d4d92506124e19160040190815260200190565b600060405180830381600087803b1580156124fb57600080fd5b505af192505050801561250c575060015b61251a575060009392505050565b600034118015612537575060a1546001600160a01b038281169116145b1561263a5760a160009054906101000a90046001600160a01b03166001600160a01b031663d0e30db0346040518263ffffffff1660e01b81526004016000604051808303818588803b15801561258c57600080fd5b505af19350505050801561259e575060015b6125ac575060009392505050565b604080850151905163a9059cbb60e01b81526001600160a01b0383169163a9059cbb916125dd913391600401614197565b602060405180830381600087803b1580156125f757600080fd5b505af115801561260b573d6000803e3d6000fd5b505050506040513d601f19601f8201168201806040525081019061262f91906141bb565b506001949350505050565b46600061a86a82148061264e57508161a869145b905080156126f757609f54604080880151602089015160608a01518a519351630217ab2560e51b81526001600160a01b03909516946342f564a09461269b9392913090429060040161524e565b6000604051808303818588803b1580156126b457600080fd5b505af11580156126c8573d6000803e3d6000fd5b50505050506040513d6000823e601f3d908101601f191682016040526126f191908101906151de565b5061278e565b609f5460408088015160208901518951925163fb3bdb4160e01b81526001600160a01b039094169363fb3bdb4193612736929130904290600401615297565b6000604051808303818588803b15801561274f57600080fd5b505af1158015612763573d6000803e3d6000fd5b50505050506040513d6000823e601f3d908101601f1916820160405261278c91908101906151de565b505b50600195945050505050565b60008082600001516000815181106127b4576127b4614081565b602090810291909101015160a2549091506001600160a01b031663776062c382333087604001516040518563ffffffff1660e01b81526004016127fa9493929190614153565b600060405180830381600087803b15801561281457600080fd5b505af1158015612828573d6000803e3d6000fd5b5050609f54604051636eb1769f60e11b8152600093506001600160a01b03808616935063dd62ed3e9261286292911690309060040161417d565b60206040518083038186803b15801561287a57600080fd5b505afa15801561288e573d6000803e3d6000fd5b505050506040513d601f19601f820116820180604052508101906128b2919061413a565b9050836040015181101561294a57609f5460405163095ea7b360e01b81526001600160a01b038481169263095ea7b3926128f6929091169060001990600401614197565b602060405180830381600087803b15801561291057600080fd5b505af1158015612924573d6000803e3d6000fd5b505050506040513d601f19601f8201168201806040525081019061294891906141bb565b505b46600061a86a82148061295e57508161a869145b905060008115612a2b57609f5460208801516040808a015160608b01518b51925163a7b856d360e01b81526000956001600160a01b03169463a7b856d3946129b0949193919230904290600401615133565b600060405180830381600087803b1580156129ca57600080fd5b505af11580156129de573d6000803e3d6000fd5b505050506040513d6000823e601f3d908101601f19168201604052612a0691908101906151de565b905080600081518110612a1b57612a1b614081565b6020026020010151915050612ae3565b609f5460208801516040808a01518a519151634401edf760e11b81526000946001600160a01b031693638803dbee93612a6c93919230904290600401615212565b600060405180830381600087803b158015612a8657600080fd5b505af1158015612a9a573d6000803e3d6000fd5b505050506040513d6000823e601f3d908101601f19168201604052612ac291908101906151de565b905080600081518110612ad757612ad7614081565b60200260200101519150505b8660400151811015612b80576001600160a01b03851663a9059cbb33838a60400151612b0f91906140ad565b6040518363ffffffff1660e01b8152600401612b2c929190614197565b602060405180830381600087803b158015612b4657600080fd5b505af1158015612b5a573d6000803e3d6000fd5b505050506040513d601f19601f82011682018060405250810190612b7e91906141bb565b505b5060019695505050505050565b603380546001600160a01b038381166001600160a01b0319831681179093556040519116919082907f8be0079c531659141344cd1fd0a4f28419497f9722a3daafe3b4186f6b6457e090600090a35050565b612be7610d69565b6065805460ff191660011790557f62e78cea01bee320cd4e420270b5ea74000d11b0c9f74754ebdbfc544b05a258611ec13390565b60008060008084600001519050600060148251612c3991906140ad565b9050600160601b81602084010151049350600160601b60006020840101510492503460001415612cce5760a2546001600160a01b031663776062c38533308a604001516040518563ffffffff1660e01b8152600401612c9b9493929190614153565b600060405180830381600087803b158015612cb557600080fd5b505af1158015612cc9573d6000803e3d6000fd5b505050505b60a1546001600160a01b038581169116148015612cec575085606001515b15612d635760a1546020870151604051632e1a7d4d60e01b81526001600160a01b0390921691632e1a7d4d91612d289160040190815260200190565b600060405180830381600087803b158015612d4257600080fd5b505af1925050508015612d53575060015b61278e5750600095945050505050565b600034118015612d80575060a1546001600160a01b038481169116145b15612de95760a160009054906101000a90046001600160a01b03166001600160a01b031663d0e30db0346040518263ffffffff1660e01b81526004016000604051808303818588803b158015612dd557600080fd5b505af193505050508015612d53575061278e565b60a054604051636eb1769f60e11b81526000916001600160a01b038088169263dd62ed3e92612e1e921690309060040161417d565b60206040518083038186803b158015612e3657600080fd5b505afa158015612e4a573d6000803e3d6000fd5b505050506040513d601f19601f82011682018060405250810190612e6e919061413a565b90508660400151811015612f065760a05460405163095ea7b360e01b81526001600160a01b038781169263095ea7b392612eb2929091169060001990600401614197565b602060405180830381600087803b158015612ecc57600080fd5b505af1158015612ee0573d6000803e3d6000fd5b505050506040513d601f19601f82011682018060405250810190612f0491906141bb565b505b6040805160a08082018352895182523060208084019190915242838501528a01516060830152898301516080830152549151631e51809360e31b815290916000916001600160a01b039091169063f28c049890612f679085906004016152cc565b602060405180830381600087803b158015612f8157600080fd5b505af1925050508015612fb1575060408051601f3d908101601f19168201909252612fae9181019061413a565b60015b612fc45750600098975050505050505050565b905060a060009054906101000a90046001600160a01b03166001600160a01b03166312210e8a6040518163ffffffff1660e01b8152600401600060405180830381600087803b15801561301657600080fd5b505af115801561302a573d6000803e3d6000fd5b505050508860600151156130ad5760a15460208a0151604051632e1a7d4d60e01b81526001600160a01b0390921691632e1a7d4d9161306f9160040190815260200190565b600060405180830381600087803b15801561308957600080fd5b505af192505050801561309a575060015b6130ad5750600098975050505050505050565b88604001518110156123d1576001600160a01b03871663a9059cbb33838c604001516130d991906140ad565b6040518363ffffffff1660e01b81526004016130f6929190614197565b602060405180830381600087803b15801561311057600080fd5b505af1158015613124573d6000803e3d6000fd5b505050506040513d601f19601f8201168201806040525081019061314891906141bb565b5050600198975050505050505050565b600054610100900460ff1661070b5760405162461bcd60e51b81526004016107d990615324565b600054610100900460ff166131a65760405162461bcd60e51b81526004016107d990615324565b61070b33612b8d565b600054610100900460ff166131d65760405162461bcd60e51b81526004016107d990615324565b6065805460ff19169055565b805160005b81811015611d155760006001600160a01b031683828151811061320c5761320c614081565b6020026020010151604001516001600160a01b03161461324c5761324c83828151811061323b5761323b614081565b602002602001015160400151611d1a565b6132558161411f565b90506131e7565b6060806000602085901c61ffff16600181111561327b5761327b6140f1565b905060606000826001811115613293576132936140f1565b14156132a557869350915061334f9050565b60018260018111156132b9576132b96140f1565b1415613307576000878060200190518101906132d5919061536f565b90506132e08661361f565b156132fb57806000015181602001519450945050505061334f565b519350915061334f9050565b60405162461bcd60e51b815260206004820152601a60248201527f756e6b6e6f776e206164646974696f6e616c446174615479706500000000000060448201526064016107d9565b935093915050565b60008061ffff601085901c81169085166133718583613667565b61337b8683613667565b9350935050509250929050565b600060a360008360078111156133a0576133a06140f1565b60078111156133b1576133b16140f1565b81526020810191909152604001600020546001600160a01b031692915050565b81518351146133df57600080fd5b80518351146133ed57600080fd5b825160005b818110156134775782818151811061340c5761340c614081565b01602001516001600160f81b031916156134675783818151811061343257613432614081565b602001015160f81c60f81b85828151811061344f5761344f614081565b60200101906001600160f81b031916908160001a9053505b6134708161411f565b90506133f2565b5050505050565b815160005b81811015611d1357600084828151811061349f5761349f614081565b602002602001015111156135125760008482815181106134c1576134c1614081565b60200260200101519050600060a08684815181106134e1576134e1614081565b6020026020010151901c90506000613502828761366790919063ffffffff16565b905061350e8184611c4b565b5050505b61351b8161411f565b9050613483565b6000826001600160a01b03168260405160006040518083038185875af1925050503d806000811461356f576040519150601f19603f3d011682016040523d82523d6000602084013e613574565b606091505b5050905080611d155760405162461bcd60e51b815260206004820152602860248201527f4c69625472616e73666572204261736543757272656e6379207472616e7366656044820152671c8819985a5b195960c21b60648201526084016107d9565b60655460ff1661070b5760405162461bcd60e51b815260206004820152601460248201527314185d5cd8589b194e881b9bdd081c185d5cd95960621b60448201526064016107d9565b60006005826007811115613635576136356140f1565b148061365257506004826007811115613650576136506140f1565b145b1561365f57506001919050565b506000919050565b600061271061367683856153ff565b613680919061541e565b9392505050565b6001600160e01b031981168114610d6657600080fd5b6000602082840312156136af57600080fd5b813561368081613687565b6001600160a01b0391909116815260200190565b6001600160a01b0381168114610d6657600080fd5b634e487b7160e01b600052604160045260246000fd5b60405160a081016001600160401b038111828210171561371b5761371b6136e3565b60405290565b604051608081016001600160401b038111828210171561371b5761371b6136e3565b604080519081016001600160401b038111828210171561371b5761371b6136e3565b6040516101a081016001600160401b038111828210171561371b5761371b6136e3565b60405161016081016001600160401b038111828210171561371b5761371b6136e3565b60405160c081016001600160401b038111828210171561371b5761371b6136e3565b604051606081016001600160401b038111828210171561371b5761371b6136e3565b60405161020081016001600160401b038111828210171561371b5761371b6136e3565b604051601f8201601f191681016001600160401b038111828210171561383a5761383a6136e3565b604052919050565b60006001600160401b0382111561385b5761385b6136e3565b50601f01601f191660200190565b600082601f83011261387a57600080fd5b813561388d61388882613842565b613812565b8181528460208386010111156138a257600080fd5b816020850160208301376000918101602001919091529392505050565b600080600080608085870312156138d557600080fd5b84356138e0816136ce565b935060208501356138f0816136ce565b92506040850135915060608501356001600160401b0381111561391257600080fd5b61391e87828801613869565b91505092959194509250565b60088110610d6657600080fd5b600060a0828403121561394957600080fd5b60405160a081016001600160401b03828210818311171561396c5761396c6136e3565b81604052829350843591506139808261392a565b818352602085013560208401526040850135915061399d826136ce565b8160408401526060850135606084015260808501359150808211156139c157600080fd5b506139ce85828601613869565b6080830152505092915050565b6000806000606084860312156139f057600080fd5b83356001600160401b03811115613a0657600080fd5b613a1286828701613937565b9350506020840135613a23816136ce565b91506040840135613a33816136ce565b809150509250925092565b6001600160a01b03169052565b600060208284031215613a5d57600080fd5b8135613680816136ce565b60006001600160401b03821115613a8157613a816136e3565b5060051b60200190565b600082601f830112613a9c57600080fd5b81356020613aac61388883613a68565b82815260059290921b84018101918181019086841115613acb57600080fd5b8286015b84811015613b0a5780356001600160401b03811115613aee5760008081fd5b613afc8986838b0101613937565b845250918301918301613acf565b509695505050505050565b8015158114610d6657600080fd5b8035613b2e81613b15565b919050565b600082601f830112613b4457600080fd5b81356020613b5461388883613a68565b82815260059290921b84018101918181019086841115613b7357600080fd5b8286015b84811015613b0a5780358352918301918301613b77565b600080600080600060a08688031215613ba657600080fd5b85356001600160401b0380821115613bbd57600080fd5b613bc989838a01613a8b565b96506020915081880135613bdc816136ce565b95506040880135613bec816136ce565b94506060880135613bfc81613b15565b9350608088013581811115613c1057600080fd5b880160a0818b031215613c2257600080fd5b613c2a6136f9565b813583811115613c3957600080fd5b8201601f81018c13613c4a57600080fd5b8035613c5861388882613a68565b81815260059190911b8201860190868101908e831115613c7757600080fd5b928701925b82841015613c9e578335613c8f816136ce565b82529287019290870190613c7c565b808552505050508382013584820152604082013560408201526060820135935082841115613ccb57600080fd5b613cd78b858401613b33565b6060820152613ce860808301613b23565b6080820152809450505050509295509295909350565b60008060408385031215613d1157600080fd5b8235613d1c8161392a565b91506020830135613d2c816136ce565b809150509250929050565b600080600080600060a08688031215613d4f57600080fd5b85356001600160401b0380821115613d6657600080fd5b613d7289838a01613a8b565b965060208801359150613d84826136ce565b909450604087013590613d96826136ce565b909350606087013590613da882613b15565b90925060808701359080821115613dbe57600080fd5b908701906080828a031215613dd257600080fd5b613dda613721565b823582811115613de957600080fd5b613df58b828601613869565b825250602083013560208201526040830135604082015260608301359250613e1c83613b15565b8260608201528093505050509295509295909350565b600060208284031215613e4457600080fd5b81356136808161392a565b600080600080600080600080610100898b031215613e6c57600080fd5b8835613e77816136ce565b97506020890135613e87816136ce565b96506040890135613e97816136ce565b95506060890135613ea7816136ce565b94506080890135613eb7816136ce565b935060a0890135613ec7816136ce565b925060c0890135613ed7816136ce565b915060e0890135613ee7816136ce565b809150509295985092959890939650565b600080600080600060a08688031215613f1057600080fd5b8535613f1b816136ce565b94506020860135613f2b816136ce565b935060408601356001600160401b0380821115613f4757600080fd5b613f5389838a01613b33565b94506060880135915080821115613f6957600080fd5b613f7589838a01613b33565b93506080880135915080821115613f8b57600080fd5b50613f9888828901613869565b9150509295509295909350565b60008060008060808587031215613fbb57600080fd5b84356001600160401b03811115613fd157600080fd5b613fdd87828801613a8b565b9450506020850135613fee816136ce565b92506040850135613ffe816136ce565b9150606085013561400e81613b15565b939692955090935050565b600080600080600060a0868803121561403157600080fd5b853561403c816136ce565b9450602086013561404c816136ce565b9350604086013592506060860135915060808601356001600160401b0381111561407557600080fd5b613f9888828901613869565b634e487b7160e01b600052603260045260246000fd5b634e487b7160e01b600052601160045260246000fd5b6000828210156140bf576140bf614097565b500390565b6020808252601390820152721cddd85c081b9bdd081cdd58d8d95cdcd99d5b606a1b604082015260600190565b634e487b7160e01b600052602160045260246000fd5b6000821982111561411a5761411a614097565b500190565b600060001982141561413357614133614097565b5060010190565b60006020828403121561414c57600080fd5b5051919050565b6001600160a01b039485168152928416602084015292166040820152606081019190915260800190565b6001600160a01b0392831681529116602082015260400190565b6001600160a01b03929092168252602082015260400190565b8051613b2e81613b15565b6000602082840312156141cd57600080fd5b815161368081613b15565b60005b838110156141f35781810151838201526020016141db565b83811115611d135750506000910152565b600082516142168184602087016141d8565b9190910192915050565b8051613b2e816136ce565b600082601f83011261423c57600080fd5b815161424a61388882613842565b81815284602083860101111561425f57600080fd5b6142708260208301602087016141d8565b949350505050565b600082601f83011261428957600080fd5b8151602061429961388883613a68565b82815260059290921b840181019181810190868411156142b857600080fd5b8286015b84811015613b0a5780516001600160401b03808211156142dc5760008081fd5b908801906040828b03601f19018113156142f65760008081fd5b6142fe613743565b8388015181529083015190828211156143175760008081fd5b6143258c898487010161422b565b8189015286525050509183019183016142bc565b805160ff81168114613b2e57600080fd5b600082601f83011261435b57600080fd5b8151602061436b61388883613a68565b82815260059290921b8401810191818101908684111561438a57600080fd5b8286015b84811015613b0a5780516001600160401b03808211156143ae5760008081fd5b908801906101a0828b03601f19018113156143c95760008081fd5b6143d1613765565b87840151815260406143e4818601614220565b89830152606080860151828401526080915081860151818401525060a0808601518284015260c0915081860151818401525060e0614423818701614220565b828401526101009150818601518581111561443e5760008081fd5b61444c8f8c838a010161422b565b82850152505061012080860151858111156144675760008081fd5b6144758f8c838a0101614278565b8385015250610140945084860151818401525050610160808501518483015261018093506144a4848601614339565b908201526144b3848301614339565b928101929092525084525091830191830161438e565b8051613b2e8161392a565b600082601f8301126144e557600080fd5b815160206144f561388883613a68565b82815260069290921b8401810191818101908684111561451457600080fd5b8286015b84811015613b0a57604081890312156145315760008081fd5b614539613743565b815181528482015161454a816136ce565b81860152835291830191604001614518565b600082601f83011261456d57600080fd5b8151602061457d61388883613a68565b82815260059290921b8401810191818101908684111561459c57600080fd5b8286015b84811015613b0a5780516001600160401b03808211156145c05760008081fd5b90880190610160828b03601f19018113156145db5760008081fd5b6145e3613788565b6145ee8885016144c9565b815260408085015189830152606080860151828401526080915081860151818401525060a0808601518284015260c0915061462a828701614220565b9083015260e085810151858111156146425760008081fd5b6146508f8c838a010161422b565b8385015250610100915081860151818401525061012080860151828401526101409150818601518184015250828501519250838311156146905760008081fd5b61469e8d8a858801016144d4565b9082015286525050509183019183016145a0565b600060c082840312156146c457600080fd5b6146cc6137ab565b90508151815260208201516020820152604082015160408201526060820151606082015260808201516146fe816136ce565b608082015260a082015161471181613b15565b60a082015292915050565b60006020828403121561472e57600080fd5b81516001600160401b038082111561474557600080fd5b90830190610160828603121561475a57600080fd5b6147626137ab565b82518281111561477157600080fd5b61477d8782860161434a565b82525060208301518281111561479257600080fd5b61479e8782860161455c565b6020830152506147b186604085016146b2565b6040820152610100830151606082015261012083015160808201526147d96101408401614339565b60a082015295945050505050565b600081518084526147ff8160208601602086016141d8565b601f01601f19169290920160200192915050565b600081518084526020808501808196508360051b8101915082860160005b8581101561486f578284038952815180518552850151604086860181905261485b818701836147e7565b9a87019a9550505090840190600101614831565b5091979650505050505050565b6008811061489a57634e487b7160e01b600052602160045260246000fd5b9052565b600081518084526020808501945080840160005b838110156148e2578151805188528301516001600160a01b031683880152604090960195908201906001016148b2565b509495945050505050565b600081518084526020808501808196508360051b8101915082860160005b8581101561486f578284038952815161016061492886835161487c565b818701518688015260408083015190870152606080830151908701526080808301519087015260a08083015161496082890182613a3e565b505060c0808301518282890152614979838901826147e7565b60e085810151908a015261010080860151908a015261012080860151908a015261014094850151898203958a019590955292506149ba91508290508361489e565b9a87019a955050509084019060010161490b565b60006020808352610180808401855161016080858801528282518085526101a094508489019150848160051b8a0101878501945060005b82811015614ae9578a820361019f1901845285518051835289810151614a2d8b850182613a3e565b5060408181015190840152606080820151908401526080808201519084015260a0808201519084015260c080820151614a6882860182613a3e565b505060e0808201518982860152614a818a8601826147e7565b9150506101008083015185830382870152614a9c8382614813565b9250505061012080830151818601525061014080830151818601525086820151614aca8886018260ff169052565b509089015160ff16928901929092529488019492880192600101614a05565b50968a0151898803601f190160408b015296614b0581896148ed565b975050505060408801519350614b5b6060880185805182526020808201519083015260408082015190830152606080820151908301526080808201516001600160a01b03169083015260a0908101511515910152565b6060880151610120880152608088015161014088015260a09097015160ff169690950195909552509392505050565b60006020808385031215614b9d57600080fd5b82516001600160401b03811115614bb357600080fd5b8301601f81018513614bc457600080fd5b8051614bd261388882613a68565b81815260069190911b82018301908381019087831115614bf157600080fd5b928401925b82841015614c3d5760408489031215614c0f5760008081fd5b614c17613743565b8451614c22816136ce565b81528486015186820152825260409093019290840190614bf6565b979650505050505050565b6001600160a01b039384168152919092166020820152604081019190915260600190565b60006020808385031215614c7f57600080fd5b82516001600160401b03811115614c9557600080fd5b8301601f81018513614ca657600080fd5b8051614cb461388882613a68565b81815260609182028301840191848201919088841115614cd357600080fd5b938501935b83851015614d265780858a031215614cf05760008081fd5b614cf86137cd565b8551614d03816136ce565b815285870151878201526040808701519082015283529384019391850191614cd8565b50979650505050505050565b6001600160a01b0394851681529290931660208301526040820152606081019190915260a06080820181905260009082015260c00190565b60006102008284031215614d7d57600080fd5b614d856137ef565b9050614d90826141b0565b8152614d9e60208301614220565b6020820152614daf60408301614220565b6040820152606082015160608201526080820151608082015260a082015160a0820152614dde60c08301614220565b60c0820152614def60e08301614220565b60e08201526101008281015190820152610120808301519082015261014080830151908201526101608083015190820152610180808301516001600160401b03811115614e3b57600080fd5b614e478582860161422b565b8284015250506101a0614e5b818401614339565b908201526101c082810151908201526101e09182015191810191909152919050565b8051613b2e81613687565b600080600060608486031215614e9d57600080fd5b83516001600160401b0380821115614eb457600080fd5b9085019060c08288031215614ec857600080fd5b614ed06137ab565b8251614edb81613b15565b81526020830151614eeb816136ce565b8060208301525060408301516040820152606083015160608201526080830151608082015260a083015182811115614f2257600080fd5b614f2e8982860161422b565b60a0830152506020870151909550915080821115614f4b57600080fd5b50614f5886828701614d6a565b925050614f6760408501614e7d565b90509250925092565b60408152600061010084511515604084015260018060a01b03602086015116606084015260408501516080840152606085015160a0840152608085015160c084015260a085015160c060e0850152614fca828501826147e7565b848103602086015285511515815290506102006020860151614fef6020840182613a3e565b5060408601516150026040840182613a3e565b50606086015160608301526080860151608083015260a086015160a083015260c086015161503360c0840182613a3e565b5060e086015161504660e0840182613a3e565b5085830151928201929092526101208086015190820152610140808601519082015261016080860151908201526101808086015181830184905290929061508f828401826147e7565b935050506101a0808601516150a88284018260ff169052565b50506101c085810151908201526101e094850151940193909352509092915050565b600081518084526020808501945080840160005b838110156148e2578151875295820195908201906001016150de565b600081518084526020808501945080840160005b838110156148e25781516001600160a01b03168752958201959082019060010161510e565b86815285602082015260c06040820152600061515260c08301876150ca565b828103606084015261516481876150fa565b6001600160a01b03959095166080840152505060a00152949350505050565b600082601f83011261519457600080fd5b815160206151a461388883613a68565b82815260059290921b840181019181810190868411156151c357600080fd5b8286015b84811015613b0a57805183529183019183016151c7565b6000602082840312156151f057600080fd5b81516001600160401b0381111561520657600080fd5b61427084828501615183565b85815284602082015260a06040820152600061523160a08301866150fa565b6001600160a01b0394909416606083015250608001529392505050565b85815260a06020820152600061526760a08301876150ca565b828103604084015261527981876150fa565b6001600160a01b039590951660608401525050608001529392505050565b8481526080602082015260006152b060808301866150fa565b6001600160a01b03949094166040830152506060015292915050565b602081526000825160a060208401526152e860c08401826147e7565b905060018060a01b0360208501511660408401526040840151606084015260608401516080840152608084015160a08401528091505092915050565b6020808252602b908201527f496e697469616c697a61626c653a20636f6e7472616374206973206e6f74206960408201526a6e697469616c697a696e6760a81b606082015260800190565b60006020828403121561538157600080fd5b81516001600160401b038082111561539857600080fd5b90830190604082860312156153ac57600080fd5b6153b4613743565b8251828111156153c357600080fd5b6153cf8782860161422b565b8252506020830151828111156153e457600080fd5b6153f087828601615183565b60208301525095945050505050565b600081600019048311821515161561541957615419614097565b500290565b60008261543b57634e487b7160e01b600052601260045260246000fd5b50049056fea2646970667358221220838c715478e91e3572da34ad18d30197dce3219adab98090fb079adf0d56429764736f6c63430008090033",
  "devdoc": {
    "kind": "dev",
    "methods": {
      "bulkPurchase((uint8,uint256,address,uint256,bytes)[],address,address,bool)": {
        "params": {
          "allowFail": "- true if fails while executing orders are allowed, false if fail of a single order means fail of the whole batch",
          "feeRecipientFirst": "- address of the first fee recipient",
          "feeRecipientSecond": "- address of the second fee recipient",
          "purchaseDetails": "- array of details about the purchases (more info in PurchaseDetails struct)"
        }
      },
      "bulkPurchaseWithSwap((uint8,uint256,address,uint256,bytes)[],address,address,bool,(bytes,uint256,uint256,bool))": {
        "params": {
          "allowFail": "- true if fails while executing orders are allowed, false if fail of a single order means fail of the whole batch",
          "feeRecipientFirst": "- address of the first fee recipient",
          "feeRecipientSecond": "- address of the second fee recipient",
          "purchaseDetails": "- array of details about the purchases (more info in PurchaseDetails struct)",
          "swapDetails": "- swapDetails v3"
        }
      },
      "bulkPurchaseWithV2Swap((uint8,uint256,address,uint256,bytes)[],address,address,bool,(address[],uint256,uint256,uint256[],bool))": {
        "params": {
          "allowFail": "- true if fails while executing orders are allowed, false if fail of a single order means fail of the whole batch",
          "feeRecipientFirst": "- address of the first fee recipient",
          "feeRecipientSecond": "- address of the second fee recipient",
          "purchaseDetails": "- array of details about the purchases (more info in PurchaseDetails struct)",
          "swapDetails": "- swapDetails v2"
        }
      },
      "onERC721Received(address,address,uint256,bytes)": {
        "details": "See {IERC721Receiver-onERC721Received}. Always returns `IERC721Receiver.onERC721Received.selector`."
      },
      "owner()": {
        "details": "Returns the address of the current owner."
      },
      "paused()": {
        "details": "Returns true if the contract is paused, and false otherwise."
      },
      "renounceOwnership()": {
        "details": "Leaves the contract without owner. It will not be possible to call `onlyOwner` functions anymore. Can only be called by the current owner. NOTE: Renouncing ownership will leave the contract without an owner, thereby removing any functionality that is only available to the owner."
      },
      "singlePurchase((uint8,uint256,address,uint256,bytes),address,address)": {
        "params": {
          "feeRecipientFirst": "- address of the first fee recipient",
          "feeRecipientSecond": "- address of the second fee recipient",
          "purchaseDetails": "- details about the purchase (more info in PurchaseDetails struct)"
        }
      },
      "supportsInterface(bytes4)": {
        "details": "See {IERC165-supportsInterface}."
      },
      "transferOwnership(address)": {
        "details": "Transfers ownership of the contract to a new account (`newOwner`). Can only be called by the current owner."
      }
    },
    "version": 1
  },
  "userdoc": {
    "kind": "user",
    "methods": {
      "bulkPurchase((uint8,uint256,address,uint256,bytes)[],address,address,bool)": {
        "notice": "executes an array of purchases"
      },
      "bulkPurchaseWithSwap((uint8,uint256,address,uint256,bytes)[],address,address,bool,(bytes,uint256,uint256,bool))": {
        "notice": "executes an array of purchases - with swap v3"
      },
      "bulkPurchaseWithV2Swap((uint8,uint256,address,uint256,bytes)[],address,address,bool,(address[],uint256,uint256,uint256[],bool))": {
        "notice": "executes an array of purchases - with swap v2 - tokens for tokens or tokens for eth/weth"
      },
      "pause()": {
        "notice": "Pause the contract"
      },
      "setMarketProxy(uint8,address)": {
        "notice": "Set erc20 proxy for market"
      },
      "setTransferProxy(address)": {
        "notice": "Set erc20 transfer proxy"
      },
      "setUniswapV2(address)": {
        "notice": "Set uniswap v2 router"
      },
      "setUniswapV3(address)": {
        "notice": "Set uniswap v3 router"
      },
      "setWrapped(address)": {
        "notice": "Set wrapped token"
      },
      "singlePurchase((uint8,uint256,address,uint256,bytes),address,address)": {
        "notice": "executes a single purchase"
      },
      "unpause()": {
        "notice": "Unpause the contract"
      }
    },
    "version": 1
  },
  "storageLayout": {
    "storage": [
      {
        "astId": 138,
        "contract": "src/exchange-wrapper/ExchangeWrapper.sol:ExchangeWrapper",
        "label": "_initialized",
        "offset": 0,
        "slot": "0",
        "type": "t_uint8"
      },
      {
        "astId": 141,
        "contract": "src/exchange-wrapper/ExchangeWrapper.sol:ExchangeWrapper",
        "label": "_initializing",
        "offset": 1,
        "slot": "0",
        "type": "t_bool"
      },
      {
        "astId": 1326,
        "contract": "src/exchange-wrapper/ExchangeWrapper.sol:ExchangeWrapper",
        "label": "__gap",
        "offset": 0,
        "slot": "1",
        "type": "t_array(t_uint256)50_storage"
      },
      {
        "astId": 10,
        "contract": "src/exchange-wrapper/ExchangeWrapper.sol:ExchangeWrapper",
        "label": "_owner",
        "offset": 0,
        "slot": "51",
        "type": "t_address"
      },
      {
        "astId": 130,
        "contract": "src/exchange-wrapper/ExchangeWrapper.sol:ExchangeWrapper",
        "label": "__gap",
        "offset": 0,
        "slot": "52",
        "type": "t_array(t_uint256)49_storage"
      },
      {
        "astId": 303,
        "contract": "src/exchange-wrapper/ExchangeWrapper.sol:ExchangeWrapper",
        "label": "_paused",
        "offset": 0,
        "slot": "101",
        "type": "t_bool"
      },
      {
        "astId": 408,
        "contract": "src/exchange-wrapper/ExchangeWrapper.sol:ExchangeWrapper",
        "label": "__gap",
        "offset": 0,
        "slot": "102",
        "type": "t_array(t_uint256)49_storage"
      },
      {
        "astId": 1637,
        "contract": "src/exchange-wrapper/ExchangeWrapper.sol:ExchangeWrapper",
        "label": "exchangeV2",
        "offset": 0,
        "slot": "151",
        "type": "t_address"
      },
      {
        "astId": 1639,
        "contract": "src/exchange-wrapper/ExchangeWrapper.sol:ExchangeWrapper",
        "label": "rarible",
        "offset": 0,
        "slot": "152",
        "type": "t_address"
      },
      {
        "astId": 1641,
        "contract": "src/exchange-wrapper/ExchangeWrapper.sol:ExchangeWrapper",
        "label": "wyvern",
        "offset": 0,
        "slot": "153",
        "type": "t_address"
      },
      {
        "astId": 1643,
        "contract": "src/exchange-wrapper/ExchangeWrapper.sol:ExchangeWrapper",
        "label": "seaport",
        "offset": 0,
        "slot": "154",
        "type": "t_address"
      },
      {
        "astId": 1645,
        "contract": "src/exchange-wrapper/ExchangeWrapper.sol:ExchangeWrapper",
        "label": "x2y2",
        "offset": 0,
        "slot": "155",
        "type": "t_address"
      },
      {
        "astId": 1647,
        "contract": "src/exchange-wrapper/ExchangeWrapper.sol:ExchangeWrapper",
        "label": "looksrare",
        "offset": 0,
        "slot": "156",
        "type": "t_address"
      },
      {
        "astId": 1649,
        "contract": "src/exchange-wrapper/ExchangeWrapper.sol:ExchangeWrapper",
        "label": "sudoswap",
        "offset": 0,
        "slot": "157",
        "type": "t_address"
      },
      {
        "astId": 1651,
        "contract": "src/exchange-wrapper/ExchangeWrapper.sol:ExchangeWrapper",
        "label": "blur",
        "offset": 0,
        "slot": "158",
        "type": "t_address"
      },
      {
        "astId": 1654,
        "contract": "src/exchange-wrapper/ExchangeWrapper.sol:ExchangeWrapper",
        "label": "uniswapRouterV2",
        "offset": 0,
        "slot": "159",
        "type": "t_contract(ISwapRouterV2)4558"
      },
      {
        "astId": 1657,
        "contract": "src/exchange-wrapper/ExchangeWrapper.sol:ExchangeWrapper",
        "label": "uniswapRouterV3",
        "offset": 0,
        "slot": "160",
        "type": "t_contract(ISwapRouterV3)4608"
      },
      {
        "astId": 1659,
        "contract": "src/exchange-wrapper/ExchangeWrapper.sol:ExchangeWrapper",
        "label": "wrappedToken",
        "offset": 0,
        "slot": "161",
        "type": "t_address"
      },
      {
        "astId": 1661,
        "contract": "src/exchange-wrapper/ExchangeWrapper.sol:ExchangeWrapper",
        "label": "erc20TransferProxy",
        "offset": 0,
        "slot": "162",
        "type": "t_address"
      },
      {
        "astId": 1666,
        "contract": "src/exchange-wrapper/ExchangeWrapper.sol:ExchangeWrapper",
        "label": "proxies",
        "offset": 0,
        "slot": "163",
        "type": "t_mapping(t_enum(Markets)1681,t_address)"
      }
    ],
    "types": {
      "t_address": {
        "encoding": "inplace",
        "label": "address",
        "numberOfBytes": "20"
      },
      "t_array(t_uint256)49_storage": {
        "base": "t_uint256",
        "encoding": "inplace",
        "label": "uint256[49]",
        "numberOfBytes": "1568"
      },
      "t_array(t_uint256)50_storage": {
        "base": "t_uint256",
        "encoding": "inplace",
        "label": "uint256[50]",
        "numberOfBytes": "1600"
      },
      "t_bool": {
        "encoding": "inplace",
        "label": "bool",
        "numberOfBytes": "1"
      },
      "t_contract(ISwapRouterV2)4558": {
        "encoding": "inplace",
        "label": "contract ISwapRouterV2",
        "numberOfBytes": "20"
      },
      "t_contract(ISwapRouterV3)4608": {
        "encoding": "inplace",
        "label": "contract ISwapRouterV3",
        "numberOfBytes": "20"
      },
      "t_enum(Markets)1681": {
        "encoding": "inplace",
        "label": "enum ExchangeWrapperCore.Markets",
        "numberOfBytes": "1"
      },
      "t_mapping(t_enum(Markets)1681,t_address)": {
        "encoding": "mapping",
        "key": "t_enum(Markets)1681",
        "label": "mapping(enum ExchangeWrapperCore.Markets => address)",
        "numberOfBytes": "32",
        "value": "t_address"
      },
      "t_uint256": {
        "encoding": "inplace",
        "label": "uint256",
        "numberOfBytes": "32"
      },
      "t_uint8": {
        "encoding": "inplace",
        "label": "uint8",
        "numberOfBytes": "1"
      }
    }
  }
}