{
  "address": "0x0fE2b51D3B543C6F359480BffBf8C4E6964aE40E",
  "abi": [
    {
      "anonymous": false,
      "inputs": [
        {
          "indexed": true,
          "internalType": "bytes4",
          "name": "assetType",
          "type": "bytes4"
        },
        {
          "indexed": false,
          "internalType": "address",
          "name": "matcher",
          "type": "address"
        }
      ],
      "name": "MatcherChange",
      "type": "event"
    },
    {
      "anonymous": false,
      "inputs": [
        {
          "indexed": false,
          "internalType": "bytes32",
          "name": "hash",
          "type": "bytes32"
        },
        {
          "indexed": false,
          "internalType": "address",
          "name": "maker",
          "type": "address"
        },
        {
          "components": [
            {
              "internalType": "bytes4",
              "name": "assetClass",
              "type": "bytes4"
            },
            {
              "internalType": "bytes",
              "name": "data",
              "type": "bytes"
            }
          ],
          "indexed": false,
          "internalType": "struct LibAsset.AssetType",
          "name": "makeAssetType",
          "type": "tuple"
        },
        {
          "components": [
            {
              "internalType": "bytes4",
              "name": "assetClass",
              "type": "bytes4"
            },
            {
              "internalType": "bytes",
              "name": "data",
              "type": "bytes"
            }
          ],
          "indexed": false,
          "internalType": "struct LibAsset.AssetType",
          "name": "takeAssetType",
          "type": "tuple"
        }
      ],
      "name": "OrderCancelled",
      "type": "event"
    },
    {
      "anonymous": false,
      "inputs": [
        {
          "indexed": false,
          "internalType": "bytes32",
          "name": "leftHash",
          "type": "bytes32"
        },
        {
          "indexed": false,
          "internalType": "bytes32",
          "name": "rightHash",
          "type": "bytes32"
        },
        {
          "indexed": false,
          "internalType": "address",
          "name": "leftMaker",
          "type": "address"
        },
        {
          "indexed": false,
          "internalType": "address",
          "name": "rightMaker",
          "type": "address"
        },
        {
          "indexed": false,
          "internalType": "uint256",
          "name": "newLeftFill",
          "type": "uint256"
        },
        {
          "indexed": false,
          "internalType": "uint256",
          "name": "newRightFill",
          "type": "uint256"
        },
        {
          "components": [
            {
              "internalType": "bytes4",
              "name": "assetClass",
              "type": "bytes4"
            },
            {
              "internalType": "bytes",
              "name": "data",
              "type": "bytes"
            }
          ],
          "indexed": false,
          "internalType": "struct LibAsset.AssetType",
          "name": "leftAsset",
          "type": "tuple"
        },
        {
          "components": [
            {
              "internalType": "bytes4",
              "name": "assetClass",
              "type": "bytes4"
            },
            {
              "internalType": "bytes",
              "name": "data",
              "type": "bytes"
            }
          ],
          "indexed": false,
          "internalType": "struct LibAsset.AssetType",
          "name": "rightAsset",
          "type": "tuple"
        }
      ],
      "name": "OrderFilled",
      "type": "event"
    },
    {
      "anonymous": false,
      "inputs": [
        {
          "indexed": true,
          "internalType": "address",
          "name": "previousOwner",
          "type": "address"
        },
        {
          "indexed": true,
          "internalType": "address",
          "name": "newOwner",
          "type": "address"
        }
      ],
      "name": "OwnershipTransferred",
      "type": "event"
    },
    {
      "anonymous": false,
      "inputs": [
        {
          "indexed": true,
          "internalType": "bytes4",
          "name": "assetType",
          "type": "bytes4"
        },
        {
          "indexed": false,
          "internalType": "address",
          "name": "proxy",
          "type": "address"
        }
      ],
      "name": "ProxyChange",
      "type": "event"
    },
    {
      "anonymous": false,
      "inputs": [
        {
          "components": [
            {
              "components": [
                {
                  "internalType": "bytes4",
                  "name": "assetClass",
                  "type": "bytes4"
                },
                {
                  "internalType": "bytes",
                  "name": "data",
                  "type": "bytes"
                }
              ],
              "internalType": "struct LibAsset.AssetType",
              "name": "assetType",
              "type": "tuple"
            },
            {
              "internalType": "uint256",
              "name": "value",
              "type": "uint256"
            }
          ],
          "indexed": false,
          "internalType": "struct LibAsset.Asset",
          "name": "asset",
          "type": "tuple"
        },
        {
          "indexed": false,
          "internalType": "address",
          "name": "from",
          "type": "address"
        },
        {
          "indexed": false,
          "internalType": "address",
          "name": "to",
          "type": "address"
        },
        {
          "indexed": false,
          "internalType": "bytes4",
          "name": "transferDirection",
          "type": "bytes4"
        },
        {
          "indexed": false,
          "internalType": "bytes4",
          "name": "transferType",
          "type": "bytes4"
        }
      ],
      "name": "Transfer",
      "type": "event"
    },
    {
      "inputs": [
        {
          "internalType": "contract INftTransferProxy",
          "name": "_transferProxy",
          "type": "address"
        },
        {
          "internalType": "contract IERC20TransferProxy",
          "name": "_erc20TransferProxy",
          "type": "address"
        },
        {
          "internalType": "uint256",
          "name": "newProtocolFee",
          "type": "uint256"
        },
        {
          "internalType": "address",
          "name": "newDefaultFeeReceiver",
          "type": "address"
        },
        {
          "internalType": "contract IRoyaltiesProvider",
          "name": "newRoyaltiesProvider",
          "type": "address"
        }
      ],
      "name": "__ExchangeV2_init",
      "outputs": [],
      "stateMutability": "nonpayable",
      "type": "function"
    },
    {
      "inputs": [
        {
          "components": [
            {
              "internalType": "address",
              "name": "maker",
              "type": "address"
            },
            {
              "components": [
                {
                  "components": [
                    {
                      "internalType": "bytes4",
                      "name": "assetClass",
                      "type": "bytes4"
                    },
                    {
                      "internalType": "bytes",
                      "name": "data",
                      "type": "bytes"
                    }
                  ],
                  "internalType": "struct LibAsset.AssetType",
                  "name": "assetType",
                  "type": "tuple"
                },
                {
                  "internalType": "uint256",
                  "name": "value",
                  "type": "uint256"
                }
              ],
              "internalType": "struct LibAsset.Asset",
              "name": "makeAsset",
              "type": "tuple"
            },
            {
              "internalType": "address",
              "name": "taker",
              "type": "address"
            },
            {
              "components": [
                {
                  "components": [
                    {
                      "internalType": "bytes4",
                      "name": "assetClass",
                      "type": "bytes4"
                    },
                    {
                      "internalType": "bytes",
                      "name": "data",
                      "type": "bytes"
                    }
                  ],
                  "internalType": "struct LibAsset.AssetType",
                  "name": "assetType",
                  "type": "tuple"
                },
                {
                  "internalType": "uint256",
                  "name": "value",
                  "type": "uint256"
                }
              ],
              "internalType": "struct LibAsset.Asset",
              "name": "takeAsset",
              "type": "tuple"
            },
            {
              "internalType": "uint256",
              "name": "salt",
              "type": "uint256"
            },
            {
              "internalType": "uint256",
              "name": "start",
              "type": "uint256"
            },
            {
              "internalType": "uint256",
              "name": "end",
              "type": "uint256"
            },
            {
              "internalType": "bytes4",
              "name": "dataType",
              "type": "bytes4"
            },
            {
              "internalType": "bytes",
              "name": "data",
              "type": "bytes"
            }
          ],
          "internalType": "struct LibOrder.Order[]",
          "name": "orders",
          "type": "tuple[]"
        }
      ],
      "name": "bulkCancelOrders",
      "outputs": [],
      "stateMutability": "nonpayable",
      "type": "function"
    },
    {
      "inputs": [
        {
          "components": [
            {
              "internalType": "address",
              "name": "maker",
              "type": "address"
            },
            {
              "components": [
                {
                  "components": [
                    {
                      "internalType": "bytes4",
                      "name": "assetClass",
                      "type": "bytes4"
                    },
                    {
                      "internalType": "bytes",
                      "name": "data",
                      "type": "bytes"
                    }
                  ],
                  "internalType": "struct LibAsset.AssetType",
                  "name": "assetType",
                  "type": "tuple"
                },
                {
                  "internalType": "uint256",
                  "name": "value",
                  "type": "uint256"
                }
              ],
              "internalType": "struct LibAsset.Asset",
              "name": "makeAsset",
              "type": "tuple"
            },
            {
              "internalType": "address",
              "name": "taker",
              "type": "address"
            },
            {
              "components": [
                {
                  "components": [
                    {
                      "internalType": "bytes4",
                      "name": "assetClass",
                      "type": "bytes4"
                    },
                    {
                      "internalType": "bytes",
                      "name": "data",
                      "type": "bytes"
                    }
                  ],
                  "internalType": "struct LibAsset.AssetType",
                  "name": "assetType",
                  "type": "tuple"
                },
                {
                  "internalType": "uint256",
                  "name": "value",
                  "type": "uint256"
                }
              ],
              "internalType": "struct LibAsset.Asset",
              "name": "takeAsset",
              "type": "tuple"
            },
            {
              "internalType": "uint256",
              "name": "salt",
              "type": "uint256"
            },
            {
              "internalType": "uint256",
              "name": "start",
              "type": "uint256"
            },
            {
              "internalType": "uint256",
              "name": "end",
              "type": "uint256"
            },
            {
              "internalType": "bytes4",
              "name": "dataType",
              "type": "bytes4"
            },
            {
              "internalType": "bytes",
              "name": "data",
              "type": "bytes"
            }
          ],
          "internalType": "struct LibOrder.Order",
          "name": "order",
          "type": "tuple"
        }
      ],
      "name": "cancel",
      "outputs": [],
      "stateMutability": "nonpayable",
      "type": "function"
    },
    {
      "inputs": [],
      "name": "defaultFeeReceiver",
      "outputs": [
        {
          "internalType": "address",
          "name": "",
          "type": "address"
        }
      ],
      "stateMutability": "view",
      "type": "function"
    },
    {
      "inputs": [
        {
          "internalType": "address",
          "name": "",
          "type": "address"
        }
      ],
      "name": "feeReceivers",
      "outputs": [
        {
          "internalType": "address",
          "name": "",
          "type": "address"
        }
      ],
      "stateMutability": "view",
      "type": "function"
    },
    {
      "inputs": [
        {
          "internalType": "bytes32",
          "name": "",
          "type": "bytes32"
        }
      ],
      "name": "fills",
      "outputs": [
        {
          "internalType": "uint256",
          "name": "",
          "type": "uint256"
        }
      ],
      "stateMutability": "view",
      "type": "function"
    },
    {
      "inputs": [],
      "name": "matchAndTransferAdmin",
      "outputs": [
        {
          "internalType": "address",
          "name": "",
          "type": "address"
        }
      ],
      "stateMutability": "view",
      "type": "function"
    },
    {
      "inputs": [
        {
          "components": [
            {
              "internalType": "address",
              "name": "maker",
              "type": "address"
            },
            {
              "components": [
                {
                  "components": [
                    {
                      "internalType": "bytes4",
                      "name": "assetClass",
                      "type": "bytes4"
                    },
                    {
                      "internalType": "bytes",
                      "name": "data",
                      "type": "bytes"
                    }
                  ],
                  "internalType": "struct LibAsset.AssetType",
                  "name": "assetType",
                  "type": "tuple"
                },
                {
                  "internalType": "uint256",
                  "name": "value",
                  "type": "uint256"
                }
              ],
              "internalType": "struct LibAsset.Asset",
              "name": "makeAsset",
              "type": "tuple"
            },
            {
              "internalType": "address",
              "name": "taker",
              "type": "address"
            },
            {
              "components": [
                {
                  "components": [
                    {
                      "internalType": "bytes4",
                      "name": "assetClass",
                      "type": "bytes4"
                    },
                    {
                      "internalType": "bytes",
                      "name": "data",
                      "type": "bytes"
                    }
                  ],
                  "internalType": "struct LibAsset.AssetType",
                  "name": "assetType",
                  "type": "tuple"
                },
                {
                  "internalType": "uint256",
                  "name": "value",
                  "type": "uint256"
                }
              ],
              "internalType": "struct LibAsset.Asset",
              "name": "takeAsset",
              "type": "tuple"
            },
            {
              "internalType": "uint256",
              "name": "salt",
              "type": "uint256"
            },
            {
              "internalType": "uint256",
              "name": "start",
              "type": "uint256"
            },
            {
              "internalType": "uint256",
              "name": "end",
              "type": "uint256"
            },
            {
              "internalType": "bytes4",
              "name": "dataType",
              "type": "bytes4"
            },
            {
              "internalType": "bytes",
              "name": "data",
              "type": "bytes"
            }
          ],
          "internalType": "struct LibOrder.Order",
          "name": "orderLeft",
          "type": "tuple"
        },
        {
          "components": [
            {
              "internalType": "address",
              "name": "maker",
              "type": "address"
            },
            {
              "components": [
                {
                  "components": [
                    {
                      "internalType": "bytes4",
                      "name": "assetClass",
                      "type": "bytes4"
                    },
                    {
                      "internalType": "bytes",
                      "name": "data",
                      "type": "bytes"
                    }
                  ],
                  "internalType": "struct LibAsset.AssetType",
                  "name": "assetType",
                  "type": "tuple"
                },
                {
                  "internalType": "uint256",
                  "name": "value",
                  "type": "uint256"
                }
              ],
              "internalType": "struct LibAsset.Asset",
              "name": "makeAsset",
              "type": "tuple"
            },
            {
              "internalType": "address",
              "name": "taker",
              "type": "address"
            },
            {
              "components": [
                {
                  "components": [
                    {
                      "internalType": "bytes4",
                      "name": "assetClass",
                      "type": "bytes4"
                    },
                    {
                      "internalType": "bytes",
                      "name": "data",
                      "type": "bytes"
                    }
                  ],
                  "internalType": "struct LibAsset.AssetType",
                  "name": "assetType",
                  "type": "tuple"
                },
                {
                  "internalType": "uint256",
                  "name": "value",
                  "type": "uint256"
                }
              ],
              "internalType": "struct LibAsset.Asset",
              "name": "takeAsset",
              "type": "tuple"
            },
            {
              "internalType": "uint256",
              "name": "salt",
              "type": "uint256"
            },
            {
              "internalType": "uint256",
              "name": "start",
              "type": "uint256"
            },
            {
              "internalType": "uint256",
              "name": "end",
              "type": "uint256"
            },
            {
              "internalType": "bytes4",
              "name": "dataType",
              "type": "bytes4"
            },
            {
              "internalType": "bytes",
              "name": "data",
              "type": "bytes"
            }
          ],
          "internalType": "struct LibOrder.Order",
          "name": "orderRight",
          "type": "tuple"
        }
      ],
      "name": "matchAndTransferWithoutSignature",
      "outputs": [],
      "stateMutability": "payable",
      "type": "function"
    },
    {
      "inputs": [
        {
          "components": [
            {
              "internalType": "address",
              "name": "maker",
              "type": "address"
            },
            {
              "components": [
                {
                  "components": [
                    {
                      "internalType": "bytes4",
                      "name": "assetClass",
                      "type": "bytes4"
                    },
                    {
                      "internalType": "bytes",
                      "name": "data",
                      "type": "bytes"
                    }
                  ],
                  "internalType": "struct LibAsset.AssetType",
                  "name": "assetType",
                  "type": "tuple"
                },
                {
                  "internalType": "uint256",
                  "name": "value",
                  "type": "uint256"
                }
              ],
              "internalType": "struct LibAsset.Asset",
              "name": "makeAsset",
              "type": "tuple"
            },
            {
              "internalType": "address",
              "name": "taker",
              "type": "address"
            },
            {
              "components": [
                {
                  "components": [
                    {
                      "internalType": "bytes4",
                      "name": "assetClass",
                      "type": "bytes4"
                    },
                    {
                      "internalType": "bytes",
                      "name": "data",
                      "type": "bytes"
                    }
                  ],
                  "internalType": "struct LibAsset.AssetType",
                  "name": "assetType",
                  "type": "tuple"
                },
                {
                  "internalType": "uint256",
                  "name": "value",
                  "type": "uint256"
                }
              ],
              "internalType": "struct LibAsset.Asset",
              "name": "takeAsset",
              "type": "tuple"
            },
            {
              "internalType": "uint256",
              "name": "salt",
              "type": "uint256"
            },
            {
              "internalType": "uint256",
              "name": "start",
              "type": "uint256"
            },
            {
              "internalType": "uint256",
              "name": "end",
              "type": "uint256"
            },
            {
              "internalType": "bytes4",
              "name": "dataType",
              "type": "bytes4"
            },
            {
              "internalType": "bytes",
              "name": "data",
              "type": "bytes"
            }
          ],
          "internalType": "struct LibOrder.Order",
          "name": "orderLeft",
          "type": "tuple"
        },
        {
          "internalType": "bytes",
          "name": "signatureLeft",
          "type": "bytes"
        },
        {
          "components": [
            {
              "internalType": "address",
              "name": "maker",
              "type": "address"
            },
            {
              "components": [
                {
                  "components": [
                    {
                      "internalType": "bytes4",
                      "name": "assetClass",
                      "type": "bytes4"
                    },
                    {
                      "internalType": "bytes",
                      "name": "data",
                      "type": "bytes"
                    }
                  ],
                  "internalType": "struct LibAsset.AssetType",
                  "name": "assetType",
                  "type": "tuple"
                },
                {
                  "internalType": "uint256",
                  "name": "value",
                  "type": "uint256"
                }
              ],
              "internalType": "struct LibAsset.Asset",
              "name": "makeAsset",
              "type": "tuple"
            },
            {
              "internalType": "address",
              "name": "taker",
              "type": "address"
            },
            {
              "components": [
                {
                  "components": [
                    {
                      "internalType": "bytes4",
                      "name": "assetClass",
                      "type": "bytes4"
                    },
                    {
                      "internalType": "bytes",
                      "name": "data",
                      "type": "bytes"
                    }
                  ],
                  "internalType": "struct LibAsset.AssetType",
                  "name": "assetType",
                  "type": "tuple"
                },
                {
                  "internalType": "uint256",
                  "name": "value",
                  "type": "uint256"
                }
              ],
              "internalType": "struct LibAsset.Asset",
              "name": "takeAsset",
              "type": "tuple"
            },
            {
              "internalType": "uint256",
              "name": "salt",
              "type": "uint256"
            },
            {
              "internalType": "uint256",
              "name": "start",
              "type": "uint256"
            },
            {
              "internalType": "uint256",
              "name": "end",
              "type": "uint256"
            },
            {
              "internalType": "bytes4",
              "name": "dataType",
              "type": "bytes4"
            },
            {
              "internalType": "bytes",
              "name": "data",
              "type": "bytes"
            }
          ],
          "internalType": "struct LibOrder.Order",
          "name": "orderRight",
          "type": "tuple"
        },
        {
          "internalType": "bytes",
          "name": "signatureRight",
          "type": "bytes"
        }
      ],
      "name": "matchOrders",
      "outputs": [],
      "stateMutability": "payable",
      "type": "function"
    },
    {
      "inputs": [],
      "name": "owner",
      "outputs": [
        {
          "internalType": "address",
          "name": "",
          "type": "address"
        }
      ],
      "stateMutability": "view",
      "type": "function"
    },
    {
      "inputs": [],
      "name": "protocolFee",
      "outputs": [
        {
          "internalType": "uint256",
          "name": "",
          "type": "uint256"
        }
      ],
      "stateMutability": "view",
      "type": "function"
    },
    {
      "inputs": [],
      "name": "renounceOwnership",
      "outputs": [],
      "stateMutability": "nonpayable",
      "type": "function"
    },
    {
      "inputs": [],
      "name": "royaltiesRegistry",
      "outputs": [
        {
          "internalType": "contract IRoyaltiesProvider",
          "name": "",
          "type": "address"
        }
      ],
      "stateMutability": "view",
      "type": "function"
    },
    {
      "inputs": [
        {
          "internalType": "bytes4",
          "name": "assetType",
          "type": "bytes4"
        },
        {
          "internalType": "address",
          "name": "matcher",
          "type": "address"
        }
      ],
      "name": "setAssetMatcher",
      "outputs": [],
      "stateMutability": "nonpayable",
      "type": "function"
    },
    {
      "inputs": [
        {
          "internalType": "address payable",
          "name": "newDefaultFeeReceiver",
          "type": "address"
        }
      ],
      "name": "setDefaultFeeReceiver",
      "outputs": [],
      "stateMutability": "nonpayable",
      "type": "function"
    },
    {
      "inputs": [
        {
          "internalType": "address",
          "name": "token",
          "type": "address"
        },
        {
          "internalType": "address",
          "name": "wallet",
          "type": "address"
        }
      ],
      "name": "setFeeReceiver",
      "outputs": [],
      "stateMutability": "nonpayable",
      "type": "function"
    },
    {
      "inputs": [
        {
          "internalType": "address",
          "name": "mata",
          "type": "address"
        }
      ],
      "name": "setMatchTransferAdminAccount",
      "outputs": [],
      "stateMutability": "nonpayable",
      "type": "function"
    },
    {
      "inputs": [
        {
          "internalType": "uint256",
          "name": "newProtocolFee",
          "type": "uint256"
        }
      ],
      "name": "setProtocolFee",
      "outputs": [],
      "stateMutability": "nonpayable",
      "type": "function"
    },
    {
      "inputs": [
        {
          "internalType": "contract IRoyaltiesProvider",
          "name": "newRoyaltiesRegistry",
          "type": "address"
        }
      ],
      "name": "setRoyaltiesRegistry",
      "outputs": [],
      "stateMutability": "nonpayable",
      "type": "function"
    },
    {
      "inputs": [
        {
          "internalType": "bytes4",
          "name": "assetType",
          "type": "bytes4"
        },
        {
          "internalType": "address",
          "name": "proxy",
          "type": "address"
        }
      ],
      "name": "setTransferProxy",
      "outputs": [],
      "stateMutability": "nonpayable",
      "type": "function"
    },
    {
      "inputs": [
        {
          "internalType": "address",
          "name": "newOwner",
          "type": "address"
        }
      ],
      "name": "transferOwnership",
      "outputs": [],
      "stateMutability": "nonpayable",
      "type": "function"
    }
  ],
  "transactionHash": "0xa7eed01a63e076123291891e05d2cd30230e608344180c8434bf129ebd6a2fa8",
  "args": [],
  "solcInputHash": "34a24ccd634cbe27df10cb9ad1fadc20",
  "bytecode": "0x608060405234801561001057600080fd5b506145fb806100206000396000f3fe60806040526004361061012a5760003560e01c8063715018a6116100ab578063b39deb461161006f578063b39deb46146102e5578063da50b65b14610305578063e2864fe314610325578063e66db25e14610345578063e99a3f8014610365578063f2fde38b146103785761012a565b8063715018a614610266578063787dce3d1461027b57806383c7b1451461029b5780638da5cb5b146102bb578063b0e21e8a146102d05761012a565b806329534215116100f257806329534215146101e757806330c642f1146101fc5780633abf6fd41461021c5780633be89922146102315780636d8f0694146102515761012a565b806302097ab11461012f5780631372a625146101655780631cdfe3d81461018757806320158c44146101a757806324bffde2146101d4575b600080fd5b34801561013b57600080fd5b5061014f61014a366004613942565b610398565b60405161015c9190613ef8565b60405180910390f35b34801561017157600080fd5b50610185610180366004613ace565b6103b4565b005b34801561019357600080fd5b506101856101a2366004613942565b610488565b3480156101b357600080fd5b506101c76101c2366004613a99565b61050d565b60405161015c9190614356565b6101856101e2366004613e26565b610520565b3480156101f357600080fd5b5061014f610562565b34801561020857600080fd5b50610185610217366004613ab1565b610572565b34801561022857600080fd5b5061014f610642565b34801561023d57600080fd5b5061018561024c366004613942565b610652565b34801561025d57600080fd5b5061014f6106d7565b34801561027257600080fd5b506101856106e7565b34801561028757600080fd5b50610185610296366004613a99565b610781565b3480156102a757600080fd5b506101856102b6366004613942565b6107e9565b3480156102c757600080fd5b5061014f61086e565b3480156102dc57600080fd5b506101c761087d565b3480156102f157600080fd5b50610185610300366004613ab1565b610884565b34801561031157600080fd5b506101856103203660046139df565b610948565b34801561033157600080fd5b50610185610340366004613d4d565b610aa7565b34801561035157600080fd5b506101856103603660046139a7565b610b71565b610185610373366004613d7f565b610c02565b34801561038457600080fd5b50610185610393366004613942565b610cbe565b610165602052600090815260409020546001600160a01b031681565b600054610100900460ff16806103cd57506103cd610daf565b806103db575060005460ff16155b6104165760405162461bcd60e51b815260040180806020018281038252602e8152602001806144f5602e913960400191505060405180910390fd5b600054610100900460ff16158015610441576000805460ff1961ff0019909116610100171660011790555b610449610dc0565b610451610e62565b61045b8686610f49565b610466848484610ff3565b61046e6110cf565b8015610480576000805461ff00191690555b505050505050565b6104906111a2565b6001600160a01b03166104a161086e565b6001600160a01b0316146104ea576040805162461bcd60e51b81526020600482018190526024820152600080516020614566833981519152604482015290519081900360640190fd5b61016480546001600160a01b0319166001600160a01b0392909216919091179055565b6101306020526000908152604090205481565b61012f546001600160a01b031633146105545760405162461bcd60e51b815260040161054b9061419b565b60405180910390fd5b61055e82826111a6565b5050565b61012f546001600160a01b031681565b61057a6111a2565b6001600160a01b031661058b61086e565b6001600160a01b0316146105d4576040805162461bcd60e51b81526020600482018190526024820152600080516020614566833981519152604482015290519081900360640190fd5b6001600160e01b031982166000818152609760205260409081902080546001600160a01b0319166001600160a01b038516179055517f4b5aced933c0c9a88aeac3f0b3b72c5aaf75df8ebaf53225773248c4c315359390610636908490613ef8565b60405180910390a25050565b610164546001600160a01b031681565b61065a6111a2565b6001600160a01b031661066b61086e565b6001600160a01b0316146106b4576040805162461bcd60e51b81526020600482018190526024820152600080516020614566833981519152604482015290519081900360640190fd5b61016380546001600160a01b0319166001600160a01b0392909216919091179055565b610163546001600160a01b031681565b6106ef6111a2565b6001600160a01b031661070061086e565b6001600160a01b031614610749576040805162461bcd60e51b81526020600482018190526024820152600080516020614566833981519152604482015290519081900360640190fd5b6033546040516000916001600160a01b031690600080516020614586833981519152908390a3603380546001600160a01b0319169055565b6107896111a2565b6001600160a01b031661079a61086e565b6001600160a01b0316146107e3576040805162461bcd60e51b81526020600482018190526024820152600080516020614566833981519152604482015290519081900360640190fd5b61016255565b6107f16111a2565b6001600160a01b031661080261086e565b6001600160a01b03161461084b576040805162461bcd60e51b81526020600482018190526024820152600080516020614566833981519152604482015290519081900360640190fd5b61012f80546001600160a01b0319166001600160a01b0392909216919091179055565b6033546001600160a01b031690565b6101625481565b61088c6111a2565b6001600160a01b031661089d61086e565b6001600160a01b0316146108e6576040805162461bcd60e51b81526020600482018190526024820152600080516020614566833981519152604482015290519081900360640190fd5b6001600160e01b031982166000818152606560205260409081902080546001600160a01b0319166001600160a01b038516179055517fd2bf91075f105d0fd80328da28e20ebdad1c1261839711183bc29a44cbe6c72f90610636908490613ef8565b60005b815181101561055e5781818151811061096057fe5b6020026020010151600001516001600160a01b031661097d6111a2565b6001600160a01b0316146109a35760405162461bcd60e51b815260040161054b9061428e565b8181815181106109af57fe5b602002602001015160800151600014156109db5760405162461bcd60e51b815260040161054b9061409d565b60006109f98383815181106109ec57fe5b602002602001015161133f565b600081815261013060205260409020600019905583519091507f3efcb3b1a04ad7dd3e6b6ca2d108352be1f3a9d4f0a30d2877483f9d33e37bb6908290859085908110610a4257fe5b602002602001015160000151858581518110610a5a57fe5b60200260200101516020015160000151868681518110610a7657fe5b60200260200101516060015160000151604051610a969493929190613f25565b60405180910390a15060010161094b565b80516001600160a01b0316610aba6111a2565b6001600160a01b031614610ae05760405162461bcd60e51b815260040161054b9061428e565b6080810151610b015760405162461bcd60e51b815260040161054b9061409d565b6000610b0c8261133f565b6000818152610130602090815260409182902060001990558451908501515160608601515192519394507f3efcb3b1a04ad7dd3e6b6ca2d108352be1f3a9d4f0a30d2877483f9d33e37bb693610b659386939291613f25565b60405180910390a15050565b610b796111a2565b6001600160a01b0316610b8a61086e565b6001600160a01b031614610bd3576040805162461bcd60e51b81526020600482018190526024820152600080516020614566833981519152604482015290519081900360640190fd5b6001600160a01b0391821660009081526101656020526040902080546001600160a01b03191691909216179055565b610c0c84846114af565b610c1682826114af565b60408401516001600160a01b031615610c625783604001516001600160a01b031682600001516001600160a01b031614610c625760405162461bcd60e51b815260040161054b9061421a565b60408201516001600160a01b031615610cae5783600001516001600160a01b031682604001516001600160a01b031614610cae5760405162461bcd60e51b815260040161054b906140cb565b610cb884836111a6565b50505050565b610cc66111a2565b6001600160a01b0316610cd761086e565b6001600160a01b031614610d20576040805162461bcd60e51b81526020600482018190526024820152600080516020614566833981519152604482015290519081900360640190fd5b6001600160a01b038116610d655760405162461bcd60e51b81526004018080602001828103825260268152602001806144386026913960400191505060405180910390fd5b6033546040516001600160a01b0380841692169060008051602061458683398151915290600090a3603380546001600160a01b0319166001600160a01b0392909216919091179055565b6000610dba306114c2565b15905090565b600054610100900460ff1680610dd95750610dd9610daf565b80610de7575060005460ff16155b610e225760405162461bcd60e51b815260040180806020018281038252602e8152602001806144f5602e913960400191505060405180910390fd5b600054610100900460ff16158015610e4d576000805460ff1961ff0019909116610100171660011790555b8015610e5f576000805461ff00191690555b50565b600054610100900460ff1680610e7b5750610e7b610daf565b80610e89575060005460ff16155b610ec45760405162461bcd60e51b815260040180806020018281038252602e8152602001806144f5602e913960400191505060405180910390fd5b600054610100900460ff16158015610eef576000805460ff1961ff0019909116610100171660011790555b6000610ef96111a2565b603380546001600160a01b0319166001600160a01b03831690811790915560405191925090600090600080516020614586833981519152908290a3508015610e5f576000805461ff001916905550565b60976020527f4532fa16f071d6234e30e1a1e69b9806f04095edf37a1ca7a25c8d6af7861cc080546001600160a01b039283166001600160a01b0319918216179091557f30a684095c937b5aa064dcf94f9903a7d808e3efb22d8389dbd43080ad4ed3d5805493909216928116831790915563025ceed960e61b6000527f4b5822151ea34b7c8d9e37c3e466bcecb631efe6a9f26a4a4054110a93dd316f80549091169091179055565b600054610100900460ff168061100c575061100c610daf565b8061101a575060005460ff16155b6110555760405162461bcd60e51b815260040180806020018281038252602e8152602001806144f5602e913960400191505060405180910390fd5b600054610100900460ff16158015611080576000805460ff1961ff0019909116610100171660011790555b61016284905561016480546001600160a01b038086166001600160a01b0319928316179092556101638054928516929091169190911790558015610cb8576000805461ff001916905550505050565b600054610100900460ff16806110e857506110e8610daf565b806110f6575060005460ff16155b6111315760405162461bcd60e51b815260040180806020018281038252602e8152602001806144f5602e913960400191505060405180910390fd5b600054610100900460ff1615801561115c576000805460ff1961ff0019909116610100171660011790555b610e4d6040518060400160405280600b81526020016a11da1bdcdd13585c9ad95d60aa1b815250604051806040016040528060018152602001601960f91b8152506114c8565b3390565b6000806111b38484611589565b9150915060006111c28561133f565b905060006111cf8561133f565b905060006111dc87611622565b905060006111e987611622565b905060006111fb898987878787611720565b905060008061120f8989858e8e8a8a61184b565b8a5191935091506001600160e01b0319166355575f5d60e11b141561128e5787516001600160e01b0319166355575f5d60e11b141561124d57600080fd5b8134101561126d5760405162461bcd60e51b815260040161054b9061425d565b81341115611289576112896112823484611987565b33906119e9565b6112dd565b87516001600160e01b0319166355575f5d60e11b14156112dd57803410156112c85760405162461bcd60e51b815260040161054b9061425d565b803411156112dd576112dd6112823483611987565b7f41576b5d1d097a431bbadeabe9e68420fdc7ad0f694b928ea71d8763a436d4f987878d600001518d60000151876020015188600001518f8f60405161132a989796959493929190613f6c565b60405180910390a15050505050505050505050565b60e08101516000906001600160e01b0319166323d235ef60e01b141561143e57815160208301515161137090611a79565b60608401515161137f90611a79565b846080015185610100015160405160200180866001600160a01b0316815260200185815260200184815260200183815260200180602001828103825283818151815260200191508051906020019080838360005b838110156113eb5781810151838201526020016113d3565b50505050905090810190601f1680156114185780820380516001836020036101000a031916815260200191505b5096505050505050506040516020818303038152906040528051906020012090506114aa565b815160208301515161144f90611a79565b60608401515161145e90611a79565b846080015160405160200180856001600160a01b031681526020018481526020018381526020018281526020019450505050506040516020818303038152906040528051906020012090505b919050565b6114b882611ae3565b61055e8282611bad565b3b151590565b600054610100900460ff16806114e157506114e1610daf565b806114ef575060005460ff16155b61152a5760405162461bcd60e51b815260040180806020018281038252602e8152602001806144f5602e913960400191505060405180910390fd5b600054610100900460ff16158015611555576000805460ff1961ff0019909116610100171660011790555b825160208085019190912083519184019190912060c99190915560ca558015611584576000805461ff00191690555b505050565b611591613600565b611599613600565b6020840151516060840151516115af9190611e82565b80519092506001600160e01b0319166115da5760405162461bcd60e51b815260040161054b906141ee565b6060840151516020840151516115f09190611e82565b80519091506001600160e01b03191661161b5760405162461bcd60e51b815260040161054b906141ee565b9250929050565b61162a613618565b60e08201516001600160e01b031916632611a13360e11b1415611672576000611657836101000151611ec2565b80518352602090810151908301525060006040820152611707565b60e08201516001600160e01b0319166323d235ef60e01b14156116a45761169d826101000151611ede565b9050611707565b60e08201516001600160e01b031990811614156116c057611707565b6040805162461bcd60e51b8152602060048201526017602482015276556e6b6e6f776e204f726465722064617461207479706560481b604482015290519081900360640190fd5b8051516114aa57815161171990611efa565b8152919050565b61172861363b565b60006117348887611f95565b905060006117428887611f95565b9050600061175c8a8a85858a604001518a60400151611fc2565b9050600081602001511180156117725750805115155b61178e5760405162461bcd60e51b815260040161054b9061413b565b60808a0151156117e5578560400151156117c45780516117af908490612048565b600089815261013060205260409020556117e5565b60208101516117d4908490612048565b600089815261013060205260409020555b60808901511561183c5784604001511561181e576020810151611809908390612048565b6000888152610130602052604090205561183c565b805161182b908390612048565b600088815261013060205260409020555b925050505b9695505050505050565b60008060006118628a600001518a600001516120a9565b885160208a015190945092509050600181600281111561187e57fe5b14156118d357875187516118a5919087878e8e60008051602061441883398151915261217a565b92506118ce898960200151886000015188600001516000805160206145a683398151915261223e565b61197a565b60028160028111156118e157fe5b14156119315761190c8860200151876000015186888d8f6000805160206145a683398151915261217a565b8851885186519294506118ce928d92919060008051602061441883398151915261223e565b875187518551611953928d92909160008051602061441883398151915261223e565b61197a898960200151886000015188600001516000805160206145a683398151915261223e565b5097509795505050505050565b6000828211156119de576040805162461bcd60e51b815260206004820152601e60248201527f536166654d6174683a207375627472616374696f6e206f766572666c6f770000604482015290519081900360640190fd5b508082035b92915050565b6040516000906001600160a01b0384169083908381818185875af1925050503d8060008114611a34576040519150601f19603f3d011682016040523d82523d6000602084013e611a39565b606091505b50509050806115845760405162461bcd60e51b815260040180806020018281038252602881526020018061445e6028913960400191505060405180910390fd5b8051602091820151805190830120604080517f452a0dc408cb0d27ffc3b3caff933a5208040a53a9dbecd8d89cad2c0d40e00c818601526001600160e01b031990931683820152606080840192909252805180840390920182526080909201909152805191012090565b60a08101511580611af75750428160a00151105b611b48576040805162461bcd60e51b815260206004820152601d60248201527f4f726465722073746172742076616c69646174696f6e206661696c6564000000604482015290519081900360640190fd5b60c08101511580611b5c5750428160c00151115b610e5f576040805162461bcd60e51b815260206004820152601b60248201527f4f7264657220656e642076616c69646174696f6e206661696c65640000000000604482015290519081900360640190fd5b6080820151611c4b5781516001600160a01b031615611c325781516001600160a01b0316611bd96111a2565b6001600160a01b031614611c2d576040805162461bcd60e51b815260206004820152601660248201527536b0b5b2b91034b9903737ba103a3c1039b2b73232b960511b604482015290519081900360640190fd5b611c46565b611c3a6111a2565b6001600160a01b031682525b61055e565b81516001600160a01b0316611c5e6111a2565b6001600160a01b03161461055e576000611c7783612340565b90506000825160411415611c9b57611c9883611c9284612430565b9061247c565b90505b83516001600160a01b03828116911614611e3b578351611cc3906001600160a01b03166114c2565b15611dff578351630b135d3f60e11b906001600160a01b0316631626ba7e611cea85612430565b866040518363ffffffff1660e01b81526004018083815260200180602001828103825283818151815260200191508051906020019080838360005b83811015611d3d578181015183820152602001611d25565b50505050905090810190601f168015611d6a5780820380516001836020036101000a031916815260200191505b50935050505060206040518083038186803b158015611d8857600080fd5b505afa158015611d9c573d6000803e3d6000fd5b505050506040513d6020811015611db257600080fd5b50516001600160e01b03191614611dfa5760405162461bcd60e51b815260040180806020018281038252602b8152602001806144ca602b913960400191505060405180910390fd5b611e36565b60405162461bcd60e51b81526004018080602001828103825260228152602001806144a86022913960400191505060405180910390fd5b610cb8565b83516001600160a01b0316610cb8576040805162461bcd60e51b815260206004820152600860248201526737379036b0b5b2b960c11b604482015290519081900360640190fd5b611e8a613600565b6000611e9684846124f2565b80519091506001600160e01b031916611ebb57611eb383856124f2565b9150506119e3565b90506119e3565b611eca613655565b818060200190518101906119e39190613bfc565b611ee6613618565b818060200190518101906119e39190613c97565b60408051600180825281830190925260609160009190816020015b611f1d61366f565b815260200190600190039081611f155790505090508281600081518110611f4057fe5b6020026020010151600001906001600160a01b031690816001600160a01b03168152505061271081600081518110611f7457fe5b6020908102919091018101516001600160601b039092169101529050919050565b6000826080015160001415611fac575060006119e3565b5060009081526101306020526040902054919050565b611fca61363b565b600080611fd889888761270e565b91509150600080611fea8a898861270e565b915091508381111561201d5761201284848c60200151602001518d6060015160200151612788565b945050505050611841565b6120398b60200151602001518c60600151602001518484612808565b9b9a5050505050505050505050565b6000828201838110156120a2576040805162461bcd60e51b815260206004820152601b60248201527f536166654d6174683a206164646974696f6e206f766572666c6f770000000000604482015290519081900360640190fd5b9392505050565b60006001600160e01b031983166355575f5d60e11b14156120cc575060016119e3565b6001600160e01b031982166355575f5d60e11b14156120ed575060026119e3565b6001600160e01b031983166322ba176160e21b141561210e575060016119e3565b6001600160e01b031982166322ba176160e21b141561212f575060026119e3565b6001600160e01b0319831663025ceed960e61b1415612150575060016119e3565b6001600160e01b0319821663025ceed960e61b1415612171575060026119e3565b50600092915050565b600061218e8861016254886020015161288a565b9050600061219f828a8a88876128fd565b90506121af8585838c8c886129e6565b90506121e485828b8a602001518c887fdfdfdaf4cc275341b6776a7ee23b953990b8d991717449077287da70f32cf955612a59565b508091505061221c85828b89602001518c887fdfdfdaf4cc275341b6776a7ee23b953990b8d991717449077287da70f32cf955612a59565b508091505061223285828a89600001518761223e565b50979650505050505050565b6000805b835181101561231e57600061228085838151811061225c57fe5b6020026020010151602001516001600160601b031688612b1a90919063ffffffff16565b90506122b585838151811061229157fe5b6020026020010151602001516001600160601b03168461204890919063ffffffff16565b925080156123155761231560405180604001604052808a815260200183815250878785815181106122e257fe5b602002602001015160000151877fa10bb5b2060a412d05113732875a5431ca23453eb93f797e0ffcb5b40e5f2c3e612b32565b50600101612242565b5080612710146104805760405162461bcd60e51b815260040161054b90614164565b60007f477ed43b8020849b755512278536c3766a3b4ab547519949a75f483372493f8d82600001516123758460200151612eb9565b84604001516123878660600151612eb9565b86608001518760a001518860c001518960e001518a610100015180519060200120604051602001808b81526020018a6001600160a01b03168152602001898152602001886001600160a01b03168152602001878152602001868152602001858152602001848152602001836001600160e01b03191681526020018281526020019a5050505050505050505050604051602081830303815290604052805190602001209050919050565b600061243a612f29565b82604051602001808061190160f01b81525060020183815260200182815260200192505050604051602081830303815290604052805190602001209050919050565b600081516041146124d4576040805162461bcd60e51b815260206004820152601f60248201527f45434453413a20696e76616c6964207369676e6174757265206c656e67746800604482015290519081900360640190fd5b60208201516040830151606084015160001a61184186828585612f69565b6124fa613600565b825182516001600160e01b031982166355575f5d60e11b1415612565576001600160e01b031981166355575f5d60e11b141561253a5784925050506119e3565b50506040805180820182526000808252825160208181019094529081529181019190915290506119e3565b6001600160e01b031982166322ba176160e21b14156125aa576001600160e01b031981166322ba176160e21b141561253a576125a185856131b0565b925050506119e3565b6001600160e01b031982166339d690a360e11b14156125e6576001600160e01b031981166339d690a360e11b141561253a576125a185856131b0565b6001600160e01b0319821663025ceed960e61b1415612622576001600160e01b0319811663025ceed960e61b141561253a576125a185856131b0565b6001600160e01b031982166000908152606560205260409020546001600160a01b031680156126d7576040516306d3f7cb60e41b81526001600160a01b03821690636d3f7cb09061267990899089906004016142b3565b60006040518083038186803b15801561269157600080fd5b505afa1580156126a5573d6000803e3d6000fd5b505050506040513d6000823e601f3d908101601f191682016040526126cd9190810190613b35565b93505050506119e3565b6001600160e01b031983811690831614156126f6576126cd86866131b0565b60405162461bcd60e51b815260040161054b90614035565b600080821561274d5760208086015101516127299085611987565b91506127468560600151602001518660200151602001518461320d565b9050612780565b6060850151602001516127609085611987565b905061277d8560200151602001518660600151602001518361320d565b91505b935093915050565b61279061363b565b600061279d85858561320d565b9050858111156127ef576040805162461bcd60e51b8152602060048201526018602482015277199a5b1b1319599d0e881d5b98589b19481d1bc8199a5b1b60421b604482015290519081900360640190fd5b5050604080518082019091529384525050602082015290565b61281061363b565b600061281d83878761320d565b905083811115612870576040805162461bcd60e51b8152602060048201526019602482015278199a5b1b149a59da1d0e881d5b98589b19481d1bc8199a5b1b603a1b604482015290519081900360640190fd5b604080518082019091529283526020830152509392505050565b60006128a06128998585612b1a565b8590612048565b905060005b82518110156128f5576128eb6128e48483815181106128c057fe5b6020026020010151602001516001600160601b031687612b1a90919063ffffffff16565b8390612048565b91506001016128a5565b509392505050565b6000806000612910888861016254613273565b909250905080156129db5784516000906001600160e01b0319166322ba176160e21b1415612957578560200151806020019051810190612950919061395e565b9050612990565b85516001600160e01b03191663025ceed960e61b1415612990576000866020015180602001905181019061298b919061397a565b509150505b6129d9604051806040016040528088815260200184815250886129b284613295565b887ff87e69cb514f255f3d32f9d90f25160a10d0cdefe6618a6406db334d4450595c612b32565b505b509695505050505050565b6000806129f2876132d4565b9050600080612a268a8989868a8a7fb3c5c697ec0b511b76d12f6293e6ee827b1e1df79ac7c64d0466d945904893d7612a59565b91509150611388811115612a4c5760405162461bcd60e51b815260040161054b90614066565b5098975050505050505050565b856000805b865181101561197a57612a9a878281518110612a7657fe5b6020026020010151602001516001600160601b03168361204890919063ffffffff16565b9150600080612aca858b8b8681518110612ab057fe5b6020026020010151602001516001600160601b0316613273565b90955085925090508015612b1057612b1060405180604001604052808e815260200183815250898b8681518110612afd57fe5b6020026020010151600001518a8a612b32565b5050600101612a5e565b60006120a2612710612b2c85856133c6565b9061341f565b8451516001600160e01b0319166355575f5d60e11b1415612b6b576020850151612b66906001600160a01b038516906119e9565b612e73565b8451516001600160e01b0319166322ba176160e21b1415612c49576000856000015160200151806020019051810190612ba4919061395e565b6322ba176160e21b600052609760209081527f4532fa16f071d6234e30e1a1e69b9806f04095edf37a1ca7a25c8d6af7861cc0549088015160405163776062c360e01b81529293506001600160a01b039091169163776062c391612c119185918a918a919060040161400b565b600060405180830381600087803b158015612c2b57600080fd5b505af1158015612c3f573d6000803e3d6000fd5b5050505050612e73565b8451516001600160e01b0319166339d690a360e11b1415612d4957600080866000015160200151806020019051810190612c83919061397a565b915091508660200151600114612cab5760405162461bcd60e51b815260040161054b9061410f565b6339d690a360e11b60005260976020527f30a684095c937b5aa064dcf94f9903a7d808e3efb22d8389dbd43080ad4ed3d554604051637b84dc8360e11b81526001600160a01b039091169063f709b90690612d109085908a908a90879060040161400b565b600060405180830381600087803b158015612d2a57600080fd5b505af1158015612d3e573d6000803e3d6000fd5b505050505050612e73565b8451516001600160e01b03191663025ceed960e61b1415612df257600080866000015160200151806020019051810190612d83919061397a565b63025ceed960e61b600052609760209081527f4b5822151ea34b7c8d9e37c3e466bcecb631efe6a9f26a4a4054110a93dd316f54908a0151604051639c1c2ee960e01b81529395509193506001600160a01b031691639c1c2ee991612d109186918b918b918891600401613fc8565b8451516001600160e01b031916600090815260976020526040908190205490516354bc0cf160e01b81526001600160a01b03909116906354bc0cf190612e40908890889088906004016142d8565b600060405180830381600087803b158015612e5a57600080fd5b505af1158015612e6e573d6000803e3d6000fd5b505050505b7fcae9d16f553e92058883de29cb3135dbc0c1e31fd7eace79fef1d80577fe482e8585858585604051612eaa95949392919061430b565b60405180910390a15050505050565b60007fdb6f72e915676cfc289da13bc4ece054fd17b1df6d77ffc4a60510718c236b08612ee98360000151611a79565b8360200151604051602001808481526020018381526020018281526020019350505050604051602081830303815290604052805190602001209050919050565b6000612f647f8b73c3c69bb8fe3d512ecc4cf759cc79239f7b179b0ffacaa9a75d522b39400f612f57613486565b612f5f61348c565b613492565b905090565b60006fa2a8918ca85bafe22016d0b997e4df60600160ff1b03821115612fc05760405162461bcd60e51b81526004018080602001828103825260228152602001806144866022913960400191505060405180910390fd5b6000601e8560ff16111561309a576004850360ff16601b1480612fe957506004850360ff16601c145b6130245760405162461bcd60e51b81526004018080602001828103825260228152602001806145236022913960400191505060405180910390fd5b600161302f876134f4565b60048703868660405160008152602001604052604051808581526020018460ff1681526020018381526020018281526020019450505050506020604051602081039080840390855afa158015613089573d6000803e3d6000fd5b505050602060405103519050613151565b8460ff16601b14806130af57508460ff16601c145b6130ea5760405162461bcd60e51b81526004018080602001828103825260228152602001806145236022913960400191505060405180910390fd5b60018686868660405160008152602001604052604051808581526020018460ff1681526020018381526020018281526020019450505050506020604051602081039080840390855afa158015613144573d6000803e3d6000fd5b5050506020604051035190505b6001600160a01b0381166131a7576040805162461bcd60e51b815260206004820152601860248201527745434453413a20696e76616c6964207369676e617475726560401b604482015290519081900360640190fd5b95945050505050565b6131b8613600565b602080840151805190820120838201518051920191909120808214156131e25784925050506119e3565b5050604080518082018252600080825282516020808201909452908152918101919091529392505050565b600061321a848484613545565b1561325d576040805162461bcd60e51b815260206004820152600e60248201526d3937bab73234b7339032b93937b960911b604482015290519081900360640190fd5b61326b83612b2c86856133c6565b949350505050565b600080613289856132848686612b1a565b6135d4565b91509150935093915050565b6001600160a01b038082166000908152610165602052604081205490911680156132c05790506114aa565b5050610164546001600160a01b0316919050565b80516060906001600160e01b03191663025ceed960e61b1480613308575081516001600160e01b0319166339d690a360e11b145b156133be576000808360200151806020019051810190613328919061397a565b61016354604051634e53ee3d60e11b81529294509092506001600160a01b031690639ca7dc7a9061335f9085908590600401613f0c565b600060405180830381600087803b15801561337957600080fd5b505af115801561338d573d6000803e3d6000fd5b505050506040513d6000823e601f3d908101601f191682016040526133b59190810190613a67565b925050506114aa565b506060919050565b6000826133d5575060006119e3565b828202828482816133e257fe5b04146120a25760405162461bcd60e51b81526004018080602001828103825260218152602001806145456021913960400191505060405180910390fd5b6000808211613475576040805162461bcd60e51b815260206004820152601a60248201527f536166654d6174683a206469766973696f6e206279207a65726f000000000000604482015290519081900360640190fd5b81838161347e57fe5b049392505050565b60c95490565b60ca5490565b600083838361349f6135fc565b3060405160200180868152602001858152602001848152602001838152602001826001600160a01b03168152602001955050505050506040516020818303038152906040528051906020012090509392505050565b604080517f19457468657265756d205369676e6564204d6573736167653a0a333200000000602080830191909152603c8083019490945282518083039094018452605c909101909152815191012090565b60008261358c576040805162461bcd60e51b815260206004820152601060248201526f6469766973696f6e206279207a65726f60801b604482015290519081900360640190fd5b811580613597575083155b156135a4575060006120a2565b600083806135ae57fe5b85840990506135bd85846133c6565b6135c9826103e86133c6565b101595945050505050565b600080828411156135f3576135e98484611987565b915082905061161b565b50600093915050565b4690565b60408051808201909152600081526060602082015290565b604051806060016040528060608152602001606081526020016000151581525090565b604051806040016040528060008152602001600081525090565b604051806040016040528060608152602001606081525090565b604080518082019091526000808252602082015290565b80356114aa816143ec565b600082601f8301126136a1578081fd5b815160206136b66136b183614382565b61435f565b828152818101908583016040808602880185018910156136d4578687fd5b865b868110156137435781838b0312156136ec578788fd5b81518281018181106001600160401b038211171561370657fe5b83528351613713816143ec565b8152838701516001600160601b038116811461372d57898afd5b81880152855293850193918101916001016136d6565b509198975050505050505050565b80356114aa81614401565b600082601f83011261376c578081fd5b813561377a6136b18261439f565b81815284602083860101111561378e578283fd5b816020850160208301379081016020019190915292915050565b600060408083850312156137ba578182fd5b80518181016001600160401b0382821081831117156137d557fe5b8184528294508535818111156137ea57600080fd5b86018088038513156137fb57600080fd5b60808401838110838211171561380d57fe5b90945283359361381c85614401565b9382526020840135938185111561383257600080fd5b61383e8886830161375c565b60608501525050815260209384013593019290925292915050565b600061012080838503121561386c578182fd5b6138758161435f565b91505061388182613686565b815260208201356001600160401b038082111561389d57600080fd5b6138a9858386016137a8565b60208401526138ba60408501613686565b604084015260608401359150808211156138d357600080fd5b6138df858386016137a8565b60608401526080840135608084015260a084013560a084015260c084013560c084015261390e60e08501613751565b60e08401526101009150818401358181111561392957600080fd5b6139358682870161375c565b8385015250505092915050565b600060208284031215613953578081fd5b81356120a2816143ec565b60006020828403121561396f578081fd5b81516120a2816143ec565b6000806040838503121561398c578081fd5b8251613997816143ec565b6020939093015192949293505050565b600080604083850312156139b9578182fd5b82356139c4816143ec565b915060208301356139d4816143ec565b809150509250929050565b600060208083850312156139f1578182fd5b82356001600160401b03811115613a06578283fd5b8301601f81018513613a16578283fd5b8035613a246136b182614382565b81815283810190838501865b84811015613a5957613a478a888435890101613859565b84529286019290860190600101613a30565b509098975050505050505050565b600060208284031215613a78578081fd5b81516001600160401b03811115613a8d578182fd5b61326b84828501613691565b600060208284031215613aaa578081fd5b5035919050565b60008060408385031215613ac3578182fd5b82356139c481614401565b600080600080600060a08688031215613ae5578081fd5b8535613af0816143ec565b94506020860135613b00816143ec565b9350604086013592506060860135613b17816143ec565b91506080860135613b27816143ec565b809150509295509295909350565b60006020808385031215613b47578182fd5b82516001600160401b0380821115613b5d578384fd5b9084019060408287031215613b70578384fd5b604051604081018181108382111715613b8557fe5b6040528251613b9381614401565b81528284015182811115613ba5578586fd5b80840193505086601f840112613bb9578485fd5b82519150613bc96136b18361439f565b8281528785848601011115613bdc578586fd5b613beb838683018787016143c0565b938101939093525090949350505050565b600060208284031215613c0d578081fd5b81516001600160401b0380821115613c23578283fd5b9083019060408286031215613c36578283fd5b604051604081018181108382111715613c4b57fe5b604052825182811115613c5c578485fd5b613c6887828601613691565b825250602083015182811115613c7c578485fd5b613c8887828601613691565b60208301525095945050505050565b600060208284031215613ca8578081fd5b81516001600160401b0380821115613cbe578283fd5b9083019060608286031215613cd1578283fd5b604051606081018181108382111715613ce657fe5b604052825182811115613cf7578485fd5b613d0387828601613691565b825250602083015182811115613d17578485fd5b613d2387828601613691565b602083015250604083015192508215158314613d3d578384fd5b6040810192909252509392505050565b600060208284031215613d5e578081fd5b81356001600160401b03811115613d73578182fd5b61326b84828501613859565b60008060008060808587031215613d94578182fd5b84356001600160401b0380821115613daa578384fd5b613db688838901613859565b95506020870135915080821115613dcb578384fd5b613dd78883890161375c565b94506040870135915080821115613dec578384fd5b613df888838901613859565b93506060870135915080821115613e0d578283fd5b50613e1a8782880161375c565b91505092959194509250565b60008060408385031215613e38578182fd5b82356001600160401b0380821115613e4e578384fd5b613e5a86838701613859565b93506020850135915080821115613e6f578283fd5b50613e7c85828601613859565b9150509250929050565b600063ffffffff60e01b82511683526020820151604060208501528051806040860152613eba8160608701602085016143c0565b601f01601f1916939093016060019392505050565b6000815160408452613ee46040850182613e86565b602093840151949093019390935250919050565b6001600160a01b0391909116815260200190565b6001600160a01b03929092168252602082015260400190565b8481526001600160a01b0384166020820152608060408201819052600090613f4f90830185613e86565b8281036060840152613f618185613e86565b979650505050505050565b888152602081018890526001600160a01b038781166040830152861660608201526080810185905260a0810184905261010060c08201819052600090613fb483820186613e86565b905082810360e08401526120398185613e86565b6001600160a01b03958616815293851660208501529190931660408301526060820192909252608081019190915260c060a0820181905260009082015260e00190565b6001600160a01b039485168152928416602084015292166040820152606081019190915260800190565b6020808252601790820152763737ba103337bab7321024a0b9b9b2ba26b0ba31b432b960491b604082015260600190565b6020808252601d908201527f526f79616c746965732061726520746f6f206869676820283e35302529000000604082015260600190565b6020808252601490820152730c081cd85b1d0818d85b89dd081899481d5cd95960621b604082015260600190565b60208082526024908201527f72696768744f726465722e74616b657220766572696669636174696f6e2066616040820152631a5b195960e21b606082015260800190565b60208082526012908201527132b9319b9918903b30b63ab29032b93937b960711b604082015260600190565b6020808252600f908201526e1b9bdd1a1a5b99c81d1bc8199a5b1b608a1b604082015260600190565b6020808252601e908201527f53756d207061796f75747320427073206e6f7420657175616c20313030250000604082015260600190565b60208082526033908201527f6e6f7420616c6c6f77656420746f206d61746368416e645472616e7366657220604082015272776974686f75742061207369676e617475726560681b606082015260800190565b6020808252601290820152710c2e6e6cae8e640c8dedc4ee840dac2e8c6d60731b604082015260600190565b60208082526023908201527f6c6566744f726465722e74616b657220766572696669636174696f6e206661696040820152621b195960ea1b606082015260800190565b6020808252601790820152766e6f7420656e6f756768204261736543757272656e637960481b604082015260600190565b6020808252600b908201526a3737ba10309036b0b5b2b960a91b604082015260600190565b6000604082526142c66040830185613e86565b82810360208401526131a78185613e86565b6000606082526142eb6060830186613ecf565b6001600160a01b0394851660208401529290931660409091015292915050565b600060a0825261431e60a0830188613ecf565b6001600160a01b0396871660208401529490951660408201526001600160e01b03199283166060820152911660809091015292915050565b90815260200190565b6040518181016001600160401b038111828210171561437a57fe5b604052919050565b60006001600160401b0382111561439557fe5b5060209081020190565b60006001600160401b038211156143b257fe5b50601f01601f191660200190565b60005b838110156143db5781810151838201526020016143c3565b83811115610cb85750506000910152565b6001600160a01b0381168114610e5f57600080fd5b6001600160e01b031981168114610e5f57600080fdfe1a0388dd7519a093630516a672419a2562e0e74deb98af068657dc265f0164c94f776e61626c653a206e6577206f776e657220697320746865207a65726f20616464726573734c69625472616e73666572204261736543757272656e6379207472616e73666572206661696c656445434453413a20696e76616c6964207369676e6174757265202773272076616c75656f72646572207369676e617475726520766572696669636174696f6e206572726f72636f6e7472616374206f72646572207369676e617475726520766572696669636174696f6e206572726f72496e697469616c697a61626c653a20636f6e747261637420697320616c726561647920696e697469616c697a656445434453413a20696e76616c6964207369676e6174757265202776272076616c7565536166654d6174683a206d756c7469706c69636174696f6e206f766572666c6f774f776e61626c653a2063616c6c6572206973206e6f7420746865206f776e65728be0079c531659141344cd1fd0a4f28419497f9722a3daafe3b4186f6b6457e0b45a3ba14423c8f1b71cc094845ab56b5294dbe8d8e3ba53f3cdb63d59a4044ba264697066735822122071949403c3ace85a54704d6e886144fed6b0bfe875c5ba08c39503e5046e4cbb64736f6c63430007060033",
  "devdoc": {
    "kind": "dev",
    "methods": {
      "__ExchangeV2_init(address,address,uint256,address,address)": {
        "details": "initialize ExchangeV2",
        "params": {
          "_erc20TransferProxy": "address for proxy transfer contract that handles ERC20 contracts",
          "_transferProxy": "address for proxy transfer contract that handles ERC721 & ERC1155 contracts",
          "newDefaultFeeReceiver": "address for protocol fee if fee by token type is not set (GhostMarketTransferManager.sol => function getFeeReceiver)",
          "newProtocolFee": "address for protocol fee"
        }
      },
      "bulkCancelOrders((address,((bytes4,bytes),uint256),address,((bytes4,bytes),uint256),uint256,uint256,uint256,bytes4,bytes)[])": {
        "details": "call the cancel fucntion in a loop canceling multiple orders"
      },
      "cancel((address,((bytes4,bytes),uint256),address,((bytes4,bytes),uint256),uint256,uint256,uint256,bytes4,bytes))": {
        "details": "cancel the the given order by adding the biggest possible number to fills mapping"
      },
      "matchAndTransferWithoutSignature((address,((bytes4,bytes),uint256),address,((bytes4,bytes),uint256),uint256,uint256,uint256,bytes4,bytes),(address,((bytes4,bytes),uint256),address,((bytes4,bytes),uint256),uint256,uint256,uint256,bytes4,bytes))": {
        "details": "match orders without a signature, only admin"
      },
      "owner()": {
        "details": "Returns the address of the current owner."
      },
      "renounceOwnership()": {
        "details": "Leaves the contract without owner. It will not be possible to call `onlyOwner` functions anymore. Can only be called by the current owner. NOTE: Renouncing ownership will leave the contract without an owner, thereby removing any functionality that is only available to the owner."
      },
      "setFeeReceiver(address,address)": {
        "params": {
          "token": "token contract address",
          "wallet": "fee receiver address"
        }
      },
      "setMatchTransferAdminAccount(address)": {
        "details": "set admin address that can use the matchAndTransferWithoutSignature function"
      },
      "transferOwnership(address)": {
        "details": "Transfers ownership of the contract to a new account (`newOwner`). Can only be called by the current owner."
      }
    },
    "version": 1
  },
  "userdoc": {
    "kind": "user",
    "methods": {
      "setFeeReceiver(address,address)": {
        "notice": "set fee for different tokens types"
      }
    },
    "version": 1
  },
  "storageLayout": {
    "storage": [
      {
        "astId": 739,
        "contract": "src/ExchangeV2.sol:ExchangeV2",
        "label": "_initialized",
        "offset": 0,
        "slot": "0",
        "type": "t_bool"
      },
      {
        "astId": 742,
        "contract": "src/ExchangeV2.sol:ExchangeV2",
        "label": "_initializing",
        "offset": 1,
        "slot": "0",
        "type": "t_bool"
      },
      {
        "astId": 4072,
        "contract": "src/ExchangeV2.sol:ExchangeV2",
        "label": "__gap",
        "offset": 0,
        "slot": "1",
        "type": "t_array(t_uint256)50_storage"
      },
      {
        "astId": 10,
        "contract": "src/ExchangeV2.sol:ExchangeV2",
        "label": "_owner",
        "offset": 0,
        "slot": "51",
        "type": "t_address"
      },
      {
        "astId": 129,
        "contract": "src/ExchangeV2.sol:ExchangeV2",
        "label": "__gap",
        "offset": 0,
        "slot": "52",
        "type": "t_array(t_uint256)49_storage"
      },
      {
        "astId": 9542,
        "contract": "src/ExchangeV2.sol:ExchangeV2",
        "label": "matchers",
        "offset": 0,
        "slot": "101",
        "type": "t_mapping(t_bytes4,t_address)"
      },
      {
        "astId": 9788,
        "contract": "src/ExchangeV2.sol:ExchangeV2",
        "label": "__gap",
        "offset": 0,
        "slot": "102",
        "type": "t_array(t_uint256)49_storage"
      },
      {
        "astId": 12449,
        "contract": "src/ExchangeV2.sol:ExchangeV2",
        "label": "proxies",
        "offset": 0,
        "slot": "151",
        "type": "t_mapping(t_bytes4,t_address)"
      },
      {
        "astId": 12695,
        "contract": "src/ExchangeV2.sol:ExchangeV2",
        "label": "__gap",
        "offset": 0,
        "slot": "152",
        "type": "t_array(t_uint256)49_storage"
      },
      {
        "astId": 138,
        "contract": "src/ExchangeV2.sol:ExchangeV2",
        "label": "_HASHED_NAME",
        "offset": 0,
        "slot": "201",
        "type": "t_bytes32"
      },
      {
        "astId": 140,
        "contract": "src/ExchangeV2.sol:ExchangeV2",
        "label": "_HASHED_VERSION",
        "offset": 0,
        "slot": "202",
        "type": "t_bytes32"
      },
      {
        "astId": 289,
        "contract": "src/ExchangeV2.sol:ExchangeV2",
        "label": "__gap",
        "offset": 0,
        "slot": "203",
        "type": "t_array(t_uint256)50_storage"
      },
      {
        "astId": 12426,
        "contract": "src/ExchangeV2.sol:ExchangeV2",
        "label": "__gap",
        "offset": 0,
        "slot": "253",
        "type": "t_array(t_uint256)50_storage"
      },
      {
        "astId": 9923,
        "contract": "src/ExchangeV2.sol:ExchangeV2",
        "label": "matchAndTransferAdmin",
        "offset": 0,
        "slot": "303",
        "type": "t_address"
      },
      {
        "astId": 9927,
        "contract": "src/ExchangeV2.sol:ExchangeV2",
        "label": "fills",
        "offset": 0,
        "slot": "304",
        "type": "t_mapping(t_bytes32,t_uint256)"
      },
      {
        "astId": 10571,
        "contract": "src/ExchangeV2.sol:ExchangeV2",
        "label": "__gap",
        "offset": 0,
        "slot": "305",
        "type": "t_array(t_uint256)49_storage"
      },
      {
        "astId": 10592,
        "contract": "src/ExchangeV2.sol:ExchangeV2",
        "label": "protocolFee",
        "offset": 0,
        "slot": "354",
        "type": "t_uint256"
      },
      {
        "astId": 10594,
        "contract": "src/ExchangeV2.sol:ExchangeV2",
        "label": "royaltiesRegistry",
        "offset": 0,
        "slot": "355",
        "type": "t_contract(IRoyaltiesProvider)14942"
      },
      {
        "astId": 10596,
        "contract": "src/ExchangeV2.sol:ExchangeV2",
        "label": "defaultFeeReceiver",
        "offset": 0,
        "slot": "356",
        "type": "t_address"
      },
      {
        "astId": 10600,
        "contract": "src/ExchangeV2.sol:ExchangeV2",
        "label": "feeReceivers",
        "offset": 0,
        "slot": "357",
        "type": "t_mapping(t_address,t_address)"
      },
      {
        "astId": 11405,
        "contract": "src/ExchangeV2.sol:ExchangeV2",
        "label": "__gap",
        "offset": 0,
        "slot": "358",
        "type": "t_array(t_uint256)46_storage"
      },
      {
        "astId": 9887,
        "contract": "src/ExchangeV2.sol:ExchangeV2",
        "label": "__gap",
        "offset": 0,
        "slot": "404",
        "type": "t_array(t_uint256)50_storage"
      }
    ],
    "types": {
      "t_address": {
        "encoding": "inplace",
        "label": "address",
        "numberOfBytes": "20"
      },
      "t_array(t_uint256)46_storage": {
        "base": "t_uint256",
        "encoding": "inplace",
        "label": "uint256[46]",
        "numberOfBytes": "1472"
      },
      "t_array(t_uint256)49_storage": {
        "base": "t_uint256",
        "encoding": "inplace",
        "label": "uint256[49]",
        "numberOfBytes": "1568"
      },
      "t_array(t_uint256)50_storage": {
        "base": "t_uint256",
        "encoding": "inplace",
        "label": "uint256[50]",
        "numberOfBytes": "1600"
      },
      "t_bool": {
        "encoding": "inplace",
        "label": "bool",
        "numberOfBytes": "1"
      },
      "t_bytes32": {
        "encoding": "inplace",
        "label": "bytes32",
        "numberOfBytes": "32"
      },
      "t_bytes4": {
        "encoding": "inplace",
        "label": "bytes4",
        "numberOfBytes": "4"
      },
      "t_contract(IRoyaltiesProvider)14942": {
        "encoding": "inplace",
        "label": "contract IRoyaltiesProvider",
        "numberOfBytes": "20"
      },
      "t_mapping(t_address,t_address)": {
        "encoding": "mapping",
        "key": "t_address",
        "label": "mapping(address => address)",
        "numberOfBytes": "32",
        "value": "t_address"
      },
      "t_mapping(t_bytes32,t_uint256)": {
        "encoding": "mapping",
        "key": "t_bytes32",
        "label": "mapping(bytes32 => uint256)",
        "numberOfBytes": "32",
        "value": "t_uint256"
      },
      "t_mapping(t_bytes4,t_address)": {
        "encoding": "mapping",
        "key": "t_bytes4",
        "label": "mapping(bytes4 => address)",
        "numberOfBytes": "32",
        "value": "t_address"
      },
      "t_uint256": {
        "encoding": "inplace",
        "label": "uint256",
        "numberOfBytes": "32"
      }
    }
  }
}