{
  "_format": "hh-sol-artifact-1",
  "contractName": "TestERC721",
  "sourceName": "contracts/tests/tokens/TestERC721.sol",
  "abi": [
    {
      "anonymous": false,
      "inputs": [
        {
          "indexed": true,
          "internalType": "address",
          "name": "owner",
          "type": "address"
        },
        {
          "indexed": true,
          "internalType": "address",
          "name": "approved",
          "type": "address"
        },
        {
          "indexed": true,
          "internalType": "uint256",
          "name": "tokenId",
          "type": "uint256"
        }
      ],
      "name": "Approval",
      "type": "event"
    },
    {
      "anonymous": false,
      "inputs": [
        {
          "indexed": true,
          "internalType": "address",
          "name": "owner",
          "type": "address"
        },
        {
          "indexed": true,
          "internalType": "address",
          "name": "operator",
          "type": "address"
        },
        {
          "indexed": false,
          "internalType": "bool",
          "name": "approved",
          "type": "bool"
        }
      ],
      "name": "ApprovalForAll",
      "type": "event"
    },
    {
      "anonymous": false,
      "inputs": [
        {
          "indexed": true,
          "internalType": "address",
          "name": "from",
          "type": "address"
        },
        {
          "indexed": true,
          "internalType": "address",
          "name": "to",
          "type": "address"
        },
        {
          "indexed": true,
          "internalType": "uint256",
          "name": "tokenId",
          "type": "uint256"
        }
      ],
      "name": "Transfer",
      "type": "event"
    },
    {
      "inputs": [
        {
          "internalType": "address",
          "name": "to",
          "type": "address"
        },
        {
          "internalType": "uint256",
          "name": "tokenId",
          "type": "uint256"
        }
      ],
      "name": "approve",
      "outputs": [],
      "stateMutability": "nonpayable",
      "type": "function"
    },
    {
      "inputs": [
        {
          "internalType": "address",
          "name": "owner",
          "type": "address"
        }
      ],
      "name": "balanceOf",
      "outputs": [
        {
          "internalType": "uint256",
          "name": "",
          "type": "uint256"
        }
      ],
      "stateMutability": "view",
      "type": "function"
    },
    {
      "inputs": [
        {
          "internalType": "uint256",
          "name": "tokenId",
          "type": "uint256"
        }
      ],
      "name": "getApproved",
      "outputs": [
        {
          "internalType": "address",
          "name": "",
          "type": "address"
        }
      ],
      "stateMutability": "view",
      "type": "function"
    },
    {
      "inputs": [
        {
          "internalType": "address",
          "name": "owner",
          "type": "address"
        },
        {
          "internalType": "address",
          "name": "operator",
          "type": "address"
        }
      ],
      "name": "isApprovedForAll",
      "outputs": [
        {
          "internalType": "bool",
          "name": "",
          "type": "bool"
        }
      ],
      "stateMutability": "view",
      "type": "function"
    },
    {
      "inputs": [
        {
          "internalType": "address",
          "name": "to",
          "type": "address"
        },
        {
          "internalType": "uint256",
          "name": "tokenId",
          "type": "uint256"
        }
      ],
      "name": "mint",
      "outputs": [],
      "stateMutability": "nonpayable",
      "type": "function"
    },
    {
      "inputs": [],
      "name": "name",
      "outputs": [
        {
          "internalType": "string",
          "name": "",
          "type": "string"
        }
      ],
      "stateMutability": "view",
      "type": "function"
    },
    {
      "inputs": [
        {
          "internalType": "uint256",
          "name": "tokenId",
          "type": "uint256"
        }
      ],
      "name": "ownerOf",
      "outputs": [
        {
          "internalType": "address",
          "name": "",
          "type": "address"
        }
      ],
      "stateMutability": "view",
      "type": "function"
    },
    {
      "inputs": [
        {
          "internalType": "address",
          "name": "from",
          "type": "address"
        },
        {
          "internalType": "address",
          "name": "to",
          "type": "address"
        },
        {
          "internalType": "uint256",
          "name": "tokenId",
          "type": "uint256"
        }
      ],
      "name": "safeTransferFrom",
      "outputs": [],
      "stateMutability": "nonpayable",
      "type": "function"
    },
    {
      "inputs": [
        {
          "internalType": "address",
          "name": "from",
          "type": "address"
        },
        {
          "internalType": "address",
          "name": "to",
          "type": "address"
        },
        {
          "internalType": "uint256",
          "name": "tokenId",
          "type": "uint256"
        },
        {
          "internalType": "bytes",
          "name": "_data",
          "type": "bytes"
        }
      ],
      "name": "safeTransferFrom",
      "outputs": [],
      "stateMutability": "nonpayable",
      "type": "function"
    },
    {
      "inputs": [
        {
          "internalType": "address",
          "name": "operator",
          "type": "address"
        },
        {
          "internalType": "bool",
          "name": "approved",
          "type": "bool"
        }
      ],
      "name": "setApprovalForAll",
      "outputs": [],
      "stateMutability": "nonpayable",
      "type": "function"
    },
    {
      "inputs": [
        {
          "internalType": "bytes4",
          "name": "interfaceId",
          "type": "bytes4"
        }
      ],
      "name": "supportsInterface",
      "outputs": [
        {
          "internalType": "bool",
          "name": "",
          "type": "bool"
        }
      ],
      "stateMutability": "view",
      "type": "function"
    },
    {
      "inputs": [],
      "name": "symbol",
      "outputs": [
        {
          "internalType": "string",
          "name": "",
          "type": "string"
        }
      ],
      "stateMutability": "view",
      "type": "function"
    },
    {
      "inputs": [
        {
          "internalType": "uint256",
          "name": "tokenId",
          "type": "uint256"
        }
      ],
      "name": "tokenURI",
      "outputs": [
        {
          "internalType": "string",
          "name": "",
          "type": "string"
        }
      ],
      "stateMutability": "view",
      "type": "function"
    },
    {
      "inputs": [
        {
          "internalType": "address",
          "name": "from",
          "type": "address"
        },
        {
          "internalType": "address",
          "name": "to",
          "type": "address"
        },
        {
          "internalType": "uint256",
          "name": "tokenId",
          "type": "uint256"
        }
      ],
      "name": "transferFrom",
      "outputs": [],
      "stateMutability": "nonpayable",
      "type": "function"
    }
  ],
  "bytecode": "0x608060405234801561001057600080fd5b50611466806100206000396000f3fe608060405234801561001057600080fd5b50600436106100ea5760003560e01c80636352211e1161008c578063a22cb46511610066578063a22cb465146101e1578063b88d4fde146101f4578063c87b56dd14610207578063e985e9c51461021a57600080fd5b80636352211e146101a557806370a08231146101b857806395d89b41146101d957600080fd5b8063095ea7b3116100c8578063095ea7b31461015757806323b872dd1461016c57806340c10f191461017f57806342842e0e1461019257600080fd5b806301ffc9a7146100ef57806306fdde0314610117578063081812fc1461012c575b600080fd5b6101026100fd366004611202565b610256565b60405190151581526020015b60405180910390f35b61011f6102a8565b60405161010e91906112e9565b61013f61013a36600461123a565b61033a565b6040516001600160a01b03909116815260200161010e565b61016a6101653660046111d9565b6103d4565b005b61016a61017a36600461108f565b6104ea565b61016a61018d3660046111d9565b610565565b61016a6101a036600461108f565b610573565b61013f6101b336600461123a565b61058e565b6101cb6101c6366004611043565b610605565b60405190815260200161010e565b61011f61068c565b61016a6101ef36600461119f565b61069b565b61016a6102023660046110ca565b610760565b61011f61021536600461123a565b6107e2565b61010261022836600461105d565b6001600160a01b039182166000908152606a6020908152604080832093909416825291909152205460ff1690565b60006001600160e01b031982166380ac58cd60e01b148061028757506001600160e01b03198216635b5e139f60e01b145b806102a257506301ffc9a760e01b6001600160e01b03198316145b92915050565b6060606580546102b79061136b565b80601f01602080910402602001604051908101604052809291908181526020018280546102e39061136b565b80156103305780601f1061030557610100808354040283529160200191610330565b820191906000526020600020905b81548152906001019060200180831161031357829003601f168201915b5050505050905090565b6000818152606760205260408120546001600160a01b03166103b85760405162461bcd60e51b815260206004820152602c60248201527f4552433732313a20617070726f76656420717565727920666f72206e6f6e657860448201526b34b9ba32b73a103a37b5b2b760a11b60648201526084015b60405180910390fd5b506000908152606960205260409020546001600160a01b031690565b60006103df8261058e565b9050806001600160a01b0316836001600160a01b0316141561044d5760405162461bcd60e51b815260206004820152602160248201527f4552433732313a20617070726f76616c20746f2063757272656e74206f776e656044820152603960f91b60648201526084016103af565b336001600160a01b038216148061046957506104698133610228565b6104db5760405162461bcd60e51b815260206004820152603860248201527f4552433732313a20617070726f76652063616c6c6572206973206e6f74206f7760448201527f6e6572206e6f7220617070726f76656420666f7220616c6c000000000000000060648201526084016103af565b6104e583836108d8565b505050565b6104f43382610946565b61055a5760405162461bcd60e51b815260206004820152603160248201527f4552433732313a207472616e736665722063616c6c6572206973206e6f74206f6044820152701ddb995c881b9bdc88185c1c1c9bdd9959607a1b60648201526084016103af565b6104e5838383610a3d565b61056f8282610bdd565b5050565b6104e583838360405180602001604052806000815250610760565b6000818152606760205260408120546001600160a01b0316806102a25760405162461bcd60e51b815260206004820152602960248201527f4552433732313a206f776e657220717565727920666f72206e6f6e657869737460448201526832b73a103a37b5b2b760b91b60648201526084016103af565b60006001600160a01b0382166106705760405162461bcd60e51b815260206004820152602a60248201527f4552433732313a2062616c616e636520717565727920666f7220746865207a65604482015269726f206164647265737360b01b60648201526084016103af565b506001600160a01b031660009081526068602052604090205490565b6060606680546102b79061136b565b6001600160a01b0382163314156106f45760405162461bcd60e51b815260206004820152601960248201527f4552433732313a20617070726f766520746f2063616c6c65720000000000000060448201526064016103af565b336000818152606a602090815260408083206001600160a01b03871680855290835292819020805460ff191686151590811790915590519081529192917f17307eab39ab6107e8899845ad3d59bd9653f200f220920489ca2b5937696c31910160405180910390a35050565b61076a3383610946565b6107d05760405162461bcd60e51b815260206004820152603160248201527f4552433732313a207472616e736665722063616c6c6572206973206e6f74206f6044820152701ddb995c881b9bdc88185c1c1c9bdd9959607a1b60648201526084016103af565b6107dc84848484610d1f565b50505050565b6000818152606760205260409020546060906001600160a01b031661086f5760405162461bcd60e51b815260206004820152602f60248201527f4552433732314d657461646174613a2055524920717565727920666f72206e6f60448201527f6e6578697374656e7420746f6b656e000000000000000000000000000000000060648201526084016103af565b600061088660408051602081019091526000815290565b905060008151116108a657604051806020016040528060008152506108d1565b806108b084610d9d565b6040516020016108c192919061127e565b6040516020818303038152906040525b9392505050565b600081815260696020526040902080546001600160a01b0319166001600160a01b038416908117909155819061090d8261058e565b6001600160a01b03167f8c5be1e5ebec7d5bd14f71427d1e84f3dd0314c0f7b2291e5b200ac8c7c3b92560405160405180910390a45050565b6000818152606760205260408120546001600160a01b03166109bf5760405162461bcd60e51b815260206004820152602c60248201527f4552433732313a206f70657261746f7220717565727920666f72206e6f6e657860448201526b34b9ba32b73a103a37b5b2b760a11b60648201526084016103af565b60006109ca8361058e565b9050806001600160a01b0316846001600160a01b03161480610a055750836001600160a01b03166109fa8461033a565b6001600160a01b0316145b80610a3557506001600160a01b038082166000908152606a602090815260408083209388168352929052205460ff165b949350505050565b826001600160a01b0316610a508261058e565b6001600160a01b031614610ab85760405162461bcd60e51b815260206004820152602960248201527f4552433732313a207472616e73666572206f6620746f6b656e2074686174206960448201526839903737ba1037bbb760b91b60648201526084016103af565b6001600160a01b038216610b1a5760405162461bcd60e51b8152602060048201526024808201527f4552433732313a207472616e7366657220746f20746865207a65726f206164646044820152637265737360e01b60648201526084016103af565b610b256000826108d8565b6001600160a01b0383166000908152606860205260408120805460019290610b4e908490611328565b90915550506001600160a01b0382166000908152606860205260408120805460019290610b7c9084906112fc565b909155505060008181526067602052604080822080546001600160a01b0319166001600160a01b0386811691821790925591518493918716917fddf252ad1be2c89b69c2b068fc378daa952ba7f163c4a11628f55a4df523b3ef91a4505050565b6001600160a01b038216610c335760405162461bcd60e51b815260206004820181905260248201527f4552433732313a206d696e7420746f20746865207a65726f206164647265737360448201526064016103af565b6000818152606760205260409020546001600160a01b031615610c985760405162461bcd60e51b815260206004820152601c60248201527f4552433732313a20746f6b656e20616c7265616479206d696e7465640000000060448201526064016103af565b6001600160a01b0382166000908152606860205260408120805460019290610cc19084906112fc565b909155505060008181526067602052604080822080546001600160a01b0319166001600160a01b03861690811790915590518392907fddf252ad1be2c89b69c2b068fc378daa952ba7f163c4a11628f55a4df523b3ef908290a45050565b610d2a848484610a3d565b610d3684848484610ecf565b6107dc5760405162461bcd60e51b815260206004820152603260248201527f4552433732313a207472616e7366657220746f206e6f6e20455243373231526560448201527131b2b4bb32b91034b6b83632b6b2b73a32b960711b60648201526084016103af565b606081610dc15750506040805180820190915260018152600360fc1b602082015290565b8160005b8115610deb5780610dd5816113a6565b9150610de49050600a83611314565b9150610dc5565b60008167ffffffffffffffff811115610e1457634e487b7160e01b600052604160045260246000fd5b6040519080825280601f01601f191660200182016040528015610e3e576020820181803683370190505b5090505b8415610a3557610e53600183611328565b9150610e60600a866113c1565b610e6b9060306112fc565b60f81b818381518110610e8e57634e487b7160e01b600052603260045260246000fd5b60200101907effffffffffffffffffffffffffffffffffffffffffffffffffffffffffffff1916908160001a905350610ec8600a86611314565b9450610e42565b60006001600160a01b0384163b1561101c57604051630a85bd0160e11b81526001600160a01b0385169063150b7a0290610f139033908990889088906004016112ad565b602060405180830381600087803b158015610f2d57600080fd5b505af1925050508015610f5d575060408051601f3d908101601f19168201909252610f5a9181019061121e565b60015b611002573d808015610f8b576040519150601f19603f3d011682016040523d82523d6000602084013e610f90565b606091505b508051610ffa5760405162461bcd60e51b815260206004820152603260248201527f4552433732313a207472616e7366657220746f206e6f6e20455243373231526560448201527131b2b4bb32b91034b6b83632b6b2b73a32b960711b60648201526084016103af565b805181602001fd5b6001600160e01b031916630a85bd0160e11b149050610a35565b506001949350505050565b80356001600160a01b038116811461103e57600080fd5b919050565b600060208284031215611054578081fd5b6108d182611027565b6000806040838503121561106f578081fd5b61107883611027565b915061108660208401611027565b90509250929050565b6000806000606084860312156110a3578081fd5b6110ac84611027565b92506110ba60208501611027565b9150604084013590509250925092565b600080600080608085870312156110df578081fd5b6110e885611027565b93506110f660208601611027565b925060408501359150606085013567ffffffffffffffff80821115611119578283fd5b818701915087601f83011261112c578283fd5b81358181111561113e5761113e611401565b604051601f8201601f19908116603f0116810190838211818310171561116657611166611401565b816040528281528a602084870101111561117e578586fd5b82602086016020830137918201602001949094529598949750929550505050565b600080604083850312156111b1578182fd5b6111ba83611027565b9150602083013580151581146111ce578182fd5b809150509250929050565b600080604083850312156111eb578182fd5b6111f483611027565b946020939093013593505050565b600060208284031215611213578081fd5b81356108d181611417565b60006020828403121561122f578081fd5b81516108d181611417565b60006020828403121561124b578081fd5b5035919050565b6000815180845261126a81602086016020860161133f565b601f01601f19169290920160200192915050565b6000835161129081846020880161133f565b8351908301906112a481836020880161133f565b01949350505050565b60006001600160a01b038087168352808616602084015250836040830152608060608301526112df6080830184611252565b9695505050505050565b6020815260006108d16020830184611252565b6000821982111561130f5761130f6113d5565b500190565b600082611323576113236113eb565b500490565b60008282101561133a5761133a6113d5565b500390565b60005b8381101561135a578181015183820152602001611342565b838111156107dc5750506000910152565b600181811c9082168061137f57607f821691505b602082108114156113a057634e487b7160e01b600052602260045260246000fd5b50919050565b60006000198214156113ba576113ba6113d5565b5060010190565b6000826113d0576113d06113eb565b500690565b634e487b7160e01b600052601160045260246000fd5b634e487b7160e01b600052601260045260246000fd5b634e487b7160e01b600052604160045260246000fd5b6001600160e01b03198116811461142d57600080fd5b5056fea2646970667358221220a530d9be0bdad7577fdf5594365b9741f1e22ac6bd2d57c96021947cbedf320b64736f6c63430008040033",
  "linkReferences": {},
  "deployedLinkReferences": {}
}