{
  "address": "0xC881B96b13da75ccBd35Dad5443238ae982e479b",
  "abi": [
    {
      "anonymous": false,
      "inputs": [
        {
          "indexed": false,
          "internalType": "uint8",
          "name": "version",
          "type": "uint8"
        }
      ],
      "name": "Initialized",
      "type": "event"
    },
    {
      "anonymous": false,
      "inputs": [
        {
          "indexed": true,
          "internalType": "address",
          "name": "previousOwner",
          "type": "address"
        },
        {
          "indexed": true,
          "internalType": "address",
          "name": "newOwner",
          "type": "address"
        }
      ],
      "name": "OwnershipTransferred",
      "type": "event"
    },
    {
      "inputs": [],
      "name": "__OperatorRole_init",
      "outputs": [],
      "stateMutability": "nonpayable",
      "type": "function"
    },
    {
      "inputs": [
        {
          "internalType": "address",
          "name": "operator",
          "type": "address"
        }
      ],
      "name": "addOperator",
      "outputs": [],
      "stateMutability": "nonpayable",
      "type": "function"
    },
    {
      "inputs": [
        {
          "internalType": "address",
          "name": "",
          "type": "address"
        }
      ],
      "name": "operators",
      "outputs": [
        {
          "internalType": "bool",
          "name": "",
          "type": "bool"
        }
      ],
      "stateMutability": "view",
      "type": "function"
    },
    {
      "inputs": [],
      "name": "owner",
      "outputs": [
        {
          "internalType": "address",
          "name": "",
          "type": "address"
        }
      ],
      "stateMutability": "view",
      "type": "function"
    },
    {
      "inputs": [
        {
          "internalType": "address",
          "name": "operator",
          "type": "address"
        }
      ],
      "name": "removeOperator",
      "outputs": [],
      "stateMutability": "nonpayable",
      "type": "function"
    },
    {
      "inputs": [],
      "name": "renounceOwnership",
      "outputs": [],
      "stateMutability": "nonpayable",
      "type": "function"
    },
    {
      "inputs": [
        {
          "components": [
            {
              "components": [
                {
                  "internalType": "bytes4",
                  "name": "assetClass",
                  "type": "bytes4"
                },
                {
                  "internalType": "bytes",
                  "name": "data",
                  "type": "bytes"
                }
              ],
              "internalType": "struct LibAsset.AssetType",
              "name": "assetType",
              "type": "tuple"
            },
            {
              "internalType": "uint256",
              "name": "value",
              "type": "uint256"
            }
          ],
          "internalType": "struct LibAsset.Asset",
          "name": "asset",
          "type": "tuple"
        },
        {
          "internalType": "address",
          "name": "from",
          "type": "address"
        },
        {
          "internalType": "address",
          "name": "to",
          "type": "address"
        }
      ],
      "name": "transfer",
      "outputs": [],
      "stateMutability": "nonpayable",
      "type": "function"
    },
    {
      "inputs": [
        {
          "internalType": "address",
          "name": "newOwner",
          "type": "address"
        }
      ],
      "name": "transferOwnership",
      "outputs": [],
      "stateMutability": "nonpayable",
      "type": "function"
    }
  ],
  "transactionHash": "0xea50eb3b764805d231d1b05598216ac3286e07368b37883a6c38c40a14fda303",
  "args": [],
  "numDeployments": 1,
  "solcInputHash": "2e1631ab269086387667f91d00ac6cf6",
  "bytecode": "0x608060405234801561001057600080fd5b50610b38806100206000396000f3fe608060405234801561001057600080fd5b50600436106100785760003560e01c806313e7c9d81461007d5780632ff26a0a146100b557806354bc0cf1146100bf578063715018a6146100d25780638da5cb5b146100da5780639870d7fe146100f5578063ac8a584a14610108578063f2fde38b1461011b575b600080fd5b6100a061008b366004610555565b60656020526000908152604090205460ff1681565b60405190151581526020015b60405180910390f35b6100bd61012e565b005b6100bd6100cd366004610630565b61024c565b6100bd61034e565b6033546040516001600160a01b0390911681526020016100ac565b6100bd610103366004610555565b610362565b6100bd610116366004610555565b61038e565b6100bd610129366004610555565b6103b7565b600054610100900460ff161580801561014e5750600054600160ff909116105b806101685750303b158015610168575060005460ff166001145b6101d05760405162461bcd60e51b815260206004820152602e60248201527f496e697469616c697a61626c653a20636f6e747261637420697320616c72656160448201526d191e481a5b9a5d1a585b1a5e995960921b60648201526084015b60405180910390fd5b6000805460ff1916600117905580156101f3576000805461ff0019166101001790555b6101fb61042d565b610203610454565b8015610249576000805461ff0019169055604051600181527f7f26b83ff96e1f2b6a682f133852f6798a09c465da95921460cefb38474024989060200160405180910390a15b50565b3360009081526065602052604090205460ff166102bc5760405162461bcd60e51b815260206004820152602860248201527f4f70657261746f72526f6c653a2063616c6c6572206973206e6f74207468652060448201526737b832b930ba37b960c11b60648201526084016101c7565b6000808460000151602001518060200190518101906102db91906108a0565b91509150816001600160a01b031663dc144b8782868689602001516040518563ffffffff1660e01b815260040161031594939291906109bb565b600060405180830381600087803b15801561032f57600080fd5b505af1158015610343573d6000803e3d6000fd5b505050505050505050565b610356610484565b61036060006104de565b565b61036a610484565b6001600160a01b03166000908152606560205260409020805460ff19166001179055565b610396610484565b6001600160a01b03166000908152606560205260409020805460ff19169055565b6103bf610484565b6001600160a01b0381166104245760405162461bcd60e51b815260206004820152602660248201527f4f776e61626c653a206e6577206f776e657220697320746865207a65726f206160448201526564647265737360d01b60648201526084016101c7565b610249816104de565b600054610100900460ff166103605760405162461bcd60e51b81526004016101c790610ab7565b600054610100900460ff1661047b5760405162461bcd60e51b81526004016101c790610ab7565b610360336104de565b6033546001600160a01b031633146103605760405162461bcd60e51b815260206004820181905260248201527f4f776e61626c653a2063616c6c6572206973206e6f7420746865206f776e657260448201526064016101c7565b603380546001600160a01b038381166001600160a01b0319831681179093556040519116919082907f8be0079c531659141344cd1fd0a4f28419497f9722a3daafe3b4186f6b6457e090600090a35050565b6001600160a01b038116811461024957600080fd5b803561055081610530565b919050565b60006020828403121561056757600080fd5b813561057281610530565b9392505050565b634e487b7160e01b600052604160045260246000fd5b604080519081016001600160401b03811182821017156105b1576105b1610579565b60405290565b60405160c081016001600160401b03811182821017156105b1576105b1610579565b604051601f8201601f191681016001600160401b038111828210171561060157610601610579565b604052919050565b60006001600160401b0382111561062257610622610579565b50601f01601f191660200190565b60008060006060848603121561064557600080fd5b83356001600160401b038082111561065c57600080fd5b908501906040828803121561067057600080fd5b61067861058f565b82358281111561068757600080fd5b83016040818a03121561069957600080fd5b6106a161058f565b81356001600160e01b0319811681146106b957600080fd5b8152602082810135858111156106ce57600080fd5b83019450601f85018b136106e157600080fd5b843592506106f66106f184610609565b6105d9565b8381528b8285880101111561070a57600080fd5b838287018383013760008285830101528082840152508184528086013581850152839850610739818b01610545565b975050505050505061074d60408501610545565b90509250925092565b60005b83811015610771578181015183820152602001610759565b83811115610780576000848401525b50505050565b600082601f83011261079757600080fd5b81516107a56106f182610609565b8181528460208386010111156107ba57600080fd5b6107cb826020830160208701610756565b949350505050565b805161055081610530565b600082601f8301126107ef57600080fd5b815160206001600160401b0382111561080a5761080a610579565b610818818360051b016105d9565b82815260069290921b8401810191818101908684111561083757600080fd5b8286015b8481101561089557604081890312156108545760008081fd5b61085c61058f565b815161086781610530565b8152818501516001600160601b03811681146108835760008081fd5b8186015283529183019160400161083b565b509695505050505050565b600080604083850312156108b357600080fd5b82516108be81610530565b60208401519092506001600160401b03808211156108db57600080fd5b9084019060c082870312156108ef57600080fd5b6108f76105b7565b8251815260208301518281111561090d57600080fd5b61091988828601610786565b60208301525060408301516040820152610935606084016107d3565b606082015260808301518281111561094c57600080fd5b610958888286016107de565b60808301525060a08301518281111561097057600080fd5b61097c88828601610786565b60a0830152508093505050509250929050565b600081518084526109a7816020860160208601610756565b601f01601f19169290920160200192915050565b6080815284516080820152600060208087015160c060a08501526109e361014085018261098f565b60408981015160c087015260608a01516001600160a01b0390811660e088015260808b0151878403607f199081016101008a015281518086529187019550929360009391908701905b80851015610a605786518051851683528801516001600160601b031688830152958701956001949094019390850190610a2c565b5060a08d0151955081898203016101208a0152610a7d818761098f565b975050505050610a97838601896001600160a01b03169052565b6001600160a01b0387168582015250505082606083015295945050505050565b6020808252602b908201527f496e697469616c697a61626c653a20636f6e7472616374206973206e6f74206960408201526a6e697469616c697a696e6760a81b60608201526080019056fea26469706673582212200e933e60dad698256bfbbe103b99899fdaadadb6f637560b3792c3f1a0239d3564736f6c63430008090033",
  "devdoc": {
    "kind": "dev",
    "methods": {
      "owner()": {
        "details": "Returns the address of the current owner."
      },
      "renounceOwnership()": {
        "details": "Leaves the contract without owner. It will not be possible to call `onlyOwner` functions anymore. Can only be called by the current owner. NOTE: Renouncing ownership will leave the contract without an owner, thereby removing any functionality that is only available to the owner."
      },
      "transfer(((bytes4,bytes),uint256),address,address)": {
        "params": {
          "asset": "asset to transfer",
          "from": "address to transfer from",
          "to": "address to transfer to"
        }
      },
      "transferOwnership(address)": {
        "details": "Transfers ownership of the contract to a new account (`newOwner`). Can only be called by the current owner."
      }
    },
    "version": 1
  },
  "userdoc": {
    "kind": "user",
    "methods": {
      "transfer(((bytes4,bytes),uint256),address,address)": {
        "notice": "Transfer method for ERC1155 lazy minted nft"
      }
    },
    "notice": "ERC1155 Lazy Mint Transfer Proxy Contract",
    "version": 1
  },
  "storageLayout": {
    "storage": [
      {
        "astId": 721,
        "contract": "src/transfer-proxy/ERC1155LazyMintTransferProxy.sol:ERC1155LazyMintTransferProxy",
        "label": "_initialized",
        "offset": 0,
        "slot": "0",
        "type": "t_uint8"
      },
      {
        "astId": 724,
        "contract": "src/transfer-proxy/ERC1155LazyMintTransferProxy.sol:ERC1155LazyMintTransferProxy",
        "label": "_initializing",
        "offset": 1,
        "slot": "0",
        "type": "t_bool"
      },
      {
        "astId": 4842,
        "contract": "src/transfer-proxy/ERC1155LazyMintTransferProxy.sol:ERC1155LazyMintTransferProxy",
        "label": "__gap",
        "offset": 0,
        "slot": "1",
        "type": "t_array(t_uint256)50_storage"
      },
      {
        "astId": 593,
        "contract": "src/transfer-proxy/ERC1155LazyMintTransferProxy.sol:ERC1155LazyMintTransferProxy",
        "label": "_owner",
        "offset": 0,
        "slot": "51",
        "type": "t_address"
      },
      {
        "astId": 713,
        "contract": "src/transfer-proxy/ERC1155LazyMintTransferProxy.sol:ERC1155LazyMintTransferProxy",
        "label": "__gap",
        "offset": 0,
        "slot": "52",
        "type": "t_array(t_uint256)49_storage"
      },
      {
        "astId": 29246,
        "contract": "src/transfer-proxy/ERC1155LazyMintTransferProxy.sol:ERC1155LazyMintTransferProxy",
        "label": "operators",
        "offset": 0,
        "slot": "101",
        "type": "t_mapping(t_address,t_bool)"
      }
    ],
    "types": {
      "t_address": {
        "encoding": "inplace",
        "label": "address",
        "numberOfBytes": "20"
      },
      "t_array(t_uint256)49_storage": {
        "base": "t_uint256",
        "encoding": "inplace",
        "label": "uint256[49]",
        "numberOfBytes": "1568"
      },
      "t_array(t_uint256)50_storage": {
        "base": "t_uint256",
        "encoding": "inplace",
        "label": "uint256[50]",
        "numberOfBytes": "1600"
      },
      "t_bool": {
        "encoding": "inplace",
        "label": "bool",
        "numberOfBytes": "1"
      },
      "t_mapping(t_address,t_bool)": {
        "encoding": "mapping",
        "key": "t_address",
        "label": "mapping(address => bool)",
        "numberOfBytes": "32",
        "value": "t_bool"
      },
      "t_uint256": {
        "encoding": "inplace",
        "label": "uint256",
        "numberOfBytes": "32"
      },
      "t_uint8": {
        "encoding": "inplace",
        "label": "uint8",
        "numberOfBytes": "1"
      }
    }
  }
}