{
  "address": "0x92682fE7884a63e6EB91458E06382fE195823177",
  "abi": [
    {
      "anonymous": false,
      "inputs": [
        {
          "indexed": false,
          "internalType": "uint8",
          "name": "version",
          "type": "uint8"
        }
      ],
      "name": "Initialized",
      "type": "event"
    },
    {
      "anonymous": false,
      "inputs": [
        {
          "indexed": true,
          "internalType": "bytes4",
          "name": "assetType",
          "type": "bytes4"
        },
        {
          "indexed": false,
          "internalType": "address",
          "name": "matcher",
          "type": "address"
        }
      ],
      "name": "MatcherChange",
      "type": "event"
    },
    {
      "anonymous": false,
      "inputs": [
        {
          "indexed": true,
          "internalType": "bytes32",
          "name": "hash",
          "type": "bytes32"
        },
        {
          "indexed": true,
          "internalType": "address",
          "name": "maker",
          "type": "address"
        },
        {
          "components": [
            {
              "internalType": "bytes4",
              "name": "assetClass",
              "type": "bytes4"
            },
            {
              "internalType": "bytes",
              "name": "data",
              "type": "bytes"
            }
          ],
          "indexed": false,
          "internalType": "struct LibAsset.AssetType",
          "name": "makeAssetType",
          "type": "tuple"
        },
        {
          "components": [
            {
              "internalType": "bytes4",
              "name": "assetClass",
              "type": "bytes4"
            },
            {
              "internalType": "bytes",
              "name": "data",
              "type": "bytes"
            }
          ],
          "indexed": false,
          "internalType": "struct LibAsset.AssetType",
          "name": "takeAssetType",
          "type": "tuple"
        }
      ],
      "name": "OrderCancelled",
      "type": "event"
    },
    {
      "anonymous": false,
      "inputs": [
        {
          "indexed": true,
          "internalType": "bytes32",
          "name": "leftHash",
          "type": "bytes32"
        },
        {
          "indexed": true,
          "internalType": "bytes32",
          "name": "rightHash",
          "type": "bytes32"
        },
        {
          "indexed": true,
          "internalType": "address",
          "name": "leftMaker",
          "type": "address"
        },
        {
          "indexed": false,
          "internalType": "address",
          "name": "rightMaker",
          "type": "address"
        },
        {
          "indexed": false,
          "internalType": "uint256",
          "name": "newLeftFill",
          "type": "uint256"
        },
        {
          "indexed": false,
          "internalType": "uint256",
          "name": "newRightFill",
          "type": "uint256"
        },
        {
          "components": [
            {
              "internalType": "bytes4",
              "name": "assetClass",
              "type": "bytes4"
            },
            {
              "internalType": "bytes",
              "name": "data",
              "type": "bytes"
            }
          ],
          "indexed": false,
          "internalType": "struct LibAsset.AssetType",
          "name": "leftAsset",
          "type": "tuple"
        },
        {
          "components": [
            {
              "internalType": "bytes4",
              "name": "assetClass",
              "type": "bytes4"
            },
            {
              "internalType": "bytes",
              "name": "data",
              "type": "bytes"
            }
          ],
          "indexed": false,
          "internalType": "struct LibAsset.AssetType",
          "name": "rightAsset",
          "type": "tuple"
        }
      ],
      "name": "OrderFilled",
      "type": "event"
    },
    {
      "anonymous": false,
      "inputs": [
        {
          "indexed": true,
          "internalType": "address",
          "name": "previousOwner",
          "type": "address"
        },
        {
          "indexed": true,
          "internalType": "address",
          "name": "newOwner",
          "type": "address"
        }
      ],
      "name": "OwnershipTransferred",
      "type": "event"
    },
    {
      "anonymous": false,
      "inputs": [
        {
          "indexed": true,
          "internalType": "bytes4",
          "name": "assetType",
          "type": "bytes4"
        },
        {
          "indexed": false,
          "internalType": "address",
          "name": "proxy",
          "type": "address"
        }
      ],
      "name": "ProxyChange",
      "type": "event"
    },
    {
      "inputs": [
        {
          "internalType": "address",
          "name": "_transferProxy",
          "type": "address"
        },
        {
          "internalType": "address",
          "name": "_erc20TransferProxy",
          "type": "address"
        },
        {
          "internalType": "uint256",
          "name": "newProtocolFee",
          "type": "uint256"
        },
        {
          "internalType": "address",
          "name": "newDefaultFeeReceiver",
          "type": "address"
        },
        {
          "internalType": "contract IRoyaltiesProvider",
          "name": "newRoyaltiesProvider",
          "type": "address"
        }
      ],
      "name": "__ExchangeV2_init",
      "outputs": [],
      "stateMutability": "nonpayable",
      "type": "function"
    },
    {
      "inputs": [
        {
          "components": [
            {
              "internalType": "address",
              "name": "maker",
              "type": "address"
            },
            {
              "components": [
                {
                  "components": [
                    {
                      "internalType": "bytes4",
                      "name": "assetClass",
                      "type": "bytes4"
                    },
                    {
                      "internalType": "bytes",
                      "name": "data",
                      "type": "bytes"
                    }
                  ],
                  "internalType": "struct LibAsset.AssetType",
                  "name": "assetType",
                  "type": "tuple"
                },
                {
                  "internalType": "uint256",
                  "name": "value",
                  "type": "uint256"
                }
              ],
              "internalType": "struct LibAsset.Asset",
              "name": "makeAsset",
              "type": "tuple"
            },
            {
              "internalType": "address",
              "name": "taker",
              "type": "address"
            },
            {
              "components": [
                {
                  "components": [
                    {
                      "internalType": "bytes4",
                      "name": "assetClass",
                      "type": "bytes4"
                    },
                    {
                      "internalType": "bytes",
                      "name": "data",
                      "type": "bytes"
                    }
                  ],
                  "internalType": "struct LibAsset.AssetType",
                  "name": "assetType",
                  "type": "tuple"
                },
                {
                  "internalType": "uint256",
                  "name": "value",
                  "type": "uint256"
                }
              ],
              "internalType": "struct LibAsset.Asset",
              "name": "takeAsset",
              "type": "tuple"
            },
            {
              "internalType": "uint256",
              "name": "salt",
              "type": "uint256"
            },
            {
              "internalType": "uint256",
              "name": "start",
              "type": "uint256"
            },
            {
              "internalType": "uint256",
              "name": "end",
              "type": "uint256"
            },
            {
              "internalType": "bytes4",
              "name": "dataType",
              "type": "bytes4"
            },
            {
              "internalType": "bytes",
              "name": "data",
              "type": "bytes"
            }
          ],
          "internalType": "struct LibOrder.Order[]",
          "name": "orders",
          "type": "tuple[]"
        }
      ],
      "name": "bulkCancelOrders",
      "outputs": [],
      "stateMutability": "nonpayable",
      "type": "function"
    },
    {
      "inputs": [
        {
          "components": [
            {
              "internalType": "address",
              "name": "maker",
              "type": "address"
            },
            {
              "components": [
                {
                  "components": [
                    {
                      "internalType": "bytes4",
                      "name": "assetClass",
                      "type": "bytes4"
                    },
                    {
                      "internalType": "bytes",
                      "name": "data",
                      "type": "bytes"
                    }
                  ],
                  "internalType": "struct LibAsset.AssetType",
                  "name": "assetType",
                  "type": "tuple"
                },
                {
                  "internalType": "uint256",
                  "name": "value",
                  "type": "uint256"
                }
              ],
              "internalType": "struct LibAsset.Asset",
              "name": "makeAsset",
              "type": "tuple"
            },
            {
              "internalType": "address",
              "name": "taker",
              "type": "address"
            },
            {
              "components": [
                {
                  "components": [
                    {
                      "internalType": "bytes4",
                      "name": "assetClass",
                      "type": "bytes4"
                    },
                    {
                      "internalType": "bytes",
                      "name": "data",
                      "type": "bytes"
                    }
                  ],
                  "internalType": "struct LibAsset.AssetType",
                  "name": "assetType",
                  "type": "tuple"
                },
                {
                  "internalType": "uint256",
                  "name": "value",
                  "type": "uint256"
                }
              ],
              "internalType": "struct LibAsset.Asset",
              "name": "takeAsset",
              "type": "tuple"
            },
            {
              "internalType": "uint256",
              "name": "salt",
              "type": "uint256"
            },
            {
              "internalType": "uint256",
              "name": "start",
              "type": "uint256"
            },
            {
              "internalType": "uint256",
              "name": "end",
              "type": "uint256"
            },
            {
              "internalType": "bytes4",
              "name": "dataType",
              "type": "bytes4"
            },
            {
              "internalType": "bytes",
              "name": "data",
              "type": "bytes"
            }
          ],
          "internalType": "struct LibOrder.Order",
          "name": "order",
          "type": "tuple"
        }
      ],
      "name": "cancel",
      "outputs": [],
      "stateMutability": "nonpayable",
      "type": "function"
    },
    {
      "inputs": [
        {
          "components": [
            {
              "internalType": "address",
              "name": "bidMaker",
              "type": "address"
            },
            {
              "internalType": "uint256",
              "name": "bidNftAmount",
              "type": "uint256"
            },
            {
              "internalType": "bytes4",
              "name": "nftAssetClass",
              "type": "bytes4"
            },
            {
              "internalType": "bytes",
              "name": "nftData",
              "type": "bytes"
            },
            {
              "internalType": "uint256",
              "name": "bidPaymentAmount",
              "type": "uint256"
            },
            {
              "internalType": "address",
              "name": "paymentToken",
              "type": "address"
            },
            {
              "internalType": "uint256",
              "name": "bidSalt",
              "type": "uint256"
            },
            {
              "internalType": "uint256",
              "name": "bidStart",
              "type": "uint256"
            },
            {
              "internalType": "uint256",
              "name": "bidEnd",
              "type": "uint256"
            },
            {
              "internalType": "bytes4",
              "name": "bidDataType",
              "type": "bytes4"
            },
            {
              "internalType": "bytes",
              "name": "bidData",
              "type": "bytes"
            },
            {
              "internalType": "bytes",
              "name": "bidSignature",
              "type": "bytes"
            },
            {
              "internalType": "uint256",
              "name": "sellOrderPaymentAmount",
              "type": "uint256"
            },
            {
              "internalType": "uint256",
              "name": "sellOrderNftAmount",
              "type": "uint256"
            },
            {
              "internalType": "bytes",
              "name": "sellOrderData",
              "type": "bytes"
            }
          ],
          "internalType": "struct LibDirectTransfer.AcceptBid",
          "name": "direct",
          "type": "tuple"
        }
      ],
      "name": "directAcceptBid",
      "outputs": [],
      "stateMutability": "payable",
      "type": "function"
    },
    {
      "inputs": [
        {
          "components": [
            {
              "internalType": "address",
              "name": "sellOrderMaker",
              "type": "address"
            },
            {
              "internalType": "uint256",
              "name": "sellOrderNftAmount",
              "type": "uint256"
            },
            {
              "internalType": "bytes4",
              "name": "nftAssetClass",
              "type": "bytes4"
            },
            {
              "internalType": "bytes",
              "name": "nftData",
              "type": "bytes"
            },
            {
              "internalType": "uint256",
              "name": "sellOrderPaymentAmount",
              "type": "uint256"
            },
            {
              "internalType": "address",
              "name": "paymentToken",
              "type": "address"
            },
            {
              "internalType": "uint256",
              "name": "sellOrderSalt",
              "type": "uint256"
            },
            {
              "internalType": "uint256",
              "name": "sellOrderStart",
              "type": "uint256"
            },
            {
              "internalType": "uint256",
              "name": "sellOrderEnd",
              "type": "uint256"
            },
            {
              "internalType": "bytes4",
              "name": "sellOrderDataType",
              "type": "bytes4"
            },
            {
              "internalType": "bytes",
              "name": "sellOrderData",
              "type": "bytes"
            },
            {
              "internalType": "bytes",
              "name": "sellOrderSignature",
              "type": "bytes"
            },
            {
              "internalType": "uint256",
              "name": "buyOrderPaymentAmount",
              "type": "uint256"
            },
            {
              "internalType": "uint256",
              "name": "buyOrderNftAmount",
              "type": "uint256"
            },
            {
              "internalType": "bytes",
              "name": "buyOrderData",
              "type": "bytes"
            }
          ],
          "internalType": "struct LibDirectTransfer.Purchase",
          "name": "direct",
          "type": "tuple"
        }
      ],
      "name": "directPurchase",
      "outputs": [],
      "stateMutability": "payable",
      "type": "function"
    },
    {
      "inputs": [
        {
          "internalType": "bytes32",
          "name": "",
          "type": "bytes32"
        }
      ],
      "name": "fills",
      "outputs": [
        {
          "internalType": "uint256",
          "name": "",
          "type": "uint256"
        }
      ],
      "stateMutability": "view",
      "type": "function"
    },
    {
      "inputs": [
        {
          "components": [
            {
              "internalType": "address",
              "name": "maker",
              "type": "address"
            },
            {
              "components": [
                {
                  "components": [
                    {
                      "internalType": "bytes4",
                      "name": "assetClass",
                      "type": "bytes4"
                    },
                    {
                      "internalType": "bytes",
                      "name": "data",
                      "type": "bytes"
                    }
                  ],
                  "internalType": "struct LibAsset.AssetType",
                  "name": "assetType",
                  "type": "tuple"
                },
                {
                  "internalType": "uint256",
                  "name": "value",
                  "type": "uint256"
                }
              ],
              "internalType": "struct LibAsset.Asset",
              "name": "makeAsset",
              "type": "tuple"
            },
            {
              "internalType": "address",
              "name": "taker",
              "type": "address"
            },
            {
              "components": [
                {
                  "components": [
                    {
                      "internalType": "bytes4",
                      "name": "assetClass",
                      "type": "bytes4"
                    },
                    {
                      "internalType": "bytes",
                      "name": "data",
                      "type": "bytes"
                    }
                  ],
                  "internalType": "struct LibAsset.AssetType",
                  "name": "assetType",
                  "type": "tuple"
                },
                {
                  "internalType": "uint256",
                  "name": "value",
                  "type": "uint256"
                }
              ],
              "internalType": "struct LibAsset.Asset",
              "name": "takeAsset",
              "type": "tuple"
            },
            {
              "internalType": "uint256",
              "name": "salt",
              "type": "uint256"
            },
            {
              "internalType": "uint256",
              "name": "start",
              "type": "uint256"
            },
            {
              "internalType": "uint256",
              "name": "end",
              "type": "uint256"
            },
            {
              "internalType": "bytes4",
              "name": "dataType",
              "type": "bytes4"
            },
            {
              "internalType": "bytes",
              "name": "data",
              "type": "bytes"
            }
          ],
          "internalType": "struct LibOrder.Order",
          "name": "orderLeft",
          "type": "tuple"
        },
        {
          "internalType": "bytes",
          "name": "signatureLeft",
          "type": "bytes"
        },
        {
          "components": [
            {
              "internalType": "address",
              "name": "maker",
              "type": "address"
            },
            {
              "components": [
                {
                  "components": [
                    {
                      "internalType": "bytes4",
                      "name": "assetClass",
                      "type": "bytes4"
                    },
                    {
                      "internalType": "bytes",
                      "name": "data",
                      "type": "bytes"
                    }
                  ],
                  "internalType": "struct LibAsset.AssetType",
                  "name": "assetType",
                  "type": "tuple"
                },
                {
                  "internalType": "uint256",
                  "name": "value",
                  "type": "uint256"
                }
              ],
              "internalType": "struct LibAsset.Asset",
              "name": "makeAsset",
              "type": "tuple"
            },
            {
              "internalType": "address",
              "name": "taker",
              "type": "address"
            },
            {
              "components": [
                {
                  "components": [
                    {
                      "internalType": "bytes4",
                      "name": "assetClass",
                      "type": "bytes4"
                    },
                    {
                      "internalType": "bytes",
                      "name": "data",
                      "type": "bytes"
                    }
                  ],
                  "internalType": "struct LibAsset.AssetType",
                  "name": "assetType",
                  "type": "tuple"
                },
                {
                  "internalType": "uint256",
                  "name": "value",
                  "type": "uint256"
                }
              ],
              "internalType": "struct LibAsset.Asset",
              "name": "takeAsset",
              "type": "tuple"
            },
            {
              "internalType": "uint256",
              "name": "salt",
              "type": "uint256"
            },
            {
              "internalType": "uint256",
              "name": "start",
              "type": "uint256"
            },
            {
              "internalType": "uint256",
              "name": "end",
              "type": "uint256"
            },
            {
              "internalType": "bytes4",
              "name": "dataType",
              "type": "bytes4"
            },
            {
              "internalType": "bytes",
              "name": "data",
              "type": "bytes"
            }
          ],
          "internalType": "struct LibOrder.Order",
          "name": "orderRight",
          "type": "tuple"
        },
        {
          "internalType": "bytes",
          "name": "signatureRight",
          "type": "bytes"
        }
      ],
      "name": "matchOrders",
      "outputs": [],
      "stateMutability": "payable",
      "type": "function"
    },
    {
      "inputs": [],
      "name": "owner",
      "outputs": [
        {
          "internalType": "address",
          "name": "",
          "type": "address"
        }
      ],
      "stateMutability": "view",
      "type": "function"
    },
    {
      "inputs": [],
      "name": "renounceOwnership",
      "outputs": [],
      "stateMutability": "nonpayable",
      "type": "function"
    },
    {
      "inputs": [],
      "name": "royaltiesRegistry",
      "outputs": [
        {
          "internalType": "contract IRoyaltiesProvider",
          "name": "",
          "type": "address"
        }
      ],
      "stateMutability": "view",
      "type": "function"
    },
    {
      "inputs": [
        {
          "internalType": "bytes4",
          "name": "assetType",
          "type": "bytes4"
        },
        {
          "internalType": "address",
          "name": "matcher",
          "type": "address"
        }
      ],
      "name": "setAssetMatcher",
      "outputs": [],
      "stateMutability": "nonpayable",
      "type": "function"
    },
    {
      "inputs": [
        {
          "internalType": "contract IRoyaltiesProvider",
          "name": "newRoyaltiesRegistry",
          "type": "address"
        }
      ],
      "name": "setRoyaltiesRegistry",
      "outputs": [],
      "stateMutability": "nonpayable",
      "type": "function"
    },
    {
      "inputs": [
        {
          "internalType": "bytes4",
          "name": "assetType",
          "type": "bytes4"
        },
        {
          "internalType": "address",
          "name": "proxy",
          "type": "address"
        }
      ],
      "name": "setTransferProxy",
      "outputs": [],
      "stateMutability": "nonpayable",
      "type": "function"
    },
    {
      "inputs": [
        {
          "internalType": "address",
          "name": "newOwner",
          "type": "address"
        }
      ],
      "name": "transferOwnership",
      "outputs": [],
      "stateMutability": "nonpayable",
      "type": "function"
    }
  ],
  "transactionHash": "0x0b237698fa219cb5dd2eeedc607609785a9904b93e4f1ee4b169bb1c6eb35737",
  "args": [],
  "numDeployments": 1,
  "solcInputHash": "b409e2163f540739a526753a3a6c5675",
  "bytecode": "0x608060405234801561001057600080fd5b50615367806100206000396000f3fe6080604052600436106100bd5760003560e01c8063715018a61161006f578063715018a6146101b95780638da5cb5b146101ce578063b39deb46146101ec578063da50b65b1461020c578063e2864fe31461022c578063e99a3f801461024c578063f2fde38b1461025f57600080fd5b80630d5f7d35146100c25780631372a625146100d757806320158c44146100f757806330c642f1146101385780633be899221461015857806367d49a3b146101785780636d8f06941461018b575b600080fd5b6100d56100d0366004614217565b61027f565b005b3480156100e357600080fd5b506100d56100f236600461426b565b6105a4565b34801561010357600080fd5b506101256101123660046142d3565b6101306020526000908152604090205481565b6040519081526020015b60405180910390f35b34801561014457600080fd5b506100d561015336600461430d565b61072b565b34801561016457600080fd5b506100d5610173366004614346565b6107a1565b6100d5610186366004614217565b6107cc565b34801561019757600080fd5b50610163546101ac906001600160a01b031681565b60405161012f9190614363565b3480156101c557600080fd5b506100d5610aaf565b3480156101da57600080fd5b506033546001600160a01b03166101ac565b3480156101f857600080fd5b506100d561020736600461430d565b610ac3565b34801561021857600080fd5b506100d5610227366004614669565b610b2d565b34801561023857600080fd5b506100d5610247366004614719565b610cc2565b6100d561025a36600461474d565b610d92565b34801561026b57600080fd5b506100d561027a366004614346565b610da8565b600061029961029460c0840160a08501614346565b610e21565b604080516101208101909152909150600090806102b96020860186614346565b6001600160a01b03168152602001604051806040016040528060405180604001604052808860400160208101906102f091906147f9565b6001600160e01b031916815260200161030c60608a018a614816565b8080601f0160208091040260200160405190810160405280939291908181526020018383808284376000920182905250939094525050918352506020888101359281019290925291835282810191909152604080518082018252868152608080890135938201939093529083015260c080870135606084015260e08701359183019190915261010086013560a0830152016103af610140860161012087016147f9565b6001600160e01b03191681526020016103cc610140860186614816565b8080601f01602080910402602001604051908101604052809392919081815260200183838082843760009201829052509390945250506040805161012081018252828152815180830183528781526101808901356020828101919091528201528082018390528151608081018352949550919391925060608084019291829182820191829161046091908c01908c016147f9565b6001600160e01b031916815260200161047c60608b018b614816565b8080601f0160208091040260200160405190810160405280939291908181526020018383808284376000920182905250939094525050918352506101a089013560209283015291835282018190526040820181905260608201526080016104f36104ee610140880161012089016147f9565b610e9f565b6001600160e01b03191681526020016105106101c0870187614816565b8080601f016020809104026020016040519081016040528093929190818152602001838380828437600092019190915250505091525090506105948261055a610160870187614816565b8080601f016020809104026020016040519081016040528093929190818152602001838380828437600092019190915250610f2592505050565b61059e8282610f3c565b50505050565b600054610100900460ff16158080156105c45750600054600160ff909116105b806105de5750303b1580156105de575060005460ff166001145b6106035760405162461bcd60e51b81526004016105fa9061485c565b60405180910390fd5b6000805460ff191660011790558015610626576000805461ff0019166101001790555b61062e611254565b61063661127b565b60976020527f4532fa16f071d6234e30e1a1e69b9806f04095edf37a1ca7a25c8d6af7861cc080546001600160a01b038781166001600160a01b0319928316179092557f30a684095c937b5aa064dcf94f9903a7d808e3efb22d8389dbd43080ad4ed3d580549289169282168317905563025ceed960e61b6000527f4b5822151ea34b7c8d9e37c3e466bcecb631efe6a9f26a4a4054110a93dd316f805490911690911790556106e78484846112ab565b6106ef611395565b8015610723576000805461ff0019169055604051600181526000805160206153128339815191529060200160405180910390a15b505050505050565b61073361148a565b6001600160e01b031982166000818152609760205260409081902080546001600160a01b0319166001600160a01b038516179055517f4b5aced933c0c9a88aeac3f0b3b72c5aaf75df8ebaf53225773248c4c315359390610795908490614363565b60405180910390a25050565b6107a961148a565b61016380546001600160a01b0319166001600160a01b0392909216919091179055565b60006107e161029460c0840160a08501614346565b604080516101208101909152909150600090806108016020860186614346565b6001600160a01b0316815260200160405180604001604052808581526020018660800135815250815260200160006001600160a01b031681526020016040518060400160405280604051806040016040528088604001602081019061086691906147f9565b6001600160e01b031916815260200161088260608a018a614816565b8080601f016020809104026020016040519081016040528093929190818152602001838380828437600092019190915250505091525081526020878101359181019190915290825260c08601359082015260e0850135604082015261010085013560608201526080016108fd610140860161012087016147f9565b6001600160e01b031916815260200161091a610140860186614816565b8080601f0160208091040260200160405190810160405280939291908181526020018383808284376000920182905250939094525050604080516101208101825282815281516080810183529495509193919250602083019190819081810190819061098c9060608c01908c016147f9565b6001600160e01b03191681526020016109a860608b018b614816565b8080601f0160208091040260200160405190810160405280939291908181526020018383808284376000920182905250939094525050918352506101a08901356020928301529183528281018290526040805180820182528881526101808a013592810192909252830152606082018190526080820181905260a082015260c001610a3e6104ee610140880161012089016147f9565b6001600160e01b0319168152602001610a5b6101c0870187614816565b8080601f01602080910402602001604051908101604052809392919081815260200183838082843760009201919091525050509152509050610aa58261055a610160870187614816565b61059e8183610f3c565b610ab761148a565b610ac160006114e4565b565b610acb61148a565b6001600160e01b031982166000818152606560205260409081902080546001600160a01b0319166001600160a01b038516179055517fd2bf91075f105d0fd80328da28e20ebdad1c1261839711183bc29a44cbe6c72f90610795908490614363565b805160005b81811015610cbd57828181518110610b4c57610b4c6148aa565b6020026020010151600001516001600160a01b0316610b683390565b6001600160a01b031614610b8e5760405162461bcd60e51b81526004016105fa906148c0565b828181518110610ba057610ba06148aa565b60200260200101516080015160001415610bcc5760405162461bcd60e51b81526004016105fa906148e5565b6000610bf0848381518110610be357610be36148aa565b6020026020010151611536565b60008181526101306020526040902060001990558451909150849083908110610c1b57610c1b6148aa565b6020026020010151600001516001600160a01b0316817f3efcb3b1a04ad7dd3e6b6ca2d108352be1f3a9d4f0a30d2877483f9d33e37bb6868581518110610c6457610c646148aa565b60200260200101516020015160000151878681518110610c8657610c866148aa565b60200260200101516060015160000151604051610ca4929190614993565b60405180910390a350610cb6816149ce565b9050610b32565b505050565b80516001600160a01b0316336001600160a01b031614610cf45760405162461bcd60e51b81526004016105fa906148c0565b6080810151610d155760405162461bcd60e51b81526004016105fa906148e5565b6000610d2082611536565b6000818152610130602090815260409182902060001990558451908501515160608601515192519394506001600160a01b039091169284927f3efcb3b1a04ad7dd3e6b6ca2d108352be1f3a9d4f0a30d2877483f9d33e37bb692610d8692909190614993565b60405180910390a35050565b610d9e8484848461161f565b61059e8483610f3c565b610db061148a565b6001600160a01b038116610e155760405162461bcd60e51b815260206004820152602660248201527f4f776e61626c653a206e6577206f776e657220697320746865207a65726f206160448201526564647265737360d01b60648201526084016105fa565b610e1e816114e4565b50565b6040805180820190915260008152606060208201526040805180820190915260008152606060208201526001600160a01b038316610e68576355575f5d60e11b8152610e99565b6322ba176160e21b8152604051610e83908490602001614363565b60408051601f1981840301815291905260208201525b92915050565b60006001600160e01b03198216632fa3cfd360e01b1415610ee157507f1b18cdf6be079a715471a3705c2d89e1d730066ce14915cb307cc3e4a90c92d4919050565b6001600160e01b03198216630d8c66fb60e11b1415610f2157507f2fa3cfd36fc2a11048e46a7dac1916c392731880ba073f2b7f10566b2fd6133e919050565b5090565b610f2e82611763565b610f388282611823565b5050565b600080610f498484611a8c565b915091506000806000610f5c8787611b3f565b9250925092506000806110c16040518060a0016040528060405180604001604052808b8152602001876000015181525081526020018760000151815260200187602001518152602001609760008b600001516001600160e01b0319166001600160e01b031916815260200190815260200160002060009054906101000a90046001600160a01b03166001600160a01b031681526020018b600001516001600160a01b03168152506040518060a0016040528060405180604001604052808b8152602001886020015181525081526020018760000151815260200187602001518152602001609760008b600001516001600160e01b0319166001600160e01b031916815260200190815260200160002060009054906101000a90046001600160a01b03166001600160a01b031681526020018b600001516001600160a01b03168152506110bc8a600001518a600001518e60e001518e60e001518c8c611bf0565b611c58565b885191935091506001600160e01b0319166355575f5d60e11b14156111835785516001600160e01b0319166355575f5d60e11b14156111425760405162461bcd60e51b815260206004820152601a60248201527f77726f6e672074616b654d617463682e6173736574436c61737300000000000060448201526064016105fa565b813410156111625760405162461bcd60e51b81526004016105fa906149e9565b8134111561117e5761117e6111778334614a11565b3390611d69565b6111d2565b85516001600160e01b0319166355575f5d60e11b14156111d257803410156111bd5760405162461bcd60e51b81526004016105fa906149e9565b803411156111d2576111d26111778234614a11565b60006111dd8a611536565b905060006111ea8a611536565b90508a600001516001600160a01b031681837f41576b5d1d097a431bbadeabe9e68420fdc7ad0f694b928ea71d8763a436d4f98d6000015189602001518a600001518f8f60405161123f959493929190614a28565b60405180910390a45050505050505050505050565b600054610100900460ff16610ac15760405162461bcd60e51b81526004016105fa90614a73565b600054610100900460ff166112a25760405162461bcd60e51b81526004016105fa90614a73565b610ac1336114e4565b600054610100900460ff16158080156112cb5750600054600160ff909116105b806112e55750303b1580156112e5575060005460ff166001145b6113015760405162461bcd60e51b81526004016105fa9061485c565b6000805460ff191660011790558015611324576000805461ff0019166101001790555b61016284905561016480546001600160a01b038086166001600160a01b031992831617909255610163805492851692909116919091179055801561059e576000805461ff0019169055604051600181526000805160206153128339815191529060200160405180910390a150505050565b600054610100900460ff16158080156113b55750600054600160ff909116105b806113cf5750303b1580156113cf575060005460ff166001145b6113eb5760405162461bcd60e51b81526004016105fa9061485c565b6000805460ff19166001179055801561140e576000805461ff0019166101001790555b6114546040518060400160405280600b81526020016a11da1bdcdd13585c9ad95d60aa1b815250604051806040016040528060018152602001601960f91b815250611e1d565b8015610e1e576000805461ff0019169055604051600181526000805160206153128339815191529060200160405180910390a150565b6033546001600160a01b03163314610ac15760405162461bcd60e51b815260206004820181905260248201527f4f776e61626c653a2063616c6c6572206973206e6f7420746865206f776e657260448201526064016105fa565b603380546001600160a01b038381166001600160a01b0319831681179093556040519116919082907f8be0079c531659141344cd1fd0a4f28419497f9722a3daafe3b4186f6b6457e090600090a35050565b60e08101516000906001600160e01b031916632611a13360e11b148061156a575060e08201516001600160e01b0319908116145b156115db57815160208301515161158090611e5e565b60608401515161158f90611e5e565b608080860151604080516001600160a01b039096166020870152850193909352606084019190915282015260a0015b604051602081830303815290604052805190602001209050919050565b81516020830151516115ec90611e5e565b6060840151516115fb90611e5e565b84608001518561010001516040516020016115be959493929190614abe565b919050565b6116298484610f25565b6116338282610f25565b60408401516001600160a01b0316156116cb5781516001600160a01b0316156116cb5783604001516001600160a01b031682600001516001600160a01b0316146116cb5760405162461bcd60e51b815260206004820152602360248201527f6c6566744f726465722e74616b657220766572696669636174696f6e206661696044820152621b195960ea1b60648201526084016105fa565b60408201516001600160a01b03161561059e5783516001600160a01b03161561059e5783600001516001600160a01b031682604001516001600160a01b03161461059e5760405162461bcd60e51b8152602060048201526024808201527f72696768744f726465722e74616b657220766572696669636174696f6e2066616044820152631a5b195960e21b60648201526084016105fa565b60a081015115806117775750428160a00151105b6117c35760405162461bcd60e51b815260206004820152601d60248201527f4f726465722073746172742076616c69646174696f6e206661696c656400000060448201526064016105fa565b60c081015115806117d75750428160c00151115b610e1e5760405162461bcd60e51b815260206004820152601b60248201527f4f7264657220656e642076616c69646174696f6e206661696c6564000000000060448201526064016105fa565b60808201516118975781516001600160a01b031615610f385781516001600160a01b0316336001600160a01b031614610f385760405162461bcd60e51b815260206004820152601660248201527536b0b5b2b91034b9903737ba103a3c1039b2b73232b960511b60448201526064016105fa565b81516001600160a01b0316336001600160a01b031614610f385760006118bc83611ebb565b83519091506001600160a01b03163b156119cb578251630b135d3f60e11b906001600160a01b0316631626ba7e6118f284611f93565b856040518363ffffffff1660e01b8152600401611910929190614af1565b60206040518083038186803b15801561192857600080fd5b505afa15801561193c573d6000803e3d6000fd5b505050506040513d601f19601f820116820180604052508101906119609190614b0a565b6001600160e01b03191614610cbd5760405162461bcd60e51b815260206004820152602b60248201527f636f6e7472616374206f72646572207369676e6174757265207665726966696360448201526a30ba34b7b71032b93937b960a91b60648201526084016105fa565b82516001600160a01b03166119e9836119e384611f93565b90611fe1565b6001600160a01b031614611a4a5760405162461bcd60e51b815260206004820152602260248201527f6f72646572207369676e617475726520766572696669636174696f6e2065727260448201526137b960f11b60648201526084016105fa565b82516001600160a01b0316610cbd5760405162461bcd60e51b815260206004820152600860248201526737379036b0b5b2b960c11b60448201526064016105fa565b604080518082019091526000815260606020820152604080518082019091526000815260606020820152602084015151606084015151611acc919061205c565b80519092506001600160e01b031916611af75760405162461bcd60e51b81526004016105fa90614b27565b606084015151602084015151611b0d919061205c565b80519091506001600160e01b031916611b385760405162461bcd60e51b81526004016105fa90614b27565b9250929050565b611b476141d4565b611b4f6141d4565b60408051808201909152600080825260208201526000611b6e86611536565b90506000611b7b86611536565b875190915033906001600160a01b0316611b9c576001600160a01b03811688525b86516001600160a01b0316611bb8576001600160a01b03811687525b611bc1886120a9565b9550611bcc876120a9565b9450611be4888885858a604001518a604001516122b3565b93505050509250925092565b6040805180820190915260008082526020820152611c0e87876123fe565b81602001906002811115611c2457611c24614b53565b90816002811115611c3757611c37614b53565b81525050611c4c8585858585602001516124cf565b81529695505050505050565b8251602090810151835190910151600183602001516002811115611c7e57611c7e614b53565b1415611cc357611c93858585600001516126f2565b9150611cbe846000015160000151856000015160200151866080015188602001518860600151612a28565b611d61565b600283602001516002811115611cdb57611cdb614b53565b1415611d1b57611cf0848685600001516126f2565b9050611cbe856000015160000151866000015160200151876080015187602001518960600151612a28565b845180516020918201516080880151928701516060890151611d3e949190612a28565b835180516020918201516080870151928801516060880151611d61949190612a28565b935093915050565b6000826001600160a01b03168260405160006040518083038185875af1925050503d8060008114611db6576040519150601f19603f3d011682016040523d82523d6000602084013e611dbb565b606091505b5050905080610cbd5760405162461bcd60e51b815260206004820152602860248201527f4c69625472616e73666572204261736543757272656e6379207472616e7366656044820152671c8819985a5b195960c21b60648201526084016105fa565b600054610100900460ff16611e445760405162461bcd60e51b81526004016105fa90614a73565b81516020928301208151919092012060c99190915560ca55565b80516020808301518051908201206040516000936115be937f452a0dc408cb0d27ffc3b3caff933a5208040a53a9dbecd8d89cad2c0d40e00c939192019283526001600160e01b0319919091166020830152604082015260600190565b60007f477ed43b8020849b755512278536c3766a3b4ab547519949a75f483372493f8d8260000151611ef08460200151612c3c565b8460400151611f028660600151612c3c565b608087015160a088015160c089015160e08a01516101008b015180516020918201206040516115be9b9a999897969594939201998a526001600160a01b0398891660208b015260408a0197909752949096166060880152608087019290925260a086015260c085015260e08401929092526001600160e01b0319919091166101008301526101208201526101400190565b6000610e99611fa0612c92565b8360405161190160f01b6020820152602281018390526042810182905260009060620160405160208183030381529060405280519060200120905092915050565b600081516041146120345760405162461bcd60e51b815260206004820152601f60248201527f45434453413a20696e76616c6964207369676e6174757265206c656e6774680060448201526064016105fa565b60208201516040830151606084015160001a61205286828585612d12565b9695505050505050565b604080518082019091526000815260606020820152600061207d8484612f30565b80519091506001600160e01b0319166120a25761209a8385612f30565b915050610e99565b9050610e99565b6120b16141d4565b60e08201516001600160e01b031916632611a13360e11b14156120fd5760008261010001518060200190518101906120e99190614c12565b80518352602090810151908301525061229a565b60e08201516001600160e01b0319166323d235ef60e01b14156121555760008261010001518060200190518101906121359190614cb2565b80518352602080820151908401526040908101511515908301525061229a565b60e08201516001600160e01b031916632fa3cfd360e01b14156121cd57600082610100015180602001905181019061218d9190614d69565b905061219c8160000151613183565b8252602081015160408201516121b291906131f7565b6020830152600160408301526060908101519082015261229a565b60e08201516001600160e01b031916630d8c66fb60e11b141561223c5760008261010001518060200190518101906122059190614dd8565b90506122148160000151613183565b82526020810151604082015161222a91906131f7565b6020830152506000604082015261229a565b60e08201516001600160e01b031990811614156122585761229a565b60405162461bcd60e51b8152602060048201526017602482015276556e6b6e6f776e204f726465722064617461207479706560481b60448201526064016105fa565b80515161161a5781516122ac90613396565b8152919050565b604080518082019091526000808252602082015260006122d7886080015187613448565b905060006122e9886080015187613448565b905060006122fb8a8a85858a8a61346d565b9050600081602001511180156123115750805115155b61234f5760405162461bcd60e51b815260206004820152600f60248201526e1b9bdd1a1a5b99c81d1bc8199a5b1b608a1b60448201526064016105fa565b60808a0151156123a057851561238057805161236b9084614e3d565b600089815261013060205260409020556123a0565b602081015161238f9084614e3d565b600089815261013060205260409020555b6080890151156123f15784156123d45760208101516123bf9083614e3d565b600088815261013060205260409020556123f1565b80516123e09083614e3d565b600088815261013060205260409020555b9998505050505050505050565b60006001600160e01b031983166355575f5d60e11b141561242157506001610e99565b6001600160e01b031982166355575f5d60e11b141561244257506002610e99565b6001600160e01b031983166322ba176160e21b141561246357506001610e99565b6001600160e01b031982166322ba176160e21b141561248457506002610e99565b6001600160e01b0319831663025ceed960e61b14156124a557506001610e99565b6001600160e01b0319821663025ceed960e61b14156124c657506002610e99565b50600092915050565b60006001600160e01b03198616632fa3cfd360e01b1480159061250357506001600160e01b03198516632fa3cfd360e01b14155b801561252057506001600160e01b03198616630d8c66fb60e11b14155b801561253d57506001600160e01b03198516630d8c66fb60e11b14155b1561254a575060006126e9565b600061255e856020015185602001516134ff565b90506000600184600281111561257657612576614b53565b14156125f4575060608401516001600160e01b03198816630d8c66fb60e11b1480156125b257506001600160e01b03198716632fa3cfd360e01b145b6125ef5760405162461bcd60e51b815260206004820152600e60248201526d77726f6e6720563320747970653160901b60448201526064016105fa565b61268c565b600284600281111561260857612608614b53565b1415612681575060608501516001600160e01b03198716630d8c66fb60e11b14801561264457506001600160e01b03198816632fa3cfd360e01b145b6125ef5760405162461bcd60e51b815260206004820152600e60248201526d3bb937b733902b19903a3cb8329960911b60448201526064016105fa565b6000925050506126e9565b60008111801561269c5750818110155b80156126aa57506103e88111155b6126e55760405162461bcd60e51b815260206004820152600c60248201526b77726f6e67206d617846656560a01b60448201526064016105fa565b9150505b95945050505050565b600061270b8460000151602001518560400151846135a6565b84518051855151602080880151930151608089015160608a0151959650869561273895928792909161361b565b9050846040015151600114801561275457508360400151516001145b80156127b557508460400151600081518110612772576127726148aa565b6020026020010151600001516001600160a01b0316846040015160008151811061279e5761279e6148aa565b6020026020010151600001516001600160a01b0316145b156129a65761271084604001516000815181106127d4576127d46148aa565b6020026020010151602001516001600160601b03161080156128225750612710856040015160008151811061280b5761280b6148aa565b6020026020010151602001516001600160601b0316105b6128625760405162461bcd60e51b815260206004820152601160248201527077726f6e67206f726967696e206665657360781b60448201526064016105fa565b604080516001808252818301909252600091816020015b604080518082019091526000808252602082015281526020019060019003908161287957905050905084604001516000815181106128b9576128b96148aa565b602002602001015160000151816000815181106128d8576128d86148aa565b60209081029190910101516001600160a01b03909116905260408601518051600090612906576129066148aa565b6020026020010151602001518560400151600081518110612929576129296148aa565b60200260200101516020015161293f9190614e55565b81600081518110612952576129526148aa565b6020026020010151602001906001600160601b031690816001600160601b03168152505061299c86600001516000015183886000015160200151848a608001518b60600151613732565b5091506129ff9050565b6129d085600001516000015182876000015160200151886040015189608001518a60600151613732565b50855180516020909101516040870151608089015160608a01519495506129fb948693929190613732565b5090505b612a2085600001516000015182876080015187602001518960600151612a28565b509392505050565b6000825111612a855760405162461bcd60e51b8152602060048201526024808201527f7472616e736665725061796f7574733a206e6f7468696e6720746f207472616e60448201526339b332b960e11b60648201526084016105fa565b600084815b60018551612a989190614a11565b811015612b70576000612ada868381518110612ab657612ab66148aa565b6020026020010151602001516001600160601b0316896137fa90919063ffffffff16565b9050858281518110612aee57612aee6148aa565b6020026020010151602001516001600160601b031684612b0e9190614e3d565b93508015612b5f57612b208184614a11565b9250612b5f60405180604001604052808b81526020018381525088888581518110612b4d57612b4d6148aa565b60200260200101516000015188613813565b50612b69816149ce565b9050612a8a565b5060008460018651612b829190614a11565b81518110612b9257612b926148aa565b6020026020010151905080602001516001600160601b031683612bb59190614e3d565b92508261271014612c085760405162461bcd60e51b815260206004820152601e60248201527f53756d207061796f75747320427073206e6f7420657175616c2031303025000060448201526064016105fa565b8115612c3257612c3260405180604001604052808a81526020018481525087836000015187613813565b5050505050505050565b60007fdb6f72e915676cfc289da13bc4ece054fd17b1df6d77ffc4a60510718c236b08612c6c8360000151611e5e565b6020808501516040516115be949392019283526020830191909152604082015260600190565b6000612d0d7f8b73c3c69bb8fe3d512ecc4cf759cc79239f7b179b0ffacaa9a75d522b39400f612cc160c95490565b60ca546040805160208101859052908101839052606081018290524660808201523060a082015260009060c0016040516020818303038152906040528051906020012090509392505050565b905090565b60006fa2a8918ca85bafe22016d0b997e4df60600160ff1b03821115612d855760405162461bcd60e51b815260206004820152602260248201527f45434453413a20696e76616c6964207369676e6174757265202773272076616c604482015261756560f01b60648201526084016105fa565b6000601e8560ff161115612e4e57612d9e600486614e80565b60ff16601b1480612dbc5750612db5600486614e80565b60ff16601c145b612dd85760405162461bcd60e51b81526004016105fa90614ea3565b6001612de387613cc0565b612dee600488614e80565b6040805160008152602081018083529390935260ff90911690820152606081018690526080810185905260a0016020604051602081039080840390855afa158015612e3d573d6000803e3d6000fd5b505050602060405103519050612edf565b8460ff16601b1480612e6357508460ff16601c145b612e7f5760405162461bcd60e51b81526004016105fa90614ea3565b60408051600081526020810180835288905260ff871691810191909152606081018590526080810184905260019060a0016020604051602081039080840390855afa158015612ed2573d6000803e3d6000fd5b5050506020604051035190505b6001600160a01b0381166126e95760405162461bcd60e51b815260206004820152601860248201527745434453413a20696e76616c6964207369676e617475726560401b60448201526064016105fa565b604080518082019091526000815260606020820152825182516001600160e01b031982166355575f5d60e11b1415612fb0576001600160e01b031981166355575f5d60e11b1415612f85578492505050610e99565b5050604080518082018252600080825282516020818101909452908152918101919091529050610e99565b6001600160e01b031982166322ba176160e21b1415612ff5576001600160e01b031981166322ba176160e21b1415612f8557612fec8585613cfb565b92505050610e99565b6001600160e01b031982166339d690a360e11b1415613031576001600160e01b031981166339d690a360e11b1415612f8557612fec8585613cfb565b6001600160e01b0319821663025ceed960e61b141561306d576001600160e01b0319811663025ceed960e61b1415612f8557612fec8585613cfb565b6001600160e01b031982166000908152606560205260409020546001600160a01b03168015613122576040516306d3f7cb60e41b81526001600160a01b03821690636d3f7cb0906130c49089908990600401614993565b60006040518083038186803b1580156130dc57600080fd5b505afa1580156130f0573d6000803e3d6000fd5b505050506040513d6000823e601f3d908101601f191682016040526131189190810190614f2a565b9350505050610e99565b6001600160e01b03198381169083161415613141576131188686613cfb565b60405162461bcd60e51b81526020600482015260176024820152763737ba103337bab7321024a0b9b9b2ba26b0ba31b432b960491b60448201526064016105fa565b6060808215610e995760408051600180825281830190925290816020015b60408051808201909152600080825260208201528152602001906001900390816131a15790505090506131d383613d65565b816000815181106131e6576131e66148aa565b602002602001018190525092915050565b60608060008411801561320a5750600083115b1561329d576040805160028082526060820190925290816020015b604080518082019091526000808252602082015281526020019060019003908161322557905050905061325784613d65565b8160008151811061326a5761326a6148aa565b602002602001018190525061327e83613d65565b81600181518110613291576132916148aa565b60200260200101819052505b6000841180156132ab575082155b156133165760408051600180825281830190925290816020015b60408051808201909152600080825260208201528152602001906001900390816132c55790505090506132f784613d65565b8160008151811061330a5761330a6148aa565b60200260200101819052505b831580156133245750600083115b1561338f5760408051600180825281830190925290816020015b604080518082019091526000808252602082015281526020019060019003908161333e57905050905061337083613d65565b81600081518110613383576133836148aa565b60200260200101819052505b9392505050565b60408051600180825281830190925260609160009190816020015b60408051808201909152600080825260208201528152602001906001900390816133b157905050905082816000815181106133ee576133ee6148aa565b6020026020010151600001906001600160a01b031690816001600160a01b03168152505061271081600081518110613428576134286148aa565b6020908102919091018101516001600160601b0390921691015292915050565b60008261345757506000610e99565b5060009081526101306020526040902054919050565b604080518082019091526000808252602082015260008061348f898887613d99565b915091506000806134a18a8988613d99565b91509150838111156134d4576134c984848c60200151602001518d6060015160200151613e15565b945050505050612052565b6134f08b60200151602001518c60600151602001518484613e9c565b9b9a5050505050505050505050565b600080805b84518110156135535784818151811061351f5761351f6148aa565b6020026020010151602001516001600160601b03168261353f9190614e3d565b91508061354b816149ce565b915050613504565b5060005b8351811015612a2057838181518110613572576135726148aa565b6020026020010151602001516001600160601b0316826135929190614e3d565b91508061359e816149ce565b915050613557565b600081156135b557508261338f565b6000805b8451811015613606578481815181106135d4576135d46148aa565b6020026020010151602001516001600160601b0316826135f49190614e3d565b91506135ff816149ce565b90506135b9565b5061361185826137fa565b6126e99086614e3d565b60008061362788613f25565b90508051600114801561363b575086516001145b8015613694575086600081518110613655576136556148aa565b6020026020010151600001516001600160a01b03168160008151811061367d5761367d6148aa565b6020026020010151600001516001600160a01b0316145b156136eb57611388816000815181106136af576136af6148aa565b6020026020010151602001516001600160601b031611156136e25760405162461bcd60e51b81526004016105fa90614f9a565b85915050613727565b6000806136fc8b8989868a8a613732565b915091506113888111156137225760405162461bcd60e51b81526004016105fa90614f9a565b509150505b979650505050505050565b846000805b85518110156137ee57858181518110613752576137526148aa565b6020026020010151602001516001600160601b0316826137729190614e3d565b915060006137a7848989858151811061378d5761378d6148aa565b6020026020010151602001516001600160601b031661409a565b909450905080156137dd576137dd60405180604001604052808c81526020018381525087898581518110612b4d57612b4d6148aa565b506137e7816149ce565b9050613737565b50965096945050505050565b60006127106138098385614fd1565b61338f9190615006565b8351516001600160e01b0319166339d690a360e11b14156139855760008085600001516020015180602001905181019061384d9190615028565b91509150856020015160011461389a5760405162461bcd60e51b815260206004820152601260248201527132b9319b9918903b30b63ab29032b93937b960711b60448201526064016105fa565b6001600160a01b03851630141561391957604051632142170760e11b81523060048201526001600160a01b038581166024830152604482018390528316906342842e0e906064015b600060405180830381600087803b1580156138fc57600080fd5b505af1158015613910573d6000803e3d6000fd5b5050505061397e565b604051637b84dc8360e11b81526001600160a01b0384169063f709b9069061394b908590899089908790600401615056565b600060405180830381600087803b15801561396557600080fd5b505af1158015613979573d6000803e3d6000fd5b505050505b505061059e565b8351516001600160e01b0319166322ba176160e21b1415613b115760008460000151602001518060200190518101906139be9190615080565b90506001600160a01b038416301415613aa357602085015160405163a9059cbb60e01b81526001600160a01b03858116600483015260248201929092529082169063a9059cbb90604401602060405180830381600087803b158015613a2257600080fd5b505af1158015613a36573d6000803e3d6000fd5b505050506040513d601f19601f82011682018060405250810190613a5a919061509d565b613a9e5760405162461bcd60e51b8152602060048201526015602482015274195c98cc8c081d1c985b9cd9995c8819985a5b1959605a1b60448201526064016105fa565b613b0b565b602085015160405163776062c360e01b81526001600160a01b0384169163776062c391613ad891859189918991600401615056565b600060405180830381600087803b158015613af257600080fd5b505af1158015613b06573d6000803e3d6000fd5b505050505b5061059e565b8351516001600160e01b03191663025ceed960e61b1415613c1957600080856000015160200151806020019051810190613b4b9190615028565b90925090506001600160a01b038516301415613bb8576020860151604051637921219560e11b81523060048201526001600160a01b03868116602483015260448201849052606482019290925260a06084820152600060a48201529083169063f242432a9060c4016138e2565b6020860151604051639c1c2ee960e01b81526001600160a01b0384811660048301528781166024830152868116604483015260648201849052608482019290925260c060a4820152600060c482015290841690639c1c2ee99060e40161394b565b8351516001600160e01b0319166355575f5d60e11b1415613c62576001600160a01b0382163014613c5d576020840151613c5d906001600160a01b03841690611d69565b61059e565b6040516354bc0cf160e01b81526001600160a01b038216906354bc0cf190613c92908790879087906004016150b8565b600060405180830381600087803b158015613cac57600080fd5b505af1158015612c32573d6000803e3d6000fd5b6040517f19457468657265756d205369676e6564204d6573736167653a0a3332000000006020820152603c8101829052600090605c016115be565b60408051808201909152600081526060602082015260208084015180519082012083820151805192019190912080821415613d3a578492505050610e99565b5050604080518082018252600080825282516020808201909452908152918101919091529392505050565b6040805180820190915260008082526020820152811561161a576001600160a01b038216815260a09190911c602082015290565b6000808215613dda5783856020015160200151613db69190614a11565b9150613dd3856060015160200151866020015160200151846140bc565b9050611d61565b83856060015160200151613dee9190614a11565b9050613e0b856020015160200151866060015160200151836140bc565b9150935093915050565b60408051808201909152600080825260208201526000613e368585856140bc565b905085811115613e835760405162461bcd60e51b8152602060048201526018602482015277199a5b1b1319599d0e881d5b98589b19481d1bc8199a5b1b60421b60448201526064016105fa565b5050604080518082019091529384525050602082015290565b60408051808201909152600080825260208201526000613ebd8387876140bc565b905083811115613f0b5760405162461bcd60e51b8152602060048201526019602482015278199a5b1b149a59da1d0e881d5b98589b19481d1bc8199a5b1b603a1b60448201526064016105fa565b604080518082019091529283526020830152509392505050565b80516060906001600160e01b03191663025ceed960e61b1480613f59575081516001600160e01b0319166339d690a360e11b145b15614013576000808360200151806020019051810190613f799190615028565b61016354604051634e53ee3d60e11b81526001600160a01b038085166004830152602482018490529395509193509190911690639ca7dc7a90604401600060405180830381600087803b158015613fcf57600080fd5b505af1158015613fe3573d6000803e3d6000fd5b505050506040513d6000823e601f3d908101601f1916820160405261400b91908101906150fe565b949350505050565b81516001600160e01b03191662737ea960e61b14156140525760008260200151806020019051810190614046919061513d565b60800151949350505050565b81516001600160e01b03191663d8f960c160e01b14156140925760008260200151806020019051810190614086919061522c565b60600151949350505050565b506060919050565b6000806140b0856140ab86866137fa565b61411c565b91509150935093915050565b60006140c9848484614144565b156141075760405162461bcd60e51b815260206004820152600e60248201526d3937bab73234b7339032b93937b960911b60448201526064016105fa565b826141128386614fd1565b61400b9190615006565b6000808284111561413b576141318385614a11565b9150829050611b38565b50600093915050565b6000826141865760405162461bcd60e51b815260206004820152601060248201526f6469766973696f6e206279207a65726f60801b60448201526064016105fa565b811580614191575083155b1561419e5750600061338f565b600083806141ae576141ae614ff0565b85840990506141bd8386614fd1565b6141c9826103e8614fd1565b101595945050505050565b60405180608001604052806060815260200160608152602001600015158152602001600081525090565b60006101e0828403121561421157600080fd5b50919050565b60006020828403121561422957600080fd5b81356001600160401b0381111561423f57600080fd5b61400b848285016141fe565b6001600160a01b0381168114610e1e57600080fd5b803561161a8161424b565b600080600080600060a0868803121561428357600080fd5b853561428e8161424b565b9450602086013561429e8161424b565b93506040860135925060608601356142b58161424b565b915060808601356142c58161424b565b809150509295509295909350565b6000602082840312156142e557600080fd5b5035919050565b6001600160e01b031981168114610e1e57600080fd5b803561161a816142ec565b6000806040838503121561432057600080fd5b823561432b816142ec565b9150602083013561433b8161424b565b809150509250929050565b60006020828403121561435857600080fd5b813561338f8161424b565b6001600160a01b0391909116815260200190565b634e487b7160e01b600052604160045260246000fd5b604080519081016001600160401b03811182821017156143af576143af614377565b60405290565b60405161012081016001600160401b03811182821017156143af576143af614377565b60405160c081016001600160401b03811182821017156143af576143af614377565b60405160a081016001600160401b03811182821017156143af576143af614377565b604051601f8201601f191681016001600160401b038111828210171561444457614444614377565b604052919050565b60006001600160401b0382111561446557614465614377565b5060051b60200190565b60006001600160401b0382111561448857614488614377565b50601f01601f191660200190565b600082601f8301126144a757600080fd5b81356144ba6144b58261446f565b61441c565b8181528460208386010111156144cf57600080fd5b816020850160208301376000918101602001919091529392505050565b6000604082840312156144fe57600080fd5b61450661438d565b905081356001600160401b038082111561451f57600080fd5b908301906040828603121561453357600080fd5b61453b61438d565b8235614546816142ec565b815260208301358281111561455a57600080fd5b61456687828601614496565b6020830152508084525050506020820135602082015292915050565b6000610120828403121561459557600080fd5b61459d6143b5565b90506145a882614260565b815260208201356001600160401b03808211156145c457600080fd5b6145d0858386016144ec565b60208401526145e160408501614260565b604084015260608401359150808211156145fa57600080fd5b614606858386016144ec565b60608401526080840135608084015260a084013560a084015260c084013560c084015261463560e08501614302565b60e08401526101009150818401358181111561465057600080fd5b61465c86828701614496565b8385015250505092915050565b6000602080838503121561467c57600080fd5b82356001600160401b038082111561469357600080fd5b818501915085601f8301126146a757600080fd5b81356146b56144b58261444c565b81815260059190911b830184019084810190888311156146d457600080fd5b8585015b8381101561470c578035858111156146f05760008081fd5b6146fe8b89838a0101614582565b8452509186019186016146d8565b5098975050505050505050565b60006020828403121561472b57600080fd5b81356001600160401b0381111561474157600080fd5b61400b84828501614582565b6000806000806080858703121561476357600080fd5b84356001600160401b038082111561477a57600080fd5b61478688838901614582565b9550602087013591508082111561479c57600080fd5b6147a888838901614496565b945060408701359150808211156147be57600080fd5b6147ca88838901614582565b935060608701359150808211156147e057600080fd5b506147ed87828801614496565b91505092959194509250565b60006020828403121561480b57600080fd5b813561338f816142ec565b6000808335601e1984360301811261482d57600080fd5b8301803591506001600160401b0382111561484757600080fd5b602001915036819003821315611b3857600080fd5b6020808252602e908201527f496e697469616c697a61626c653a20636f6e747261637420697320616c72656160408201526d191e481a5b9a5d1a585b1a5e995960921b606082015260800190565b634e487b7160e01b600052603260045260246000fd5b6020808252600b908201526a3737ba10309036b0b5b2b960a91b604082015260600190565b6020808252601490820152730c081cd85b1d0818d85b89dd081899481d5cd95960621b604082015260600190565b60005b8381101561492e578181015183820152602001614916565b8381111561059e5750506000910152565b60008151808452614957816020860160208601614913565b601f01601f19169290920160200192915050565b63ffffffff60e01b8151168252600060208201516040602085015261400b604085018261493f565b6040815260006149a6604083018561496b565b82810360208401526126e9818561496b565b634e487b7160e01b600052601160045260246000fd5b60006000198214156149e2576149e26149b8565b5060010190565b6020808252600e908201526d0dcdee840cadcdeeaced040cae8d60931b604082015260600190565b600082821015614a2357614a236149b8565b500390565b60018060a01b038616815284602082015283604082015260a060608201526000614a5560a083018561496b565b8281036080840152614a67818561496b565b98975050505050505050565b6020808252602b908201527f496e697469616c697a61626c653a20636f6e7472616374206973206e6f74206960408201526a6e697469616c697a696e6760a81b606082015260800190565b60018060a01b038616815284602082015283604082015282606082015260a06080820152600061372760a083018461493f565b82815260406020820152600061400b604083018461493f565b600060208284031215614b1c57600080fd5b815161338f816142ec565b6020808252601290820152710c2e6e6cae8e640c8dedc4ee840dac2e8c6d60731b604082015260600190565b634e487b7160e01b600052602160045260246000fd5b600082601f830112614b7a57600080fd5b81516020614b8a6144b58361444c565b82815260069290921b84018101918181019086841115614ba957600080fd5b8286015b84811015614c075760408189031215614bc65760008081fd5b614bce61438d565b8151614bd98161424b565b8152818501516001600160601b0381168114614bf55760008081fd5b81860152835291830191604001614bad565b509695505050505050565b600060208284031215614c2457600080fd5b81516001600160401b0380821115614c3b57600080fd5b9083019060408286031215614c4f57600080fd5b614c5761438d565b825182811115614c6657600080fd5b614c7287828601614b69565b825250602083015182811115614c8757600080fd5b614c9387828601614b69565b60208301525095945050505050565b8051801515811461161a57600080fd5b600060208284031215614cc457600080fd5b81516001600160401b0380821115614cdb57600080fd5b9083019060608286031215614cef57600080fd5b604051606081018181108382111715614d0a57614d0a614377565b604052825182811115614d1c57600080fd5b614d2887828601614b69565b825250602083015182811115614d3d57600080fd5b614d4987828601614b69565b602083015250614d5b60408401614ca2565b604082015295945050505050565b600060a08284031215614d7b57600080fd5b60405160a081018181106001600160401b0382111715614d9d57614d9d614377565b806040525082518152602083015160208201526040830151604082015260608301516060820152608083015160808201528091505092915050565b600060808284031215614dea57600080fd5b604051608081018181106001600160401b0382111715614e0c57614e0c614377565b8060405250825181526020830151602082015260408301516040820152606083015160608201528091505092915050565b60008219821115614e5057614e506149b8565b500190565b60006001600160601b03808316818516808303821115614e7757614e776149b8565b01949350505050565b600060ff821660ff841680821015614e9a57614e9a6149b8565b90039392505050565b60208082526022908201527f45434453413a20696e76616c6964207369676e6174757265202776272076616c604082015261756560f01b606082015260800190565b600082601f830112614ef657600080fd5b8151614f046144b58261446f565b818152846020838601011115614f1957600080fd5b61400b826020830160208701614913565b600060208284031215614f3c57600080fd5b81516001600160401b0380821115614f5357600080fd5b9083019060408286031215614f6757600080fd5b614f6f61438d565b8251614f7a816142ec565b8152602083015182811115614f8e57600080fd5b614c9387828601614ee5565b6020808252601d908201527f526f79616c746965732061726520746f6f206869676820283e35302529000000604082015260600190565b6000816000190483118215151615614feb57614feb6149b8565b500290565b634e487b7160e01b600052601260045260246000fd5b60008261502357634e487b7160e01b600052601260045260246000fd5b500490565b6000806040838503121561503b57600080fd5b82516150468161424b565b6020939093015192949293505050565b6001600160a01b039485168152928416602084015292166040820152606081019190915260800190565b60006020828403121561509257600080fd5b815161338f8161424b565b6000602082840312156150af57600080fd5b61338f82614ca2565b6060815260008451604060608401526150d460a084018261496b565b60209687015160808501526001600160a01b03958616968401969096525050911660409091015290565b60006020828403121561511057600080fd5b81516001600160401b0381111561512657600080fd5b61400b84828501614b69565b805161161a8161424b565b6000806040838503121561515057600080fd5b825161515b8161424b565b60208401519092506001600160401b038082111561517857600080fd5b9084019060c0828703121561518c57600080fd5b6151946143d8565b825181526020830151828111156151aa57600080fd5b6151b688828601614ee5565b602083015250604083015160408201526151d260608401615132565b60608201526080830151828111156151e957600080fd5b6151f588828601614b69565b60808301525060a08301518281111561520d57600080fd5b61521988828601614ee5565b60a0830152508093505050509250929050565b6000806040838503121561523f57600080fd5b825161524a8161424b565b60208401519092506001600160401b038082111561526757600080fd5b9084019060a0828703121561527b57600080fd5b6152836143fa565b8251815260208301518281111561529957600080fd5b6152a588828601614ee5565b6020830152506152b760408401615132565b60408201526060830151828111156152ce57600080fd5b6152da88828601614b69565b6060830152506080830151828111156152f257600080fd5b6152fe88828601614ee5565b608083015250809350505050925092905056fe7f26b83ff96e1f2b6a682f133852f6798a09c465da95921460cefb3847402498a2646970667358221220bf8a58c9a12cd7f7d23ce080ba8c3ab7eefbef1e0ef4cf7e93ed8fa0e0a9853864736f6c63430008090033",
  "devdoc": {
    "kind": "dev",
    "methods": {
      "directAcceptBid((address,uint256,bytes4,bytes,uint256,address,uint256,uint256,uint256,bytes4,bytes,bytes,uint256,uint256,bytes))": {
        "details": "function, generate sellOrder and buyOrder from parameters and call validateAndMatch() for accept bid transaction",
        "params": {
          "direct": "struct with parameters for accept bid operation"
        }
      },
      "directPurchase((address,uint256,bytes4,bytes,uint256,address,uint256,uint256,uint256,bytes4,bytes,bytes,uint256,uint256,bytes))": {
        "details": "function, generate sellOrder and buyOrder from parameters and call validateAndMatch() for purchase transaction",
        "params": {
          "direct": "struct with parameters for purchase operation"
        }
      },
      "matchOrders((address,((bytes4,bytes),uint256),address,((bytes4,bytes),uint256),uint256,uint256,uint256,bytes4,bytes),bytes,(address,((bytes4,bytes),uint256),address,((bytes4,bytes),uint256),uint256,uint256,uint256,bytes4,bytes),bytes)": {
        "details": "function, match orders",
        "params": {
          "orderLeft": "left order",
          "orderRight": "right order",
          "signatureLeft": "order left signature",
          "signatureRight": "order right signature"
        }
      },
      "owner()": {
        "details": "Returns the address of the current owner."
      },
      "renounceOwnership()": {
        "details": "Leaves the contract without owner. It will not be possible to call `onlyOwner` functions anymore. Can only be called by the current owner. NOTE: Renouncing ownership will leave the contract without an owner, thereby removing any functionality that is only available to the owner."
      },
      "transferOwnership(address)": {
        "details": "Transfers ownership of the contract to a new account (`newOwner`). Can only be called by the current owner."
      }
    },
    "version": 1
  },
  "userdoc": {
    "kind": "user",
    "methods": {},
    "version": 1
  },
  "storageLayout": {
    "storage": [
      {
        "astId": 721,
        "contract": "src/exchange/ExchangeV2.sol:ExchangeV2",
        "label": "_initialized",
        "offset": 0,
        "slot": "0",
        "type": "t_uint8"
      },
      {
        "astId": 724,
        "contract": "src/exchange/ExchangeV2.sol:ExchangeV2",
        "label": "_initializing",
        "offset": 1,
        "slot": "0",
        "type": "t_bool"
      },
      {
        "astId": 4842,
        "contract": "src/exchange/ExchangeV2.sol:ExchangeV2",
        "label": "__gap",
        "offset": 0,
        "slot": "1",
        "type": "t_array(t_uint256)50_storage"
      },
      {
        "astId": 593,
        "contract": "src/exchange/ExchangeV2.sol:ExchangeV2",
        "label": "_owner",
        "offset": 0,
        "slot": "51",
        "type": "t_address"
      },
      {
        "astId": 713,
        "contract": "src/exchange/ExchangeV2.sol:ExchangeV2",
        "label": "__gap",
        "offset": 0,
        "slot": "52",
        "type": "t_array(t_uint256)49_storage"
      },
      {
        "astId": 10977,
        "contract": "src/exchange/ExchangeV2.sol:ExchangeV2",
        "label": "matchers",
        "offset": 0,
        "slot": "101",
        "type": "t_mapping(t_bytes4,t_address)"
      },
      {
        "astId": 11233,
        "contract": "src/exchange/ExchangeV2.sol:ExchangeV2",
        "label": "__gap",
        "offset": 0,
        "slot": "102",
        "type": "t_array(t_uint256)49_storage"
      },
      {
        "astId": 33190,
        "contract": "src/exchange/ExchangeV2.sol:ExchangeV2",
        "label": "proxies",
        "offset": 0,
        "slot": "151",
        "type": "t_mapping(t_bytes4,t_address)"
      },
      {
        "astId": 33488,
        "contract": "src/exchange/ExchangeV2.sol:ExchangeV2",
        "label": "__gap",
        "offset": 0,
        "slot": "152",
        "type": "t_array(t_uint256)49_storage"
      },
      {
        "astId": 5540,
        "contract": "src/exchange/ExchangeV2.sol:ExchangeV2",
        "label": "_HASHED_NAME",
        "offset": 0,
        "slot": "201",
        "type": "t_bytes32"
      },
      {
        "astId": 5542,
        "contract": "src/exchange/ExchangeV2.sol:ExchangeV2",
        "label": "_HASHED_VERSION",
        "offset": 0,
        "slot": "202",
        "type": "t_bytes32"
      },
      {
        "astId": 5680,
        "contract": "src/exchange/ExchangeV2.sol:ExchangeV2",
        "label": "__gap",
        "offset": 0,
        "slot": "203",
        "type": "t_array(t_uint256)50_storage"
      },
      {
        "astId": 18372,
        "contract": "src/exchange/ExchangeV2.sol:ExchangeV2",
        "label": "__gap",
        "offset": 0,
        "slot": "253",
        "type": "t_array(t_uint256)50_storage"
      },
      {
        "astId": 16890,
        "contract": "src/exchange/ExchangeV2.sol:ExchangeV2",
        "label": "matchAndTransferAdmin",
        "offset": 0,
        "slot": "303",
        "type": "t_address"
      },
      {
        "astId": 16901,
        "contract": "src/exchange/ExchangeV2.sol:ExchangeV2",
        "label": "fills",
        "offset": 0,
        "slot": "304",
        "type": "t_mapping(t_bytes32,t_uint256)"
      },
      {
        "astId": 18235,
        "contract": "src/exchange/ExchangeV2.sol:ExchangeV2",
        "label": "__gap",
        "offset": 0,
        "slot": "305",
        "type": "t_array(t_uint256)49_storage"
      },
      {
        "astId": 32244,
        "contract": "src/exchange/ExchangeV2.sol:ExchangeV2",
        "label": "protocolFee",
        "offset": 0,
        "slot": "354",
        "type": "t_uint256"
      },
      {
        "astId": 32247,
        "contract": "src/exchange/ExchangeV2.sol:ExchangeV2",
        "label": "royaltiesRegistry",
        "offset": 0,
        "slot": "355",
        "type": "t_contract(IRoyaltiesProvider)19008"
      },
      {
        "astId": 32249,
        "contract": "src/exchange/ExchangeV2.sol:ExchangeV2",
        "label": "defaultFeeReceiver",
        "offset": 0,
        "slot": "356",
        "type": "t_address"
      },
      {
        "astId": 32253,
        "contract": "src/exchange/ExchangeV2.sol:ExchangeV2",
        "label": "feeReceivers",
        "offset": 0,
        "slot": "357",
        "type": "t_mapping(t_address,t_address)"
      },
      {
        "astId": 33168,
        "contract": "src/exchange/ExchangeV2.sol:ExchangeV2",
        "label": "__gap",
        "offset": 0,
        "slot": "358",
        "type": "t_array(t_uint256)46_storage"
      }
    ],
    "types": {
      "t_address": {
        "encoding": "inplace",
        "label": "address",
        "numberOfBytes": "20"
      },
      "t_array(t_uint256)46_storage": {
        "base": "t_uint256",
        "encoding": "inplace",
        "label": "uint256[46]",
        "numberOfBytes": "1472"
      },
      "t_array(t_uint256)49_storage": {
        "base": "t_uint256",
        "encoding": "inplace",
        "label": "uint256[49]",
        "numberOfBytes": "1568"
      },
      "t_array(t_uint256)50_storage": {
        "base": "t_uint256",
        "encoding": "inplace",
        "label": "uint256[50]",
        "numberOfBytes": "1600"
      },
      "t_bool": {
        "encoding": "inplace",
        "label": "bool",
        "numberOfBytes": "1"
      },
      "t_bytes32": {
        "encoding": "inplace",
        "label": "bytes32",
        "numberOfBytes": "32"
      },
      "t_bytes4": {
        "encoding": "inplace",
        "label": "bytes4",
        "numberOfBytes": "4"
      },
      "t_contract(IRoyaltiesProvider)19008": {
        "encoding": "inplace",
        "label": "contract IRoyaltiesProvider",
        "numberOfBytes": "20"
      },
      "t_mapping(t_address,t_address)": {
        "encoding": "mapping",
        "key": "t_address",
        "label": "mapping(address => address)",
        "numberOfBytes": "32",
        "value": "t_address"
      },
      "t_mapping(t_bytes32,t_uint256)": {
        "encoding": "mapping",
        "key": "t_bytes32",
        "label": "mapping(bytes32 => uint256)",
        "numberOfBytes": "32",
        "value": "t_uint256"
      },
      "t_mapping(t_bytes4,t_address)": {
        "encoding": "mapping",
        "key": "t_bytes4",
        "label": "mapping(bytes4 => address)",
        "numberOfBytes": "32",
        "value": "t_address"
      },
      "t_uint256": {
        "encoding": "inplace",
        "label": "uint256",
        "numberOfBytes": "32"
      },
      "t_uint8": {
        "encoding": "inplace",
        "label": "uint8",
        "numberOfBytes": "1"
      }
    }
  }
}