{
  "address": "0x6c3E76022bEAAA29c12aca09823EDB6369F4bC6E",
  "abi": [
    {
      "anonymous": false,
      "inputs": [
        {
          "indexed": false,
          "internalType": "uint8",
          "name": "version",
          "type": "uint8"
        }
      ],
      "name": "Initialized",
      "type": "event"
    },
    {
      "anonymous": false,
      "inputs": [
        {
          "indexed": true,
          "internalType": "address",
          "name": "previousOwner",
          "type": "address"
        },
        {
          "indexed": true,
          "internalType": "address",
          "name": "newOwner",
          "type": "address"
        }
      ],
      "name": "OwnershipTransferred",
      "type": "event"
    },
    {
      "anonymous": false,
      "inputs": [
        {
          "indexed": true,
          "internalType": "address",
          "name": "token",
          "type": "address"
        },
        {
          "components": [
            {
              "internalType": "address payable",
              "name": "account",
              "type": "address"
            },
            {
              "internalType": "uint96",
              "name": "value",
              "type": "uint96"
            }
          ],
          "indexed": false,
          "internalType": "struct LibPart.Part[]",
          "name": "royalties",
          "type": "tuple[]"
        }
      ],
      "name": "RoyaltiesSetForContract",
      "type": "event"
    },
    {
      "inputs": [],
      "name": "__RoyaltiesRegistry_init",
      "outputs": [],
      "stateMutability": "nonpayable",
      "type": "function"
    },
    {
      "inputs": [
        {
          "internalType": "address",
          "name": "token",
          "type": "address"
        }
      ],
      "name": "clearRoyaltiesType",
      "outputs": [],
      "stateMutability": "nonpayable",
      "type": "function"
    },
    {
      "inputs": [
        {
          "internalType": "address",
          "name": "token",
          "type": "address"
        },
        {
          "internalType": "uint256",
          "name": "royaltiesType",
          "type": "uint256"
        }
      ],
      "name": "forceSetRoyaltiesType",
      "outputs": [],
      "stateMutability": "nonpayable",
      "type": "function"
    },
    {
      "inputs": [
        {
          "internalType": "address",
          "name": "token",
          "type": "address"
        }
      ],
      "name": "getProvider",
      "outputs": [
        {
          "internalType": "address",
          "name": "",
          "type": "address"
        }
      ],
      "stateMutability": "view",
      "type": "function"
    },
    {
      "inputs": [
        {
          "internalType": "address",
          "name": "token",
          "type": "address"
        },
        {
          "internalType": "uint256",
          "name": "tokenId",
          "type": "uint256"
        }
      ],
      "name": "getRoyalties",
      "outputs": [
        {
          "components": [
            {
              "internalType": "address payable",
              "name": "account",
              "type": "address"
            },
            {
              "internalType": "uint96",
              "name": "value",
              "type": "uint96"
            }
          ],
          "internalType": "struct LibPart.Part[]",
          "name": "",
          "type": "tuple[]"
        }
      ],
      "stateMutability": "nonpayable",
      "type": "function"
    },
    {
      "inputs": [
        {
          "internalType": "uint256",
          "name": "tokenId",
          "type": "uint256"
        }
      ],
      "name": "getRoyalties",
      "outputs": [
        {
          "components": [
            {
              "internalType": "address payable",
              "name": "recipient",
              "type": "address"
            },
            {
              "internalType": "uint256",
              "name": "value",
              "type": "uint256"
            }
          ],
          "internalType": "struct GhostMarketRoyalties.Royalty[]",
          "name": "",
          "type": "tuple[]"
        }
      ],
      "stateMutability": "view",
      "type": "function"
    },
    {
      "inputs": [
        {
          "internalType": "address",
          "name": "token",
          "type": "address"
        }
      ],
      "name": "getRoyaltiesType",
      "outputs": [
        {
          "internalType": "uint256",
          "name": "",
          "type": "uint256"
        }
      ],
      "stateMutability": "view",
      "type": "function"
    },
    {
      "inputs": [],
      "name": "owner",
      "outputs": [
        {
          "internalType": "address",
          "name": "",
          "type": "address"
        }
      ],
      "stateMutability": "view",
      "type": "function"
    },
    {
      "inputs": [],
      "name": "renounceOwnership",
      "outputs": [],
      "stateMutability": "nonpayable",
      "type": "function"
    },
    {
      "inputs": [
        {
          "internalType": "address",
          "name": "",
          "type": "address"
        }
      ],
      "name": "royaltiesByToken",
      "outputs": [
        {
          "internalType": "bool",
          "name": "initialized",
          "type": "bool"
        }
      ],
      "stateMutability": "view",
      "type": "function"
    },
    {
      "inputs": [
        {
          "internalType": "address",
          "name": "",
          "type": "address"
        }
      ],
      "name": "royaltiesProviders",
      "outputs": [
        {
          "internalType": "uint256",
          "name": "",
          "type": "uint256"
        }
      ],
      "stateMutability": "view",
      "type": "function"
    },
    {
      "inputs": [],
      "name": "royaltiesTypesAmount",
      "outputs": [
        {
          "internalType": "uint256",
          "name": "",
          "type": "uint256"
        }
      ],
      "stateMutability": "view",
      "type": "function"
    },
    {
      "inputs": [
        {
          "internalType": "address",
          "name": "token",
          "type": "address"
        },
        {
          "internalType": "address",
          "name": "provider",
          "type": "address"
        }
      ],
      "name": "setProviderByToken",
      "outputs": [],
      "stateMutability": "nonpayable",
      "type": "function"
    },
    {
      "inputs": [
        {
          "internalType": "address",
          "name": "token",
          "type": "address"
        },
        {
          "components": [
            {
              "internalType": "address payable",
              "name": "account",
              "type": "address"
            },
            {
              "internalType": "uint96",
              "name": "value",
              "type": "uint96"
            }
          ],
          "internalType": "struct LibPart.Part[]",
          "name": "royalties",
          "type": "tuple[]"
        }
      ],
      "name": "setRoyaltiesByToken",
      "outputs": [],
      "stateMutability": "nonpayable",
      "type": "function"
    },
    {
      "inputs": [
        {
          "internalType": "address",
          "name": "newOwner",
          "type": "address"
        }
      ],
      "name": "transferOwnership",
      "outputs": [],
      "stateMutability": "nonpayable",
      "type": "function"
    }
  ],
  "transactionHash": "0xc4338f567c076280b671731ca3e56df10cba36c240c84e05c4c12d5dfdc544d6",
  "args": [],
  "numDeployments": 1,
  "solcInputHash": "b409e2163f540739a526753a3a6c5675",
  "bytecode": "0x608060405234801561001057600080fd5b50611b18806100206000396000f3fe608060405234801561001057600080fd5b50600436106100d55760003560e01c80638f380a45116100875780638f380a45146101945780639ca7dc7a1461019c578063acf14efb146101bc578063bb3bafd6146101cf578063d836f013146101f0578063f2fde38b14610203578063f39cc70614610216578063fc73be001461023657600080fd5b806305df952f146100da57806327fff8ab1461011257806336eff6c21461011c57806355f21eb71461012f578063715018a61461015a57806382b19f12146101625780638da5cb5b14610183575b600080fd5b6100fd6100e8366004611471565b60656020526000908152604090205460ff1681565b60405190151581526020015b60405180910390f35b61011a610249565b005b61011a61012a36600461148e565b61035f565b61014261013d366004611471565b61037f565b6040516001600160a01b039091168152602001610109565b61011a61039a565b610175610170366004611471565b6103ae565b604051908152602001610109565b6033546001600160a01b0316610142565b610175600681565b6101af6101aa36600461148e565b6103d6565b60405161010991906114ba565b61011a6101ca3660046115c1565b6105a7565b6101e36101dd3660046116a1565b50606090565b60405161010991906116ba565b61011a6101fe366004611705565b6108c3565b61011a610211366004611471565b6108d8565b610175610224366004611471565b60666020526000908152604090205481565b61011a610244366004611471565b61094e565b600054610100900460ff16158080156102695750600054600160ff909116105b806102835750303b158015610283575060005460ff166001145b6102eb5760405162461bcd60e51b815260206004820152602e60248201527f496e697469616c697a61626c653a20636f6e747261637420697320616c72656160448201526d191e481a5b9a5d1a585b1a5e995960921b60648201526084015b60405180910390fd5b6000805460ff19166001179055801561030e576000805461ff0019166101001790555b6103166109f6565b801561035c576000805461ff0019169055604051600181527f7f26b83ff96e1f2b6a682f133852f6798a09c465da95921460cefb38474024989060200160405180910390a15b50565b61036882610a6a565b61037b82826103768561037f565b610b4f565b5050565b6001600160a01b031660009081526066602052604090205490565b6103a2610bed565b6103ac6000610c47565b565b6001600160a01b0381166000908152606660205260408120546103d090610c99565b92915050565b6001600160a01b03821660009081526066602052604081205460609181906103fd82610c99565b90508061041b5761040e8683610cee565b905061041b868284610b4f565b80600114156104b7576001600160a01b038616600090815260656020908152604080832060010180548251818502810185019093528083529193909284015b828210156104a957600084815260209081902060408051808201909152908401546001600160a01b0381168252600160a01b90046001600160601b03168183015282526001909201910161045a565b5050505093505050506103d0565b80600214156104d4576104ca8686610efc565b93505050506103d0565b80600314156104e7576104ca8686610fc4565b80600414156104fb576104ca86868461117b565b806005141561050e576104ca8686611251565b806006141561055f576040805160008082526020820190925290610554565b604080518082019091526000808252602082015281526020019060019003908161052d5790505b5093505050506103d0565b60405162461bcd60e51b815260206004820152601f60248201527f736f6d657468696e672077726f6e6720696e20676574526f79616c746965730060448201526064016102e2565b6105b082610a6a565b6001600160a01b03821660009081526066602052604081208190556105d9908390600190610b4f565b6001600160a01b0382166000908152606560205260408120805460ff1916815581610607600183018261142a565b5050815160005b818110156107fd5760006001600160a01b03168482815181106106335761063361173e565b6020026020010151600001516001600160a01b031614156106ab5760405162461bcd60e51b815260206004820152602c60248201527f526f79616c746965734279546f6b656e20726563697069656e742073686f756c60448201526b19081899481c1c995cd95b9d60a21b60648201526084016102e2565b8381815181106106bd576106bd61173e565b6020026020010151602001516001600160601b03166000141561073b5760405162461bcd60e51b815260206004820152603060248201527f526f79616c74792076616c756520666f7220526f79616c746965734279546f6b60448201526f0656e2073686f756c64206265203e20360841b60648201526084016102e2565b60656000866001600160a01b03166001600160a01b031681526020019081526020016000206001018482815181106107755761077561173e565b6020908102919091018101518254600181018455600093845292829020815191909201516001600160601b0316600160a01b026001600160a01b039091161791015583518490829081106107cb576107cb61173e565b6020026020010151602001516001600160601b0316836107eb919061176a565b92506107f681611782565b905061060e565b5061271082106108625760405162461bcd60e51b815260206004820152602a60248201527f53657420627920746f6b656e20726f79616c746965732073756d206d6f72652c604482015269207468616e203130302560b01b60648201526084016102e2565b6001600160a01b03841660008181526065602052604090819020805460ff19166001179055517fc026171b9a7c9009d6a748a19a0a3cb877978a585e1647a87a786d724bbde127906108b59086906114ba565b60405180910390a250505050565b6108cc82610a6a565b61037b82600483610b4f565b6108e0610bed565b6001600160a01b0381166109455760405162461bcd60e51b815260206004820152602660248201527f4f776e61626c653a206e6577206f776e657220697320746865207a65726f206160448201526564647265737360d01b60648201526084016102e2565b61035c81610c47565b61095781610a6a565b6109608161037f565b6001600160a01b038281166000818152606660209081526040808320959094169094558251818152938401909252917fc026171b9a7c9009d6a748a19a0a3cb877978a585e1647a87a786d724bbde127916109dd565b60408051808201909152600080825260208201528152602001906001900390816109b65790505b506040516109eb91906114ba565b60405180910390a250565b600054610100900460ff16610a615760405162461bcd60e51b815260206004820152602b60248201527f496e697469616c697a61626c653a20636f6e7472616374206973206e6f74206960448201526a6e697469616c697a696e6760a81b60648201526084016102e2565b6103ac33610c47565b6033546001600160a01b03163314801590610b075750336001600160a01b0316816001600160a01b0316638da5cb5b6040518163ffffffff1660e01b815260040160206040518083038186803b158015610ac357600080fd5b505afa158015610ad7573d6000803e3d6000fd5b505050506040513d601f19601f82011682018060405250810190610afb919061179d565b6001600160a01b031614155b1561035c5760405162461bcd60e51b8152602060048201526018602482015277151bdad95b881bdddb995c881b9bdd0819195d1958dd195960421b60448201526064016102e2565b600082118015610b60575060068211155b610ba25760405162461bcd60e51b815260206004820152601360248201527277726f6e6720726f79616c746965735479706560681b60448201526064016102e2565b610bae826101006117ba565b610bb99060026118b5565b610bcc906001600160a01b03831661176a565b6001600160a01b039093166000908152606660205260409020929092555050565b6033546001600160a01b031633146103ac5760405162461bcd60e51b815260206004820181905260248201527f4f776e61626c653a2063616c6c6572206973206e6f7420746865206f776e657260448201526064016102e2565b603380546001600160a01b038381166001600160a01b0319831681179093556040519116919082907f8be0079c531659141344cd1fd0a4f28419497f9722a3daafe3b4186f6b6457e090600090a35050565b600060015b60068111610ce557610cb2816101006117ba565b610cbd9060026118b5565b610cc790846118c1565b60011415610cd55792915050565b610cde81611782565b9050610c9e565b50600092915050565b6040516301ffc9a760e01b81526000906001600160a01b038416906301ffc9a790610d249063656cb66560e11b906004016118e3565b60206040518083038186803b158015610d3c57600080fd5b505afa925050508015610d6c575060408051601f3d908101601f19168201909252610d69918101906118f8565b60015b610d7557610d87565b8015610d855760029150506103d0565b505b6040516301ffc9a760e01b81526001600160a01b038416906301ffc9a790610dba9063721049d360e11b906004016118e3565b60206040518083038186803b158015610dd257600080fd5b505afa925050508015610e02575060408051601f3d908101601f19168201909252610dff918101906118f8565b60015b610e0b57610e1d565b8015610e1b5760039150506103d0565b505b6040516301ffc9a760e01b81526001600160a01b038416906301ffc9a790610e509063152a902d60e11b906004016118e3565b60206040518083038186803b158015610e6857600080fd5b505afa925050508015610e98575060408051601f3d908101601f19168201909252610e95918101906118f8565b60015b610ea157610eb3565b8015610eb15760059150506103d0565b505b6001600160a01b03821615610eca575060046103d0565b6001600160a01b03831660009081526065602052604090205460ff1615610ef3575060016103d0565b50600692915050565b60405163656cb66560e11b8152600481018290526060906001600160a01b0384169063cad96cca9060240160006040518083038186803b158015610f3f57600080fd5b505afa925050508015610f7457506040513d6000823e601f3d908101601f19168201604052610f71919081019061191a565b60015b610fbd576040805160008082526020820190925290610fb5565b6040805180820190915260008082526020820152815260200190600190039081610f8e5790505b5090506103d0565b90506103d0565b604051635d9dd7eb60e11b8152600481018290526060906001600160a01b0384169063bb3bafd69060240160006040518083038186803b15801561100757600080fd5b505afa92505050801561103c57506040513d6000823e601f3d908101601f1916820160405261103991908101906119e2565b60015b611056576040805160008082526020820190925290610fb5565b600081516001600160401b038111156110715761107161151b565b6040519080825280602002602001820160405280156110b657816020015b604080518082019091526000808252602082015281526020019060019003908161108f5790505b50905060005b8251811015611171578281815181106110d7576110d761173e565b6020026020010151602001518282815181106110f5576110f561173e565b6020026020010151602001906001600160601b031690816001600160601b03168152505082818151811061112b5761112b61173e565b6020026020010151600001518282815181106111495761114961173e565b60209081029190910101516001600160a01b03909116905261116a81611782565b90506110bc565b5091506103d09050565b604051634e53ee3d60e11b81526001600160a01b0384811660048301526024820184905260609190831690639ca7dc7a90604401600060405180830381600087803b1580156111c957600080fd5b505af19250505080156111fe57506040513d6000823e601f3d908101601f191682016040526111fb919081019061191a565b60015b61124757604080516000808252602082019092529061123f565b60408051808201909152600080825260208201528152602001906001900390816112185790505b50905061124a565b90505b9392505050565b60405163152a902d60e11b815260048101829052620f424060248201526060906001600160a01b03841690632a55205a90604401604080518083038186803b15801561129c57600080fd5b505afa9250505080156112cc575060408051601f3d908101601f191682019092526112c991810190611a95565b60015b6112e6576040805160008082526020820190925290610fb5565b6112f082826112f9565b925050506103d0565b606080826113085790506103d0565b6000620f4240611319856064611ac3565b61132391906118c1565b61132e906064611ac3565b9050612710811061137d5760405162461bcd60e51b8152602060048201526019602482015278526f79616c7469657320323938312c207468616e203130302560381b60448201526064016102e2565b60408051600180825281830190925290816020015b604080518082019091526000808252602082015281526020019060019003908161139257905050915084826000815181106113cf576113cf61173e565b6020026020010151600001906001600160a01b031690816001600160a01b03168152505080826000815181106114075761140761173e565b6020908102919091018101516001600160601b0390921691015250905092915050565b508054600082559060005260206000209081019061035c91905b808211156114585760008155600101611444565b5090565b6001600160a01b038116811461035c57600080fd5b60006020828403121561148357600080fd5b813561124a8161145c565b600080604083850312156114a157600080fd5b82356114ac8161145c565b946020939093013593505050565b602080825282518282018190526000919060409081850190868401855b8281101561150e57815180516001600160a01b031685528601516001600160601b03168685015292840192908501906001016114d7565b5091979650505050505050565b634e487b7160e01b600052604160045260246000fd5b604080519081016001600160401b03811182821017156115535761155361151b565b60405290565b604051601f8201601f191681016001600160401b03811182821017156115815761158161151b565b604052919050565b60006001600160401b038211156115a2576115a261151b565b5060051b60200190565b6001600160601b038116811461035c57600080fd5b60008060408084860312156115d557600080fd5b83356115e08161145c565b92506020848101356001600160401b038111156115fc57600080fd5b8501601f8101871361160d57600080fd5b803561162061161b82611589565b611559565b81815260069190911b8201830190838101908983111561163f57600080fd5b928401925b828410156116915785848b03121561165c5760008081fd5b611664611531565b843561166f8161145c565b81528486013561167e816115ac565b8187015282529285019290840190611644565b8096505050505050509250929050565b6000602082840312156116b357600080fd5b5035919050565b602080825282518282018190526000919060409081850190868401855b8281101561150e57815180516001600160a01b031685528601518685015292840192908501906001016116d7565b6000806040838503121561171857600080fd5b82356117238161145c565b915060208301356117338161145c565b809150509250929050565b634e487b7160e01b600052603260045260246000fd5b634e487b7160e01b600052601160045260246000fd5b6000821982111561177d5761177d611754565b500190565b600060001982141561179657611796611754565b5060010190565b6000602082840312156117af57600080fd5b815161124a8161145c565b6000828210156117cc576117cc611754565b500390565b600181815b8085111561180c5781600019048211156117f2576117f2611754565b808516156117ff57918102915b93841c93908002906117d6565b509250929050565b600082611823575060016103d0565b81611830575060006103d0565b816001811461184657600281146118505761186c565b60019150506103d0565b60ff84111561186157611861611754565b50506001821b6103d0565b5060208310610133831016604e8410600b841016171561188f575081810a6103d0565b61189983836117d1565b80600019048211156118ad576118ad611754565b029392505050565b600061124a8383611814565b6000826118de57634e487b7160e01b600052601260045260246000fd5b500490565b6001600160e01b031991909116815260200190565b60006020828403121561190a57600080fd5b8151801515811461124a57600080fd5b6000602080838503121561192d57600080fd5b82516001600160401b0381111561194357600080fd5b8301601f8101851361195457600080fd5b805161196261161b82611589565b81815260069190911b8201830190838101908783111561198157600080fd5b928401925b828410156119d7576040848903121561199f5760008081fd5b6119a7611531565b84516119b28161145c565b8152848601516119c1816115ac565b8187015282526040939093019290840190611986565b979650505050505050565b600060208083850312156119f557600080fd5b82516001600160401b03811115611a0b57600080fd5b8301601f81018513611a1c57600080fd5b8051611a2a61161b82611589565b81815260069190911b82018301908381019087831115611a4957600080fd5b928401925b828410156119d75760408489031215611a675760008081fd5b611a6f611531565b8451611a7a8161145c565b81528486015186820152825260409093019290840190611a4e565b60008060408385031215611aa857600080fd5b8251611ab38161145c565b6020939093015192949293505050565b6000816000190483118215151615611add57611add611754565b50029056fea26469706673582212202230dad33aa67acb39ba2d1c98fc200009b296920b1e7132a98ead4033a753ea64736f6c63430008090033",
  "devdoc": {
    "events": {
      "RoyaltiesSetForContract(address,(address,uint96)[])": {
        "details": "emitted when royalties set for token in"
      }
    },
    "kind": "dev",
    "methods": {
      "clearRoyaltiesType(address)": {
        "details": "clears royalties type for token contract"
      },
      "forceSetRoyaltiesType(address,uint256)": {
        "details": "clears and sets new royalties type for token contract"
      },
      "getProvider(address)": {
        "details": "returns provider address for token contract from royaltiesProviders mapping"
      },
      "getRoyalties(address,uint256)": {
        "details": "returns royalties for token contract and token id"
      },
      "getRoyaltiesType(address)": {
        "details": "returns royalties type for token contract"
      },
      "owner()": {
        "details": "Returns the address of the current owner."
      },
      "renounceOwnership()": {
        "details": "Leaves the contract without owner. It will not be possible to call `onlyOwner` functions anymore. Can only be called by the current owner. NOTE: Renouncing ownership will leave the contract without an owner, thereby removing any functionality that is only available to the owner."
      },
      "setProviderByToken(address,address)": {
        "details": "sets external provider for token contract, and royalties type = 4"
      },
      "setRoyaltiesByToken(address,(address,uint96)[])": {
        "details": "sets royalties for token contract in royaltiesByToken mapping and royalties type = 1"
      },
      "transferOwnership(address)": {
        "details": "Transfers ownership of the contract to a new account (`newOwner`). Can only be called by the current owner."
      }
    },
    "stateVariables": {
      "royaltiesByToken": {
        "details": "stores royalties for token contract, set in setRoyaltiesByToken() method"
      },
      "royaltiesProviders": {
        "details": "stores external provider and royalties type for token contract"
      },
      "royaltiesTypesAmount": {
        "details": "total amount or supported royalties types"
      }
    },
    "version": 1
  },
  "userdoc": {
    "kind": "user",
    "methods": {},
    "version": 1
  },
  "storageLayout": {
    "storage": [
      {
        "astId": 721,
        "contract": "src/royalties-registry/RoyaltiesRegistry.sol:RoyaltiesRegistry",
        "label": "_initialized",
        "offset": 0,
        "slot": "0",
        "type": "t_uint8"
      },
      {
        "astId": 724,
        "contract": "src/royalties-registry/RoyaltiesRegistry.sol:RoyaltiesRegistry",
        "label": "_initializing",
        "offset": 1,
        "slot": "0",
        "type": "t_bool"
      },
      {
        "astId": 4842,
        "contract": "src/royalties-registry/RoyaltiesRegistry.sol:RoyaltiesRegistry",
        "label": "__gap",
        "offset": 0,
        "slot": "1",
        "type": "t_array(t_uint256)50_storage"
      },
      {
        "astId": 593,
        "contract": "src/royalties-registry/RoyaltiesRegistry.sol:RoyaltiesRegistry",
        "label": "_owner",
        "offset": 0,
        "slot": "51",
        "type": "t_address"
      },
      {
        "astId": 713,
        "contract": "src/royalties-registry/RoyaltiesRegistry.sol:RoyaltiesRegistry",
        "label": "__gap",
        "offset": 0,
        "slot": "52",
        "type": "t_array(t_uint256)49_storage"
      },
      {
        "astId": 29558,
        "contract": "src/royalties-registry/RoyaltiesRegistry.sol:RoyaltiesRegistry",
        "label": "royaltiesByToken",
        "offset": 0,
        "slot": "101",
        "type": "t_mapping(t_address,t_struct(RoyaltiesSet)29552_storage)"
      },
      {
        "astId": 29563,
        "contract": "src/royalties-registry/RoyaltiesRegistry.sol:RoyaltiesRegistry",
        "label": "royaltiesProviders",
        "offset": 0,
        "slot": "102",
        "type": "t_mapping(t_address,t_uint256)"
      },
      {
        "astId": 30331,
        "contract": "src/royalties-registry/RoyaltiesRegistry.sol:RoyaltiesRegistry",
        "label": "__gap",
        "offset": 0,
        "slot": "103",
        "type": "t_array(t_uint256)46_storage"
      }
    ],
    "types": {
      "t_address": {
        "encoding": "inplace",
        "label": "address",
        "numberOfBytes": "20"
      },
      "t_address_payable": {
        "encoding": "inplace",
        "label": "address payable",
        "numberOfBytes": "20"
      },
      "t_array(t_struct(Part)20756_storage)dyn_storage": {
        "base": "t_struct(Part)20756_storage",
        "encoding": "dynamic_array",
        "label": "struct LibPart.Part[]",
        "numberOfBytes": "32"
      },
      "t_array(t_uint256)46_storage": {
        "base": "t_uint256",
        "encoding": "inplace",
        "label": "uint256[46]",
        "numberOfBytes": "1472"
      },
      "t_array(t_uint256)49_storage": {
        "base": "t_uint256",
        "encoding": "inplace",
        "label": "uint256[49]",
        "numberOfBytes": "1568"
      },
      "t_array(t_uint256)50_storage": {
        "base": "t_uint256",
        "encoding": "inplace",
        "label": "uint256[50]",
        "numberOfBytes": "1600"
      },
      "t_bool": {
        "encoding": "inplace",
        "label": "bool",
        "numberOfBytes": "1"
      },
      "t_mapping(t_address,t_struct(RoyaltiesSet)29552_storage)": {
        "encoding": "mapping",
        "key": "t_address",
        "label": "mapping(address => struct RoyaltiesRegistry.RoyaltiesSet)",
        "numberOfBytes": "32",
        "value": "t_struct(RoyaltiesSet)29552_storage"
      },
      "t_mapping(t_address,t_uint256)": {
        "encoding": "mapping",
        "key": "t_address",
        "label": "mapping(address => uint256)",
        "numberOfBytes": "32",
        "value": "t_uint256"
      },
      "t_struct(Part)20756_storage": {
        "encoding": "inplace",
        "label": "struct LibPart.Part",
        "members": [
          {
            "astId": 20753,
            "contract": "src/royalties-registry/RoyaltiesRegistry.sol:RoyaltiesRegistry",
            "label": "account",
            "offset": 0,
            "slot": "0",
            "type": "t_address_payable"
          },
          {
            "astId": 20755,
            "contract": "src/royalties-registry/RoyaltiesRegistry.sol:RoyaltiesRegistry",
            "label": "value",
            "offset": 20,
            "slot": "0",
            "type": "t_uint96"
          }
        ],
        "numberOfBytes": "32"
      },
      "t_struct(RoyaltiesSet)29552_storage": {
        "encoding": "inplace",
        "label": "struct RoyaltiesRegistry.RoyaltiesSet",
        "members": [
          {
            "astId": 29547,
            "contract": "src/royalties-registry/RoyaltiesRegistry.sol:RoyaltiesRegistry",
            "label": "initialized",
            "offset": 0,
            "slot": "0",
            "type": "t_bool"
          },
          {
            "astId": 29551,
            "contract": "src/royalties-registry/RoyaltiesRegistry.sol:RoyaltiesRegistry",
            "label": "royalties",
            "offset": 0,
            "slot": "1",
            "type": "t_array(t_struct(Part)20756_storage)dyn_storage"
          }
        ],
        "numberOfBytes": "64"
      },
      "t_uint256": {
        "encoding": "inplace",
        "label": "uint256",
        "numberOfBytes": "32"
      },
      "t_uint8": {
        "encoding": "inplace",
        "label": "uint8",
        "numberOfBytes": "1"
      },
      "t_uint96": {
        "encoding": "inplace",
        "label": "uint96",
        "numberOfBytes": "12"
      }
    }
  }
}