{
  "address": "0x55F02AcD0ba21AFaC507c8C79cF5Bc25A92A6754",
  "abi": [
    {
      "anonymous": false,
      "inputs": [
        {
          "indexed": false,
          "internalType": "uint8",
          "name": "version",
          "type": "uint8"
        }
      ],
      "name": "Initialized",
      "type": "event"
    },
    {
      "anonymous": false,
      "inputs": [
        {
          "indexed": true,
          "internalType": "address",
          "name": "previousOwner",
          "type": "address"
        },
        {
          "indexed": true,
          "internalType": "address",
          "name": "newOwner",
          "type": "address"
        }
      ],
      "name": "OwnershipTransferred",
      "type": "event"
    },
    {
      "inputs": [],
      "name": "__OperatorRole_init",
      "outputs": [],
      "stateMutability": "nonpayable",
      "type": "function"
    },
    {
      "inputs": [],
      "name": "__TransferProxy_init",
      "outputs": [],
      "stateMutability": "nonpayable",
      "type": "function"
    },
    {
      "inputs": [
        {
          "internalType": "address",
          "name": "operator",
          "type": "address"
        }
      ],
      "name": "addOperator",
      "outputs": [],
      "stateMutability": "nonpayable",
      "type": "function"
    },
    {
      "inputs": [
        {
          "internalType": "contract IERC1155Upgradeable",
          "name": "token",
          "type": "address"
        },
        {
          "internalType": "address",
          "name": "from",
          "type": "address"
        },
        {
          "internalType": "address",
          "name": "to",
          "type": "address"
        },
        {
          "internalType": "uint256",
          "name": "id",
          "type": "uint256"
        },
        {
          "internalType": "uint256",
          "name": "value",
          "type": "uint256"
        },
        {
          "internalType": "bytes",
          "name": "data",
          "type": "bytes"
        }
      ],
      "name": "erc1155safeTransferFrom",
      "outputs": [],
      "stateMutability": "nonpayable",
      "type": "function"
    },
    {
      "inputs": [
        {
          "internalType": "contract IERC721Upgradeable",
          "name": "token",
          "type": "address"
        },
        {
          "internalType": "address",
          "name": "from",
          "type": "address"
        },
        {
          "internalType": "address",
          "name": "to",
          "type": "address"
        },
        {
          "internalType": "uint256",
          "name": "tokenId",
          "type": "uint256"
        }
      ],
      "name": "erc721safeTransferFrom",
      "outputs": [],
      "stateMutability": "nonpayable",
      "type": "function"
    },
    {
      "inputs": [
        {
          "internalType": "address",
          "name": "",
          "type": "address"
        }
      ],
      "name": "operators",
      "outputs": [
        {
          "internalType": "bool",
          "name": "",
          "type": "bool"
        }
      ],
      "stateMutability": "view",
      "type": "function"
    },
    {
      "inputs": [],
      "name": "owner",
      "outputs": [
        {
          "internalType": "address",
          "name": "",
          "type": "address"
        }
      ],
      "stateMutability": "view",
      "type": "function"
    },
    {
      "inputs": [
        {
          "internalType": "address",
          "name": "operator",
          "type": "address"
        }
      ],
      "name": "removeOperator",
      "outputs": [],
      "stateMutability": "nonpayable",
      "type": "function"
    },
    {
      "inputs": [],
      "name": "renounceOwnership",
      "outputs": [],
      "stateMutability": "nonpayable",
      "type": "function"
    },
    {
      "inputs": [
        {
          "internalType": "address",
          "name": "newOwner",
          "type": "address"
        }
      ],
      "name": "transferOwnership",
      "outputs": [],
      "stateMutability": "nonpayable",
      "type": "function"
    }
  ],
  "transactionHash": "0x23c2bbe8137f0e42de5f5365743f549718ba98bb87004486936bac5372993201",
  "args": [],
  "numDeployments": 1,
  "solcInputHash": "2e1631ab269086387667f91d00ac6cf6",
  "bytecode": "0x608060405234801561001057600080fd5b506108d6806100206000396000f3fe608060405234801561001057600080fd5b506004361061009e5760003560e01c80639870d7fe116100665780639870d7fe146101105780639c1c2ee914610123578063ac8a584a14610136578063f2fde38b14610149578063f709b9061461015c57600080fd5b806313e7c9d8146100a35780632ff26a0a146100db578063495edf86146100e5578063715018a6146100ed5780638da5cb5b146100f5575b600080fd5b6100c66100b1366004610630565b60656020526000908152604090205460ff1681565b60405190151581526020015b60405180910390f35b6100e361016f565b005b6100e361024a565b6100e36102cb565b6033546040516001600160a01b0390911681526020016100d2565b6100e361011e366004610630565b6102df565b6100e3610131366004610654565b61030b565b6100e3610144366004610630565b6103ab565b6100e3610157366004610630565b6103d4565b6100e361016a366004610712565b61044a565b600054610100900460ff161580801561018f5750600054600160ff909116105b806101a95750303b1580156101a9575060005460ff166001145b6101ce5760405162461bcd60e51b81526004016101c590610763565b60405180910390fd5b6000805460ff1916600117905580156101f1576000805461ff0019166101001790555b6101f96104e9565b610201610510565b8015610247576000805461ff0019169055604051600181527f7f26b83ff96e1f2b6a682f133852f6798a09c465da95921460cefb38474024989060200160405180910390a15b50565b600054610100900460ff161580801561026a5750600054600160ff909116105b806102845750303b158015610284575060005460ff166001145b6102a05760405162461bcd60e51b81526004016101c590610763565b6000805460ff1916600117905580156102c3576000805461ff0019166101001790555b610201610540565b6102d361056f565b6102dd60006105c9565b565b6102e761056f565b6001600160a01b03166000908152606560205260409020805460ff19166001179055565b3360009081526065602052604090205460ff1661033a5760405162461bcd60e51b81526004016101c5906107b1565b604051637921219560e11b81526001600160a01b0388169063f242432a90610370908990899089908990899089906004016107f9565b600060405180830381600087803b15801561038a57600080fd5b505af115801561039e573d6000803e3d6000fd5b5050505050505050505050565b6103b361056f565b6001600160a01b03166000908152606560205260409020805460ff19169055565b6103dc61056f565b6001600160a01b0381166104415760405162461bcd60e51b815260206004820152602660248201527f4f776e61626c653a206e6577206f776e657220697320746865207a65726f206160448201526564647265737360d01b60648201526084016101c5565b610247816105c9565b3360009081526065602052604090205460ff166104795760405162461bcd60e51b81526004016101c5906107b1565b604051632142170760e11b81526001600160a01b0384811660048301528381166024830152604482018390528516906342842e0e90606401600060405180830381600087803b1580156104cb57600080fd5b505af11580156104df573d6000803e3d6000fd5b5050505050505050565b600054610100900460ff166102dd5760405162461bcd60e51b81526004016101c590610855565b600054610100900460ff166105375760405162461bcd60e51b81526004016101c590610855565b6102dd336105c9565b600054610100900460ff166105675760405162461bcd60e51b81526004016101c590610855565b6102dd610510565b6033546001600160a01b031633146102dd5760405162461bcd60e51b815260206004820181905260248201527f4f776e61626c653a2063616c6c6572206973206e6f7420746865206f776e657260448201526064016101c5565b603380546001600160a01b038381166001600160a01b0319831681179093556040519116919082907f8be0079c531659141344cd1fd0a4f28419497f9722a3daafe3b4186f6b6457e090600090a35050565b6001600160a01b038116811461024757600080fd5b60006020828403121561064257600080fd5b813561064d8161061b565b9392505050565b600080600080600080600060c0888a03121561066f57600080fd5b873561067a8161061b565b9650602088013561068a8161061b565b9550604088013561069a8161061b565b9450606088013593506080880135925060a088013567ffffffffffffffff808211156106c557600080fd5b818a0191508a601f8301126106d957600080fd5b8135818111156106e857600080fd5b8b60208285010111156106fa57600080fd5b60208301945080935050505092959891949750929550565b6000806000806080858703121561072857600080fd5b84356107338161061b565b935060208501356107438161061b565b925060408501356107538161061b565b9396929550929360600135925050565b6020808252602e908201527f496e697469616c697a61626c653a20636f6e747261637420697320616c72656160408201526d191e481a5b9a5d1a585b1a5e995960921b606082015260800190565b60208082526028908201527f4f70657261746f72526f6c653a2063616c6c6572206973206e6f74207468652060408201526737b832b930ba37b960c11b606082015260800190565b6001600160a01b03878116825286166020820152604081018590526060810184905260a06080820181905281018290526000828460c0840137600060c0848401015260c0601f19601f8501168301019050979650505050505050565b6020808252602b908201527f496e697469616c697a61626c653a20636f6e7472616374206973206e6f74206960408201526a6e697469616c697a696e6760a81b60608201526080019056fea2646970667358221220ec5f66df13e03be2716a922cc3245967f7e7e9c4a9be9d591812c975af23761c64736f6c63430008090033",
  "devdoc": {
    "kind": "dev",
    "methods": {
      "owner()": {
        "details": "Returns the address of the current owner."
      },
      "renounceOwnership()": {
        "details": "Leaves the contract without owner. It will not be possible to call `onlyOwner` functions anymore. Can only be called by the current owner. NOTE: Renouncing ownership will leave the contract without an owner, thereby removing any functionality that is only available to the owner."
      },
      "transferOwnership(address)": {
        "details": "Transfers ownership of the contract to a new account (`newOwner`). Can only be called by the current owner."
      }
    },
    "version": 1
  },
  "userdoc": {
    "kind": "user",
    "methods": {},
    "version": 1
  },
  "storageLayout": {
    "storage": [
      {
        "astId": 721,
        "contract": "src/transfer-proxy/TransferProxy.sol:TransferProxy",
        "label": "_initialized",
        "offset": 0,
        "slot": "0",
        "type": "t_uint8"
      },
      {
        "astId": 724,
        "contract": "src/transfer-proxy/TransferProxy.sol:TransferProxy",
        "label": "_initializing",
        "offset": 1,
        "slot": "0",
        "type": "t_bool"
      },
      {
        "astId": 4842,
        "contract": "src/transfer-proxy/TransferProxy.sol:TransferProxy",
        "label": "__gap",
        "offset": 0,
        "slot": "1",
        "type": "t_array(t_uint256)50_storage"
      },
      {
        "astId": 593,
        "contract": "src/transfer-proxy/TransferProxy.sol:TransferProxy",
        "label": "_owner",
        "offset": 0,
        "slot": "51",
        "type": "t_address"
      },
      {
        "astId": 713,
        "contract": "src/transfer-proxy/TransferProxy.sol:TransferProxy",
        "label": "__gap",
        "offset": 0,
        "slot": "52",
        "type": "t_array(t_uint256)49_storage"
      },
      {
        "astId": 29246,
        "contract": "src/transfer-proxy/TransferProxy.sol:TransferProxy",
        "label": "operators",
        "offset": 0,
        "slot": "101",
        "type": "t_mapping(t_address,t_bool)"
      }
    ],
    "types": {
      "t_address": {
        "encoding": "inplace",
        "label": "address",
        "numberOfBytes": "20"
      },
      "t_array(t_uint256)49_storage": {
        "base": "t_uint256",
        "encoding": "inplace",
        "label": "uint256[49]",
        "numberOfBytes": "1568"
      },
      "t_array(t_uint256)50_storage": {
        "base": "t_uint256",
        "encoding": "inplace",
        "label": "uint256[50]",
        "numberOfBytes": "1600"
      },
      "t_bool": {
        "encoding": "inplace",
        "label": "bool",
        "numberOfBytes": "1"
      },
      "t_mapping(t_address,t_bool)": {
        "encoding": "mapping",
        "key": "t_address",
        "label": "mapping(address => bool)",
        "numberOfBytes": "32",
        "value": "t_bool"
      },
      "t_uint256": {
        "encoding": "inplace",
        "label": "uint256",
        "numberOfBytes": "32"
      },
      "t_uint8": {
        "encoding": "inplace",
        "label": "uint8",
        "numberOfBytes": "1"
      }
    }
  }
}