{
  "_format": "hh-sol-artifact-1",
  "contractName": "GhostMarketTransferManagerTest",
  "sourceName": "contracts/tests/GhostMarketTransferManagerTest.sol",
  "abi": [
    {
      "anonymous": false,
      "inputs": [
        {
          "indexed": true,
          "internalType": "address",
          "name": "previousOwner",
          "type": "address"
        },
        {
          "indexed": true,
          "internalType": "address",
          "name": "newOwner",
          "type": "address"
        }
      ],
      "name": "OwnershipTransferred",
      "type": "event"
    },
    {
      "anonymous": false,
      "inputs": [
        {
          "indexed": true,
          "internalType": "bytes4",
          "name": "assetType",
          "type": "bytes4"
        },
        {
          "indexed": false,
          "internalType": "address",
          "name": "proxy",
          "type": "address"
        }
      ],
      "name": "ProxyChange",
      "type": "event"
    },
    {
      "anonymous": false,
      "inputs": [
        {
          "components": [
            {
              "components": [
                {
                  "internalType": "bytes4",
                  "name": "assetClass",
                  "type": "bytes4"
                },
                {
                  "internalType": "bytes",
                  "name": "data",
                  "type": "bytes"
                }
              ],
              "internalType": "struct LibAsset.AssetType",
              "name": "assetType",
              "type": "tuple"
            },
            {
              "internalType": "uint256",
              "name": "value",
              "type": "uint256"
            }
          ],
          "indexed": false,
          "internalType": "struct LibAsset.Asset",
          "name": "asset",
          "type": "tuple"
        },
        {
          "indexed": false,
          "internalType": "address",
          "name": "from",
          "type": "address"
        },
        {
          "indexed": false,
          "internalType": "address",
          "name": "to",
          "type": "address"
        },
        {
          "indexed": false,
          "internalType": "bytes4",
          "name": "transferDirection",
          "type": "bytes4"
        },
        {
          "indexed": false,
          "internalType": "bytes4",
          "name": "transferType",
          "type": "bytes4"
        }
      ],
      "name": "Transfer",
      "type": "event"
    },
    {
      "inputs": [
        {
          "internalType": "contract INftTransferProxy",
          "name": "_transferProxy",
          "type": "address"
        },
        {
          "internalType": "contract IERC20TransferProxy",
          "name": "_erc20TransferProxy",
          "type": "address"
        },
        {
          "internalType": "uint256",
          "name": "newProtocolFee",
          "type": "uint256"
        },
        {
          "internalType": "address",
          "name": "newDefaultFeeReceiver",
          "type": "address"
        }
      ],
      "name": "__TransferManager_init",
      "outputs": [],
      "stateMutability": "nonpayable",
      "type": "function"
    },
    {
      "inputs": [
        {
          "components": [
            {
              "internalType": "bytes4",
              "name": "assetClass",
              "type": "bytes4"
            },
            {
              "internalType": "bytes",
              "name": "data",
              "type": "bytes"
            }
          ],
          "internalType": "struct LibAsset.AssetType",
          "name": "makeMatch",
          "type": "tuple"
        },
        {
          "components": [
            {
              "internalType": "bytes4",
              "name": "assetClass",
              "type": "bytes4"
            },
            {
              "internalType": "bytes",
              "name": "data",
              "type": "bytes"
            }
          ],
          "internalType": "struct LibAsset.AssetType",
          "name": "takeMatch",
          "type": "tuple"
        },
        {
          "components": [
            {
              "internalType": "uint256",
              "name": "makeValue",
              "type": "uint256"
            },
            {
              "internalType": "uint256",
              "name": "takeValue",
              "type": "uint256"
            }
          ],
          "internalType": "struct LibFill.FillResult",
          "name": "fill",
          "type": "tuple"
        },
        {
          "components": [
            {
              "internalType": "address",
              "name": "maker",
              "type": "address"
            },
            {
              "components": [
                {
                  "components": [
                    {
                      "internalType": "bytes4",
                      "name": "assetClass",
                      "type": "bytes4"
                    },
                    {
                      "internalType": "bytes",
                      "name": "data",
                      "type": "bytes"
                    }
                  ],
                  "internalType": "struct LibAsset.AssetType",
                  "name": "assetType",
                  "type": "tuple"
                },
                {
                  "internalType": "uint256",
                  "name": "value",
                  "type": "uint256"
                }
              ],
              "internalType": "struct LibAsset.Asset",
              "name": "makeAsset",
              "type": "tuple"
            },
            {
              "internalType": "address",
              "name": "taker",
              "type": "address"
            },
            {
              "components": [
                {
                  "components": [
                    {
                      "internalType": "bytes4",
                      "name": "assetClass",
                      "type": "bytes4"
                    },
                    {
                      "internalType": "bytes",
                      "name": "data",
                      "type": "bytes"
                    }
                  ],
                  "internalType": "struct LibAsset.AssetType",
                  "name": "assetType",
                  "type": "tuple"
                },
                {
                  "internalType": "uint256",
                  "name": "value",
                  "type": "uint256"
                }
              ],
              "internalType": "struct LibAsset.Asset",
              "name": "takeAsset",
              "type": "tuple"
            },
            {
              "internalType": "uint256",
              "name": "salt",
              "type": "uint256"
            },
            {
              "internalType": "uint256",
              "name": "start",
              "type": "uint256"
            },
            {
              "internalType": "uint256",
              "name": "end",
              "type": "uint256"
            },
            {
              "internalType": "bytes4",
              "name": "dataType",
              "type": "bytes4"
            },
            {
              "internalType": "bytes",
              "name": "data",
              "type": "bytes"
            }
          ],
          "internalType": "struct LibOrder.Order",
          "name": "leftOrder",
          "type": "tuple"
        },
        {
          "components": [
            {
              "internalType": "address",
              "name": "maker",
              "type": "address"
            },
            {
              "components": [
                {
                  "components": [
                    {
                      "internalType": "bytes4",
                      "name": "assetClass",
                      "type": "bytes4"
                    },
                    {
                      "internalType": "bytes",
                      "name": "data",
                      "type": "bytes"
                    }
                  ],
                  "internalType": "struct LibAsset.AssetType",
                  "name": "assetType",
                  "type": "tuple"
                },
                {
                  "internalType": "uint256",
                  "name": "value",
                  "type": "uint256"
                }
              ],
              "internalType": "struct LibAsset.Asset",
              "name": "makeAsset",
              "type": "tuple"
            },
            {
              "internalType": "address",
              "name": "taker",
              "type": "address"
            },
            {
              "components": [
                {
                  "components": [
                    {
                      "internalType": "bytes4",
                      "name": "assetClass",
                      "type": "bytes4"
                    },
                    {
                      "internalType": "bytes",
                      "name": "data",
                      "type": "bytes"
                    }
                  ],
                  "internalType": "struct LibAsset.AssetType",
                  "name": "assetType",
                  "type": "tuple"
                },
                {
                  "internalType": "uint256",
                  "name": "value",
                  "type": "uint256"
                }
              ],
              "internalType": "struct LibAsset.Asset",
              "name": "takeAsset",
              "type": "tuple"
            },
            {
              "internalType": "uint256",
              "name": "salt",
              "type": "uint256"
            },
            {
              "internalType": "uint256",
              "name": "start",
              "type": "uint256"
            },
            {
              "internalType": "uint256",
              "name": "end",
              "type": "uint256"
            },
            {
              "internalType": "bytes4",
              "name": "dataType",
              "type": "bytes4"
            },
            {
              "internalType": "bytes",
              "name": "data",
              "type": "bytes"
            }
          ],
          "internalType": "struct LibOrder.Order",
          "name": "rightOrder",
          "type": "tuple"
        }
      ],
      "name": "checkDoTransfers",
      "outputs": [],
      "stateMutability": "payable",
      "type": "function"
    },
    {
      "inputs": [],
      "name": "defaultFeeReceiver",
      "outputs": [
        {
          "internalType": "address",
          "name": "",
          "type": "address"
        }
      ],
      "stateMutability": "view",
      "type": "function"
    },
    {
      "inputs": [
        {
          "components": [
            {
              "components": [
                {
                  "internalType": "address payable",
                  "name": "account",
                  "type": "address"
                },
                {
                  "internalType": "uint96",
                  "name": "value",
                  "type": "uint96"
                }
              ],
              "internalType": "struct LibPart.Part[]",
              "name": "payouts",
              "type": "tuple[]"
            },
            {
              "components": [
                {
                  "internalType": "address payable",
                  "name": "account",
                  "type": "address"
                },
                {
                  "internalType": "uint96",
                  "name": "value",
                  "type": "uint96"
                }
              ],
              "internalType": "struct LibPart.Part[]",
              "name": "originFees",
              "type": "tuple[]"
            }
          ],
          "internalType": "struct LibOrderDataV1.DataV1",
          "name": "data",
          "type": "tuple"
        }
      ],
      "name": "encode",
      "outputs": [
        {
          "internalType": "bytes",
          "name": "",
          "type": "bytes"
        }
      ],
      "stateMutability": "pure",
      "type": "function"
    },
    {
      "inputs": [
        {
          "internalType": "address",
          "name": "",
          "type": "address"
        }
      ],
      "name": "feeReceivers",
      "outputs": [
        {
          "internalType": "address",
          "name": "",
          "type": "address"
        }
      ],
      "stateMutability": "view",
      "type": "function"
    },
    {
      "inputs": [],
      "name": "getChainId",
      "outputs": [
        {
          "internalType": "uint256",
          "name": "chainId",
          "type": "uint256"
        }
      ],
      "stateMutability": "view",
      "type": "function"
    },
    {
      "inputs": [
        {
          "internalType": "uint256",
          "name": "tokenId",
          "type": "uint256"
        }
      ],
      "name": "getRoyalties",
      "outputs": [
        {
          "components": [
            {
              "internalType": "address payable",
              "name": "recipient",
              "type": "address"
            },
            {
              "internalType": "uint256",
              "name": "value",
              "type": "uint256"
            }
          ],
          "internalType": "struct GhostMarketRoyalties.Royalty[]",
          "name": "",
          "type": "tuple[]"
        }
      ],
      "stateMutability": "view",
      "type": "function"
    },
    {
      "inputs": [],
      "name": "owner",
      "outputs": [
        {
          "internalType": "address",
          "name": "",
          "type": "address"
        }
      ],
      "stateMutability": "view",
      "type": "function"
    },
    {
      "inputs": [],
      "name": "protocolFee",
      "outputs": [
        {
          "internalType": "uint256",
          "name": "",
          "type": "uint256"
        }
      ],
      "stateMutability": "view",
      "type": "function"
    },
    {
      "inputs": [],
      "name": "renounceOwnership",
      "outputs": [],
      "stateMutability": "nonpayable",
      "type": "function"
    },
    {
      "inputs": [
        {
          "internalType": "address payable",
          "name": "newDefaultFeeReceiver",
          "type": "address"
        }
      ],
      "name": "setDefaultFeeReceiver",
      "outputs": [],
      "stateMutability": "nonpayable",
      "type": "function"
    },
    {
      "inputs": [
        {
          "internalType": "address",
          "name": "token",
          "type": "address"
        },
        {
          "internalType": "address",
          "name": "wallet",
          "type": "address"
        }
      ],
      "name": "setFeeReceiver",
      "outputs": [],
      "stateMutability": "nonpayable",
      "type": "function"
    },
    {
      "inputs": [
        {
          "internalType": "uint256",
          "name": "newProtocolFee",
          "type": "uint256"
        }
      ],
      "name": "setProtocolFee",
      "outputs": [],
      "stateMutability": "nonpayable",
      "type": "function"
    },
    {
      "inputs": [
        {
          "internalType": "bytes4",
          "name": "assetType",
          "type": "bytes4"
        },
        {
          "internalType": "address",
          "name": "proxy",
          "type": "address"
        }
      ],
      "name": "setTransferProxy",
      "outputs": [],
      "stateMutability": "nonpayable",
      "type": "function"
    },
    {
      "inputs": [
        {
          "internalType": "address",
          "name": "newOwner",
          "type": "address"
        }
      ],
      "name": "transferOwnership",
      "outputs": [],
      "stateMutability": "nonpayable",
      "type": "function"
    }
  ],
  "bytecode": "0x608060405234801561001057600080fd5b506126c7806100206000396000f3fe6080604052600436106100e85760003560e01c8063787dce3d1161008a578063b0e21e8a11610059578063b0e21e8a14610272578063bb3bafd614610288578063e66db25e146102b6578063f2fde38b146102d657600080fd5b8063787dce3d146101f45780638da5cb5b146102145780639a3c40fb14610232578063a5e633a11461025f57600080fd5b80633408e470116100c65780633408e470146101825780633abf6fd41461019f5780635a352570146101bf578063715018a6146101df57600080fd5b806302097ab1146100ed5780631cdfe3d81461014057806330c642f114610162575b600080fd5b3480156100f957600080fd5b50610123610108366004611eca565b6067602052600090815260409020546001600160a01b031681565b6040516001600160a01b0390911681526020015b60405180910390f35b34801561014c57600080fd5b5061016061015b366004611eca565b6102f6565b005b34801561016e57600080fd5b5061016061017d366004612038565b610377565b34801561018e57600080fd5b50465b604051908152602001610137565b3480156101ab57600080fd5b50606654610123906001600160a01b031681565b3480156101cb57600080fd5b506101606101da366004612053565b61043e565b3480156101eb57600080fd5b50610160610576565b34801561020057600080fd5b5061016061020f366004612287565b61061a565b34801561022057600080fd5b506033546001600160a01b0316610123565b34801561023e57600080fd5b5061025261024d36600461217e565b610679565b60405161013791906123e0565b61016061026d3660046120a5565b6106a2565b34801561027e57600080fd5b5061019160655481565b34801561029457600080fd5b506102a96102a3366004612287565b50606090565b6040516101379190612388565b3480156102c257600080fd5b506101606102d1366004611f2f565b6106b8565b3480156102e257600080fd5b506101606102f1366004611eca565b610740565b6033546001600160a01b031633146103555760405162461bcd60e51b815260206004820181905260248201527f4f776e61626c653a2063616c6c6572206973206e6f7420746865206f776e657260448201526064015b60405180910390fd5b606680546001600160a01b0319166001600160a01b0392909216919091179055565b6033546001600160a01b031633146103d15760405162461bcd60e51b815260206004820181905260248201527f4f776e61626c653a2063616c6c6572206973206e6f7420746865206f776e6572604482015260640161034c565b6001600160e01b0319821660008181526096602090815260409182902080546001600160a01b0319166001600160a01b03861690811790915591519182527f4b5aced933c0c9a88aeac3f0b3b72c5aaf75df8ebaf53225773248c4c3153593910160405180910390a25050565b600054610100900460ff1680610457575060005460ff16155b6104735760405162461bcd60e51b815260040161034c906123f3565b600054610100900460ff16158015610495576000805461ffff19166101011790555b61049d61085b565b6104a56108c7565b60966020527f32ee60289a3643a6cb0aeca36a1ab03b27923ea44c392530533c350a46f1470280546001600160a01b038681166001600160a01b0319928316179092557f8447a59b3b723f36d6429a0b90a5ab2cfb5c74ea72fafe5e54ac0162cc9a3f7980549288169282168317905563025ceed960e61b6000527f57e68b9bc09537c4b0710d702a94075f590bf1a340bb10619c4bc9ff141413c5805490911690911790556105558383610975565b61055d610a03565b801561056f576000805461ff00191690555b5050505050565b6033546001600160a01b031633146105d05760405162461bcd60e51b815260206004820181905260248201527f4f776e61626c653a2063616c6c6572206973206e6f7420746865206f776e6572604482015260640161034c565b6033546040516000916001600160a01b0316907f8be0079c531659141344cd1fd0a4f28419497f9722a3daafe3b4186f6b6457e0908390a3603380546001600160a01b0319169055565b6033546001600160a01b031633146106745760405162461bcd60e51b815260206004820181905260248201527f4f776e61626c653a2063616c6c6572206973206e6f7420746865206f776e6572604482015260640161034c565b606555565b60608160405160200161068c91906124ce565b6040516020818303038152906040529050919050565b6106af8585858585610aa0565b50505050505050565b6033546001600160a01b031633146107125760405162461bcd60e51b815260206004820181905260248201527f4f776e61626c653a2063616c6c6572206973206e6f7420746865206f776e6572604482015260640161034c565b6001600160a01b03918216600090815260676020526040902080546001600160a01b03191691909216179055565b6033546001600160a01b0316331461079a5760405162461bcd60e51b815260206004820181905260248201527f4f776e61626c653a2063616c6c6572206973206e6f7420746865206f776e6572604482015260640161034c565b6001600160a01b0381166107ff5760405162461bcd60e51b815260206004820152602660248201527f4f776e61626c653a206e6577206f776e657220697320746865207a65726f206160448201526564647265737360d01b606482015260840161034c565b6033546040516001600160a01b038084169216907f8be0079c531659141344cd1fd0a4f28419497f9722a3daafe3b4186f6b6457e090600090a3603380546001600160a01b0319166001600160a01b0392909216919091179055565b600054610100900460ff1680610874575060005460ff16155b6108905760405162461bcd60e51b815260040161034c906123f3565b600054610100900460ff161580156108b2576000805461ffff19166101011790555b80156108c4576000805461ff00191690555b50565b600054610100900460ff16806108e0575060005460ff16155b6108fc5760405162461bcd60e51b815260040161034c906123f3565b600054610100900460ff1615801561091e576000805461ffff19166101011790555b603380546001600160a01b0319163390811790915560405181906000907f8be0079c531659141344cd1fd0a4f28419497f9722a3daafe3b4186f6b6457e0908290a35080156108c4576000805461ff001916905550565b600054610100900460ff168061098e575060005460ff16155b6109aa5760405162461bcd60e51b815260040161034c906123f3565b600054610100900460ff161580156109cc576000805461ffff19166101011790555b6065839055606680546001600160a01b0319166001600160a01b03841617905580156109fe576000805461ff00191690555b505050565b600054610100900460ff1680610a1c575060005460ff16155b610a385760405162461bcd60e51b815260040161034c906123f3565b600054610100900460ff16158015610a5a576000805461ffff19166101011790555b6108b26040518060400160405280600b81526020016a11da1bdcdd13585c9ad95d60aa1b815250604051806040016040528060018152602001601960f91b815250610c1d565b6000806000610ab788600001518860000151610ca7565b86516020880151909450925090506000610ad086610d79565b90506000610add86610d79565b90506001836002811115610b0157634e487b7160e01b600052602160045260246000fd5b1415610b7a5787518751610b3a919084848e8e7f1a0388dd7519a093630516a672419a2562e0e74deb98af068657dc265f0164c9610e41565b9450610b75898960200151886000015185600001517fb45a3ba14423c8f1b71cc094845ab56b5294dbe8d8e3ba53f3cdb63d59a4044b610ebc565b610c10565b6002836002811115610b9c57634e487b7160e01b600052602160045260246000fd5b1415610c1057610bd98860200151876000015183858d8f7fb45a3ba14423c8f1b71cc094845ab56b5294dbe8d8e3ba53f3cdb63d59a4044b610e41565b885188518351929650610c10928d9291907f1a0388dd7519a093630516a672419a2562e0e74deb98af068657dc265f0164c9610ebc565b5050509550959350505050565b600054610100900460ff1680610c36575060005460ff16155b610c525760405162461bcd60e51b815260040161034c906123f3565b600054610100900460ff16158015610c74576000805461ffff19166101011790555b825160208085019190912083519184019190912060c89190915560c95580156109fe576000805461ff0019169055505050565b60006001600160e01b031983166355575f5d60e11b1415610cca57506001610d73565b6001600160e01b031982166355575f5d60e11b1415610ceb57506002610d73565b6001600160e01b031983166322ba176160e21b1415610d0c57506001610d73565b6001600160e01b031982166322ba176160e21b1415610d2d57506002610d73565b6001600160e01b0319831663025ceed960e61b1415610d4e57506001610d73565b6001600160e01b0319821663025ceed960e61b1415610d6f57506002610d73565b5060005b92915050565b604080518082019091526060808252602082015260e08201516001600160e01b031916632611a13360e11b1415610dd657610db882610100015161103c565b805151909150610dd1578151610dce9082611064565b90505b919050565b60e08201516001600160e01b03199081161415610df9578151610dce9082611064565b60405162461bcd60e51b815260206004820152601760248201527f556e6b6e6f776e204f7264657220646174612074797065000000000000000000604482015260640161034c565b6000610e54886065548860200151611145565b90506000610e65828a8a88876111d6565b9050610e758585838c8c886112be565b9050610e8985828b8a602001518c8861140e565b9050610e9d85828b89602001518c8861140e565b9050610eb085828a896000015187610ebc565b50979650505050505050565b6000805b8351811015610fe2576000610f12858381518110610eee57634e487b7160e01b600052603260045260246000fd5b6020026020010151602001516001600160601b0316886114ec90919063ffffffff16565b9050610f5b858381518110610f3757634e487b7160e01b600052603260045260246000fd5b6020026020010151602001516001600160601b03168461150b90919063ffffffff16565b92508015610fcf57610fcf60405180604001604052808a81526020018381525087878581518110610f9c57634e487b7160e01b600052603260045260246000fd5b602002602001015160000151877fa10bb5b2060a412d05113732875a5431ca23453eb93f797e0ffcb5b40e5f2c3e611517565b5080610fda81612620565b915050610ec0565b5080612710146110345760405162461bcd60e51b815260206004820152601e60248201527f53756d207061796f75747320427073206e6f7420657175616c20313030250000604482015260640161034c565b505050505050565b604080518082019091526060808252602082015281806020019051810190610d73919061220a565b6040805180820182526060808252602082015281516001808252818401909352909160009190816020015b604080518082019091526000808252602082015281526020019060019003908161108f57905050905083816000815181106110da57634e487b7160e01b600052603260045260246000fd5b6020026020010151600001906001600160a01b031690816001600160a01b0316815250506127108160008151811061112257634e487b7160e01b600052603260045260246000fd5b6020908102919091018101516001600160601b0392909216910152825250919050565b600061115b61115485856114ec565b859061150b565b905060005b82518110156111ce576111ba6111b384838151811061118f57634e487b7160e01b600052603260045260246000fd5b6020026020010151602001516001600160601b0316876114ec90919063ffffffff16565b839061150b565b9150806111c681612620565b915050611160565b509392505050565b60008060006111e88888606554611918565b909250905080156112b35784516000906001600160e01b0319166322ba176160e21b141561122f5785602001518060200190518101906112289190611ee6565b9050611268565b85516001600160e01b03191663025ceed960e61b141561126857600086602001518060200190518101906112639190611f02565b509150505b6112b16040518060400160405280888152602001848152508861128a8461193a565b887ff87e69cb514f255f3d32f9d90f25160a10d0cdefe6618a6406db334d4450595c611517565b505b509695505050505050565b845184906001600160e01b03191663025ceed960e61b148015906112f4575085516001600160e01b0319166339d690a360e11b14155b156112fe57611404565b60008087602001518060200190518101906113199190611f02565b9150915060006113298383611976565b905060005b81518110156113ff57600080611370878b86868151811061135f57634e487b7160e01b600052603260045260246000fd5b602002602001015160200151611918565b909750879250905080156113ea576113ea60405180604001604052808f8152602001838152508a8686815181106113b757634e487b7160e01b600052603260045260246000fd5b6020026020010151600001518b7fb3c5c697ec0b511b76d12f6293e6ee827b1e1df79ac7c64d0466d945904893d7611517565b505080806113f790612620565b91505061132e565b505050505b9695505050505050565b8460005b84518110156112b35760008061145d848989868151811061144357634e487b7160e01b600052603260045260246000fd5b6020026020010151602001516001600160601b0316611918565b909450849250905080156114d7576114d760405180604001604052808c815260200183815250878986815181106114a457634e487b7160e01b600052603260045260246000fd5b602002602001015160000151887fdfdfdaf4cc275341b6776a7ee23b953990b8d991717449077287da70f32cf955611517565b505080806114e490612620565b915050611412565b60006115046127106114fe8585611a82565b90611a8e565b9392505050565b600061150482846125b2565b8451516001600160e01b0319166355575f5d60e11b141561155057602085015161154b906001600160a01b03851690611a9a565b6118d2565b8451516001600160e01b0319166322ba176160e21b141561163c5760008560000151602001518060200190518101906115899190611ee6565b6322ba176160e21b600052609660209081527f32ee60289a3643a6cb0aeca36a1ab03b27923ea44c392530533c350a46f14702549088015160405163776062c360e01b81526001600160a01b038085166004830152898116602483015288811660448301526064820192909252929350169063776062c390608401600060405180830381600087803b15801561161e57600080fd5b505af1158015611632573d6000803e3d6000fd5b50505050506118d2565b8451516001600160e01b0319166339d690a360e11b141561177b576000808660000151602001518060200190518101906116769190611f02565b9150915086602001516001146116ce5760405162461bcd60e51b815260206004820152601260248201527f6572633732312076616c7565206572726f720000000000000000000000000000604482015260640161034c565b6339d690a360e11b60005260966020527f8447a59b3b723f36d6429a0b90a5ab2cfb5c74ea72fafe5e54ac0162cc9a3f7954604051637b84dc8360e11b81526001600160a01b03848116600483015288811660248301528781166044830152606482018490529091169063f709b906906084015b600060405180830381600087803b15801561175c57600080fd5b505af1158015611770573d6000803e3d6000fd5b5050505050506118d2565b8451516001600160e01b03191663025ceed960e61b1415611851576000808660000151602001518060200190518101906117b59190611f02565b63025ceed960e61b6000908152609660209081527f57e68b9bc09537c4b0710d702a94075f590bf1a340bb10619c4bc9ff141413c554908b0151604051639c1c2ee960e01b81526001600160a01b0380871660048301528c811660248301528b8116604483015260648201869052608482019290925260c060a482015260c4810193909352939550919350911690639c1c2ee99060e401611742565b8451516001600160e01b031916600090815260966020526040908190205490516354bc0cf160e01b81526001600160a01b03909116906354bc0cf19061189f90889088908890600401612450565b600060405180830381600087803b1580156118b957600080fd5b505af11580156118cd573d6000803e3d6000fd5b505050505b7fcae9d16f553e92058883de29cb3135dbc0c1e31fd7eace79fef1d80577fe482e8585858585604051611909959493929190612483565b60405180910390a15050505050565b60008061192e8561192986866114ec565b611b3d565b91509150935093915050565b6001600160a01b0380821660009081526067602052604081205490911680156119635792915050565b50506066546001600160a01b0316919050565b6040516301ffc9a760e01b815263721049d360e11b60048201526060906001600160a01b038416906301ffc9a79060240160206040518083038186803b1580156119bf57600080fd5b505afa1580156119d3573d6000803e3d6000fd5b505050506040513d601f19601f820116820180604052508101906119f79190612018565b15610d7357604051635d9dd7eb60e11b81526004810183905283906001600160a01b0382169063bb3bafd69060240160006040518083038186803b158015611a3e57600080fd5b505afa158015611a52573d6000803e3d6000fd5b505050506040513d6000823e601f3d908101601f19168201604052611a7a9190810190611f67565b915050610d73565b600061150482846125ea565b600061150482846125ca565b6000826001600160a01b03168260405160006040518083038185875af1925050503d8060008114611ae7576040519150601f19603f3d011682016040523d82523d6000602084013e611aec565b606091505b50509050806109fe5760405162461bcd60e51b815260206004820152601f60248201527f4c69625472616e7366657220455448207472616e73666572206661696c656400604482015260640161034c565b60008082841115611b5c57611b528484611b6a565b9150829050611b63565b5060009050825b9250929050565b60006115048284612609565b8035610dd181612667565b600082601f830112611b91578081fd5b81356020611ba6611ba18361258e565b61255d565b80838252828201915082860187848660061b8901011115611bc5578586fd5b855b85811015611c1857604080838b031215611bdf578788fd5b611be7612510565b8335611bf281612667565b815283870135611c018161267c565b818801528552938501939190910190600101611bc7565b5090979650505050505050565b600082601f830112611c35578081fd5b81516020611c45611ba18361258e565b80838252828201915082860187848660061b8901011115611c64578586fd5b855b85811015611c1857604080838b031215611c7e578788fd5b611c86612510565b8351611c9181612667565b815283870151611ca08161267c565b818801528552938501939190910190600101611c66565b80356001600160e01b031981168114610dd157600080fd5b600082601f830112611cdf578081fd5b813567ffffffffffffffff811115611cf957611cf9612651565b611d0c601f8201601f191660200161255d565b818152846020838601011115611d20578283fd5b816020850160208301379081016020019190915292915050565b600060408284031215611d4b578081fd5b611d53612510565b9050611d5e82611cb7565b8152602082013567ffffffffffffffff811115611d7a57600080fd5b611d8684828501611ccf565b60208301525092915050565b600060408284031215611da3578081fd5b611dab612510565b9050813567ffffffffffffffff811115611dc457600080fd5b611dd084828501611d3a565b8252506020820135602082015292915050565b60006101208284031215611df5578081fd5b611dfd612539565b9050611e0882611b76565b8152602082013567ffffffffffffffff80821115611e2557600080fd5b611e3185838601611d92565b6020840152611e4260408501611b76565b60408401526060840135915080821115611e5b57600080fd5b611e6785838601611d92565b60608401526080840135608084015260a084013560a084015260c084013560c0840152611e9660e08501611cb7565b60e084015261010091508184013581811115611eb157600080fd5b611ebd86828701611ccf565b8385015250505092915050565b600060208284031215611edb578081fd5b813561150481612667565b600060208284031215611ef7578081fd5b815161150481612667565b60008060408385031215611f14578081fd5b8251611f1f81612667565b6020939093015192949293505050565b60008060408385031215611f41578182fd5b8235611f4c81612667565b91506020830135611f5c81612667565b809150509250929050565b60006020808385031215611f79578182fd5b825167ffffffffffffffff811115611f8f578283fd5b8301601f81018513611f9f578283fd5b8051611fad611ba18261258e565b80828252848201915084840188868560061b8701011115611fcc578687fd5b8694505b83851015610eb057604080828b031215611fe8578788fd5b611ff0612510565b8251611ffb81612667565b815282880151888201528452600195909501949286019201611fd0565b600060208284031215612029578081fd5b81518015158114611504578182fd5b6000806040838503121561204a578182fd5b611f4c83611cb7565b60008060008060808587031215612068578182fd5b843561207381612667565b9350602085013561208381612667565b925060408501359150606085013561209a81612667565b939692955090935050565b600080600080600085870360c08112156120bd578384fd5b863567ffffffffffffffff808211156120d4578586fd5b6120e08a838b01611d3a565b975060208901359150808211156120f5578586fd5b6121018a838b01611d3a565b96506040603f1984011215612114578586fd5b61211c612510565b60408a0135815260608a0135602082015295506080890135925080831115612142578384fd5b61214e8a848b01611de3565b945060a0890135925080831115612163578384fd5b505061217188828901611de3565b9150509295509295909350565b60006020828403121561218f578081fd5b813567ffffffffffffffff808211156121a6578283fd5b90830190604082860312156121b9578283fd5b6121c1612510565b8235828111156121cf578485fd5b6121db87828601611b81565b8252506020830135828111156121ef578485fd5b6121fb87828601611b81565b60208301525095945050505050565b60006020828403121561221b578081fd5b815167ffffffffffffffff80821115612232578283fd5b9083019060408286031215612245578283fd5b61224d612510565b82518281111561225b578485fd5b61226787828601611c25565b82525060208301518281111561227b578485fd5b6121fb87828601611c25565b600060208284031215612298578081fd5b5035919050565b6000815180845260208085019450808401835b838110156122eb57815180516001600160a01b031688528301516001600160601b031683880152604090960195908201906001016122b2565b509495945050505050565b60008151808452815b8181101561231b576020818501810151868301820152016122ff565b8181111561232c5782602083870101525b50601f01601f19169290920160200192915050565b600081516040845263ffffffff60e01b8151166040850152602081015190506040606085015261237460808501826122f6565b602093840151949093019390935250919050565b602080825282518282018190526000919060409081850190868401855b828110156123d357815180516001600160a01b031685528601518685015292840192908501906001016123a5565b5091979650505050505050565b60208152600061150460208301846122f6565b6020808252602e908201527f496e697469616c697a61626c653a20636f6e747261637420697320616c72656160408201527f647920696e697469616c697a6564000000000000000000000000000000000000606082015260800190565b6060815260006124636060830186612341565b6001600160a01b0394851660208401529290931660409091015292915050565b60a08152600061249660a0830188612341565b6001600160a01b0396871660208401529490951660408201526001600160e01b03199283166060820152911660809091015292915050565b6020815260008251604060208401526124ea606084018261229f565b90506020840151601f19848303016040850152612507828261229f565b95945050505050565b6040805190810167ffffffffffffffff8111828210171561253357612533612651565b60405290565b604051610120810167ffffffffffffffff8111828210171561253357612533612651565b604051601f8201601f1916810167ffffffffffffffff8111828210171561258657612586612651565b604052919050565b600067ffffffffffffffff8211156125a8576125a8612651565b5060051b60200190565b600082198211156125c5576125c561263b565b500190565b6000826125e557634e487b7160e01b81526012600452602481fd5b500490565b60008160001904831182151516156126045761260461263b565b500290565b60008282101561261b5761261b61263b565b500390565b60006000198214156126345761263461263b565b5060010190565b634e487b7160e01b600052601160045260246000fd5b634e487b7160e01b600052604160045260246000fd5b6001600160a01b03811681146108c457600080fd5b6001600160601b03811681146108c457600080fdfea2646970667358221220d5c3ae1bf002f1676e3a2085e1f8ad509d6ff636e03a130d8ab86be92db4ead264736f6c63430008040033",
  "linkReferences": {},
  "deployedLinkReferences": {}
}