{
  "_format": "hh-sol-artifact-1",
  "contractName": "OrderValidatorTest",
  "sourceName": "contracts/tests/OrderValidatorTest.sol",
  "abi": [
    {
      "inputs": [],
      "name": "__OrderValidatorTest_init",
      "outputs": [],
      "stateMutability": "nonpayable",
      "type": "function"
    },
    {
      "inputs": [],
      "name": "assetTypeHash",
      "outputs": [
        {
          "internalType": "bytes32",
          "name": "",
          "type": "bytes32"
        }
      ],
      "stateMutability": "pure",
      "type": "function"
    },
    {
      "inputs": [],
      "name": "assetTypeTypeHash",
      "outputs": [
        {
          "internalType": "bytes32",
          "name": "",
          "type": "bytes32"
        }
      ],
      "stateMutability": "pure",
      "type": "function"
    },
    {
      "inputs": [],
      "name": "domainSeparator",
      "outputs": [
        {
          "internalType": "bytes32",
          "name": "",
          "type": "bytes32"
        }
      ],
      "stateMutability": "view",
      "type": "function"
    },
    {
      "inputs": [],
      "name": "getChainId",
      "outputs": [
        {
          "internalType": "uint256",
          "name": "chainId",
          "type": "uint256"
        }
      ],
      "stateMutability": "view",
      "type": "function"
    },
    {
      "inputs": [
        {
          "internalType": "bytes32",
          "name": "hash",
          "type": "bytes32"
        }
      ],
      "name": "getHashTypedDataV4",
      "outputs": [
        {
          "internalType": "bytes32",
          "name": "",
          "type": "bytes32"
        }
      ],
      "stateMutability": "view",
      "type": "function"
    },
    {
      "inputs": [
        {
          "components": [
            {
              "components": [
                {
                  "internalType": "bytes4",
                  "name": "assetClass",
                  "type": "bytes4"
                },
                {
                  "internalType": "bytes",
                  "name": "data",
                  "type": "bytes"
                }
              ],
              "internalType": "struct LibAsset.AssetType",
              "name": "assetType",
              "type": "tuple"
            },
            {
              "internalType": "uint256",
              "name": "value",
              "type": "uint256"
            }
          ],
          "internalType": "struct LibAsset.Asset",
          "name": "asset",
          "type": "tuple"
        }
      ],
      "name": "hashAsset",
      "outputs": [
        {
          "internalType": "bytes32",
          "name": "",
          "type": "bytes32"
        }
      ],
      "stateMutability": "pure",
      "type": "function"
    },
    {
      "inputs": [
        {
          "components": [
            {
              "internalType": "bytes4",
              "name": "assetClass",
              "type": "bytes4"
            },
            {
              "internalType": "bytes",
              "name": "data",
              "type": "bytes"
            }
          ],
          "internalType": "struct LibAsset.AssetType",
          "name": "assetType",
          "type": "tuple"
        }
      ],
      "name": "hashAssetType",
      "outputs": [
        {
          "internalType": "bytes32",
          "name": "",
          "type": "bytes32"
        }
      ],
      "stateMutability": "pure",
      "type": "function"
    },
    {
      "inputs": [
        {
          "components": [
            {
              "internalType": "address",
              "name": "maker",
              "type": "address"
            },
            {
              "components": [
                {
                  "components": [
                    {
                      "internalType": "bytes4",
                      "name": "assetClass",
                      "type": "bytes4"
                    },
                    {
                      "internalType": "bytes",
                      "name": "data",
                      "type": "bytes"
                    }
                  ],
                  "internalType": "struct LibAsset.AssetType",
                  "name": "assetType",
                  "type": "tuple"
                },
                {
                  "internalType": "uint256",
                  "name": "value",
                  "type": "uint256"
                }
              ],
              "internalType": "struct LibAsset.Asset",
              "name": "makeAsset",
              "type": "tuple"
            },
            {
              "internalType": "address",
              "name": "taker",
              "type": "address"
            },
            {
              "components": [
                {
                  "components": [
                    {
                      "internalType": "bytes4",
                      "name": "assetClass",
                      "type": "bytes4"
                    },
                    {
                      "internalType": "bytes",
                      "name": "data",
                      "type": "bytes"
                    }
                  ],
                  "internalType": "struct LibAsset.AssetType",
                  "name": "assetType",
                  "type": "tuple"
                },
                {
                  "internalType": "uint256",
                  "name": "value",
                  "type": "uint256"
                }
              ],
              "internalType": "struct LibAsset.Asset",
              "name": "takeAsset",
              "type": "tuple"
            },
            {
              "internalType": "uint256",
              "name": "salt",
              "type": "uint256"
            },
            {
              "internalType": "uint256",
              "name": "start",
              "type": "uint256"
            },
            {
              "internalType": "uint256",
              "name": "end",
              "type": "uint256"
            },
            {
              "internalType": "bytes4",
              "name": "dataType",
              "type": "bytes4"
            },
            {
              "internalType": "bytes",
              "name": "data",
              "type": "bytes"
            }
          ],
          "internalType": "struct LibOrder.Order",
          "name": "order",
          "type": "tuple"
        }
      ],
      "name": "hashOrder",
      "outputs": [
        {
          "internalType": "bytes32",
          "name": "",
          "type": "bytes32"
        }
      ],
      "stateMutability": "pure",
      "type": "function"
    },
    {
      "inputs": [
        {
          "internalType": "bytes32",
          "name": "intValue",
          "type": "bytes32"
        },
        {
          "internalType": "bytes4",
          "name": "strValue",
          "type": "bytes4"
        },
        {
          "internalType": "bytes",
          "name": "addr",
          "type": "bytes"
        }
      ],
      "name": "hashTest",
      "outputs": [
        {
          "internalType": "bytes32",
          "name": "",
          "type": "bytes32"
        }
      ],
      "stateMutability": "pure",
      "type": "function"
    },
    {
      "inputs": [
        {
          "internalType": "bytes",
          "name": "addr",
          "type": "bytes"
        }
      ],
      "name": "keccak256Result",
      "outputs": [
        {
          "internalType": "bytes32",
          "name": "",
          "type": "bytes32"
        }
      ],
      "stateMutability": "pure",
      "type": "function"
    },
    {
      "inputs": [
        {
          "components": [
            {
              "internalType": "address",
              "name": "maker",
              "type": "address"
            },
            {
              "components": [
                {
                  "components": [
                    {
                      "internalType": "bytes4",
                      "name": "assetClass",
                      "type": "bytes4"
                    },
                    {
                      "internalType": "bytes",
                      "name": "data",
                      "type": "bytes"
                    }
                  ],
                  "internalType": "struct LibAsset.AssetType",
                  "name": "assetType",
                  "type": "tuple"
                },
                {
                  "internalType": "uint256",
                  "name": "value",
                  "type": "uint256"
                }
              ],
              "internalType": "struct LibAsset.Asset",
              "name": "makeAsset",
              "type": "tuple"
            },
            {
              "internalType": "address",
              "name": "taker",
              "type": "address"
            },
            {
              "components": [
                {
                  "components": [
                    {
                      "internalType": "bytes4",
                      "name": "assetClass",
                      "type": "bytes4"
                    },
                    {
                      "internalType": "bytes",
                      "name": "data",
                      "type": "bytes"
                    }
                  ],
                  "internalType": "struct LibAsset.AssetType",
                  "name": "assetType",
                  "type": "tuple"
                },
                {
                  "internalType": "uint256",
                  "name": "value",
                  "type": "uint256"
                }
              ],
              "internalType": "struct LibAsset.Asset",
              "name": "takeAsset",
              "type": "tuple"
            },
            {
              "internalType": "uint256",
              "name": "salt",
              "type": "uint256"
            },
            {
              "internalType": "uint256",
              "name": "start",
              "type": "uint256"
            },
            {
              "internalType": "uint256",
              "name": "end",
              "type": "uint256"
            },
            {
              "internalType": "bytes4",
              "name": "dataType",
              "type": "bytes4"
            },
            {
              "internalType": "bytes",
              "name": "data",
              "type": "bytes"
            }
          ],
          "internalType": "struct LibOrder.Order",
          "name": "order",
          "type": "tuple"
        },
        {
          "internalType": "bytes",
          "name": "signature",
          "type": "bytes"
        }
      ],
      "name": "orderMakerEqualsOrderSigner",
      "outputs": [],
      "stateMutability": "view",
      "type": "function"
    },
    {
      "inputs": [],
      "name": "orderTypeHash",
      "outputs": [
        {
          "internalType": "bytes32",
          "name": "",
          "type": "bytes32"
        }
      ],
      "stateMutability": "pure",
      "type": "function"
    },
    {
      "inputs": [
        {
          "components": [
            {
              "internalType": "address",
              "name": "maker",
              "type": "address"
            },
            {
              "components": [
                {
                  "components": [
                    {
                      "internalType": "bytes4",
                      "name": "assetClass",
                      "type": "bytes4"
                    },
                    {
                      "internalType": "bytes",
                      "name": "data",
                      "type": "bytes"
                    }
                  ],
                  "internalType": "struct LibAsset.AssetType",
                  "name": "assetType",
                  "type": "tuple"
                },
                {
                  "internalType": "uint256",
                  "name": "value",
                  "type": "uint256"
                }
              ],
              "internalType": "struct LibAsset.Asset",
              "name": "makeAsset",
              "type": "tuple"
            },
            {
              "internalType": "address",
              "name": "taker",
              "type": "address"
            },
            {
              "components": [
                {
                  "components": [
                    {
                      "internalType": "bytes4",
                      "name": "assetClass",
                      "type": "bytes4"
                    },
                    {
                      "internalType": "bytes",
                      "name": "data",
                      "type": "bytes"
                    }
                  ],
                  "internalType": "struct LibAsset.AssetType",
                  "name": "assetType",
                  "type": "tuple"
                },
                {
                  "internalType": "uint256",
                  "name": "value",
                  "type": "uint256"
                }
              ],
              "internalType": "struct LibAsset.Asset",
              "name": "takeAsset",
              "type": "tuple"
            },
            {
              "internalType": "uint256",
              "name": "salt",
              "type": "uint256"
            },
            {
              "internalType": "uint256",
              "name": "start",
              "type": "uint256"
            },
            {
              "internalType": "uint256",
              "name": "end",
              "type": "uint256"
            },
            {
              "internalType": "bytes4",
              "name": "dataType",
              "type": "bytes4"
            },
            {
              "internalType": "bytes",
              "name": "data",
              "type": "bytes"
            }
          ],
          "internalType": "struct LibOrder.Order",
          "name": "order",
          "type": "tuple"
        },
        {
          "internalType": "bytes",
          "name": "signature",
          "type": "bytes"
        }
      ],
      "name": "recoverAddressFromSignature",
      "outputs": [
        {
          "internalType": "address",
          "name": "",
          "type": "address"
        }
      ],
      "stateMutability": "view",
      "type": "function"
    },
    {
      "inputs": [
        {
          "internalType": "bytes32",
          "name": "messageHash",
          "type": "bytes32"
        },
        {
          "internalType": "uint8",
          "name": "v",
          "type": "uint8"
        },
        {
          "internalType": "bytes32",
          "name": "r",
          "type": "bytes32"
        },
        {
          "internalType": "bytes32",
          "name": "s",
          "type": "bytes32"
        }
      ],
      "name": "recoverTest",
      "outputs": [
        {
          "internalType": "address",
          "name": "",
          "type": "address"
        }
      ],
      "stateMutability": "pure",
      "type": "function"
    },
    {
      "inputs": [
        {
          "components": [
            {
              "internalType": "address",
              "name": "maker",
              "type": "address"
            },
            {
              "components": [
                {
                  "components": [
                    {
                      "internalType": "bytes4",
                      "name": "assetClass",
                      "type": "bytes4"
                    },
                    {
                      "internalType": "bytes",
                      "name": "data",
                      "type": "bytes"
                    }
                  ],
                  "internalType": "struct LibAsset.AssetType",
                  "name": "assetType",
                  "type": "tuple"
                },
                {
                  "internalType": "uint256",
                  "name": "value",
                  "type": "uint256"
                }
              ],
              "internalType": "struct LibAsset.Asset",
              "name": "makeAsset",
              "type": "tuple"
            },
            {
              "internalType": "address",
              "name": "taker",
              "type": "address"
            },
            {
              "components": [
                {
                  "components": [
                    {
                      "internalType": "bytes4",
                      "name": "assetClass",
                      "type": "bytes4"
                    },
                    {
                      "internalType": "bytes",
                      "name": "data",
                      "type": "bytes"
                    }
                  ],
                  "internalType": "struct LibAsset.AssetType",
                  "name": "assetType",
                  "type": "tuple"
                },
                {
                  "internalType": "uint256",
                  "name": "value",
                  "type": "uint256"
                }
              ],
              "internalType": "struct LibAsset.Asset",
              "name": "takeAsset",
              "type": "tuple"
            },
            {
              "internalType": "uint256",
              "name": "salt",
              "type": "uint256"
            },
            {
              "internalType": "uint256",
              "name": "start",
              "type": "uint256"
            },
            {
              "internalType": "uint256",
              "name": "end",
              "type": "uint256"
            },
            {
              "internalType": "bytes4",
              "name": "dataType",
              "type": "bytes4"
            },
            {
              "internalType": "bytes",
              "name": "data",
              "type": "bytes"
            }
          ],
          "internalType": "struct LibOrder.Order",
          "name": "order",
          "type": "tuple"
        },
        {
          "internalType": "bytes",
          "name": "signature",
          "type": "bytes"
        }
      ],
      "name": "validateOrderTest",
      "outputs": [],
      "stateMutability": "view",
      "type": "function"
    }
  ],
  "bytecode": "0x608060405234801561001057600080fd5b506114a1806100206000396000f3fe608060405234801561001057600080fd5b50600436106101005760003560e01c806391c2600f11610097578063bb2e5a3611610066578063bb2e5a3614610277578063c56d89b51461028a578063f698da2514610292578063f6b230b61461029a57600080fd5b806391c2600f1461020557806397b014ab1461022b578063985f9a5c1461023e578063b0a2e2661461026457600080fd5b80633408e470116100d35780633408e470146101c057806342fe398b146101c65780634c1698d8146101d95780639036df81146101ec57600080fd5b806326cad81b14610105578063279758d81461012b5780632bec72d9146101565780632bfcc665146101ab575b600080fd5b610118610113366004611213565b6102c0565b6040519081526020015b60405180910390f35b61013e61013936600461117b565b6102db565b6040516001600160a01b039091168152602001610122565b610118610164366004611124565b805160209182012060408051808401959095526001600160e01b03199390931684840152606080850191909152825180850390910181526080909301909152815191012090565b6101be6101b9366004611246565b610343565b005b46610118565b6101be6101d4366004611312565b610390565b61013e6101e7366004611312565b610445565b6101186101fa3660046111d8565b805160209091012090565b7f477ed43b8020849b755512278536c3766a3b4ab547519949a75f483372493f8d610118565b6101186102393660046112df565b61045c565b7f452a0dc408cb0d27ffc3b3caff933a5208040a53a9dbecd8d89cad2c0d40e00c610118565b61011861027236600461110c565b610468565b610118610285366004611213565b610479565b6101be61048d565b610118610548565b7fdb6f72e915676cfc289da13bc4ece054fd17b1df6d77ffc4a60510718c236b08610118565b6000806102d46102cf8461141b565b610557565b9392505050565b6040805160008082526020820180845287905260ff861692820192909252606081018490526080810183905260019060a0016020604051602081039080840390855afa15801561032f573d6000803e3d6000fd5b5050604051601f1901519695505050505050565b61038b61034f84611433565b83838080601f0160208091040260200160405190810160405280939291908181526020018383808284376000920191909152506105d192505050565b505050565b81516001600160a01b0316336001600160a01b0316146104415760006103b583610779565b83519091506001600160a01b03166103d6836103d084610851565b9061089f565b6001600160a01b03161461038b5760405162461bcd60e51b815260206004820152602760248201527f6f72646572206d616b657220646f6573206e6f74206d61746368206f726465726044820152661039b4b3b732b960c91b60648201526084015b60405180910390fd5b5050565b60006102d4826103d06104578661045c565b610851565b6000806102d483610779565b600061047382610851565b92915050565b6000806102d461048884611427565b61096e565b600054610100900460ff16806104a6575060005460ff16155b6105095760405162461bcd60e51b815260206004820152602e60248201527f496e697469616c697a61626c653a20636f6e747261637420697320616c72656160448201526d191e481a5b9a5d1a585b1a5e995960921b6064820152608401610438565b600054610100900460ff1615801561052b576000805461ffff19166101011790555b6105336109c4565b8015610545576000805461ff00191690555b50565b6000610552610aa8565b905090565b80516020808301518051908201206040516000936105b4937f452a0dc408cb0d27ffc3b3caff933a5208040a53a9dbecd8d89cad2c0d40e00c939192019283526001600160e01b0319919091166020830152604082015260600190565b604051602081830303815290604052805190602001209050919050565b81516001600160a01b0316336001600160a01b0316146104415760006105f683610779565b83519091506001600160a01b03163b15610700578251630b135d3f60e11b906001600160a01b0316631626ba7e61062c84610b23565b856040518363ffffffff1660e01b815260040161064a929190611373565b60206040518083038186803b15801561066257600080fd5b505afa158015610676573d6000803e3d6000fd5b505050506040513d601f19601f8201168201806040525081019061069a91906111bc565b6001600160e01b0319161461038b5760405162461bcd60e51b815260206004820152602660248201527f436f6e74726163743a207369676e617475726520766572696669636174696f6e6044820152651032b93937b960d11b6064820152608401610438565b82516001600160a01b0316610718836103d084610b23565b6001600160a01b03161461038b5760405162461bcd60e51b815260206004820152602260248201527f557365723a207369676e617475726520766572696669636174696f6e2065727260448201526137b960f11b6064820152608401610438565b60007f477ed43b8020849b755512278536c3766a3b4ab547519949a75f483372493f8d82600001516107ae846020015161096e565b84604001516107c0866060015161096e565b608087015160a088015160c089015160e08a01516101008b015180516020918201206040516105b49b9a999897969594939201998a526001600160a01b0398891660208b015260408a0197909752949096166060880152608087019290925260a086015260c085015260e08401929092526001600160e01b0319919091166101008301526101208201526101400190565b600061047361085e610aa8565b8360405161190160f01b6020820152602281018390526042810182905260009060620160405160208183030381529060405280519060200120905092915050565b6000806000808451604114156108c95750505060208201516040830151606084015160001a610958565b8451604014156109105750505060408201516020830151907f7fffffffffffffffffffffffffffffffffffffffffffffffffffffffffffffff81169060ff1c601b01610958565b60405162461bcd60e51b815260206004820152601f60248201527f45434453413a20696e76616c6964207369676e6174757265206c656e677468006044820152606401610438565b61096486828585610c3b565b9695505050505050565b60007fdb6f72e915676cfc289da13bc4ece054fd17b1df6d77ffc4a60510718c236b0861099e8360000151610557565b6020808501516040516105b4949392019283526020830191909152604082015260600190565b600054610100900460ff16806109dd575060005460ff16155b610a405760405162461bcd60e51b815260206004820152602e60248201527f496e697469616c697a61626c653a20636f6e747261637420697320616c72656160448201526d191e481a5b9a5d1a585b1a5e995960921b6064820152608401610438565b600054610100900460ff16158015610a62576000805461ffff19166101011790555b6105336040518060400160405280600b81526020016a11da1bdcdd13585c9ad95d60aa1b815250604051806040016040528060018152602001601960f91b815250610de4565b60006105527f8b73c3c69bb8fe3d512ecc4cf759cc79239f7b179b0ffacaa9a75d522b39400f610ad760335490565b6034546040805160208101859052908101839052606081018290524660808201523060a082015260009060c0016040516020818303038152906040528051906020012090509392505050565b604080518082018252600b81526a11da1bdcdd13585c9ad95d60aa1b6020918201528151808301835260018152601960f91b9082015281517f8b73c3c69bb8fe3d512ecc4cf759cc79239f7b179b0ffacaa9a75d522b39400f8183018190527ff7645354abf2b8319c9979d69e838e27128975fec6da6f7d8206f207bba6d37b8285018190527fad7c5bef027816a800da1736444fb58a807ef4c9603b7848673f7e3a68eb14a5606084018190524660808501523060a0808601919091528651808603909101815260c08501875280519086012061190160f01b60e086015260e28501819052610102808601899052875180870390910181526101229095019096528351939094019290922060009492939290610964565b60007f7fffffffffffffffffffffffffffffff5d576e7357a4501ddfe92f46681b20a0821115610cb85760405162461bcd60e51b815260206004820152602260248201527f45434453413a20696e76616c6964207369676e6174757265202773272076616c604482015261756560f01b6064820152608401610438565b8360ff16601b1480610ccd57508360ff16601c145b610d245760405162461bcd60e51b815260206004820152602260248201527f45434453413a20696e76616c6964207369676e6174757265202776272076616c604482015261756560f01b6064820152608401610438565b6040805160008082526020820180845288905260ff871692820192909252606081018590526080810184905260019060a0016020604051602081039080840390855afa158015610d78573d6000803e3d6000fd5b5050604051601f1901519150506001600160a01b038116610ddb5760405162461bcd60e51b815260206004820152601860248201527f45434453413a20696e76616c6964207369676e617475726500000000000000006044820152606401610438565b95945050505050565b600054610100900460ff1680610dfd575060005460ff16155b610e605760405162461bcd60e51b815260206004820152602e60248201527f496e697469616c697a61626c653a20636f6e747261637420697320616c72656160448201526d191e481a5b9a5d1a585b1a5e995960921b6064820152608401610438565b600054610100900460ff16158015610e82576000805461ffff19166101011790555b8251602080850191909120835191840191909120603391909155603455801561038b576000805461ff0019169055505050565b80356001600160a01b0381168114610ecc57600080fd5b919050565b8035610ecc81611455565b600082601f830112610eec578081fd5b813567ffffffffffffffff80821115610f0757610f0761143f565b604051601f8301601f19908116603f01168101908282118183101715610f2f57610f2f61143f565b81604052838152866020858801011115610f47578485fd5b8360208701602083013792830160200193909352509392505050565b600060408284031215610f74578081fd5b50919050565b600060408284031215610f8b578081fd5b610f936113ce565b90508135610fa081611455565b8152602082013567ffffffffffffffff811115610fbc57600080fd5b610fc884828501610edc565b60208301525092915050565b600060408284031215610fe5578081fd5b610fed6113ce565b9050813567ffffffffffffffff81111561100657600080fd5b61101284828501610f7a565b8252506020820135602082015292915050565b60006101208284031215611037578081fd5b61103f6113f7565b905061104a82610eb5565b8152602082013567ffffffffffffffff8082111561106757600080fd5b61107385838601610fd4565b602084015261108460408501610eb5565b6040840152606084013591508082111561109d57600080fd5b6110a985838601610fd4565b60608401526080840135608084015260a084013560a084015260c084013560c08401526110d860e08501610ed1565b60e0840152610100915081840135818111156110f357600080fd5b6110ff86828701610edc565b8385015250505092915050565b60006020828403121561111d578081fd5b5035919050565b600080600060608486031215611138578182fd5b83359250602084013561114a81611455565b9150604084013567ffffffffffffffff811115611165578182fd5b61117186828701610edc565b9150509250925092565b60008060008060808587031215611190578081fd5b84359350602085013560ff811681146111a7578182fd5b93969395505050506040820135916060013590565b6000602082840312156111cd578081fd5b81516102d481611455565b6000602082840312156111e9578081fd5b813567ffffffffffffffff8111156111ff578182fd5b61120b84828501610edc565b949350505050565b600060208284031215611224578081fd5b813567ffffffffffffffff81111561123a578182fd5b61120b84828501610f63565b60008060006040848603121561125a578283fd5b833567ffffffffffffffff80821115611271578485fd5b908501906101208288031215611285578485fd5b9093506020850135908082111561129a578384fd5b818601915086601f8301126112ad578384fd5b8135818111156112bb578485fd5b8760208285010111156112cc578485fd5b6020830194508093505050509250925092565b6000602082840312156112f0578081fd5b813567ffffffffffffffff811115611306578182fd5b61120b84828501611025565b60008060408385031215611324578182fd5b823567ffffffffffffffff8082111561133b578384fd5b61134786838701611025565b9350602085013591508082111561135c578283fd5b5061136985828601610edc565b9150509250929050565b828152600060206040818401528351806040850152825b818110156113a65785810183015185820160600152820161138a565b818111156113b75783606083870101525b50601f01601f191692909201606001949350505050565b6040805190810167ffffffffffffffff811182821017156113f1576113f161143f565b60405290565b604051610120810167ffffffffffffffff811182821017156113f1576113f161143f565b60006104733683610f7a565b60006104733683610fd4565b60006104733683611025565b634e487b7160e01b600052604160045260246000fd5b6001600160e01b03198116811461054557600080fdfea2646970667358221220a719516247f2120cc3f30d312d950e1e9b068257cd46a16ac6829fea20bd2c8e64736f6c63430008040033",
  "linkReferences": {},
  "deployedLinkReferences": {}
}