{
  "address": "0x68F50816df86F7a2f720deFfFF2395a9F1675585",
  "abi": [
    {
      "anonymous": false,
      "inputs": [
        {
          "indexed": false,
          "internalType": "uint8",
          "name": "version",
          "type": "uint8"
        }
      ],
      "name": "Initialized",
      "type": "event"
    },
    {
      "anonymous": false,
      "inputs": [
        {
          "indexed": true,
          "internalType": "address",
          "name": "previousOwner",
          "type": "address"
        },
        {
          "indexed": true,
          "internalType": "address",
          "name": "newOwner",
          "type": "address"
        }
      ],
      "name": "OwnershipTransferred",
      "type": "event"
    },
    {
      "inputs": [],
      "name": "__OperatorRole_init",
      "outputs": [],
      "stateMutability": "nonpayable",
      "type": "function"
    },
    {
      "inputs": [
        {
          "internalType": "address",
          "name": "operator",
          "type": "address"
        }
      ],
      "name": "addOperator",
      "outputs": [],
      "stateMutability": "nonpayable",
      "type": "function"
    },
    {
      "inputs": [
        {
          "internalType": "address",
          "name": "",
          "type": "address"
        }
      ],
      "name": "operators",
      "outputs": [
        {
          "internalType": "bool",
          "name": "",
          "type": "bool"
        }
      ],
      "stateMutability": "view",
      "type": "function"
    },
    {
      "inputs": [],
      "name": "owner",
      "outputs": [
        {
          "internalType": "address",
          "name": "",
          "type": "address"
        }
      ],
      "stateMutability": "view",
      "type": "function"
    },
    {
      "inputs": [
        {
          "internalType": "address",
          "name": "operator",
          "type": "address"
        }
      ],
      "name": "removeOperator",
      "outputs": [],
      "stateMutability": "nonpayable",
      "type": "function"
    },
    {
      "inputs": [],
      "name": "renounceOwnership",
      "outputs": [],
      "stateMutability": "nonpayable",
      "type": "function"
    },
    {
      "inputs": [
        {
          "components": [
            {
              "components": [
                {
                  "internalType": "bytes4",
                  "name": "assetClass",
                  "type": "bytes4"
                },
                {
                  "internalType": "bytes",
                  "name": "data",
                  "type": "bytes"
                }
              ],
              "internalType": "struct LibAsset.AssetType",
              "name": "assetType",
              "type": "tuple"
            },
            {
              "internalType": "uint256",
              "name": "value",
              "type": "uint256"
            }
          ],
          "internalType": "struct LibAsset.Asset",
          "name": "asset",
          "type": "tuple"
        },
        {
          "internalType": "address",
          "name": "from",
          "type": "address"
        },
        {
          "internalType": "address",
          "name": "to",
          "type": "address"
        }
      ],
      "name": "transfer",
      "outputs": [],
      "stateMutability": "nonpayable",
      "type": "function"
    },
    {
      "inputs": [
        {
          "internalType": "address",
          "name": "newOwner",
          "type": "address"
        }
      ],
      "name": "transferOwnership",
      "outputs": [],
      "stateMutability": "nonpayable",
      "type": "function"
    }
  ],
  "transactionHash": "0x70a00c55c1de1a1ef6f8c0431a7007419f85753da1d431eb5c94087e777de482",
  "args": [],
  "numDeployments": 1,
  "solcInputHash": "93d952bc22fd0d04b35effdcc1f0fdff",
  "bytecode": "0x608060405234801561001057600080fd5b50610b5f806100206000396000f3fe608060405234801561001057600080fd5b50600436106100785760003560e01c806313e7c9d81461007d5780632ff26a0a146100b557806354bc0cf1146100bf578063715018a6146100d25780638da5cb5b146100da5780639870d7fe146100f5578063ac8a584a14610108578063f2fde38b1461011b575b600080fd5b6100a061008b366004610599565b60656020526000908152604090205460ff1681565b60405190151581526020015b60405180910390f35b6100bd61012e565b005b6100bd6100cd366004610674565b61024c565b6100bd610392565b6033546040516001600160a01b0390911681526020016100ac565b6100bd610103366004610599565b6103a6565b6100bd610116366004610599565b6103d2565b6100bd610129366004610599565b6103fb565b600054610100900460ff161580801561014e5750600054600160ff909116105b806101685750303b158015610168575060005460ff166001145b6101d05760405162461bcd60e51b815260206004820152602e60248201527f496e697469616c697a61626c653a20636f6e747261637420697320616c72656160448201526d191e481a5b9a5d1a585b1a5e995960921b60648201526084015b60405180910390fd5b6000805460ff1916600117905580156101f3576000805461ff0019166101001790555b6101fb610471565b610203610498565b8015610249576000805461ff0019169055604051600181527f7f26b83ff96e1f2b6a682f133852f6798a09c465da95921460cefb38474024989060200160405180910390a15b50565b3360009081526065602052604090205460ff166102bc5760405162461bcd60e51b815260206004820152602860248201527f4f70657261746f72526f6c653a2063616c6c6572206973206e6f74207468652060448201526737b832b930ba37b960c11b60648201526084016101c7565b82602001516001146103055760405162461bcd60e51b815260206004820152601260248201527122a9219b9918903b30b63ab29032b93937b960711b60448201526064016101c7565b60008084600001516020015180602001905181019061032491906108e4565b604051631558ddc360e01b815291935091506001600160a01b03831690631558ddc390610359908490889088906004016109f5565b600060405180830381600087803b15801561037357600080fd5b505af1158015610387573d6000803e3d6000fd5b505050505050505050565b61039a6104c8565b6103a46000610522565b565b6103ae6104c8565b6001600160a01b03166000908152606560205260409020805460ff19166001179055565b6103da6104c8565b6001600160a01b03166000908152606560205260409020805460ff19169055565b6104036104c8565b6001600160a01b0381166104685760405162461bcd60e51b815260206004820152602660248201527f4f776e61626c653a206e6577206f776e657220697320746865207a65726f206160448201526564647265737360d01b60648201526084016101c7565b61024981610522565b600054610100900460ff166103a45760405162461bcd60e51b81526004016101c790610ade565b600054610100900460ff166104bf5760405162461bcd60e51b81526004016101c790610ade565b6103a433610522565b6033546001600160a01b031633146103a45760405162461bcd60e51b815260206004820181905260248201527f4f776e61626c653a2063616c6c6572206973206e6f7420746865206f776e657260448201526064016101c7565b603380546001600160a01b038381166001600160a01b0319831681179093556040519116919082907f8be0079c531659141344cd1fd0a4f28419497f9722a3daafe3b4186f6b6457e090600090a35050565b6001600160a01b038116811461024957600080fd5b803561059481610574565b919050565b6000602082840312156105ab57600080fd5b81356105b681610574565b9392505050565b634e487b7160e01b600052604160045260246000fd5b604080519081016001600160401b03811182821017156105f5576105f56105bd565b60405290565b60405160a081016001600160401b03811182821017156105f5576105f56105bd565b604051601f8201601f191681016001600160401b0381118282101715610645576106456105bd565b604052919050565b60006001600160401b03821115610666576106666105bd565b50601f01601f191660200190565b60008060006060848603121561068957600080fd5b83356001600160401b03808211156106a057600080fd5b90850190604082880312156106b457600080fd5b6106bc6105d3565b8235828111156106cb57600080fd5b83016040818a0312156106dd57600080fd5b6106e56105d3565b81356001600160e01b0319811681146106fd57600080fd5b81526020828101358581111561071257600080fd5b83019450601f85018b1361072557600080fd5b8435925061073a6107358461064d565b61061d565b8381528b8285880101111561074e57600080fd5b83828701838301376000828583010152808284015250818452808601358185015283985061077d818b01610589565b975050505050505061079160408501610589565b90509250925092565b60005b838110156107b557818101518382015260200161079d565b838111156107c4576000848401525b50505050565b600082601f8301126107db57600080fd5b81516107e96107358261064d565b8181528460208386010111156107fe57600080fd5b61080f82602083016020870161079a565b949350505050565b805161059481610574565b600082601f83011261083357600080fd5b815160206001600160401b0382111561084e5761084e6105bd565b61085c818360051b0161061d565b82815260069290921b8401810191818101908684111561087b57600080fd5b8286015b848110156108d957604081890312156108985760008081fd5b6108a06105d3565b81516108ab81610574565b8152818501516001600160601b03811681146108c75760008081fd5b8186015283529183019160400161087f565b509695505050505050565b600080604083850312156108f757600080fd5b825161090281610574565b60208401519092506001600160401b038082111561091f57600080fd5b9084019060a0828703121561093357600080fd5b61093b6105fb565b8251815260208301518281111561095157600080fd5b61095d888286016107ca565b60208301525061096f60408401610817565b604082015260608301518281111561098657600080fd5b61099288828601610822565b6060830152506080830151828111156109aa57600080fd5b6109b6888286016107ca565b6080830152508093505050509250929050565b600081518084526109e181602086016020860161079a565b601f01601f19169290920160200192915050565b6060815283516060820152600060208086015160a06080850152610a1d6101008501826109c9565b6040888101516001600160a01b0390811660a088015260608a0151878403605f1990810160c08a015281518086529187019550929360009391908701905b80851015610a8f5786518051851683528801516001600160601b031688830152958701956001949094019390850190610a5b565b5060808c01519550818982030160e08a0152610aab81876109c9565b975050505050610ac5838601886001600160a01b03169052565b6001600160a01b03861685820152505050949350505050565b6020808252602b908201527f496e697469616c697a61626c653a20636f6e7472616374206973206e6f74206960408201526a6e697469616c697a696e6760a81b60608201526080019056fea2646970667358221220b934f64638bd9bd39695040ec0468bc0f707350cf63056dcff187c230a92569864736f6c63430008090033",
  "devdoc": {
    "kind": "dev",
    "methods": {
      "owner()": {
        "details": "Returns the address of the current owner."
      },
      "renounceOwnership()": {
        "details": "Leaves the contract without owner. It will not be possible to call `onlyOwner` functions anymore. Can only be called by the current owner. NOTE: Renouncing ownership will leave the contract without an owner, thereby removing any functionality that is only available to the owner."
      },
      "transfer(((bytes4,bytes),uint256),address,address)": {
        "params": {
          "asset": "asset to transfer",
          "from": "address to transfer from",
          "to": "address to transfer to"
        }
      },
      "transferOwnership(address)": {
        "details": "Transfers ownership of the contract to a new account (`newOwner`). Can only be called by the current owner."
      }
    },
    "version": 1
  },
  "userdoc": {
    "kind": "user",
    "methods": {
      "transfer(((bytes4,bytes),uint256),address,address)": {
        "notice": "Transfer method for ERC721 lazy minted nft"
      }
    },
    "notice": "ERC721 Lazy Mint Transfer Proxy Contract",
    "version": 1
  },
  "storageLayout": {
    "storage": [
      {
        "astId": 721,
        "contract": "src/transfer-proxy/ERC721LazyMintTransferProxy.sol:ERC721LazyMintTransferProxy",
        "label": "_initialized",
        "offset": 0,
        "slot": "0",
        "type": "t_uint8"
      },
      {
        "astId": 724,
        "contract": "src/transfer-proxy/ERC721LazyMintTransferProxy.sol:ERC721LazyMintTransferProxy",
        "label": "_initializing",
        "offset": 1,
        "slot": "0",
        "type": "t_bool"
      },
      {
        "astId": 4842,
        "contract": "src/transfer-proxy/ERC721LazyMintTransferProxy.sol:ERC721LazyMintTransferProxy",
        "label": "__gap",
        "offset": 0,
        "slot": "1",
        "type": "t_array(t_uint256)50_storage"
      },
      {
        "astId": 593,
        "contract": "src/transfer-proxy/ERC721LazyMintTransferProxy.sol:ERC721LazyMintTransferProxy",
        "label": "_owner",
        "offset": 0,
        "slot": "51",
        "type": "t_address"
      },
      {
        "astId": 713,
        "contract": "src/transfer-proxy/ERC721LazyMintTransferProxy.sol:ERC721LazyMintTransferProxy",
        "label": "__gap",
        "offset": 0,
        "slot": "52",
        "type": "t_array(t_uint256)49_storage"
      },
      {
        "astId": 29744,
        "contract": "src/transfer-proxy/ERC721LazyMintTransferProxy.sol:ERC721LazyMintTransferProxy",
        "label": "operators",
        "offset": 0,
        "slot": "101",
        "type": "t_mapping(t_address,t_bool)"
      }
    ],
    "types": {
      "t_address": {
        "encoding": "inplace",
        "label": "address",
        "numberOfBytes": "20"
      },
      "t_array(t_uint256)49_storage": {
        "base": "t_uint256",
        "encoding": "inplace",
        "label": "uint256[49]",
        "numberOfBytes": "1568"
      },
      "t_array(t_uint256)50_storage": {
        "base": "t_uint256",
        "encoding": "inplace",
        "label": "uint256[50]",
        "numberOfBytes": "1600"
      },
      "t_bool": {
        "encoding": "inplace",
        "label": "bool",
        "numberOfBytes": "1"
      },
      "t_mapping(t_address,t_bool)": {
        "encoding": "mapping",
        "key": "t_address",
        "label": "mapping(address => bool)",
        "numberOfBytes": "32",
        "value": "t_bool"
      },
      "t_uint256": {
        "encoding": "inplace",
        "label": "uint256",
        "numberOfBytes": "32"
      },
      "t_uint8": {
        "encoding": "inplace",
        "label": "uint8",
        "numberOfBytes": "1"
      }
    }
  }
}