{
  "_format": "hh-sol-artifact-1",
  "contractName": "TransferExecutorTest",
  "sourceName": "contracts/tests/TransferExecutorTest.sol",
  "abi": [
    {
      "anonymous": false,
      "inputs": [
        {
          "indexed": true,
          "internalType": "address",
          "name": "previousOwner",
          "type": "address"
        },
        {
          "indexed": true,
          "internalType": "address",
          "name": "newOwner",
          "type": "address"
        }
      ],
      "name": "OwnershipTransferred",
      "type": "event"
    },
    {
      "anonymous": false,
      "inputs": [
        {
          "indexed": true,
          "internalType": "bytes4",
          "name": "assetType",
          "type": "bytes4"
        },
        {
          "indexed": false,
          "internalType": "address",
          "name": "proxy",
          "type": "address"
        }
      ],
      "name": "ProxyChange",
      "type": "event"
    },
    {
      "anonymous": false,
      "inputs": [
        {
          "components": [
            {
              "components": [
                {
                  "internalType": "bytes4",
                  "name": "assetClass",
                  "type": "bytes4"
                },
                {
                  "internalType": "bytes",
                  "name": "data",
                  "type": "bytes"
                }
              ],
              "internalType": "struct LibAsset.AssetType",
              "name": "assetType",
              "type": "tuple"
            },
            {
              "internalType": "uint256",
              "name": "value",
              "type": "uint256"
            }
          ],
          "indexed": false,
          "internalType": "struct LibAsset.Asset",
          "name": "asset",
          "type": "tuple"
        },
        {
          "indexed": false,
          "internalType": "address",
          "name": "from",
          "type": "address"
        },
        {
          "indexed": false,
          "internalType": "address",
          "name": "to",
          "type": "address"
        },
        {
          "indexed": false,
          "internalType": "bytes4",
          "name": "transferDirection",
          "type": "bytes4"
        },
        {
          "indexed": false,
          "internalType": "bytes4",
          "name": "transferType",
          "type": "bytes4"
        }
      ],
      "name": "Transfer",
      "type": "event"
    },
    {
      "inputs": [
        {
          "internalType": "contract INftTransferProxy",
          "name": "_transferProxy",
          "type": "address"
        },
        {
          "internalType": "contract IERC20TransferProxy",
          "name": "_erc20TransferProxy",
          "type": "address"
        }
      ],
      "name": "__TransferExecutorTest_init",
      "outputs": [],
      "stateMutability": "nonpayable",
      "type": "function"
    },
    {
      "inputs": [],
      "name": "owner",
      "outputs": [
        {
          "internalType": "address",
          "name": "",
          "type": "address"
        }
      ],
      "stateMutability": "view",
      "type": "function"
    },
    {
      "inputs": [],
      "name": "renounceOwnership",
      "outputs": [],
      "stateMutability": "nonpayable",
      "type": "function"
    },
    {
      "inputs": [
        {
          "internalType": "bytes4",
          "name": "assetType",
          "type": "bytes4"
        },
        {
          "internalType": "address",
          "name": "proxy",
          "type": "address"
        }
      ],
      "name": "setTransferProxy",
      "outputs": [],
      "stateMutability": "nonpayable",
      "type": "function"
    },
    {
      "inputs": [
        {
          "internalType": "address",
          "name": "newOwner",
          "type": "address"
        }
      ],
      "name": "transferOwnership",
      "outputs": [],
      "stateMutability": "nonpayable",
      "type": "function"
    },
    {
      "inputs": [
        {
          "components": [
            {
              "components": [
                {
                  "internalType": "bytes4",
                  "name": "assetClass",
                  "type": "bytes4"
                },
                {
                  "internalType": "bytes",
                  "name": "data",
                  "type": "bytes"
                }
              ],
              "internalType": "struct LibAsset.AssetType",
              "name": "assetType",
              "type": "tuple"
            },
            {
              "internalType": "uint256",
              "name": "value",
              "type": "uint256"
            }
          ],
          "internalType": "struct LibAsset.Asset",
          "name": "asset",
          "type": "tuple"
        },
        {
          "internalType": "address",
          "name": "from",
          "type": "address"
        },
        {
          "internalType": "address",
          "name": "to",
          "type": "address"
        }
      ],
      "name": "transferTest",
      "outputs": [],
      "stateMutability": "payable",
      "type": "function"
    }
  ],
  "bytecode": "0x608060405234801561001057600080fd5b50610e8e806100206000396000f3fe6080604052600436106100655760003560e01c8063715018a611610043578063715018a6146100bf5780638da5cb5b146100d4578063f2fde38b1461010057600080fd5b80630dca75861461006a5780630f16ea071461007f57806330c642f11461009f575b600080fd5b61007d610078366004610b9e565b610120565b005b34801561008b57600080fd5b5061007d61009a366004610b81565b61013b565b3480156100ab57600080fd5b5061007d6100ba366004610b4b565b6102a2565b3480156100cb57600080fd5b5061007d610369565b3480156100e057600080fd5b50603354604080516001600160a01b039092168252519081900360200190f35b34801561010c57600080fd5b5061007d61011b366004610adf565b61040d565b61013661012c84610d53565b8383600080610528565b505050565b600054610100900460ff1680610154575060005460ff16155b6101bc5760405162461bcd60e51b815260206004820152602e60248201527f496e697469616c697a61626c653a20636f6e747261637420697320616c72656160448201526d191e481a5b9a5d1a585b1a5e995960921b60648201526084015b60405180910390fd5b600054610100900460ff161580156101de576000805461ffff19166101011790555b6101e6610929565b60656020527fa3a54a403e35239dc7eb7732aefb69511f04db6442fdec4991c5536d935f18a080546001600160a01b038481166001600160a01b0319928316179092557f56d09be51b6584e4bba75aba19b0e5d87280164030a68decabd019180bea2e0380549286169282168317905563025ceed960e61b6000527fb4f17b66c3cfc5778c328b9d5047d8291f97b59b22f4919f5f986ad43451df9e805490911690911790558015610136576000805461ff0019169055505050565b6033546001600160a01b031633146102fc5760405162461bcd60e51b815260206004820181905260248201527f4f776e61626c653a2063616c6c6572206973206e6f7420746865206f776e657260448201526064016101b3565b6001600160e01b0319821660008181526065602090815260409182902080546001600160a01b0319166001600160a01b03861690811790915591519182527f4b5aced933c0c9a88aeac3f0b3b72c5aaf75df8ebaf53225773248c4c3153593910160405180910390a25050565b6033546001600160a01b031633146103c35760405162461bcd60e51b815260206004820181905260248201527f4f776e61626c653a2063616c6c6572206973206e6f7420746865206f776e657260448201526064016101b3565b6033546040516000916001600160a01b0316907f8be0079c531659141344cd1fd0a4f28419497f9722a3daafe3b4186f6b6457e0908390a3603380546001600160a01b0319169055565b6033546001600160a01b031633146104675760405162461bcd60e51b815260206004820181905260248201527f4f776e61626c653a2063616c6c6572206973206e6f7420746865206f776e657260448201526064016101b3565b6001600160a01b0381166104cc5760405162461bcd60e51b815260206004820152602660248201527f4f776e61626c653a206e6577206f776e657220697320746865207a65726f206160448201526564647265737360d01b60648201526084016101b3565b6033546040516001600160a01b038084169216907f8be0079c531659141344cd1fd0a4f28419497f9722a3daafe3b4186f6b6457e090600090a3603380546001600160a01b0319166001600160a01b0392909216919091179055565b8451516001600160e01b0319166355575f5d60e11b141561056157602085015161055c906001600160a01b03851690610a1f565b6108e3565b8451516001600160e01b0319166322ba176160e21b141561064d57600085600001516020015180602001905181019061059a9190610b02565b6322ba176160e21b600052606560209081527fa3a54a403e35239dc7eb7732aefb69511f04db6442fdec4991c5536d935f18a0549088015160405163776062c360e01b81526001600160a01b038085166004830152898116602483015288811660448301526064820192909252929350169063776062c390608401600060405180830381600087803b15801561062f57600080fd5b505af1158015610643573d6000803e3d6000fd5b50505050506108e3565b8451516001600160e01b0319166339d690a360e11b141561078c576000808660000151602001518060200190518101906106879190610b1e565b9150915086602001516001146106df5760405162461bcd60e51b815260206004820152601260248201527f6572633732312076616c7565206572726f72000000000000000000000000000060448201526064016101b3565b6339d690a360e11b60005260656020527f56d09be51b6584e4bba75aba19b0e5d87280164030a68decabd019180bea2e0354604051637b84dc8360e11b81526001600160a01b03848116600483015288811660248301528781166044830152606482018490529091169063f709b906906084015b600060405180830381600087803b15801561076d57600080fd5b505af1158015610781573d6000803e3d6000fd5b5050505050506108e3565b8451516001600160e01b03191663025ceed960e61b1415610862576000808660000151602001518060200190518101906107c69190610b1e565b63025ceed960e61b6000908152606560209081527fb4f17b66c3cfc5778c328b9d5047d8291f97b59b22f4919f5f986ad43451df9e54908b0151604051639c1c2ee960e01b81526001600160a01b0380871660048301528c811660248301528b8116604483015260648201869052608482019290925260c060a482015260c4810193909352939550919350911690639c1c2ee99060e401610753565b8451516001600160e01b031916600090815260656020526040908190205490516354bc0cf160e01b81526001600160a01b03909116906354bc0cf1906108b090889088908890600401610c7b565b600060405180830381600087803b1580156108ca57600080fd5b505af11580156108de573d6000803e3d6000fd5b505050505b7fcae9d16f553e92058883de29cb3135dbc0c1e31fd7eace79fef1d80577fe482e858585858560405161091a959493929190610cae565b60405180910390a15050505050565b600054610100900460ff1680610942575060005460ff16155b6109a55760405162461bcd60e51b815260206004820152602e60248201527f496e697469616c697a61626c653a20636f6e747261637420697320616c72656160448201526d191e481a5b9a5d1a585b1a5e995960921b60648201526084016101b3565b600054610100900460ff161580156109c7576000805461ffff19166101011790555b603380546001600160a01b0319163390811790915560405181906000907f8be0079c531659141344cd1fd0a4f28419497f9722a3daafe3b4186f6b6457e0908290a3508015610a1c576000805461ff00191690555b50565b6000826001600160a01b03168260405160006040518083038185875af1925050503d8060008114610a6c576040519150601f19603f3d011682016040523d82523d6000602084013e610a71565b606091505b50509050806101365760405162461bcd60e51b815260206004820152601f60248201527f4c69625472616e7366657220455448207472616e73666572206661696c65640060448201526064016101b3565b80356001600160e01b031981168114610ada57600080fd5b919050565b600060208284031215610af0578081fd5b8135610afb81610e43565b9392505050565b600060208284031215610b13578081fd5b8151610afb81610e43565b60008060408385031215610b30578081fd5b8251610b3b81610e43565b6020939093015192949293505050565b60008060408385031215610b5d578182fd5b610b6683610ac2565b91506020830135610b7681610e43565b809150509250929050565b60008060408385031215610b93578182fd5b8235610b6681610e43565b600080600060608486031215610bb2578081fd5b833567ffffffffffffffff811115610bc8578182fd5b840160408187031215610bd9578182fd5b92506020840135610be981610e43565b91506040840135610bf981610e43565b809150509250925092565b600081516040845263ffffffff60e01b81511660408501526020808201519150604060608601528151806080870152835b81811015610c515783810183015187820160a001528201610c35565b81811115610c62578460a083890101525b5093810151908501525050601f01601f19160160a00190565b606081526000610c8e6060830186610c04565b6001600160a01b0394851660208401529290931660409091015292915050565b60a081526000610cc160a0830188610c04565b6001600160a01b0396871660208401529490951660408201526001600160e01b03199283166060820152911660809091015292915050565b6040805190810167ffffffffffffffff81118282101715610d1c57610d1c610e2d565b60405290565b604051601f8201601f1916810167ffffffffffffffff81118282101715610d4b57610d4b610e2d565b604052919050565b600060408236031215610d64578081fd5b610d6c610cf9565b823567ffffffffffffffff80821115610d83578384fd5b818501915060408236031215610d97578384fd5b610d9f610cf9565b610da883610ac2565b815260208084013583811115610dbc578687fd5b939093019236601f850112610dcf578586fd5b833583811115610de157610de1610e2d565b610df3601f8201601f19168301610d22565b93508084523682828701011115610e08578687fd5b8082860183860137830181019590955280850191909152825250918101359082015290565b634e487b7160e01b600052604160045260246000fd5b6001600160a01b0381168114610a1c57600080fdfea2646970667358221220e92ffe63ef37e3e84f5a02d4c0b5f58f98e3dc6f68235e3219f34745802b4dcf64736f6c63430008040033",
  "linkReferences": {},
  "deployedLinkReferences": {}
}