{
  "_format": "hh-sol-artifact-1",
  "contractName": "OperatorRoleTest",
  "sourceName": "contracts/tests/OperatorRoleTest.sol",
  "abi": [
    {
      "anonymous": false,
      "inputs": [
        {
          "indexed": true,
          "internalType": "address",
          "name": "previousOwner",
          "type": "address"
        },
        {
          "indexed": true,
          "internalType": "address",
          "name": "newOwner",
          "type": "address"
        }
      ],
      "name": "OwnershipTransferred",
      "type": "event"
    },
    {
      "inputs": [],
      "name": "__OperatorRoleTest_init",
      "outputs": [],
      "stateMutability": "nonpayable",
      "type": "function"
    },
    {
      "inputs": [],
      "name": "__OperatorRole_init",
      "outputs": [],
      "stateMutability": "nonpayable",
      "type": "function"
    },
    {
      "inputs": [
        {
          "internalType": "address",
          "name": "operator",
          "type": "address"
        }
      ],
      "name": "addOperator",
      "outputs": [],
      "stateMutability": "nonpayable",
      "type": "function"
    },
    {
      "inputs": [],
      "name": "getSomething",
      "outputs": [
        {
          "internalType": "uint256",
          "name": "",
          "type": "uint256"
        }
      ],
      "stateMutability": "view",
      "type": "function"
    },
    {
      "inputs": [],
      "name": "owner",
      "outputs": [
        {
          "internalType": "address",
          "name": "",
          "type": "address"
        }
      ],
      "stateMutability": "view",
      "type": "function"
    },
    {
      "inputs": [
        {
          "internalType": "address",
          "name": "operator",
          "type": "address"
        }
      ],
      "name": "removeOperator",
      "outputs": [],
      "stateMutability": "nonpayable",
      "type": "function"
    },
    {
      "inputs": [],
      "name": "renounceOwnership",
      "outputs": [],
      "stateMutability": "nonpayable",
      "type": "function"
    },
    {
      "inputs": [
        {
          "internalType": "address",
          "name": "newOwner",
          "type": "address"
        }
      ],
      "name": "transferOwnership",
      "outputs": [],
      "stateMutability": "nonpayable",
      "type": "function"
    }
  ],
  "bytecode": "0x608060405234801561001057600080fd5b506107bc806100206000396000f3fe608060405234801561001057600080fd5b50600436106100885760003560e01c80638da5cb5b1161005b5780638da5cb5b146100c25780639870d7fe146100dd578063ac8a584a146100f0578063f2fde38b1461010357600080fd5b806301ec3b6c1461008d5780632ff26a0a146100a85780634f899c28146100b2578063715018a6146100ba575b600080fd5b610095610116565b6040519081526020015b60405180910390f35b6100b0610191565b005b6100b0610254565b6100b06102fa565b6033546040516001600160a01b03909116815260200161009f565b6100b06100eb366004610758565b61039e565b6100b06100fe366004610758565b61041c565b6100b0610111366004610758565b610497565b3360009081526065602052604081205460ff1661018b5760405162461bcd60e51b815260206004820152602860248201527f4f70657261746f72526f6c653a2063616c6c6572206973206e6f74207468652060448201526737b832b930ba37b960c11b60648201526084015b60405180910390fd5b50600a90565b600054610100900460ff16806101aa575060005460ff16155b61020d5760405162461bcd60e51b815260206004820152602e60248201527f496e697469616c697a61626c653a20636f6e747261637420697320616c72656160448201526d191e481a5b9a5d1a585b1a5e995960921b6064820152608401610182565b600054610100900460ff1615801561022f576000805461ffff19166101011790555b6102376105b2565b61023f610663565b8015610251576000805461ff00191690555b50565b600054610100900460ff168061026d575060005460ff16155b6102d05760405162461bcd60e51b815260206004820152602e60248201527f496e697469616c697a61626c653a20636f6e747261637420697320616c72656160448201526d191e481a5b9a5d1a585b1a5e995960921b6064820152608401610182565b600054610100900460ff161580156102f2576000805461ffff19166101011790555b61023f610191565b6033546001600160a01b031633146103545760405162461bcd60e51b815260206004820181905260248201527f4f776e61626c653a2063616c6c6572206973206e6f7420746865206f776e65726044820152606401610182565b6033546040516000916001600160a01b0316907f8be0079c531659141344cd1fd0a4f28419497f9722a3daafe3b4186f6b6457e0908390a3603380546001600160a01b0319169055565b6033546001600160a01b031633146103f85760405162461bcd60e51b815260206004820181905260248201527f4f776e61626c653a2063616c6c6572206973206e6f7420746865206f776e65726044820152606401610182565b6001600160a01b03166000908152606560205260409020805460ff19166001179055565b6033546001600160a01b031633146104765760405162461bcd60e51b815260206004820181905260248201527f4f776e61626c653a2063616c6c6572206973206e6f7420746865206f776e65726044820152606401610182565b6001600160a01b03166000908152606560205260409020805460ff19169055565b6033546001600160a01b031633146104f15760405162461bcd60e51b815260206004820181905260248201527f4f776e61626c653a2063616c6c6572206973206e6f7420746865206f776e65726044820152606401610182565b6001600160a01b0381166105565760405162461bcd60e51b815260206004820152602660248201527f4f776e61626c653a206e6577206f776e657220697320746865207a65726f206160448201526564647265737360d01b6064820152608401610182565b6033546040516001600160a01b038084169216907f8be0079c531659141344cd1fd0a4f28419497f9722a3daafe3b4186f6b6457e090600090a3603380546001600160a01b0319166001600160a01b0392909216919091179055565b600054610100900460ff16806105cb575060005460ff16155b61062e5760405162461bcd60e51b815260206004820152602e60248201527f496e697469616c697a61626c653a20636f6e747261637420697320616c72656160448201526d191e481a5b9a5d1a585b1a5e995960921b6064820152608401610182565b600054610100900460ff1615801561023f576000805461ffff19166101011790558015610251576000805461ff001916905550565b600054610100900460ff168061067c575060005460ff16155b6106df5760405162461bcd60e51b815260206004820152602e60248201527f496e697469616c697a61626c653a20636f6e747261637420697320616c72656160448201526d191e481a5b9a5d1a585b1a5e995960921b6064820152608401610182565b600054610100900460ff16158015610701576000805461ffff19166101011790555b603380546001600160a01b0319163390811790915560405181906000907f8be0079c531659141344cd1fd0a4f28419497f9722a3daafe3b4186f6b6457e0908290a3508015610251576000805461ff001916905550565b600060208284031215610769578081fd5b81356001600160a01b038116811461077f578182fd5b939250505056fea2646970667358221220f24dabd1c2b9e116dcb68e83144d99845da5a5c9317e31ea5ddb83f002ec043864736f6c63430008040033",
  "linkReferences": {},
  "deployedLinkReferences": {}
}