{
  "_format": "hh-sol-artifact-1",
  "contractName": "ERC721PresetMinterPauserAutoIdUpgradeableCustom",
  "sourceName": "contracts/tests/tokens/ERC721PresetMinterPauserAutoIdUpgradeableCustom.sol",
  "abi": [
    {
      "anonymous": false,
      "inputs": [
        {
          "indexed": true,
          "internalType": "address",
          "name": "owner",
          "type": "address"
        },
        {
          "indexed": true,
          "internalType": "address",
          "name": "approved",
          "type": "address"
        },
        {
          "indexed": true,
          "internalType": "uint256",
          "name": "tokenId",
          "type": "uint256"
        }
      ],
      "name": "Approval",
      "type": "event"
    },
    {
      "anonymous": false,
      "inputs": [
        {
          "indexed": true,
          "internalType": "address",
          "name": "owner",
          "type": "address"
        },
        {
          "indexed": true,
          "internalType": "address",
          "name": "operator",
          "type": "address"
        },
        {
          "indexed": false,
          "internalType": "bool",
          "name": "approved",
          "type": "bool"
        }
      ],
      "name": "ApprovalForAll",
      "type": "event"
    },
    {
      "anonymous": false,
      "inputs": [
        {
          "indexed": false,
          "internalType": "address",
          "name": "account",
          "type": "address"
        }
      ],
      "name": "Paused",
      "type": "event"
    },
    {
      "anonymous": false,
      "inputs": [
        {
          "indexed": true,
          "internalType": "bytes32",
          "name": "role",
          "type": "bytes32"
        },
        {
          "indexed": true,
          "internalType": "bytes32",
          "name": "previousAdminRole",
          "type": "bytes32"
        },
        {
          "indexed": true,
          "internalType": "bytes32",
          "name": "newAdminRole",
          "type": "bytes32"
        }
      ],
      "name": "RoleAdminChanged",
      "type": "event"
    },
    {
      "anonymous": false,
      "inputs": [
        {
          "indexed": true,
          "internalType": "bytes32",
          "name": "role",
          "type": "bytes32"
        },
        {
          "indexed": true,
          "internalType": "address",
          "name": "account",
          "type": "address"
        },
        {
          "indexed": true,
          "internalType": "address",
          "name": "sender",
          "type": "address"
        }
      ],
      "name": "RoleGranted",
      "type": "event"
    },
    {
      "anonymous": false,
      "inputs": [
        {
          "indexed": true,
          "internalType": "bytes32",
          "name": "role",
          "type": "bytes32"
        },
        {
          "indexed": true,
          "internalType": "address",
          "name": "account",
          "type": "address"
        },
        {
          "indexed": true,
          "internalType": "address",
          "name": "sender",
          "type": "address"
        }
      ],
      "name": "RoleRevoked",
      "type": "event"
    },
    {
      "anonymous": false,
      "inputs": [
        {
          "indexed": true,
          "internalType": "address",
          "name": "from",
          "type": "address"
        },
        {
          "indexed": true,
          "internalType": "address",
          "name": "to",
          "type": "address"
        },
        {
          "indexed": true,
          "internalType": "uint256",
          "name": "tokenId",
          "type": "uint256"
        }
      ],
      "name": "Transfer",
      "type": "event"
    },
    {
      "anonymous": false,
      "inputs": [
        {
          "indexed": false,
          "internalType": "address",
          "name": "account",
          "type": "address"
        }
      ],
      "name": "Unpaused",
      "type": "event"
    },
    {
      "inputs": [],
      "name": "DEFAULT_ADMIN_ROLE",
      "outputs": [
        {
          "internalType": "bytes32",
          "name": "",
          "type": "bytes32"
        }
      ],
      "stateMutability": "view",
      "type": "function"
    },
    {
      "inputs": [],
      "name": "MINTER_ROLE",
      "outputs": [
        {
          "internalType": "bytes32",
          "name": "",
          "type": "bytes32"
        }
      ],
      "stateMutability": "view",
      "type": "function"
    },
    {
      "inputs": [],
      "name": "PAUSER_ROLE",
      "outputs": [
        {
          "internalType": "bytes32",
          "name": "",
          "type": "bytes32"
        }
      ],
      "stateMutability": "view",
      "type": "function"
    },
    {
      "inputs": [],
      "name": "POLYNETWORK_ROLE",
      "outputs": [
        {
          "internalType": "bytes32",
          "name": "",
          "type": "bytes32"
        }
      ],
      "stateMutability": "view",
      "type": "function"
    },
    {
      "inputs": [
        {
          "internalType": "address",
          "name": "to",
          "type": "address"
        },
        {
          "internalType": "uint256",
          "name": "tokenId",
          "type": "uint256"
        }
      ],
      "name": "approve",
      "outputs": [],
      "stateMutability": "nonpayable",
      "type": "function"
    },
    {
      "inputs": [
        {
          "internalType": "address",
          "name": "owner",
          "type": "address"
        }
      ],
      "name": "balanceOf",
      "outputs": [
        {
          "internalType": "uint256",
          "name": "",
          "type": "uint256"
        }
      ],
      "stateMutability": "view",
      "type": "function"
    },
    {
      "inputs": [
        {
          "internalType": "uint256",
          "name": "tokenId",
          "type": "uint256"
        }
      ],
      "name": "burn",
      "outputs": [],
      "stateMutability": "nonpayable",
      "type": "function"
    },
    {
      "inputs": [
        {
          "internalType": "uint256",
          "name": "tokenId",
          "type": "uint256"
        }
      ],
      "name": "getApproved",
      "outputs": [
        {
          "internalType": "address",
          "name": "",
          "type": "address"
        }
      ],
      "stateMutability": "view",
      "type": "function"
    },
    {
      "inputs": [],
      "name": "getCurrentCounter",
      "outputs": [
        {
          "internalType": "uint256",
          "name": "",
          "type": "uint256"
        }
      ],
      "stateMutability": "view",
      "type": "function"
    },
    {
      "inputs": [],
      "name": "getLastTokenID",
      "outputs": [
        {
          "internalType": "uint256",
          "name": "",
          "type": "uint256"
        }
      ],
      "stateMutability": "view",
      "type": "function"
    },
    {
      "inputs": [
        {
          "internalType": "bytes32",
          "name": "role",
          "type": "bytes32"
        }
      ],
      "name": "getRoleAdmin",
      "outputs": [
        {
          "internalType": "bytes32",
          "name": "",
          "type": "bytes32"
        }
      ],
      "stateMutability": "view",
      "type": "function"
    },
    {
      "inputs": [
        {
          "internalType": "bytes32",
          "name": "role",
          "type": "bytes32"
        },
        {
          "internalType": "uint256",
          "name": "index",
          "type": "uint256"
        }
      ],
      "name": "getRoleMember",
      "outputs": [
        {
          "internalType": "address",
          "name": "",
          "type": "address"
        }
      ],
      "stateMutability": "view",
      "type": "function"
    },
    {
      "inputs": [
        {
          "internalType": "bytes32",
          "name": "role",
          "type": "bytes32"
        }
      ],
      "name": "getRoleMemberCount",
      "outputs": [
        {
          "internalType": "uint256",
          "name": "",
          "type": "uint256"
        }
      ],
      "stateMutability": "view",
      "type": "function"
    },
    {
      "inputs": [
        {
          "internalType": "bytes32",
          "name": "role",
          "type": "bytes32"
        },
        {
          "internalType": "address",
          "name": "account",
          "type": "address"
        }
      ],
      "name": "grantRole",
      "outputs": [],
      "stateMutability": "nonpayable",
      "type": "function"
    },
    {
      "inputs": [
        {
          "internalType": "bytes32",
          "name": "role",
          "type": "bytes32"
        },
        {
          "internalType": "address",
          "name": "account",
          "type": "address"
        }
      ],
      "name": "hasRole",
      "outputs": [
        {
          "internalType": "bool",
          "name": "",
          "type": "bool"
        }
      ],
      "stateMutability": "view",
      "type": "function"
    },
    {
      "inputs": [
        {
          "internalType": "string",
          "name": "name",
          "type": "string"
        },
        {
          "internalType": "string",
          "name": "symbol",
          "type": "string"
        },
        {
          "internalType": "string",
          "name": "baseTokenURI",
          "type": "string"
        }
      ],
      "name": "initialize",
      "outputs": [],
      "stateMutability": "nonpayable",
      "type": "function"
    },
    {
      "inputs": [
        {
          "internalType": "address",
          "name": "owner",
          "type": "address"
        },
        {
          "internalType": "address",
          "name": "operator",
          "type": "address"
        }
      ],
      "name": "isApprovedForAll",
      "outputs": [
        {
          "internalType": "bool",
          "name": "",
          "type": "bool"
        }
      ],
      "stateMutability": "view",
      "type": "function"
    },
    {
      "inputs": [
        {
          "internalType": "address",
          "name": "to",
          "type": "address"
        },
        {
          "internalType": "uint256",
          "name": "tokenId",
          "type": "uint256"
        },
        {
          "internalType": "string",
          "name": "uri",
          "type": "string"
        }
      ],
      "name": "mintWithURI",
      "outputs": [],
      "stateMutability": "nonpayable",
      "type": "function"
    },
    {
      "inputs": [],
      "name": "name",
      "outputs": [
        {
          "internalType": "string",
          "name": "",
          "type": "string"
        }
      ],
      "stateMutability": "view",
      "type": "function"
    },
    {
      "inputs": [
        {
          "internalType": "uint256",
          "name": "tokenId",
          "type": "uint256"
        }
      ],
      "name": "ownerOf",
      "outputs": [
        {
          "internalType": "address",
          "name": "",
          "type": "address"
        }
      ],
      "stateMutability": "view",
      "type": "function"
    },
    {
      "inputs": [],
      "name": "pause",
      "outputs": [],
      "stateMutability": "nonpayable",
      "type": "function"
    },
    {
      "inputs": [],
      "name": "paused",
      "outputs": [
        {
          "internalType": "bool",
          "name": "",
          "type": "bool"
        }
      ],
      "stateMutability": "view",
      "type": "function"
    },
    {
      "inputs": [
        {
          "internalType": "bytes32",
          "name": "role",
          "type": "bytes32"
        },
        {
          "internalType": "address",
          "name": "account",
          "type": "address"
        }
      ],
      "name": "renounceRole",
      "outputs": [],
      "stateMutability": "nonpayable",
      "type": "function"
    },
    {
      "inputs": [
        {
          "internalType": "bytes32",
          "name": "role",
          "type": "bytes32"
        },
        {
          "internalType": "address",
          "name": "account",
          "type": "address"
        }
      ],
      "name": "revokeRole",
      "outputs": [],
      "stateMutability": "nonpayable",
      "type": "function"
    },
    {
      "inputs": [
        {
          "internalType": "address",
          "name": "from",
          "type": "address"
        },
        {
          "internalType": "address",
          "name": "to",
          "type": "address"
        },
        {
          "internalType": "uint256",
          "name": "tokenId",
          "type": "uint256"
        }
      ],
      "name": "safeTransferFrom",
      "outputs": [],
      "stateMutability": "nonpayable",
      "type": "function"
    },
    {
      "inputs": [
        {
          "internalType": "address",
          "name": "from",
          "type": "address"
        },
        {
          "internalType": "address",
          "name": "to",
          "type": "address"
        },
        {
          "internalType": "uint256",
          "name": "tokenId",
          "type": "uint256"
        },
        {
          "internalType": "bytes",
          "name": "_data",
          "type": "bytes"
        }
      ],
      "name": "safeTransferFrom",
      "outputs": [],
      "stateMutability": "nonpayable",
      "type": "function"
    },
    {
      "inputs": [
        {
          "internalType": "address",
          "name": "operator",
          "type": "address"
        },
        {
          "internalType": "bool",
          "name": "approved",
          "type": "bool"
        }
      ],
      "name": "setApprovalForAll",
      "outputs": [],
      "stateMutability": "nonpayable",
      "type": "function"
    },
    {
      "inputs": [
        {
          "internalType": "string",
          "name": "baseTokenURI",
          "type": "string"
        }
      ],
      "name": "setBaseTokenURI",
      "outputs": [],
      "stateMutability": "nonpayable",
      "type": "function"
    },
    {
      "inputs": [
        {
          "internalType": "bytes4",
          "name": "interfaceId",
          "type": "bytes4"
        }
      ],
      "name": "supportsInterface",
      "outputs": [
        {
          "internalType": "bool",
          "name": "",
          "type": "bool"
        }
      ],
      "stateMutability": "view",
      "type": "function"
    },
    {
      "inputs": [],
      "name": "symbol",
      "outputs": [
        {
          "internalType": "string",
          "name": "",
          "type": "string"
        }
      ],
      "stateMutability": "view",
      "type": "function"
    },
    {
      "inputs": [
        {
          "internalType": "uint256",
          "name": "index",
          "type": "uint256"
        }
      ],
      "name": "tokenByIndex",
      "outputs": [
        {
          "internalType": "uint256",
          "name": "",
          "type": "uint256"
        }
      ],
      "stateMutability": "view",
      "type": "function"
    },
    {
      "inputs": [
        {
          "internalType": "address",
          "name": "owner",
          "type": "address"
        },
        {
          "internalType": "uint256",
          "name": "index",
          "type": "uint256"
        }
      ],
      "name": "tokenOfOwnerByIndex",
      "outputs": [
        {
          "internalType": "uint256",
          "name": "",
          "type": "uint256"
        }
      ],
      "stateMutability": "view",
      "type": "function"
    },
    {
      "inputs": [
        {
          "internalType": "uint256",
          "name": "tokenId",
          "type": "uint256"
        }
      ],
      "name": "tokenURI",
      "outputs": [
        {
          "internalType": "string",
          "name": "",
          "type": "string"
        }
      ],
      "stateMutability": "view",
      "type": "function"
    },
    {
      "inputs": [],
      "name": "totalSupply",
      "outputs": [
        {
          "internalType": "uint256",
          "name": "",
          "type": "uint256"
        }
      ],
      "stateMutability": "view",
      "type": "function"
    },
    {
      "inputs": [
        {
          "internalType": "address",
          "name": "from",
          "type": "address"
        },
        {
          "internalType": "address",
          "name": "to",
          "type": "address"
        },
        {
          "internalType": "uint256",
          "name": "tokenId",
          "type": "uint256"
        }
      ],
      "name": "transferFrom",
      "outputs": [],
      "stateMutability": "nonpayable",
      "type": "function"
    },
    {
      "inputs": [],
      "name": "unpause",
      "outputs": [],
      "stateMutability": "nonpayable",
      "type": "function"
    }
  ],
  "bytecode": "0x608060405234801561001057600080fd5b50613303806100206000396000f3fe608060405234801561001057600080fd5b506004361061021c5760003560e01c80636352211e11610125578063a22cb465116100ad578063ca15c8731161007c578063ca15c873146104a3578063d5391393146104b6578063d547741f146104dd578063e63ab1e9146104f0578063e985e9c51461051757600080fd5b8063a22cb46514610457578063a6487c531461046a578063b88d4fde1461047d578063c87b56dd1461049057600080fd5b80639010d07c116100f45780639010d07c146103d457806391d14854146103e757806395d89b41146104205780639ceea66514610428578063a217fddf1461044f57600080fd5b80636352211e1461039e57806370a08231146103b157806373448c46146103c45780638456cb59146103cc57600080fd5b80632f745c59116101a857806342842e0e1161017757806342842e0e1461034657806342966c68146103595780634a99950b1461036c5780634f6ccce71461037f5780635c975abb1461039257600080fd5b80632f745c591461030557806330176e131461031857806336568abe1461032b5780633f4ba83a1461033e57600080fd5b80630e094137116101ef5780630e0941371461029e57806318160ddd146102b457806323b872dd146102bc578063248a9ca3146102cf5780632f2ff15d146102f257600080fd5b806301ffc9a71461022157806306fdde0314610249578063081812fc1461025e578063095ea7b314610289575b600080fd5b61023461022f366004612ef9565b610553565b60405190151581526020015b60405180910390f35b610251610564565b60405161024091906130f6565b61027161026c366004612e9e565b6105f6565b6040516001600160a01b039091168152602001610240565b61029c610297366004612e20565b610690565b005b6102a66107a6565b604051908152602001610240565b60fd546102a6565b61029c6102ca366004612d32565b6107dd565b6102a66102dd366004612e9e565b60009081526065602052604090206001015490565b61029c610300366004612eb6565b610859565b6102a6610313366004612e20565b61087b565b61029c610326366004612f31565b610911565b61029c610339366004612eb6565b6109a6565b61029c6109c8565b61029c610354366004612d32565b610a70565b61029c610367366004612e9e565b610a8b565b61029c61037a366004612e49565b610b12565b6102a661038d366004612e9e565b610c27565b61015f5460ff16610234565b6102716103ac366004612e9e565b610cc8565b6102a66103bf366004612ce6565b610d3f565b6102a6610dc6565b61029c610dd2565b6102716103e2366004612ed8565b610e76565b6102346103f5366004612eb6565b60009182526065602090815260408084206001600160a01b0393909316845291905290205460ff1690565b610251610e95565b6102a67f8a9d57248f1015d5cac20111fe2512477434cf493627e5e959ca751e593d807981565b6102a6600081565b61029c610465366004612de6565b610ea4565b61029c610478366004612f64565b610f69565b61029c61048b366004612d6d565b610fe3565b61025161049e366004612e9e565b61105f565b6102a66104b1366004612e9e565b61106a565b6102a67f9f2df0fed2c77648de5860a4cc508cd0818c85b8b8a1ab4ceeef8d981c8956a681565b61029c6104eb366004612eb6565b611081565b6102a67f65d7a28e3265b37a6474929f336521b332c1681b933f6cb9f3376673440d862a81565b610234610525366004612d00565b6001600160a01b03918216600090815260ce6020908152604080832093909416825291909152205460ff1690565b600061055e8261108b565b92915050565b606060c980546105739061320b565b80601f016020809104026020016040519081016040528092919081815260200182805461059f9061320b565b80156105ec5780601f106105c1576101008083540402835291602001916105ec565b820191906000526020600020905b8154815290600101906020018083116105cf57829003601f168201915b5050505050905090565b600081815260cb60205260408120546001600160a01b03166106745760405162461bcd60e51b815260206004820152602c60248201527f4552433732313a20617070726f76656420717565727920666f72206e6f6e657860448201526b34b9ba32b73a103a37b5b2b760a11b60648201526084015b60405180910390fd5b50600090815260cd60205260409020546001600160a01b031690565b600061069b82610cc8565b9050806001600160a01b0316836001600160a01b031614156107095760405162461bcd60e51b815260206004820152602160248201527f4552433732313a20617070726f76616c20746f2063757272656e74206f776e656044820152603960f91b606482015260840161066b565b336001600160a01b038216148061072557506107258133610525565b6107975760405162461bcd60e51b815260206004820152603860248201527f4552433732313a20617070726f76652063616c6c6572206973206e6f74206f7760448201527f6e6572206e6f7220617070726f76656420666f7220616c6c0000000000000000606482015260840161066b565b6107a183836110b0565b505050565b60006107b26101f55490565b600114156107c757506101f55490565b905090565b60016107d36101f55490565b6107c291906131b1565b6107e8335b8261111e565b61084e5760405162461bcd60e51b815260206004820152603160248201527f4552433732313a207472616e736665722063616c6c6572206973206e6f74206f6044820152701ddb995c881b9bdc88185c1c1c9bdd9959607a1b606482015260840161066b565b6107a1838383611215565b61086382826113c0565b60008281526097602052604090206107a190826113e6565b600061088683610d3f565b82106108e85760405162461bcd60e51b815260206004820152602b60248201527f455243373231456e756d657261626c653a206f776e657220696e646578206f7560448201526a74206f6620626f756e647360a81b606482015260840161066b565b506001600160a01b0391909116600090815260fb60209081526040808320938352929052205490565b61091c6000336103f5565b61098e5760405162461bcd60e51b815260206004820152603460248201527f73657442617365546f6b656e5552493a206d75737420686176652041444d494e60448201527f20726f6c6520746f206368616e67652074686973000000000000000000000000606482015260840161066b565b80516109a2906101f6906020840190612b66565b5050565b6109b082826113fb565b60008281526097602052604090206107a19082611483565b6109f27f65d7a28e3265b37a6474929f336521b332c1681b933f6cb9f3376673440d862a336103f5565b610a66576040805162461bcd60e51b81526020600482015260248101919091527f4552433732315072657365744d696e7465725061757365724175746f49643a2060448201527f6d75737420686176652070617573657220726f6c6520746f20756e7061757365606482015260840161066b565b610a6e611498565b565b6107a183838360405180602001604052806000815250610fe3565b610a94336107e2565b610b065760405162461bcd60e51b815260206004820152603060248201527f4552433732314275726e61626c653a2063616c6c6572206973206e6f74206f7760448201527f6e6572206e6f7220617070726f76656400000000000000000000000000000000606482015260840161066b565b610b0f81611536565b50565b610b3c7f8a9d57248f1015d5cac20111fe2512477434cf493627e5e959ca751e593d8079336103f5565b610bae5760405162461bcd60e51b815260206004820152603460248201527f6d696e74576974685552493a206d757374206861766520504f4c594e4554574f60448201527f524b5f524f4c4520726f6c6520746f206d696e74000000000000000000000000606482015260840161066b565b600082815260cb60205260409020546001600160a01b031615610c135760405162461bcd60e51b815260206004820152601660248201527f746f6b656e20696420616c726561647920657869737400000000000000000000604482015260640161066b565b610c1d838361153f565b6107a18282611549565b6000610c3260fd5490565b8210610c955760405162461bcd60e51b815260206004820152602c60248201527f455243373231456e756d657261626c653a20676c6f62616c20696e646578206f60448201526b7574206f6620626f756e647360a01b606482015260840161066b565b60fd8281548110610cb657634e487b7160e01b600052603260045260246000fd5b90600052602060002001549050919050565b600081815260cb60205260408120546001600160a01b03168061055e5760405162461bcd60e51b815260206004820152602960248201527f4552433732313a206f776e657220717565727920666f72206e6f6e657869737460448201526832b73a103a37b5b2b760b91b606482015260840161066b565b60006001600160a01b038216610daa5760405162461bcd60e51b815260206004820152602a60248201527f4552433732313a2062616c616e636520717565727920666f7220746865207a65604482015269726f206164647265737360b01b606482015260840161066b565b506001600160a01b0316600090815260cc602052604090205490565b60006107c26101f55490565b610dfc7f65d7a28e3265b37a6474929f336521b332c1681b933f6cb9f3376673440d862a336103f5565b610e6e5760405162461bcd60e51b815260206004820152603e60248201527f4552433732315072657365744d696e7465725061757365724175746f49643a2060448201527f6d75737420686176652070617573657220726f6c6520746f2070617573650000606482015260840161066b565b610a6e611553565b6000828152609760205260408120610e8e90836115dd565b9392505050565b606060ca80546105739061320b565b6001600160a01b038216331415610efd5760405162461bcd60e51b815260206004820152601960248201527f4552433732313a20617070726f766520746f2063616c6c657200000000000000604482015260640161066b565b33600081815260ce602090815260408083206001600160a01b03871680855290835292819020805460ff191686151590811790915590519081529192917f17307eab39ab6107e8899845ad3d59bd9653f200f220920489ca2b5937696c31910160405180910390a35050565b600054610100900460ff1680610f82575060005460ff16155b610f9e5760405162461bcd60e51b815260040161066b90613109565b600054610100900460ff16158015610fc0576000805461ffff19166101011790555b610fcb8484846115e9565b8015610fdd576000805461ff00191690555b50505050565b610fed338361111e565b6110535760405162461bcd60e51b815260206004820152603160248201527f4552433732313a207472616e736665722063616c6c6572206973206e6f74206f6044820152701ddb995c881b9bdc88185c1c1c9bdd9959607a1b606482015260840161066b565b610fdd8484848461169b565b606061055e82611719565b600081815260976020526040812061055e90611898565b6109b082826118a2565b60006001600160e01b0319821663780e9d6360e01b148061055e575061055e826118c8565b600081815260cd6020526040902080546001600160a01b0319166001600160a01b03841690811790915581906110e582610cc8565b6001600160a01b03167f8c5be1e5ebec7d5bd14f71427d1e84f3dd0314c0f7b2291e5b200ac8c7c3b92560405160405180910390a45050565b600081815260cb60205260408120546001600160a01b03166111975760405162461bcd60e51b815260206004820152602c60248201527f4552433732313a206f70657261746f7220717565727920666f72206e6f6e657860448201526b34b9ba32b73a103a37b5b2b760a11b606482015260840161066b565b60006111a283610cc8565b9050806001600160a01b0316846001600160a01b031614806111dd5750836001600160a01b03166111d2846105f6565b6001600160a01b0316145b8061120d57506001600160a01b03808216600090815260ce602090815260408083209388168352929052205460ff165b949350505050565b826001600160a01b031661122882610cc8565b6001600160a01b0316146112905760405162461bcd60e51b815260206004820152602960248201527f4552433732313a207472616e73666572206f6620746f6b656e2074686174206960448201526839903737ba1037bbb760b91b606482015260840161066b565b6001600160a01b0382166112f25760405162461bcd60e51b8152602060048201526024808201527f4552433732313a207472616e7366657220746f20746865207a65726f206164646044820152637265737360e01b606482015260840161066b565b6112fd838383611908565b6113086000826110b0565b6001600160a01b038316600090815260cc602052604081208054600192906113319084906131b1565b90915550506001600160a01b038216600090815260cc6020526040812080546001929061135f908490613166565b9091555050600081815260cb602052604080822080546001600160a01b0319166001600160a01b0386811691821790925591518493918716917fddf252ad1be2c89b69c2b068fc378daa952ba7f163c4a11628f55a4df523b3ef91a4505050565b6000828152606560205260409020600101546113dc8133611913565b6107a18383611993565b6000610e8e836001600160a01b038416611a35565b6001600160a01b03811633146114795760405162461bcd60e51b815260206004820152602f60248201527f416363657373436f6e74726f6c3a2063616e206f6e6c792072656e6f756e636560448201527f20726f6c657320666f722073656c660000000000000000000000000000000000606482015260840161066b565b6109a28282611a84565b6000610e8e836001600160a01b038416611b07565b61015f5460ff166114eb5760405162461bcd60e51b815260206004820152601460248201527f5061757361626c653a206e6f7420706175736564000000000000000000000000604482015260640161066b565b61015f805460ff191690557f5db9ee0a495bf2e6ff9c91a7834c1ba4fdd244a5e8aa4e537bd38aeae4b073aa335b6040516001600160a01b03909116815260200160405180910390a1565b610b0f81611c1e565b6109a28282611c60565b6109a28282611c7a565b61015f5460ff16156115a75760405162461bcd60e51b815260206004820152601060248201527f5061757361626c653a2070617573656400000000000000000000000000000000604482015260640161066b565b61015f805460ff191660011790557f62e78cea01bee320cd4e420270b5ea74000d11b0c9f74754ebdbfc544b05a2586115193390565b6000610e8e8383611d24565b600054610100900460ff1680611602575060005460ff16155b61161e5760405162461bcd60e51b815260040161066b90613109565b600054610100900460ff16158015611640576000805461ffff19166101011790555b611648611db8565b611650611db8565b611658611db8565b611660611db8565b61166a8484611e23565b611672611db8565b61167a611db8565b611682611eb8565b61168a611db8565b61169382611f2e565b610fcb611db8565b6116a6848484611215565b6116b284848484612047565b610fdd5760405162461bcd60e51b815260206004820152603260248201527f4552433732313a207472616e7366657220746f206e6f6e20455243373231526560448201527131b2b4bb32b91034b6b83632b6b2b73a32b960711b606482015260840161066b565b600081815260cb60205260409020546060906001600160a01b03166117a65760405162461bcd60e51b815260206004820152603160248201527f45524337323155524953746f726167653a2055524920717565727920666f722060448201527f6e6f6e6578697374656e7420746f6b656e000000000000000000000000000000606482015260840161066b565b60008281526101c36020526040812080546117c09061320b565b80601f01602080910402602001604051908101604052809291908181526020018280546117ec9061320b565b80156118395780601f1061180e57610100808354040283529160200191611839565b820191906000526020600020905b81548152906001019060200180831161181c57829003601f168201915b50505050509050600061184a61219f565b905080516000141561185d575092915050565b81511561188f57808260405160200161187792919061300a565b60405160208183030381529060405292505050919050565b61120d846121af565b600061055e825490565b6000828152606560205260409020600101546118be8133611913565b6107a18383611a84565b60006001600160e01b031982166380ac58cd60e01b14806118f957506001600160e01b03198216635b5e139f60e01b145b8061055e575061055e82612297565b6107a18383836122bc565b60008281526065602090815260408083206001600160a01b038516845290915290205460ff166109a257611951816001600160a01b0316601461232f565b61195c83602061232f565b60405160200161196d929190613039565b60408051601f198184030181529082905262461bcd60e51b825261066b916004016130f6565b60008281526065602090815260408083206001600160a01b038516845290915290205460ff166109a25760008281526065602090815260408083206001600160a01b03851684529091529020805460ff191660011790556119f13390565b6001600160a01b0316816001600160a01b0316837f2f8788117e7eff1d82e926ec794901d17c78024a50270940304540a733656f0d60405160405180910390a45050565b6000818152600183016020526040812054611a7c5750815460018181018455600084815260208082209093018490558454848252828601909352604090209190915561055e565b50600061055e565b60008281526065602090815260408083206001600160a01b038516845290915290205460ff16156109a25760008281526065602090815260408083206001600160a01b0385168085529252808320805460ff1916905551339285917ff6391f5c32d9c69d2a47ea670b442974b53935d1edc7fd64eb21e047a839171b9190a45050565b60008181526001830160205260408120548015611c14576000611b2b6001836131b1565b8554909150600090611b3f906001906131b1565b90506000866000018281548110611b6657634e487b7160e01b600052603260045260246000fd5b9060005260206000200154905080876000018481548110611b9757634e487b7160e01b600052603260045260246000fd5b600091825260208083209091019290925582815260018901909152604090208490558654879080611bd857634e487b7160e01b600052603160045260246000fd5b6001900381819060005260206000200160009055905586600101600087815260200190815260200160002060009055600194505050505061055e565b600091505061055e565b611c278161251e565b60008181526101c3602052604090208054611c419061320b565b159050610b0f5760008181526101c360205260408120610b0f91612bea565b6109a28282604051806020016040528060008152506125c5565b600082815260cb60205260409020546001600160a01b0316611d045760405162461bcd60e51b815260206004820152602e60248201527f45524337323155524953746f726167653a2055524920736574206f66206e6f6e60448201527f6578697374656e7420746f6b656e000000000000000000000000000000000000606482015260840161066b565b60008281526101c36020908152604090912082516107a192840190612b66565b81546000908210611d825760405162461bcd60e51b815260206004820152602260248201527f456e756d657261626c655365743a20696e646578206f7574206f6620626f756e604482015261647360f01b606482015260840161066b565b826000018281548110611da557634e487b7160e01b600052603260045260246000fd5b9060005260206000200154905092915050565b600054610100900460ff1680611dd1575060005460ff16155b611ded5760405162461bcd60e51b815260040161066b90613109565b600054610100900460ff16158015611e0f576000805461ffff19166101011790555b8015610b0f576000805461ff001916905550565b600054610100900460ff1680611e3c575060005460ff16155b611e585760405162461bcd60e51b815260040161066b90613109565b600054610100900460ff16158015611e7a576000805461ffff19166101011790555b8251611e8d9060c9906020860190612b66565b508151611ea19060ca906020850190612b66565b5080156107a1576000805461ff0019169055505050565b600054610100900460ff1680611ed1575060005460ff16155b611eed5760405162461bcd60e51b815260040161066b90613109565b600054610100900460ff16158015611f0f576000805461ffff19166101011790555b61015f805460ff191690558015610b0f576000805461ff001916905550565b600054610100900460ff1680611f47575060005460ff16155b611f635760405162461bcd60e51b815260040161066b90613109565b600054610100900460ff16158015611f85576000805461ffff19166101011790555b8151611f99906101f6906020850190612b66565b50611fa5600033612643565b611fcf7f9f2df0fed2c77648de5860a4cc508cd0818c85b8b8a1ab4ceeef8d981c8956a633612643565b611ff97f65d7a28e3265b37a6474929f336521b332c1681b933f6cb9f3376673440d862a33612643565b6120237f8a9d57248f1015d5cac20111fe2512477434cf493627e5e959ca751e593d807933612643565b6120326101f580546001019055565b80156109a2576000805461ff00191690555050565b60006001600160a01b0384163b1561219457604051630a85bd0160e11b81526001600160a01b0385169063150b7a029061208b9033908990889088906004016130ba565b602060405180830381600087803b1580156120a557600080fd5b505af19250505080156120d5575060408051601f3d908101601f191682019092526120d291810190612f15565b60015b61217a573d808015612103576040519150601f19603f3d011682016040523d82523d6000602084013e612108565b606091505b5080516121725760405162461bcd60e51b815260206004820152603260248201527f4552433732313a207472616e7366657220746f206e6f6e20455243373231526560448201527131b2b4bb32b91034b6b83632b6b2b73a32b960711b606482015260840161066b565b805181602001fd5b6001600160e01b031916630a85bd0160e11b14905061120d565b506001949350505050565b60606101f680546105739061320b565b600081815260cb60205260409020546060906001600160a01b031661223c5760405162461bcd60e51b815260206004820152602f60248201527f4552433732314d657461646174613a2055524920717565727920666f72206e6f60448201527f6e6578697374656e7420746f6b656e0000000000000000000000000000000000606482015260840161066b565b600061224661219f565b905060008151116122665760405180602001604052806000815250610e8e565b806122708461264d565b60405160200161228192919061300a565b6040516020818303038152906040529392505050565b60006001600160e01b03198216635a05180f60e01b148061055e575061055e82612767565b6122c783838361279c565b61015f5460ff16156107a15760405162461bcd60e51b815260206004820152602b60248201527f4552433732315061757361626c653a20746f6b656e207472616e73666572207760448201526a1a1a5b19481c185d5cd95960aa1b606482015260840161066b565b6060600061233e836002613192565b612349906002613166565b67ffffffffffffffff81111561236f57634e487b7160e01b600052604160045260246000fd5b6040519080825280601f01601f191660200182016040528015612399576020820181803683370190505b509050600360fc1b816000815181106123c257634e487b7160e01b600052603260045260246000fd5b60200101906001600160f81b031916908160001a905350600f60fb1b816001815181106123ff57634e487b7160e01b600052603260045260246000fd5b60200101906001600160f81b031916908160001a9053506000612423846002613192565b61242e906001613166565b90505b60018111156124cf577f303132333435363738396162636465660000000000000000000000000000000085600f166010811061247d57634e487b7160e01b600052603260045260246000fd5b1a60f81b8282815181106124a157634e487b7160e01b600052603260045260246000fd5b60200101906001600160f81b031916908160001a90535060049490941c936124c8816131f4565b9050612431565b508315610e8e5760405162461bcd60e51b815260206004820181905260248201527f537472696e67733a20686578206c656e67746820696e73756666696369656e74604482015260640161066b565b600061252982610cc8565b905061253781600084611908565b6125426000836110b0565b6001600160a01b038116600090815260cc6020526040812080546001929061256b9084906131b1565b9091555050600082815260cb602052604080822080546001600160a01b0319169055518391906001600160a01b038416907fddf252ad1be2c89b69c2b068fc378daa952ba7f163c4a11628f55a4df523b3ef908390a45050565b6125cf8383612854565b6125dc6000848484612047565b6107a15760405162461bcd60e51b815260206004820152603260248201527f4552433732313a207472616e7366657220746f206e6f6e20455243373231526560448201527131b2b4bb32b91034b6b83632b6b2b73a32b960711b606482015260840161066b565b61086382826129a2565b6060816126715750506040805180820190915260018152600360fc1b602082015290565b8160005b811561269b578061268581613246565b91506126949050600a8361317e565b9150612675565b60008167ffffffffffffffff8111156126c457634e487b7160e01b600052604160045260246000fd5b6040519080825280601f01601f1916602001820160405280156126ee576020820181803683370190505b5090505b841561120d576127036001836131b1565b9150612710600a86613261565b61271b906030613166565b60f81b81838151811061273e57634e487b7160e01b600052603260045260246000fd5b60200101906001600160f81b031916908160001a905350612760600a8661317e565b94506126f2565b60006001600160e01b03198216637965db0b60e01b148061055e57506301ffc9a760e01b6001600160e01b031983161461055e565b6001600160a01b0383166127f7576127f28160fd8054600083815260fe60205260408120829055600182018355919091527f9346ac6dd7de6b96975fec380d4d994c4c12e6a8897544f22915316cc6cca2800155565b61281a565b816001600160a01b0316836001600160a01b03161461281a5761281a83826129ac565b6001600160a01b038216612831576107a181612a49565b826001600160a01b0316826001600160a01b0316146107a1576107a18282612b22565b6001600160a01b0382166128aa5760405162461bcd60e51b815260206004820181905260248201527f4552433732313a206d696e7420746f20746865207a65726f2061646472657373604482015260640161066b565b600081815260cb60205260409020546001600160a01b03161561290f5760405162461bcd60e51b815260206004820152601c60248201527f4552433732313a20746f6b656e20616c7265616479206d696e74656400000000604482015260640161066b565b61291b60008383611908565b6001600160a01b038216600090815260cc60205260408120805460019290612944908490613166565b9091555050600081815260cb602052604080822080546001600160a01b0319166001600160a01b03861690811790915590518392907fddf252ad1be2c89b69c2b068fc378daa952ba7f163c4a11628f55a4df523b3ef908290a45050565b6109a28282611993565b600060016129b984610d3f565b6129c391906131b1565b600083815260fc6020526040902054909150808214612a16576001600160a01b038416600090815260fb60209081526040808320858452825280832054848452818420819055835260fc90915290208190555b50600091825260fc602090815260408084208490556001600160a01b03909416835260fb81528383209183525290812055565b60fd54600090612a5b906001906131b1565b600083815260fe602052604081205460fd8054939450909284908110612a9157634e487b7160e01b600052603260045260246000fd5b906000526020600020015490508060fd8381548110612ac057634e487b7160e01b600052603260045260246000fd5b600091825260208083209091019290925582815260fe909152604080822084905585825281205560fd805480612b0657634e487b7160e01b600052603160045260246000fd5b6001900381819060005260206000200160009055905550505050565b6000612b2d83610d3f565b6001600160a01b03909316600090815260fb60209081526040808320868452825280832085905593825260fc9052919091209190915550565b828054612b729061320b565b90600052602060002090601f016020900481019282612b945760008555612bda565b82601f10612bad57805160ff1916838001178555612bda565b82800160010185558215612bda579182015b82811115612bda578251825591602001919060010190612bbf565b50612be6929150612c20565b5090565b508054612bf69061320b565b6000825580601f10612c06575050565b601f016020900490600052602060002090810190610b0f91905b5b80821115612be65760008155600101612c21565b600067ffffffffffffffff80841115612c5057612c506132a1565b604051601f8501601f19908116603f01168101908282118183101715612c7857612c786132a1565b81604052809350858152868686011115612c9157600080fd5b858560208301376000602087830101525050509392505050565b80356001600160a01b0381168114612cc257600080fd5b919050565b600082601f830112612cd7578081fd5b610e8e83833560208501612c35565b600060208284031215612cf7578081fd5b610e8e82612cab565b60008060408385031215612d12578081fd5b612d1b83612cab565b9150612d2960208401612cab565b90509250929050565b600080600060608486031215612d46578081fd5b612d4f84612cab565b9250612d5d60208501612cab565b9150604084013590509250925092565b60008060008060808587031215612d82578081fd5b612d8b85612cab565b9350612d9960208601612cab565b925060408501359150606085013567ffffffffffffffff811115612dbb578182fd5b8501601f81018713612dcb578182fd5b612dda87823560208401612c35565b91505092959194509250565b60008060408385031215612df8578182fd5b612e0183612cab565b915060208301358015158114612e15578182fd5b809150509250929050565b60008060408385031215612e32578182fd5b612e3b83612cab565b946020939093013593505050565b600080600060608486031215612e5d578283fd5b612e6684612cab565b925060208401359150604084013567ffffffffffffffff811115612e88578182fd5b612e9486828701612cc7565b9150509250925092565b600060208284031215612eaf578081fd5b5035919050565b60008060408385031215612ec8578182fd5b82359150612d2960208401612cab565b60008060408385031215612eea578182fd5b50508035926020909101359150565b600060208284031215612f0a578081fd5b8135610e8e816132b7565b600060208284031215612f26578081fd5b8151610e8e816132b7565b600060208284031215612f42578081fd5b813567ffffffffffffffff811115612f58578182fd5b61120d84828501612cc7565b600080600060608486031215612f78578081fd5b833567ffffffffffffffff80821115612f8f578283fd5b612f9b87838801612cc7565b94506020860135915080821115612fb0578283fd5b612fbc87838801612cc7565b93506040860135915080821115612fd1578283fd5b50612e9486828701612cc7565b60008151808452612ff68160208601602086016131c8565b601f01601f19169290920160200192915050565b6000835161301c8184602088016131c8565b8351908301906130308183602088016131c8565b01949350505050565b7f416363657373436f6e74726f6c3a206163636f756e74200000000000000000008152600083516130718160178501602088016131c8565b7f206973206d697373696e6720726f6c652000000000000000000000000000000060179184019182015283516130ae8160288401602088016131c8565b01602801949350505050565b60006001600160a01b038087168352808616602084015250836040830152608060608301526130ec6080830184612fde565b9695505050505050565b602081526000610e8e6020830184612fde565b6020808252602e908201527f496e697469616c697a61626c653a20636f6e747261637420697320616c72656160408201527f647920696e697469616c697a6564000000000000000000000000000000000000606082015260800190565b6000821982111561317957613179613275565b500190565b60008261318d5761318d61328b565b500490565b60008160001904831182151516156131ac576131ac613275565b500290565b6000828210156131c3576131c3613275565b500390565b60005b838110156131e35781810151838201526020016131cb565b83811115610fdd5750506000910152565b60008161320357613203613275565b506000190190565b600181811c9082168061321f57607f821691505b6020821081141561324057634e487b7160e01b600052602260045260246000fd5b50919050565b600060001982141561325a5761325a613275565b5060010190565b6000826132705761327061328b565b500690565b634e487b7160e01b600052601160045260246000fd5b634e487b7160e01b600052601260045260246000fd5b634e487b7160e01b600052604160045260246000fd5b6001600160e01b031981168114610b0f57600080fdfea2646970667358221220bce1a3179b4604b1378990350f61a49dfa7631b44409c140cec3d0081b61928964736f6c63430008040033",
  "linkReferences": {},
  "deployedLinkReferences": {}
}