{
  "_format": "hh-sol-artifact-1",
  "contractName": "OperatorRole",
  "sourceName": "contracts/OperatorRole.sol",
  "abi": [
    {
      "anonymous": false,
      "inputs": [
        {
          "indexed": true,
          "internalType": "address",
          "name": "previousOwner",
          "type": "address"
        },
        {
          "indexed": true,
          "internalType": "address",
          "name": "newOwner",
          "type": "address"
        }
      ],
      "name": "OwnershipTransferred",
      "type": "event"
    },
    {
      "inputs": [],
      "name": "__OperatorRole_init",
      "outputs": [],
      "stateMutability": "nonpayable",
      "type": "function"
    },
    {
      "inputs": [
        {
          "internalType": "address",
          "name": "operator",
          "type": "address"
        }
      ],
      "name": "addOperator",
      "outputs": [],
      "stateMutability": "nonpayable",
      "type": "function"
    },
    {
      "inputs": [],
      "name": "owner",
      "outputs": [
        {
          "internalType": "address",
          "name": "",
          "type": "address"
        }
      ],
      "stateMutability": "view",
      "type": "function"
    },
    {
      "inputs": [
        {
          "internalType": "address",
          "name": "operator",
          "type": "address"
        }
      ],
      "name": "removeOperator",
      "outputs": [],
      "stateMutability": "nonpayable",
      "type": "function"
    },
    {
      "inputs": [],
      "name": "renounceOwnership",
      "outputs": [],
      "stateMutability": "nonpayable",
      "type": "function"
    },
    {
      "inputs": [
        {
          "internalType": "address",
          "name": "newOwner",
          "type": "address"
        }
      ],
      "name": "transferOwnership",
      "outputs": [],
      "stateMutability": "nonpayable",
      "type": "function"
    }
  ],
  "bytecode": "0x608060405234801561001057600080fd5b5061066b806100206000396000f3fe608060405234801561001057600080fd5b50600436106100725760003560e01c80639870d7fe116100505780639870d7fe146100a8578063ac8a584a146100bb578063f2fde38b146100ce57600080fd5b80632ff26a0a14610077578063715018a6146100815780638da5cb5b14610089575b600080fd5b61007f6100e1565b005b61007f6101a9565b603354604080516001600160a01b039092168252519081900360200190f35b61007f6100b6366004610607565b61024d565b61007f6100c9366004610607565b6102cb565b61007f6100dc366004610607565b610346565b600054610100900460ff16806100fa575060005460ff16155b6101625760405162461bcd60e51b815260206004820152602e60248201527f496e697469616c697a61626c653a20636f6e747261637420697320616c72656160448201526d191e481a5b9a5d1a585b1a5e995960921b60648201526084015b60405180910390fd5b600054610100900460ff16158015610184576000805461ffff19166101011790555b61018c610461565b610194610512565b80156101a6576000805461ff00191690555b50565b6033546001600160a01b031633146102035760405162461bcd60e51b815260206004820181905260248201527f4f776e61626c653a2063616c6c6572206973206e6f7420746865206f776e65726044820152606401610159565b6033546040516000916001600160a01b0316907f8be0079c531659141344cd1fd0a4f28419497f9722a3daafe3b4186f6b6457e0908390a3603380546001600160a01b0319169055565b6033546001600160a01b031633146102a75760405162461bcd60e51b815260206004820181905260248201527f4f776e61626c653a2063616c6c6572206973206e6f7420746865206f776e65726044820152606401610159565b6001600160a01b03166000908152606560205260409020805460ff19166001179055565b6033546001600160a01b031633146103255760405162461bcd60e51b815260206004820181905260248201527f4f776e61626c653a2063616c6c6572206973206e6f7420746865206f776e65726044820152606401610159565b6001600160a01b03166000908152606560205260409020805460ff19169055565b6033546001600160a01b031633146103a05760405162461bcd60e51b815260206004820181905260248201527f4f776e61626c653a2063616c6c6572206973206e6f7420746865206f776e65726044820152606401610159565b6001600160a01b0381166104055760405162461bcd60e51b815260206004820152602660248201527f4f776e61626c653a206e6577206f776e657220697320746865207a65726f206160448201526564647265737360d01b6064820152608401610159565b6033546040516001600160a01b038084169216907f8be0079c531659141344cd1fd0a4f28419497f9722a3daafe3b4186f6b6457e090600090a3603380546001600160a01b0319166001600160a01b0392909216919091179055565b600054610100900460ff168061047a575060005460ff16155b6104dd5760405162461bcd60e51b815260206004820152602e60248201527f496e697469616c697a61626c653a20636f6e747261637420697320616c72656160448201526d191e481a5b9a5d1a585b1a5e995960921b6064820152608401610159565b600054610100900460ff16158015610194576000805461ffff191661010117905580156101a6576000805461ff001916905550565b600054610100900460ff168061052b575060005460ff16155b61058e5760405162461bcd60e51b815260206004820152602e60248201527f496e697469616c697a61626c653a20636f6e747261637420697320616c72656160448201526d191e481a5b9a5d1a585b1a5e995960921b6064820152608401610159565b600054610100900460ff161580156105b0576000805461ffff19166101011790555b603380546001600160a01b0319163390811790915560405181906000907f8be0079c531659141344cd1fd0a4f28419497f9722a3daafe3b4186f6b6457e0908290a35080156101a6576000805461ff001916905550565b600060208284031215610618578081fd5b81356001600160a01b038116811461062e578182fd5b939250505056fea2646970667358221220ea20ae71181b924743f4e9a92ef84e2576102a59e2c5fd52a9ab85b3a1cdfd7c64736f6c63430008040033",
  "linkReferences": {},
  "deployedLinkReferences": {}
}