{
  "address": "0x8a0D1Cc7b80d0daB8c52B3Ed3866d7e6E987cF80",
  "abi": [
    {
      "anonymous": false,
      "inputs": [
        {
          "indexed": false,
          "internalType": "bool",
          "name": "result",
          "type": "bool"
        },
        {
          "indexed": true,
          "internalType": "address",
          "name": "sender",
          "type": "address"
        }
      ],
      "name": "Execution",
      "type": "event"
    },
    {
      "anonymous": false,
      "inputs": [
        {
          "indexed": false,
          "internalType": "uint8",
          "name": "version",
          "type": "uint8"
        }
      ],
      "name": "Initialized",
      "type": "event"
    },
    {
      "anonymous": false,
      "inputs": [
        {
          "indexed": true,
          "internalType": "address",
          "name": "previousOwner",
          "type": "address"
        },
        {
          "indexed": true,
          "internalType": "address",
          "name": "newOwner",
          "type": "address"
        }
      ],
      "name": "OwnershipTransferred",
      "type": "event"
    },
    {
      "anonymous": false,
      "inputs": [
        {
          "indexed": false,
          "internalType": "address",
          "name": "account",
          "type": "address"
        }
      ],
      "name": "Paused",
      "type": "event"
    },
    {
      "anonymous": false,
      "inputs": [
        {
          "indexed": false,
          "internalType": "address",
          "name": "account",
          "type": "address"
        }
      ],
      "name": "Unpaused",
      "type": "event"
    },
    {
      "inputs": [
        {
          "internalType": "address",
          "name": "_exchangeV2",
          "type": "address"
        },
        {
          "internalType": "address",
          "name": "_rarible",
          "type": "address"
        },
        {
          "internalType": "address",
          "name": "_wyvern",
          "type": "address"
        },
        {
          "internalType": "address",
          "name": "_seaport",
          "type": "address"
        },
        {
          "internalType": "address",
          "name": "_x2y2",
          "type": "address"
        },
        {
          "internalType": "address",
          "name": "_looksrare",
          "type": "address"
        },
        {
          "internalType": "address",
          "name": "_sudoswap",
          "type": "address"
        },
        {
          "internalType": "address",
          "name": "_blur",
          "type": "address"
        }
      ],
      "name": "__ExchangeWrapper_init",
      "outputs": [],
      "stateMutability": "nonpayable",
      "type": "function"
    },
    {
      "inputs": [],
      "name": "blur",
      "outputs": [
        {
          "internalType": "address",
          "name": "",
          "type": "address"
        }
      ],
      "stateMutability": "view",
      "type": "function"
    },
    {
      "inputs": [
        {
          "components": [
            {
              "internalType": "enum ExchangeWrapperCore.Markets",
              "name": "marketId",
              "type": "uint8"
            },
            {
              "internalType": "uint256",
              "name": "amount",
              "type": "uint256"
            },
            {
              "internalType": "uint256",
              "name": "fees",
              "type": "uint256"
            },
            {
              "internalType": "bytes",
              "name": "data",
              "type": "bytes"
            }
          ],
          "internalType": "struct ExchangeWrapperCore.PurchaseDetails[]",
          "name": "purchaseDetails",
          "type": "tuple[]"
        },
        {
          "internalType": "address",
          "name": "feeRecipientFirst",
          "type": "address"
        },
        {
          "internalType": "address",
          "name": "feeRecipientSecond",
          "type": "address"
        },
        {
          "internalType": "bool",
          "name": "allowFail",
          "type": "bool"
        }
      ],
      "name": "bulkPurchase",
      "outputs": [],
      "stateMutability": "payable",
      "type": "function"
    },
    {
      "inputs": [
        {
          "components": [
            {
              "internalType": "enum ExchangeWrapperCore.Markets",
              "name": "marketId",
              "type": "uint8"
            },
            {
              "internalType": "uint256",
              "name": "amount",
              "type": "uint256"
            },
            {
              "internalType": "uint256",
              "name": "fees",
              "type": "uint256"
            },
            {
              "internalType": "bytes",
              "name": "data",
              "type": "bytes"
            }
          ],
          "internalType": "struct ExchangeWrapperCore.PurchaseDetails[]",
          "name": "purchaseDetails",
          "type": "tuple[]"
        },
        {
          "internalType": "address",
          "name": "feeRecipientFirst",
          "type": "address"
        },
        {
          "internalType": "address",
          "name": "feeRecipientSecond",
          "type": "address"
        },
        {
          "internalType": "bool",
          "name": "allowFail",
          "type": "bool"
        },
        {
          "components": [
            {
              "internalType": "bytes",
              "name": "path",
              "type": "bytes"
            },
            {
              "internalType": "uint256",
              "name": "amountOut",
              "type": "uint256"
            },
            {
              "internalType": "uint256",
              "name": "amountInMaximum",
              "type": "uint256"
            },
            {
              "internalType": "bool",
              "name": "unwrap",
              "type": "bool"
            }
          ],
          "internalType": "struct ExchangeWrapperCore.SwapDetailsIn",
          "name": "swapDetails",
          "type": "tuple"
        }
      ],
      "name": "bulkPurchaseWithSwap",
      "outputs": [],
      "stateMutability": "payable",
      "type": "function"
    },
    {
      "inputs": [
        {
          "components": [
            {
              "internalType": "enum ExchangeWrapperCore.Markets",
              "name": "marketId",
              "type": "uint8"
            },
            {
              "internalType": "uint256",
              "name": "amount",
              "type": "uint256"
            },
            {
              "internalType": "uint256",
              "name": "fees",
              "type": "uint256"
            },
            {
              "internalType": "bytes",
              "name": "data",
              "type": "bytes"
            }
          ],
          "internalType": "struct ExchangeWrapperCore.PurchaseDetails[]",
          "name": "purchaseDetails",
          "type": "tuple[]"
        },
        {
          "internalType": "address",
          "name": "feeRecipientFirst",
          "type": "address"
        },
        {
          "internalType": "address",
          "name": "feeRecipientSecond",
          "type": "address"
        },
        {
          "internalType": "bool",
          "name": "allowFail",
          "type": "bool"
        },
        {
          "components": [
            {
              "internalType": "address[]",
              "name": "path",
              "type": "address[]"
            },
            {
              "internalType": "uint256",
              "name": "amountOut",
              "type": "uint256"
            },
            {
              "internalType": "uint256",
              "name": "amountInMaximum",
              "type": "uint256"
            },
            {
              "internalType": "uint256[]",
              "name": "binSteps",
              "type": "uint256[]"
            },
            {
              "internalType": "bool",
              "name": "unwrap",
              "type": "bool"
            }
          ],
          "internalType": "struct ExchangeWrapperCore.SwapV2DetailsIn",
          "name": "swapDetails",
          "type": "tuple"
        }
      ],
      "name": "bulkPurchaseWithV2Swap",
      "outputs": [],
      "stateMutability": "payable",
      "type": "function"
    },
    {
      "inputs": [],
      "name": "erc20TransferProxy",
      "outputs": [
        {
          "internalType": "address",
          "name": "",
          "type": "address"
        }
      ],
      "stateMutability": "view",
      "type": "function"
    },
    {
      "inputs": [],
      "name": "exchangeV2",
      "outputs": [
        {
          "internalType": "address",
          "name": "",
          "type": "address"
        }
      ],
      "stateMutability": "view",
      "type": "function"
    },
    {
      "inputs": [],
      "name": "looksrare",
      "outputs": [
        {
          "internalType": "address",
          "name": "",
          "type": "address"
        }
      ],
      "stateMutability": "view",
      "type": "function"
    },
    {
      "inputs": [
        {
          "internalType": "address",
          "name": "",
          "type": "address"
        },
        {
          "internalType": "address",
          "name": "",
          "type": "address"
        },
        {
          "internalType": "uint256[]",
          "name": "",
          "type": "uint256[]"
        },
        {
          "internalType": "uint256[]",
          "name": "",
          "type": "uint256[]"
        },
        {
          "internalType": "bytes",
          "name": "",
          "type": "bytes"
        }
      ],
      "name": "onERC1155BatchReceived",
      "outputs": [
        {
          "internalType": "bytes4",
          "name": "",
          "type": "bytes4"
        }
      ],
      "stateMutability": "nonpayable",
      "type": "function"
    },
    {
      "inputs": [
        {
          "internalType": "address",
          "name": "",
          "type": "address"
        },
        {
          "internalType": "address",
          "name": "",
          "type": "address"
        },
        {
          "internalType": "uint256",
          "name": "",
          "type": "uint256"
        },
        {
          "internalType": "uint256",
          "name": "",
          "type": "uint256"
        },
        {
          "internalType": "bytes",
          "name": "",
          "type": "bytes"
        }
      ],
      "name": "onERC1155Received",
      "outputs": [
        {
          "internalType": "bytes4",
          "name": "",
          "type": "bytes4"
        }
      ],
      "stateMutability": "nonpayable",
      "type": "function"
    },
    {
      "inputs": [
        {
          "internalType": "address",
          "name": "",
          "type": "address"
        },
        {
          "internalType": "address",
          "name": "",
          "type": "address"
        },
        {
          "internalType": "uint256",
          "name": "",
          "type": "uint256"
        },
        {
          "internalType": "bytes",
          "name": "",
          "type": "bytes"
        }
      ],
      "name": "onERC721Received",
      "outputs": [
        {
          "internalType": "bytes4",
          "name": "",
          "type": "bytes4"
        }
      ],
      "stateMutability": "nonpayable",
      "type": "function"
    },
    {
      "inputs": [],
      "name": "owner",
      "outputs": [
        {
          "internalType": "address",
          "name": "",
          "type": "address"
        }
      ],
      "stateMutability": "view",
      "type": "function"
    },
    {
      "inputs": [],
      "name": "pause",
      "outputs": [],
      "stateMutability": "nonpayable",
      "type": "function"
    },
    {
      "inputs": [],
      "name": "paused",
      "outputs": [
        {
          "internalType": "bool",
          "name": "",
          "type": "bool"
        }
      ],
      "stateMutability": "view",
      "type": "function"
    },
    {
      "inputs": [],
      "name": "rarible",
      "outputs": [
        {
          "internalType": "address",
          "name": "",
          "type": "address"
        }
      ],
      "stateMutability": "view",
      "type": "function"
    },
    {
      "inputs": [],
      "name": "renounceOwnership",
      "outputs": [],
      "stateMutability": "nonpayable",
      "type": "function"
    },
    {
      "inputs": [],
      "name": "seaport",
      "outputs": [
        {
          "internalType": "address",
          "name": "",
          "type": "address"
        }
      ],
      "stateMutability": "view",
      "type": "function"
    },
    {
      "inputs": [
        {
          "internalType": "address",
          "name": "_blur",
          "type": "address"
        }
      ],
      "name": "setBlur",
      "outputs": [],
      "stateMutability": "nonpayable",
      "type": "function"
    },
    {
      "inputs": [
        {
          "internalType": "address",
          "name": "_rarible",
          "type": "address"
        }
      ],
      "name": "setRarible",
      "outputs": [],
      "stateMutability": "nonpayable",
      "type": "function"
    },
    {
      "inputs": [
        {
          "internalType": "address",
          "name": "swapFeeRecipient",
          "type": "address"
        }
      ],
      "name": "setSwapFeeRecipient",
      "outputs": [],
      "stateMutability": "nonpayable",
      "type": "function"
    },
    {
      "inputs": [
        {
          "internalType": "uint256",
          "name": "swapFeeValue",
          "type": "uint256"
        }
      ],
      "name": "setSwapFeeValue",
      "outputs": [],
      "stateMutability": "nonpayable",
      "type": "function"
    },
    {
      "inputs": [
        {
          "internalType": "address",
          "name": "_erc20TransferProxy",
          "type": "address"
        }
      ],
      "name": "setTransferProxy",
      "outputs": [],
      "stateMutability": "nonpayable",
      "type": "function"
    },
    {
      "inputs": [
        {
          "internalType": "contract ISwapRouterV2",
          "name": "_uniswapRouterV2",
          "type": "address"
        }
      ],
      "name": "setUniswapV2",
      "outputs": [],
      "stateMutability": "nonpayable",
      "type": "function"
    },
    {
      "inputs": [
        {
          "internalType": "contract ISwapRouterV3",
          "name": "_uniswapRouterV3",
          "type": "address"
        }
      ],
      "name": "setUniswapV3",
      "outputs": [],
      "stateMutability": "nonpayable",
      "type": "function"
    },
    {
      "inputs": [
        {
          "internalType": "address",
          "name": "_wrappedToken",
          "type": "address"
        }
      ],
      "name": "setWrapped",
      "outputs": [],
      "stateMutability": "nonpayable",
      "type": "function"
    },
    {
      "inputs": [
        {
          "components": [
            {
              "internalType": "enum ExchangeWrapperCore.Markets",
              "name": "marketId",
              "type": "uint8"
            },
            {
              "internalType": "uint256",
              "name": "amount",
              "type": "uint256"
            },
            {
              "internalType": "uint256",
              "name": "fees",
              "type": "uint256"
            },
            {
              "internalType": "bytes",
              "name": "data",
              "type": "bytes"
            }
          ],
          "internalType": "struct ExchangeWrapperCore.PurchaseDetails",
          "name": "purchaseDetails",
          "type": "tuple"
        },
        {
          "internalType": "address",
          "name": "feeRecipientFirst",
          "type": "address"
        },
        {
          "internalType": "address",
          "name": "feeRecipientSecond",
          "type": "address"
        }
      ],
      "name": "singlePurchase",
      "outputs": [],
      "stateMutability": "payable",
      "type": "function"
    },
    {
      "inputs": [
        {
          "components": [
            {
              "internalType": "enum ExchangeWrapperCore.Markets",
              "name": "marketId",
              "type": "uint8"
            },
            {
              "internalType": "uint256",
              "name": "amount",
              "type": "uint256"
            },
            {
              "internalType": "uint256",
              "name": "fees",
              "type": "uint256"
            },
            {
              "internalType": "bytes",
              "name": "data",
              "type": "bytes"
            }
          ],
          "internalType": "struct ExchangeWrapperCore.PurchaseDetails",
          "name": "purchaseDetails",
          "type": "tuple"
        },
        {
          "internalType": "address",
          "name": "feeRecipientFirst",
          "type": "address"
        },
        {
          "internalType": "address",
          "name": "feeRecipientSecond",
          "type": "address"
        },
        {
          "components": [
            {
              "internalType": "bytes",
              "name": "path",
              "type": "bytes"
            },
            {
              "internalType": "uint256",
              "name": "amountOut",
              "type": "uint256"
            },
            {
              "internalType": "uint256",
              "name": "amountInMaximum",
              "type": "uint256"
            },
            {
              "internalType": "bool",
              "name": "unwrap",
              "type": "bool"
            }
          ],
          "internalType": "struct ExchangeWrapperCore.SwapDetailsIn",
          "name": "swapDetails",
          "type": "tuple"
        }
      ],
      "name": "singlePurchaseWithSwap",
      "outputs": [],
      "stateMutability": "payable",
      "type": "function"
    },
    {
      "inputs": [
        {
          "components": [
            {
              "internalType": "enum ExchangeWrapperCore.Markets",
              "name": "marketId",
              "type": "uint8"
            },
            {
              "internalType": "uint256",
              "name": "amount",
              "type": "uint256"
            },
            {
              "internalType": "uint256",
              "name": "fees",
              "type": "uint256"
            },
            {
              "internalType": "bytes",
              "name": "data",
              "type": "bytes"
            }
          ],
          "internalType": "struct ExchangeWrapperCore.PurchaseDetails",
          "name": "purchaseDetails",
          "type": "tuple"
        },
        {
          "internalType": "address",
          "name": "feeRecipientFirst",
          "type": "address"
        },
        {
          "internalType": "address",
          "name": "feeRecipientSecond",
          "type": "address"
        },
        {
          "components": [
            {
              "internalType": "address[]",
              "name": "path",
              "type": "address[]"
            },
            {
              "internalType": "uint256",
              "name": "amountOut",
              "type": "uint256"
            },
            {
              "internalType": "uint256",
              "name": "amountInMaximum",
              "type": "uint256"
            },
            {
              "internalType": "uint256[]",
              "name": "binSteps",
              "type": "uint256[]"
            },
            {
              "internalType": "bool",
              "name": "unwrap",
              "type": "bool"
            }
          ],
          "internalType": "struct ExchangeWrapperCore.SwapV2DetailsIn",
          "name": "swapDetails",
          "type": "tuple"
        }
      ],
      "name": "singlePurchaseWithV2Swap",
      "outputs": [],
      "stateMutability": "payable",
      "type": "function"
    },
    {
      "inputs": [],
      "name": "sudoswap",
      "outputs": [
        {
          "internalType": "address",
          "name": "",
          "type": "address"
        }
      ],
      "stateMutability": "view",
      "type": "function"
    },
    {
      "inputs": [
        {
          "internalType": "bytes4",
          "name": "interfaceId",
          "type": "bytes4"
        }
      ],
      "name": "supportsInterface",
      "outputs": [
        {
          "internalType": "bool",
          "name": "",
          "type": "bool"
        }
      ],
      "stateMutability": "view",
      "type": "function"
    },
    {
      "inputs": [
        {
          "components": [
            {
              "internalType": "bytes",
              "name": "path",
              "type": "bytes"
            },
            {
              "internalType": "uint256",
              "name": "amountIn",
              "type": "uint256"
            },
            {
              "internalType": "uint256",
              "name": "amountOutMinimum",
              "type": "uint256"
            },
            {
              "internalType": "bool",
              "name": "unwrap",
              "type": "bool"
            }
          ],
          "internalType": "struct ExchangeWrapperCore.SwapDetailsOut",
          "name": "swapDetails",
          "type": "tuple"
        },
        {
          "internalType": "bool",
          "name": "combined",
          "type": "bool"
        }
      ],
      "name": "swapExactTokensForTokens",
      "outputs": [
        {
          "internalType": "bool",
          "name": "",
          "type": "bool"
        }
      ],
      "stateMutability": "payable",
      "type": "function"
    },
    {
      "inputs": [
        {
          "components": [
            {
              "internalType": "bytes",
              "name": "path",
              "type": "bytes"
            },
            {
              "internalType": "uint256",
              "name": "amountOut",
              "type": "uint256"
            },
            {
              "internalType": "uint256",
              "name": "amountInMaximum",
              "type": "uint256"
            },
            {
              "internalType": "bool",
              "name": "unwrap",
              "type": "bool"
            }
          ],
          "internalType": "struct ExchangeWrapperCore.SwapDetailsIn",
          "name": "swapDetails",
          "type": "tuple"
        },
        {
          "internalType": "bool",
          "name": "combined",
          "type": "bool"
        }
      ],
      "name": "swapTokensForExactTokens",
      "outputs": [
        {
          "internalType": "bool",
          "name": "",
          "type": "bool"
        }
      ],
      "stateMutability": "payable",
      "type": "function"
    },
    {
      "inputs": [
        {
          "components": [
            {
              "internalType": "address[]",
              "name": "path",
              "type": "address[]"
            },
            {
              "internalType": "uint256",
              "name": "amountIn",
              "type": "uint256"
            },
            {
              "internalType": "uint256",
              "name": "amountOutMinimum",
              "type": "uint256"
            },
            {
              "internalType": "uint256[]",
              "name": "binSteps",
              "type": "uint256[]"
            },
            {
              "internalType": "bool",
              "name": "unwrap",
              "type": "bool"
            }
          ],
          "internalType": "struct ExchangeWrapperCore.SwapV2DetailsOut",
          "name": "swapDetails",
          "type": "tuple"
        },
        {
          "internalType": "bool",
          "name": "combined",
          "type": "bool"
        }
      ],
      "name": "swapV2ExactETHOrWETHForTokens",
      "outputs": [
        {
          "internalType": "bool",
          "name": "",
          "type": "bool"
        }
      ],
      "stateMutability": "payable",
      "type": "function"
    },
    {
      "inputs": [
        {
          "components": [
            {
              "internalType": "address[]",
              "name": "path",
              "type": "address[]"
            },
            {
              "internalType": "uint256",
              "name": "amountIn",
              "type": "uint256"
            },
            {
              "internalType": "uint256",
              "name": "amountOutMinimum",
              "type": "uint256"
            },
            {
              "internalType": "uint256[]",
              "name": "binSteps",
              "type": "uint256[]"
            },
            {
              "internalType": "bool",
              "name": "unwrap",
              "type": "bool"
            }
          ],
          "internalType": "struct ExchangeWrapperCore.SwapV2DetailsOut",
          "name": "swapDetails",
          "type": "tuple"
        },
        {
          "internalType": "bool",
          "name": "combined",
          "type": "bool"
        }
      ],
      "name": "swapV2ExactTokensForTokens",
      "outputs": [
        {
          "internalType": "bool",
          "name": "",
          "type": "bool"
        }
      ],
      "stateMutability": "nonpayable",
      "type": "function"
    },
    {
      "inputs": [
        {
          "components": [
            {
              "internalType": "address[]",
              "name": "path",
              "type": "address[]"
            },
            {
              "internalType": "uint256",
              "name": "amountOut",
              "type": "uint256"
            },
            {
              "internalType": "uint256",
              "name": "amountInMaximum",
              "type": "uint256"
            },
            {
              "internalType": "uint256[]",
              "name": "binSteps",
              "type": "uint256[]"
            },
            {
              "internalType": "bool",
              "name": "unwrap",
              "type": "bool"
            }
          ],
          "internalType": "struct ExchangeWrapperCore.SwapV2DetailsIn",
          "name": "swapDetails",
          "type": "tuple"
        },
        {
          "internalType": "bool",
          "name": "combined",
          "type": "bool"
        }
      ],
      "name": "swapV2TokensForExactETHOrWETH",
      "outputs": [
        {
          "internalType": "bool",
          "name": "",
          "type": "bool"
        }
      ],
      "stateMutability": "nonpayable",
      "type": "function"
    },
    {
      "inputs": [
        {
          "components": [
            {
              "internalType": "address[]",
              "name": "path",
              "type": "address[]"
            },
            {
              "internalType": "uint256",
              "name": "amountOut",
              "type": "uint256"
            },
            {
              "internalType": "uint256",
              "name": "amountInMaximum",
              "type": "uint256"
            },
            {
              "internalType": "uint256[]",
              "name": "binSteps",
              "type": "uint256[]"
            },
            {
              "internalType": "bool",
              "name": "unwrap",
              "type": "bool"
            }
          ],
          "internalType": "struct ExchangeWrapperCore.SwapV2DetailsIn",
          "name": "swapDetails",
          "type": "tuple"
        },
        {
          "internalType": "bool",
          "name": "combined",
          "type": "bool"
        }
      ],
      "name": "swapV2TokensForExactTokens",
      "outputs": [
        {
          "internalType": "bool",
          "name": "",
          "type": "bool"
        }
      ],
      "stateMutability": "nonpayable",
      "type": "function"
    },
    {
      "inputs": [
        {
          "internalType": "address",
          "name": "newOwner",
          "type": "address"
        }
      ],
      "name": "transferOwnership",
      "outputs": [],
      "stateMutability": "nonpayable",
      "type": "function"
    },
    {
      "inputs": [],
      "name": "uniswapRouterV2",
      "outputs": [
        {
          "internalType": "contract ISwapRouterV2",
          "name": "",
          "type": "address"
        }
      ],
      "stateMutability": "view",
      "type": "function"
    },
    {
      "inputs": [],
      "name": "uniswapRouterV3",
      "outputs": [
        {
          "internalType": "contract ISwapRouterV3",
          "name": "",
          "type": "address"
        }
      ],
      "stateMutability": "view",
      "type": "function"
    },
    {
      "inputs": [],
      "name": "unpause",
      "outputs": [],
      "stateMutability": "nonpayable",
      "type": "function"
    },
    {
      "inputs": [],
      "name": "wrappedToken",
      "outputs": [
        {
          "internalType": "address",
          "name": "",
          "type": "address"
        }
      ],
      "stateMutability": "view",
      "type": "function"
    },
    {
      "inputs": [],
      "name": "wyvern",
      "outputs": [
        {
          "internalType": "address",
          "name": "",
          "type": "address"
        }
      ],
      "stateMutability": "view",
      "type": "function"
    },
    {
      "inputs": [],
      "name": "x2y2",
      "outputs": [
        {
          "internalType": "address",
          "name": "",
          "type": "address"
        }
      ],
      "stateMutability": "view",
      "type": "function"
    },
    {
      "stateMutability": "payable",
      "type": "receive"
    }
  ],
  "transactionHash": "0x4ab11a05b0c4e852ee1a4cebe411df7a8bbd4080fc76de37b1063031740c99f1",
  "args": [],
  "numDeployments": 1,
  "solcInputHash": "a1910f405fcd3859de340d13bcf70f45",
  "bytecode": "0x608060405234801561001057600080fd5b50615da180620000216000396000f3fe6080604052600436106102605760003560e01c80638456cb5911610144578063bc197c81116100b6578063f23a6e611161007a578063f23a6e61146106d8578063f2fde38b14610704578063f5c7bd7014610724578063f95bb98014610744578063fc40c9c714610757578063fee03e9e1461077757600080fd5b8063bc197c8114610639578063c1aa293814610665578063c6d0ffd714610685578063d71c4dd0146106a5578063df6c2558146106b857600080fd5b8063a0149e9611610108578063a0149e96146105a0578063a05f32dc146105b3578063a8e90b57146105d3578063aa78ae93146105f3578063ac40312914610613578063b94ee3321461062657600080fd5b80638456cb591461051a57806386496e7a1461052f5780638ae42905146105425780638da5cb5b14610562578063996c6cc31461058057600080fd5b80634edfc9f9116101dd5780635ea1e4c9116101a15780635ea1e4c914610472578063715018a61461049257806373a963d7146104a7578063745fdf8e146104c75780637908716c146104e757806381eee2eb1461050757600080fd5b80634edfc9f9146103da5780634f680ae1146103fa578063596fa9e31461041a57806359e868291461043a5780635c975abb1461045a57600080fd5b806320ac00351161022457806320ac00351461035f5780632bf92a431461037f5780632c979b1614610392578063348c4efd146103b25780633f4ba83a146103c557600080fd5b806301ffc9a71461026c57806305aba4ec146102a157806308b1571d146102c157806310f91b0b146102e3578063150b7a021461031b57600080fd5b3661026757005b600080fd5b34801561027857600080fd5b5061028c610287366004613e9f565b610797565b60405190151581526020015b60405180910390f35b3480156102ad57600080fd5b5061028c6102bc3660046141cd565b6107ce565b3480156102cd57600080fd5b506102e16102dc36600461421e565b610cbd565b005b3480156102ef57600080fd5b5060a054610303906001600160a01b031681565b6040516001600160a01b039091168152602001610298565b34801561032757600080fd5b506103466103363660046142b3565b630a85bd0160e11b949350505050565b6040516001600160e01b03199091168152602001610298565b34801561036b57600080fd5b506102e161037a36600461431e565b610ce7565b6102e161038d366004614433565b610cf4565b34801561039e57600080fd5b5061028c6103ad3660046141cd565b610d45565b6102e16103c0366004614542565b611274565b3480156103d157600080fd5b506102e1611289565b3480156103e657600080fd5b50609954610303906001600160a01b031681565b34801561040657600080fd5b506102e161041536600461421e565b61129b565b34801561042657600080fd5b5060a254610303906001600160a01b031681565b34801561044657600080fd5b506102e161045536600461421e565b6112c5565b34801561046657600080fd5b5060655460ff1661028c565b34801561047e57600080fd5b50609d54610303906001600160a01b031681565b34801561049e57600080fd5b506102e16112ef565b3480156104b357600080fd5b506102e16104c236600461421e565b611301565b3480156104d357600080fd5b5061028c6104e23660046141cd565b61132b565b3480156104f357600080fd5b506102e161050236600461421e565b6119bc565b61028c6105153660046145e3565b6119e6565b34801561052657600080fd5b506102e1611e1f565b6102e161053d366004614618565b611e2f565b34801561054e57600080fd5b506102e161055d36600461421e565b611eb4565b34801561056e57600080fd5b506033546001600160a01b0316610303565b34801561058c57600080fd5b50609f54610303906001600160a01b031681565b6102e16105ae36600461467b565b611ede565b3480156105bf57600080fd5b50609754610303906001600160a01b031681565b3480156105df57600080fd5b50609c54610303906001600160a01b031681565b3480156105ff57600080fd5b506102e161060e3660046146fb565b611f24565b6102e16106213660046147a4565b6120c7565b6102e1610634366004614824565b6120dc565b34801561064557600080fd5b50610346610654366004614898565b63bc197c8160e01b95945050505050565b34801561067157600080fd5b506102e161068036600461421e565b612205565b34801561069157600080fd5b50609854610303906001600160a01b031681565b61028c6106b33660046145e3565b61222f565b3480156106c457600080fd5b50609e54610303906001600160a01b031681565b3480156106e457600080fd5b506103466106f3366004614938565b63f23a6e6160e01b95945050505050565b34801561071057600080fd5b506102e161071f36600461421e565b6126c0565b34801561073057600080fd5b50609a54610303906001600160a01b031681565b61028c6107523660046141cd565b612739565b34801561076357600080fd5b50609b54610303906001600160a01b031681565b34801561078357600080fd5b5060a154610303906001600160a01b031681565b60006001600160e01b03198216630271189760e51b14806107c857506301ffc9a760e01b6001600160e01b03198316145b92915050565b60008083600001516000815181106107e8576107e86149a0565b6020026020010151905060008460000151600186600001515161080b91906149cc565b8151811061081b5761081b6149a0565b60200260200101519050600080856108655761271060a354886020015161084291906149e3565b61084c9190614a02565b915081876020015161085e91906149cc565b905061086c565b5060208601515b60a1546001600160a01b031663776062c3853330856040518563ffffffff1660e01b81526004016108a09493929190614a24565b600060405180830381600087803b1580156108ba57600080fd5b505af11580156108ce573d6000803e3d6000fd5b505060a254604051636eb1769f60e11b8152600093506001600160a01b03808916935063dd62ed3e92610908929116903090600401614a4e565b60206040518083038186803b15801561092057600080fd5b505afa158015610934573d6000803e3d6000fd5b505050506040513d601f19601f820116820180604052508101906109589190614a68565b9050818110156109ec5760a25460405163095ea7b360e01b81526001600160a01b038781169263095ea7b392610998929091169060001990600401614a81565b602060405180830381600087803b1580156109b257600080fd5b505af11580156109c6573d6000803e3d6000fd5b505050506040513d601f19601f820116820180604052508101906109ea9190614aa5565b505b46600061a86a821480610a0057508161a869145b905060008115610ad65760a2546040808d015160608e01518e51925163a7b856d360e01b81526001600160a01b039094169363a7b856d393610a4f938b93909290919030904290600401614b36565b600060405180830381600087803b158015610a6957600080fd5b505af1925050508015610a9e57506040513d6000823e601f3d908101601f19168201604052610a9b9190810190614be1565b60015b610ab3576000985050505050505050506107c8565b80600081518110610ac657610ac66149a0565b6020026020010151915050610b97565b60a2546040808d01518d519151634401edf760e11b81526001600160a01b0390931692638803dbee92610b14928a9290919030904290600401614c1d565b600060405180830381600087803b158015610b2e57600080fd5b505af1925050508015610b6357506040513d6000823e601f3d908101601f19168201604052610b609190810190614be1565b60015b610b78576000985050505050505050506107c8565b80600081518110610b8b57610b8b6149a0565b60200260200101519150505b89610cac578515610c2a5760a45460405163a9059cbb60e01b81526001600160a01b038a81169263a9059cbb92610bd692909116908a90600401614a81565b602060405180830381600087803b158015610bf057600080fd5b505af1158015610c04573d6000803e3d6000fd5b505050506040513d601f19601f82011682018060405250810190610c289190614aa5565b505b60405163a9059cbb60e01b81526001600160a01b0388169063a9059cbb90610c589033908590600401614a81565b602060405180830381600087803b158015610c7257600080fd5b505af1158015610c86573d6000803e3d6000fd5b505050506040513d601f19601f82011682018060405250810190610caa9190614aa5565b505b5060019a9950505050505050505050565b610cc5612b54565b609e80546001600160a01b0319166001600160a01b0392909216919091179055565b610cef612b54565b60a355565b610cfc612bae565b6000610d0982600161132b565b905080610d315760405162461bcd60e51b8152600401610d2890614c59565b60405180910390fd5b610d3d868686866120dc565b505050505050565b6000808360000151600081518110610d5f57610d5f6149a0565b60200260200101519050600084600001516001866000015151610d8291906149cc565b81518110610d9257610d926149a0565b6020026020010151905060008085610ddc5761271060a3548860200151610db991906149e3565b610dc39190614a02565b9150818760200151610dd59190614c86565b9050610de3565b5060208601515b60a1546001600160a01b031663776062c38533308b604001516040518563ffffffff1660e01b8152600401610e1b9493929190614a24565b600060405180830381600087803b158015610e3557600080fd5b505af1158015610e49573d6000803e3d6000fd5b505060a254604051636eb1769f60e11b8152600093506001600160a01b03808916935063dd62ed3e92610e83929116903090600401614a4e565b60206040518083038186803b158015610e9b57600080fd5b505afa158015610eaf573d6000803e3d6000fd5b505050506040513d601f19601f82011682018060405250810190610ed39190614a68565b90508760400151811015610f6b5760a25460405163095ea7b360e01b81526001600160a01b038781169263095ea7b392610f17929091169060001990600401614a81565b602060405180830381600087803b158015610f3157600080fd5b505af1158015610f45573d6000803e3d6000fd5b505050506040513d601f19601f82011682018060405250810190610f699190614aa5565b505b46600061a86a821480610f7f57508161a869145b9050600081156110555760a2546040808d015160608e01518e51925163a7b856d360e01b81526001600160a01b039094169363a7b856d393610fce938b93909290919030904290600401614b36565b600060405180830381600087803b158015610fe857600080fd5b505af192505050801561101d57506040513d6000823e601f3d908101601f1916820160405261101a9190810190614be1565b60015b611032576000985050505050505050506107c8565b80600081518110611045576110456149a0565b6020026020010151915050611116565b60a2546040808d01518d519151634401edf760e11b81526001600160a01b0390931692638803dbee92611093928a9290919030904290600401614c1d565b600060405180830381600087803b1580156110ad57600080fd5b505af19250505080156110e257506040513d6000823e601f3d908101601f191682016040526110df9190810190614be1565b60015b6110f7576000985050505050505050506107c8565b8060008151811061110a5761110a6149a0565b60200260200101519150505b8a604001518110156111b3576001600160a01b03881663a9059cbb33838e6040015161114291906149cc565b6040518363ffffffff1660e01b815260040161115f929190614a81565b602060405180830381600087803b15801561117957600080fd5b505af115801561118d573d6000803e3d6000fd5b505050506040513d601f19601f820116820180604052508101906111b19190614aa5565b505b89610cac5785156112465760a45460405163a9059cbb60e01b81526001600160a01b038981169263a9059cbb926111f292909116908a90600401614a81565b602060405180830381600087803b15801561120c57600080fd5b505af1158015611220573d6000803e3d6000fd5b505050506040513d601f19601f820116820180604052508101906112449190614aa5565b505b60405163a9059cbb60e01b81526001600160a01b0388169063a9059cbb90610c589033908990600401614a81565b61127c612bae565b6000610d0982600161222f565b611291612b54565b611299612bf4565b565b6112a3612b54565b60a480546001600160a01b0319166001600160a01b0392909216919091179055565b6112cd612b54565b60a080546001600160a01b0319166001600160a01b0392909216919091179055565b6112f7612b54565b6112996000612c46565b611309612b54565b60a280546001600160a01b0319166001600160a01b0392909216919091179055565b6000808360000151600081518110611345576113456149a0565b602002602001015190506000808461138f5761271060a354876020015161136c91906149e3565b6113769190614a02565b91508186602001516113889190614c86565b9050611396565b5060208501515b60a1546001600160a01b031663776062c38433308a604001516040518563ffffffff1660e01b81526004016113ce9493929190614a24565b600060405180830381600087803b1580156113e857600080fd5b505af11580156113fc573d6000803e3d6000fd5b5050609f546001600160a01b03868116911614915050801561141f575085608001515b1561149957609f546040808801519051632e1a7d4d60e01b81526001600160a01b0390921691632e1a7d4d9161145b9160040190815260200190565b600060405180830381600087803b15801561147557600080fd5b505af1158015611489573d6000803e3d6000fd5b50505050600193505050506107c8565b60a254604051636eb1769f60e11b81526000916001600160a01b038087169263dd62ed3e926114ce9216903090600401614a4e565b60206040518083038186803b1580156114e657600080fd5b505afa1580156114fa573d6000803e3d6000fd5b505050506040513d601f19601f8201168201806040525081019061151e9190614a68565b905086604001518110156115b65760a25460405163095ea7b360e01b81526001600160a01b038681169263095ea7b392611562929091169060001990600401614a81565b602060405180830381600087803b15801561157c57600080fd5b505af1158015611590573d6000803e3d6000fd5b505050506040513d601f19601f820116820180604052508101906115b49190614aa5565b505b46600061a86a8214806115ca57508161a869145b90506000811561169f5760a2546040808c015160608d01518d519251636d3420ed60e01b81526001600160a01b0390941693636d3420ed93611619938b93909290919030904290600401614b36565b600060405180830381600087803b15801561163357600080fd5b505af192505050801561166857506040513d6000823e601f3d908101601f191682016040526116659190810190614be1565b60015b61167c5760009750505050505050506107c8565b8060008151811061168f5761168f6149a0565b602002602001015191505061175f565b60a2546040808c01518c519151632512eca560e11b81526001600160a01b0390931692634a25d94a926116dd928a9290919030904290600401614c1d565b600060405180830381600087803b1580156116f757600080fd5b505af192505050801561172c57506040513d6000823e601f3d908101601f191682016040526117299190810190614be1565b60015b6117405760009750505050505050506107c8565b80600081518110611753576117536149a0565b60200260200101519150505b8960800151156117c857609f54604051632e1a7d4d60e01b8152600481018790526001600160a01b0390911690632e1a7d4d90602401600060405180830381600087803b1580156117af57600080fd5b505af11580156117c3573d6000803e3d6000fd5b505050505b8960400151811015611865576001600160a01b03871663a9059cbb33838d604001516117f491906149cc565b6040518363ffffffff1660e01b8152600401611811929190614a81565b602060405180830381600087803b15801561182b57600080fd5b505af115801561183f573d6000803e3d6000fd5b505050506040513d601f19601f820116820180604052508101906118639190614aa5565b505b886119ac5789608001511561198c57851561190457609f5460a45460405163a9059cbb60e01b81526001600160a01b039283169263a9059cbb926118b0929116908a90600401614a81565b602060405180830381600087803b1580156118ca57600080fd5b505af11580156118de573d6000803e3d6000fd5b505050506040513d601f19601f820116820180604052508101906119029190614aa5565b505b609f546001600160a01b031663a9059cbb33876040518363ffffffff1660e01b8152600401611934929190614a81565b602060405180830381600087803b15801561194e57600080fd5b505af1158015611962573d6000803e3d6000fd5b505050506040513d601f19601f820116820180604052508101906119869190614aa5565b506119ac565b60a4546119a2906001600160a01b031687612c98565b6119ac3386612c98565b5060019998505050505050505050565b6119c4612b54565b609880546001600160a01b0319166001600160a01b0392909216919091179055565b60008060008085600001519050600060148251611a0391906149cc565b9050600160601b81602084010151049350600160601b60006020840101510492503460001415611a985760a1546001600160a01b031663776062c38533308b602001516040518563ffffffff1660e01b8152600401611a659493929190614a24565b600060405180830381600087803b158015611a7f57600080fd5b505af1158015611a93573d6000803e3d6000fd5b505050505b609f546001600160a01b038581169116148015611ab6575086606001515b15611b3157609f546020880151604051632e1a7d4d60e01b81526001600160a01b0390921691632e1a7d4d91611af29160040190815260200190565b600060405180830381600087803b158015611b0c57600080fd5b505af1158015611b20573d6000803e3d6000fd5b5050505060019450505050506107c8565b600034118015611b4e5750609f546001600160a01b038481169116145b15611b615750600193506107c892505050565b60a054604051636eb1769f60e11b81526000916001600160a01b038088169263dd62ed3e92611b969216903090600401614a4e565b60206040518083038186803b158015611bae57600080fd5b505afa158015611bc2573d6000803e3d6000fd5b505050506040513d601f19601f82011682018060405250810190611be69190614a68565b90508760200151811015611c7e5760a05460405163095ea7b360e01b81526001600160a01b038781169263095ea7b392611c2a929091169060001990600401614a81565b602060405180830381600087803b158015611c4457600080fd5b505af1158015611c58573d6000803e3d6000fd5b505050506040513d601f19601f82011682018060405250810190611c7c9190614aa5565b505b6040805160a080820183528a5182523060208084019190915242838501528b015160608301528a830151608083015254915163c04b8d5960e01b815290916000916001600160a01b039091169063c04b8d5990611cdf908590600401614d47565b602060405180830381600087803b158015611cf957600080fd5b505af1925050508015611d29575060408051601f3d908101601f19168201909252611d2691810190614a68565b60015b611d3d5760009750505050505050506107c8565b905060a060009054906101000a90046001600160a01b03166001600160a01b03166312210e8a6040518163ffffffff1660e01b8152600401600060405180830381600087803b158015611d8f57600080fd5b505af1158015611da3573d6000803e3d6000fd5b505050508960600151156119ac57609f54604051632e1a7d4d60e01b8152600481018390526001600160a01b0390911690632e1a7d4d90602401600060405180830381600087803b158015611df757600080fd5b505af1158015611e0b573d6000803e3d6000fd5b5060019d9c50505050505050505050505050565b611e27612b54565b611299612d51565b611e37612bae565b6000806000611e47866000612d8e565b925092509250611e543390565b6001600160a01b03167fc5dd8c21802b423a9c822ee9c934f042186e6bb7097a1dd17717343ee84df71484604051611e90911515815260200190565b60405180910390a2611ea28286613a96565b611eac8185613a96565b610d3d613ac1565b611ebc612b54565b60a180546001600160a01b0319166001600160a01b0392909216919091179055565b611ee6612bae565b6000611ef382600161132b565b905080611f125760405162461bcd60e51b8152600401610d2890614c59565b611f1d858585611e2f565b5050505050565b600054610100900460ff1615808015611f445750600054600160ff909116105b80611f5e5750303b158015611f5e575060005460ff166001145b611fc15760405162461bcd60e51b815260206004820152602e60248201527f496e697469616c697a61626c653a20636f6e747261637420697320616c72656160448201526d191e481a5b9a5d1a585b1a5e995960921b6064820152608401610d28565b6000805460ff191660011790558015611fe4576000805461ff0019166101001790555b611fec613ad2565b611ff4613af9565b611ffc613b29565b609780546001600160a01b03199081166001600160a01b03808d1691909117909255609880548216838c16179055609980548216838b16179055609a80548216838a16179055609b80548216838916179055609c80548216838816179055609d80548216838716179055609e805490911691841691909117905580156120bc576000805461ff0019169055604051600181527f7f26b83ff96e1f2b6a682f133852f6798a09c465da95921460cefb38474024989060200160405180910390a15b505050505050505050565b6120cf612bae565b6000611ef382600161222f565b6120e4612bae565b6000806000808751905060005b818110156121965760008060006121218c8581518110612113576121136149a0565b60200260200101518a612d8e565b92509250925085806121305750825b604051841515815290965033907fc5dd8c21802b423a9c822ee9c934f042186e6bb7097a1dd17717343ee84df7149060200160405180910390a26121748289614c86565b97506121808188614c86565b96505050508061218f90614d5a565b90506120f1565b50816121df5760405162461bcd60e51b81526020600482015260186024820152776e6f207375636365737366756c20657865637574696f6e7360401b6044820152606401610d28565b6121e98488613a96565b6121f38387613a96565b6121fb613ac1565b5050505050505050565b61220d612b54565b609f80546001600160a01b0319166001600160a01b0392909216919091179055565b6000806000808560000151905060006014825161224c91906149cc565b9050600160601b81602084010151049350600160601b600060208401015104925034600014156122e15760a1546001600160a01b031663776062c38533308b604001516040518563ffffffff1660e01b81526004016122ae9493929190614a24565b600060405180830381600087803b1580156122c857600080fd5b505af11580156122dc573d6000803e3d6000fd5b505050505b609f546001600160a01b0385811691161480156122ff575086606001515b1561233b57609f546020880151604051632e1a7d4d60e01b81526001600160a01b0390921691632e1a7d4d91611af29160040190815260200190565b6000341180156123585750609f546001600160a01b038481169116145b1561236b5750600193506107c892505050565b60a054604051636eb1769f60e11b81526000916001600160a01b038088169263dd62ed3e926123a09216903090600401614a4e565b60206040518083038186803b1580156123b857600080fd5b505afa1580156123cc573d6000803e3d6000fd5b505050506040513d601f19601f820116820180604052508101906123f09190614a68565b905087604001518110156124885760a05460405163095ea7b360e01b81526001600160a01b038781169263095ea7b392612434929091169060001990600401614a81565b602060405180830381600087803b15801561244e57600080fd5b505af1158015612462573d6000803e3d6000fd5b505050506040513d601f19601f820116820180604052508101906124869190614aa5565b505b6040805160a080820183528a5182523060208084019190915242838501528b015160608301528a8301516080830152549151631e51809360e31b815290916000916001600160a01b039091169063f28c0498906124e9908590600401614d47565b602060405180830381600087803b15801561250357600080fd5b505af1925050508015612533575060408051601f3d908101601f1916820190925261253091810190614a68565b60015b6125475760009750505050505050506107c8565b905060a060009054906101000a90046001600160a01b03166001600160a01b03166312210e8a6040518163ffffffff1660e01b8152600401600060405180830381600087803b15801561259957600080fd5b505af11580156125ad573d6000803e3d6000fd5b5050505089606001511561262557609f5460208b0151604051632e1a7d4d60e01b81526001600160a01b0390921691632e1a7d4d916125f29160040190815260200190565b600060405180830381600087803b15801561260c57600080fd5b505af1158015612620573d6000803e3d6000fd5b505050505b89604001518110156119ac576001600160a01b03871663a9059cbb33838d6040015161265191906149cc565b6040518363ffffffff1660e01b815260040161266e929190614a81565b602060405180830381600087803b15801561268857600080fd5b505af115801561269c573d6000803e3d6000fd5b505050506040513d601f19601f82011682018060405250810190610cac9190614aa5565b6126c8612b54565b6001600160a01b03811661272d5760405162461bcd60e51b815260206004820152602660248201527f4f776e61626c653a206e6577206f776e657220697320746865207a65726f206160448201526564647265737360d01b6064820152608401610d28565b61273681612c46565b50565b6000808360000151600081518110612753576127536149a0565b6020026020010151905060008460000151600186600001515161277691906149cc565b81518110612786576127866149a0565b60200260200101519050600080856127d05761271060a35488602001516127ad91906149e3565b6127b79190614a02565b91508187602001516127c991906149cc565b90506127d7565b5060208601515b346128a15760a1546001600160a01b031663776062c3853330856040518563ffffffff1660e01b81526004016128109493929190614a24565b600060405180830381600087803b15801561282a57600080fd5b505af115801561283e573d6000803e3d6000fd5b5050609f54604051632e1a7d4d60e01b8152600481018590526001600160a01b039091169250632e1a7d4d9150602401600060405180830381600087803b15801561288857600080fd5b505af115801561289c573d6000803e3d6000fd5b505050505b6000341180156128be5750609f546001600160a01b038481169116145b156128d15750600193506107c892505050565b46600061a86a8214806128e557508161a869145b9050600081156129b55760a2546040808c015160608d01518d519251631325dca760e11b81526001600160a01b039094169363264bb94e9361292f93929130904290600401614d75565b600060405180830381600087803b15801561294957600080fd5b505af192505050801561297e57506040513d6000823e601f3d908101601f1916820160405261297b9190810190614be1565b60015b6129925760009750505050505050506107c8565b806000815181106129a5576129a56149a0565b6020026020010151915050612a71565b60a2546040808c01518c519151637ff36ab560e01b81526001600160a01b0390931692637ff36ab5926129ef929130904290600401614dbe565b600060405180830381600087803b158015612a0957600080fd5b505af1925050508015612a3e57506040513d6000823e601f3d908101601f19168201604052612a3b9190810190614be1565b60015b612a525760009750505050505050506107c8565b80600081518110612a6557612a656149a0565b60200260200101519150505b886119ac5734612b10578415612b0b57609f5460a45460405163a9059cbb60e01b81526001600160a01b039283169263a9059cbb92612ab7929116908990600401614a81565b602060405180830381600087803b158015612ad157600080fd5b505af1158015612ae5573d6000803e3d6000fd5b505050506040513d601f19601f82011682018060405250810190612b099190614aa5565b505b612b26565b60a454612b26906001600160a01b031686612c98565b60405163a9059cbb60e01b81526001600160a01b0387169063a9059cbb9061266e9033908590600401614a81565b6033546001600160a01b031633146112995760405162461bcd60e51b815260206004820181905260248201527f4f776e61626c653a2063616c6c6572206973206e6f7420746865206f776e65726044820152606401610d28565b60655460ff16156112995760405162461bcd60e51b815260206004820152601060248201526f14185d5cd8589b194e881c185d5cd95960821b6044820152606401610d28565b612bfc613b5c565b6065805460ff191690557f5db9ee0a495bf2e6ff9c91a7834c1ba4fdd244a5e8aa4e537bd38aeae4b073aa335b6040516001600160a01b03909116815260200160405180910390a1565b603380546001600160a01b038381166001600160a01b0319831681179093556040519116919082907f8be0079c531659141344cd1fd0a4f28419497f9722a3daafe3b4186f6b6457e090600090a35050565b6000826001600160a01b03168260405160006040518083038185875af1925050503d8060008114612ce5576040519150601f19603f3d011682016040523d82523d6000602084013e612cea565b606091505b5050905080612d4c5760405162461bcd60e51b815260206004820152602860248201527f4c69625472616e73666572204261736543757272656e6379207472616e7366656044820152671c8819985a5b195960c21b6064820152608401610d28565b505050565b612d59612bae565b6065805460ff191660011790557f62e78cea01bee320cd4e420270b5ea74000d11b0c9f74754ebdbfc544b05a258612c293390565b6000806000806000612dad876060015188604001518960000151613ba5565b60208901519193509150600288516007811115612dcc57612dcc614df3565b1415612ea957609a546040516000916001600160a01b0316908390612df2908790614e09565b60006040518083038185875af1925050503d8060008114612e2f576040519150601f19603f3d011682016040523d82523d6000602084013e612e34565b606091505b505090508715612e5c5780612e5757600080600096509650965050505050613a8f565b612ea3565b80612ea35760405162461bcd60e51b8152602060048201526017602482015276141d5c98da185cd94814d9585c1bdc9d0819985a5b1959604a1b6044820152606401610d28565b50613a5d565b600188516007811115612ebe57612ebe614df3565b1415612f8f576099546040516000916001600160a01b0316908390612ee4908790614e09565b60006040518083038185875af1925050503d8060008114612f21576040519150601f19603f3d011682016040523d82523d6000602084013e612f26565b606091505b505090508715612f495780612e5757600080600096509650965050505050613a8f565b80612ea35760405162461bcd60e51b8152602060048201526016602482015275141d5c98da185cd94815de5d995c9b8819985a5b195960521b6044820152606401610d28565b600688516007811115612fa457612fa4614df3565b141561307c576097546040516000916001600160a01b0316908390612fca908790614e09565b60006040518083038185875af1925050503d8060008114613007576040519150601f19603f3d011682016040523d82523d6000602084013e61300c565b606091505b50509050871561302f5780612e5757600080600096509650965050505050613a8f565b80612ea35760405162461bcd60e51b815260206004820152601b60248201527f50757263686173652047686f73744d61726b6574206661696c656400000000006044820152606401610d28565b60008851600781111561309157613091614df3565b1415613163576098546040516000916001600160a01b03169083906130b7908790614e09565b60006040518083038185875af1925050503d80600081146130f4576040519150601f19603f3d011682016040523d82523d6000602084013e6130f9565b606091505b50509050871561311c5780612e5757600080600096509650965050505050613a8f565b80612ea35760405162461bcd60e51b8152602060048201526017602482015276141d5c98da185cd94814985c9a589b194819985a5b1959604a1b6044820152606401610d28565b60038851600781111561317857613178614df3565b141561360b576000838060200190518101906131949190615319565b9050871561321657609b5460405163357a150b60e01b81526001600160a01b039091169063357a150b9084906131ce908590600401615594565b6000604051808303818588803b1580156131e757600080fd5b505af1935050505080156131f9575060015b61321157600080600096509650965050505050613a8f565b61327b565b609b5460405163357a150b60e01b81526001600160a01b039091169063357a150b908490613248908590600401615594565b6000604051808303818588803b15801561326157600080fd5b505af1158015613275573d6000803e3d6000fd5b50505050505b60208101515160005b81811015613603576000836020015182815181106132a4576132a46149a0565b60200260200101516020015190506000846020015183815181106132ca576132ca6149a0565b60200260200101516040015190506000856000015183815181106132f0576132f06149a0565b60200260200101516101000151828151811061330e5761330e6149a0565b6020026020010151602001519050600086600001518481518110613334576133346149a0565b602002602001015160e00151511180156133705750600086602001518581518110613361576133616149a0565b602002602001015160c0015151115b156133c2576133c2818760200151868151811061338f5761338f6149a0565b602002602001015160c00151886000015186815181106133b1576133b16149a0565b602002602001015160e00151613ca0565b85518051849081106133d6576133d66149a0565b602002602001015160800151600114156134b7576000818060200190518101906134009190615750565b905060005b81518110156134b0576000828281518110613422576134226149a0565b6020026020010151905080600001516001600160a01b03166342842e0e306134473390565b84602001516040518463ffffffff1660e01b815260040161346a9392919061580e565b600060405180830381600087803b15801561348457600080fd5b505af1158015613498573d6000803e3d6000fd5b505050505080806134a890614d5a565b915050613405565b50506135ef565b85518051849081106134cb576134cb6149a0565b602002602001015160800151600214156135ab576000818060200190518101906134f59190615832565b905060005b81518110156134b0576000828281518110613517576135176149a0565b6020026020010151905080600001516001600160a01b031663f242432a3061353c3390565b846020015185604001516040518563ffffffff1660e01b815260040161356594939291906158f8565b600060405180830381600087803b15801561357f57600080fd5b505af1158015613593573d6000803e3d6000fd5b505050505080806135a390614d5a565b9150506134fa565b60405162461bcd60e51b81526020600482015260196024820152783ab735b737bbb7103232b632b3b0ba32aa3cb832903c193c9960391b6044820152606401610d28565b505050806135fc90614d5a565b9050613284565b505050613a5d565b60048851600781111561362057613620614df3565b141561384c5760008060008580602001905181019061363f9190615a4e565b92509250925089156136c957609c54604051635a72594b60e11b81526001600160a01b039091169063b4e4b29690869061367f9087908790600401615b36565b6000604051808303818588803b15801561369857600080fd5b505af1935050505080156136aa575060015b6136c4576000806000985098509850505050505050613a8f565b613730565b609c54604051635a72594b60e11b81526001600160a01b039091169063b4e4b2969086906136fd9087908790600401615b36565b6000604051808303818588803b15801561371657600080fd5b505af115801561372a573d6000803e3d6000fd5b50505050505b6001600160e01b031981166339d690a360e11b14156137b85760408201516001600160a01b03166342842e0e303385608001516040518463ffffffff1660e01b81526004016137819392919061580e565b600060405180830381600087803b15801561379b57600080fd5b505af11580156137af573d6000803e3d6000fd5b50505050613603565b6001600160e01b0319811663025ceed960e61b141561380f57604082810151608084015160a08501519251637921219560e11b81526001600160a01b039092169263f242432a9261378192309233926004016158f8565b60405162461bcd60e51b8152602060048201526012602482015271556e6b6e6f776e20746f6b656e207479706560701b6044820152606401610d28565b60058851600781111561386157613861614df3565b141561393457609d546040516000916001600160a01b0316908390613887908790614e09565b60006040518083038185875af1925050503d80600081146138c4576040519150601f19603f3d011682016040523d82523d6000602084013e6138c9565b606091505b5050905087156138ec5780612e5757600080600096509650965050505050613a8f565b80612ea35760405162461bcd60e51b8152602060048201526018602482015277141d5c98da185cd94814dd591bd4ddd85c0819985a5b195960421b6044820152606401610d28565b60078851600781111561394957613949614df3565b1415613a1a57609e546040516000916001600160a01b031690839061396f908790614e09565b60006040518083038185875af1925050503d80600081146139ac576040519150601f19603f3d011682016040523d82523d6000602084013e6139b1565b606091505b5050905087156139d45780612e5757600080600096509650965050505050613a8f565b80612ea35760405162461bcd60e51b8152602060048201526016602482015275141d5c98da185cd948189b1d5c9a5bc819985a5b195960521b6044820152606401610d28565b60405162461bcd60e51b8152602060048201526018602482015277556e6b6e6f776e2070757263686173652064657461696c7360401b6044820152606401610d28565b613a6b828960200151613d46565b600080613a808a604001518b60200151613df0565b60019950909750955050505050505b9250925092565b600082118015613aae57506001600160a01b03811615155b15613abd57613abd8183612c98565b5050565b478015612736576127363382612c98565b600054610100900460ff166112995760405162461bcd60e51b8152600401610d2890615c90565b600054610100900460ff16613b205760405162461bcd60e51b8152600401610d2890615c90565b61129933612c46565b600054610100900460ff16613b505760405162461bcd60e51b8152600401610d2890615c90565b6065805460ff19169055565b60655460ff166112995760405162461bcd60e51b815260206004820152601460248201527314185d5cd8589b194e881b9bdd081c185d5cd95960621b6044820152606401610d28565b6060806000602085901c61ffff166001811115613bc457613bc4614df3565b905060606000826001811115613bdc57613bdc614df3565b1415613bee578693509150613c989050565b6001826001811115613c0257613c02614df3565b1415613c5057600087806020019051810190613c1e9190615cdb565b9050613c2986613e21565b15613c44578060000151816020015194509450505050613c98565b5193509150613c989050565b60405162461bcd60e51b815260206004820152601a60248201527f756e6b6e6f776e206164646974696f6e616c44617461547970650000000000006044820152606401610d28565b935093915050565b8151835114613cae57600080fd5b8051835114613cbc57600080fd5b825160005b81811015611f1d57828181518110613cdb57613cdb6149a0565b01602001516001600160f81b03191615613d3657838181518110613d0157613d016149a0565b602001015160f81c60f81b858281518110613d1e57613d1e6149a0565b60200101906001600160f81b031916908160001a9053505b613d3f81614d5a565b9050613cc1565b815160005b81811015613dea576000848281518110613d6757613d676149a0565b60200260200101511115613dda576000848281518110613d8957613d896149a0565b60200260200101519050600060a0868481518110613da957613da96149a0565b6020026020010151901c90506000613dca8287613e6990919063ffffffff16565b9050613dd68184613a96565b5050505b613de381614d5a565b9050613d4b565b50505050565b60008061ffff601085901c8116908516613e0a8583613e69565b613e148683613e69565b9350935050509250929050565b60006005826007811115613e3757613e37614df3565b1480613e5457506004826007811115613e5257613e52614df3565b145b15613e6157506001919050565b506000919050565b6000612710613e7883856149e3565b613e829190614a02565b9392505050565b6001600160e01b03198116811461273657600080fd5b600060208284031215613eb157600080fd5b8135613e8281613e89565b634e487b7160e01b600052604160045260246000fd5b60405160a081016001600160401b0381118282101715613ef457613ef4613ebc565b60405290565b604051608081016001600160401b0381118282101715613ef457613ef4613ebc565b604080519081016001600160401b0381118282101715613ef457613ef4613ebc565b6040516101a081016001600160401b0381118282101715613ef457613ef4613ebc565b60405161016081016001600160401b0381118282101715613ef457613ef4613ebc565b60405160c081016001600160401b0381118282101715613ef457613ef4613ebc565b604051606081016001600160401b0381118282101715613ef457613ef4613ebc565b60405161020081016001600160401b0381118282101715613ef457613ef4613ebc565b604051601f8201601f191681016001600160401b038111828210171561401357614013613ebc565b604052919050565b60006001600160401b0382111561403457614034613ebc565b5060051b60200190565b6001600160a01b038116811461273657600080fd5b600082601f83011261406457600080fd5b813560206140796140748361401b565b613feb565b82815260059290921b8401810191818101908684111561409857600080fd5b8286015b848110156140b3578035835291830191830161409c565b509695505050505050565b801515811461273657600080fd5b80356140d7816140be565b919050565b600060a082840312156140ee57600080fd5b6140f6613ed2565b905081356001600160401b038082111561410f57600080fd5b818401915084601f83011261412357600080fd5b813560206141336140748361401b565b82815260059290921b8401810191818101908884111561415257600080fd5b948201945b8386101561417957853561416a8161403e565b82529482019490820190614157565b8652508581013590850152506040808501359084015260608401359150808211156141a357600080fd5b506141b084828501614053565b6060830152506141c2608083016140cc565b608082015292915050565b600080604083850312156141e057600080fd5b82356001600160401b038111156141f657600080fd5b614202858286016140dc565b9250506020830135614213816140be565b809150509250929050565b60006020828403121561423057600080fd5b8135613e828161403e565b60006001600160401b0382111561425457614254613ebc565b50601f01601f191660200190565b600082601f83011261427357600080fd5b81356142816140748261423b565b81815284602083860101111561429657600080fd5b816020850160208301376000918101602001919091529392505050565b600080600080608085870312156142c957600080fd5b84356142d48161403e565b935060208501356142e48161403e565b92506040850135915060608501356001600160401b0381111561430657600080fd5b61431287828801614262565b91505092959194509250565b60006020828403121561433057600080fd5b5035919050565b6008811061273657600080fd5b60006080828403121561435657600080fd5b61435e613efa565b9050813561436b81614337565b80825250602082013560208201526040820135604082015260608201356001600160401b0381111561439c57600080fd5b6143a884828501614262565b60608301525092915050565b600082601f8301126143c557600080fd5b813560206143d56140748361401b565b82815260059290921b840181019181810190868411156143f457600080fd5b8286015b848110156140b35780356001600160401b038111156144175760008081fd5b6144258986838b0101614344565b8452509183019183016143f8565b600080600080600060a0868803121561444b57600080fd5b85356001600160401b038082111561446257600080fd5b61446e89838a016143b4565b9650602088013591506144808261403e565b9094506040870135906144928261403e565b9093506060870135906144a4826140be565b909250608087013590808211156144ba57600080fd5b506144c7888289016140dc565b9150509295509295909350565b6000608082840312156144e657600080fd5b6144ee613efa565b905081356001600160401b0381111561450657600080fd5b61451284828501614262565b82525060208201356020820152604082013560408201526060820135614537816140be565b606082015292915050565b600080600080600060a0868803121561455a57600080fd5b85356001600160401b038082111561457157600080fd5b61457d89838a016143b4565b96506020880135915061458f8261403e565b9094506040870135906145a18261403e565b9093506060870135906145b3826140be565b909250608087013590808211156145c957600080fd5b506144c7888289016144d4565b6001600160a01b03169052565b600080604083850312156145f657600080fd5b82356001600160401b0381111561460c57600080fd5b614202858286016144d4565b60008060006060848603121561462d57600080fd5b83356001600160401b0381111561464357600080fd5b61464f86828701614344565b93505060208401356146608161403e565b915060408401356146708161403e565b809150509250925092565b6000806000806080858703121561469157600080fd5b84356001600160401b03808211156146a857600080fd5b6146b488838901614344565b9550602087013591506146c68261403e565b9093506040860135906146d88261403e565b909250606086013590808211156146ee57600080fd5b50614312878288016140dc565b600080600080600080600080610100898b03121561471857600080fd5b88356147238161403e565b975060208901356147338161403e565b965060408901356147438161403e565b955060608901356147538161403e565b945060808901356147638161403e565b935060a08901356147738161403e565b925060c08901356147838161403e565b915060e08901356147938161403e565b809150509295985092959890939650565b600080600080608085870312156147ba57600080fd5b84356001600160401b03808211156147d157600080fd5b6147dd88838901614344565b9550602087013591506147ef8261403e565b9093506040860135906148018261403e565b9092506060860135908082111561481757600080fd5b50614312878288016144d4565b6000806000806080858703121561483a57600080fd5b84356001600160401b0381111561485057600080fd5b61485c878288016143b4565b945050602085013561486d8161403e565b9250604085013561487d8161403e565b9150606085013561488d816140be565b939692955090935050565b600080600080600060a086880312156148b057600080fd5b85356148bb8161403e565b945060208601356148cb8161403e565b935060408601356001600160401b03808211156148e757600080fd5b6148f389838a01614053565b9450606088013591508082111561490957600080fd5b61491589838a01614053565b9350608088013591508082111561492b57600080fd5b506144c788828901614262565b600080600080600060a0868803121561495057600080fd5b853561495b8161403e565b9450602086013561496b8161403e565b9350604086013592506060860135915060808601356001600160401b0381111561499457600080fd5b6144c788828901614262565b634e487b7160e01b600052603260045260246000fd5b634e487b7160e01b600052601160045260246000fd5b6000828210156149de576149de6149b6565b500390565b60008160001904831182151516156149fd576149fd6149b6565b500290565b600082614a1f57634e487b7160e01b600052601260045260246000fd5b500490565b6001600160a01b039485168152928416602084015292166040820152606081019190915260800190565b6001600160a01b0392831681529116602082015260400190565b600060208284031215614a7a57600080fd5b5051919050565b6001600160a01b03929092168252602082015260400190565b80516140d7816140be565b600060208284031215614ab757600080fd5b8151613e82816140be565b600081518084526020808501945080840160005b83811015614af257815187529582019590820190600101614ad6565b509495945050505050565b600081518084526020808501945080840160005b83811015614af25781516001600160a01b031687529582019590820190600101614b11565b86815285602082015260c060408201526000614b5560c0830187614ac2565b8281036060840152614b678187614afd565b6001600160a01b03959095166080840152505060a00152949350505050565b600082601f830112614b9757600080fd5b81516020614ba76140748361401b565b82815260059290921b84018101918181019086841115614bc657600080fd5b8286015b848110156140b35780518352918301918301614bca565b600060208284031215614bf357600080fd5b81516001600160401b03811115614c0957600080fd5b614c1584828501614b86565b949350505050565b85815284602082015260a060408201526000614c3c60a0830186614afd565b6001600160a01b0394909416606083015250608001529392505050565b6020808252601390820152721cddd85c081b9bdd081cdd58d8d95cdcd99d5b606a1b604082015260600190565b60008219821115614c9957614c996149b6565b500190565b60005b83811015614cb9578181015183820152602001614ca1565b83811115613dea5750506000910152565b60008151808452614ce2816020860160208601614c9e565b601f01601f19169290920160200192915050565b6000815160a08452614d0b60a0850182614cca565b6020848101516001600160a01b031690860152604080850151908601526060808501519086015260809384015193909401929092525090919050565b602081526000613e826020830184614cf6565b6000600019821415614d6e57614d6e6149b6565b5060010190565b85815260a060208201526000614d8e60a0830187614ac2565b8281036040840152614da08187614afd565b6001600160a01b039590951660608401525050608001529392505050565b848152608060208201526000614dd76080830186614afd565b6001600160a01b03949094166040830152506060015292915050565b634e487b7160e01b600052602160045260246000fd5b60008251614e1b818460208701614c9e565b9190910192915050565b80516140d78161403e565b600082601f830112614e4157600080fd5b8151614e4f6140748261423b565b818152846020838601011115614e6457600080fd5b614c15826020830160208701614c9e565b600082601f830112614e8657600080fd5b81516020614e966140748361401b565b82815260059290921b84018101918181019086841115614eb557600080fd5b8286015b848110156140b35780516001600160401b0380821115614ed95760008081fd5b908801906040828b03601f1901811315614ef35760008081fd5b614efb613f1c565b838801518152908301519082821115614f145760008081fd5b614f228c8984870101614e30565b818901528652505050918301918301614eb9565b805160ff811681146140d757600080fd5b600082601f830112614f5857600080fd5b81516020614f686140748361401b565b82815260059290921b84018101918181019086841115614f8757600080fd5b8286015b848110156140b35780516001600160401b0380821115614fab5760008081fd5b908801906101a0828b03601f1901811315614fc65760008081fd5b614fce613f3e565b8784015181526040614fe1818601614e25565b89830152606080860151828401526080915081860151818401525060a0808601518284015260c0915081860151818401525060e0615020818701614e25565b828401526101009150818601518581111561503b5760008081fd5b6150498f8c838a0101614e30565b82850152505061012080860151858111156150645760008081fd5b6150728f8c838a0101614e75565b8385015250610140945084860151818401525050610160808501518483015261018093506150a1848601614f36565b908201526150b0848301614f36565b9281019290925250845250918301918301614f8b565b80516140d781614337565b600082601f8301126150e257600080fd5b815160206150f26140748361401b565b82815260069290921b8401810191818101908684111561511157600080fd5b8286015b848110156140b3576040818903121561512e5760008081fd5b615136613f1c565b81518152848201516151478161403e565b81860152835291830191604001615115565b600082601f83011261516a57600080fd5b8151602061517a6140748361401b565b82815260059290921b8401810191818101908684111561519957600080fd5b8286015b848110156140b35780516001600160401b03808211156151bd5760008081fd5b90880190610160828b03601f19018113156151d85760008081fd5b6151e0613f61565b6151eb8885016150c6565b815260408085015189830152606080860151828401526080915081860151818401525060a0808601518284015260c09150615227828701614e25565b9083015260e0858101518581111561523f5760008081fd5b61524d8f8c838a0101614e30565b83850152506101009150818601518184015250610120808601518284015261014091508186015181840152508285015192508383111561528d5760008081fd5b61529b8d8a858801016150d1565b90820152865250505091830191830161519d565b600060c082840312156152c157600080fd5b6152c9613f84565b90508151815260208201516020820152604082015160408201526060820151606082015260808201516152fb8161403e565b608082015260a082015161530e816140be565b60a082015292915050565b60006020828403121561532b57600080fd5b81516001600160401b038082111561534257600080fd5b90830190610160828603121561535757600080fd5b61535f613f84565b82518281111561536e57600080fd5b61537a87828601614f47565b82525060208301518281111561538f57600080fd5b61539b87828601615159565b6020830152506153ae86604085016152af565b6040820152610100830151606082015261012083015160808201526153d66101408401614f36565b60a082015295945050505050565b600081518084526020808501808196508360051b8101915082860160005b85811015615440578284038952815180518552850151604086860181905261542c81870183614cca565b9a87019a9550505090840190600101615402565b5091979650505050505050565b6008811061546b57634e487b7160e01b600052602160045260246000fd5b9052565b600081518084526020808501945080840160005b83811015614af2578151805188528301516001600160a01b03168388015260409096019590820190600101615483565b600081518084526020808501808196508360051b8101915082860160005b8581101561544057828403895281516101606154ee86835161544d565b818701518688015260408083015190870152606080830151908701526080808301519087015260a080830151615526828901826145d6565b505060c080830151828289015261553f83890182614cca565b60e085810151908a015261010080860151908a015261012080860151908a015261014094850151898203958a0195909552925061558091508290508361546f565b9a87019a95505050908401906001016154d1565b60006020808352610180808401855161016080858801528282518085526101a094508489019150848160051b8a0101878501945060005b828110156156af578a820361019f19018452855180518352898101516155f38b8501826145d6565b5060408181015190840152606080820151908401526080808201519084015260a0808201519084015260c08082015161562e828601826145d6565b505060e08082015189828601526156478a860182614cca565b915050610100808301518583038287015261566283826153e4565b92505050610120808301518186015250610140808301518186015250868201516156908886018260ff169052565b509089015160ff169289019290925294880194928801926001016155cb565b50968a0151898803601f190160408b0152966156cb81896154b3565b9750505050604088015193506157216060880185805182526020808201519083015260408082015190830152606080820151908301526080808201516001600160a01b03169083015260a0908101511515910152565b6060880151610120880152608088015161014088015260a09097015160ff169690950195909552509392505050565b6000602080838503121561576357600080fd5b82516001600160401b0381111561577957600080fd5b8301601f8101851361578a57600080fd5b80516157986140748261401b565b81815260069190911b820183019083810190878311156157b757600080fd5b928401925b8284101561580357604084890312156157d55760008081fd5b6157dd613f1c565b84516157e88161403e565b815284860151868201528252604090930192908401906157bc565b979650505050505050565b6001600160a01b039384168152919092166020820152604081019190915260600190565b6000602080838503121561584557600080fd5b82516001600160401b0381111561585b57600080fd5b8301601f8101851361586c57600080fd5b805161587a6140748261401b565b8181526060918202830184019184820191908884111561589957600080fd5b938501935b838510156158ec5780858a0312156158b65760008081fd5b6158be613fa6565b85516158c98161403e565b81528587015187820152604080870151908201528352938401939185019161589e565b50979650505050505050565b6001600160a01b0394851681529290931660208301526040820152606081019190915260a06080820181905260009082015260c00190565b6000610200828403121561594357600080fd5b61594b613fc8565b905061595682614a9a565b815261596460208301614e25565b602082015261597560408301614e25565b6040820152606082015160608201526080820151608082015260a082015160a08201526159a460c08301614e25565b60c08201526159b560e08301614e25565b60e08201526101008281015190820152610120808301519082015261014080830151908201526101608083015190820152610180808301516001600160401b03811115615a0157600080fd5b615a0d85828601614e30565b8284015250506101a0615a21818401614f36565b908201526101c082810151908201526101e09182015191810191909152919050565b80516140d781613e89565b600080600060608486031215615a6357600080fd5b83516001600160401b0380821115615a7a57600080fd5b9085019060c08288031215615a8e57600080fd5b615a96613f84565b8251615aa1816140be565b81526020830151615ab18161403e565b8060208301525060408301516040820152606083015160608201526080830151608082015260a083015182811115615ae857600080fd5b615af489828601614e30565b60a0830152506020870151909550915080821115615b1157600080fd5b50615b1e86828701615930565b925050615b2d60408501615a43565b90509250925092565b60408152600061010084511515604084015260018060a01b03602086015116606084015260408501516080840152606085015160a0840152608085015160c084015260a085015160c060e0850152615b9082850182614cca565b848103602086015285511515815290506102006020860151615bb560208401826145d6565b506040860151615bc860408401826145d6565b50606086015160608301526080860151608083015260a086015160a083015260c0860151615bf960c08401826145d6565b5060e0860151615c0c60e08401826145d6565b50858301519282019290925261012080860151908201526101408086015190820152610160808601519082015261018080860151818301849052909290615c5582840182614cca565b935050506101a080860151615c6e8284018260ff169052565b50506101c085810151908201526101e094850151940193909352509092915050565b6020808252602b908201527f496e697469616c697a61626c653a20636f6e7472616374206973206e6f74206960408201526a6e697469616c697a696e6760a81b606082015260800190565b600060208284031215615ced57600080fd5b81516001600160401b0380821115615d0457600080fd5b9083019060408286031215615d1857600080fd5b615d20613f1c565b825182811115615d2f57600080fd5b615d3b87828601614e30565b825250602083015182811115615d5057600080fd5b615d5c87828601614b86565b6020830152509594505050505056fea2646970667358221220173288ca03a56a56c015b0b280de5334cc6444994eefcb8996e2391b15fa40c964736f6c63430008090033",
  "devdoc": {
    "kind": "dev",
    "methods": {
      "bulkPurchase((uint8,uint256,uint256,bytes)[],address,address,bool)": {
        "params": {
          "allowFail": "- true if fails while executing orders are allowed, false if fail of a single order means fail of the whole batch",
          "feeRecipientFirst": "- address of the first fee recipient",
          "feeRecipientSecond": "- address of the second fee recipient",
          "purchaseDetails": "- array of details about the purchases (more info in PurchaseDetails struct)"
        }
      },
      "bulkPurchaseWithSwap((uint8,uint256,uint256,bytes)[],address,address,bool,(bytes,uint256,uint256,bool))": {
        "params": {
          "allowFail": "- true if fails while executing orders are allowed, false if fail of a single order means fail of the whole batch",
          "feeRecipientFirst": "- address of the first fee recipient",
          "feeRecipientSecond": "- address of the second fee recipient",
          "purchaseDetails": "- array of details about the purchases (more info in PurchaseDetails struct)",
          "swapDetails": "- swapDetails v3"
        }
      },
      "bulkPurchaseWithV2Swap((uint8,uint256,uint256,bytes)[],address,address,bool,(address[],uint256,uint256,uint256[],bool))": {
        "params": {
          "allowFail": "- true if fails while executing orders are allowed, false if fail of a single order means fail of the whole batch",
          "feeRecipientFirst": "- address of the first fee recipient",
          "feeRecipientSecond": "- address of the second fee recipient",
          "purchaseDetails": "- array of details about the purchases (more info in PurchaseDetails struct)",
          "swapDetails": "- swapDetails v2"
        }
      },
      "onERC721Received(address,address,uint256,bytes)": {
        "details": "See {IERC721Receiver-onERC721Received}. Always returns `IERC721Receiver.onERC721Received.selector`."
      },
      "owner()": {
        "details": "Returns the address of the current owner."
      },
      "paused()": {
        "details": "Returns true if the contract is paused, and false otherwise."
      },
      "renounceOwnership()": {
        "details": "Leaves the contract without owner. It will not be possible to call `onlyOwner` functions anymore. Can only be called by the current owner. NOTE: Renouncing ownership will leave the contract without an owner, thereby removing any functionality that is only available to the owner."
      },
      "singlePurchase((uint8,uint256,uint256,bytes),address,address)": {
        "params": {
          "feeRecipientFirst": "- address of the first fee recipient",
          "feeRecipientSecond": "- address of the second fee recipient",
          "purchaseDetails": "- details about the purchase (more info in PurchaseDetails struct)"
        }
      },
      "singlePurchaseWithSwap((uint8,uint256,uint256,bytes),address,address,(bytes,uint256,uint256,bool))": {
        "params": {
          "feeRecipientFirst": "- address of the first fee recipient",
          "feeRecipientSecond": "- address of the second fee recipient",
          "purchaseDetails": "- details about the purchase (more info in PurchaseDetails struct)",
          "swapDetails": "- swapDetails v3"
        }
      },
      "singlePurchaseWithV2Swap((uint8,uint256,uint256,bytes),address,address,(address[],uint256,uint256,uint256[],bool))": {
        "params": {
          "feeRecipientFirst": "- address of the first fee recipient",
          "feeRecipientSecond": "- address of the second fee recipient",
          "purchaseDetails": "- details about the purchase (more info in PurchaseDetails struct)",
          "swapDetails": "- swapDetails v2"
        }
      },
      "supportsInterface(bytes4)": {
        "details": "See {IERC165-supportsInterface}."
      },
      "swapExactTokensForTokens((bytes,uint256,uint256,bool),bool)": {
        "params": {
          "combined": "bool is combined with sale",
          "swapDetails": "swapDetails required"
        }
      },
      "swapTokensForExactTokens((bytes,uint256,uint256,bool),bool)": {
        "params": {
          "combined": "bool is combined with sale",
          "swapDetails": "swapDetails required"
        }
      },
      "swapV2ExactETHOrWETHForTokens((address[],uint256,uint256,uint256[],bool),bool)": {
        "params": {
          "combined": "bool is combined with sale",
          "swapDetails": "swapDetails required"
        }
      },
      "swapV2ExactTokensForTokens((address[],uint256,uint256,uint256[],bool),bool)": {
        "params": {
          "combined": "bool is combined with sale",
          "swapDetails": "swapDetails required"
        }
      },
      "swapV2TokensForExactETHOrWETH((address[],uint256,uint256,uint256[],bool),bool)": {
        "params": {
          "combined": "bool is combined with sale",
          "swapDetails": "swapDetails required"
        }
      },
      "swapV2TokensForExactTokens((address[],uint256,uint256,uint256[],bool),bool)": {
        "params": {
          "combined": "bool is combined with sale",
          "swapDetails": "swapDetails required"
        }
      },
      "transferOwnership(address)": {
        "details": "Transfers ownership of the contract to a new account (`newOwner`). Can only be called by the current owner."
      }
    },
    "version": 1
  },
  "userdoc": {
    "kind": "user",
    "methods": {
      "bulkPurchase((uint8,uint256,uint256,bytes)[],address,address,bool)": {
        "notice": "executes an array of purchases"
      },
      "bulkPurchaseWithSwap((uint8,uint256,uint256,bytes)[],address,address,bool,(bytes,uint256,uint256,bool))": {
        "notice": "executes an array of purchases - with swap v3"
      },
      "bulkPurchaseWithV2Swap((uint8,uint256,uint256,bytes)[],address,address,bool,(address[],uint256,uint256,uint256[],bool))": {
        "notice": "executes an array of purchases - with swap v2"
      },
      "pause()": {
        "notice": "Pause the contract"
      },
      "setRarible(address)": {
        "notice": "temp for upgrade - to remove once initialized"
      },
      "singlePurchase((uint8,uint256,uint256,bytes),address,address)": {
        "notice": "executes a single purchase"
      },
      "singlePurchaseWithSwap((uint8,uint256,uint256,bytes),address,address,(bytes,uint256,uint256,bool))": {
        "notice": "executes a single purchase - with swap v3"
      },
      "singlePurchaseWithV2Swap((uint8,uint256,uint256,bytes),address,address,(address[],uint256,uint256,uint256[],bool))": {
        "notice": "executes a single purchase - with swap v2"
      },
      "swapExactTokensForTokens((bytes,uint256,uint256,bool),bool)": {
        "notice": "swaps exact tokens for tokens - uniswap v3"
      },
      "swapTokensForExactTokens((bytes,uint256,uint256,bool),bool)": {
        "notice": "swaps tokens for exact tokens - uniswap v3"
      },
      "swapV2ExactETHOrWETHForTokens((address[],uint256,uint256,uint256[],bool),bool)": {
        "notice": "swaps exact ETH or WETH for tokens - uniswap v2"
      },
      "swapV2ExactTokensForTokens((address[],uint256,uint256,uint256[],bool),bool)": {
        "notice": "swaps exact tokens for tokens - uniswap v2"
      },
      "swapV2TokensForExactETHOrWETH((address[],uint256,uint256,uint256[],bool),bool)": {
        "notice": "swaps tokens for exact ETH or WETH - uniswap v2"
      },
      "swapV2TokensForExactTokens((address[],uint256,uint256,uint256[],bool),bool)": {
        "notice": "swaps tokens for exact tokens - uniswap v2"
      },
      "unpause()": {
        "notice": "Unpause the contract"
      }
    },
    "version": 1
  },
  "storageLayout": {
    "storage": [
      {
        "astId": 138,
        "contract": "src/exchange-wrapper/ExchangeWrapper.sol:ExchangeWrapper",
        "label": "_initialized",
        "offset": 0,
        "slot": "0",
        "type": "t_uint8"
      },
      {
        "astId": 141,
        "contract": "src/exchange-wrapper/ExchangeWrapper.sol:ExchangeWrapper",
        "label": "_initializing",
        "offset": 1,
        "slot": "0",
        "type": "t_bool"
      },
      {
        "astId": 1326,
        "contract": "src/exchange-wrapper/ExchangeWrapper.sol:ExchangeWrapper",
        "label": "__gap",
        "offset": 0,
        "slot": "1",
        "type": "t_array(t_uint256)50_storage"
      },
      {
        "astId": 10,
        "contract": "src/exchange-wrapper/ExchangeWrapper.sol:ExchangeWrapper",
        "label": "_owner",
        "offset": 0,
        "slot": "51",
        "type": "t_address"
      },
      {
        "astId": 130,
        "contract": "src/exchange-wrapper/ExchangeWrapper.sol:ExchangeWrapper",
        "label": "__gap",
        "offset": 0,
        "slot": "52",
        "type": "t_array(t_uint256)49_storage"
      },
      {
        "astId": 303,
        "contract": "src/exchange-wrapper/ExchangeWrapper.sol:ExchangeWrapper",
        "label": "_paused",
        "offset": 0,
        "slot": "101",
        "type": "t_bool"
      },
      {
        "astId": 408,
        "contract": "src/exchange-wrapper/ExchangeWrapper.sol:ExchangeWrapper",
        "label": "__gap",
        "offset": 0,
        "slot": "102",
        "type": "t_array(t_uint256)49_storage"
      },
      {
        "astId": 2674,
        "contract": "src/exchange-wrapper/ExchangeWrapper.sol:ExchangeWrapper",
        "label": "exchangeV2",
        "offset": 0,
        "slot": "151",
        "type": "t_address"
      },
      {
        "astId": 2676,
        "contract": "src/exchange-wrapper/ExchangeWrapper.sol:ExchangeWrapper",
        "label": "rarible",
        "offset": 0,
        "slot": "152",
        "type": "t_address"
      },
      {
        "astId": 2678,
        "contract": "src/exchange-wrapper/ExchangeWrapper.sol:ExchangeWrapper",
        "label": "wyvern",
        "offset": 0,
        "slot": "153",
        "type": "t_address"
      },
      {
        "astId": 2680,
        "contract": "src/exchange-wrapper/ExchangeWrapper.sol:ExchangeWrapper",
        "label": "seaport",
        "offset": 0,
        "slot": "154",
        "type": "t_address"
      },
      {
        "astId": 2682,
        "contract": "src/exchange-wrapper/ExchangeWrapper.sol:ExchangeWrapper",
        "label": "x2y2",
        "offset": 0,
        "slot": "155",
        "type": "t_address"
      },
      {
        "astId": 2684,
        "contract": "src/exchange-wrapper/ExchangeWrapper.sol:ExchangeWrapper",
        "label": "looksrare",
        "offset": 0,
        "slot": "156",
        "type": "t_address"
      },
      {
        "astId": 2686,
        "contract": "src/exchange-wrapper/ExchangeWrapper.sol:ExchangeWrapper",
        "label": "sudoswap",
        "offset": 0,
        "slot": "157",
        "type": "t_address"
      },
      {
        "astId": 2688,
        "contract": "src/exchange-wrapper/ExchangeWrapper.sol:ExchangeWrapper",
        "label": "blur",
        "offset": 0,
        "slot": "158",
        "type": "t_address"
      },
      {
        "astId": 2690,
        "contract": "src/exchange-wrapper/ExchangeWrapper.sol:ExchangeWrapper",
        "label": "wrappedToken",
        "offset": 0,
        "slot": "159",
        "type": "t_address"
      },
      {
        "astId": 2693,
        "contract": "src/exchange-wrapper/ExchangeWrapper.sol:ExchangeWrapper",
        "label": "uniswapRouterV3",
        "offset": 0,
        "slot": "160",
        "type": "t_contract(ISwapRouterV3)6095"
      },
      {
        "astId": 2695,
        "contract": "src/exchange-wrapper/ExchangeWrapper.sol:ExchangeWrapper",
        "label": "erc20TransferProxy",
        "offset": 0,
        "slot": "161",
        "type": "t_address"
      },
      {
        "astId": 2698,
        "contract": "src/exchange-wrapper/ExchangeWrapper.sol:ExchangeWrapper",
        "label": "uniswapRouterV2",
        "offset": 0,
        "slot": "162",
        "type": "t_contract(ISwapRouterV2)6045"
      },
      {
        "astId": 2700,
        "contract": "src/exchange-wrapper/ExchangeWrapper.sol:ExchangeWrapper",
        "label": "_swapFeeValue",
        "offset": 0,
        "slot": "163",
        "type": "t_uint256"
      },
      {
        "astId": 2702,
        "contract": "src/exchange-wrapper/ExchangeWrapper.sol:ExchangeWrapper",
        "label": "_swapFeeRecipient",
        "offset": 0,
        "slot": "164",
        "type": "t_address"
      }
    ],
    "types": {
      "t_address": {
        "encoding": "inplace",
        "label": "address",
        "numberOfBytes": "20"
      },
      "t_array(t_uint256)49_storage": {
        "base": "t_uint256",
        "encoding": "inplace",
        "label": "uint256[49]",
        "numberOfBytes": "1568"
      },
      "t_array(t_uint256)50_storage": {
        "base": "t_uint256",
        "encoding": "inplace",
        "label": "uint256[50]",
        "numberOfBytes": "1600"
      },
      "t_bool": {
        "encoding": "inplace",
        "label": "bool",
        "numberOfBytes": "1"
      },
      "t_contract(ISwapRouterV2)6045": {
        "encoding": "inplace",
        "label": "contract ISwapRouterV2",
        "numberOfBytes": "20"
      },
      "t_contract(ISwapRouterV3)6095": {
        "encoding": "inplace",
        "label": "contract ISwapRouterV3",
        "numberOfBytes": "20"
      },
      "t_uint256": {
        "encoding": "inplace",
        "label": "uint256",
        "numberOfBytes": "32"
      },
      "t_uint8": {
        "encoding": "inplace",
        "label": "uint8",
        "numberOfBytes": "1"
      }
    }
  }
}