{
  "_format": "hh-sol-artifact-1",
  "contractName": "TestERC721WithRoyalties",
  "sourceName": "contracts/tests/tokens/TestERC721WithRoyalties.sol",
  "abi": [
    {
      "anonymous": false,
      "inputs": [
        {
          "indexed": true,
          "internalType": "address",
          "name": "owner",
          "type": "address"
        },
        {
          "indexed": true,
          "internalType": "address",
          "name": "approved",
          "type": "address"
        },
        {
          "indexed": true,
          "internalType": "uint256",
          "name": "tokenId",
          "type": "uint256"
        }
      ],
      "name": "Approval",
      "type": "event"
    },
    {
      "anonymous": false,
      "inputs": [
        {
          "indexed": true,
          "internalType": "address",
          "name": "owner",
          "type": "address"
        },
        {
          "indexed": true,
          "internalType": "address",
          "name": "operator",
          "type": "address"
        },
        {
          "indexed": false,
          "internalType": "bool",
          "name": "approved",
          "type": "bool"
        }
      ],
      "name": "ApprovalForAll",
      "type": "event"
    },
    {
      "anonymous": false,
      "inputs": [
        {
          "indexed": false,
          "internalType": "address",
          "name": "msgSender",
          "type": "address"
        },
        {
          "indexed": false,
          "internalType": "uint256",
          "name": "tokenId",
          "type": "uint256"
        },
        {
          "indexed": false,
          "internalType": "string",
          "name": "lockedContent",
          "type": "string"
        }
      ],
      "name": "LockedContentViewed",
      "type": "event"
    },
    {
      "anonymous": false,
      "inputs": [
        {
          "indexed": false,
          "internalType": "address",
          "name": "feeChanger",
          "type": "address"
        },
        {
          "indexed": false,
          "internalType": "uint256",
          "name": "newValue",
          "type": "uint256"
        }
      ],
      "name": "MintFeesUpdated",
      "type": "event"
    },
    {
      "anonymous": false,
      "inputs": [
        {
          "indexed": false,
          "internalType": "address",
          "name": "feeWithdrawer",
          "type": "address"
        },
        {
          "indexed": false,
          "internalType": "uint256",
          "name": "withdrawAmount",
          "type": "uint256"
        }
      ],
      "name": "MintFeesWithdrawn",
      "type": "event"
    },
    {
      "anonymous": false,
      "inputs": [
        {
          "indexed": false,
          "internalType": "address",
          "name": "toAddress",
          "type": "address"
        },
        {
          "indexed": false,
          "internalType": "uint256",
          "name": "tokenId",
          "type": "uint256"
        },
        {
          "indexed": false,
          "internalType": "string",
          "name": "externalURI",
          "type": "string"
        }
      ],
      "name": "Minted",
      "type": "event"
    },
    {
      "anonymous": false,
      "inputs": [
        {
          "indexed": true,
          "internalType": "address",
          "name": "previousOwner",
          "type": "address"
        },
        {
          "indexed": true,
          "internalType": "address",
          "name": "newOwner",
          "type": "address"
        }
      ],
      "name": "OwnershipTransferred",
      "type": "event"
    },
    {
      "anonymous": false,
      "inputs": [
        {
          "indexed": false,
          "internalType": "address",
          "name": "account",
          "type": "address"
        }
      ],
      "name": "Paused",
      "type": "event"
    },
    {
      "anonymous": false,
      "inputs": [
        {
          "indexed": true,
          "internalType": "bytes32",
          "name": "role",
          "type": "bytes32"
        },
        {
          "indexed": true,
          "internalType": "bytes32",
          "name": "previousAdminRole",
          "type": "bytes32"
        },
        {
          "indexed": true,
          "internalType": "bytes32",
          "name": "newAdminRole",
          "type": "bytes32"
        }
      ],
      "name": "RoleAdminChanged",
      "type": "event"
    },
    {
      "anonymous": false,
      "inputs": [
        {
          "indexed": true,
          "internalType": "bytes32",
          "name": "role",
          "type": "bytes32"
        },
        {
          "indexed": true,
          "internalType": "address",
          "name": "account",
          "type": "address"
        },
        {
          "indexed": true,
          "internalType": "address",
          "name": "sender",
          "type": "address"
        }
      ],
      "name": "RoleGranted",
      "type": "event"
    },
    {
      "anonymous": false,
      "inputs": [
        {
          "indexed": true,
          "internalType": "bytes32",
          "name": "role",
          "type": "bytes32"
        },
        {
          "indexed": true,
          "internalType": "address",
          "name": "account",
          "type": "address"
        },
        {
          "indexed": true,
          "internalType": "address",
          "name": "sender",
          "type": "address"
        }
      ],
      "name": "RoleRevoked",
      "type": "event"
    },
    {
      "anonymous": false,
      "inputs": [
        {
          "indexed": true,
          "internalType": "address",
          "name": "from",
          "type": "address"
        },
        {
          "indexed": true,
          "internalType": "address",
          "name": "to",
          "type": "address"
        },
        {
          "indexed": true,
          "internalType": "uint256",
          "name": "tokenId",
          "type": "uint256"
        }
      ],
      "name": "Transfer",
      "type": "event"
    },
    {
      "anonymous": false,
      "inputs": [
        {
          "indexed": false,
          "internalType": "address",
          "name": "account",
          "type": "address"
        }
      ],
      "name": "Unpaused",
      "type": "event"
    },
    {
      "inputs": [],
      "name": "DEFAULT_ADMIN_ROLE",
      "outputs": [
        {
          "internalType": "bytes32",
          "name": "",
          "type": "bytes32"
        }
      ],
      "stateMutability": "view",
      "type": "function"
    },
    {
      "inputs": [],
      "name": "MINTER_ROLE",
      "outputs": [
        {
          "internalType": "bytes32",
          "name": "",
          "type": "bytes32"
        }
      ],
      "stateMutability": "view",
      "type": "function"
    },
    {
      "inputs": [],
      "name": "PAUSER_ROLE",
      "outputs": [
        {
          "internalType": "bytes32",
          "name": "",
          "type": "bytes32"
        }
      ],
      "stateMutability": "view",
      "type": "function"
    },
    {
      "inputs": [],
      "name": "POLYNETWORK_ROLE",
      "outputs": [
        {
          "internalType": "bytes32",
          "name": "",
          "type": "bytes32"
        }
      ],
      "stateMutability": "view",
      "type": "function"
    },
    {
      "inputs": [
        {
          "internalType": "address",
          "name": "to",
          "type": "address"
        },
        {
          "internalType": "uint256",
          "name": "tokenId",
          "type": "uint256"
        }
      ],
      "name": "approve",
      "outputs": [],
      "stateMutability": "nonpayable",
      "type": "function"
    },
    {
      "inputs": [
        {
          "internalType": "address",
          "name": "owner",
          "type": "address"
        }
      ],
      "name": "balanceOf",
      "outputs": [
        {
          "internalType": "uint256",
          "name": "",
          "type": "uint256"
        }
      ],
      "stateMutability": "view",
      "type": "function"
    },
    {
      "inputs": [
        {
          "internalType": "uint256",
          "name": "tokenId",
          "type": "uint256"
        }
      ],
      "name": "burn",
      "outputs": [],
      "stateMutability": "nonpayable",
      "type": "function"
    },
    {
      "inputs": [
        {
          "internalType": "uint256[]",
          "name": "tokensId",
          "type": "uint256[]"
        }
      ],
      "name": "burnBatch",
      "outputs": [],
      "stateMutability": "nonpayable",
      "type": "function"
    },
    {
      "inputs": [
        {
          "internalType": "uint256",
          "name": "tokenId",
          "type": "uint256"
        }
      ],
      "name": "getApproved",
      "outputs": [
        {
          "internalType": "address",
          "name": "",
          "type": "address"
        }
      ],
      "stateMutability": "view",
      "type": "function"
    },
    {
      "inputs": [],
      "name": "getCurrentCounter",
      "outputs": [
        {
          "internalType": "uint256",
          "name": "",
          "type": "uint256"
        }
      ],
      "stateMutability": "view",
      "type": "function"
    },
    {
      "inputs": [
        {
          "internalType": "uint256",
          "name": "tokenId",
          "type": "uint256"
        }
      ],
      "name": "getCurrentLockedContentViewTracker",
      "outputs": [
        {
          "internalType": "uint256",
          "name": "",
          "type": "uint256"
        }
      ],
      "stateMutability": "view",
      "type": "function"
    },
    {
      "inputs": [],
      "name": "getGhostmarketMintFees",
      "outputs": [
        {
          "internalType": "uint256",
          "name": "",
          "type": "uint256"
        }
      ],
      "stateMutability": "view",
      "type": "function"
    },
    {
      "inputs": [],
      "name": "getLastTokenID",
      "outputs": [
        {
          "internalType": "uint256",
          "name": "",
          "type": "uint256"
        }
      ],
      "stateMutability": "view",
      "type": "function"
    },
    {
      "inputs": [
        {
          "internalType": "uint256",
          "name": "tokenId",
          "type": "uint256"
        }
      ],
      "name": "getLockedContent",
      "outputs": [],
      "stateMutability": "nonpayable",
      "type": "function"
    },
    {
      "inputs": [
        {
          "internalType": "uint256",
          "name": "tokenId",
          "type": "uint256"
        }
      ],
      "name": "getMetadataJson",
      "outputs": [
        {
          "internalType": "string",
          "name": "",
          "type": "string"
        }
      ],
      "stateMutability": "view",
      "type": "function"
    },
    {
      "inputs": [
        {
          "internalType": "bytes32",
          "name": "role",
          "type": "bytes32"
        }
      ],
      "name": "getRoleAdmin",
      "outputs": [
        {
          "internalType": "bytes32",
          "name": "",
          "type": "bytes32"
        }
      ],
      "stateMutability": "view",
      "type": "function"
    },
    {
      "inputs": [
        {
          "internalType": "bytes32",
          "name": "role",
          "type": "bytes32"
        },
        {
          "internalType": "uint256",
          "name": "index",
          "type": "uint256"
        }
      ],
      "name": "getRoleMember",
      "outputs": [
        {
          "internalType": "address",
          "name": "",
          "type": "address"
        }
      ],
      "stateMutability": "view",
      "type": "function"
    },
    {
      "inputs": [
        {
          "internalType": "bytes32",
          "name": "role",
          "type": "bytes32"
        }
      ],
      "name": "getRoleMemberCount",
      "outputs": [
        {
          "internalType": "uint256",
          "name": "",
          "type": "uint256"
        }
      ],
      "stateMutability": "view",
      "type": "function"
    },
    {
      "inputs": [
        {
          "internalType": "uint256",
          "name": "tokenId",
          "type": "uint256"
        }
      ],
      "name": "getRoyalties",
      "outputs": [
        {
          "components": [
            {
              "internalType": "address payable",
              "name": "recipient",
              "type": "address"
            },
            {
              "internalType": "uint256",
              "name": "value",
              "type": "uint256"
            }
          ],
          "internalType": "struct GhostMarketERC721.Royalty[]",
          "name": "",
          "type": "tuple[]"
        }
      ],
      "stateMutability": "view",
      "type": "function"
    },
    {
      "inputs": [
        {
          "internalType": "uint256",
          "name": "tokenId",
          "type": "uint256"
        }
      ],
      "name": "getRoyaltiesBps",
      "outputs": [
        {
          "internalType": "uint256[]",
          "name": "",
          "type": "uint256[]"
        }
      ],
      "stateMutability": "view",
      "type": "function"
    },
    {
      "inputs": [
        {
          "internalType": "uint256",
          "name": "tokenId",
          "type": "uint256"
        }
      ],
      "name": "getRoyaltiesRecipients",
      "outputs": [
        {
          "internalType": "address payable[]",
          "name": "",
          "type": "address[]"
        }
      ],
      "stateMutability": "view",
      "type": "function"
    },
    {
      "inputs": [
        {
          "internalType": "bytes32",
          "name": "role",
          "type": "bytes32"
        },
        {
          "internalType": "address",
          "name": "account",
          "type": "address"
        }
      ],
      "name": "grantRole",
      "outputs": [],
      "stateMutability": "nonpayable",
      "type": "function"
    },
    {
      "inputs": [
        {
          "internalType": "bytes32",
          "name": "role",
          "type": "bytes32"
        },
        {
          "internalType": "address",
          "name": "account",
          "type": "address"
        }
      ],
      "name": "hasRole",
      "outputs": [
        {
          "internalType": "bool",
          "name": "",
          "type": "bool"
        }
      ],
      "stateMutability": "view",
      "type": "function"
    },
    {
      "inputs": [
        {
          "internalType": "string",
          "name": "name",
          "type": "string"
        },
        {
          "internalType": "string",
          "name": "symbol",
          "type": "string"
        },
        {
          "internalType": "string",
          "name": "uri",
          "type": "string"
        }
      ],
      "name": "initialize",
      "outputs": [],
      "stateMutability": "nonpayable",
      "type": "function"
    },
    {
      "inputs": [
        {
          "internalType": "address",
          "name": "owner",
          "type": "address"
        },
        {
          "internalType": "address",
          "name": "operator",
          "type": "address"
        }
      ],
      "name": "isApprovedForAll",
      "outputs": [
        {
          "internalType": "bool",
          "name": "",
          "type": "bool"
        }
      ],
      "stateMutability": "view",
      "type": "function"
    },
    {
      "inputs": [
        {
          "internalType": "address",
          "name": "to",
          "type": "address"
        },
        {
          "components": [
            {
              "internalType": "address payable",
              "name": "recipient",
              "type": "address"
            },
            {
              "internalType": "uint256",
              "name": "value",
              "type": "uint256"
            }
          ],
          "internalType": "struct GhostMarketERC721.Royalty[]",
          "name": "royalties",
          "type": "tuple[]"
        },
        {
          "internalType": "string",
          "name": "externalURI",
          "type": "string"
        },
        {
          "internalType": "string",
          "name": "metadata",
          "type": "string"
        },
        {
          "internalType": "string",
          "name": "lockedcontent",
          "type": "string"
        }
      ],
      "name": "mintGhost",
      "outputs": [],
      "stateMutability": "payable",
      "type": "function"
    },
    {
      "inputs": [
        {
          "internalType": "address",
          "name": "to",
          "type": "address"
        },
        {
          "internalType": "uint256",
          "name": "tokenId",
          "type": "uint256"
        },
        {
          "internalType": "string",
          "name": "uri",
          "type": "string"
        }
      ],
      "name": "mintWithURI",
      "outputs": [],
      "stateMutability": "nonpayable",
      "type": "function"
    },
    {
      "inputs": [],
      "name": "name",
      "outputs": [
        {
          "internalType": "string",
          "name": "",
          "type": "string"
        }
      ],
      "stateMutability": "view",
      "type": "function"
    },
    {
      "inputs": [],
      "name": "owner",
      "outputs": [
        {
          "internalType": "address",
          "name": "",
          "type": "address"
        }
      ],
      "stateMutability": "view",
      "type": "function"
    },
    {
      "inputs": [
        {
          "internalType": "uint256",
          "name": "tokenId",
          "type": "uint256"
        }
      ],
      "name": "ownerOf",
      "outputs": [
        {
          "internalType": "address",
          "name": "",
          "type": "address"
        }
      ],
      "stateMutability": "view",
      "type": "function"
    },
    {
      "inputs": [],
      "name": "pause",
      "outputs": [],
      "stateMutability": "nonpayable",
      "type": "function"
    },
    {
      "inputs": [],
      "name": "paused",
      "outputs": [
        {
          "internalType": "bool",
          "name": "",
          "type": "bool"
        }
      ],
      "stateMutability": "view",
      "type": "function"
    },
    {
      "inputs": [],
      "name": "renounceOwnership",
      "outputs": [],
      "stateMutability": "nonpayable",
      "type": "function"
    },
    {
      "inputs": [
        {
          "internalType": "bytes32",
          "name": "role",
          "type": "bytes32"
        },
        {
          "internalType": "address",
          "name": "account",
          "type": "address"
        }
      ],
      "name": "renounceRole",
      "outputs": [],
      "stateMutability": "nonpayable",
      "type": "function"
    },
    {
      "inputs": [
        {
          "internalType": "bytes32",
          "name": "role",
          "type": "bytes32"
        },
        {
          "internalType": "address",
          "name": "account",
          "type": "address"
        }
      ],
      "name": "revokeRole",
      "outputs": [],
      "stateMutability": "nonpayable",
      "type": "function"
    },
    {
      "inputs": [
        {
          "internalType": "address",
          "name": "from",
          "type": "address"
        },
        {
          "internalType": "address",
          "name": "to",
          "type": "address"
        },
        {
          "internalType": "uint256",
          "name": "tokenId",
          "type": "uint256"
        }
      ],
      "name": "safeTransferFrom",
      "outputs": [],
      "stateMutability": "nonpayable",
      "type": "function"
    },
    {
      "inputs": [
        {
          "internalType": "address",
          "name": "from",
          "type": "address"
        },
        {
          "internalType": "address",
          "name": "to",
          "type": "address"
        },
        {
          "internalType": "uint256",
          "name": "tokenId",
          "type": "uint256"
        },
        {
          "internalType": "bytes",
          "name": "_data",
          "type": "bytes"
        }
      ],
      "name": "safeTransferFrom",
      "outputs": [],
      "stateMutability": "nonpayable",
      "type": "function"
    },
    {
      "inputs": [
        {
          "internalType": "address",
          "name": "operator",
          "type": "address"
        },
        {
          "internalType": "bool",
          "name": "approved",
          "type": "bool"
        }
      ],
      "name": "setApprovalForAll",
      "outputs": [],
      "stateMutability": "nonpayable",
      "type": "function"
    },
    {
      "inputs": [
        {
          "internalType": "string",
          "name": "baseTokenURI",
          "type": "string"
        }
      ],
      "name": "setBaseTokenURI",
      "outputs": [],
      "stateMutability": "nonpayable",
      "type": "function"
    },
    {
      "inputs": [
        {
          "internalType": "uint256",
          "name": "gmmf",
          "type": "uint256"
        }
      ],
      "name": "setGhostmarketMintFee",
      "outputs": [],
      "stateMutability": "nonpayable",
      "type": "function"
    },
    {
      "inputs": [
        {
          "internalType": "bytes4",
          "name": "interfaceId",
          "type": "bytes4"
        }
      ],
      "name": "supportsInterface",
      "outputs": [
        {
          "internalType": "bool",
          "name": "",
          "type": "bool"
        }
      ],
      "stateMutability": "view",
      "type": "function"
    },
    {
      "inputs": [],
      "name": "symbol",
      "outputs": [
        {
          "internalType": "string",
          "name": "",
          "type": "string"
        }
      ],
      "stateMutability": "view",
      "type": "function"
    },
    {
      "inputs": [
        {
          "internalType": "uint256",
          "name": "index",
          "type": "uint256"
        }
      ],
      "name": "tokenByIndex",
      "outputs": [
        {
          "internalType": "uint256",
          "name": "",
          "type": "uint256"
        }
      ],
      "stateMutability": "view",
      "type": "function"
    },
    {
      "inputs": [
        {
          "internalType": "address",
          "name": "owner",
          "type": "address"
        },
        {
          "internalType": "uint256",
          "name": "index",
          "type": "uint256"
        }
      ],
      "name": "tokenOfOwnerByIndex",
      "outputs": [
        {
          "internalType": "uint256",
          "name": "",
          "type": "uint256"
        }
      ],
      "stateMutability": "view",
      "type": "function"
    },
    {
      "inputs": [
        {
          "internalType": "uint256",
          "name": "tokenId",
          "type": "uint256"
        }
      ],
      "name": "tokenURI",
      "outputs": [
        {
          "internalType": "string",
          "name": "",
          "type": "string"
        }
      ],
      "stateMutability": "view",
      "type": "function"
    },
    {
      "inputs": [],
      "name": "totalSupply",
      "outputs": [
        {
          "internalType": "uint256",
          "name": "",
          "type": "uint256"
        }
      ],
      "stateMutability": "view",
      "type": "function"
    },
    {
      "inputs": [
        {
          "internalType": "address",
          "name": "from",
          "type": "address"
        },
        {
          "internalType": "address",
          "name": "to",
          "type": "address"
        },
        {
          "internalType": "uint256",
          "name": "tokenId",
          "type": "uint256"
        }
      ],
      "name": "transferFrom",
      "outputs": [],
      "stateMutability": "nonpayable",
      "type": "function"
    },
    {
      "inputs": [
        {
          "internalType": "address",
          "name": "newOwner",
          "type": "address"
        }
      ],
      "name": "transferOwnership",
      "outputs": [],
      "stateMutability": "nonpayable",
      "type": "function"
    },
    {
      "inputs": [],
      "name": "unpause",
      "outputs": [],
      "stateMutability": "nonpayable",
      "type": "function"
    },
    {
      "inputs": [
        {
          "internalType": "uint256",
          "name": "withdrawAmount",
          "type": "uint256"
        }
      ],
      "name": "withdraw",
      "outputs": [],
      "stateMutability": "nonpayable",
      "type": "function"
    }
  ],
  "bytecode": "0x608060405234801561001057600080fd5b50614c85806100206000396000f3fe6080604052600436106103295760003560e01c80638456cb59116101a5578063c6f4f0f0116100ec578063e24dbeae11610095578063e985e9c51161006f578063e985e9c514610950578063edcbc0bd14610999578063f2fde38b146109c6578063f7d027de146109e657600080fd5b8063e24dbeae146108e6578063e4623c1b146108fc578063e63ab1e91461091c57600080fd5b8063d5391393116100c6578063d539139314610872578063d547741f146108a6578063dac0f3d9146108c657600080fd5b8063c6f4f0f014610804578063c87b56dd14610832578063ca15c8731461085257600080fd5b8063a217fddf1161014e578063b88d4fde11610128578063b88d4fde1461078a578063bb3bafd6146107aa578063c1793c58146107d757600080fd5b8063a217fddf14610735578063a22cb4651461074a578063a6487c531461076a57600080fd5b806391d148541161017f57806391d14854146106a657806395d89b41146106ec5780639ceea6651461070157600080fd5b80638456cb59146106525780638da5cb5b146106675780639010d07c1461068657600080fd5b80632fffbf26116102745780634a99950b1161021d5780636352211e116101f75780636352211e146105e857806370a0823114610608578063715018a61461062857806373448c461461063d57600080fd5b80634a99950b1461058f5780634f6ccce7146105af5780635c975abb146105cf57600080fd5b80633f4ba83a1161024e5780633f4ba83a1461053a57806342842e0e1461054f57806342966c681461056f57600080fd5b80632fffbf26146104e757806330176e13146104fa57806336568abe1461051a57600080fd5b80631c7e78f3116102d65780632e1a7d4d116102b05780632e1a7d4d146104875780632f2ff15d146104a75780632f745c59146104c757600080fd5b80631c7e78f31461041757806323b872dd14610437578063248a9ca31461045757600080fd5b8063095ea7b311610307578063095ea7b3146103bd5780630e094137146103df57806318160ddd1461040257600080fd5b806301ffc9a71461032e57806306fdde0314610363578063081812fc14610385575b600080fd5b34801561033a57600080fd5b5061034e6103493660046145ff565b610a06565b60405190151581526020015b60405180910390f35b34801561036f57600080fd5b50610378610a17565b60405161035a91906149e5565b34801561039157600080fd5b506103a56103a03660046145a2565b610aa9565b6040516001600160a01b03909116815260200161035a565b3480156103c957600080fd5b506103dd6103d836600461448d565b610b43565b005b3480156103eb57600080fd5b506103f4610c59565b60405190815260200161035a565b34801561040e57600080fd5b5060fd546103f4565b34801561042357600080fd5b506103dd6104323660046145a2565b610c90565b34801561044357600080fd5b506103dd610452366004614259565b610d52565b34801561046357600080fd5b506103f46104723660046145a2565b60009081526065602052604090206001015490565b34801561049357600080fd5b506103dd6104a23660046145a2565b610dce565b3480156104b357600080fd5b506103dd6104c23660046145ba565b610fab565b3480156104d357600080fd5b506103f46104e236600461448d565b610fcd565b6103dd6104f5366004614316565b611063565b34801561050657600080fd5b506103dd610515366004614637565b611299565b34801561052657600080fd5b506103dd6105353660046145ba565b61132e565b34801561054657600080fd5b506103dd611350565b34801561055b57600080fd5b506103dd61056a366004614259565b6113f8565b34801561057b57600080fd5b506103dd61058a3660046145a2565b611413565b34801561059b57600080fd5b506103dd6105aa3660046144b8565b61149a565b3480156105bb57600080fd5b506103f46105ca3660046145a2565b6115af565b3480156105db57600080fd5b5061015f5460ff1661034e565b3480156105f457600080fd5b506103a56106033660046145a2565b611650565b34801561061457600080fd5b506103f4610623366004614205565b6116c7565b34801561063457600080fd5b506103dd61174e565b34801561064957600080fd5b506103f46117f5565b34801561065e57600080fd5b506103dd611801565b34801561067357600080fd5b5061025b546001600160a01b03166103a5565b34801561069257600080fd5b506103a56106a13660046145de565b6118a5565b3480156106b257600080fd5b5061034e6106c13660046145ba565b60009182526065602090815260408084206001600160a01b0393909316845291905290205460ff1690565b3480156106f857600080fd5b506103786118c4565b34801561070d57600080fd5b506103f47f8a9d57248f1015d5cac20111fe2512477434cf493627e5e959ca751e593d807981565b34801561074157600080fd5b506103f4600081565b34801561075657600080fd5b506103dd61076536600461445c565b6118d3565b34801561077657600080fd5b506103dd61078536600461466a565b611998565b34801561079657600080fd5b506103dd6107a5366004614299565b611abc565b3480156107b657600080fd5b506107ca6107c53660046145a2565b611b38565b60405161035a9190614955565b3480156107e357600080fd5b506107f76107f23660046145a2565b611bc1565b60405161035a91906149ad565b34801561081057600080fd5b506103f461081f3660046145a2565b60009081526102c1602052604090205490565b34801561083e57600080fd5b5061037861084d3660046145a2565b611d0e565b34801561085e57600080fd5b506103f461086d3660046145a2565b611d19565b34801561087e57600080fd5b506103f47f9f2df0fed2c77648de5860a4cc508cd0818c85b8b8a1ab4ceeef8d981c8956a681565b3480156108b257600080fd5b506103dd6108c13660046145ba565b611d30565b3480156108d257600080fd5b506103dd6108e13660046145a2565b611d3a565b3480156108f257600080fd5b506102c4546103f4565b34801561090857600080fd5b506103dd61091736600461450f565b611de2565b34801561092857600080fd5b506103f47f65d7a28e3265b37a6474929f336521b332c1681b933f6cb9f3376673440d862a81565b34801561095c57600080fd5b5061034e61096b366004614221565b6001600160a01b03918216600090815260ce6020908152604080832093909416825291909152205460ff1690565b3480156109a557600080fd5b506109b96109b43660046145a2565b611e30565b60405161035a9190614908565b3480156109d257600080fd5b506103dd6109e1366004614205565b611f82565b3480156109f257600080fd5b50610378610a013660046145a2565b6120a0565b6000610a1182612143565b92915050565b606060c98054610a2690614b78565b80601f0160208091040260200160405190810160405280929190818152602001828054610a5290614b78565b8015610a9f5780601f10610a7457610100808354040283529160200191610a9f565b820191906000526020600020905b815481529060010190602001808311610a8257829003601f168201915b5050505050905090565b600081815260cb60205260408120546001600160a01b0316610b275760405162461bcd60e51b815260206004820152602c60248201527f4552433732313a20617070726f76656420717565727920666f72206e6f6e657860448201526b34b9ba32b73a103a37b5b2b760a11b60648201526084015b60405180910390fd5b50600090815260cd60205260409020546001600160a01b031690565b6000610b4e82611650565b9050806001600160a01b0316836001600160a01b03161415610bbc5760405162461bcd60e51b815260206004820152602160248201527f4552433732313a20617070726f76616c20746f2063757272656e74206f776e656044820152603960f91b6064820152608401610b1e565b336001600160a01b0382161480610bd85750610bd8813361096b565b610c4a5760405162461bcd60e51b815260206004820152603860248201527f4552433732313a20617070726f76652063616c6c6572206973206e6f74206f7760448201527f6e6572206e6f7220617070726f76656420666f7220616c6c00000000000000006064820152608401610b1e565b610c548383612175565b505050565b6000610c656101f55490565b60011415610c7a57506101f55490565b905090565b6001610c866101f55490565b610c759190614b1e565b33610c9a82611650565b6001600160a01b031614610cfc5760405162461bcd60e51b815260206004820152602360248201527f43616c6c6572206d75737420626520746865206f776e6572206f66207468652060448201526213919560ea1b6064820152608401610b1e565b610d05816121e3565b60008181526102c060205260409081902090517f544b1d1249133c50ce89743ed1ca34a815bd50d42b71e6d331a1ac560013a8ec91610d479133918591614849565b60405180910390a150565b610d5d335b82612211565b610dc35760405162461bcd60e51b815260206004820152603160248201527f4552433732313a207472616e736665722063616c6c6572206973206e6f74206f6044820152701ddb995c881b9bdc88185c1c1c9bdd9959607a1b6064820152608401610b1e565b610c54838383612308565b61025b546001600160a01b03163314610e295760405162461bcd60e51b815260206004820181905260248201527f4f776e61626c653a2063616c6c6572206973206e6f7420746865206f776e65726044820152606401610b1e565b600081118015610e3c57506102c3548111155b610ebe5760405162461bcd60e51b815260206004820152604760248201527f576974686472617720616d6f756e742073686f756c642062652067726561746560448201527f72207468656e203020616e64206c657373207468656e20636f6e74726163742060648201526662616c616e636560c81b608482015260a401610b1e565b806102c36000828254610ed19190614b1e565b9091555050604051600090339083908381818185875af1925050503d8060008114610f18576040519150601f19603f3d011682016040523d82523d6000602084013e610f1d565b606091505b5050905080610f6e5760405162461bcd60e51b815260206004820152601060248201527f5472616e73666572206661696c65642e000000000000000000000000000000006044820152606401610b1e565b60408051338152602081018490527f3c897fa64265e543b9d36df079688f87240185d1bf1a937e4c45a56e11678736910160405180910390a15050565b610fb582826124b3565b6000828152609760205260409020610c5490826124d9565b6000610fd8836116c7565b821061103a5760405162461bcd60e51b815260206004820152602b60248201527f455243373231456e756d657261626c653a206f776e657220696e646578206f7560448201526a74206f6620626f756e647360a81b6064820152608401610b1e565b506001600160a01b0391909116600090815260fb60209081526040808320938352929052205490565b60026102295414156110b75760405162461bcd60e51b815260206004820152601f60248201527f5265656e7472616e637947756172643a207265656e7472616e742063616c6c006044820152606401610b1e565b6002610229556001600160a01b0385166111135760405162461bcd60e51b815260206004820152601160248201527f746f2063616e277420626520656d7074790000000000000000000000000000006044820152606401610b1e565b604080516000815260208101808352815190209161113391869101614710565b6040516020818303038152906040528051906020012014156111975760405162461bcd60e51b815260206004820152601a60248201527f65787465726e616c5552492063616e277420626520656d7074790000000000006044820152606401610b1e565b6111a0856124ee565b60006111aa610c59565b8551909150156111be576111be8186612510565b60408051600081526020810180835281519020916111de91869101614710565b60405160208183030381529060405280519060200120146112035761120381846127c6565b604080516000815260208101808352815190209161122391859101614710565b60405160208183030381529060405280519060200120146112485761124881836127e6565b611250612806565b7fe7cd4ce7f2a465edc730269a1305e8a48bad821e8fb7e152ec413829c01a53c486828660405161128393929190614818565b60405180910390a1505060016102295550505050565b6112a46000336106c1565b6113165760405162461bcd60e51b815260206004820152603460248201527f73657442617365546f6b656e5552493a206d75737420686176652041444d494e60448201527f20726f6c6520746f206368616e676520746869730000000000000000000000006064820152608401610b1e565b805161132a906101f69060208401906140bf565b5050565b61133882826128a7565b6000828152609760205260409020610c54908261292f565b61137a7f65d7a28e3265b37a6474929f336521b332c1681b933f6cb9f3376673440d862a336106c1565b6113ee576040805162461bcd60e51b81526020600482015260248101919091527f4552433732315072657365744d696e7465725061757365724175746f49643a2060448201527f6d75737420686176652070617573657220726f6c6520746f20756e70617573656064820152608401610b1e565b6113f6612944565b565b610c5483838360405180602001604052806000815250611abc565b61141c33610d57565b61148e5760405162461bcd60e51b815260206004820152603060248201527f4552433732314275726e61626c653a2063616c6c6572206973206e6f74206f7760448201527f6e6572206e6f7220617070726f766564000000000000000000000000000000006064820152608401610b1e565b611497816129e2565b50565b6114c47f8a9d57248f1015d5cac20111fe2512477434cf493627e5e959ca751e593d8079336106c1565b6115365760405162461bcd60e51b815260206004820152603460248201527f6d696e74576974685552493a206d757374206861766520504f4c594e4554574f60448201527f524b5f524f4c4520726f6c6520746f206d696e740000000000000000000000006064820152608401610b1e565b600082815260cb60205260409020546001600160a01b03161561159b5760405162461bcd60e51b815260206004820152601660248201527f746f6b656e20696420616c7265616479206578697374000000000000000000006044820152606401610b1e565b6115a583836129eb565b610c5482826129f5565b60006115ba60fd5490565b821061161d5760405162461bcd60e51b815260206004820152602c60248201527f455243373231456e756d657261626c653a20676c6f62616c20696e646578206f60448201526b7574206f6620626f756e647360a01b6064820152608401610b1e565b60fd828154811061163e57634e487b7160e01b600052603260045260246000fd5b90600052602060002001549050919050565b600081815260cb60205260408120546001600160a01b031680610a115760405162461bcd60e51b815260206004820152602960248201527f4552433732313a206f776e657220717565727920666f72206e6f6e657869737460448201526832b73a103a37b5b2b760b91b6064820152608401610b1e565b60006001600160a01b0382166117325760405162461bcd60e51b815260206004820152602a60248201527f4552433732313a2062616c616e636520717565727920666f7220746865207a65604482015269726f206164647265737360b01b6064820152608401610b1e565b506001600160a01b0316600090815260cc602052604090205490565b61025b546001600160a01b031633146117a95760405162461bcd60e51b815260206004820181905260248201527f4f776e61626c653a2063616c6c6572206973206e6f7420746865206f776e65726044820152606401610b1e565b61025b546040516000916001600160a01b0316907f8be0079c531659141344cd1fd0a4f28419497f9722a3daafe3b4186f6b6457e0908390a361025b80546001600160a01b0319169055565b6000610c756101f55490565b61182b7f65d7a28e3265b37a6474929f336521b332c1681b933f6cb9f3376673440d862a336106c1565b61189d5760405162461bcd60e51b815260206004820152603e60248201527f4552433732315072657365744d696e7465725061757365724175746f49643a2060448201527f6d75737420686176652070617573657220726f6c6520746f20706175736500006064820152608401610b1e565b6113f66129ff565b60008281526097602052604081206118bd9083612a89565b9392505050565b606060ca8054610a2690614b78565b6001600160a01b03821633141561192c5760405162461bcd60e51b815260206004820152601960248201527f4552433732313a20617070726f766520746f2063616c6c6572000000000000006044820152606401610b1e565b33600081815260ce602090815260408083206001600160a01b03871680855290835292819020805460ff191686151590811790915590519081529192917f17307eab39ab6107e8899845ad3d59bd9653f200f220920489ca2b5937696c31910160405180910390a35050565b600054610100900460ff16806119b1575060005460ff16155b6119cd5760405162461bcd60e51b8152600401610b1e906149f8565b600054610100900460ff161580156119ef576000805461ffff19166101011790555b6119f7612a95565b6119ff612a95565b611a07612a95565b611a0f612a95565b611a17612a95565b611a1f612a95565b611a27612b00565b611a2f612a95565b611a37612a95565b611a418484612b76565b611a4a82612c0b565b611a52612d24565b611a7b7fee40ffc1ec8332b0837bd418921ada6378fb242be0d51d747626add0fc93894b612dd3565b611aa47fe42093a63818e0c931c15fda9036d0d8995a638e7acfabc8355a4789766e8de9612dd3565b8015611ab6576000805461ff00191690555b50505050565b611ac63383612211565b611b2c5760405162461bcd60e51b815260206004820152603160248201527f4552433732313a207472616e736665722063616c6c6572206973206e6f74206f6044820152701ddb995c881b9bdc88185c1c1c9bdd9959607a1b6064820152608401610b1e565b611ab684848484612e53565b60606102bf6000838152602001908152602001600020805480602002602001604051908101604052809291908181526020016000905b82821015611bb6576000848152602090819020604080518082019091526002850290910180546001600160a01b03168252600190810154828401529083529092019101611b6e565b505050509050919050565b60008181526102bf60209081526040808320805482518185028101850190935280835260609493849084015b82821015611c35576000848152602090819020604080518082019091526002850290910180546001600160a01b03168252600190810154828401529083529092019101611bed565b5050505090506000815167ffffffffffffffff811115611c6557634e487b7160e01b600052604160045260246000fd5b604051908082528060200260200182016040528015611c8e578160200160208202803683370190505b50905060005b8251811015611d0657828181518110611cbd57634e487b7160e01b600052603260045260246000fd5b602002602001015160200151828281518110611ce957634e487b7160e01b600052603260045260246000fd5b602090810291909101015280611cfe81614bb3565b915050611c94565b509392505050565b6060610a1182612ed1565b6000818152609760205260408120610a1190613050565b611338828261305a565b611d456000336106c1565b611da65760405162461bcd60e51b815260206004820152602c60248201527f43616c6c6572206d75737420686176652061646d696e20726f6c6520746f207360448201526b6574206d696e74206665657360a01b6064820152608401610b1e565b6102c481905560408051338152602081018390527f7801094d3234fa70b910ee2d953591f831bb371292f4f1d114a9111f2391c8129101610d47565b60005b815181101561132a57611e1e828281518110611e1157634e487b7160e01b600052603260045260246000fd5b6020026020010151611413565b80611e2881614bb3565b915050611de5565b60008181526102bf60209081526040808320805482518185028101850190935280835260609493849084015b82821015611ea4576000848152602090819020604080518082019091526002850290910180546001600160a01b03168252600190810154828401529083529092019101611e5c565b5050505090506000815167ffffffffffffffff811115611ed457634e487b7160e01b600052604160045260246000fd5b604051908082528060200260200182016040528015611efd578160200160208202803683370190505b50905060005b8251811015611d0657828181518110611f2c57634e487b7160e01b600052603260045260246000fd5b602002602001015160000151828281518110611f5857634e487b7160e01b600052603260045260246000fd5b6001600160a01b039092166020928302919091019091015280611f7a81614bb3565b915050611f03565b61025b546001600160a01b03163314611fdd5760405162461bcd60e51b815260206004820181905260248201527f4f776e61626c653a2063616c6c6572206973206e6f7420746865206f776e65726044820152606401610b1e565b6001600160a01b0381166120425760405162461bcd60e51b815260206004820152602660248201527f4f776e61626c653a206e6577206f776e657220697320746865207a65726f206160448201526564647265737360d01b6064820152608401610b1e565b61025b546040516001600160a01b038084169216907f8be0079c531659141344cd1fd0a4f28419497f9722a3daafe3b4186f6b6457e090600090a361025b80546001600160a01b0319166001600160a01b0392909216919091179055565b60008181526102c2602052604090208054606091906120be90614b78565b80601f01602080910402602001604051908101604052809291908181526020018280546120ea90614b78565b80156121375780601f1061210c57610100808354040283529160200191612137565b820191906000526020600020905b81548152906001019060200180831161211a57829003601f168201915b50505050509050919050565b600061214e82613080565b80610a115750506001600160e01b031916600090815261028d602052604090205460ff1690565b600081815260cd6020526040902080546001600160a01b0319166001600160a01b03841690811790915581906121aa82611650565b6001600160a01b03167f8c5be1e5ebec7d5bd14f71427d1e84f3dd0314c0f7b2291e5b200ac8c7c3b92560405160405180910390a45050565b60008181526102c160205260409020546121fe906001614ad3565b60009182526102c1602052604090912055565b600081815260cb60205260408120546001600160a01b031661228a5760405162461bcd60e51b815260206004820152602c60248201527f4552433732313a206f70657261746f7220717565727920666f72206e6f6e657860448201526b34b9ba32b73a103a37b5b2b760a11b6064820152608401610b1e565b600061229583611650565b9050806001600160a01b0316846001600160a01b031614806122d05750836001600160a01b03166122c584610aa9565b6001600160a01b0316145b8061230057506001600160a01b03808216600090815260ce602090815260408083209388168352929052205460ff165b949350505050565b826001600160a01b031661231b82611650565b6001600160a01b0316146123835760405162461bcd60e51b815260206004820152602960248201527f4552433732313a207472616e73666572206f6620746f6b656e2074686174206960448201526839903737ba1037bbb760b91b6064820152608401610b1e565b6001600160a01b0382166123e55760405162461bcd60e51b8152602060048201526024808201527f4552433732313a207472616e7366657220746f20746865207a65726f206164646044820152637265737360e01b6064820152608401610b1e565b6123f083838361308b565b6123fb600082612175565b6001600160a01b038316600090815260cc60205260408120805460019290612424908490614b1e565b90915550506001600160a01b038216600090815260cc60205260408120805460019290612452908490614ad3565b9091555050600081815260cb602052604080822080546001600160a01b0319166001600160a01b0386811691821790925591518493918716917fddf252ad1be2c89b69c2b068fc378daa952ba7f163c4a11628f55a4df523b3ef91a4505050565b6000828152606560205260409020600101546124cf8133613096565b610c548383613116565b60006118bd836001600160a01b0384166131b8565b612501816124fc6101f55490565b613207565b6114976101f580546001019055565b600082815260cb60205260409020546001600160a01b03166125895760405162461bcd60e51b815260206004820152602c60248201527f4552433732313a20617070726f76656420717565727920666f72206e6f6e657860448201526b34b9ba32b73a103a37b5b2b760a11b6064820152608401610b1e565b60005b8151811015610c545760006001600160a01b03168282815181106125c057634e487b7160e01b600052603260045260246000fd5b6020026020010151600001516001600160a01b031614156126235760405162461bcd60e51b815260206004820152601b60248201527f526563697069656e742073686f756c642062652070726573656e7400000000006044820152606401610b1e565b600082828151811061264557634e487b7160e01b600052603260045260246000fd5b602002602001015160200151116126a95760405162461bcd60e51b815260206004820152602260248201527f526f79616c746965732076616c75652073686f756c6420626520706f73697469604482015261766560f01b6064820152608401610b1e565b6113888282815181106126cc57634e487b7160e01b600052603260045260246000fd5b602002602001015160200151111561273a5760405162461bcd60e51b815260206004820152602b60248201527f526f79616c746965732076616c75652073686f756c64206e6f74206265206d6f60448201526a7265207468616e2035302560a81b6064820152608401610b1e565b60008381526102bf60205260409020825183908390811061276b57634e487b7160e01b600052603260045260246000fd5b602090810291909101810151825460018082018555600094855293839020825160029092020180546001600160a01b0319166001600160a01b03909216919091178155910151910155806127be81614bb3565b91505061258c565b60008281526102c2602090815260409091208251610c54928401906140bf565b60008281526102c0602090815260409091208251610c54928401906140bf565b6102c45415612887576102c45434146128875760405162461bcd60e51b815260206004820152603260248201527f57726f6e6720666565732076616c75652073656e7420746f2047686f73744d6160448201527f726b657420666f72206d696e74206665657300000000000000000000000000006064820152608401610b1e565b34156113f657346102c360008282546128a09190614ad3565b9091555050565b6001600160a01b03811633146129255760405162461bcd60e51b815260206004820152602f60248201527f416363657373436f6e74726f6c3a2063616e206f6e6c792072656e6f756e636560448201527f20726f6c657320666f722073656c6600000000000000000000000000000000006064820152608401610b1e565b61132a8282613355565b60006118bd836001600160a01b0384166133d8565b61015f5460ff166129975760405162461bcd60e51b815260206004820152601460248201527f5061757361626c653a206e6f74207061757365640000000000000000000000006044820152606401610b1e565b61015f805460ff191690557f5db9ee0a495bf2e6ff9c91a7834c1ba4fdd244a5e8aa4e537bd38aeae4b073aa335b6040516001600160a01b03909116815260200160405180910390a1565b611497816134ef565b61132a8282613531565b61132a828261354b565b61015f5460ff1615612a535760405162461bcd60e51b815260206004820152601060248201527f5061757361626c653a20706175736564000000000000000000000000000000006044820152606401610b1e565b61015f805460ff191660011790557f62e78cea01bee320cd4e420270b5ea74000d11b0c9f74754ebdbfc544b05a2586129c53390565b60006118bd83836135f5565b600054610100900460ff1680612aae575060005460ff16155b612aca5760405162461bcd60e51b8152600401610b1e906149f8565b600054610100900460ff16158015612aec576000805461ffff19166101011790555b8015611497576000805461ff001916905550565b600054610100900460ff1680612b19575060005460ff16155b612b355760405162461bcd60e51b8152600401610b1e906149f8565b600054610100900460ff16158015612b57576000805461ffff19166101011790555b61015f805460ff191690558015611497576000805461ff001916905550565b600054610100900460ff1680612b8f575060005460ff16155b612bab5760405162461bcd60e51b8152600401610b1e906149f8565b600054610100900460ff16158015612bcd576000805461ffff19166101011790555b8251612be09060c99060208601906140bf565b508151612bf49060ca9060208501906140bf565b508015610c54576000805461ff0019169055505050565b600054610100900460ff1680612c24575060005460ff16155b612c405760405162461bcd60e51b8152600401610b1e906149f8565b600054610100900460ff16158015612c62576000805461ffff19166101011790555b8151612c76906101f69060208501906140bf565b50612c82600033613689565b612cac7f9f2df0fed2c77648de5860a4cc508cd0818c85b8b8a1ab4ceeef8d981c8956a633613689565b612cd67f65d7a28e3265b37a6474929f336521b332c1681b933f6cb9f3376673440d862a33613689565b612d007f8a9d57248f1015d5cac20111fe2512477434cf493627e5e959ca751e593d807933613689565b612d0f6101f580546001019055565b801561132a576000805461ff00191690555050565b600054610100900460ff1680612d3d575060005460ff16155b612d595760405162461bcd60e51b8152600401610b1e906149f8565b600054610100900460ff16158015612d7b576000805461ffff19166101011790555b61025b80546001600160a01b0319163390811790915560405181906000907f8be0079c531659141344cd1fd0a4f28419497f9722a3daafe3b4186f6b6457e0908290a3508015611497576000805461ff001916905550565b6001600160e01b03198082161415612e2d5760405162461bcd60e51b815260206004820152601c60248201527f4552433136353a20696e76616c696420696e74657266616365206964000000006044820152606401610b1e565b6001600160e01b031916600090815261028d60205260409020805460ff19166001179055565b612e5e848484612308565b612e6a84848484613693565b611ab65760405162461bcd60e51b815260206004820152603260248201527f4552433732313a207472616e7366657220746f206e6f6e20455243373231526560448201527131b2b4bb32b91034b6b83632b6b2b73a32b960711b6064820152608401610b1e565b600081815260cb60205260409020546060906001600160a01b0316612f5e5760405162461bcd60e51b815260206004820152603160248201527f45524337323155524953746f726167653a2055524920717565727920666f722060448201527f6e6f6e6578697374656e7420746f6b656e0000000000000000000000000000006064820152608401610b1e565b60008281526101c3602052604081208054612f7890614b78565b80601f0160208091040260200160405190810160405280929190818152602001828054612fa490614b78565b8015612ff15780601f10612fc657610100808354040283529160200191612ff1565b820191906000526020600020905b815481529060010190602001808311612fd457829003601f168201915b5050505050905060006130026137eb565b9050805160001415613015575092915050565b81511561304757808260405160200161302f92919061472c565b60405160208183030381529060405292505050919050565b612300846137fb565b6000610a11825490565b6000828152606560205260409020600101546130768133613096565b610c548383613355565b6000610a11826138e3565b610c54838383613908565b60008281526065602090815260408083206001600160a01b038516845290915290205460ff1661132a576130d4816001600160a01b0316601461397b565b6130df83602061397b565b6040516020016130f092919061475b565b60408051601f198184030181529082905262461bcd60e51b8252610b1e916004016149e5565b60008281526065602090815260408083206001600160a01b038516845290915290205460ff1661132a5760008281526065602090815260408083206001600160a01b03851684529091529020805460ff191660011790556131743390565b6001600160a01b0316816001600160a01b0316837f2f8788117e7eff1d82e926ec794901d17c78024a50270940304540a733656f0d60405160405180910390a45050565b60008181526001830160205260408120546131ff57508154600181810184556000848152602080822090930184905584548482528286019093526040902091909155610a11565b506000610a11565b6001600160a01b03821661325d5760405162461bcd60e51b815260206004820181905260248201527f4552433732313a206d696e7420746f20746865207a65726f20616464726573736044820152606401610b1e565b600081815260cb60205260409020546001600160a01b0316156132c25760405162461bcd60e51b815260206004820152601c60248201527f4552433732313a20746f6b656e20616c7265616479206d696e746564000000006044820152606401610b1e565b6132ce6000838361308b565b6001600160a01b038216600090815260cc602052604081208054600192906132f7908490614ad3565b9091555050600081815260cb602052604080822080546001600160a01b0319166001600160a01b03861690811790915590518392907fddf252ad1be2c89b69c2b068fc378daa952ba7f163c4a11628f55a4df523b3ef908290a45050565b60008281526065602090815260408083206001600160a01b038516845290915290205460ff161561132a5760008281526065602090815260408083206001600160a01b0385168085529252808320805460ff1916905551339285917ff6391f5c32d9c69d2a47ea670b442974b53935d1edc7fd64eb21e047a839171b9190a45050565b600081815260018301602052604081205480156134e55760006133fc600183614b1e565b855490915060009061341090600190614b1e565b9050600086600001828154811061343757634e487b7160e01b600052603260045260246000fd5b906000526020600020015490508087600001848154811061346857634e487b7160e01b600052603260045260246000fd5b6000918252602080832090910192909255828152600189019091526040902084905586548790806134a957634e487b7160e01b600052603160045260246000fd5b60019003818190600052602060002001600090559055866001016000878152602001908152602001600020600090556001945050505050610a11565b6000915050610a11565b6134f881613b6a565b60008181526101c360205260409020805461351290614b78565b1590506114975760008181526101c36020526040812061149791614143565b61132a828260405180602001604052806000815250613c11565b600082815260cb60205260409020546001600160a01b03166135d55760405162461bcd60e51b815260206004820152602e60248201527f45524337323155524953746f726167653a2055524920736574206f66206e6f6e60448201527f6578697374656e7420746f6b656e0000000000000000000000000000000000006064820152608401610b1e565b60008281526101c3602090815260409091208251610c54928401906140bf565b815460009082106136535760405162461bcd60e51b815260206004820152602260248201527f456e756d657261626c655365743a20696e646578206f7574206f6620626f756e604482015261647360f01b6064820152608401610b1e565b82600001828154811061367657634e487b7160e01b600052603260045260246000fd5b9060005260206000200154905092915050565b610fb58282613c8f565b60006001600160a01b0384163b156137e057604051630a85bd0160e11b81526001600160a01b0385169063150b7a02906136d79033908990889088906004016147dc565b602060405180830381600087803b1580156136f157600080fd5b505af1925050508015613721575060408051601f3d908101601f1916820190925261371e9181019061461b565b60015b6137c6573d80801561374f576040519150601f19603f3d011682016040523d82523d6000602084013e613754565b606091505b5080516137be5760405162461bcd60e51b815260206004820152603260248201527f4552433732313a207472616e7366657220746f206e6f6e20455243373231526560448201527131b2b4bb32b91034b6b83632b6b2b73a32b960711b6064820152608401610b1e565b805181602001fd5b6001600160e01b031916630a85bd0160e11b149050612300565b506001949350505050565b60606101f68054610a2690614b78565b600081815260cb60205260409020546060906001600160a01b03166138885760405162461bcd60e51b815260206004820152602f60248201527f4552433732314d657461646174613a2055524920717565727920666f72206e6f60448201527f6e6578697374656e7420746f6b656e00000000000000000000000000000000006064820152608401610b1e565b60006138926137eb565b905060008151116138b257604051806020016040528060008152506118bd565b806138bc84613c99565b6040516020016138cd92919061472c565b6040516020818303038152906040529392505050565b60006001600160e01b0319821663780e9d6360e01b1480610a115750610a1182613db3565b613913838383613df3565b61015f5460ff1615610c545760405162461bcd60e51b815260206004820152602b60248201527f4552433732315061757361626c653a20746f6b656e207472616e73666572207760448201526a1a1a5b19481c185d5cd95960aa1b6064820152608401610b1e565b6060600061398a836002614aff565b613995906002614ad3565b67ffffffffffffffff8111156139bb57634e487b7160e01b600052604160045260246000fd5b6040519080825280601f01601f1916602001820160405280156139e5576020820181803683370190505b509050600360fc1b81600081518110613a0e57634e487b7160e01b600052603260045260246000fd5b60200101906001600160f81b031916908160001a905350600f60fb1b81600181518110613a4b57634e487b7160e01b600052603260045260246000fd5b60200101906001600160f81b031916908160001a9053506000613a6f846002614aff565b613a7a906001614ad3565b90505b6001811115613b1b577f303132333435363738396162636465660000000000000000000000000000000085600f1660108110613ac957634e487b7160e01b600052603260045260246000fd5b1a60f81b828281518110613aed57634e487b7160e01b600052603260045260246000fd5b60200101906001600160f81b031916908160001a90535060049490941c93613b1481614b61565b9050613a7d565b5083156118bd5760405162461bcd60e51b815260206004820181905260248201527f537472696e67733a20686578206c656e67746820696e73756666696369656e746044820152606401610b1e565b6000613b7582611650565b9050613b838160008461308b565b613b8e600083612175565b6001600160a01b038116600090815260cc60205260408120805460019290613bb7908490614b1e565b9091555050600082815260cb602052604080822080546001600160a01b0319169055518391906001600160a01b038416907fddf252ad1be2c89b69c2b068fc378daa952ba7f163c4a11628f55a4df523b3ef908390a45050565b613c1b8383613207565b613c286000848484613693565b610c545760405162461bcd60e51b815260206004820152603260248201527f4552433732313a207472616e7366657220746f206e6f6e20455243373231526560448201527131b2b4bb32b91034b6b83632b6b2b73a32b960711b6064820152608401610b1e565b61132a8282613116565b606081613cbd5750506040805180820190915260018152600360fc1b602082015290565b8160005b8115613ce75780613cd181614bb3565b9150613ce09050600a83614aeb565b9150613cc1565b60008167ffffffffffffffff811115613d1057634e487b7160e01b600052604160045260246000fd5b6040519080825280601f01601f191660200182016040528015613d3a576020820181803683370190505b5090505b841561230057613d4f600183614b1e565b9150613d5c600a86614bce565b613d67906030614ad3565b60f81b818381518110613d8a57634e487b7160e01b600052603260045260246000fd5b60200101906001600160f81b031916908160001a905350613dac600a86614aeb565b9450613d3e565b60006001600160e01b031982166380ac58cd60e01b1480613de457506001600160e01b03198216635b5e139f60e01b145b80610a115750610a1182613eab565b6001600160a01b038316613e4e57613e498160fd8054600083815260fe60205260408120829055600182018355919091527f9346ac6dd7de6b96975fec380d4d994c4c12e6a8897544f22915316cc6cca2800155565b613e71565b816001600160a01b0316836001600160a01b031614613e7157613e718382613ed0565b6001600160a01b038216613e8857610c5481613f6d565b826001600160a01b0316826001600160a01b031614610c5457610c548282614046565b60006001600160e01b03198216635a05180f60e01b1480610a115750610a118261408a565b60006001613edd846116c7565b613ee79190614b1e565b600083815260fc6020526040902054909150808214613f3a576001600160a01b038416600090815260fb60209081526040808320858452825280832054848452818420819055835260fc90915290208190555b50600091825260fc602090815260408084208490556001600160a01b03909416835260fb81528383209183525290812055565b60fd54600090613f7f90600190614b1e565b600083815260fe602052604081205460fd8054939450909284908110613fb557634e487b7160e01b600052603260045260246000fd5b906000526020600020015490508060fd8381548110613fe457634e487b7160e01b600052603260045260246000fd5b600091825260208083209091019290925582815260fe909152604080822084905585825281205560fd80548061402a57634e487b7160e01b600052603160045260246000fd5b6001900381819060005260206000200160009055905550505050565b6000614051836116c7565b6001600160a01b03909316600090815260fb60209081526040808320868452825280832085905593825260fc9052919091209190915550565b60006001600160e01b03198216637965db0b60e01b1480610a1157506301ffc9a760e01b6001600160e01b0319831614610a11565b8280546140cb90614b78565b90600052602060002090601f0160209004810192826140ed5760008555614133565b82601f1061410657805160ff1916838001178555614133565b82800160010185558215614133579182015b82811115614133578251825591602001919060010190614118565b5061413f929150614179565b5090565b50805461414f90614b78565b6000825580601f1061415f575050565b601f01602090049060005260206000209081019061149791905b5b8082111561413f576000815560010161417a565b600067ffffffffffffffff8311156141a8576141a8614c0e565b6141bb601f8401601f1916602001614a7e565b90508281528383830111156141cf57600080fd5b828260208301376000602084830101529392505050565b600082601f8301126141f6578081fd5b6118bd8383356020850161418e565b600060208284031215614216578081fd5b81356118bd81614c24565b60008060408385031215614233578081fd5b823561423e81614c24565b9150602083013561424e81614c24565b809150509250929050565b60008060006060848603121561426d578081fd5b833561427881614c24565b9250602084013561428881614c24565b929592945050506040919091013590565b600080600080608085870312156142ae578081fd5b84356142b981614c24565b935060208501356142c981614c24565b925060408501359150606085013567ffffffffffffffff8111156142eb578182fd5b8501601f810187136142fb578182fd5b61430a8782356020840161418e565b91505092959194509250565b600080600080600060a0868803121561432d578081fd5b853561433881614c24565b945060208681013567ffffffffffffffff80821115614355578384fd5b818901915089601f830112614368578384fd5b813561437b61437682614aaf565b614a7e565b8082825285820191508585018d878560061b880101111561439a578788fd5b8795505b838610156143e7576040818f0312156143b5578788fd5b6143bd614a55565b81356143c881614c24565b815281880135888201528352600195909501949186019160400161439e565b509850505060408901359250808311156143ff578384fd5b61440b8a848b016141e6565b95506060890135925080831115614420578384fd5b61442c8a848b016141e6565b94506080890135925080831115614441578384fd5b505061444f888289016141e6565b9150509295509295909350565b6000806040838503121561446e578182fd5b823561447981614c24565b91506020830135801515811461424e578182fd5b6000806040838503121561449f578182fd5b82356144aa81614c24565b946020939093013593505050565b6000806000606084860312156144cc578081fd5b83356144d781614c24565b925060208401359150604084013567ffffffffffffffff8111156144f9578182fd5b614505868287016141e6565b9150509250925092565b60006020808385031215614521578182fd5b823567ffffffffffffffff811115614537578283fd5b8301601f81018513614547578283fd5b803561455561437682614aaf565b80828252848201915084840188868560051b8701011115614574578687fd5b8694505b83851015614596578035835260019490940193918501918501614578565b50979650505050505050565b6000602082840312156145b3578081fd5b5035919050565b600080604083850312156145cc578182fd5b82359150602083013561424e81614c24565b600080604083850312156145f0578182fd5b50508035926020909101359150565b600060208284031215614610578081fd5b81356118bd81614c39565b60006020828403121561462c578081fd5b81516118bd81614c39565b600060208284031215614648578081fd5b813567ffffffffffffffff81111561465e578182fd5b612300848285016141e6565b60008060006060848603121561467e578081fd5b833567ffffffffffffffff80821115614695578283fd5b6146a1878388016141e6565b945060208601359150808211156146b6578283fd5b6146c2878388016141e6565b935060408601359150808211156146d7578283fd5b50614505868287016141e6565b600081518084526146fc816020860160208601614b35565b601f01601f19169290920160200192915050565b60008251614722818460208701614b35565b9190910192915050565b6000835161473e818460208801614b35565b835190830190614752818360208801614b35565b01949350505050565b7f416363657373436f6e74726f6c3a206163636f756e7420000000000000000000815260008351614793816017850160208801614b35565b7f206973206d697373696e6720726f6c652000000000000000000000000000000060179184019182015283516147d0816028840160208801614b35565b01602801949350505050565b60006001600160a01b0380871683528086166020840152508360408301526080606083015261480e60808301846146e4565b9695505050505050565b6001600160a01b038416815282602082015260606040820152600061484060608301846146e4565b95945050505050565b6001600160a01b03841681526000602084818401526060604084015281845483600182811c91508083168061487f57607f831692505b85831081141561489d57634e487b7160e01b87526022600452602487fd5b60608801839052608088018180156148bc57600181146148cd576148f7565b60ff198616825287820196506148f7565b60008b815260209020895b868110156148f1578154848201529085019089016148d8565b83019750505b50949b9a5050505050505050505050565b6020808252825182820181905260009190848201906040850190845b818110156149495783516001600160a01b031683529284019291840191600101614924565b50909695505050505050565b602080825282518282018190526000919060409081850190868401855b828110156149a057815180516001600160a01b03168552860151868501529284019290850190600101614972565b5091979650505050505050565b6020808252825182820181905260009190848201906040850190845b81811015614949578351835292840192918401916001016149c9565b6020815260006118bd60208301846146e4565b6020808252602e908201527f496e697469616c697a61626c653a20636f6e747261637420697320616c72656160408201527f647920696e697469616c697a6564000000000000000000000000000000000000606082015260800190565b6040805190810167ffffffffffffffff81118282101715614a7857614a78614c0e565b60405290565b604051601f8201601f1916810167ffffffffffffffff81118282101715614aa757614aa7614c0e565b604052919050565b600067ffffffffffffffff821115614ac957614ac9614c0e565b5060051b60200190565b60008219821115614ae657614ae6614be2565b500190565b600082614afa57614afa614bf8565b500490565b6000816000190483118215151615614b1957614b19614be2565b500290565b600082821015614b3057614b30614be2565b500390565b60005b83811015614b50578181015183820152602001614b38565b83811115611ab65750506000910152565b600081614b7057614b70614be2565b506000190190565b600181811c90821680614b8c57607f821691505b60208210811415614bad57634e487b7160e01b600052602260045260246000fd5b50919050565b6000600019821415614bc757614bc7614be2565b5060010190565b600082614bdd57614bdd614bf8565b500690565b634e487b7160e01b600052601160045260246000fd5b634e487b7160e01b600052601260045260246000fd5b634e487b7160e01b600052604160045260246000fd5b6001600160a01b038116811461149757600080fd5b6001600160e01b03198116811461149757600080fdfea26469706673582212207e90a3dfcf13069794c2fe1984904b8c076b8736e77d204b5dc8ef24a49eebf964736f6c63430008040033",
  "linkReferences": {},
  "deployedLinkReferences": {}
}