{
  "address": "0x99428B1e5A8f5985625e9d19Ad0Ea19F33A5f749",
  "abi": [
    {
      "inputs": [],
      "name": "EMPTY",
      "outputs": [
        {
          "internalType": "bytes",
          "name": "",
          "type": "bytes"
        }
      ],
      "stateMutability": "view",
      "type": "function"
    },
    {
      "inputs": [
        {
          "components": [
            {
              "internalType": "bytes4",
              "name": "assetClass",
              "type": "bytes4"
            },
            {
              "internalType": "bytes",
              "name": "data",
              "type": "bytes"
            }
          ],
          "internalType": "struct LibAsset.AssetType",
          "name": "leftAssetType",
          "type": "tuple"
        },
        {
          "components": [
            {
              "internalType": "bytes4",
              "name": "assetClass",
              "type": "bytes4"
            },
            {
              "internalType": "bytes",
              "name": "data",
              "type": "bytes"
            }
          ],
          "internalType": "struct LibAsset.AssetType",
          "name": "rightAssetType",
          "type": "tuple"
        }
      ],
      "name": "matchAssets",
      "outputs": [
        {
          "components": [
            {
              "internalType": "bytes4",
              "name": "assetClass",
              "type": "bytes4"
            },
            {
              "internalType": "bytes",
              "name": "data",
              "type": "bytes"
            }
          ],
          "internalType": "struct LibAsset.AssetType",
          "name": "",
          "type": "tuple"
        }
      ],
      "stateMutability": "pure",
      "type": "function"
    }
  ],
  "transactionHash": "0x27d6c395b50338e66590992880b7e185d17870e203ed5d70f10e84f0bd56a366",
  "args": [],
  "solcInputHash": "dd845b0e36e586591191b0b82a64fcdb",
  "bytecode": "0x608060405234801561001057600080fd5b50610498806100206000396000f3fe608060405234801561001057600080fd5b50600436106100365760003560e01c8063023991251461003b5780636d3f7cb014610067575b600080fd5b6100516040518060200160405280600081525081565b60405161005e919061021d565b60405180910390f35b61007a610075366004610365565b610087565b60405161005e91906103c9565b60408051808201909152600081526060602082015281516001600160e01b0319166339d690a360e11b14806100cd575081516001600160e01b03191663025ceed960e61b145b806100e9575081516001600160e01b03191663d8f960c160e01b145b80610104575081516001600160e01b03191662737ea960e61b145b80610120575081516001600160e01b031916630f9ae27560e21b145b156101a6576000836020015180602001905181019061013f919061041b565b90506000836020015180602001905181019061015b9190610436565b509050806001600160a01b0316826001600160a01b031614156101a35750506040805180820190915282516001600160e01b03191681526020808401519082015290506101ca565b50505b50604080518082018252600080825282516020818101909452908152918101919091525b92915050565b6000815180845260005b818110156101f6576020818501810151868301820152016101da565b81811115610208576000602083870101525b50601f01601f19169290920160200192915050565b60208152600061023060208301846101d0565b9392505050565b634e487b7160e01b600052604160045260246000fd5b6040805190810167ffffffffffffffff8111828210171561027057610270610237565b60405290565b604051601f8201601f1916810167ffffffffffffffff8111828210171561029f5761029f610237565b604052919050565b6000604082840312156102b957600080fd5b6102c161024d565b905081356001600160e01b0319811681146102db57600080fd5b815260208281013567ffffffffffffffff808211156102f957600080fd5b818501915085601f83011261030d57600080fd5b81358181111561031f5761031f610237565b610331601f8201601f19168501610276565b9150808252868482850101111561034757600080fd5b80848401858401376000908201840152918301919091525092915050565b6000806040838503121561037857600080fd5b823567ffffffffffffffff8082111561039057600080fd5b61039c868387016102a7565b935060208501359150808211156103b257600080fd5b506103bf858286016102a7565b9150509250929050565b602080825282516001600160e01b031916828201528201516040808301526000906103f760608401826101d0565b949350505050565b80516001600160a01b038116811461041657600080fd5b919050565b60006020828403121561042d57600080fd5b610230826103ff565b6000806040838503121561044957600080fd5b610452836103ff565b915060208301519050925092905056fea264697066735822122094322f0786143648d33f9a83211544b5e29ae536ec7b031ee01282fa644378f064736f6c63430008090033",
  "devdoc": {
    "kind": "dev",
    "methods": {},
    "version": 1
  },
  "userdoc": {
    "kind": "user",
    "methods": {},
    "version": 1
  },
  "storageLayout": {
    "storage": [],
    "types": null
  }
}