{
  "address": "0x6a7a80148b4b1a01d4eeddaA4d910b6A4784DfD7",
  "abi": [
    {
      "anonymous": false,
      "inputs": [
        {
          "indexed": false,
          "internalType": "bool",
          "name": "result",
          "type": "bool"
        },
        {
          "indexed": true,
          "internalType": "address",
          "name": "sender",
          "type": "address"
        }
      ],
      "name": "Execution",
      "type": "event"
    },
    {
      "anonymous": false,
      "inputs": [
        {
          "indexed": false,
          "internalType": "uint8",
          "name": "version",
          "type": "uint8"
        }
      ],
      "name": "Initialized",
      "type": "event"
    },
    {
      "anonymous": false,
      "inputs": [
        {
          "indexed": true,
          "internalType": "address",
          "name": "previousOwner",
          "type": "address"
        },
        {
          "indexed": true,
          "internalType": "address",
          "name": "newOwner",
          "type": "address"
        }
      ],
      "name": "OwnershipTransferred",
      "type": "event"
    },
    {
      "anonymous": false,
      "inputs": [
        {
          "indexed": false,
          "internalType": "address",
          "name": "account",
          "type": "address"
        }
      ],
      "name": "Paused",
      "type": "event"
    },
    {
      "anonymous": false,
      "inputs": [
        {
          "indexed": false,
          "internalType": "address",
          "name": "account",
          "type": "address"
        }
      ],
      "name": "Unpaused",
      "type": "event"
    },
    {
      "inputs": [
        {
          "internalType": "address",
          "name": "_exchangeV2",
          "type": "address"
        },
        {
          "internalType": "address",
          "name": "_rarible",
          "type": "address"
        },
        {
          "internalType": "address",
          "name": "_wyvern",
          "type": "address"
        },
        {
          "internalType": "address",
          "name": "_seaport",
          "type": "address"
        },
        {
          "internalType": "address",
          "name": "_x2y2",
          "type": "address"
        },
        {
          "internalType": "address",
          "name": "_looksrare",
          "type": "address"
        },
        {
          "internalType": "address",
          "name": "_sudoswap",
          "type": "address"
        },
        {
          "internalType": "address",
          "name": "_blur",
          "type": "address"
        }
      ],
      "name": "__ExchangeWrapper_init",
      "outputs": [],
      "stateMutability": "nonpayable",
      "type": "function"
    },
    {
      "inputs": [],
      "name": "blur",
      "outputs": [
        {
          "internalType": "address",
          "name": "",
          "type": "address"
        }
      ],
      "stateMutability": "view",
      "type": "function"
    },
    {
      "inputs": [
        {
          "components": [
            {
              "internalType": "enum ExchangeWrapperCore.Markets",
              "name": "marketId",
              "type": "uint8"
            },
            {
              "internalType": "uint256",
              "name": "amount",
              "type": "uint256"
            },
            {
              "internalType": "address",
              "name": "paymentToken",
              "type": "address"
            },
            {
              "internalType": "uint256",
              "name": "fees",
              "type": "uint256"
            },
            {
              "internalType": "bytes",
              "name": "data",
              "type": "bytes"
            }
          ],
          "internalType": "struct ExchangeWrapperCore.PurchaseDetails[]",
          "name": "purchaseDetails",
          "type": "tuple[]"
        },
        {
          "internalType": "address",
          "name": "feeRecipientFirst",
          "type": "address"
        },
        {
          "internalType": "address",
          "name": "feeRecipientSecond",
          "type": "address"
        },
        {
          "internalType": "bool",
          "name": "allowFail",
          "type": "bool"
        }
      ],
      "name": "bulkPurchase",
      "outputs": [],
      "stateMutability": "payable",
      "type": "function"
    },
    {
      "inputs": [
        {
          "components": [
            {
              "internalType": "enum ExchangeWrapperCore.Markets",
              "name": "marketId",
              "type": "uint8"
            },
            {
              "internalType": "uint256",
              "name": "amount",
              "type": "uint256"
            },
            {
              "internalType": "address",
              "name": "paymentToken",
              "type": "address"
            },
            {
              "internalType": "uint256",
              "name": "fees",
              "type": "uint256"
            },
            {
              "internalType": "bytes",
              "name": "data",
              "type": "bytes"
            }
          ],
          "internalType": "struct ExchangeWrapperCore.PurchaseDetails[]",
          "name": "purchaseDetails",
          "type": "tuple[]"
        },
        {
          "internalType": "address",
          "name": "feeRecipientFirst",
          "type": "address"
        },
        {
          "internalType": "address",
          "name": "feeRecipientSecond",
          "type": "address"
        },
        {
          "internalType": "bool",
          "name": "allowFail",
          "type": "bool"
        },
        {
          "components": [
            {
              "internalType": "bytes",
              "name": "path",
              "type": "bytes"
            },
            {
              "internalType": "uint256",
              "name": "amountOut",
              "type": "uint256"
            },
            {
              "internalType": "uint256",
              "name": "amountInMaximum",
              "type": "uint256"
            },
            {
              "internalType": "bool",
              "name": "unwrap",
              "type": "bool"
            }
          ],
          "internalType": "struct ExchangeWrapperCore.SwapDetailsIn",
          "name": "swapDetails",
          "type": "tuple"
        }
      ],
      "name": "bulkPurchaseWithSwap",
      "outputs": [],
      "stateMutability": "payable",
      "type": "function"
    },
    {
      "inputs": [
        {
          "components": [
            {
              "internalType": "enum ExchangeWrapperCore.Markets",
              "name": "marketId",
              "type": "uint8"
            },
            {
              "internalType": "uint256",
              "name": "amount",
              "type": "uint256"
            },
            {
              "internalType": "address",
              "name": "paymentToken",
              "type": "address"
            },
            {
              "internalType": "uint256",
              "name": "fees",
              "type": "uint256"
            },
            {
              "internalType": "bytes",
              "name": "data",
              "type": "bytes"
            }
          ],
          "internalType": "struct ExchangeWrapperCore.PurchaseDetails[]",
          "name": "purchaseDetails",
          "type": "tuple[]"
        },
        {
          "internalType": "address",
          "name": "feeRecipientFirst",
          "type": "address"
        },
        {
          "internalType": "address",
          "name": "feeRecipientSecond",
          "type": "address"
        },
        {
          "internalType": "bool",
          "name": "allowFail",
          "type": "bool"
        },
        {
          "components": [
            {
              "internalType": "address[]",
              "name": "path",
              "type": "address[]"
            },
            {
              "internalType": "uint256",
              "name": "amountOut",
              "type": "uint256"
            },
            {
              "internalType": "uint256",
              "name": "amountInMaximum",
              "type": "uint256"
            },
            {
              "internalType": "uint256[]",
              "name": "binSteps",
              "type": "uint256[]"
            },
            {
              "internalType": "bool",
              "name": "unwrap",
              "type": "bool"
            }
          ],
          "internalType": "struct ExchangeWrapperCore.SwapV2DetailsIn",
          "name": "swapDetails",
          "type": "tuple"
        }
      ],
      "name": "bulkPurchaseWithV2Swap",
      "outputs": [],
      "stateMutability": "payable",
      "type": "function"
    },
    {
      "inputs": [],
      "name": "erc20TransferProxy",
      "outputs": [
        {
          "internalType": "address",
          "name": "",
          "type": "address"
        }
      ],
      "stateMutability": "view",
      "type": "function"
    },
    {
      "inputs": [],
      "name": "exchangeV2",
      "outputs": [
        {
          "internalType": "address",
          "name": "",
          "type": "address"
        }
      ],
      "stateMutability": "view",
      "type": "function"
    },
    {
      "inputs": [],
      "name": "looksrare",
      "outputs": [
        {
          "internalType": "address",
          "name": "",
          "type": "address"
        }
      ],
      "stateMutability": "view",
      "type": "function"
    },
    {
      "inputs": [
        {
          "internalType": "address",
          "name": "",
          "type": "address"
        },
        {
          "internalType": "address",
          "name": "",
          "type": "address"
        },
        {
          "internalType": "uint256[]",
          "name": "",
          "type": "uint256[]"
        },
        {
          "internalType": "uint256[]",
          "name": "",
          "type": "uint256[]"
        },
        {
          "internalType": "bytes",
          "name": "",
          "type": "bytes"
        }
      ],
      "name": "onERC1155BatchReceived",
      "outputs": [
        {
          "internalType": "bytes4",
          "name": "",
          "type": "bytes4"
        }
      ],
      "stateMutability": "nonpayable",
      "type": "function"
    },
    {
      "inputs": [
        {
          "internalType": "address",
          "name": "",
          "type": "address"
        },
        {
          "internalType": "address",
          "name": "",
          "type": "address"
        },
        {
          "internalType": "uint256",
          "name": "",
          "type": "uint256"
        },
        {
          "internalType": "uint256",
          "name": "",
          "type": "uint256"
        },
        {
          "internalType": "bytes",
          "name": "",
          "type": "bytes"
        }
      ],
      "name": "onERC1155Received",
      "outputs": [
        {
          "internalType": "bytes4",
          "name": "",
          "type": "bytes4"
        }
      ],
      "stateMutability": "nonpayable",
      "type": "function"
    },
    {
      "inputs": [
        {
          "internalType": "address",
          "name": "",
          "type": "address"
        },
        {
          "internalType": "address",
          "name": "",
          "type": "address"
        },
        {
          "internalType": "uint256",
          "name": "",
          "type": "uint256"
        },
        {
          "internalType": "bytes",
          "name": "",
          "type": "bytes"
        }
      ],
      "name": "onERC721Received",
      "outputs": [
        {
          "internalType": "bytes4",
          "name": "",
          "type": "bytes4"
        }
      ],
      "stateMutability": "nonpayable",
      "type": "function"
    },
    {
      "inputs": [],
      "name": "owner",
      "outputs": [
        {
          "internalType": "address",
          "name": "",
          "type": "address"
        }
      ],
      "stateMutability": "view",
      "type": "function"
    },
    {
      "inputs": [],
      "name": "pause",
      "outputs": [],
      "stateMutability": "nonpayable",
      "type": "function"
    },
    {
      "inputs": [],
      "name": "paused",
      "outputs": [
        {
          "internalType": "bool",
          "name": "",
          "type": "bool"
        }
      ],
      "stateMutability": "view",
      "type": "function"
    },
    {
      "inputs": [
        {
          "internalType": "enum ExchangeWrapperCore.Markets",
          "name": "",
          "type": "uint8"
        }
      ],
      "name": "proxies",
      "outputs": [
        {
          "internalType": "address",
          "name": "",
          "type": "address"
        }
      ],
      "stateMutability": "view",
      "type": "function"
    },
    {
      "inputs": [],
      "name": "rarible",
      "outputs": [
        {
          "internalType": "address",
          "name": "",
          "type": "address"
        }
      ],
      "stateMutability": "view",
      "type": "function"
    },
    {
      "inputs": [],
      "name": "renounceOwnership",
      "outputs": [],
      "stateMutability": "nonpayable",
      "type": "function"
    },
    {
      "inputs": [],
      "name": "seaport",
      "outputs": [
        {
          "internalType": "address",
          "name": "",
          "type": "address"
        }
      ],
      "stateMutability": "view",
      "type": "function"
    },
    {
      "inputs": [
        {
          "internalType": "enum ExchangeWrapperCore.Markets",
          "name": "marketId",
          "type": "uint8"
        },
        {
          "internalType": "address",
          "name": "proxy",
          "type": "address"
        }
      ],
      "name": "setMarketProxy",
      "outputs": [],
      "stateMutability": "nonpayable",
      "type": "function"
    },
    {
      "inputs": [
        {
          "internalType": "address",
          "name": "_erc20TransferProxy",
          "type": "address"
        }
      ],
      "name": "setTransferProxy",
      "outputs": [],
      "stateMutability": "nonpayable",
      "type": "function"
    },
    {
      "inputs": [
        {
          "internalType": "contract ISwapRouterV2",
          "name": "_uniswapRouterV2",
          "type": "address"
        }
      ],
      "name": "setUniswapV2",
      "outputs": [],
      "stateMutability": "nonpayable",
      "type": "function"
    },
    {
      "inputs": [
        {
          "internalType": "contract ISwapRouterV3",
          "name": "_uniswapRouterV3",
          "type": "address"
        }
      ],
      "name": "setUniswapV3",
      "outputs": [],
      "stateMutability": "nonpayable",
      "type": "function"
    },
    {
      "inputs": [
        {
          "internalType": "address",
          "name": "_wrappedToken",
          "type": "address"
        }
      ],
      "name": "setWrapped",
      "outputs": [],
      "stateMutability": "nonpayable",
      "type": "function"
    },
    {
      "inputs": [
        {
          "components": [
            {
              "internalType": "enum ExchangeWrapperCore.Markets",
              "name": "marketId",
              "type": "uint8"
            },
            {
              "internalType": "uint256",
              "name": "amount",
              "type": "uint256"
            },
            {
              "internalType": "address",
              "name": "paymentToken",
              "type": "address"
            },
            {
              "internalType": "uint256",
              "name": "fees",
              "type": "uint256"
            },
            {
              "internalType": "bytes",
              "name": "data",
              "type": "bytes"
            }
          ],
          "internalType": "struct ExchangeWrapperCore.PurchaseDetails",
          "name": "purchaseDetails",
          "type": "tuple"
        },
        {
          "internalType": "address",
          "name": "feeRecipientFirst",
          "type": "address"
        },
        {
          "internalType": "address",
          "name": "feeRecipientSecond",
          "type": "address"
        }
      ],
      "name": "singlePurchase",
      "outputs": [],
      "stateMutability": "payable",
      "type": "function"
    },
    {
      "inputs": [],
      "name": "sudoswap",
      "outputs": [
        {
          "internalType": "address",
          "name": "",
          "type": "address"
        }
      ],
      "stateMutability": "view",
      "type": "function"
    },
    {
      "inputs": [
        {
          "internalType": "bytes4",
          "name": "interfaceId",
          "type": "bytes4"
        }
      ],
      "name": "supportsInterface",
      "outputs": [
        {
          "internalType": "bool",
          "name": "",
          "type": "bool"
        }
      ],
      "stateMutability": "view",
      "type": "function"
    },
    {
      "inputs": [
        {
          "internalType": "address",
          "name": "newOwner",
          "type": "address"
        }
      ],
      "name": "transferOwnership",
      "outputs": [],
      "stateMutability": "nonpayable",
      "type": "function"
    },
    {
      "inputs": [],
      "name": "uniswapRouterV2",
      "outputs": [
        {
          "internalType": "contract ISwapRouterV2",
          "name": "",
          "type": "address"
        }
      ],
      "stateMutability": "view",
      "type": "function"
    },
    {
      "inputs": [],
      "name": "uniswapRouterV3",
      "outputs": [
        {
          "internalType": "contract ISwapRouterV3",
          "name": "",
          "type": "address"
        }
      ],
      "stateMutability": "view",
      "type": "function"
    },
    {
      "inputs": [],
      "name": "unpause",
      "outputs": [],
      "stateMutability": "nonpayable",
      "type": "function"
    },
    {
      "inputs": [],
      "name": "wrappedToken",
      "outputs": [
        {
          "internalType": "address",
          "name": "",
          "type": "address"
        }
      ],
      "stateMutability": "view",
      "type": "function"
    },
    {
      "inputs": [],
      "name": "wyvern",
      "outputs": [
        {
          "internalType": "address",
          "name": "",
          "type": "address"
        }
      ],
      "stateMutability": "view",
      "type": "function"
    },
    {
      "inputs": [],
      "name": "x2y2",
      "outputs": [
        {
          "internalType": "address",
          "name": "",
          "type": "address"
        }
      ],
      "stateMutability": "view",
      "type": "function"
    },
    {
      "stateMutability": "payable",
      "type": "receive"
    }
  ],
  "transactionHash": "0x0dd8674b37d1b1a298d7ed080eaca4e38e7af72d619b0052617d1fcf65d9e19f",
  "args": [],
  "numDeployments": 7,
  "solcInputHash": "43e18a832c4e5557d0c241dfd4594f93",
  "bytecode": "0x608060405234801561001057600080fd5b50615534806100206000396000f3fe6080604052600436106101b25760003560e01c80638ae42905116100ed578063c1aa293811610090578063c1aa2938146104d6578063c6d0ffd7146104f6578063d6dc927f14610516578063df6c255814610529578063f23a6e6114610549578063f2fde38b14610575578063f5c7bd7014610595578063fc40c9c7146105b5578063fee03e9e146105d557600080fd5b80638ae42905146103b65780638da5cb5b146103d65780639137f9c2146103f4578063996c6cc31461042a578063a05f32dc1461044a578063a8e90b571461046a578063aa78ae931461048a578063bc197c81146104aa57600080fd5b80635c975abb116101555780635c975abb146102ee5780635ea1e4c9146103065780635f2772e314610326578063715018a61461033957806373a963d71461034e5780637da50dd61461036e5780638456cb591461038e57806386619edf146103a357600080fd5b806301ffc9a7146101be57806310f91b0b146101f3578063150b7a0214610220578063368c802c146102645780633f4ba83a146102795780634edfc9f91461028e578063596fa9e3146102ae57806359e86829146102ce57600080fd5b366101b957005b600080fd5b3480156101ca57600080fd5b506101de6101d936600461375b565b6105f5565b60405190151581526020015b60405180910390f35b3480156101ff57600080fd5b5060a054610213906001600160a01b031681565b6040516101ea9190613778565b34801561022c57600080fd5b5061024b61023b36600461397d565b630a85bd0160e11b949350505050565b6040516001600160e01b031990911681526020016101ea565b610277610272366004613a99565b61062c565b005b34801561028557600080fd5b506102776106fb565b34801561029a57600080fd5b50609954610213906001600160a01b031681565b3480156102ba57600080fd5b50609f54610213906001600160a01b031681565b3480156102da57600080fd5b506102776102e9366004613b09565b61070d565b3480156102fa57600080fd5b5060655460ff166101de565b34801561031257600080fd5b50609d54610213906001600160a01b031681565b610277610334366004613c4c565b610737565b34801561034557600080fd5b5061027761084a565b34801561035a57600080fd5b50610277610369366004613b09565b61085c565b34801561037a57600080fd5b50610277610389366004613dbc565b610886565b34801561039a57600080fd5b506102776108ec565b6102776103b1366004613df5565b6108fc565b3480156103c257600080fd5b506102776103d1366004613b09565b61093a565b3480156103e257600080fd5b506033546001600160a01b0316610213565b34801561040057600080fd5b5061021361040f366004613ef0565b60a3602052600090815260409020546001600160a01b031681565b34801561043657600080fd5b5060a154610213906001600160a01b031681565b34801561045657600080fd5b50609754610213906001600160a01b031681565b34801561047657600080fd5b50609c54610213906001600160a01b031681565b34801561049657600080fd5b506102776104a5366004613f0d565b610964565b3480156104b657600080fd5b5061024b6104c5366004613fb6565b63bc197c8160e01b95945050505050565b3480156104e257600080fd5b506102776104f1366004613b09565b610b07565b34801561050257600080fd5b50609854610213906001600160a01b031681565b610277610524366004614063565b610b31565b34801561053557600080fd5b50609e54610213906001600160a01b031681565b34801561055557600080fd5b5061024b6105643660046140d7565b63f23a6e6160e01b95945050505050565b34801561058157600080fd5b50610277610590366004613b09565b610cf0565b3480156105a157600080fd5b50609a54610213906001600160a01b031681565b3480156105c157600080fd5b50609b54610213906001600160a01b031681565b3480156105e157600080fd5b5060a254610213906001600160a01b031681565b60006001600160e01b03198216630271189760e51b148061062657506301ffc9a760e01b6001600160e01b03198316145b92915050565b610634610d69565b6000806000610644866000610daf565b9250925092506106513390565b6001600160a01b03167fc5dd8c21802b423a9c822ee9c934f042186e6bb7097a1dd17717343ee84df7148460405161068d911515815260200190565b60405180910390a260408601516001600160a01b03166106c0576106b18286611c4b565b6106bb8185611c4b565b6106eb565b6106cf86604001518387611c76565b6106de86604001518286611c76565b6106eb8660400151611d1a565b6106f3611e21565b505050505050565b610703611e32565b61070b611e8c565b565b610715611e32565b60a080546001600160a01b0319166001600160a01b0392909216919091179055565b61073f610d69565b600081600001516000815181106107585761075861413f565b6020026020010151905060008260000151600184600001515161077b919061416b565b8151811061078b5761078b61413f565b602090810291909101015160a1549091506001600160a01b03808316911614156107e85760006107ba84611ed8565b9050806107e25760405162461bcd60e51b81526004016107d990614182565b60405180910390fd5b50610835565b60a1546001600160a01b03838116911614156108095760006107ba8461249d565b600061081484612857565b9050806108335760405162461bcd60e51b81526004016107d990614182565b505b61084187878787610b31565b50505050505050565b610852611e32565b61070b6000612c4a565b610864611e32565b609f80546001600160a01b0319166001600160a01b0392909216919091179055565b61088e611e32565b8060a360008460078111156108a5576108a56141af565b60078111156108b6576108b66141af565b815260200190815260200160002060006101000a8154816001600160a01b0302191690836001600160a01b031602179055505050565b6108f4611e32565b61070b612c9c565b610904610d69565b600061090f82612cd9565b90508061092e5760405162461bcd60e51b81526004016107d990614182565b6106f386868686610b31565b610942611e32565b60a280546001600160a01b0319166001600160a01b0392909216919091179055565b600054610100900460ff16158080156109845750600054600160ff909116105b8061099e5750303b15801561099e575060005460ff166001145b610a015760405162461bcd60e51b815260206004820152602e60248201527f496e697469616c697a61626c653a20636f6e747261637420697320616c72656160448201526d191e481a5b9a5d1a585b1a5e995960921b60648201526084016107d9565b6000805460ff191660011790558015610a24576000805461ff0019166101001790555b610a2c613216565b610a3461323d565b610a3c61326d565b609780546001600160a01b03199081166001600160a01b03808d1691909117909255609880548216838c16179055609980548216838b16179055609a80548216838a16179055609b80548216838916179055609c80548216838816179055609d80548216838716179055609e80549091169184169190911790558015610afc576000805461ff0019169055604051600181527f7f26b83ff96e1f2b6a682f133852f6798a09c465da95921460cefb38474024989060200160405180910390a15b505050505050505050565b610b0f611e32565b60a180546001600160a01b0319166001600160a01b0392909216919091179055565b610b39610d69565b6000806000808751905060005b81811015610c78576000806000610b768c8581518110610b6857610b6861413f565b60200260200101518a610daf565b9250925092508580610b855750825b604051841515815290965033907fc5dd8c21802b423a9c822ee9c934f042186e6bb7097a1dd17717343ee84df7149060200160405180910390a260006001600160a01b03168c8581518110610bdc57610bdc61413f565b6020026020010151604001516001600160a01b03161415610c1457610c0182896141c5565b9750610c0d81886141c5565b9650610c64565b610c3c8c8581518110610c2957610c2961413f565b602002602001015160400151838d611c76565b610c648c8581518110610c5157610c5161413f565b602002602001015160400151828c611c76565b50505080610c71906141dd565b9050610b46565b5081610cc15760405162461bcd60e51b81526020600482015260186024820152776e6f207375636365737366756c20657865637574696f6e7360401b60448201526064016107d9565b610ccb8488611c4b565b610cd58387611c4b565b610cde886132a0565b610ce6611e21565b5050505050505050565b610cf8611e32565b6001600160a01b038116610d5d5760405162461bcd60e51b815260206004820152602660248201527f4f776e61626c653a206e6577206f776e657220697320746865207a65726f206160448201526564647265737360d01b60648201526084016107d9565b610d6681612c4a565b50565b60655460ff161561070b5760405162461bcd60e51b815260206004820152601060248201526f14185d5cd8589b194e881c185d5cd95960821b60448201526064016107d9565b6000806000806000610dce87608001518860600151896000015161331a565b91509150600087602001519050600080610df08a606001518b60200151613415565b60408c015191935091506001600160a01b03161561105b576000925060008a604001516001600160a01b03166370a08231306040518263ffffffff1660e01b8152600401610e3e9190613778565b60206040518083038186803b158015610e5657600080fd5b505afa158015610e6a573d6000803e3d6000fd5b505050506040513d601f19601f82011682018060405250810190610e8e91906141f8565b9050600082848d60200151610ea391906141c5565b610ead91906141c5565b905081811115610f2f5760a25460408d01516001600160a01b039091169063776062c3903330610edd878761416b565b6040518563ffffffff1660e01b8152600401610efc9493929190614211565b600060405180830381600087803b158015610f1657600080fd5b505af1158015610f2a573d6000803e3d6000fd5b505050505b6000610f3e8d60000151613446565b905060008d604001516001600160a01b031663dd62ed3e83306040518363ffffffff1660e01b8152600401610f7492919061423b565b60206040518083038186803b158015610f8c57600080fd5b505afa158015610fa0573d6000803e3d6000fd5b505050506040513d601f19601f82011682018060405250810190610fc491906141f8565b905082811015611056578d604001516001600160a01b031663095ea7b3836000196040518363ffffffff1660e01b8152600401611002929190614255565b602060405180830381600087803b15801561101c57600080fd5b505af1158015611030573d6000803e3d6000fd5b505050506040513d601f19601f820116820180604052508101906110549190614279565b505b505050505b60028a516007811115611070576110706141af565b141561114f57609a546040516000916001600160a01b03169085906110969089906142c2565b60006040518083038185875af1925050503d80600081146110d3576040519150601f19603f3d011682016040523d82523d6000602084013e6110d8565b606091505b50509050891561110257806110fd576000806000985098509850505050505050611c44565b611149565b806111495760405162461bcd60e51b8152602060048201526017602482015276141d5c98da185cd94814d9585c1bdc9d0819985a5b1959604a1b60448201526064016107d9565b50611c29565b60068a516007811115611164576111646141af565b141561123e576097546040516000916001600160a01b031690859061118a9089906142c2565b60006040518083038185875af1925050503d80600081146111c7576040519150601f19603f3d011682016040523d82523d6000602084013e6111cc565b606091505b5050905089156111f157806110fd576000806000985098509850505050505050611c44565b806111495760405162461bcd60e51b815260206004820152601b60248201527f50757263686173652047686f73744d61726b6574206661696c6564000000000060448201526064016107d9565b60008a516007811115611253576112536141af565b1415611327576098546040516000916001600160a01b03169085906112799089906142c2565b60006040518083038185875af1925050503d80600081146112b6576040519150601f19603f3d011682016040523d82523d6000602084013e6112bb565b606091505b5050905089156112e057806110fd576000806000985098509850505050505050611c44565b806111495760405162461bcd60e51b8152602060048201526017602482015276141d5c98da185cd94814985c9a589b194819985a5b1959604a1b60448201526064016107d9565b60038a51600781111561133c5761133c6141af565b14156117d15760008580602001905181019061135891906147da565b905089156113dc57609b5460405163357a150b60e01b81526001600160a01b039091169063357a150b908690611392908590600401614a8c565b6000604051808303818588803b1580156113ab57600080fd5b505af1935050505080156113bd575060015b6113d7576000806000985098509850505050505050611c44565b611441565b609b5460405163357a150b60e01b81526001600160a01b039091169063357a150b90869061140e908590600401614a8c565b6000604051808303818588803b15801561142757600080fd5b505af115801561143b573d6000803e3d6000fd5b50505050505b60208101515160005b818110156117c95760008360200151828151811061146a5761146a61413f565b60200260200101516020015190506000846020015183815181106114905761149061413f565b60200260200101516040015190506000856000015183815181106114b6576114b661413f565b6020026020010151610100015182815181106114d4576114d461413f565b60200260200101516020015190506000866000015184815181106114fa576114fa61413f565b602002602001015160e001515111801561153657506000866020015185815181106115275761152761413f565b602002602001015160c0015151115b156115885761158881876020015186815181106115555761155561413f565b602002602001015160c00151886000015186815181106115775761157761413f565b602002602001015160e0015161348f565b855180518490811061159c5761159c61413f565b6020026020010151608001516001141561167d576000818060200190518101906115c69190614c48565b905060005b81518110156116765760008282815181106115e8576115e861413f565b6020026020010151905080600001516001600160a01b03166342842e0e3061160d3390565b84602001516040518463ffffffff1660e01b815260040161163093929190614d06565b600060405180830381600087803b15801561164a57600080fd5b505af115801561165e573d6000803e3d6000fd5b5050505050808061166e906141dd565b9150506115cb565b50506117b5565b85518051849081106116915761169161413f565b60200260200101516080015160021415611771576000818060200190518101906116bb9190614d2a565b905060005b81518110156116765760008282815181106116dd576116dd61413f565b6020026020010151905080600001516001600160a01b031663f242432a306117023390565b846020015185604001516040518563ffffffff1660e01b815260040161172b9493929190614df0565b600060405180830381600087803b15801561174557600080fd5b505af1158015611759573d6000803e3d6000fd5b50505050508080611769906141dd565b9150506116c0565b60405162461bcd60e51b81526020600482015260196024820152783ab735b737bbb7103232b632b3b0ba32aa3cb832903c193c9960391b60448201526064016107d9565b505050806117c2906141dd565b905061144a565b505050611c29565b60048a5160078111156117e6576117e66141af565b1415611a14576000806000878060200190518101906118059190614f46565b9250925092508b1561189157609c54604051635a72594b60e11b81526001600160a01b039091169063b4e4b296908890611845908790879060040161502e565b6000604051808303818588803b15801561185e57600080fd5b505af193505050508015611870575060015b61188c5760008060009a509a509a505050505050505050611c44565b6118f8565b609c54604051635a72594b60e11b81526001600160a01b039091169063b4e4b2969088906118c5908790879060040161502e565b6000604051808303818588803b1580156118de57600080fd5b505af11580156118f2573d6000803e3d6000fd5b50505050505b6001600160e01b031981166339d690a360e11b14156119805760408201516001600160a01b03166342842e0e303385608001516040518463ffffffff1660e01b815260040161194993929190614d06565b600060405180830381600087803b15801561196357600080fd5b505af1158015611977573d6000803e3d6000fd5b505050506117c9565b6001600160e01b0319811663025ceed960e61b14156119d757604082810151608084015160a08501519251637921219560e11b81526001600160a01b039092169263f242432a926119499230923392600401614df0565b60405162461bcd60e51b8152602060048201526012602482015271556e6b6e6f776e20746f6b656e207479706560701b60448201526064016107d9565b60058a516007811115611a2957611a296141af565b1415611afe57609d546040516000916001600160a01b0316908590611a4f9089906142c2565b60006040518083038185875af1925050503d8060008114611a8c576040519150601f19603f3d011682016040523d82523d6000602084013e611a91565b606091505b505090508915611ab657806110fd576000806000985098509850505050505050611c44565b806111495760405162461bcd60e51b8152602060048201526018602482015277141d5c98da185cd94814dd591bd4ddd85c0819985a5b195960421b60448201526064016107d9565b60078a516007811115611b1357611b136141af565b1415611be657609e546040516000916001600160a01b0316908590611b399089906142c2565b60006040518083038185875af1925050503d8060008114611b76576040519150601f19603f3d011682016040523d82523d6000602084013e611b7b565b606091505b505090508915611ba057806110fd576000806000985098509850505050505050611c44565b806111495760405162461bcd60e51b8152602060048201526016602482015275141d5c98da185cd948189b1d5c9a5bc819985a5b195960521b60448201526064016107d9565b60405162461bcd60e51b8152602060048201526018602482015277556e6b6e6f776e2070757263686173652064657461696c7360401b60448201526064016107d9565b611c37848b6020015161353c565b6001975090955093505050505b9250925092565b600082118015611c6357506001600160a01b03811615155b15611c7257611c7281836135e0565b5050565b600082118015611c8e57506001600160a01b03811615155b15611d155760405163a9059cbb60e01b81526001600160a01b0384169063a9059cbb90611cc19084908690600401614255565b602060405180830381600087803b158015611cdb57600080fd5b505af1158015611cef573d6000803e3d6000fd5b505050506040513d601f19601f82011682018060405250810190611d139190614279565b505b505050565b6040516370a0823160e01b81526000906001600160a01b038316906370a0823190611d49903090600401613778565b60206040518083038186803b158015611d6157600080fd5b505afa158015611d75573d6000803e3d6000fd5b505050506040513d601f19601f82011682018060405250810190611d9991906141f8565b90508015611c725760405163a9059cbb60e01b81526001600160a01b0383169063a9059cbb90611dcf9033908590600401614255565b602060405180830381600087803b158015611de957600080fd5b505af1158015611dfd573d6000803e3d6000fd5b505050506040513d601f19601f82011682018060405250810190611d159190614279565b478015610d6657610d6633826135e0565b6033546001600160a01b0316331461070b5760405162461bcd60e51b815260206004820181905260248201527f4f776e61626c653a2063616c6c6572206973206e6f7420746865206f776e657260448201526064016107d9565b611e94613694565b6065805460ff191690557f5db9ee0a495bf2e6ff9c91a7834c1ba4fdd244a5e8aa4e537bd38aeae4b073aa335b604051611ece9190613778565b60405180910390a1565b6000808260000151600081518110611ef257611ef261413f565b60200260200101519050600083600001516001856000015151611f15919061416b565b81518110611f2557611f2561413f565b602090810291909101015160a2549091506001600160a01b031663776062c383333088604001516040518563ffffffff1660e01b8152600401611f6b9493929190614211565b600060405180830381600087803b158015611f8557600080fd5b505af1158015611f99573d6000803e3d6000fd5b505060a1546001600160a01b038581169116149150508015611fbc575083608001515b1561203b5760a1546040808601519051632e1a7d4d60e01b81526001600160a01b0390921691632e1a7d4d91611ff89160040190815260200190565b600060405180830381600087803b15801561201257600080fd5b505af1925050508015612023575060015b612031575060009392505050565b5060019392505050565b600034118015612058575060a1546001600160a01b038281169116145b156120c15760a160009054906101000a90046001600160a01b03166001600160a01b031663d0e30db0346040518263ffffffff1660e01b81526004016000604051808303818588803b1580156120ad57600080fd5b505af1935050505080156120235750612031565b609f54604051636eb1769f60e11b81526000916001600160a01b038086169263dd62ed3e926120f6921690309060040161423b565b60206040518083038186803b15801561210e57600080fd5b505afa158015612122573d6000803e3d6000fd5b505050506040513d601f19601f8201168201806040525081019061214691906141f8565b905084604001518110156121de57609f5460405163095ea7b360e01b81526001600160a01b038581169263095ea7b39261218a929091169060001990600401614255565b602060405180830381600087803b1580156121a457600080fd5b505af11580156121b8573d6000803e3d6000fd5b505050506040513d601f19601f820116820180604052508101906121dc9190614279565b505b46600061a86a8214806121f257508161a869145b905060004782156122c057609f5460208a01516040808c015160608d01518d519251636d3420ed60e01b81526000956001600160a01b031694636d3420ed946122459491939192309042906004016151f1565b600060405180830381600087803b15801561225f57600080fd5b505af1158015612273573d6000803e3d6000fd5b505050506040513d6000823e601f3d908101601f1916820160405261229b919081019061529c565b9050806000815181106122b0576122b061413f565b6020026020010151925050612378565b609f5460208a01516040808c01518c519151632512eca560e11b81526000946001600160a01b031693634a25d94a93612301939192309042906004016152d0565b600060405180830381600087803b15801561231b57600080fd5b505af115801561232f573d6000803e3d6000fd5b505050506040513d6000823e601f3d908101601f19168201604052612357919081019061529c565b90508060008151811061236c5761236c61413f565b60200260200101519250505b60408901514790831015612417576001600160a01b03881663a9059cbb33858d604001516123a6919061416b565b6040518363ffffffff1660e01b81526004016123c3929190614255565b602060405180830381600087803b1580156123dd57600080fd5b505af11580156123f1573d6000803e3d6000fd5b505050506040513d601f19601f820116820180604052508101906124159190614279565b505b89608001511561248d5760a1546001600160a01b031663d0e30db061243c848461416b565b6040518263ffffffff1660e01b81526004016000604051808303818588803b15801561246757600080fd5b505af193505050508015612479575060015b61248d575060009998505050505050505050565b5060019998505050505050505050565b60008082600001516000815181106124b7576124b761413f565b602002602001015190506000836000015160018560000151516124da919061416b565b815181106124ea576124ea61413f565b6020026020010151905034600014156125d75760a2546001600160a01b031663776062c383333088604001516040518563ffffffff1660e01b81526004016125359493929190614211565b600060405180830381600087803b15801561254f57600080fd5b505af1158015612563573d6000803e3d6000fd5b505060a1546040808801519051632e1a7d4d60e01b81526001600160a01b039092169350632e1a7d4d925061259e9160040190815260200190565b600060405180830381600087803b1580156125b857600080fd5b505af19250505080156125c9575060015b6125d7575060009392505050565b6000341180156125f4575060a1546001600160a01b038281169116145b156126f75760a160009054906101000a90046001600160a01b03166001600160a01b031663d0e30db0346040518263ffffffff1660e01b81526004016000604051808303818588803b15801561264957600080fd5b505af19350505050801561265b575060015b612669575060009392505050565b604080850151905163a9059cbb60e01b81526001600160a01b0383169163a9059cbb9161269a913391600401614255565b602060405180830381600087803b1580156126b457600080fd5b505af11580156126c8573d6000803e3d6000fd5b505050506040513d601f19601f820116820180604052508101906126ec9190614279565b506001949350505050565b46600061a86a82148061270b57508161a869145b905080156127b457609f54604080880151602089015160608a01518a519351630217ab2560e51b81526001600160a01b03909516946342f564a0946127589392913090429060040161530c565b6000604051808303818588803b15801561277157600080fd5b505af1158015612785573d6000803e3d6000fd5b50505050506040513d6000823e601f3d908101601f191682016040526127ae919081019061529c565b5061284b565b609f5460408088015160208901518951925163fb3bdb4160e01b81526001600160a01b039094169363fb3bdb41936127f3929130904290600401615355565b6000604051808303818588803b15801561280c57600080fd5b505af1158015612820573d6000803e3d6000fd5b50505050506040513d6000823e601f3d908101601f19168201604052612849919081019061529c565b505b50600195945050505050565b60008082600001516000815181106128715761287161413f565b602090810291909101015160a2549091506001600160a01b031663776062c382333087604001516040518563ffffffff1660e01b81526004016128b79493929190614211565b600060405180830381600087803b1580156128d157600080fd5b505af11580156128e5573d6000803e3d6000fd5b5050609f54604051636eb1769f60e11b8152600093506001600160a01b03808616935063dd62ed3e9261291f92911690309060040161423b565b60206040518083038186803b15801561293757600080fd5b505afa15801561294b573d6000803e3d6000fd5b505050506040513d601f19601f8201168201806040525081019061296f91906141f8565b90508360400151811015612a0757609f5460405163095ea7b360e01b81526001600160a01b038481169263095ea7b3926129b3929091169060001990600401614255565b602060405180830381600087803b1580156129cd57600080fd5b505af11580156129e1573d6000803e3d6000fd5b505050506040513d601f19601f82011682018060405250810190612a059190614279565b505b46600061a86a821480612a1b57508161a869145b905060008115612ae857609f5460208801516040808a015160608b01518b51925163a7b856d360e01b81526000956001600160a01b03169463a7b856d394612a6d9491939192309042906004016151f1565b600060405180830381600087803b158015612a8757600080fd5b505af1158015612a9b573d6000803e3d6000fd5b505050506040513d6000823e601f3d908101601f19168201604052612ac3919081019061529c565b905080600081518110612ad857612ad861413f565b6020026020010151915050612ba0565b609f5460208801516040808a01518a519151634401edf760e11b81526000946001600160a01b031693638803dbee93612b29939192309042906004016152d0565b600060405180830381600087803b158015612b4357600080fd5b505af1158015612b57573d6000803e3d6000fd5b505050506040513d6000823e601f3d908101601f19168201604052612b7f919081019061529c565b905080600081518110612b9457612b9461413f565b60200260200101519150505b8660400151811015612c3d576001600160a01b03851663a9059cbb33838a60400151612bcc919061416b565b6040518363ffffffff1660e01b8152600401612be9929190614255565b602060405180830381600087803b158015612c0357600080fd5b505af1158015612c17573d6000803e3d6000fd5b505050506040513d601f19601f82011682018060405250810190612c3b9190614279565b505b5060019695505050505050565b603380546001600160a01b038381166001600160a01b0319831681179093556040519116919082907f8be0079c531659141344cd1fd0a4f28419497f9722a3daafe3b4186f6b6457e090600090a35050565b612ca4610d69565b6065805460ff191660011790557f62e78cea01bee320cd4e420270b5ea74000d11b0c9f74754ebdbfc544b05a258611ec13390565b60008060008084600001519050600060148251612cf6919061416b565b9050600160601b81602084010151049350600160601b60006020840101510492503460001415612d8b5760a2546001600160a01b031663776062c38533308a604001516040518563ffffffff1660e01b8152600401612d589493929190614211565b600060405180830381600087803b158015612d7257600080fd5b505af1158015612d86573d6000803e3d6000fd5b505050505b60a1546001600160a01b038581169116148015612da9575085606001515b15612e205760a1546020870151604051632e1a7d4d60e01b81526001600160a01b0390921691632e1a7d4d91612de59160040190815260200190565b600060405180830381600087803b158015612dff57600080fd5b505af1925050508015612e10575060015b61284b5750600095945050505050565b600034118015612e3d575060a1546001600160a01b038481169116145b15612ea65760a160009054906101000a90046001600160a01b03166001600160a01b031663d0e30db0346040518263ffffffff1660e01b81526004016000604051808303818588803b158015612e9257600080fd5b505af193505050508015612e10575061284b565b60a054604051636eb1769f60e11b81526000916001600160a01b038088169263dd62ed3e92612edb921690309060040161423b565b60206040518083038186803b158015612ef357600080fd5b505afa158015612f07573d6000803e3d6000fd5b505050506040513d601f19601f82011682018060405250810190612f2b91906141f8565b90508660400151811015612fc35760a05460405163095ea7b360e01b81526001600160a01b038781169263095ea7b392612f6f929091169060001990600401614255565b602060405180830381600087803b158015612f8957600080fd5b505af1158015612f9d573d6000803e3d6000fd5b505050506040513d601f19601f82011682018060405250810190612fc19190614279565b505b6040805160a08082018352895182523060208084019190915242838501528a01516060830152898301516080830152549151631e51809360e31b815290916000916001600160a01b039091169063f28c04989061302490859060040161538a565b602060405180830381600087803b15801561303e57600080fd5b505af192505050801561306e575060408051601f3d908101601f1916820190925261306b918101906141f8565b60015b6130815750600098975050505050505050565b905060a060009054906101000a90046001600160a01b03166001600160a01b03166312210e8a6040518163ffffffff1660e01b8152600401600060405180830381600087803b1580156130d357600080fd5b505af11580156130e7573d6000803e3d6000fd5b5050505088606001511561316a5760a15460208a0151604051632e1a7d4d60e01b81526001600160a01b0390921691632e1a7d4d9161312c9160040190815260200190565b600060405180830381600087803b15801561314657600080fd5b505af1925050508015613157575060015b61316a5750600098975050505050505050565b8860400151811015613207576001600160a01b03871663a9059cbb33838c60400151613196919061416b565b6040518363ffffffff1660e01b81526004016131b3929190614255565b602060405180830381600087803b1580156131cd57600080fd5b505af11580156131e1573d6000803e3d6000fd5b505050506040513d601f19601f820116820180604052508101906132059190614279565b505b50600198975050505050505050565b600054610100900460ff1661070b5760405162461bcd60e51b81526004016107d9906153e2565b600054610100900460ff166132645760405162461bcd60e51b81526004016107d9906153e2565b61070b33612c4a565b600054610100900460ff166132945760405162461bcd60e51b81526004016107d9906153e2565b6065805460ff19169055565b805160005b81811015611d155760006001600160a01b03168382815181106132ca576132ca61413f565b6020026020010151604001516001600160a01b03161461330a5761330a8382815181106132f9576132f961413f565b602002602001015160400151611d1a565b613313816141dd565b90506132a5565b6060806000602085901c61ffff166001811115613339576133396141af565b905060606000826001811115613351576133516141af565b141561336357869350915061340d9050565b6001826001811115613377576133776141af565b14156133c557600087806020019051810190613393919061542d565b905061339e866136dd565b156133b957806000015181602001519450945050505061340d565b519350915061340d9050565b60405162461bcd60e51b815260206004820152601a60248201527f756e6b6e6f776e206164646974696f6e616c446174615479706500000000000060448201526064016107d9565b935093915050565b60008061ffff601085901c811690851661342f8583613725565b6134398683613725565b9350935050509250929050565b600060a3600083600781111561345e5761345e6141af565b600781111561346f5761346f6141af565b81526020810191909152604001600020546001600160a01b031692915050565b815183511461349d57600080fd5b80518351146134ab57600080fd5b825160005b81811015613535578281815181106134ca576134ca61413f565b01602001516001600160f81b03191615613525578381815181106134f0576134f061413f565b602001015160f81c60f81b85828151811061350d5761350d61413f565b60200101906001600160f81b031916908160001a9053505b61352e816141dd565b90506134b0565b5050505050565b815160005b81811015611d1357600084828151811061355d5761355d61413f565b602002602001015111156135d057600084828151811061357f5761357f61413f565b60200260200101519050600060a086848151811061359f5761359f61413f565b6020026020010151901c905060006135c0828761372590919063ffffffff16565b90506135cc8184611c4b565b5050505b6135d9816141dd565b9050613541565b6000826001600160a01b03168260405160006040518083038185875af1925050503d806000811461362d576040519150601f19603f3d011682016040523d82523d6000602084013e613632565b606091505b5050905080611d155760405162461bcd60e51b815260206004820152602860248201527f4c69625472616e73666572204261736543757272656e6379207472616e7366656044820152671c8819985a5b195960c21b60648201526084016107d9565b60655460ff1661070b5760405162461bcd60e51b815260206004820152601460248201527314185d5cd8589b194e881b9bdd081c185d5cd95960621b60448201526064016107d9565b600060058260078111156136f3576136f36141af565b14806137105750600482600781111561370e5761370e6141af565b145b1561371d57506001919050565b506000919050565b600061271061373483856154bd565b61373e91906154dc565b9392505050565b6001600160e01b031981168114610d6657600080fd5b60006020828403121561376d57600080fd5b813561373e81613745565b6001600160a01b0391909116815260200190565b6001600160a01b0381168114610d6657600080fd5b634e487b7160e01b600052604160045260246000fd5b60405160a081016001600160401b03811182821017156137d9576137d96137a1565b60405290565b604051608081016001600160401b03811182821017156137d9576137d96137a1565b604080519081016001600160401b03811182821017156137d9576137d96137a1565b6040516101a081016001600160401b03811182821017156137d9576137d96137a1565b60405161016081016001600160401b03811182821017156137d9576137d96137a1565b60405160c081016001600160401b03811182821017156137d9576137d96137a1565b604051606081016001600160401b03811182821017156137d9576137d96137a1565b60405161020081016001600160401b03811182821017156137d9576137d96137a1565b604051601f8201601f191681016001600160401b03811182821017156138f8576138f86137a1565b604052919050565b60006001600160401b03821115613919576139196137a1565b50601f01601f191660200190565b600082601f83011261393857600080fd5b813561394b61394682613900565b6138d0565b81815284602083860101111561396057600080fd5b816020850160208301376000918101602001919091529392505050565b6000806000806080858703121561399357600080fd5b843561399e8161378c565b935060208501356139ae8161378c565b92506040850135915060608501356001600160401b038111156139d057600080fd5b6139dc87828801613927565b91505092959194509250565b60088110610d6657600080fd5b600060a08284031215613a0757600080fd5b60405160a081016001600160401b038282108183111715613a2a57613a2a6137a1565b8160405282935084359150613a3e826139e8565b8183526020850135602084015260408501359150613a5b8261378c565b816040840152606085013560608401526080850135915080821115613a7f57600080fd5b50613a8c85828601613927565b6080830152505092915050565b600080600060608486031215613aae57600080fd5b83356001600160401b03811115613ac457600080fd5b613ad0868287016139f5565b9350506020840135613ae18161378c565b91506040840135613af18161378c565b809150509250925092565b6001600160a01b03169052565b600060208284031215613b1b57600080fd5b813561373e8161378c565b60006001600160401b03821115613b3f57613b3f6137a1565b5060051b60200190565b600082601f830112613b5a57600080fd5b81356020613b6a61394683613b26565b82815260059290921b84018101918181019086841115613b8957600080fd5b8286015b84811015613bc85780356001600160401b03811115613bac5760008081fd5b613bba8986838b01016139f5565b845250918301918301613b8d565b509695505050505050565b8015158114610d6657600080fd5b8035613bec81613bd3565b919050565b600082601f830112613c0257600080fd5b81356020613c1261394683613b26565b82815260059290921b84018101918181019086841115613c3157600080fd5b8286015b84811015613bc85780358352918301918301613c35565b600080600080600060a08688031215613c6457600080fd5b85356001600160401b0380821115613c7b57600080fd5b613c8789838a01613b49565b96506020915081880135613c9a8161378c565b95506040880135613caa8161378c565b94506060880135613cba81613bd3565b9350608088013581811115613cce57600080fd5b880160a0818b031215613ce057600080fd5b613ce86137b7565b813583811115613cf757600080fd5b8201601f81018c13613d0857600080fd5b8035613d1661394682613b26565b81815260059190911b8201860190868101908e831115613d3557600080fd5b928701925b82841015613d5c578335613d4d8161378c565b82529287019290870190613d3a565b808552505050508382013584820152604082013560408201526060820135935082841115613d8957600080fd5b613d958b858401613bf1565b6060820152613da660808301613be1565b6080820152809450505050509295509295909350565b60008060408385031215613dcf57600080fd5b8235613dda816139e8565b91506020830135613dea8161378c565b809150509250929050565b600080600080600060a08688031215613e0d57600080fd5b85356001600160401b0380821115613e2457600080fd5b613e3089838a01613b49565b965060208801359150613e428261378c565b909450604087013590613e548261378c565b909350606087013590613e6682613bd3565b90925060808701359080821115613e7c57600080fd5b908701906080828a031215613e9057600080fd5b613e986137df565b823582811115613ea757600080fd5b613eb38b828601613927565b825250602083013560208201526040830135604082015260608301359250613eda83613bd3565b8260608201528093505050509295509295909350565b600060208284031215613f0257600080fd5b813561373e816139e8565b600080600080600080600080610100898b031215613f2a57600080fd5b8835613f358161378c565b97506020890135613f458161378c565b96506040890135613f558161378c565b95506060890135613f658161378c565b94506080890135613f758161378c565b935060a0890135613f858161378c565b925060c0890135613f958161378c565b915060e0890135613fa58161378c565b809150509295985092959890939650565b600080600080600060a08688031215613fce57600080fd5b8535613fd98161378c565b94506020860135613fe98161378c565b935060408601356001600160401b038082111561400557600080fd5b61401189838a01613bf1565b9450606088013591508082111561402757600080fd5b61403389838a01613bf1565b9350608088013591508082111561404957600080fd5b5061405688828901613927565b9150509295509295909350565b6000806000806080858703121561407957600080fd5b84356001600160401b0381111561408f57600080fd5b61409b87828801613b49565b94505060208501356140ac8161378c565b925060408501356140bc8161378c565b915060608501356140cc81613bd3565b939692955090935050565b600080600080600060a086880312156140ef57600080fd5b85356140fa8161378c565b9450602086013561410a8161378c565b9350604086013592506060860135915060808601356001600160401b0381111561413357600080fd5b61405688828901613927565b634e487b7160e01b600052603260045260246000fd5b634e487b7160e01b600052601160045260246000fd5b60008282101561417d5761417d614155565b500390565b6020808252601390820152721cddd85c081b9bdd081cdd58d8d95cdcd99d5b606a1b604082015260600190565b634e487b7160e01b600052602160045260246000fd5b600082198211156141d8576141d8614155565b500190565b60006000198214156141f1576141f1614155565b5060010190565b60006020828403121561420a57600080fd5b5051919050565b6001600160a01b039485168152928416602084015292166040820152606081019190915260800190565b6001600160a01b0392831681529116602082015260400190565b6001600160a01b03929092168252602082015260400190565b8051613bec81613bd3565b60006020828403121561428b57600080fd5b815161373e81613bd3565b60005b838110156142b1578181015183820152602001614299565b83811115611d135750506000910152565b600082516142d4818460208701614296565b9190910192915050565b8051613bec8161378c565b600082601f8301126142fa57600080fd5b815161430861394682613900565b81815284602083860101111561431d57600080fd5b61432e826020830160208701614296565b949350505050565b600082601f83011261434757600080fd5b8151602061435761394683613b26565b82815260059290921b8401810191818101908684111561437657600080fd5b8286015b84811015613bc85780516001600160401b038082111561439a5760008081fd5b908801906040828b03601f19018113156143b45760008081fd5b6143bc613801565b8388015181529083015190828211156143d55760008081fd5b6143e38c89848701016142e9565b81890152865250505091830191830161437a565b805160ff81168114613bec57600080fd5b600082601f83011261441957600080fd5b8151602061442961394683613b26565b82815260059290921b8401810191818101908684111561444857600080fd5b8286015b84811015613bc85780516001600160401b038082111561446c5760008081fd5b908801906101a0828b03601f19018113156144875760008081fd5b61448f613823565b87840151815260406144a28186016142de565b89830152606080860151828401526080915081860151818401525060a0808601518284015260c0915081860151818401525060e06144e18187016142de565b82840152610100915081860151858111156144fc5760008081fd5b61450a8f8c838a01016142e9565b82850152505061012080860151858111156145255760008081fd5b6145338f8c838a0101614336565b8385015250610140945084860151818401525050610160808501518483015261018093506145628486016143f7565b908201526145718483016143f7565b928101929092525084525091830191830161444c565b8051613bec816139e8565b600082601f8301126145a357600080fd5b815160206145b361394683613b26565b82815260069290921b840181019181810190868411156145d257600080fd5b8286015b84811015613bc857604081890312156145ef5760008081fd5b6145f7613801565b81518152848201516146088161378c565b818601528352918301916040016145d6565b600082601f83011261462b57600080fd5b8151602061463b61394683613b26565b82815260059290921b8401810191818101908684111561465a57600080fd5b8286015b84811015613bc85780516001600160401b038082111561467e5760008081fd5b90880190610160828b03601f19018113156146995760008081fd5b6146a1613846565b6146ac888501614587565b815260408085015189830152606080860151828401526080915081860151818401525060a0808601518284015260c091506146e88287016142de565b9083015260e085810151858111156147005760008081fd5b61470e8f8c838a01016142e9565b83850152506101009150818601518184015250610120808601518284015261014091508186015181840152508285015192508383111561474e5760008081fd5b61475c8d8a85880101614592565b90820152865250505091830191830161465e565b600060c0828403121561478257600080fd5b61478a613869565b90508151815260208201516020820152604082015160408201526060820151606082015260808201516147bc8161378c565b608082015260a08201516147cf81613bd3565b60a082015292915050565b6000602082840312156147ec57600080fd5b81516001600160401b038082111561480357600080fd5b90830190610160828603121561481857600080fd5b614820613869565b82518281111561482f57600080fd5b61483b87828601614408565b82525060208301518281111561485057600080fd5b61485c8782860161461a565b60208301525061486f8660408501614770565b60408201526101008301516060820152610120830151608082015261489761014084016143f7565b60a082015295945050505050565b600081518084526148bd816020860160208601614296565b601f01601f19169290920160200192915050565b600081518084526020808501808196508360051b8101915082860160005b8581101561492d5782840389528151805185528501516040868601819052614919818701836148a5565b9a87019a95505050908401906001016148ef565b5091979650505050505050565b6008811061495857634e487b7160e01b600052602160045260246000fd5b9052565b600081518084526020808501945080840160005b838110156149a0578151805188528301516001600160a01b03168388015260409096019590820190600101614970565b509495945050505050565b600081518084526020808501808196508360051b8101915082860160005b8581101561492d57828403895281516101606149e686835161493a565b818701518688015260408083015190870152606080830151908701526080808301519087015260a080830151614a1e82890182613afc565b505060c0808301518282890152614a37838901826148a5565b60e085810151908a015261010080860151908a015261012080860151908a015261014094850151898203958a01959095529250614a7891508290508361495c565b9a87019a95505050908401906001016149c9565b60006020808352610180808401855161016080858801528282518085526101a094508489019150848160051b8a0101878501945060005b82811015614ba7578a820361019f1901845285518051835289810151614aeb8b850182613afc565b5060408181015190840152606080820151908401526080808201519084015260a0808201519084015260c080820151614b2682860182613afc565b505060e0808201518982860152614b3f8a8601826148a5565b9150506101008083015185830382870152614b5a83826148d1565b9250505061012080830151818601525061014080830151818601525086820151614b888886018260ff169052565b509089015160ff16928901929092529488019492880192600101614ac3565b50968a0151898803601f190160408b015296614bc381896149ab565b975050505060408801519350614c196060880185805182526020808201519083015260408082015190830152606080820151908301526080808201516001600160a01b03169083015260a0908101511515910152565b6060880151610120880152608088015161014088015260a09097015160ff169690950195909552509392505050565b60006020808385031215614c5b57600080fd5b82516001600160401b03811115614c7157600080fd5b8301601f81018513614c8257600080fd5b8051614c9061394682613b26565b81815260069190911b82018301908381019087831115614caf57600080fd5b928401925b82841015614cfb5760408489031215614ccd5760008081fd5b614cd5613801565b8451614ce08161378c565b81528486015186820152825260409093019290840190614cb4565b979650505050505050565b6001600160a01b039384168152919092166020820152604081019190915260600190565b60006020808385031215614d3d57600080fd5b82516001600160401b03811115614d5357600080fd5b8301601f81018513614d6457600080fd5b8051614d7261394682613b26565b81815260609182028301840191848201919088841115614d9157600080fd5b938501935b83851015614de45780858a031215614dae5760008081fd5b614db661388b565b8551614dc18161378c565b815285870151878201526040808701519082015283529384019391850191614d96565b50979650505050505050565b6001600160a01b0394851681529290931660208301526040820152606081019190915260a06080820181905260009082015260c00190565b60006102008284031215614e3b57600080fd5b614e436138ad565b9050614e4e8261426e565b8152614e5c602083016142de565b6020820152614e6d604083016142de565b6040820152606082015160608201526080820151608082015260a082015160a0820152614e9c60c083016142de565b60c0820152614ead60e083016142de565b60e08201526101008281015190820152610120808301519082015261014080830151908201526101608083015190820152610180808301516001600160401b03811115614ef957600080fd5b614f05858286016142e9565b8284015250506101a0614f198184016143f7565b908201526101c082810151908201526101e09182015191810191909152919050565b8051613bec81613745565b600080600060608486031215614f5b57600080fd5b83516001600160401b0380821115614f7257600080fd5b9085019060c08288031215614f8657600080fd5b614f8e613869565b8251614f9981613bd3565b81526020830151614fa98161378c565b8060208301525060408301516040820152606083015160608201526080830151608082015260a083015182811115614fe057600080fd5b614fec898286016142e9565b60a083015250602087015190955091508082111561500957600080fd5b5061501686828701614e28565b92505061502560408501614f3b565b90509250925092565b60408152600061010084511515604084015260018060a01b03602086015116606084015260408501516080840152606085015160a0840152608085015160c084015260a085015160c060e0850152615088828501826148a5565b8481036020860152855115158152905061020060208601516150ad6020840182613afc565b5060408601516150c06040840182613afc565b50606086015160608301526080860151608083015260a086015160a083015260c08601516150f160c0840182613afc565b5060e086015161510460e0840182613afc565b5085830151928201929092526101208086015190820152610140808601519082015261016080860151908201526101808086015181830184905290929061514d828401826148a5565b935050506101a0808601516151668284018260ff169052565b50506101c085810151908201526101e094850151940193909352509092915050565b600081518084526020808501945080840160005b838110156149a05781518752958201959082019060010161519c565b600081518084526020808501945080840160005b838110156149a05781516001600160a01b0316875295820195908201906001016151cc565b86815285602082015260c06040820152600061521060c0830187615188565b828103606084015261522281876151b8565b6001600160a01b03959095166080840152505060a00152949350505050565b600082601f83011261525257600080fd5b8151602061526261394683613b26565b82815260059290921b8401810191818101908684111561528157600080fd5b8286015b84811015613bc85780518352918301918301615285565b6000602082840312156152ae57600080fd5b81516001600160401b038111156152c457600080fd5b61432e84828501615241565b85815284602082015260a0604082015260006152ef60a08301866151b8565b6001600160a01b0394909416606083015250608001529392505050565b85815260a06020820152600061532560a0830187615188565b828103604084015261533781876151b8565b6001600160a01b039590951660608401525050608001529392505050565b84815260806020820152600061536e60808301866151b8565b6001600160a01b03949094166040830152506060015292915050565b602081526000825160a060208401526153a660c08401826148a5565b905060018060a01b0360208501511660408401526040840151606084015260608401516080840152608084015160a08401528091505092915050565b6020808252602b908201527f496e697469616c697a61626c653a20636f6e7472616374206973206e6f74206960408201526a6e697469616c697a696e6760a81b606082015260800190565b60006020828403121561543f57600080fd5b81516001600160401b038082111561545657600080fd5b908301906040828603121561546a57600080fd5b615472613801565b82518281111561548157600080fd5b61548d878286016142e9565b8252506020830151828111156154a257600080fd5b6154ae87828601615241565b60208301525095945050505050565b60008160001904831182151516156154d7576154d7614155565b500290565b6000826154f957634e487b7160e01b600052601260045260246000fd5b50049056fea26469706673582212208d4fecd8c449af37be49ea0ef0daee70450e849b692017612173dae22e34563d64736f6c63430008090033",
  "devdoc": {
    "kind": "dev",
    "methods": {
      "bulkPurchase((uint8,uint256,address,uint256,bytes)[],address,address,bool)": {
        "params": {
          "allowFail": "- true if fails while executing orders are allowed, false if fail of a single order means fail of the whole batch",
          "feeRecipientFirst": "- address of the first fee recipient",
          "feeRecipientSecond": "- address of the second fee recipient",
          "purchaseDetails": "- array of details about the purchases (more info in PurchaseDetails struct)"
        }
      },
      "bulkPurchaseWithSwap((uint8,uint256,address,uint256,bytes)[],address,address,bool,(bytes,uint256,uint256,bool))": {
        "params": {
          "allowFail": "- true if fails while executing orders are allowed, false if fail of a single order means fail of the whole batch",
          "feeRecipientFirst": "- address of the first fee recipient",
          "feeRecipientSecond": "- address of the second fee recipient",
          "purchaseDetails": "- array of details about the purchases (more info in PurchaseDetails struct)",
          "swapDetails": "- swapDetails v3"
        }
      },
      "bulkPurchaseWithV2Swap((uint8,uint256,address,uint256,bytes)[],address,address,bool,(address[],uint256,uint256,uint256[],bool))": {
        "params": {
          "allowFail": "- true if fails while executing orders are allowed, false if fail of a single order means fail of the whole batch",
          "feeRecipientFirst": "- address of the first fee recipient",
          "feeRecipientSecond": "- address of the second fee recipient",
          "purchaseDetails": "- array of details about the purchases (more info in PurchaseDetails struct)",
          "swapDetails": "- swapDetails v2"
        }
      },
      "onERC721Received(address,address,uint256,bytes)": {
        "details": "See {IERC721Receiver-onERC721Received}. Always returns `IERC721Receiver.onERC721Received.selector`."
      },
      "owner()": {
        "details": "Returns the address of the current owner."
      },
      "paused()": {
        "details": "Returns true if the contract is paused, and false otherwise."
      },
      "renounceOwnership()": {
        "details": "Leaves the contract without owner. It will not be possible to call `onlyOwner` functions anymore. Can only be called by the current owner. NOTE: Renouncing ownership will leave the contract without an owner, thereby removing any functionality that is only available to the owner."
      },
      "singlePurchase((uint8,uint256,address,uint256,bytes),address,address)": {
        "params": {
          "feeRecipientFirst": "- address of the first fee recipient",
          "feeRecipientSecond": "- address of the second fee recipient",
          "purchaseDetails": "- details about the purchase (more info in PurchaseDetails struct)"
        }
      },
      "supportsInterface(bytes4)": {
        "details": "See {IERC165-supportsInterface}."
      },
      "transferOwnership(address)": {
        "details": "Transfers ownership of the contract to a new account (`newOwner`). Can only be called by the current owner."
      }
    },
    "version": 1
  },
  "userdoc": {
    "kind": "user",
    "methods": {
      "bulkPurchase((uint8,uint256,address,uint256,bytes)[],address,address,bool)": {
        "notice": "executes an array of purchases"
      },
      "bulkPurchaseWithSwap((uint8,uint256,address,uint256,bytes)[],address,address,bool,(bytes,uint256,uint256,bool))": {
        "notice": "executes an array of purchases - with swap v3"
      },
      "bulkPurchaseWithV2Swap((uint8,uint256,address,uint256,bytes)[],address,address,bool,(address[],uint256,uint256,uint256[],bool))": {
        "notice": "executes an array of purchases - with swap v2 - tokens for tokens or tokens for eth/weth"
      },
      "pause()": {
        "notice": "Pause the contract"
      },
      "setMarketProxy(uint8,address)": {
        "notice": "Set erc20 proxy for market"
      },
      "setTransferProxy(address)": {
        "notice": "Set erc20 transfer proxy"
      },
      "setUniswapV2(address)": {
        "notice": "Set uniswap v2 router"
      },
      "setUniswapV3(address)": {
        "notice": "Set uniswap v3 router"
      },
      "setWrapped(address)": {
        "notice": "Set wrapped token"
      },
      "singlePurchase((uint8,uint256,address,uint256,bytes),address,address)": {
        "notice": "executes a single purchase"
      },
      "unpause()": {
        "notice": "Unpause the contract"
      }
    },
    "version": 1
  },
  "storageLayout": {
    "storage": [
      {
        "astId": 138,
        "contract": "src/exchange-wrapper/ExchangeWrapper.sol:ExchangeWrapper",
        "label": "_initialized",
        "offset": 0,
        "slot": "0",
        "type": "t_uint8"
      },
      {
        "astId": 141,
        "contract": "src/exchange-wrapper/ExchangeWrapper.sol:ExchangeWrapper",
        "label": "_initializing",
        "offset": 1,
        "slot": "0",
        "type": "t_bool"
      },
      {
        "astId": 1326,
        "contract": "src/exchange-wrapper/ExchangeWrapper.sol:ExchangeWrapper",
        "label": "__gap",
        "offset": 0,
        "slot": "1",
        "type": "t_array(t_uint256)50_storage"
      },
      {
        "astId": 10,
        "contract": "src/exchange-wrapper/ExchangeWrapper.sol:ExchangeWrapper",
        "label": "_owner",
        "offset": 0,
        "slot": "51",
        "type": "t_address"
      },
      {
        "astId": 130,
        "contract": "src/exchange-wrapper/ExchangeWrapper.sol:ExchangeWrapper",
        "label": "__gap",
        "offset": 0,
        "slot": "52",
        "type": "t_array(t_uint256)49_storage"
      },
      {
        "astId": 303,
        "contract": "src/exchange-wrapper/ExchangeWrapper.sol:ExchangeWrapper",
        "label": "_paused",
        "offset": 0,
        "slot": "101",
        "type": "t_bool"
      },
      {
        "astId": 408,
        "contract": "src/exchange-wrapper/ExchangeWrapper.sol:ExchangeWrapper",
        "label": "__gap",
        "offset": 0,
        "slot": "102",
        "type": "t_array(t_uint256)49_storage"
      },
      {
        "astId": 1637,
        "contract": "src/exchange-wrapper/ExchangeWrapper.sol:ExchangeWrapper",
        "label": "exchangeV2",
        "offset": 0,
        "slot": "151",
        "type": "t_address"
      },
      {
        "astId": 1639,
        "contract": "src/exchange-wrapper/ExchangeWrapper.sol:ExchangeWrapper",
        "label": "rarible",
        "offset": 0,
        "slot": "152",
        "type": "t_address"
      },
      {
        "astId": 1641,
        "contract": "src/exchange-wrapper/ExchangeWrapper.sol:ExchangeWrapper",
        "label": "wyvern",
        "offset": 0,
        "slot": "153",
        "type": "t_address"
      },
      {
        "astId": 1643,
        "contract": "src/exchange-wrapper/ExchangeWrapper.sol:ExchangeWrapper",
        "label": "seaport",
        "offset": 0,
        "slot": "154",
        "type": "t_address"
      },
      {
        "astId": 1645,
        "contract": "src/exchange-wrapper/ExchangeWrapper.sol:ExchangeWrapper",
        "label": "x2y2",
        "offset": 0,
        "slot": "155",
        "type": "t_address"
      },
      {
        "astId": 1647,
        "contract": "src/exchange-wrapper/ExchangeWrapper.sol:ExchangeWrapper",
        "label": "looksrare",
        "offset": 0,
        "slot": "156",
        "type": "t_address"
      },
      {
        "astId": 1649,
        "contract": "src/exchange-wrapper/ExchangeWrapper.sol:ExchangeWrapper",
        "label": "sudoswap",
        "offset": 0,
        "slot": "157",
        "type": "t_address"
      },
      {
        "astId": 1651,
        "contract": "src/exchange-wrapper/ExchangeWrapper.sol:ExchangeWrapper",
        "label": "blur",
        "offset": 0,
        "slot": "158",
        "type": "t_address"
      },
      {
        "astId": 1654,
        "contract": "src/exchange-wrapper/ExchangeWrapper.sol:ExchangeWrapper",
        "label": "uniswapRouterV2",
        "offset": 0,
        "slot": "159",
        "type": "t_contract(ISwapRouterV2)4596"
      },
      {
        "astId": 1657,
        "contract": "src/exchange-wrapper/ExchangeWrapper.sol:ExchangeWrapper",
        "label": "uniswapRouterV3",
        "offset": 0,
        "slot": "160",
        "type": "t_contract(ISwapRouterV3)4646"
      },
      {
        "astId": 1659,
        "contract": "src/exchange-wrapper/ExchangeWrapper.sol:ExchangeWrapper",
        "label": "wrappedToken",
        "offset": 0,
        "slot": "161",
        "type": "t_address"
      },
      {
        "astId": 1661,
        "contract": "src/exchange-wrapper/ExchangeWrapper.sol:ExchangeWrapper",
        "label": "erc20TransferProxy",
        "offset": 0,
        "slot": "162",
        "type": "t_address"
      },
      {
        "astId": 1666,
        "contract": "src/exchange-wrapper/ExchangeWrapper.sol:ExchangeWrapper",
        "label": "proxies",
        "offset": 0,
        "slot": "163",
        "type": "t_mapping(t_enum(Markets)1681,t_address)"
      }
    ],
    "types": {
      "t_address": {
        "encoding": "inplace",
        "label": "address",
        "numberOfBytes": "20"
      },
      "t_array(t_uint256)49_storage": {
        "base": "t_uint256",
        "encoding": "inplace",
        "label": "uint256[49]",
        "numberOfBytes": "1568"
      },
      "t_array(t_uint256)50_storage": {
        "base": "t_uint256",
        "encoding": "inplace",
        "label": "uint256[50]",
        "numberOfBytes": "1600"
      },
      "t_bool": {
        "encoding": "inplace",
        "label": "bool",
        "numberOfBytes": "1"
      },
      "t_contract(ISwapRouterV2)4596": {
        "encoding": "inplace",
        "label": "contract ISwapRouterV2",
        "numberOfBytes": "20"
      },
      "t_contract(ISwapRouterV3)4646": {
        "encoding": "inplace",
        "label": "contract ISwapRouterV3",
        "numberOfBytes": "20"
      },
      "t_enum(Markets)1681": {
        "encoding": "inplace",
        "label": "enum ExchangeWrapperCore.Markets",
        "numberOfBytes": "1"
      },
      "t_mapping(t_enum(Markets)1681,t_address)": {
        "encoding": "mapping",
        "key": "t_enum(Markets)1681",
        "label": "mapping(enum ExchangeWrapperCore.Markets => address)",
        "numberOfBytes": "32",
        "value": "t_address"
      },
      "t_uint256": {
        "encoding": "inplace",
        "label": "uint256",
        "numberOfBytes": "32"
      },
      "t_uint8": {
        "encoding": "inplace",
        "label": "uint8",
        "numberOfBytes": "1"
      }
    }
  }
}