{
  "address": "0x5B2e6bEE51bC4Cc389503DD186bA66d98405320F",
  "abi": [
    {
      "anonymous": false,
      "inputs": [
        {
          "indexed": false,
          "internalType": "uint8",
          "name": "version",
          "type": "uint8"
        }
      ],
      "name": "Initialized",
      "type": "event"
    },
    {
      "anonymous": false,
      "inputs": [
        {
          "indexed": true,
          "internalType": "bytes4",
          "name": "assetType",
          "type": "bytes4"
        },
        {
          "indexed": false,
          "internalType": "address",
          "name": "matcher",
          "type": "address"
        }
      ],
      "name": "MatcherChange",
      "type": "event"
    },
    {
      "anonymous": false,
      "inputs": [
        {
          "indexed": true,
          "internalType": "bytes32",
          "name": "hash",
          "type": "bytes32"
        },
        {
          "indexed": true,
          "internalType": "address",
          "name": "maker",
          "type": "address"
        },
        {
          "components": [
            {
              "internalType": "bytes4",
              "name": "assetClass",
              "type": "bytes4"
            },
            {
              "internalType": "bytes",
              "name": "data",
              "type": "bytes"
            }
          ],
          "indexed": false,
          "internalType": "struct LibAsset.AssetType",
          "name": "makeAssetType",
          "type": "tuple"
        },
        {
          "components": [
            {
              "internalType": "bytes4",
              "name": "assetClass",
              "type": "bytes4"
            },
            {
              "internalType": "bytes",
              "name": "data",
              "type": "bytes"
            }
          ],
          "indexed": false,
          "internalType": "struct LibAsset.AssetType",
          "name": "takeAssetType",
          "type": "tuple"
        }
      ],
      "name": "OrderCancelled",
      "type": "event"
    },
    {
      "anonymous": false,
      "inputs": [
        {
          "indexed": true,
          "internalType": "bytes32",
          "name": "leftHash",
          "type": "bytes32"
        },
        {
          "indexed": true,
          "internalType": "bytes32",
          "name": "rightHash",
          "type": "bytes32"
        },
        {
          "indexed": true,
          "internalType": "address",
          "name": "leftMaker",
          "type": "address"
        },
        {
          "indexed": false,
          "internalType": "address",
          "name": "rightMaker",
          "type": "address"
        },
        {
          "indexed": false,
          "internalType": "uint256",
          "name": "newLeftFill",
          "type": "uint256"
        },
        {
          "indexed": false,
          "internalType": "uint256",
          "name": "newRightFill",
          "type": "uint256"
        },
        {
          "components": [
            {
              "internalType": "bytes4",
              "name": "assetClass",
              "type": "bytes4"
            },
            {
              "internalType": "bytes",
              "name": "data",
              "type": "bytes"
            }
          ],
          "indexed": false,
          "internalType": "struct LibAsset.AssetType",
          "name": "leftAsset",
          "type": "tuple"
        },
        {
          "components": [
            {
              "internalType": "bytes4",
              "name": "assetClass",
              "type": "bytes4"
            },
            {
              "internalType": "bytes",
              "name": "data",
              "type": "bytes"
            }
          ],
          "indexed": false,
          "internalType": "struct LibAsset.AssetType",
          "name": "rightAsset",
          "type": "tuple"
        }
      ],
      "name": "OrderFilled",
      "type": "event"
    },
    {
      "anonymous": false,
      "inputs": [
        {
          "indexed": true,
          "internalType": "address",
          "name": "previousOwner",
          "type": "address"
        },
        {
          "indexed": true,
          "internalType": "address",
          "name": "newOwner",
          "type": "address"
        }
      ],
      "name": "OwnershipTransferred",
      "type": "event"
    },
    {
      "anonymous": false,
      "inputs": [
        {
          "indexed": true,
          "internalType": "bytes4",
          "name": "assetType",
          "type": "bytes4"
        },
        {
          "indexed": false,
          "internalType": "address",
          "name": "proxy",
          "type": "address"
        }
      ],
      "name": "ProxyChange",
      "type": "event"
    },
    {
      "inputs": [],
      "name": "EMPTY",
      "outputs": [
        {
          "internalType": "bytes",
          "name": "",
          "type": "bytes"
        }
      ],
      "stateMutability": "view",
      "type": "function"
    },
    {
      "inputs": [
        {
          "internalType": "address",
          "name": "_transferProxy",
          "type": "address"
        },
        {
          "internalType": "address",
          "name": "_erc20TransferProxy",
          "type": "address"
        },
        {
          "internalType": "uint256",
          "name": "newProtocolFee",
          "type": "uint256"
        },
        {
          "internalType": "address",
          "name": "newDefaultFeeReceiver",
          "type": "address"
        },
        {
          "internalType": "contract IRoyaltiesProvider",
          "name": "newRoyaltiesProvider",
          "type": "address"
        }
      ],
      "name": "__ExchangeV2_init",
      "outputs": [],
      "stateMutability": "nonpayable",
      "type": "function"
    },
    {
      "inputs": [
        {
          "components": [
            {
              "internalType": "address",
              "name": "maker",
              "type": "address"
            },
            {
              "components": [
                {
                  "components": [
                    {
                      "internalType": "bytes4",
                      "name": "assetClass",
                      "type": "bytes4"
                    },
                    {
                      "internalType": "bytes",
                      "name": "data",
                      "type": "bytes"
                    }
                  ],
                  "internalType": "struct LibAsset.AssetType",
                  "name": "assetType",
                  "type": "tuple"
                },
                {
                  "internalType": "uint256",
                  "name": "value",
                  "type": "uint256"
                }
              ],
              "internalType": "struct LibAsset.Asset",
              "name": "makeAsset",
              "type": "tuple"
            },
            {
              "internalType": "address",
              "name": "taker",
              "type": "address"
            },
            {
              "components": [
                {
                  "components": [
                    {
                      "internalType": "bytes4",
                      "name": "assetClass",
                      "type": "bytes4"
                    },
                    {
                      "internalType": "bytes",
                      "name": "data",
                      "type": "bytes"
                    }
                  ],
                  "internalType": "struct LibAsset.AssetType",
                  "name": "assetType",
                  "type": "tuple"
                },
                {
                  "internalType": "uint256",
                  "name": "value",
                  "type": "uint256"
                }
              ],
              "internalType": "struct LibAsset.Asset",
              "name": "takeAsset",
              "type": "tuple"
            },
            {
              "internalType": "uint256",
              "name": "salt",
              "type": "uint256"
            },
            {
              "internalType": "uint256",
              "name": "start",
              "type": "uint256"
            },
            {
              "internalType": "uint256",
              "name": "end",
              "type": "uint256"
            },
            {
              "internalType": "bytes4",
              "name": "dataType",
              "type": "bytes4"
            },
            {
              "internalType": "bytes",
              "name": "data",
              "type": "bytes"
            }
          ],
          "internalType": "struct LibOrder.Order[]",
          "name": "orders",
          "type": "tuple[]"
        }
      ],
      "name": "bulkCancelOrders",
      "outputs": [],
      "stateMutability": "nonpayable",
      "type": "function"
    },
    {
      "inputs": [
        {
          "components": [
            {
              "internalType": "address",
              "name": "maker",
              "type": "address"
            },
            {
              "components": [
                {
                  "components": [
                    {
                      "internalType": "bytes4",
                      "name": "assetClass",
                      "type": "bytes4"
                    },
                    {
                      "internalType": "bytes",
                      "name": "data",
                      "type": "bytes"
                    }
                  ],
                  "internalType": "struct LibAsset.AssetType",
                  "name": "assetType",
                  "type": "tuple"
                },
                {
                  "internalType": "uint256",
                  "name": "value",
                  "type": "uint256"
                }
              ],
              "internalType": "struct LibAsset.Asset",
              "name": "makeAsset",
              "type": "tuple"
            },
            {
              "internalType": "address",
              "name": "taker",
              "type": "address"
            },
            {
              "components": [
                {
                  "components": [
                    {
                      "internalType": "bytes4",
                      "name": "assetClass",
                      "type": "bytes4"
                    },
                    {
                      "internalType": "bytes",
                      "name": "data",
                      "type": "bytes"
                    }
                  ],
                  "internalType": "struct LibAsset.AssetType",
                  "name": "assetType",
                  "type": "tuple"
                },
                {
                  "internalType": "uint256",
                  "name": "value",
                  "type": "uint256"
                }
              ],
              "internalType": "struct LibAsset.Asset",
              "name": "takeAsset",
              "type": "tuple"
            },
            {
              "internalType": "uint256",
              "name": "salt",
              "type": "uint256"
            },
            {
              "internalType": "uint256",
              "name": "start",
              "type": "uint256"
            },
            {
              "internalType": "uint256",
              "name": "end",
              "type": "uint256"
            },
            {
              "internalType": "bytes4",
              "name": "dataType",
              "type": "bytes4"
            },
            {
              "internalType": "bytes",
              "name": "data",
              "type": "bytes"
            }
          ],
          "internalType": "struct LibOrder.Order",
          "name": "order",
          "type": "tuple"
        }
      ],
      "name": "cancel",
      "outputs": [],
      "stateMutability": "nonpayable",
      "type": "function"
    },
    {
      "inputs": [
        {
          "components": [
            {
              "internalType": "address",
              "name": "bidMaker",
              "type": "address"
            },
            {
              "internalType": "uint256",
              "name": "bidNftAmount",
              "type": "uint256"
            },
            {
              "internalType": "bytes4",
              "name": "nftAssetClass",
              "type": "bytes4"
            },
            {
              "internalType": "bytes",
              "name": "nftData",
              "type": "bytes"
            },
            {
              "internalType": "uint256",
              "name": "bidPaymentAmount",
              "type": "uint256"
            },
            {
              "internalType": "address",
              "name": "paymentToken",
              "type": "address"
            },
            {
              "internalType": "uint256",
              "name": "bidSalt",
              "type": "uint256"
            },
            {
              "internalType": "uint256",
              "name": "bidStart",
              "type": "uint256"
            },
            {
              "internalType": "uint256",
              "name": "bidEnd",
              "type": "uint256"
            },
            {
              "internalType": "bytes4",
              "name": "bidDataType",
              "type": "bytes4"
            },
            {
              "internalType": "bytes",
              "name": "bidData",
              "type": "bytes"
            },
            {
              "internalType": "bytes",
              "name": "bidSignature",
              "type": "bytes"
            },
            {
              "internalType": "uint256",
              "name": "sellOrderPaymentAmount",
              "type": "uint256"
            },
            {
              "internalType": "uint256",
              "name": "sellOrderNftAmount",
              "type": "uint256"
            },
            {
              "internalType": "bytes",
              "name": "sellOrderData",
              "type": "bytes"
            }
          ],
          "internalType": "struct LibDirectTransfer.AcceptBid",
          "name": "direct",
          "type": "tuple"
        }
      ],
      "name": "directAcceptBid",
      "outputs": [],
      "stateMutability": "payable",
      "type": "function"
    },
    {
      "inputs": [
        {
          "components": [
            {
              "internalType": "address",
              "name": "sellOrderMaker",
              "type": "address"
            },
            {
              "internalType": "uint256",
              "name": "sellOrderNftAmount",
              "type": "uint256"
            },
            {
              "internalType": "bytes4",
              "name": "nftAssetClass",
              "type": "bytes4"
            },
            {
              "internalType": "bytes",
              "name": "nftData",
              "type": "bytes"
            },
            {
              "internalType": "uint256",
              "name": "sellOrderPaymentAmount",
              "type": "uint256"
            },
            {
              "internalType": "address",
              "name": "paymentToken",
              "type": "address"
            },
            {
              "internalType": "uint256",
              "name": "sellOrderSalt",
              "type": "uint256"
            },
            {
              "internalType": "uint256",
              "name": "sellOrderStart",
              "type": "uint256"
            },
            {
              "internalType": "uint256",
              "name": "sellOrderEnd",
              "type": "uint256"
            },
            {
              "internalType": "bytes4",
              "name": "sellOrderDataType",
              "type": "bytes4"
            },
            {
              "internalType": "bytes",
              "name": "sellOrderData",
              "type": "bytes"
            },
            {
              "internalType": "bytes",
              "name": "sellOrderSignature",
              "type": "bytes"
            },
            {
              "internalType": "uint256",
              "name": "buyOrderPaymentAmount",
              "type": "uint256"
            },
            {
              "internalType": "uint256",
              "name": "buyOrderNftAmount",
              "type": "uint256"
            },
            {
              "internalType": "bytes",
              "name": "buyOrderData",
              "type": "bytes"
            }
          ],
          "internalType": "struct LibDirectTransfer.Purchase",
          "name": "direct",
          "type": "tuple"
        }
      ],
      "name": "directPurchase",
      "outputs": [],
      "stateMutability": "payable",
      "type": "function"
    },
    {
      "inputs": [
        {
          "internalType": "bytes32",
          "name": "",
          "type": "bytes32"
        }
      ],
      "name": "fills",
      "outputs": [
        {
          "internalType": "uint256",
          "name": "",
          "type": "uint256"
        }
      ],
      "stateMutability": "view",
      "type": "function"
    },
    {
      "inputs": [
        {
          "components": [
            {
              "internalType": "address",
              "name": "maker",
              "type": "address"
            },
            {
              "components": [
                {
                  "components": [
                    {
                      "internalType": "bytes4",
                      "name": "assetClass",
                      "type": "bytes4"
                    },
                    {
                      "internalType": "bytes",
                      "name": "data",
                      "type": "bytes"
                    }
                  ],
                  "internalType": "struct LibAsset.AssetType",
                  "name": "assetType",
                  "type": "tuple"
                },
                {
                  "internalType": "uint256",
                  "name": "value",
                  "type": "uint256"
                }
              ],
              "internalType": "struct LibAsset.Asset",
              "name": "makeAsset",
              "type": "tuple"
            },
            {
              "internalType": "address",
              "name": "taker",
              "type": "address"
            },
            {
              "components": [
                {
                  "components": [
                    {
                      "internalType": "bytes4",
                      "name": "assetClass",
                      "type": "bytes4"
                    },
                    {
                      "internalType": "bytes",
                      "name": "data",
                      "type": "bytes"
                    }
                  ],
                  "internalType": "struct LibAsset.AssetType",
                  "name": "assetType",
                  "type": "tuple"
                },
                {
                  "internalType": "uint256",
                  "name": "value",
                  "type": "uint256"
                }
              ],
              "internalType": "struct LibAsset.Asset",
              "name": "takeAsset",
              "type": "tuple"
            },
            {
              "internalType": "uint256",
              "name": "salt",
              "type": "uint256"
            },
            {
              "internalType": "uint256",
              "name": "start",
              "type": "uint256"
            },
            {
              "internalType": "uint256",
              "name": "end",
              "type": "uint256"
            },
            {
              "internalType": "bytes4",
              "name": "dataType",
              "type": "bytes4"
            },
            {
              "internalType": "bytes",
              "name": "data",
              "type": "bytes"
            }
          ],
          "internalType": "struct LibOrder.Order",
          "name": "orderLeft",
          "type": "tuple"
        },
        {
          "internalType": "bytes",
          "name": "signatureLeft",
          "type": "bytes"
        },
        {
          "components": [
            {
              "internalType": "address",
              "name": "maker",
              "type": "address"
            },
            {
              "components": [
                {
                  "components": [
                    {
                      "internalType": "bytes4",
                      "name": "assetClass",
                      "type": "bytes4"
                    },
                    {
                      "internalType": "bytes",
                      "name": "data",
                      "type": "bytes"
                    }
                  ],
                  "internalType": "struct LibAsset.AssetType",
                  "name": "assetType",
                  "type": "tuple"
                },
                {
                  "internalType": "uint256",
                  "name": "value",
                  "type": "uint256"
                }
              ],
              "internalType": "struct LibAsset.Asset",
              "name": "makeAsset",
              "type": "tuple"
            },
            {
              "internalType": "address",
              "name": "taker",
              "type": "address"
            },
            {
              "components": [
                {
                  "components": [
                    {
                      "internalType": "bytes4",
                      "name": "assetClass",
                      "type": "bytes4"
                    },
                    {
                      "internalType": "bytes",
                      "name": "data",
                      "type": "bytes"
                    }
                  ],
                  "internalType": "struct LibAsset.AssetType",
                  "name": "assetType",
                  "type": "tuple"
                },
                {
                  "internalType": "uint256",
                  "name": "value",
                  "type": "uint256"
                }
              ],
              "internalType": "struct LibAsset.Asset",
              "name": "takeAsset",
              "type": "tuple"
            },
            {
              "internalType": "uint256",
              "name": "salt",
              "type": "uint256"
            },
            {
              "internalType": "uint256",
              "name": "start",
              "type": "uint256"
            },
            {
              "internalType": "uint256",
              "name": "end",
              "type": "uint256"
            },
            {
              "internalType": "bytes4",
              "name": "dataType",
              "type": "bytes4"
            },
            {
              "internalType": "bytes",
              "name": "data",
              "type": "bytes"
            }
          ],
          "internalType": "struct LibOrder.Order",
          "name": "orderRight",
          "type": "tuple"
        },
        {
          "internalType": "bytes",
          "name": "signatureRight",
          "type": "bytes"
        }
      ],
      "name": "matchOrders",
      "outputs": [],
      "stateMutability": "payable",
      "type": "function"
    },
    {
      "inputs": [],
      "name": "owner",
      "outputs": [
        {
          "internalType": "address",
          "name": "",
          "type": "address"
        }
      ],
      "stateMutability": "view",
      "type": "function"
    },
    {
      "inputs": [],
      "name": "renounceOwnership",
      "outputs": [],
      "stateMutability": "nonpayable",
      "type": "function"
    },
    {
      "inputs": [],
      "name": "royaltiesRegistry",
      "outputs": [
        {
          "internalType": "contract IRoyaltiesProvider",
          "name": "",
          "type": "address"
        }
      ],
      "stateMutability": "view",
      "type": "function"
    },
    {
      "inputs": [
        {
          "internalType": "bytes4",
          "name": "assetType",
          "type": "bytes4"
        },
        {
          "internalType": "address",
          "name": "matcher",
          "type": "address"
        }
      ],
      "name": "setAssetMatcher",
      "outputs": [],
      "stateMutability": "nonpayable",
      "type": "function"
    },
    {
      "inputs": [
        {
          "internalType": "contract IRoyaltiesProvider",
          "name": "newRoyaltiesRegistry",
          "type": "address"
        }
      ],
      "name": "setRoyaltiesRegistry",
      "outputs": [],
      "stateMutability": "nonpayable",
      "type": "function"
    },
    {
      "inputs": [
        {
          "internalType": "bytes4",
          "name": "assetType",
          "type": "bytes4"
        },
        {
          "internalType": "address",
          "name": "proxy",
          "type": "address"
        }
      ],
      "name": "setTransferProxy",
      "outputs": [],
      "stateMutability": "nonpayable",
      "type": "function"
    },
    {
      "inputs": [
        {
          "internalType": "address",
          "name": "newOwner",
          "type": "address"
        }
      ],
      "name": "transferOwnership",
      "outputs": [],
      "stateMutability": "nonpayable",
      "type": "function"
    }
  ],
  "transactionHash": "0x89333a1f9d59758a68d7df8c6d4a208b40ba8083a2c8fdccf4e631cdf1cabc04",
  "args": [],
  "solcInputHash": "dd845b0e36e586591191b0b82a64fcdb",
  "bytecode": "0x608060405234801561001057600080fd5b506153b9806100206000396000f3fe6080604052600436106100c85760003560e01c80636d8f06941161007a5780636d8f0694146101ca578063715018a6146101f85780638da5cb5b1461020d578063b39deb461461022b578063da50b65b1461024b578063e2864fe31461026b578063e99a3f801461028b578063f2fde38b1461029e57600080fd5b806302399125146100cd5780630d5f7d35146101065780631372a6251461011b57806320158c441461013b57806330c642f1146101775780633be899221461019757806367d49a3b146101b7575b600080fd5b3480156100d957600080fd5b506100f06040518060200160405280600081525081565b6040516100fd9190614295565b60405180910390f35b6101196101143660046142c1565b6102be565b005b34801561012757600080fd5b50610119610136366004614315565b6105e3565b34801561014757600080fd5b5061016961015636600461437d565b6101306020526000908152604090205481565b6040519081526020016100fd565b34801561018357600080fd5b506101196101923660046143b7565b61076a565b3480156101a357600080fd5b506101196101b23660046143f0565b6107e0565b6101196101c53660046142c1565b61080b565b3480156101d657600080fd5b50610163546101eb906001600160a01b031681565b6040516100fd919061440d565b34801561020457600080fd5b50610119610aee565b34801561021957600080fd5b506033546001600160a01b03166101eb565b34801561023757600080fd5b506101196102463660046143b7565b610b02565b34801561025757600080fd5b50610119610266366004614713565b610b6c565b34801561027757600080fd5b506101196102863660046147c3565b610d01565b6101196102993660046147f7565b610dd1565b3480156102aa57600080fd5b506101196102b93660046143f0565b610de7565b60006102d86102d360c0840160a085016143f0565b610e60565b604080516101208101909152909150600090806102f860208601866143f0565b6001600160a01b031681526020016040518060400160405280604051806040016040528088604001602081019061032f91906148a3565b6001600160e01b031916815260200161034b60608a018a6148c0565b8080601f0160208091040260200160405190810160405280939291908181526020018383808284376000920182905250939094525050918352506020888101359281019290925291835282810191909152604080518082018252868152608080890135938201939093529083015260c080870135606084015260e08701359183019190915261010086013560a0830152016103ee610140860161012087016148a3565b6001600160e01b031916815260200161040b6101408601866148c0565b8080601f01602080910402602001604051908101604052809392919081815260200183838082843760009201829052509390945250506040805161012081018252828152815180830183528781526101808901356020828101919091528201528082018390528151608081018352949550919391925060608084019291829182820191829161049f91908c01908c016148a3565b6001600160e01b03191681526020016104bb60608b018b6148c0565b8080601f0160208091040260200160405190810160405280939291908181526020018383808284376000920182905250939094525050918352506101a0890135602092830152918352820181905260408201819052606082015260800161053261052d610140880161012089016148a3565b610ede565b6001600160e01b031916815260200161054f6101c08701876148c0565b8080601f016020809104026020016040519081016040528093929190818152602001838380828437600092019190915250505091525090506105d3826105996101608701876148c0565b8080601f016020809104026020016040519081016040528093929190818152602001838380828437600092019190915250610f6492505050565b6105dd8282610f7b565b50505050565b600054610100900460ff16158080156106035750600054600160ff909116105b8061061d5750303b15801561061d575060005460ff166001145b6106425760405162461bcd60e51b815260040161063990614906565b60405180910390fd5b6000805460ff191660011790558015610665576000805461ff0019166101001790555b61066d611293565b6106756112ba565b60976020527f4532fa16f071d6234e30e1a1e69b9806f04095edf37a1ca7a25c8d6af7861cc080546001600160a01b038781166001600160a01b0319928316179092557f30a684095c937b5aa064dcf94f9903a7d808e3efb22d8389dbd43080ad4ed3d580549289169282168317905563025ceed960e61b6000527f4b5822151ea34b7c8d9e37c3e466bcecb631efe6a9f26a4a4054110a93dd316f805490911690911790556107268484846112ea565b61072e6113d4565b8015610762576000805461ff0019169055604051600181526000805160206153648339815191529060200160405180910390a15b505050505050565b6107726114c9565b6001600160e01b031982166000818152609760205260409081902080546001600160a01b0319166001600160a01b038516179055517f4b5aced933c0c9a88aeac3f0b3b72c5aaf75df8ebaf53225773248c4c3153593906107d490849061440d565b60405180910390a25050565b6107e86114c9565b61016380546001600160a01b0319166001600160a01b0392909216919091179055565b60006108206102d360c0840160a085016143f0565b6040805161012081019091529091506000908061084060208601866143f0565b6001600160a01b0316815260200160405180604001604052808581526020018660800135815250815260200160006001600160a01b03168152602001604051806040016040528060405180604001604052808860400160208101906108a591906148a3565b6001600160e01b03191681526020016108c160608a018a6148c0565b8080601f016020809104026020016040519081016040528093929190818152602001838380828437600092019190915250505091525081526020878101359181019190915290825260c08601359082015260e08501356040820152610100850135606082015260800161093c610140860161012087016148a3565b6001600160e01b03191681526020016109596101408601866148c0565b8080601f016020809104026020016040519081016040528093929190818152602001838380828437600092018290525093909452505060408051610120810182528281528151608081018352949550919391925060208301919081908181019081906109cb9060608c01908c016148a3565b6001600160e01b03191681526020016109e760608b018b6148c0565b8080601f0160208091040260200160405190810160405280939291908181526020018383808284376000920182905250939094525050918352506101a08901356020928301529183528281018290526040805180820182528881526101808a013592810192909252830152606082018190526080820181905260a082015260c001610a7d61052d610140880161012089016148a3565b6001600160e01b0319168152602001610a9a6101c08701876148c0565b8080601f01602080910402602001604051908101604052809392919081815260200183838082843760009201919091525050509152509050610ae4826105996101608701876148c0565b6105dd8183610f7b565b610af66114c9565b610b006000611523565b565b610b0a6114c9565b6001600160e01b031982166000818152606560205260409081902080546001600160a01b0319166001600160a01b038516179055517fd2bf91075f105d0fd80328da28e20ebdad1c1261839711183bc29a44cbe6c72f906107d490849061440d565b805160005b81811015610cfc57828181518110610b8b57610b8b614954565b6020026020010151600001516001600160a01b0316610ba73390565b6001600160a01b031614610bcd5760405162461bcd60e51b81526004016106399061496a565b828181518110610bdf57610bdf614954565b60200260200101516080015160001415610c0b5760405162461bcd60e51b81526004016106399061498f565b6000610c2f848381518110610c2257610c22614954565b6020026020010151611575565b60008181526101306020526040902060001990558451909150849083908110610c5a57610c5a614954565b6020026020010151600001516001600160a01b0316817f3efcb3b1a04ad7dd3e6b6ca2d108352be1f3a9d4f0a30d2877483f9d33e37bb6868581518110610ca357610ca3614954565b60200260200101516020015160000151878681518110610cc557610cc5614954565b60200260200101516060015160000151604051610ce39291906149e5565b60405180910390a350610cf581614a20565b9050610b71565b505050565b80516001600160a01b0316336001600160a01b031614610d335760405162461bcd60e51b81526004016106399061496a565b6080810151610d545760405162461bcd60e51b81526004016106399061498f565b6000610d5f82611575565b6000818152610130602090815260409182902060001990558451908501515160608601515192519394506001600160a01b039091169284927f3efcb3b1a04ad7dd3e6b6ca2d108352be1f3a9d4f0a30d2877483f9d33e37bb692610dc5929091906149e5565b60405180910390a35050565b610ddd8484848461165e565b6105dd8483610f7b565b610def6114c9565b6001600160a01b038116610e545760405162461bcd60e51b815260206004820152602660248201527f4f776e61626c653a206e6577206f776e657220697320746865207a65726f206160448201526564647265737360d01b6064820152608401610639565b610e5d81611523565b50565b6040805180820190915260008152606060208201526040805180820190915260008152606060208201526001600160a01b038316610ea7576355575f5d60e11b8152610ed8565b6322ba176160e21b8152604051610ec290849060200161440d565b60408051601f1981840301815291905260208201525b92915050565b60006001600160e01b03198216632fa3cfd360e01b1415610f2057507f1b18cdf6be079a715471a3705c2d89e1d730066ce14915cb307cc3e4a90c92d4919050565b6001600160e01b03198216630d8c66fb60e11b1415610f6057507f2fa3cfd36fc2a11048e46a7dac1916c392731880ba073f2b7f10566b2fd6133e919050565b5090565b610f6d826117a2565b610f778282611862565b5050565b600080610f888484611acb565b915091506000806000610f9b8787611b7e565b9250925092506000806111006040518060a0016040528060405180604001604052808b8152602001876000015181525081526020018760000151815260200187602001518152602001609760008b600001516001600160e01b0319166001600160e01b031916815260200190815260200160002060009054906101000a90046001600160a01b03166001600160a01b031681526020018b600001516001600160a01b03168152506040518060a0016040528060405180604001604052808b8152602001886020015181525081526020018760000151815260200187602001518152602001609760008b600001516001600160e01b0319166001600160e01b031916815260200190815260200160002060009054906101000a90046001600160a01b03166001600160a01b031681526020018b600001516001600160a01b03168152506110fb8a600001518a600001518e60e001518e60e001518c8c611c2f565b611c97565b885191935091506001600160e01b0319166355575f5d60e11b14156111c25785516001600160e01b0319166355575f5d60e11b14156111815760405162461bcd60e51b815260206004820152601a60248201527f77726f6e672074616b654d617463682e6173736574436c6173730000000000006044820152606401610639565b813410156111a15760405162461bcd60e51b815260040161063990614a3b565b813411156111bd576111bd6111b68334614a63565b3390611da8565b611211565b85516001600160e01b0319166355575f5d60e11b141561121157803410156111fc5760405162461bcd60e51b815260040161063990614a3b565b80341115611211576112116111b68234614a63565b600061121c8a611575565b905060006112298a611575565b90508a600001516001600160a01b031681837f41576b5d1d097a431bbadeabe9e68420fdc7ad0f694b928ea71d8763a436d4f98d6000015189602001518a600001518f8f60405161127e959493929190614a7a565b60405180910390a45050505050505050505050565b600054610100900460ff16610b005760405162461bcd60e51b815260040161063990614ac5565b600054610100900460ff166112e15760405162461bcd60e51b815260040161063990614ac5565b610b0033611523565b600054610100900460ff161580801561130a5750600054600160ff909116105b806113245750303b158015611324575060005460ff166001145b6113405760405162461bcd60e51b815260040161063990614906565b6000805460ff191660011790558015611363576000805461ff0019166101001790555b61016284905561016480546001600160a01b038086166001600160a01b03199283161790925561016380549285169290911691909117905580156105dd576000805461ff0019169055604051600181526000805160206153648339815191529060200160405180910390a150505050565b600054610100900460ff16158080156113f45750600054600160ff909116105b8061140e5750303b15801561140e575060005460ff166001145b61142a5760405162461bcd60e51b815260040161063990614906565b6000805460ff19166001179055801561144d576000805461ff0019166101001790555b6114936040518060400160405280600b81526020016a11da1bdcdd13585c9ad95d60aa1b815250604051806040016040528060018152602001601960f91b815250611e5c565b8015610e5d576000805461ff0019169055604051600181526000805160206153648339815191529060200160405180910390a150565b6033546001600160a01b03163314610b005760405162461bcd60e51b815260206004820181905260248201527f4f776e61626c653a2063616c6c6572206973206e6f7420746865206f776e65726044820152606401610639565b603380546001600160a01b038381166001600160a01b0319831681179093556040519116919082907f8be0079c531659141344cd1fd0a4f28419497f9722a3daafe3b4186f6b6457e090600090a35050565b60e08101516000906001600160e01b031916632611a13360e11b14806115a9575060e08201516001600160e01b0319908116145b1561161a5781516020830151516115bf90611e9d565b6060840151516115ce90611e9d565b608080860151604080516001600160a01b039096166020870152850193909352606084019190915282015260a0015b604051602081830303815290604052805190602001209050919050565b815160208301515161162b90611e9d565b60608401515161163a90611e9d565b84608001518561010001516040516020016115fd959493929190614b10565b919050565b6116688484610f64565b6116728282610f64565b60408401516001600160a01b03161561170a5781516001600160a01b03161561170a5783604001516001600160a01b031682600001516001600160a01b03161461170a5760405162461bcd60e51b815260206004820152602360248201527f6c6566744f726465722e74616b657220766572696669636174696f6e206661696044820152621b195960ea1b6064820152608401610639565b60408201516001600160a01b0316156105dd5783516001600160a01b0316156105dd5783600001516001600160a01b031682604001516001600160a01b0316146105dd5760405162461bcd60e51b8152602060048201526024808201527f72696768744f726465722e74616b657220766572696669636174696f6e2066616044820152631a5b195960e21b6064820152608401610639565b60a081015115806117b65750428160a00151105b6118025760405162461bcd60e51b815260206004820152601d60248201527f4f726465722073746172742076616c69646174696f6e206661696c65640000006044820152606401610639565b60c081015115806118165750428160c00151115b610e5d5760405162461bcd60e51b815260206004820152601b60248201527f4f7264657220656e642076616c69646174696f6e206661696c656400000000006044820152606401610639565b60808201516118d65781516001600160a01b031615610f775781516001600160a01b0316336001600160a01b031614610f775760405162461bcd60e51b815260206004820152601660248201527536b0b5b2b91034b9903737ba103a3c1039b2b73232b960511b6044820152606401610639565b81516001600160a01b0316336001600160a01b031614610f775760006118fb83611efa565b83519091506001600160a01b03163b15611a0a578251630b135d3f60e11b906001600160a01b0316631626ba7e61193184611fd2565b856040518363ffffffff1660e01b815260040161194f929190614b43565b60206040518083038186803b15801561196757600080fd5b505afa15801561197b573d6000803e3d6000fd5b505050506040513d601f19601f8201168201806040525081019061199f9190614b5c565b6001600160e01b03191614610cfc5760405162461bcd60e51b815260206004820152602b60248201527f636f6e7472616374206f72646572207369676e6174757265207665726966696360448201526a30ba34b7b71032b93937b960a91b6064820152608401610639565b82516001600160a01b0316611a2883611a2284611fd2565b90612020565b6001600160a01b031614611a895760405162461bcd60e51b815260206004820152602260248201527f6f72646572207369676e617475726520766572696669636174696f6e2065727260448201526137b960f11b6064820152608401610639565b82516001600160a01b0316610cfc5760405162461bcd60e51b815260206004820152600860248201526737379036b0b5b2b960c11b6044820152606401610639565b604080518082019091526000815260606020820152604080518082019091526000815260606020820152602084015151606084015151611b0b919061209b565b80519092506001600160e01b031916611b365760405162461bcd60e51b815260040161063990614b79565b606084015151602084015151611b4c919061209b565b80519091506001600160e01b031916611b775760405162461bcd60e51b815260040161063990614b79565b9250929050565b611b86614213565b611b8e614213565b60408051808201909152600080825260208201526000611bad86611575565b90506000611bba86611575565b875190915033906001600160a01b0316611bdb576001600160a01b03811688525b86516001600160a01b0316611bf7576001600160a01b03811687525b611c00886120e8565b9550611c0b876120e8565b9450611c23888885858a604001518a604001516122f2565b93505050509250925092565b6040805180820190915260008082526020820152611c4d878761243d565b81602001906002811115611c6357611c63614ba5565b90816002811115611c7657611c76614ba5565b81525050611c8b85858585856020015161250e565b81529695505050505050565b8251602090810151835190910151600183602001516002811115611cbd57611cbd614ba5565b1415611d0257611cd285858560000151612731565b9150611cfd846000015160000151856000015160200151866080015188602001518860600151612a67565b611da0565b600283602001516002811115611d1a57611d1a614ba5565b1415611d5a57611d2f84868560000151612731565b9050611cfd856000015160000151866000015160200151876080015187602001518960600151612a67565b845180516020918201516080880151928701516060890151611d7d949190612a67565b835180516020918201516080870151928801516060880151611da0949190612a67565b935093915050565b6000826001600160a01b03168260405160006040518083038185875af1925050503d8060008114611df5576040519150601f19603f3d011682016040523d82523d6000602084013e611dfa565b606091505b5050905080610cfc5760405162461bcd60e51b815260206004820152602860248201527f4c69625472616e73666572204261736543757272656e6379207472616e7366656044820152671c8819985a5b195960c21b6064820152608401610639565b600054610100900460ff16611e835760405162461bcd60e51b815260040161063990614ac5565b81516020928301208151919092012060c99190915560ca55565b80516020808301518051908201206040516000936115fd937f452a0dc408cb0d27ffc3b3caff933a5208040a53a9dbecd8d89cad2c0d40e00c939192019283526001600160e01b0319919091166020830152604082015260600190565b60007f477ed43b8020849b755512278536c3766a3b4ab547519949a75f483372493f8d8260000151611f2f8460200151612c7b565b8460400151611f418660600151612c7b565b608087015160a088015160c089015160e08a01516101008b015180516020918201206040516115fd9b9a999897969594939201998a526001600160a01b0398891660208b015260408a0197909752949096166060880152608087019290925260a086015260c085015260e08401929092526001600160e01b0319919091166101008301526101208201526101400190565b6000610ed8611fdf612cd1565b8360405161190160f01b6020820152602281018390526042810182905260009060620160405160208183030381529060405280519060200120905092915050565b600081516041146120735760405162461bcd60e51b815260206004820152601f60248201527f45434453413a20696e76616c6964207369676e6174757265206c656e677468006044820152606401610639565b60208201516040830151606084015160001a61209186828585612d51565b9695505050505050565b60408051808201909152600081526060602082015260006120bc8484612f6f565b80519091506001600160e01b0319166120e1576120d98385612f6f565b915050610ed8565b9050610ed8565b6120f0614213565b60e08201516001600160e01b031916632611a13360e11b141561213c5760008261010001518060200190518101906121289190614c64565b8051835260209081015190830152506122d9565b60e08201516001600160e01b0319166323d235ef60e01b14156121945760008261010001518060200190518101906121749190614d04565b8051835260208082015190840152604090810151151590830152506122d9565b60e08201516001600160e01b031916632fa3cfd360e01b141561220c5760008261010001518060200190518101906121cc9190614dbb565b90506121db81600001516131c2565b8252602081015160408201516121f19190613236565b602083015260016040830152606090810151908201526122d9565b60e08201516001600160e01b031916630d8c66fb60e11b141561227b5760008261010001518060200190518101906122449190614e2a565b905061225381600001516131c2565b8252602081015160408201516122699190613236565b602083015250600060408201526122d9565b60e08201516001600160e01b03199081161415612297576122d9565b60405162461bcd60e51b8152602060048201526017602482015276556e6b6e6f776e204f726465722064617461207479706560481b6044820152606401610639565b8051516116595781516122eb906133d5565b8152919050565b60408051808201909152600080825260208201526000612316886080015187613487565b90506000612328886080015187613487565b9050600061233a8a8a85858a8a6134ac565b9050600081602001511180156123505750805115155b61238e5760405162461bcd60e51b815260206004820152600f60248201526e1b9bdd1a1a5b99c81d1bc8199a5b1b608a1b6044820152606401610639565b60808a0151156123df5785156123bf5780516123aa9084614e8f565b600089815261013060205260409020556123df565b60208101516123ce9084614e8f565b600089815261013060205260409020555b6080890151156124305784156124135760208101516123fe9083614e8f565b60008881526101306020526040902055612430565b805161241f9083614e8f565b600088815261013060205260409020555b9998505050505050505050565b60006001600160e01b031983166355575f5d60e11b141561246057506001610ed8565b6001600160e01b031982166355575f5d60e11b141561248157506002610ed8565b6001600160e01b031983166322ba176160e21b14156124a257506001610ed8565b6001600160e01b031982166322ba176160e21b14156124c357506002610ed8565b6001600160e01b0319831663025ceed960e61b14156124e457506001610ed8565b6001600160e01b0319821663025ceed960e61b141561250557506002610ed8565b50600092915050565b60006001600160e01b03198616632fa3cfd360e01b1480159061254257506001600160e01b03198516632fa3cfd360e01b14155b801561255f57506001600160e01b03198616630d8c66fb60e11b14155b801561257c57506001600160e01b03198516630d8c66fb60e11b14155b1561258957506000612728565b600061259d8560200151856020015161353e565b9050600060018460028111156125b5576125b5614ba5565b1415612633575060608401516001600160e01b03198816630d8c66fb60e11b1480156125f157506001600160e01b03198716632fa3cfd360e01b145b61262e5760405162461bcd60e51b815260206004820152600e60248201526d77726f6e6720563320747970653160901b6044820152606401610639565b6126cb565b600284600281111561264757612647614ba5565b14156126c0575060608501516001600160e01b03198716630d8c66fb60e11b14801561268357506001600160e01b03198816632fa3cfd360e01b145b61262e5760405162461bcd60e51b815260206004820152600e60248201526d3bb937b733902b19903a3cb8329960911b6044820152606401610639565b600092505050612728565b6000811180156126db5750818110155b80156126e957506103e88111155b6127245760405162461bcd60e51b815260206004820152600c60248201526b77726f6e67206d617846656560a01b6044820152606401610639565b9150505b95945050505050565b600061274a8460000151602001518560400151846135e5565b84518051855151602080880151930151608089015160608a0151959650869561277795928792909161365a565b9050846040015151600114801561279357508360400151516001145b80156127f4575084604001516000815181106127b1576127b1614954565b6020026020010151600001516001600160a01b031684604001516000815181106127dd576127dd614954565b6020026020010151600001516001600160a01b0316145b156129e557612710846040015160008151811061281357612813614954565b6020026020010151602001516001600160601b03161080156128615750612710856040015160008151811061284a5761284a614954565b6020026020010151602001516001600160601b0316105b6128a15760405162461bcd60e51b815260206004820152601160248201527077726f6e67206f726967696e206665657360781b6044820152606401610639565b604080516001808252818301909252600091816020015b60408051808201909152600080825260208201528152602001906001900390816128b857905050905084604001516000815181106128f8576128f8614954565b6020026020010151600001518160008151811061291757612917614954565b60209081029190910101516001600160a01b0390911690526040860151805160009061294557612945614954565b602002602001015160200151856040015160008151811061296857612968614954565b60200260200101516020015161297e9190614ea7565b8160008151811061299157612991614954565b6020026020010151602001906001600160601b031690816001600160601b0316815250506129db86600001516000015183886000015160200151848a608001518b60600151613771565b509150612a3e9050565b612a0f85600001516000015182876000015160200151886040015189608001518a60600151613771565b50855180516020909101516040870151608089015160608a0151949550612a3a948693929190613771565b5090505b612a5f85600001516000015182876080015187602001518960600151612a67565b509392505050565b6000825111612ac45760405162461bcd60e51b8152602060048201526024808201527f7472616e736665725061796f7574733a206e6f7468696e6720746f207472616e60448201526339b332b960e11b6064820152608401610639565b600084815b60018551612ad79190614a63565b811015612baf576000612b19868381518110612af557612af5614954565b6020026020010151602001516001600160601b03168961383990919063ffffffff16565b9050858281518110612b2d57612b2d614954565b6020026020010151602001516001600160601b031684612b4d9190614e8f565b93508015612b9e57612b5f8184614a63565b9250612b9e60405180604001604052808b81526020018381525088888581518110612b8c57612b8c614954565b60200260200101516000015188613852565b50612ba881614a20565b9050612ac9565b5060008460018651612bc19190614a63565b81518110612bd157612bd1614954565b6020026020010151905080602001516001600160601b031683612bf49190614e8f565b92508261271014612c475760405162461bcd60e51b815260206004820152601e60248201527f53756d207061796f75747320427073206e6f7420657175616c203130302500006044820152606401610639565b8115612c7157612c7160405180604001604052808a81526020018481525087836000015187613852565b5050505050505050565b60007fdb6f72e915676cfc289da13bc4ece054fd17b1df6d77ffc4a60510718c236b08612cab8360000151611e9d565b6020808501516040516115fd949392019283526020830191909152604082015260600190565b6000612d4c7f8b73c3c69bb8fe3d512ecc4cf759cc79239f7b179b0ffacaa9a75d522b39400f612d0060c95490565b60ca546040805160208101859052908101839052606081018290524660808201523060a082015260009060c0016040516020818303038152906040528051906020012090509392505050565b905090565b60006fa2a8918ca85bafe22016d0b997e4df60600160ff1b03821115612dc45760405162461bcd60e51b815260206004820152602260248201527f45434453413a20696e76616c6964207369676e6174757265202773272076616c604482015261756560f01b6064820152608401610639565b6000601e8560ff161115612e8d57612ddd600486614ed2565b60ff16601b1480612dfb5750612df4600486614ed2565b60ff16601c145b612e175760405162461bcd60e51b815260040161063990614ef5565b6001612e2287613cff565b612e2d600488614ed2565b6040805160008152602081018083529390935260ff90911690820152606081018690526080810185905260a0016020604051602081039080840390855afa158015612e7c573d6000803e3d6000fd5b505050602060405103519050612f1e565b8460ff16601b1480612ea257508460ff16601c145b612ebe5760405162461bcd60e51b815260040161063990614ef5565b60408051600081526020810180835288905260ff871691810191909152606081018590526080810184905260019060a0016020604051602081039080840390855afa158015612f11573d6000803e3d6000fd5b5050506020604051035190505b6001600160a01b0381166127285760405162461bcd60e51b815260206004820152601860248201527745434453413a20696e76616c6964207369676e617475726560401b6044820152606401610639565b604080518082019091526000815260606020820152825182516001600160e01b031982166355575f5d60e11b1415612fef576001600160e01b031981166355575f5d60e11b1415612fc4578492505050610ed8565b5050604080518082018252600080825282516020818101909452908152918101919091529050610ed8565b6001600160e01b031982166322ba176160e21b1415613034576001600160e01b031981166322ba176160e21b1415612fc45761302b8585613d3a565b92505050610ed8565b6001600160e01b031982166339d690a360e11b1415613070576001600160e01b031981166339d690a360e11b1415612fc45761302b8585613d3a565b6001600160e01b0319821663025ceed960e61b14156130ac576001600160e01b0319811663025ceed960e61b1415612fc45761302b8585613d3a565b6001600160e01b031982166000908152606560205260409020546001600160a01b03168015613161576040516306d3f7cb60e41b81526001600160a01b03821690636d3f7cb09061310390899089906004016149e5565b60006040518083038186803b15801561311b57600080fd5b505afa15801561312f573d6000803e3d6000fd5b505050506040513d6000823e601f3d908101601f191682016040526131579190810190614f7c565b9350505050610ed8565b6001600160e01b03198381169083161415613180576131578686613d3a565b60405162461bcd60e51b81526020600482015260176024820152763737ba103337bab7321024a0b9b9b2ba26b0ba31b432b960491b6044820152606401610639565b6060808215610ed85760408051600180825281830190925290816020015b60408051808201909152600080825260208201528152602001906001900390816131e057905050905061321283613da4565b8160008151811061322557613225614954565b602002602001018190525092915050565b6060806000841180156132495750600083115b156132dc576040805160028082526060820190925290816020015b604080518082019091526000808252602082015281526020019060019003908161326457905050905061329684613da4565b816000815181106132a9576132a9614954565b60200260200101819052506132bd83613da4565b816001815181106132d0576132d0614954565b60200260200101819052505b6000841180156132ea575082155b156133555760408051600180825281830190925290816020015b604080518082019091526000808252602082015281526020019060019003908161330457905050905061333684613da4565b8160008151811061334957613349614954565b60200260200101819052505b831580156133635750600083115b156133ce5760408051600180825281830190925290816020015b604080518082019091526000808252602082015281526020019060019003908161337d5790505090506133af83613da4565b816000815181106133c2576133c2614954565b60200260200101819052505b9392505050565b60408051600180825281830190925260609160009190816020015b60408051808201909152600080825260208201528152602001906001900390816133f0579050509050828160008151811061342d5761342d614954565b6020026020010151600001906001600160a01b031690816001600160a01b0316815250506127108160008151811061346757613467614954565b6020908102919091018101516001600160601b0390921691015292915050565b60008261349657506000610ed8565b5060009081526101306020526040902054919050565b60408051808201909152600080825260208201526000806134ce898887613dd8565b915091506000806134e08a8988613dd8565b91509150838111156135135761350884848c60200151602001518d6060015160200151613e54565b945050505050612091565b61352f8b60200151602001518c60600151602001518484613edb565b9b9a5050505050505050505050565b600080805b84518110156135925784818151811061355e5761355e614954565b6020026020010151602001516001600160601b03168261357e9190614e8f565b91508061358a81614a20565b915050613543565b5060005b8351811015612a5f578381815181106135b1576135b1614954565b6020026020010151602001516001600160601b0316826135d19190614e8f565b9150806135dd81614a20565b915050613596565b600081156135f45750826133ce565b6000805b84518110156136455784818151811061361357613613614954565b6020026020010151602001516001600160601b0316826136339190614e8f565b915061363e81614a20565b90506135f8565b506136508582613839565b6127289086614e8f565b60008061366688613f64565b90508051600114801561367a575086516001145b80156136d357508660008151811061369457613694614954565b6020026020010151600001516001600160a01b0316816000815181106136bc576136bc614954565b6020026020010151600001516001600160a01b0316145b1561372a57611388816000815181106136ee576136ee614954565b6020026020010151602001516001600160601b031611156137215760405162461bcd60e51b815260040161063990614fec565b85915050613766565b60008061373b8b8989868a8a613771565b915091506113888111156137615760405162461bcd60e51b815260040161063990614fec565b509150505b979650505050505050565b846000805b855181101561382d5785818151811061379157613791614954565b6020026020010151602001516001600160601b0316826137b19190614e8f565b915060006137e684898985815181106137cc576137cc614954565b6020026020010151602001516001600160601b03166140d9565b9094509050801561381c5761381c60405180604001604052808c81526020018381525087898581518110612b8c57612b8c614954565b5061382681614a20565b9050613776565b50965096945050505050565b60006127106138488385615023565b6133ce9190615058565b8351516001600160e01b0319166339d690a360e11b14156139c45760008085600001516020015180602001905181019061388c919061507a565b9150915085602001516001146138d95760405162461bcd60e51b815260206004820152601260248201527132b9319b9918903b30b63ab29032b93937b960711b6044820152606401610639565b6001600160a01b03851630141561395857604051632142170760e11b81523060048201526001600160a01b038581166024830152604482018390528316906342842e0e906064015b600060405180830381600087803b15801561393b57600080fd5b505af115801561394f573d6000803e3d6000fd5b505050506139bd565b604051637b84dc8360e11b81526001600160a01b0384169063f709b9069061398a9085908990899087906004016150a8565b600060405180830381600087803b1580156139a457600080fd5b505af11580156139b8573d6000803e3d6000fd5b505050505b50506105dd565b8351516001600160e01b0319166322ba176160e21b1415613b505760008460000151602001518060200190518101906139fd91906150d2565b90506001600160a01b038416301415613ae257602085015160405163a9059cbb60e01b81526001600160a01b03858116600483015260248201929092529082169063a9059cbb90604401602060405180830381600087803b158015613a6157600080fd5b505af1158015613a75573d6000803e3d6000fd5b505050506040513d601f19601f82011682018060405250810190613a9991906150ef565b613add5760405162461bcd60e51b8152602060048201526015602482015274195c98cc8c081d1c985b9cd9995c8819985a5b1959605a1b6044820152606401610639565b613b4a565b602085015160405163776062c360e01b81526001600160a01b0384169163776062c391613b17918591899189916004016150a8565b600060405180830381600087803b158015613b3157600080fd5b505af1158015613b45573d6000803e3d6000fd5b505050505b506105dd565b8351516001600160e01b03191663025ceed960e61b1415613c5857600080856000015160200151806020019051810190613b8a919061507a565b90925090506001600160a01b038516301415613bf7576020860151604051637921219560e11b81523060048201526001600160a01b03868116602483015260448201849052606482019290925260a06084820152600060a48201529083169063f242432a9060c401613921565b6020860151604051639c1c2ee960e01b81526001600160a01b0384811660048301528781166024830152868116604483015260648201849052608482019290925260c060a4820152600060c482015290841690639c1c2ee99060e40161398a565b8351516001600160e01b0319166355575f5d60e11b1415613ca1576001600160a01b0382163014613c9c576020840151613c9c906001600160a01b03841690611da8565b6105dd565b6040516354bc0cf160e01b81526001600160a01b038216906354bc0cf190613cd19087908790879060040161510a565b600060405180830381600087803b158015613ceb57600080fd5b505af1158015612c71573d6000803e3d6000fd5b6040517f19457468657265756d205369676e6564204d6573736167653a0a3332000000006020820152603c8101829052600090605c016115fd565b60408051808201909152600081526060602082015260208084015180519082012083820151805192019190912080821415613d79578492505050610ed8565b5050604080518082018252600080825282516020808201909452908152918101919091529392505050565b60408051808201909152600080825260208201528115611659576001600160a01b038216815260a09190911c602082015290565b6000808215613e195783856020015160200151613df59190614a63565b9150613e12856060015160200151866020015160200151846140fb565b9050611da0565b83856060015160200151613e2d9190614a63565b9050613e4a856020015160200151866060015160200151836140fb565b9150935093915050565b60408051808201909152600080825260208201526000613e758585856140fb565b905085811115613ec25760405162461bcd60e51b8152602060048201526018602482015277199a5b1b1319599d0e881d5b98589b19481d1bc8199a5b1b60421b6044820152606401610639565b5050604080518082019091529384525050602082015290565b60408051808201909152600080825260208201526000613efc8387876140fb565b905083811115613f4a5760405162461bcd60e51b8152602060048201526019602482015278199a5b1b149a59da1d0e881d5b98589b19481d1bc8199a5b1b603a1b6044820152606401610639565b604080518082019091529283526020830152509392505050565b80516060906001600160e01b03191663025ceed960e61b1480613f98575081516001600160e01b0319166339d690a360e11b145b15614052576000808360200151806020019051810190613fb8919061507a565b61016354604051634e53ee3d60e11b81526001600160a01b038085166004830152602482018490529395509193509190911690639ca7dc7a90604401600060405180830381600087803b15801561400e57600080fd5b505af1158015614022573d6000803e3d6000fd5b505050506040513d6000823e601f3d908101601f1916820160405261404a9190810190615150565b949350505050565b81516001600160e01b03191662737ea960e61b14156140915760008260200151806020019051810190614085919061518f565b60800151949350505050565b81516001600160e01b03191663d8f960c160e01b14156140d157600082602001518060200190518101906140c5919061527e565b60600151949350505050565b506060919050565b6000806140ef856140ea8686613839565b61415b565b91509150935093915050565b6000614108848484614183565b156141465760405162461bcd60e51b815260206004820152600e60248201526d3937bab73234b7339032b93937b960911b6044820152606401610639565b826141518386615023565b61404a9190615058565b6000808284111561417a576141708385614a63565b9150829050611b77565b50600093915050565b6000826141c55760405162461bcd60e51b815260206004820152601060248201526f6469766973696f6e206279207a65726f60801b6044820152606401610639565b8115806141d0575083155b156141dd575060006133ce565b600083806141ed576141ed615042565b85840990506141fc8386615023565b614208826103e8615023565b101595945050505050565b60405180608001604052806060815260200160608152602001600015158152602001600081525090565b60005b83811015614258578181015183820152602001614240565b838111156105dd5750506000910152565b6000815180845261428181602086016020860161423d565b601f01601f19169290920160200192915050565b6020815260006133ce6020830184614269565b60006101e082840312156142bb57600080fd5b50919050565b6000602082840312156142d357600080fd5b81356001600160401b038111156142e957600080fd5b61404a848285016142a8565b6001600160a01b0381168114610e5d57600080fd5b8035611659816142f5565b600080600080600060a0868803121561432d57600080fd5b8535614338816142f5565b94506020860135614348816142f5565b935060408601359250606086013561435f816142f5565b9150608086013561436f816142f5565b809150509295509295909350565b60006020828403121561438f57600080fd5b5035919050565b6001600160e01b031981168114610e5d57600080fd5b803561165981614396565b600080604083850312156143ca57600080fd5b82356143d581614396565b915060208301356143e5816142f5565b809150509250929050565b60006020828403121561440257600080fd5b81356133ce816142f5565b6001600160a01b0391909116815260200190565b634e487b7160e01b600052604160045260246000fd5b604080519081016001600160401b038111828210171561445957614459614421565b60405290565b60405161012081016001600160401b038111828210171561445957614459614421565b60405160c081016001600160401b038111828210171561445957614459614421565b60405160a081016001600160401b038111828210171561445957614459614421565b604051601f8201601f191681016001600160401b03811182821017156144ee576144ee614421565b604052919050565b60006001600160401b0382111561450f5761450f614421565b5060051b60200190565b60006001600160401b0382111561453257614532614421565b50601f01601f191660200190565b600082601f83011261455157600080fd5b813561456461455f82614519565b6144c6565b81815284602083860101111561457957600080fd5b816020850160208301376000918101602001919091529392505050565b6000604082840312156145a857600080fd5b6145b0614437565b905081356001600160401b03808211156145c957600080fd5b90830190604082860312156145dd57600080fd5b6145e5614437565b82356145f081614396565b815260208301358281111561460457600080fd5b61461087828601614540565b6020830152508084525050506020820135602082015292915050565b6000610120828403121561463f57600080fd5b61464761445f565b90506146528261430a565b815260208201356001600160401b038082111561466e57600080fd5b61467a85838601614596565b602084015261468b6040850161430a565b604084015260608401359150808211156146a457600080fd5b6146b085838601614596565b60608401526080840135608084015260a084013560a084015260c084013560c08401526146df60e085016143ac565b60e0840152610100915081840135818111156146fa57600080fd5b61470686828701614540565b8385015250505092915050565b6000602080838503121561472657600080fd5b82356001600160401b038082111561473d57600080fd5b818501915085601f83011261475157600080fd5b813561475f61455f826144f6565b81815260059190911b8301840190848101908883111561477e57600080fd5b8585015b838110156147b65780358581111561479a5760008081fd5b6147a88b89838a010161462c565b845250918601918601614782565b5098975050505050505050565b6000602082840312156147d557600080fd5b81356001600160401b038111156147eb57600080fd5b61404a8482850161462c565b6000806000806080858703121561480d57600080fd5b84356001600160401b038082111561482457600080fd5b6148308883890161462c565b9550602087013591508082111561484657600080fd5b61485288838901614540565b9450604087013591508082111561486857600080fd5b6148748883890161462c565b9350606087013591508082111561488a57600080fd5b5061489787828801614540565b91505092959194509250565b6000602082840312156148b557600080fd5b81356133ce81614396565b6000808335601e198436030181126148d757600080fd5b8301803591506001600160401b038211156148f157600080fd5b602001915036819003821315611b7757600080fd5b6020808252602e908201527f496e697469616c697a61626c653a20636f6e747261637420697320616c72656160408201526d191e481a5b9a5d1a585b1a5e995960921b606082015260800190565b634e487b7160e01b600052603260045260246000fd5b6020808252600b908201526a3737ba10309036b0b5b2b960a91b604082015260600190565b6020808252601490820152730c081cd85b1d0818d85b89dd081899481d5cd95960621b604082015260600190565b63ffffffff60e01b8151168252600060208201516040602085015261404a6040850182614269565b6040815260006149f860408301856149bd565b828103602084015261272881856149bd565b634e487b7160e01b600052601160045260246000fd5b6000600019821415614a3457614a34614a0a565b5060010190565b6020808252600e908201526d0dcdee840cadcdeeaced040cae8d60931b604082015260600190565b600082821015614a7557614a75614a0a565b500390565b60018060a01b038616815284602082015283604082015260a060608201526000614aa760a08301856149bd565b8281036080840152614ab981856149bd565b98975050505050505050565b6020808252602b908201527f496e697469616c697a61626c653a20636f6e7472616374206973206e6f74206960408201526a6e697469616c697a696e6760a81b606082015260800190565b60018060a01b038616815284602082015283604082015282606082015260a06080820152600061376660a0830184614269565b82815260406020820152600061404a6040830184614269565b600060208284031215614b6e57600080fd5b81516133ce81614396565b6020808252601290820152710c2e6e6cae8e640c8dedc4ee840dac2e8c6d60731b604082015260600190565b634e487b7160e01b600052602160045260246000fd5b600082601f830112614bcc57600080fd5b81516020614bdc61455f836144f6565b82815260069290921b84018101918181019086841115614bfb57600080fd5b8286015b84811015614c595760408189031215614c185760008081fd5b614c20614437565b8151614c2b816142f5565b8152818501516001600160601b0381168114614c475760008081fd5b81860152835291830191604001614bff565b509695505050505050565b600060208284031215614c7657600080fd5b81516001600160401b0380821115614c8d57600080fd5b9083019060408286031215614ca157600080fd5b614ca9614437565b825182811115614cb857600080fd5b614cc487828601614bbb565b825250602083015182811115614cd957600080fd5b614ce587828601614bbb565b60208301525095945050505050565b8051801515811461165957600080fd5b600060208284031215614d1657600080fd5b81516001600160401b0380821115614d2d57600080fd5b9083019060608286031215614d4157600080fd5b604051606081018181108382111715614d5c57614d5c614421565b604052825182811115614d6e57600080fd5b614d7a87828601614bbb565b825250602083015182811115614d8f57600080fd5b614d9b87828601614bbb565b602083015250614dad60408401614cf4565b604082015295945050505050565b600060a08284031215614dcd57600080fd5b60405160a081018181106001600160401b0382111715614def57614def614421565b806040525082518152602083015160208201526040830151604082015260608301516060820152608083015160808201528091505092915050565b600060808284031215614e3c57600080fd5b604051608081018181106001600160401b0382111715614e5e57614e5e614421565b8060405250825181526020830151602082015260408301516040820152606083015160608201528091505092915050565b60008219821115614ea257614ea2614a0a565b500190565b60006001600160601b03808316818516808303821115614ec957614ec9614a0a565b01949350505050565b600060ff821660ff841680821015614eec57614eec614a0a565b90039392505050565b60208082526022908201527f45434453413a20696e76616c6964207369676e6174757265202776272076616c604082015261756560f01b606082015260800190565b600082601f830112614f4857600080fd5b8151614f5661455f82614519565b818152846020838601011115614f6b57600080fd5b61404a82602083016020870161423d565b600060208284031215614f8e57600080fd5b81516001600160401b0380821115614fa557600080fd5b9083019060408286031215614fb957600080fd5b614fc1614437565b8251614fcc81614396565b8152602083015182811115614fe057600080fd5b614ce587828601614f37565b6020808252601d908201527f526f79616c746965732061726520746f6f206869676820283e35302529000000604082015260600190565b600081600019048311821515161561503d5761503d614a0a565b500290565b634e487b7160e01b600052601260045260246000fd5b60008261507557634e487b7160e01b600052601260045260246000fd5b500490565b6000806040838503121561508d57600080fd5b8251615098816142f5565b6020939093015192949293505050565b6001600160a01b039485168152928416602084015292166040820152606081019190915260800190565b6000602082840312156150e457600080fd5b81516133ce816142f5565b60006020828403121561510157600080fd5b6133ce82614cf4565b60608152600084516040606084015261512660a08401826149bd565b60209687015160808501526001600160a01b03958616968401969096525050911660409091015290565b60006020828403121561516257600080fd5b81516001600160401b0381111561517857600080fd5b61404a84828501614bbb565b8051611659816142f5565b600080604083850312156151a257600080fd5b82516151ad816142f5565b60208401519092506001600160401b03808211156151ca57600080fd5b9084019060c082870312156151de57600080fd5b6151e6614482565b825181526020830151828111156151fc57600080fd5b61520888828601614f37565b6020830152506040830151604082015261522460608401615184565b606082015260808301518281111561523b57600080fd5b61524788828601614bbb565b60808301525060a08301518281111561525f57600080fd5b61526b88828601614f37565b60a0830152508093505050509250929050565b6000806040838503121561529157600080fd5b825161529c816142f5565b60208401519092506001600160401b03808211156152b957600080fd5b9084019060a082870312156152cd57600080fd5b6152d56144a4565b825181526020830151828111156152eb57600080fd5b6152f788828601614f37565b60208301525061530960408401615184565b604082015260608301518281111561532057600080fd5b61532c88828601614bbb565b60608301525060808301518281111561534457600080fd5b61535088828601614f37565b608083015250809350505050925092905056fe7f26b83ff96e1f2b6a682f133852f6798a09c465da95921460cefb3847402498a2646970667358221220d385235683c8d3afa7e78944e1d1cbf06b20adf0eb06dee27a94a7258fb8558464736f6c63430008090033",
  "devdoc": {
    "kind": "dev",
    "methods": {
      "directAcceptBid((address,uint256,bytes4,bytes,uint256,address,uint256,uint256,uint256,bytes4,bytes,bytes,uint256,uint256,bytes))": {
        "details": "function, generate sellOrder and buyOrder from parameters and call validateAndMatch() for accept bid transaction",
        "params": {
          "direct": "struct with parameters for accept bid operation"
        }
      },
      "directPurchase((address,uint256,bytes4,bytes,uint256,address,uint256,uint256,uint256,bytes4,bytes,bytes,uint256,uint256,bytes))": {
        "details": "function, generate sellOrder and buyOrder from parameters and call validateAndMatch() for purchase transaction",
        "params": {
          "direct": "struct with parameters for purchase operation"
        }
      },
      "matchOrders((address,((bytes4,bytes),uint256),address,((bytes4,bytes),uint256),uint256,uint256,uint256,bytes4,bytes),bytes,(address,((bytes4,bytes),uint256),address,((bytes4,bytes),uint256),uint256,uint256,uint256,bytes4,bytes),bytes)": {
        "details": "function, match orders",
        "params": {
          "orderLeft": "left order",
          "orderRight": "right order",
          "signatureLeft": "order left signature",
          "signatureRight": "order right signature"
        }
      },
      "owner()": {
        "details": "Returns the address of the current owner."
      },
      "renounceOwnership()": {
        "details": "Leaves the contract without owner. It will not be possible to call `onlyOwner` functions anymore. Can only be called by the current owner. NOTE: Renouncing ownership will leave the contract without an owner, thereby removing any functionality that is only available to the owner."
      },
      "transferOwnership(address)": {
        "details": "Transfers ownership of the contract to a new account (`newOwner`). Can only be called by the current owner."
      }
    },
    "version": 1
  },
  "userdoc": {
    "kind": "user",
    "methods": {},
    "version": 1
  },
  "storageLayout": {
    "storage": [
      {
        "astId": 721,
        "contract": "src/exchange/ExchangeV2.sol:ExchangeV2",
        "label": "_initialized",
        "offset": 0,
        "slot": "0",
        "type": "t_uint8"
      },
      {
        "astId": 724,
        "contract": "src/exchange/ExchangeV2.sol:ExchangeV2",
        "label": "_initializing",
        "offset": 1,
        "slot": "0",
        "type": "t_bool"
      },
      {
        "astId": 4525,
        "contract": "src/exchange/ExchangeV2.sol:ExchangeV2",
        "label": "__gap",
        "offset": 0,
        "slot": "1",
        "type": "t_array(t_uint256)50_storage"
      },
      {
        "astId": 593,
        "contract": "src/exchange/ExchangeV2.sol:ExchangeV2",
        "label": "_owner",
        "offset": 0,
        "slot": "51",
        "type": "t_address"
      },
      {
        "astId": 713,
        "contract": "src/exchange/ExchangeV2.sol:ExchangeV2",
        "label": "__gap",
        "offset": 0,
        "slot": "52",
        "type": "t_array(t_uint256)49_storage"
      },
      {
        "astId": 10265,
        "contract": "src/exchange/ExchangeV2.sol:ExchangeV2",
        "label": "matchers",
        "offset": 0,
        "slot": "101",
        "type": "t_mapping(t_bytes4,t_address)"
      },
      {
        "astId": 10521,
        "contract": "src/exchange/ExchangeV2.sol:ExchangeV2",
        "label": "__gap",
        "offset": 0,
        "slot": "102",
        "type": "t_array(t_uint256)49_storage"
      },
      {
        "astId": 29969,
        "contract": "src/exchange/ExchangeV2.sol:ExchangeV2",
        "label": "proxies",
        "offset": 0,
        "slot": "151",
        "type": "t_mapping(t_bytes4,t_address)"
      },
      {
        "astId": 30267,
        "contract": "src/exchange/ExchangeV2.sol:ExchangeV2",
        "label": "__gap",
        "offset": 0,
        "slot": "152",
        "type": "t_array(t_uint256)49_storage"
      },
      {
        "astId": 5223,
        "contract": "src/exchange/ExchangeV2.sol:ExchangeV2",
        "label": "_HASHED_NAME",
        "offset": 0,
        "slot": "201",
        "type": "t_bytes32"
      },
      {
        "astId": 5225,
        "contract": "src/exchange/ExchangeV2.sol:ExchangeV2",
        "label": "_HASHED_VERSION",
        "offset": 0,
        "slot": "202",
        "type": "t_bytes32"
      },
      {
        "astId": 5363,
        "contract": "src/exchange/ExchangeV2.sol:ExchangeV2",
        "label": "__gap",
        "offset": 0,
        "slot": "203",
        "type": "t_array(t_uint256)50_storage"
      },
      {
        "astId": 15151,
        "contract": "src/exchange/ExchangeV2.sol:ExchangeV2",
        "label": "__gap",
        "offset": 0,
        "slot": "253",
        "type": "t_array(t_uint256)50_storage"
      },
      {
        "astId": 13669,
        "contract": "src/exchange/ExchangeV2.sol:ExchangeV2",
        "label": "matchAndTransferAdmin",
        "offset": 0,
        "slot": "303",
        "type": "t_address"
      },
      {
        "astId": 13680,
        "contract": "src/exchange/ExchangeV2.sol:ExchangeV2",
        "label": "fills",
        "offset": 0,
        "slot": "304",
        "type": "t_mapping(t_bytes32,t_uint256)"
      },
      {
        "astId": 15014,
        "contract": "src/exchange/ExchangeV2.sol:ExchangeV2",
        "label": "__gap",
        "offset": 0,
        "slot": "305",
        "type": "t_array(t_uint256)49_storage"
      },
      {
        "astId": 29023,
        "contract": "src/exchange/ExchangeV2.sol:ExchangeV2",
        "label": "protocolFee",
        "offset": 0,
        "slot": "354",
        "type": "t_uint256"
      },
      {
        "astId": 29026,
        "contract": "src/exchange/ExchangeV2.sol:ExchangeV2",
        "label": "royaltiesRegistry",
        "offset": 0,
        "slot": "355",
        "type": "t_contract(IRoyaltiesProvider)15787"
      },
      {
        "astId": 29028,
        "contract": "src/exchange/ExchangeV2.sol:ExchangeV2",
        "label": "defaultFeeReceiver",
        "offset": 0,
        "slot": "356",
        "type": "t_address"
      },
      {
        "astId": 29032,
        "contract": "src/exchange/ExchangeV2.sol:ExchangeV2",
        "label": "feeReceivers",
        "offset": 0,
        "slot": "357",
        "type": "t_mapping(t_address,t_address)"
      },
      {
        "astId": 29947,
        "contract": "src/exchange/ExchangeV2.sol:ExchangeV2",
        "label": "__gap",
        "offset": 0,
        "slot": "358",
        "type": "t_array(t_uint256)46_storage"
      }
    ],
    "types": {
      "t_address": {
        "encoding": "inplace",
        "label": "address",
        "numberOfBytes": "20"
      },
      "t_array(t_uint256)46_storage": {
        "base": "t_uint256",
        "encoding": "inplace",
        "label": "uint256[46]",
        "numberOfBytes": "1472"
      },
      "t_array(t_uint256)49_storage": {
        "base": "t_uint256",
        "encoding": "inplace",
        "label": "uint256[49]",
        "numberOfBytes": "1568"
      },
      "t_array(t_uint256)50_storage": {
        "base": "t_uint256",
        "encoding": "inplace",
        "label": "uint256[50]",
        "numberOfBytes": "1600"
      },
      "t_bool": {
        "encoding": "inplace",
        "label": "bool",
        "numberOfBytes": "1"
      },
      "t_bytes32": {
        "encoding": "inplace",
        "label": "bytes32",
        "numberOfBytes": "32"
      },
      "t_bytes4": {
        "encoding": "inplace",
        "label": "bytes4",
        "numberOfBytes": "4"
      },
      "t_contract(IRoyaltiesProvider)15787": {
        "encoding": "inplace",
        "label": "contract IRoyaltiesProvider",
        "numberOfBytes": "20"
      },
      "t_mapping(t_address,t_address)": {
        "encoding": "mapping",
        "key": "t_address",
        "label": "mapping(address => address)",
        "numberOfBytes": "32",
        "value": "t_address"
      },
      "t_mapping(t_bytes32,t_uint256)": {
        "encoding": "mapping",
        "key": "t_bytes32",
        "label": "mapping(bytes32 => uint256)",
        "numberOfBytes": "32",
        "value": "t_uint256"
      },
      "t_mapping(t_bytes4,t_address)": {
        "encoding": "mapping",
        "key": "t_bytes4",
        "label": "mapping(bytes4 => address)",
        "numberOfBytes": "32",
        "value": "t_address"
      },
      "t_uint256": {
        "encoding": "inplace",
        "label": "uint256",
        "numberOfBytes": "32"
      },
      "t_uint8": {
        "encoding": "inplace",
        "label": "uint8",
        "numberOfBytes": "1"
      }
    }
  }
}