{
  "address": "0xaBe6320Aa780e3986E9122becE44F0540E96c2F0",
  "abi": [
    {
      "anonymous": false,
      "inputs": [
        {
          "indexed": false,
          "internalType": "bool",
          "name": "result",
          "type": "bool"
        },
        {
          "indexed": true,
          "internalType": "address",
          "name": "sender",
          "type": "address"
        }
      ],
      "name": "Execution",
      "type": "event"
    },
    {
      "anonymous": false,
      "inputs": [
        {
          "indexed": false,
          "internalType": "uint8",
          "name": "version",
          "type": "uint8"
        }
      ],
      "name": "Initialized",
      "type": "event"
    },
    {
      "anonymous": false,
      "inputs": [
        {
          "indexed": true,
          "internalType": "address",
          "name": "previousOwner",
          "type": "address"
        },
        {
          "indexed": true,
          "internalType": "address",
          "name": "newOwner",
          "type": "address"
        }
      ],
      "name": "OwnershipTransferred",
      "type": "event"
    },
    {
      "anonymous": false,
      "inputs": [
        {
          "indexed": false,
          "internalType": "address",
          "name": "account",
          "type": "address"
        }
      ],
      "name": "Paused",
      "type": "event"
    },
    {
      "anonymous": false,
      "inputs": [
        {
          "indexed": false,
          "internalType": "address",
          "name": "account",
          "type": "address"
        }
      ],
      "name": "Unpaused",
      "type": "event"
    },
    {
      "inputs": [
        {
          "internalType": "address",
          "name": "_exchangeV2",
          "type": "address"
        },
        {
          "internalType": "address",
          "name": "_rarible",
          "type": "address"
        },
        {
          "internalType": "address",
          "name": "_wyvern",
          "type": "address"
        },
        {
          "internalType": "address",
          "name": "_seaport",
          "type": "address"
        },
        {
          "internalType": "address",
          "name": "_x2y2",
          "type": "address"
        },
        {
          "internalType": "address",
          "name": "_looksrare",
          "type": "address"
        },
        {
          "internalType": "address",
          "name": "_sudoswap",
          "type": "address"
        },
        {
          "internalType": "address",
          "name": "_blur",
          "type": "address"
        },
        {
          "internalType": "address",
          "name": "_wethToken",
          "type": "address"
        },
        {
          "internalType": "contract ISwapRouterV3",
          "name": "_uniswapRouterV3",
          "type": "address"
        },
        {
          "internalType": "address",
          "name": "_erc20TransferProxy",
          "type": "address"
        }
      ],
      "name": "__ExchangeWrapper_init",
      "outputs": [],
      "stateMutability": "nonpayable",
      "type": "function"
    },
    {
      "inputs": [
        {
          "components": [
            {
              "internalType": "enum ExchangeWrapperCore.Markets",
              "name": "marketId",
              "type": "uint8"
            },
            {
              "internalType": "uint256",
              "name": "amount",
              "type": "uint256"
            },
            {
              "internalType": "uint256",
              "name": "fees",
              "type": "uint256"
            },
            {
              "internalType": "bytes",
              "name": "data",
              "type": "bytes"
            }
          ],
          "internalType": "struct ExchangeWrapperCore.PurchaseDetails[]",
          "name": "purchaseDetails",
          "type": "tuple[]"
        },
        {
          "internalType": "address",
          "name": "feeRecipientFirst",
          "type": "address"
        },
        {
          "internalType": "address",
          "name": "feeRecipientSecond",
          "type": "address"
        },
        {
          "internalType": "bool",
          "name": "allowFail",
          "type": "bool"
        },
        {
          "components": [
            {
              "internalType": "address",
              "name": "tokenIn",
              "type": "address"
            },
            {
              "internalType": "address",
              "name": "tokenOut",
              "type": "address"
            },
            {
              "internalType": "uint256",
              "name": "amountOut",
              "type": "uint256"
            },
            {
              "internalType": "uint256",
              "name": "amountInMaximum",
              "type": "uint256"
            },
            {
              "internalType": "bool",
              "name": "unwrap",
              "type": "bool"
            }
          ],
          "internalType": "struct ExchangeWrapperCore.SwapDetailsIn",
          "name": "swapDetails",
          "type": "tuple"
        }
      ],
      "name": "bulkPurchase",
      "outputs": [],
      "stateMutability": "payable",
      "type": "function"
    },
    {
      "inputs": [
        {
          "internalType": "address",
          "name": "",
          "type": "address"
        },
        {
          "internalType": "address",
          "name": "",
          "type": "address"
        },
        {
          "internalType": "uint256[]",
          "name": "",
          "type": "uint256[]"
        },
        {
          "internalType": "uint256[]",
          "name": "",
          "type": "uint256[]"
        },
        {
          "internalType": "bytes",
          "name": "",
          "type": "bytes"
        }
      ],
      "name": "onERC1155BatchReceived",
      "outputs": [
        {
          "internalType": "bytes4",
          "name": "",
          "type": "bytes4"
        }
      ],
      "stateMutability": "nonpayable",
      "type": "function"
    },
    {
      "inputs": [
        {
          "internalType": "address",
          "name": "",
          "type": "address"
        },
        {
          "internalType": "address",
          "name": "",
          "type": "address"
        },
        {
          "internalType": "uint256",
          "name": "",
          "type": "uint256"
        },
        {
          "internalType": "uint256",
          "name": "",
          "type": "uint256"
        },
        {
          "internalType": "bytes",
          "name": "",
          "type": "bytes"
        }
      ],
      "name": "onERC1155Received",
      "outputs": [
        {
          "internalType": "bytes4",
          "name": "",
          "type": "bytes4"
        }
      ],
      "stateMutability": "nonpayable",
      "type": "function"
    },
    {
      "inputs": [
        {
          "internalType": "address",
          "name": "",
          "type": "address"
        },
        {
          "internalType": "address",
          "name": "",
          "type": "address"
        },
        {
          "internalType": "uint256",
          "name": "",
          "type": "uint256"
        },
        {
          "internalType": "bytes",
          "name": "",
          "type": "bytes"
        }
      ],
      "name": "onERC721Received",
      "outputs": [
        {
          "internalType": "bytes4",
          "name": "",
          "type": "bytes4"
        }
      ],
      "stateMutability": "nonpayable",
      "type": "function"
    },
    {
      "inputs": [],
      "name": "owner",
      "outputs": [
        {
          "internalType": "address",
          "name": "",
          "type": "address"
        }
      ],
      "stateMutability": "view",
      "type": "function"
    },
    {
      "inputs": [],
      "name": "pause",
      "outputs": [],
      "stateMutability": "nonpayable",
      "type": "function"
    },
    {
      "inputs": [],
      "name": "paused",
      "outputs": [
        {
          "internalType": "bool",
          "name": "",
          "type": "bool"
        }
      ],
      "stateMutability": "view",
      "type": "function"
    },
    {
      "inputs": [],
      "name": "renounceOwnership",
      "outputs": [],
      "stateMutability": "nonpayable",
      "type": "function"
    },
    {
      "inputs": [
        {
          "internalType": "address",
          "name": "_blur",
          "type": "address"
        }
      ],
      "name": "setBlur",
      "outputs": [],
      "stateMutability": "nonpayable",
      "type": "function"
    },
    {
      "inputs": [
        {
          "internalType": "address",
          "name": "_rarible",
          "type": "address"
        }
      ],
      "name": "setRarible",
      "outputs": [],
      "stateMutability": "nonpayable",
      "type": "function"
    },
    {
      "inputs": [
        {
          "internalType": "address",
          "name": "_erc20TransferProxy",
          "type": "address"
        }
      ],
      "name": "setTransferProxy",
      "outputs": [],
      "stateMutability": "nonpayable",
      "type": "function"
    },
    {
      "inputs": [
        {
          "internalType": "contract ISwapRouterV3",
          "name": "_uniswapRouterV3",
          "type": "address"
        }
      ],
      "name": "setUniswapV3",
      "outputs": [],
      "stateMutability": "nonpayable",
      "type": "function"
    },
    {
      "inputs": [
        {
          "internalType": "address",
          "name": "_wethToken",
          "type": "address"
        }
      ],
      "name": "setWeth",
      "outputs": [],
      "stateMutability": "nonpayable",
      "type": "function"
    },
    {
      "inputs": [
        {
          "components": [
            {
              "internalType": "enum ExchangeWrapperCore.Markets",
              "name": "marketId",
              "type": "uint8"
            },
            {
              "internalType": "uint256",
              "name": "amount",
              "type": "uint256"
            },
            {
              "internalType": "uint256",
              "name": "fees",
              "type": "uint256"
            },
            {
              "internalType": "bytes",
              "name": "data",
              "type": "bytes"
            }
          ],
          "internalType": "struct ExchangeWrapperCore.PurchaseDetails",
          "name": "purchaseDetails",
          "type": "tuple"
        },
        {
          "internalType": "address",
          "name": "feeRecipientFirst",
          "type": "address"
        },
        {
          "internalType": "address",
          "name": "feeRecipientSecond",
          "type": "address"
        },
        {
          "components": [
            {
              "internalType": "address",
              "name": "tokenIn",
              "type": "address"
            },
            {
              "internalType": "address",
              "name": "tokenOut",
              "type": "address"
            },
            {
              "internalType": "uint256",
              "name": "amountOut",
              "type": "uint256"
            },
            {
              "internalType": "uint256",
              "name": "amountInMaximum",
              "type": "uint256"
            },
            {
              "internalType": "bool",
              "name": "unwrap",
              "type": "bool"
            }
          ],
          "internalType": "struct ExchangeWrapperCore.SwapDetailsIn",
          "name": "swapDetails",
          "type": "tuple"
        }
      ],
      "name": "singlePurchase",
      "outputs": [],
      "stateMutability": "payable",
      "type": "function"
    },
    {
      "inputs": [
        {
          "internalType": "bytes4",
          "name": "interfaceId",
          "type": "bytes4"
        }
      ],
      "name": "supportsInterface",
      "outputs": [
        {
          "internalType": "bool",
          "name": "",
          "type": "bool"
        }
      ],
      "stateMutability": "view",
      "type": "function"
    },
    {
      "inputs": [
        {
          "internalType": "address",
          "name": "newOwner",
          "type": "address"
        }
      ],
      "name": "transferOwnership",
      "outputs": [],
      "stateMutability": "nonpayable",
      "type": "function"
    },
    {
      "inputs": [],
      "name": "unpause",
      "outputs": [],
      "stateMutability": "nonpayable",
      "type": "function"
    },
    {
      "stateMutability": "payable",
      "type": "receive"
    }
  ],
  "transactionHash": "0xcdfc2eb8d55043cd90dabcf47ebb42bda803e4b95e778340b3287c59e8762cfa",
  "args": [],
  "solcInputHash": "9dc71691ecb1f39d59f81c925aff3a24",
  "bytecode": "0x608060405234801561001057600080fd5b50613a6d806100206000396000f3fe6080604052600436106100ed5760003560e01c80638456cb59116100855780638456cb591461023657806388aaceee1461024b5780638ae429051461025e5780638da5cb5b1461027e5780639b7c0735146102a4578063b8d1452f146102b7578063bc197c81146102d7578063f23a6e6114610303578063f2fde38b1461032f57600080fd5b8063018249f1146100f957806301ffc9a71461011b57806308b1571d14610150578063150b7a02146101705780633f4ba83a146101b457806359e86829146101c95780635c975abb146101e9578063715018a6146102015780637908716c1461021657600080fd5b366100f457005b600080fd5b34801561010557600080fd5b50610119610114366004612155565b61034f565b005b34801561012757600080fd5b5061013b610136366004612249565b610551565b60405190151581526020015b60405180910390f35b34801561015c57600080fd5b5061011961016b366004612266565b610588565b34801561017c57600080fd5b5061019b61018b36600461241b565b630a85bd0160e11b949350505050565b6040516001600160e01b03199091168152602001610147565b3480156101c057600080fd5b506101196105b2565b3480156101d557600080fd5b506101196101e4366004612266565b6105c4565b3480156101f557600080fd5b5060655460ff1661013b565b34801561020d57600080fd5b506101196105ee565b34801561022257600080fd5b50610119610231366004612266565b610600565b34801561024257600080fd5b5061011961062a565b6101196102593660046125e8565b61063a565b34801561026a57600080fd5b50610119610279366004612266565b61079f565b34801561028a57600080fd5b506033546001600160a01b031660405161014791906126eb565b6101196102b23660046126ff565b6107c9565b3480156102c357600080fd5b506101196102d2366004612266565b610893565b3480156102e357600080fd5b5061019b6102f23660046127d9565b63bc197c8160e01b95945050505050565b34801561030f57600080fd5b5061019b61031e366004612886565b63f23a6e6160e01b95945050505050565b34801561033b57600080fd5b5061011961034a366004612266565b6108bd565b600054610100900460ff161580801561036f5750600054600160ff909116105b806103895750303b158015610389575060005460ff166001145b6103f15760405162461bcd60e51b815260206004820152602e60248201527f496e697469616c697a61626c653a20636f6e747261637420697320616c72656160448201526d191e481a5b9a5d1a585b1a5e995960921b60648201526084015b60405180910390fd5b6000805460ff191660011790558015610414576000805461ff0019166101001790555b61041c610936565b61042461095d565b61042c61098d565b6104fd8c8c8c8c8c8c8c8c8c8c8c609780546001600160a01b039c8d166001600160a01b031991821617909155609880549b8d169b82169b909b17909a5560998054998c16998b1699909917909855609a8054978b16978a1697909717909655609b8054958a1695891695909517909455609c805493891693881693909317909255609d8054918816918716919091179055609e8054918716918616919091179055609f805491861691851691909117905560a0805491851691841691909117905560a18054919093169116179055565b8015610543576000805461ff0019169055604051600181527f7f26b83ff96e1f2b6a682f133852f6798a09c465da95921460cefb38474024989060200160405180910390a15b505050505050505050505050565b60006001600160e01b03198216630271189760e51b148061058257506301ffc9a760e01b6001600160e01b03198316145b92915050565b6105906109c0565b609e80546001600160a01b0319166001600160a01b0392909216919091179055565b6105ba6109c0565b6105c2610a1a565b565b6105cc6109c0565b60a080546001600160a01b0319166001600160a01b0392909216919091179055565b6105f66109c0565b6105c26000610a66565b6106086109c0565b609880546001600160a01b0319166001600160a01b0392909216919091179055565b6106326109c0565b6105c2610ab8565b610642610af5565b8051600090819081906001600160a01b03161561068557600061066485610b3b565b9050806106835760405162461bcd60e51b81526004016103e8906128ee565b505b875160005b8181101561072f5760008060006106ba8d85815181106106ac576106ac61291b565b60200260200101518b610fff565b92509250925085806106c95750825b604051841515815290965033907fc5dd8c21802b423a9c822ee9c934f042186e6bb7097a1dd17717343ee84df7149060200160405180910390a261070d8289612947565b97506107198188612947565b9650505050806107289061295f565b905061068a565b50816107785760405162461bcd60e51b81526020600482015260186024820152776e6f207375636365737366756c20657865637574696f6e7360401b60448201526064016103e8565b6107828489611d07565b61078c8388611d07565b610794611d32565b505050505050505050565b6107a76109c0565b60a180546001600160a01b0319166001600160a01b0392909216919091179055565b6107d1610af5565b80516001600160a01b03161561080d5760006107ec82610b3b565b90508061080b5760405162461bcd60e51b81526004016103e8906128ee565b505b600080600061081d876000610fff565b92509250925061082a3390565b6001600160a01b03167fc5dd8c21802b423a9c822ee9c934f042186e6bb7097a1dd17717343ee84df71484604051610866911515815260200190565b60405180910390a26108788287611d07565b6108828186611d07565b61088a611d32565b50505050505050565b61089b6109c0565b609f80546001600160a01b0319166001600160a01b0392909216919091179055565b6108c56109c0565b6001600160a01b03811661092a5760405162461bcd60e51b815260206004820152602660248201527f4f776e61626c653a206e6577206f776e657220697320746865207a65726f206160448201526564647265737360d01b60648201526084016103e8565b61093381610a66565b50565b600054610100900460ff166105c25760405162461bcd60e51b81526004016103e89061297a565b600054610100900460ff166109845760405162461bcd60e51b81526004016103e89061297a565b6105c233610a66565b600054610100900460ff166109b45760405162461bcd60e51b81526004016103e89061297a565b6065805460ff19169055565b6033546001600160a01b031633146105c25760405162461bcd60e51b815260206004820181905260248201527f4f776e61626c653a2063616c6c6572206973206e6f7420746865206f776e657260448201526064016103e8565b610a22611d43565b6065805460ff191690557f5db9ee0a495bf2e6ff9c91a7834c1ba4fdd244a5e8aa4e537bd38aeae4b073aa335b604051610a5c91906126eb565b60405180910390a1565b603380546001600160a01b038381166001600160a01b0319831681179093556040519116919082907f8be0079c531659141344cd1fd0a4f28419497f9722a3daafe3b4186f6b6457e090600090a35050565b610ac0610af5565b6065805460ff191660011790557f62e78cea01bee320cd4e420270b5ea74000d11b0c9f74754ebdbfc544b05a258610a4f3390565b60655460ff16156105c25760405162461bcd60e51b815260206004820152601060248201526f14185d5cd8589b194e881c185d5cd95960821b60448201526064016103e8565b60a15481516000916001600160a01b03169063776062c3903360608601516040516001600160e01b031960e086901b1681526001600160a01b0393841660048201529290911660248301523060448301526064820152608401600060405180830381600087803b158015610bae57600080fd5b505af1158015610bc2573d6000803e3d6000fd5b5050835160a054604051636eb1769f60e11b81526001600160a01b039182166004820152306024820152600094509116915063dd62ed3e9060440160206040518083038186803b158015610c1557600080fd5b505afa158015610c29573d6000803e3d6000fd5b505050506040513d601f19601f82011682018060405250810190610c4d91906129c5565b90508260600151811015610ce557825160a05460405163095ea7b360e01b81526001600160a01b039182166004820152600019602482015291169063095ea7b390604401602060405180830381600087803b158015610cab57600080fd5b505af1158015610cbf573d6000803e3d6000fd5b505050506040513d601f19601f82011682018060405250810190610ce391906129e9565b505b604080516101008101825284516001600160a01b039081168252609f54811660208301908152610bb883850190815230606080860191825242608087019081528a88015160a0808901918252928c015160c08901908152600060e08a0190815293549951631b67c43360e31b8152895189166004820152965188166024880152945162ffffff166044870152925186166064860152516084850152905160a4840152905160c483015251821660e48201529192169063db3e21989061010401602060405180830381600087803b158015610dbe57600080fd5b505af1925050508015610dee575060408051601f3d908101601f19168201909252610deb918101906129c5565b60015b610dfc575060009392505050565b5060a060009054906101000a90046001600160a01b03166001600160a01b03166312210e8a6040518163ffffffff1660e01b8152600401600060405180830381600087803b158015610e4d57600080fd5b505af1158015610e61573d6000803e3d6000fd5b50505050836080015115610ed957609f546040808601519051632e1a7d4d60e01b81526001600160a01b0390921691632e1a7d4d91610ea69160040190815260200190565b600060405180830381600087803b158015610ec057600080fd5b505af1158015610ed4573d6000803e3d6000fd5b505050505b83516040516370a0823160e01b81526000916001600160a01b0316906370a0823190610f099030906004016126eb565b60206040518083038186803b158015610f2157600080fd5b505afa158015610f35573d6000803e3d6000fd5b505050506040513d601f19601f82011682018060405250810190610f5991906129c5565b90508015610ff45784516001600160a01b031663a9059cbb336040516001600160e01b031960e084901b1681526001600160a01b03909116600482015260248101849052604401602060405180830381600087803b158015610fba57600080fd5b505af1158015610fce573d6000803e3d6000fd5b505050506040513d601f19601f82011682018060405250810190610ff291906129e9565b505b506001949350505050565b600080600080600061101e876060015188604001518960000151611d8c565b6020890151919350915060028851600781111561103d5761103d612a06565b141561111a57609a546040516000916001600160a01b0316908390611063908790612a48565b60006040518083038185875af1925050503d80600081146110a0576040519150601f19603f3d011682016040523d82523d6000602084013e6110a5565b606091505b5050905087156110cd57806110c857600080600096509650965050505050611d00565b611114565b806111145760405162461bcd60e51b8152602060048201526017602482015276141d5c98da185cd94814d9585c1bdc9d0819985a5b1959604a1b60448201526064016103e8565b50611cce565b60018851600781111561112f5761112f612a06565b1415611200576099546040516000916001600160a01b0316908390611155908790612a48565b60006040518083038185875af1925050503d8060008114611192576040519150601f19603f3d011682016040523d82523d6000602084013e611197565b606091505b5050905087156111ba57806110c857600080600096509650965050505050611d00565b806111145760405162461bcd60e51b8152602060048201526016602482015275141d5c98da185cd94815de5d995c9b8819985a5b195960521b60448201526064016103e8565b60068851600781111561121557611215612a06565b14156112ed576097546040516000916001600160a01b031690839061123b908790612a48565b60006040518083038185875af1925050503d8060008114611278576040519150601f19603f3d011682016040523d82523d6000602084013e61127d565b606091505b5050905087156112a057806110c857600080600096509650965050505050611d00565b806111145760405162461bcd60e51b815260206004820152601b60248201527f50757263686173652047686f73744d61726b6574206661696c6564000000000060448201526064016103e8565b60008851600781111561130257611302612a06565b14156113d4576098546040516000916001600160a01b0316908390611328908790612a48565b60006040518083038185875af1925050503d8060008114611365576040519150601f19603f3d011682016040523d82523d6000602084013e61136a565b606091505b50509050871561138d57806110c857600080600096509650965050505050611d00565b806111145760405162461bcd60e51b8152602060048201526017602482015276141d5c98da185cd94814985c9a589b194819985a5b1959604a1b60448201526064016103e8565b6003885160078111156113e9576113e9612a06565b141561187c576000838060200190518101906114059190612f60565b9050871561148757609b5460405163357a150b60e01b81526001600160a01b039091169063357a150b90849061143f908590600401613212565b6000604051808303818588803b15801561145857600080fd5b505af19350505050801561146a575060015b61148257600080600096509650965050505050611d00565b6114ec565b609b5460405163357a150b60e01b81526001600160a01b039091169063357a150b9084906114b9908590600401613212565b6000604051808303818588803b1580156114d257600080fd5b505af11580156114e6573d6000803e3d6000fd5b50505050505b60208101515160005b81811015611874576000836020015182815181106115155761151561291b565b602002602001015160200151905060008460200151838151811061153b5761153b61291b565b60200260200101516040015190506000856000015183815181106115615761156161291b565b60200260200101516101000151828151811061157f5761157f61291b565b60200260200101516020015190506000866000015184815181106115a5576115a561291b565b602002602001015160e00151511180156115e157506000866020015185815181106115d2576115d261291b565b602002602001015160c0015151115b156116335761163381876020015186815181106116005761160061291b565b602002602001015160c00151886000015186815181106116225761162261291b565b602002602001015160e00151611e87565b85518051849081106116475761164761291b565b602002602001015160800151600114156117285760008180602001905181019061167191906133ce565b905060005b81518110156117215760008282815181106116935761169361291b565b6020026020010151905080600001516001600160a01b03166342842e0e306116b83390565b84602001516040518463ffffffff1660e01b81526004016116db9392919061348c565b600060405180830381600087803b1580156116f557600080fd5b505af1158015611709573d6000803e3d6000fd5b505050505080806117199061295f565b915050611676565b5050611860565b855180518490811061173c5761173c61291b565b6020026020010151608001516002141561181c5760008180602001905181019061176691906134b0565b905060005b81518110156117215760008282815181106117885761178861291b565b6020026020010151905080600001516001600160a01b031663f242432a306117ad3390565b846020015185604001516040518563ffffffff1660e01b81526004016117d69493929190613576565b600060405180830381600087803b1580156117f057600080fd5b505af1158015611804573d6000803e3d6000fd5b505050505080806118149061295f565b91505061176b565b60405162461bcd60e51b81526020600482015260196024820152783ab735b737bbb7103232b632b3b0ba32aa3cb832903c193c9960391b60448201526064016103e8565b5050508061186d9061295f565b90506114f5565b505050611cce565b60048851600781111561189157611891612a06565b1415611abd576000806000858060200190518101906118b091906136cc565b925092509250891561193a57609c54604051635a72594b60e11b81526001600160a01b039091169063b4e4b2969086906118f090879087906004016137b4565b6000604051808303818588803b15801561190957600080fd5b505af19350505050801561191b575060015b611935576000806000985098509850505050505050611d00565b6119a1565b609c54604051635a72594b60e11b81526001600160a01b039091169063b4e4b29690869061196e90879087906004016137b4565b6000604051808303818588803b15801561198757600080fd5b505af115801561199b573d6000803e3d6000fd5b50505050505b6001600160e01b031981166339d690a360e11b1415611a295760408201516001600160a01b03166342842e0e303385608001516040518463ffffffff1660e01b81526004016119f29392919061348c565b600060405180830381600087803b158015611a0c57600080fd5b505af1158015611a20573d6000803e3d6000fd5b50505050611874565b6001600160e01b0319811663025ceed960e61b1415611a8057604082810151608084015160a08501519251637921219560e11b81526001600160a01b039092169263f242432a926119f29230923392600401613576565b60405162461bcd60e51b8152602060048201526012602482015271556e6b6e6f776e20746f6b656e207479706560701b60448201526064016103e8565b600588516007811115611ad257611ad2612a06565b1415611ba557609d546040516000916001600160a01b0316908390611af8908790612a48565b60006040518083038185875af1925050503d8060008114611b35576040519150601f19603f3d011682016040523d82523d6000602084013e611b3a565b606091505b505090508715611b5d57806110c857600080600096509650965050505050611d00565b806111145760405162461bcd60e51b8152602060048201526018602482015277141d5c98da185cd94814dd591bd4ddd85c0819985a5b195960421b60448201526064016103e8565b600788516007811115611bba57611bba612a06565b1415611c8b57609e546040516000916001600160a01b0316908390611be0908790612a48565b60006040518083038185875af1925050503d8060008114611c1d576040519150601f19603f3d011682016040523d82523d6000602084013e611c22565b606091505b505090508715611c4557806110c857600080600096509650965050505050611d00565b806111145760405162461bcd60e51b8152602060048201526016602482015275141d5c98da185cd948189b1d5c9a5bc819985a5b195960521b60448201526064016103e8565b60405162461bcd60e51b8152602060048201526018602482015277556e6b6e6f776e2070757263686173652064657461696c7360401b60448201526064016103e8565b611cdc828960200151611f34565b600080611cf18a604001518b60200151611fde565b60019950909750955050505050505b9250925092565b600082118015611d1f57506001600160a01b03811615155b15611d2e57611d2e818361200f565b5050565b47801561093357610933338261200f565b60655460ff166105c25760405162461bcd60e51b815260206004820152601460248201527314185d5cd8589b194e881b9bdd081c185d5cd95960621b60448201526064016103e8565b6060806000602085901c61ffff166001811115611dab57611dab612a06565b905060606000826001811115611dc357611dc3612a06565b1415611dd5578693509150611e7f9050565b6001826001811115611de957611de9612a06565b1415611e3757600087806020019051810190611e05919061390e565b9050611e10866120c8565b15611e2b578060000151816020015194509450505050611e7f565b5193509150611e7f9050565b60405162461bcd60e51b815260206004820152601a60248201527f756e6b6e6f776e206164646974696f6e616c446174615479706500000000000060448201526064016103e8565b935093915050565b8151835114611e9557600080fd5b8051835114611ea357600080fd5b825160005b81811015611f2d57828181518110611ec257611ec261291b565b01602001516001600160f81b03191615611f1d57838181518110611ee857611ee861291b565b602001015160f81c60f81b858281518110611f0557611f0561291b565b60200101906001600160f81b031916908160001a9053505b611f268161295f565b9050611ea8565b5050505050565b815160005b81811015611fd8576000848281518110611f5557611f5561291b565b60200260200101511115611fc8576000848281518110611f7757611f7761291b565b60200260200101519050600060a0868481518110611f9757611f9761291b565b6020026020010151901c90506000611fb8828761211090919063ffffffff16565b9050611fc48184611d07565b5050505b611fd18161295f565b9050611f39565b50505050565b60008061ffff601085901c8116908516611ff88583612110565b6120028683612110565b9350935050509250929050565b6000826001600160a01b03168260405160006040518083038185875af1925050503d806000811461205c576040519150601f19603f3d011682016040523d82523d6000602084013e612061565b606091505b50509050806120c35760405162461bcd60e51b815260206004820152602860248201527f4c69625472616e73666572204261736543757272656e6379207472616e7366656044820152671c8819985a5b195960c21b60648201526084016103e8565b505050565b600060058260078111156120de576120de612a06565b14806120fb575060048260078111156120f9576120f9612a06565b145b1561210857506001919050565b506000919050565b600061271061211f83856139f6565b6121299190613a15565b9392505050565b6001600160a01b038116811461093357600080fd5b803561215081612130565b919050565b60008060008060008060008060008060006101608c8e03121561217757600080fd5b8b3561218281612130565b9a5060208c013561219281612130565b995060408c01356121a281612130565b985060608c01356121b281612130565b975060808c01356121c281612130565b965060a08c01356121d281612130565b955060c08c01356121e281612130565b945060e08c01356121f281612130565b93506101008c013561220381612130565b92506122126101208d01612145565b91506122216101408d01612145565b90509295989b509295989b9093969950565b6001600160e01b03198116811461093357600080fd5b60006020828403121561225b57600080fd5b813561212981612233565b60006020828403121561227857600080fd5b813561212981612130565b634e487b7160e01b600052604160045260246000fd5b604080519081016001600160401b03811182821017156122bb576122bb612283565b60405290565b6040516101a081016001600160401b03811182821017156122bb576122bb612283565b60405161016081016001600160401b03811182821017156122bb576122bb612283565b60405160c081016001600160401b03811182821017156122bb576122bb612283565b604051606081016001600160401b03811182821017156122bb576122bb612283565b60405161020081016001600160401b03811182821017156122bb576122bb612283565b604051601f8201601f191681016001600160401b038111828210171561239657612396612283565b604052919050565b60006001600160401b038211156123b7576123b7612283565b50601f01601f191660200190565b600082601f8301126123d657600080fd5b81356123e96123e48261239e565b61236e565b8181528460208386010111156123fe57600080fd5b816020850160208301376000918101602001919091529392505050565b6000806000806080858703121561243157600080fd5b843561243c81612130565b9350602085013561244c81612130565b92506040850135915060608501356001600160401b0381111561246e57600080fd5b61247a878288016123c5565b91505092959194509250565b60006001600160401b0382111561249f5761249f612283565b5060051b60200190565b6008811061093357600080fd5b6000608082840312156124c857600080fd5b604051608081016001600160401b0382821081831117156124eb576124eb612283565b81604052829350843591506124ff826124a9565b8183526020850135602084015260408501356040840152606085013591508082111561252a57600080fd5b50612537858286016123c5565b6060830152505092915050565b801515811461093357600080fd5b803561215081612544565b600060a0828403121561256f57600080fd5b60405160a081018181106001600160401b038211171561259157612591612283565b60405290508082356125a281612130565b815260208301356125b281612130565b80602083015250604083013560408201526060830135606082015260808301356125db81612544565b6080919091015292915050565b6000806000806000610120868803121561260157600080fd5b85356001600160401b038082111561261857600080fd5b818801915088601f83011261262c57600080fd5b8135602061263c6123e483612486565b82815260059290921b8401810191818101908c84111561265b57600080fd5b8286015b84811015612693578035868111156126775760008081fd5b6126858f86838b01016124b6565b84525091830191830161265f565b5099506126a390508a8201612145565b9750505050506126b560408701612145565b92506126c360608701612552565b91506126d2876080880161255d565b90509295509295909350565b6001600160a01b03169052565b6001600160a01b0391909116815260200190565b600080600080610100858703121561271657600080fd5b84356001600160401b0381111561272c57600080fd5b612738878288016124b6565b945050602085013561274981612130565b9250604085013561275981612130565b9150612768866060870161255d565b905092959194509250565b600082601f83011261278457600080fd5b813560206127946123e483612486565b82815260059290921b840181019181810190868411156127b357600080fd5b8286015b848110156127ce57803583529183019183016127b7565b509695505050505050565b600080600080600060a086880312156127f157600080fd5b85356127fc81612130565b9450602086013561280c81612130565b935060408601356001600160401b038082111561282857600080fd5b61283489838a01612773565b9450606088013591508082111561284a57600080fd5b61285689838a01612773565b9350608088013591508082111561286c57600080fd5b50612879888289016123c5565b9150509295509295909350565b600080600080600060a0868803121561289e57600080fd5b85356128a981612130565b945060208601356128b981612130565b9350604086013592506060860135915060808601356001600160401b038111156128e257600080fd5b612879888289016123c5565b6020808252601390820152721cddd85c081b9bdd081cdd58d8d95cdcd99d5b606a1b604082015260600190565b634e487b7160e01b600052603260045260246000fd5b634e487b7160e01b600052601160045260246000fd5b6000821982111561295a5761295a612931565b500190565b600060001982141561297357612973612931565b5060010190565b6020808252602b908201527f496e697469616c697a61626c653a20636f6e7472616374206973206e6f74206960408201526a6e697469616c697a696e6760a81b606082015260800190565b6000602082840312156129d757600080fd5b5051919050565b805161215081612544565b6000602082840312156129fb57600080fd5b815161212981612544565b634e487b7160e01b600052602160045260246000fd5b60005b83811015612a37578181015183820152602001612a1f565b83811115611fd85750506000910152565b60008251612a5a818460208701612a1c565b9190910192915050565b805161215081612130565b600082601f830112612a8057600080fd5b8151612a8e6123e48261239e565b818152846020838601011115612aa357600080fd5b612ab4826020830160208701612a1c565b949350505050565b600082601f830112612acd57600080fd5b81516020612add6123e483612486565b82815260059290921b84018101918181019086841115612afc57600080fd5b8286015b848110156127ce5780516001600160401b0380821115612b205760008081fd5b908801906040828b03601f1901811315612b3a5760008081fd5b612b42612299565b838801518152908301519082821115612b5b5760008081fd5b612b698c8984870101612a6f565b818901528652505050918301918301612b00565b805160ff8116811461215057600080fd5b600082601f830112612b9f57600080fd5b81516020612baf6123e483612486565b82815260059290921b84018101918181019086841115612bce57600080fd5b8286015b848110156127ce5780516001600160401b0380821115612bf25760008081fd5b908801906101a0828b03601f1901811315612c0d5760008081fd5b612c156122c1565b8784015181526040612c28818601612a64565b89830152606080860151828401526080915081860151818401525060a0808601518284015260c0915081860151818401525060e0612c67818701612a64565b8284015261010091508186015185811115612c825760008081fd5b612c908f8c838a0101612a6f565b8285015250506101208086015185811115612cab5760008081fd5b612cb98f8c838a0101612abc565b838501525061014094508486015181840152505061016080850151848301526101809350612ce8848601612b7d565b90820152612cf7848301612b7d565b9281019290925250845250918301918301612bd2565b8051612150816124a9565b600082601f830112612d2957600080fd5b81516020612d396123e483612486565b82815260069290921b84018101918181019086841115612d5857600080fd5b8286015b848110156127ce5760408189031215612d755760008081fd5b612d7d612299565b8151815284820151612d8e81612130565b81860152835291830191604001612d5c565b600082601f830112612db157600080fd5b81516020612dc16123e483612486565b82815260059290921b84018101918181019086841115612de057600080fd5b8286015b848110156127ce5780516001600160401b0380821115612e045760008081fd5b90880190610160828b03601f1901811315612e1f5760008081fd5b612e276122e4565b612e32888501612d0d565b815260408085015189830152606080860151828401526080915081860151818401525060a0808601518284015260c09150612e6e828701612a64565b9083015260e08581015185811115612e865760008081fd5b612e948f8c838a0101612a6f565b838501525061010091508186015181840152506101208086015182840152610140915081860151818401525082850151925083831115612ed45760008081fd5b612ee28d8a85880101612d18565b908201528652505050918301918301612de4565b600060c08284031215612f0857600080fd5b612f10612307565b9050815181526020820151602082015260408201516040820152606082015160608201526080820151612f4281612130565b608082015260a0820151612f5581612544565b60a082015292915050565b600060208284031215612f7257600080fd5b81516001600160401b0380821115612f8957600080fd5b908301906101608286031215612f9e57600080fd5b612fa6612307565b825182811115612fb557600080fd5b612fc187828601612b8e565b825250602083015182811115612fd657600080fd5b612fe287828601612da0565b602083015250612ff58660408501612ef6565b60408201526101008301516060820152610120830151608082015261301d6101408401612b7d565b60a082015295945050505050565b60008151808452613043816020860160208601612a1c565b601f01601f19169290920160200192915050565b600081518084526020808501808196508360051b8101915082860160005b858110156130b3578284038952815180518552850151604086860181905261309f8187018361302b565b9a87019a9550505090840190600101613075565b5091979650505050505050565b600881106130de57634e487b7160e01b600052602160045260246000fd5b9052565b600081518084526020808501945080840160005b83811015613126578151805188528301516001600160a01b031683880152604090960195908201906001016130f6565b509495945050505050565b600081518084526020808501808196508360051b8101915082860160005b858110156130b3578284038952815161016061316c8683516130c0565b818701518688015260408083015190870152606080830151908701526080808301519087015260a0808301516131a4828901826126de565b505060c08083015182828901526131bd8389018261302b565b60e085810151908a015261010080860151908a015261012080860151908a015261014094850151898203958a019590955292506131fe9150829050836130e2565b9a87019a955050509084019060010161314f565b60006020808352610180808401855161016080858801528282518085526101a094508489019150848160051b8a0101878501945060005b8281101561332d578a820361019f19018452855180518352898101516132718b8501826126de565b5060408181015190840152606080820151908401526080808201519084015260a0808201519084015260c0808201516132ac828601826126de565b505060e08082015189828601526132c58a86018261302b565b91505061010080830151858303828701526132e08382613057565b925050506101208083015181860152506101408083015181860152508682015161330e8886018260ff169052565b509089015160ff16928901929092529488019492880192600101613249565b50968a0151898803601f190160408b0152966133498189613131565b97505050506040880151935061339f6060880185805182526020808201519083015260408082015190830152606080820151908301526080808201516001600160a01b03169083015260a0908101511515910152565b6060880151610120880152608088015161014088015260a09097015160ff169690950195909552509392505050565b600060208083850312156133e157600080fd5b82516001600160401b038111156133f757600080fd5b8301601f8101851361340857600080fd5b80516134166123e482612486565b81815260069190911b8201830190838101908783111561343557600080fd5b928401925b8284101561348157604084890312156134535760008081fd5b61345b612299565b845161346681612130565b8152848601518682015282526040909301929084019061343a565b979650505050505050565b6001600160a01b039384168152919092166020820152604081019190915260600190565b600060208083850312156134c357600080fd5b82516001600160401b038111156134d957600080fd5b8301601f810185136134ea57600080fd5b80516134f86123e482612486565b8181526060918202830184019184820191908884111561351757600080fd5b938501935b8385101561356a5780858a0312156135345760008081fd5b61353c612329565b855161354781612130565b81528587015187820152604080870151908201528352938401939185019161351c565b50979650505050505050565b6001600160a01b0394851681529290931660208301526040820152606081019190915260a06080820181905260009082015260c00190565b600061020082840312156135c157600080fd5b6135c961234b565b90506135d4826129de565b81526135e260208301612a64565b60208201526135f360408301612a64565b6040820152606082015160608201526080820151608082015260a082015160a082015261362260c08301612a64565b60c082015261363360e08301612a64565b60e08201526101008281015190820152610120808301519082015261014080830151908201526101608083015190820152610180808301516001600160401b0381111561367f57600080fd5b61368b85828601612a6f565b8284015250506101a061369f818401612b7d565b908201526101c082810151908201526101e09182015191810191909152919050565b805161215081612233565b6000806000606084860312156136e157600080fd5b83516001600160401b03808211156136f857600080fd5b9085019060c0828803121561370c57600080fd5b613714612307565b825161371f81612544565b8152602083015161372f81612130565b8060208301525060408301516040820152606083015160608201526080830151608082015260a08301518281111561376657600080fd5b61377289828601612a6f565b60a083015250602087015190955091508082111561378f57600080fd5b5061379c868287016135ae565b9250506137ab604085016136c1565b90509250925092565b60408152600061010084511515604084015260018060a01b03602086015116606084015260408501516080840152606085015160a0840152608085015160c084015260a085015160c060e085015261380e8285018261302b565b84810360208601528551151581529050610200602086015161383360208401826126de565b50604086015161384660408401826126de565b50606086015160608301526080860151608083015260a086015160a083015260c086015161387760c08401826126de565b5060e086015161388a60e08401826126de565b508583015192820192909252610120808601519082015261014080860151908201526101608086015190820152610180808601518183018490529092906138d38284018261302b565b935050506101a0808601516138ec8284018260ff169052565b50506101c085810151908201526101e094850151940193909352509092915050565b6000602080838503121561392157600080fd5b82516001600160401b038082111561393857600080fd5b908401906040828703121561394c57600080fd5b613954612299565b82518281111561396357600080fd5b61396f88828601612a6f565b825250838301518281111561398357600080fd5b80840193505086601f84011261399857600080fd5b825191506139a86123e483612486565b82815260059290921b830184019184810190888411156139c757600080fd5b938501935b838510156139e5578451825293850193908501906139cc565b948201949094529695505050505050565b6000816000190483118215151615613a1057613a10612931565b500290565b600082613a3257634e487b7160e01b600052601260045260246000fd5b50049056fea26469706673582212200734c33d1bbb183e66f7103fd0d34c140d31b521d3d8dfd2d21a11542682daa764736f6c63430008090033",
  "devdoc": {
    "kind": "dev",
    "methods": {
      "bulkPurchase((uint8,uint256,uint256,bytes)[],address,address,bool,(address,address,uint256,uint256,bool))": {
        "params": {
          "allowFail": "- true if fails while executing orders are allowed, false if fail of a single order means fail of the whole batch",
          "feeRecipientFirst": "- address of the first fee recipient",
          "feeRecipientSecond": "- address of the second fee recipient",
          "purchaseDetails": "- array of details about the purchases (more info in PurchaseDetails struct)"
        }
      },
      "onERC721Received(address,address,uint256,bytes)": {
        "details": "See {IERC721Receiver-onERC721Received}. Always returns `IERC721Receiver.onERC721Received.selector`."
      },
      "owner()": {
        "details": "Returns the address of the current owner."
      },
      "paused()": {
        "details": "Returns true if the contract is paused, and false otherwise."
      },
      "renounceOwnership()": {
        "details": "Leaves the contract without owner. It will not be possible to call `onlyOwner` functions anymore. Can only be called by the current owner. NOTE: Renouncing ownership will leave the contract without an owner, thereby removing any functionality that is only available to the owner."
      },
      "singlePurchase((uint8,uint256,uint256,bytes),address,address,(address,address,uint256,uint256,bool))": {
        "params": {
          "feeRecipientFirst": "- address of the first fee recipient",
          "feeRecipientSecond": "- address of the second fee recipient",
          "purchaseDetails": "- details about the purchase (more info in PurchaseDetails struct)"
        }
      },
      "supportsInterface(bytes4)": {
        "details": "See {IERC165-supportsInterface}."
      },
      "transferOwnership(address)": {
        "details": "Transfers ownership of the contract to a new account (`newOwner`). Can only be called by the current owner."
      }
    },
    "version": 1
  },
  "userdoc": {
    "kind": "user",
    "methods": {
      "bulkPurchase((uint8,uint256,uint256,bytes)[],address,address,bool,(address,address,uint256,uint256,bool))": {
        "notice": "executes an array of purchases"
      },
      "pause()": {
        "notice": "Pause the contract"
      },
      "setTransferProxy(address)": {
        "notice": "temp for upgrade - to remove once initialized"
      },
      "singlePurchase((uint8,uint256,uint256,bytes),address,address,(address,address,uint256,uint256,bool))": {
        "notice": "executes a single purchase"
      },
      "unpause()": {
        "notice": "Unpause the contract"
      }
    },
    "version": 1
  },
  "storageLayout": {
    "storage": [
      {
        "astId": 138,
        "contract": "src/exchange-wrapper/ExchangeWrapper.sol:ExchangeWrapper",
        "label": "_initialized",
        "offset": 0,
        "slot": "0",
        "type": "t_uint8"
      },
      {
        "astId": 141,
        "contract": "src/exchange-wrapper/ExchangeWrapper.sol:ExchangeWrapper",
        "label": "_initializing",
        "offset": 1,
        "slot": "0",
        "type": "t_bool"
      },
      {
        "astId": 1326,
        "contract": "src/exchange-wrapper/ExchangeWrapper.sol:ExchangeWrapper",
        "label": "__gap",
        "offset": 0,
        "slot": "1",
        "type": "t_array(t_uint256)50_storage"
      },
      {
        "astId": 10,
        "contract": "src/exchange-wrapper/ExchangeWrapper.sol:ExchangeWrapper",
        "label": "_owner",
        "offset": 0,
        "slot": "51",
        "type": "t_address"
      },
      {
        "astId": 130,
        "contract": "src/exchange-wrapper/ExchangeWrapper.sol:ExchangeWrapper",
        "label": "__gap",
        "offset": 0,
        "slot": "52",
        "type": "t_array(t_uint256)49_storage"
      },
      {
        "astId": 303,
        "contract": "src/exchange-wrapper/ExchangeWrapper.sol:ExchangeWrapper",
        "label": "_paused",
        "offset": 0,
        "slot": "101",
        "type": "t_bool"
      },
      {
        "astId": 408,
        "contract": "src/exchange-wrapper/ExchangeWrapper.sol:ExchangeWrapper",
        "label": "__gap",
        "offset": 0,
        "slot": "102",
        "type": "t_array(t_uint256)49_storage"
      },
      {
        "astId": 2682,
        "contract": "src/exchange-wrapper/ExchangeWrapper.sol:ExchangeWrapper",
        "label": "exchangeV2",
        "offset": 0,
        "slot": "151",
        "type": "t_address"
      },
      {
        "astId": 2684,
        "contract": "src/exchange-wrapper/ExchangeWrapper.sol:ExchangeWrapper",
        "label": "rarible",
        "offset": 0,
        "slot": "152",
        "type": "t_address"
      },
      {
        "astId": 2686,
        "contract": "src/exchange-wrapper/ExchangeWrapper.sol:ExchangeWrapper",
        "label": "wyvern",
        "offset": 0,
        "slot": "153",
        "type": "t_address"
      },
      {
        "astId": 2688,
        "contract": "src/exchange-wrapper/ExchangeWrapper.sol:ExchangeWrapper",
        "label": "seaport",
        "offset": 0,
        "slot": "154",
        "type": "t_address"
      },
      {
        "astId": 2690,
        "contract": "src/exchange-wrapper/ExchangeWrapper.sol:ExchangeWrapper",
        "label": "x2y2",
        "offset": 0,
        "slot": "155",
        "type": "t_address"
      },
      {
        "astId": 2692,
        "contract": "src/exchange-wrapper/ExchangeWrapper.sol:ExchangeWrapper",
        "label": "looksrare",
        "offset": 0,
        "slot": "156",
        "type": "t_address"
      },
      {
        "astId": 2694,
        "contract": "src/exchange-wrapper/ExchangeWrapper.sol:ExchangeWrapper",
        "label": "sudoswap",
        "offset": 0,
        "slot": "157",
        "type": "t_address"
      },
      {
        "astId": 2696,
        "contract": "src/exchange-wrapper/ExchangeWrapper.sol:ExchangeWrapper",
        "label": "blur",
        "offset": 0,
        "slot": "158",
        "type": "t_address"
      },
      {
        "astId": 2698,
        "contract": "src/exchange-wrapper/ExchangeWrapper.sol:ExchangeWrapper",
        "label": "wethToken",
        "offset": 0,
        "slot": "159",
        "type": "t_address"
      },
      {
        "astId": 2701,
        "contract": "src/exchange-wrapper/ExchangeWrapper.sol:ExchangeWrapper",
        "label": "uniswapRouterV3",
        "offset": 0,
        "slot": "160",
        "type": "t_contract(ISwapRouterV3)4653"
      },
      {
        "astId": 2703,
        "contract": "src/exchange-wrapper/ExchangeWrapper.sol:ExchangeWrapper",
        "label": "erc20TransferProxy",
        "offset": 0,
        "slot": "161",
        "type": "t_address"
      }
    ],
    "types": {
      "t_address": {
        "encoding": "inplace",
        "label": "address",
        "numberOfBytes": "20"
      },
      "t_array(t_uint256)49_storage": {
        "base": "t_uint256",
        "encoding": "inplace",
        "label": "uint256[49]",
        "numberOfBytes": "1568"
      },
      "t_array(t_uint256)50_storage": {
        "base": "t_uint256",
        "encoding": "inplace",
        "label": "uint256[50]",
        "numberOfBytes": "1600"
      },
      "t_bool": {
        "encoding": "inplace",
        "label": "bool",
        "numberOfBytes": "1"
      },
      "t_contract(ISwapRouterV3)4653": {
        "encoding": "inplace",
        "label": "contract ISwapRouterV3",
        "numberOfBytes": "20"
      },
      "t_uint256": {
        "encoding": "inplace",
        "label": "uint256",
        "numberOfBytes": "32"
      },
      "t_uint8": {
        "encoding": "inplace",
        "label": "uint8",
        "numberOfBytes": "1"
      }
    }
  }
}