{
  "_format": "hh-sol-artifact-1",
  "contractName": "ERC1155PresetMinterPauserUpgradeableCustom",
  "sourceName": "contracts/tests/tokens/ERC1155PresetMinterPauserUpgradeableCustom.sol",
  "abi": [
    {
      "anonymous": false,
      "inputs": [
        {
          "indexed": true,
          "internalType": "address",
          "name": "account",
          "type": "address"
        },
        {
          "indexed": true,
          "internalType": "address",
          "name": "operator",
          "type": "address"
        },
        {
          "indexed": false,
          "internalType": "bool",
          "name": "approved",
          "type": "bool"
        }
      ],
      "name": "ApprovalForAll",
      "type": "event"
    },
    {
      "anonymous": false,
      "inputs": [
        {
          "indexed": false,
          "internalType": "address",
          "name": "account",
          "type": "address"
        }
      ],
      "name": "Paused",
      "type": "event"
    },
    {
      "anonymous": false,
      "inputs": [
        {
          "indexed": true,
          "internalType": "bytes32",
          "name": "role",
          "type": "bytes32"
        },
        {
          "indexed": true,
          "internalType": "bytes32",
          "name": "previousAdminRole",
          "type": "bytes32"
        },
        {
          "indexed": true,
          "internalType": "bytes32",
          "name": "newAdminRole",
          "type": "bytes32"
        }
      ],
      "name": "RoleAdminChanged",
      "type": "event"
    },
    {
      "anonymous": false,
      "inputs": [
        {
          "indexed": true,
          "internalType": "bytes32",
          "name": "role",
          "type": "bytes32"
        },
        {
          "indexed": true,
          "internalType": "address",
          "name": "account",
          "type": "address"
        },
        {
          "indexed": true,
          "internalType": "address",
          "name": "sender",
          "type": "address"
        }
      ],
      "name": "RoleGranted",
      "type": "event"
    },
    {
      "anonymous": false,
      "inputs": [
        {
          "indexed": true,
          "internalType": "bytes32",
          "name": "role",
          "type": "bytes32"
        },
        {
          "indexed": true,
          "internalType": "address",
          "name": "account",
          "type": "address"
        },
        {
          "indexed": true,
          "internalType": "address",
          "name": "sender",
          "type": "address"
        }
      ],
      "name": "RoleRevoked",
      "type": "event"
    },
    {
      "anonymous": false,
      "inputs": [
        {
          "indexed": true,
          "internalType": "address",
          "name": "operator",
          "type": "address"
        },
        {
          "indexed": true,
          "internalType": "address",
          "name": "from",
          "type": "address"
        },
        {
          "indexed": true,
          "internalType": "address",
          "name": "to",
          "type": "address"
        },
        {
          "indexed": false,
          "internalType": "uint256[]",
          "name": "ids",
          "type": "uint256[]"
        },
        {
          "indexed": false,
          "internalType": "uint256[]",
          "name": "values",
          "type": "uint256[]"
        }
      ],
      "name": "TransferBatch",
      "type": "event"
    },
    {
      "anonymous": false,
      "inputs": [
        {
          "indexed": true,
          "internalType": "address",
          "name": "operator",
          "type": "address"
        },
        {
          "indexed": true,
          "internalType": "address",
          "name": "from",
          "type": "address"
        },
        {
          "indexed": true,
          "internalType": "address",
          "name": "to",
          "type": "address"
        },
        {
          "indexed": false,
          "internalType": "uint256",
          "name": "id",
          "type": "uint256"
        },
        {
          "indexed": false,
          "internalType": "uint256",
          "name": "value",
          "type": "uint256"
        }
      ],
      "name": "TransferSingle",
      "type": "event"
    },
    {
      "anonymous": false,
      "inputs": [
        {
          "indexed": false,
          "internalType": "string",
          "name": "value",
          "type": "string"
        },
        {
          "indexed": true,
          "internalType": "uint256",
          "name": "id",
          "type": "uint256"
        }
      ],
      "name": "URI",
      "type": "event"
    },
    {
      "anonymous": false,
      "inputs": [
        {
          "indexed": false,
          "internalType": "address",
          "name": "account",
          "type": "address"
        }
      ],
      "name": "Unpaused",
      "type": "event"
    },
    {
      "inputs": [],
      "name": "DEFAULT_ADMIN_ROLE",
      "outputs": [
        {
          "internalType": "bytes32",
          "name": "",
          "type": "bytes32"
        }
      ],
      "stateMutability": "view",
      "type": "function"
    },
    {
      "inputs": [],
      "name": "MINTER_ROLE",
      "outputs": [
        {
          "internalType": "bytes32",
          "name": "",
          "type": "bytes32"
        }
      ],
      "stateMutability": "view",
      "type": "function"
    },
    {
      "inputs": [],
      "name": "PAUSER_ROLE",
      "outputs": [
        {
          "internalType": "bytes32",
          "name": "",
          "type": "bytes32"
        }
      ],
      "stateMutability": "view",
      "type": "function"
    },
    {
      "inputs": [],
      "name": "POLYNETWORK_ROLE",
      "outputs": [
        {
          "internalType": "bytes32",
          "name": "",
          "type": "bytes32"
        }
      ],
      "stateMutability": "view",
      "type": "function"
    },
    {
      "inputs": [
        {
          "internalType": "address",
          "name": "account",
          "type": "address"
        },
        {
          "internalType": "uint256",
          "name": "id",
          "type": "uint256"
        }
      ],
      "name": "balanceOf",
      "outputs": [
        {
          "internalType": "uint256",
          "name": "",
          "type": "uint256"
        }
      ],
      "stateMutability": "view",
      "type": "function"
    },
    {
      "inputs": [
        {
          "internalType": "address[]",
          "name": "accounts",
          "type": "address[]"
        },
        {
          "internalType": "uint256[]",
          "name": "ids",
          "type": "uint256[]"
        }
      ],
      "name": "balanceOfBatch",
      "outputs": [
        {
          "internalType": "uint256[]",
          "name": "",
          "type": "uint256[]"
        }
      ],
      "stateMutability": "view",
      "type": "function"
    },
    {
      "inputs": [
        {
          "internalType": "address",
          "name": "account",
          "type": "address"
        },
        {
          "internalType": "uint256",
          "name": "id",
          "type": "uint256"
        },
        {
          "internalType": "uint256",
          "name": "value",
          "type": "uint256"
        }
      ],
      "name": "burn",
      "outputs": [],
      "stateMutability": "nonpayable",
      "type": "function"
    },
    {
      "inputs": [
        {
          "internalType": "address",
          "name": "account",
          "type": "address"
        },
        {
          "internalType": "uint256[]",
          "name": "ids",
          "type": "uint256[]"
        },
        {
          "internalType": "uint256[]",
          "name": "values",
          "type": "uint256[]"
        }
      ],
      "name": "burnBatch",
      "outputs": [],
      "stateMutability": "nonpayable",
      "type": "function"
    },
    {
      "inputs": [
        {
          "internalType": "bytes32",
          "name": "role",
          "type": "bytes32"
        }
      ],
      "name": "getRoleAdmin",
      "outputs": [
        {
          "internalType": "bytes32",
          "name": "",
          "type": "bytes32"
        }
      ],
      "stateMutability": "view",
      "type": "function"
    },
    {
      "inputs": [
        {
          "internalType": "bytes32",
          "name": "role",
          "type": "bytes32"
        },
        {
          "internalType": "uint256",
          "name": "index",
          "type": "uint256"
        }
      ],
      "name": "getRoleMember",
      "outputs": [
        {
          "internalType": "address",
          "name": "",
          "type": "address"
        }
      ],
      "stateMutability": "view",
      "type": "function"
    },
    {
      "inputs": [
        {
          "internalType": "bytes32",
          "name": "role",
          "type": "bytes32"
        }
      ],
      "name": "getRoleMemberCount",
      "outputs": [
        {
          "internalType": "uint256",
          "name": "",
          "type": "uint256"
        }
      ],
      "stateMutability": "view",
      "type": "function"
    },
    {
      "inputs": [
        {
          "internalType": "bytes32",
          "name": "role",
          "type": "bytes32"
        },
        {
          "internalType": "address",
          "name": "account",
          "type": "address"
        }
      ],
      "name": "grantRole",
      "outputs": [],
      "stateMutability": "nonpayable",
      "type": "function"
    },
    {
      "inputs": [
        {
          "internalType": "bytes32",
          "name": "role",
          "type": "bytes32"
        },
        {
          "internalType": "address",
          "name": "account",
          "type": "address"
        }
      ],
      "name": "hasRole",
      "outputs": [
        {
          "internalType": "bool",
          "name": "",
          "type": "bool"
        }
      ],
      "stateMutability": "view",
      "type": "function"
    },
    {
      "inputs": [
        {
          "internalType": "address",
          "name": "account",
          "type": "address"
        },
        {
          "internalType": "address",
          "name": "operator",
          "type": "address"
        }
      ],
      "name": "isApprovedForAll",
      "outputs": [
        {
          "internalType": "bool",
          "name": "",
          "type": "bool"
        }
      ],
      "stateMutability": "view",
      "type": "function"
    },
    {
      "inputs": [
        {
          "internalType": "address",
          "name": "to",
          "type": "address"
        },
        {
          "internalType": "uint256",
          "name": "tokenId",
          "type": "uint256"
        },
        {
          "internalType": "string",
          "name": "uri",
          "type": "string"
        },
        {
          "internalType": "uint256",
          "name": "amount",
          "type": "uint256"
        }
      ],
      "name": "mintWithURI",
      "outputs": [],
      "stateMutability": "nonpayable",
      "type": "function"
    },
    {
      "inputs": [],
      "name": "pause",
      "outputs": [],
      "stateMutability": "nonpayable",
      "type": "function"
    },
    {
      "inputs": [],
      "name": "paused",
      "outputs": [
        {
          "internalType": "bool",
          "name": "",
          "type": "bool"
        }
      ],
      "stateMutability": "view",
      "type": "function"
    },
    {
      "inputs": [
        {
          "internalType": "bytes32",
          "name": "role",
          "type": "bytes32"
        },
        {
          "internalType": "address",
          "name": "account",
          "type": "address"
        }
      ],
      "name": "renounceRole",
      "outputs": [],
      "stateMutability": "nonpayable",
      "type": "function"
    },
    {
      "inputs": [
        {
          "internalType": "bytes32",
          "name": "role",
          "type": "bytes32"
        },
        {
          "internalType": "address",
          "name": "account",
          "type": "address"
        }
      ],
      "name": "revokeRole",
      "outputs": [],
      "stateMutability": "nonpayable",
      "type": "function"
    },
    {
      "inputs": [
        {
          "internalType": "address",
          "name": "from",
          "type": "address"
        },
        {
          "internalType": "address",
          "name": "to",
          "type": "address"
        },
        {
          "internalType": "uint256[]",
          "name": "ids",
          "type": "uint256[]"
        },
        {
          "internalType": "uint256[]",
          "name": "amounts",
          "type": "uint256[]"
        },
        {
          "internalType": "bytes",
          "name": "data",
          "type": "bytes"
        }
      ],
      "name": "safeBatchTransferFrom",
      "outputs": [],
      "stateMutability": "nonpayable",
      "type": "function"
    },
    {
      "inputs": [
        {
          "internalType": "address",
          "name": "from",
          "type": "address"
        },
        {
          "internalType": "address",
          "name": "to",
          "type": "address"
        },
        {
          "internalType": "uint256",
          "name": "id",
          "type": "uint256"
        },
        {
          "internalType": "uint256",
          "name": "amount",
          "type": "uint256"
        },
        {
          "internalType": "bytes",
          "name": "data",
          "type": "bytes"
        }
      ],
      "name": "safeTransferFrom",
      "outputs": [],
      "stateMutability": "nonpayable",
      "type": "function"
    },
    {
      "inputs": [
        {
          "internalType": "address",
          "name": "operator",
          "type": "address"
        },
        {
          "internalType": "bool",
          "name": "approved",
          "type": "bool"
        }
      ],
      "name": "setApprovalForAll",
      "outputs": [],
      "stateMutability": "nonpayable",
      "type": "function"
    },
    {
      "inputs": [
        {
          "internalType": "string",
          "name": "uri_",
          "type": "string"
        }
      ],
      "name": "setURI",
      "outputs": [],
      "stateMutability": "nonpayable",
      "type": "function"
    },
    {
      "inputs": [
        {
          "internalType": "bytes4",
          "name": "interfaceId",
          "type": "bytes4"
        }
      ],
      "name": "supportsInterface",
      "outputs": [
        {
          "internalType": "bool",
          "name": "",
          "type": "bool"
        }
      ],
      "stateMutability": "view",
      "type": "function"
    },
    {
      "inputs": [],
      "name": "unpause",
      "outputs": [],
      "stateMutability": "nonpayable",
      "type": "function"
    },
    {
      "inputs": [
        {
          "internalType": "uint256",
          "name": "",
          "type": "uint256"
        }
      ],
      "name": "uri",
      "outputs": [
        {
          "internalType": "string",
          "name": "",
          "type": "string"
        }
      ],
      "stateMutability": "view",
      "type": "function"
    }
  ],
  "bytecode": "0x608060405234801561001057600080fd5b50612cac806100206000396000f3fe608060405234801561001057600080fd5b50600436106101ad5760003560e01c80638456cb59116100ee578063ca15c87311610097578063e63ab1e911610071578063e63ab1e9146103e1578063e985e9c514610408578063f242432a14610444578063f5298aca1461045757600080fd5b8063ca15c87314610394578063d5391393146103a7578063d547741f146103ce57600080fd5b80639ceea665116100c85780639ceea66514610352578063a217fddf14610379578063a22cb4651461038157600080fd5b80638456cb59146102e65780639010d07c146102ee57806391d148541461031957600080fd5b80632f2ff15d1161015b5780633f4ba83a116101355780633f4ba83a1461029f5780634e1273f4146102a75780635c975abb146102c75780636b20c454146102d357600080fd5b80632f2ff15d1461026657806336568abe1461027957806336edac961461028c57600080fd5b80630e89341c1161018c5780630e89341c14610210578063248a9ca3146102305780632eb2c2d61461025357600080fd5b8062fdd58e146101b257806301ffc9a7146101d857806302fe5305146101fb575b600080fd5b6101c56101c036600461262d565b61046a565b6040519081526020015b60405180910390f35b6101eb6101e636600461280b565b610506565b60405190151581526020016101cf565b61020e610209366004612843565b610511565b005b61022361021e3660046127b0565b61059a565b6040516101cf9190612a47565b6101c561023e3660046127b0565b60009081526065602052604090206001015490565b61020e610261366004612479565b61062e565b61020e6102743660046127c8565b610992565b61020e6102873660046127c8565b6109b9565b61020e61029a366004612656565b6109db565b61020e610aa1565b6102ba6102b53660046126e5565b610b47565b6040516101cf9190612a06565b61012d5460ff166101eb565b61020e6102e1366004612582565b610ca9565b61020e610d2e565b6103016102fc3660046127ea565b610dd2565b6040516001600160a01b0390911681526020016101cf565b6101eb6103273660046127c8565b60009182526065602090815260408084206001600160a01b0393909316845291905290205460ff1690565b6101c57f8a9d57248f1015d5cac20111fe2512477434cf493627e5e959ca751e593d807981565b6101c5600081565b61020e61038f3660046125f3565b610df1565b6101c56103a23660046127b0565b610ec8565b6101c57f9f2df0fed2c77648de5860a4cc508cd0818c85b8b8a1ab4ceeef8d981c8956a681565b61020e6103dc3660046127c8565b610edf565b6101c57f65d7a28e3265b37a6474929f336521b332c1681b933f6cb9f3376673440d862a81565b6101eb610416366004612447565b6001600160a01b03918216600090815260ca6020908152604080832093909416825291909152205460ff1690565b61020e61045236600461251f565b610ee9565b61020e6104653660046126b3565b61111d565b60006001600160a01b0383166104db5760405162461bcd60e51b815260206004820152602b60248201527f455243313135353a2062616c616e636520717565727920666f7220746865207a60448201526a65726f206164647265737360a81b60648201526084015b60405180910390fd5b50600081815260c9602090815260408083206001600160a01b03861684529091529020545b92915050565b6000610500826111a2565b61051c600033610327565b61058e5760405162461bcd60e51b815260206004820152603e60248201527f455243313135355072657365744d696e7465725061757365723a206d7573742060448201527f686176652061646d696e20726f6c6520746f20736574206e657720757269000060648201526084016104d2565b610597816111e2565b50565b606060cb80546105a990612b0f565b80601f01602080910402602001604051908101604052809291908181526020018280546105d590612b0f565b80156106225780601f106105f757610100808354040283529160200191610622565b820191906000526020600020905b81548152906001019060200180831161060557829003601f168201915b50505050509050919050565b81518351146106905760405162461bcd60e51b815260206004820152602860248201527f455243313135353a2069647320616e6420616d6f756e7473206c656e677468206044820152670dad2e6dac2e8c6d60c31b60648201526084016104d2565b6001600160a01b0384166106f45760405162461bcd60e51b815260206004820152602560248201527f455243313135353a207472616e7366657220746f20746865207a65726f206164604482015264647265737360d81b60648201526084016104d2565b6001600160a01b03851633148061071057506107108533610416565b6107825760405162461bcd60e51b815260206004820152603260248201527f455243313135353a207472616e736665722063616c6c6572206973206e6f742060448201527f6f776e6572206e6f7220617070726f766564000000000000000000000000000060648201526084016104d2565b336107918187878787876111f9565b60005b84518110156109245760008582815181106107bf57634e487b7160e01b600052603260045260246000fd5b6020026020010151905060008583815181106107eb57634e487b7160e01b600052603260045260246000fd5b602090810291909101810151600084815260c9835260408082206001600160a01b038e16835290935291909120549091508181101561087f5760405162461bcd60e51b815260206004820152602a60248201527f455243313135353a20696e73756666696369656e742062616c616e636520666f60448201526939103a3930b739b332b960b11b60648201526084016104d2565b6108898282612ab5565b60c9600085815260200190815260200160002060008c6001600160a01b03166001600160a01b03168152602001908152602001600020819055508160c9600085815260200190815260200160002060008b6001600160a01b03166001600160a01b0316815260200190815260200160002060008282546109099190612a7e565b925050819055505050508061091d90612b77565b9050610794565b50846001600160a01b0316866001600160a01b0316826001600160a01b03167f4a39dc06d4c0dbc64b70af90fd698a233a518aa5d07e595d983b8c0526c8f7fb8787604051610974929190612a19565b60405180910390a461098a818787878787611207565b505050505050565b61099c82826113bc565b60008281526097602052604090206109b490826113e2565b505050565b6109c382826113f7565b60008281526097602052604090206109b4908261147f565b610a057f8a9d57248f1015d5cac20111fe2512477434cf493627e5e959ca751e593d807933610327565b610a775760405162461bcd60e51b815260206004820152603460248201527f6d696e74576974685552493a206d757374206861766520504f4c594e4554574f60448201527f524b5f524f4c4520726f6c6520746f206d696e7400000000000000000000000060648201526084016104d2565b610a9284848360405180602001604052806000815250611494565b610a9b826111e2565b50505050565b610acb7f65d7a28e3265b37a6474929f336521b332c1681b933f6cb9f3376673440d862a33610327565b610b3d5760405162461bcd60e51b815260206004820152603b60248201527f455243313135355072657365744d696e7465725061757365723a206d7573742060448201527f686176652070617573657220726f6c6520746f20756e7061757365000000000060648201526084016104d2565b610b4561159e565b565b60608151835114610bac5760405162461bcd60e51b815260206004820152602960248201527f455243313135353a206163636f756e747320616e6420696473206c656e677468604482015268040dad2e6dac2e8c6d60bb1b60648201526084016104d2565b6000835167ffffffffffffffff811115610bd657634e487b7160e01b600052604160045260246000fd5b604051908082528060200260200182016040528015610bff578160200160208202803683370190505b50905060005b8451811015610ca157610c66858281518110610c3157634e487b7160e01b600052603260045260246000fd5b6020026020010151858381518110610c5957634e487b7160e01b600052603260045260246000fd5b602002602001015161046a565b828281518110610c8657634e487b7160e01b600052603260045260246000fd5b6020908102919091010152610c9a81612b77565b9050610c05565b509392505050565b6001600160a01b038316331480610cc55750610cc58333610416565b610d235760405162461bcd60e51b815260206004820152602960248201527f455243313135353a2063616c6c6572206973206e6f74206f776e6572206e6f7260448201526808185c1c1c9bdd995960ba1b60648201526084016104d2565b6109b483838361163c565b610d587f65d7a28e3265b37a6474929f336521b332c1681b933f6cb9f3376673440d862a33610327565b610dca5760405162461bcd60e51b815260206004820152603960248201527f455243313135355072657365744d696e7465725061757365723a206d7573742060448201527f686176652070617573657220726f6c6520746f2070617573650000000000000060648201526084016104d2565b610b456118af565b6000828152609760205260408120610dea9083611939565b9392505050565b336001600160a01b0383161415610e5c5760405162461bcd60e51b815260206004820152602960248201527f455243313135353a2073657474696e6720617070726f76616c20737461747573604482015268103337b91039b2b63360b91b60648201526084016104d2565b33600081815260ca602090815260408083206001600160a01b03871680855290835292819020805460ff191686151590811790915590519081529192917f17307eab39ab6107e8899845ad3d59bd9653f200f220920489ca2b5937696c31910160405180910390a35050565b600081815260976020526040812061050090611945565b6109c3828261194f565b6001600160a01b038416610f4d5760405162461bcd60e51b815260206004820152602560248201527f455243313135353a207472616e7366657220746f20746865207a65726f206164604482015264647265737360d81b60648201526084016104d2565b6001600160a01b038516331480610f695750610f698533610416565b610fc75760405162461bcd60e51b815260206004820152602960248201527f455243313135353a2063616c6c6572206973206e6f74206f776e6572206e6f7260448201526808185c1c1c9bdd995960ba1b60648201526084016104d2565b33610fe6818787610fd788611975565b610fe088611975565b876111f9565b600084815260c9602090815260408083206001600160a01b038a1684529091529020548381101561106c5760405162461bcd60e51b815260206004820152602a60248201527f455243313135353a20696e73756666696369656e742062616c616e636520666f60448201526939103a3930b739b332b960b11b60648201526084016104d2565b6110768482612ab5565b600086815260c9602090815260408083206001600160a01b038c811685529252808320939093558816815290812080548692906110b4908490612a7e565b909155505060408051868152602081018690526001600160a01b03808916928a821692918616917fc3d58168c5ae7397731d063d5bbf3d657854427343f4c083240f7aacaa2d0f62910160405180910390a46111148288888888886119ce565b50505050505050565b6001600160a01b03831633148061113957506111398333610416565b6111975760405162461bcd60e51b815260206004820152602960248201527f455243313135353a2063616c6c6572206973206e6f74206f776e6572206e6f7260448201526808185c1c1c9bdd995960ba1b60648201526084016104d2565b6109b4838383611ad9565b60006001600160e01b03198216636cdb3d1360e11b14806111d357506001600160e01b031982166303a24d0760e21b145b80610500575061050082611c5e565b80516111f59060cb9060208401906122af565b5050565b61098a868686868686611c83565b6001600160a01b0384163b1561098a5760405163bc197c8160e01b81526001600160a01b0385169063bc197c819061124b9089908990889088908890600401612965565b602060405180830381600087803b15801561126557600080fd5b505af1925050508015611295575060408051601f3d908101601f1916820190925261129291810190612827565b60015b61134b576112a1612bbe565b806308c379a014156112db57506112b6612bd6565b806112c157506112dd565b8060405162461bcd60e51b81526004016104d29190612a47565b505b60405162461bcd60e51b815260206004820152603460248201527f455243313135353a207472616e7366657220746f206e6f6e204552433131353560448201527f526563656976657220696d706c656d656e74657200000000000000000000000060648201526084016104d2565b6001600160e01b0319811663bc197c8160e01b146111145760405162461bcd60e51b815260206004820152602860248201527f455243313135353a204552433131353552656365697665722072656a656374656044820152676420746f6b656e7360c01b60648201526084016104d2565b6000828152606560205260409020600101546113d88133611cec565b6109b48383611d6c565b6000610dea836001600160a01b038416611e0e565b6001600160a01b03811633146114755760405162461bcd60e51b815260206004820152602f60248201527f416363657373436f6e74726f6c3a2063616e206f6e6c792072656e6f756e636560448201527f20726f6c657320666f722073656c66000000000000000000000000000000000060648201526084016104d2565b6111f58282611e5d565b6000610dea836001600160a01b038416611ee0565b6001600160a01b0384166114f45760405162461bcd60e51b815260206004820152602160248201527f455243313135353a206d696e7420746f20746865207a65726f206164647265736044820152607360f81b60648201526084016104d2565b3361150581600087610fd788611975565b600084815260c9602090815260408083206001600160a01b038916845290915281208054859290611537908490612a7e565b909155505060408051858152602081018590526001600160a01b0380881692600092918516917fc3d58168c5ae7397731d063d5bbf3d657854427343f4c083240f7aacaa2d0f62910160405180910390a4611597816000878787876119ce565b5050505050565b61012d5460ff166115f15760405162461bcd60e51b815260206004820152601460248201527f5061757361626c653a206e6f742070617573656400000000000000000000000060448201526064016104d2565b61012d805460ff191690557f5db9ee0a495bf2e6ff9c91a7834c1ba4fdd244a5e8aa4e537bd38aeae4b073aa335b6040516001600160a01b03909116815260200160405180910390a1565b6001600160a01b03831661169e5760405162461bcd60e51b815260206004820152602360248201527f455243313135353a206275726e2066726f6d20746865207a65726f206164647260448201526265737360e81b60648201526084016104d2565b80518251146117005760405162461bcd60e51b815260206004820152602860248201527f455243313135353a2069647320616e6420616d6f756e7473206c656e677468206044820152670dad2e6dac2e8c6d60c31b60648201526084016104d2565b6000339050611723818560008686604051806020016040528060008152506111f9565b60005b835181101561185057600084828151811061175157634e487b7160e01b600052603260045260246000fd5b60200260200101519050600084838151811061177d57634e487b7160e01b600052603260045260246000fd5b602090810291909101810151600084815260c9835260408082206001600160a01b038c16835290935291909120549091508181101561180a5760405162461bcd60e51b8152602060048201526024808201527f455243313135353a206275726e20616d6f756e7420657863656564732062616c604482015263616e636560e01b60648201526084016104d2565b6118148282612ab5565b600093845260c9602090815260408086206001600160a01b038c168752909152909320929092555081905061184881612b77565b915050611726565b5060006001600160a01b0316846001600160a01b0316826001600160a01b03167f4a39dc06d4c0dbc64b70af90fd698a233a518aa5d07e595d983b8c0526c8f7fb86866040516118a1929190612a19565b60405180910390a450505050565b61012d5460ff16156119035760405162461bcd60e51b815260206004820152601060248201527f5061757361626c653a207061757365640000000000000000000000000000000060448201526064016104d2565b61012d805460ff191660011790557f62e78cea01bee320cd4e420270b5ea74000d11b0c9f74754ebdbfc544b05a25861161f3390565b6000610dea8383611ff7565b6000610500825490565b60008281526065602052604090206001015461196b8133611cec565b6109b48383611e5d565b604080516001808252818301909252606091600091906020808301908036833701905050905082816000815181106119bd57634e487b7160e01b600052603260045260246000fd5b602090810291909101015292915050565b6001600160a01b0384163b1561098a5760405163f23a6e6160e01b81526001600160a01b0385169063f23a6e6190611a1290899089908890889088906004016129c3565b602060405180830381600087803b158015611a2c57600080fd5b505af1925050508015611a5c575060408051601f3d908101601f19168201909252611a5991810190612827565b60015b611a68576112a1612bbe565b6001600160e01b0319811663f23a6e6160e01b146111145760405162461bcd60e51b815260206004820152602860248201527f455243313135353a204552433131353552656365697665722072656a656374656044820152676420746f6b656e7360c01b60648201526084016104d2565b6001600160a01b038316611b3b5760405162461bcd60e51b815260206004820152602360248201527f455243313135353a206275726e2066726f6d20746865207a65726f206164647260448201526265737360e81b60648201526084016104d2565b33611b6a81856000611b4c87611975565b611b5587611975565b604051806020016040528060008152506111f9565b600083815260c9602090815260408083206001600160a01b038816845290915290205482811015611be95760405162461bcd60e51b8152602060048201526024808201527f455243313135353a206275726e20616d6f756e7420657863656564732062616c604482015263616e636560e01b60648201526084016104d2565b611bf38382612ab5565b600085815260c9602090815260408083206001600160a01b038a811680865291845282852095909555815189815292830188905292938616917fc3d58168c5ae7397731d063d5bbf3d657854427343f4c083240f7aacaa2d0f62910160405180910390a45050505050565b60006001600160e01b03198216635a05180f60e01b148061050057506105008261208b565b61012d5460ff161561098a5760405162461bcd60e51b815260206004820152602c60248201527f455243313135355061757361626c653a20746f6b656e207472616e736665722060448201526b1dda1a5b19481c185d5cd95960a21b60648201526084016104d2565b60008281526065602090815260408083206001600160a01b038516845290915290205460ff166111f557611d2a816001600160a01b031660146120c0565b611d358360206120c0565b604051602001611d469291906128e4565b60408051601f198184030181529082905262461bcd60e51b82526104d291600401612a47565b60008281526065602090815260408083206001600160a01b038516845290915290205460ff166111f55760008281526065602090815260408083206001600160a01b03851684529091529020805460ff19166001179055611dca3390565b6001600160a01b0316816001600160a01b0316837f2f8788117e7eff1d82e926ec794901d17c78024a50270940304540a733656f0d60405160405180910390a45050565b6000818152600183016020526040812054611e5557508154600181810184556000848152602080822090930184905584548482528286019093526040902091909155610500565b506000610500565b60008281526065602090815260408083206001600160a01b038516845290915290205460ff16156111f55760008281526065602090815260408083206001600160a01b0385168085529252808320805460ff1916905551339285917ff6391f5c32d9c69d2a47ea670b442974b53935d1edc7fd64eb21e047a839171b9190a45050565b60008181526001830160205260408120548015611fed576000611f04600183612ab5565b8554909150600090611f1890600190612ab5565b90506000866000018281548110611f3f57634e487b7160e01b600052603260045260246000fd5b9060005260206000200154905080876000018481548110611f7057634e487b7160e01b600052603260045260246000fd5b600091825260208083209091019290925582815260018901909152604090208490558654879080611fb157634e487b7160e01b600052603160045260246000fd5b60019003818190600052602060002001600090559055866001016000878152602001908152602001600020600090556001945050505050610500565b6000915050610500565b815460009082106120555760405162461bcd60e51b815260206004820152602260248201527f456e756d657261626c655365743a20696e646578206f7574206f6620626f756e604482015261647360f01b60648201526084016104d2565b82600001828154811061207857634e487b7160e01b600052603260045260246000fd5b9060005260206000200154905092915050565b60006001600160e01b03198216637965db0b60e01b148061050057506301ffc9a760e01b6001600160e01b0319831614610500565b606060006120cf836002612a96565b6120da906002612a7e565b67ffffffffffffffff81111561210057634e487b7160e01b600052604160045260246000fd5b6040519080825280601f01601f19166020018201604052801561212a576020820181803683370190505b509050600360fc1b8160008151811061215357634e487b7160e01b600052603260045260246000fd5b60200101906001600160f81b031916908160001a905350600f60fb1b8160018151811061219057634e487b7160e01b600052603260045260246000fd5b60200101906001600160f81b031916908160001a90535060006121b4846002612a96565b6121bf906001612a7e565b90505b6001811115612260577f303132333435363738396162636465660000000000000000000000000000000085600f166010811061220e57634e487b7160e01b600052603260045260246000fd5b1a60f81b82828151811061223257634e487b7160e01b600052603260045260246000fd5b60200101906001600160f81b031916908160001a90535060049490941c9361225981612af8565b90506121c2565b508315610dea5760405162461bcd60e51b815260206004820181905260248201527f537472696e67733a20686578206c656e67746820696e73756666696369656e7460448201526064016104d2565b8280546122bb90612b0f565b90600052602060002090601f0160209004810192826122dd5760008555612323565b82601f106122f657805160ff1916838001178555612323565b82800160010185558215612323579182015b82811115612323578251825591602001919060010190612308565b5061232f929150612333565b5090565b5b8082111561232f5760008155600101612334565b80356001600160a01b038116811461235f57600080fd5b919050565b600082601f830112612374578081fd5b8135602061238182612a5a565b60405161238e8282612b4a565b8381528281019150858301600585901b870184018810156123ad578586fd5b855b858110156123cb578135845292840192908401906001016123af565b5090979650505050505050565b600082601f8301126123e8578081fd5b813567ffffffffffffffff81111561240257612402612ba8565b604051612419601f8301601f191660200182612b4a565b81815284602083860101111561242d578283fd5b816020850160208301379081016020019190915292915050565b60008060408385031215612459578182fd5b61246283612348565b915061247060208401612348565b90509250929050565b600080600080600060a08688031215612490578081fd5b61249986612348565b94506124a760208701612348565b9350604086013567ffffffffffffffff808211156124c3578283fd5b6124cf89838a01612364565b945060608801359150808211156124e4578283fd5b6124f089838a01612364565b93506080880135915080821115612505578283fd5b50612512888289016123d8565b9150509295509295909350565b600080600080600060a08688031215612536578081fd5b61253f86612348565b945061254d60208701612348565b93506040860135925060608601359150608086013567ffffffffffffffff811115612576578182fd5b612512888289016123d8565b600080600060608486031215612596578283fd5b61259f84612348565b9250602084013567ffffffffffffffff808211156125bb578384fd5b6125c787838801612364565b935060408601359150808211156125dc578283fd5b506125e986828701612364565b9150509250925092565b60008060408385031215612605578182fd5b61260e83612348565b915060208301358015158114612622578182fd5b809150509250929050565b6000806040838503121561263f578182fd5b61264883612348565b946020939093013593505050565b6000806000806080858703121561266b578081fd5b61267485612348565b935060208501359250604085013567ffffffffffffffff811115612696578182fd5b6126a2878288016123d8565b949793965093946060013593505050565b6000806000606084860312156126c7578081fd5b6126d084612348565b95602085013595506040909401359392505050565b600080604083850312156126f7578182fd5b823567ffffffffffffffff8082111561270e578384fd5b818501915085601f830112612721578384fd5b8135602061272e82612a5a565b60405161273b8282612b4a565b8381528281019150858301600585901b870184018b101561275a578889fd5b8896505b848710156127835761276f81612348565b83526001969096019591830191830161275e565b5096505086013592505080821115612799578283fd5b506127a685828601612364565b9150509250929050565b6000602082840312156127c1578081fd5b5035919050565b600080604083850312156127da578182fd5b8235915061247060208401612348565b600080604083850312156127fc578182fd5b50508035926020909101359150565b60006020828403121561281c578081fd5b8135610dea81612c60565b600060208284031215612838578081fd5b8151610dea81612c60565b600060208284031215612854578081fd5b813567ffffffffffffffff81111561286a578182fd5b612876848285016123d8565b949350505050565b6000815180845260208085019450808401835b838110156128ad57815187529582019590820190600101612891565b509495945050505050565b600081518084526128d0816020860160208601612acc565b601f01601f19169290920160200192915050565b7f416363657373436f6e74726f6c3a206163636f756e742000000000000000000081526000835161291c816017850160208801612acc565b7f206973206d697373696e6720726f6c65200000000000000000000000000000006017918401918201528351612959816028840160208801612acc565b01602801949350505050565b60006001600160a01b03808816835280871660208401525060a0604083015261299160a083018661287e565b82810360608401526129a3818661287e565b905082810360808401526129b781856128b8565b98975050505050505050565b60006001600160a01b03808816835280871660208401525084604083015283606083015260a060808301526129fb60a08301846128b8565b979650505050505050565b602081526000610dea602083018461287e565b604081526000612a2c604083018561287e565b8281036020840152612a3e818561287e565b95945050505050565b602081526000610dea60208301846128b8565b600067ffffffffffffffff821115612a7457612a74612ba8565b5060051b60200190565b60008219821115612a9157612a91612b92565b500190565b6000816000190483118215151615612ab057612ab0612b92565b500290565b600082821015612ac757612ac7612b92565b500390565b60005b83811015612ae7578181015183820152602001612acf565b83811115610a9b5750506000910152565b600081612b0757612b07612b92565b506000190190565b600181811c90821680612b2357607f821691505b60208210811415612b4457634e487b7160e01b600052602260045260246000fd5b50919050565b601f8201601f1916810167ffffffffffffffff81118282101715612b7057612b70612ba8565b6040525050565b6000600019821415612b8b57612b8b612b92565b5060010190565b634e487b7160e01b600052601160045260246000fd5b634e487b7160e01b600052604160045260246000fd5b600060033d1115612bd357600481823e5160e01c5b90565b600060443d1015612be45790565b6040516003193d81016004833e81513d67ffffffffffffffff8160248401118184111715612c1457505050505090565b8285019150815181811115612c2c5750505050505090565b843d8701016020828501011115612c465750505050505090565b612c5560208286010187612b4a565b509095945050505050565b6001600160e01b03198116811461059757600080fdfea2646970667358221220bde5c9eb93757cb369e201e3959c4513acb6c97e55d88ef695134f42d0aee5bf64736f6c63430008040033",
  "linkReferences": {},
  "deployedLinkReferences": {}
}